:020000040000fa
:080000000402040000000000ee
:020000040000fa
:040008004e040000a2
:020000040000fa
:04000c006804000084
:020000040000fa
:0400100018030000d1
:020000040000fa
:040014008204000062
:020000040000fa
:040018009c04000044
:020000040000fa
:04001c0018030000c5
:020000040000fa
:0400200018030000c1
:020000040000fa
:0400240018030000bd
:020000040000fa
:0400280018030000b9
:020000040000fa
:04002c0018030000b5
:020000040000fa
:0400300018030000b1
:020000040000fa
:040034003003000095
:020000040000fa
:0400380018030000a9
:020000040000fa
:04003c0018030000a5
:020000040000fa
:0400400018030000a1
:020000040000fa
:04004400180300009d
:020000040000fa
:040048001803000099
:020000040000fa
:04004c00dc030000d1
:020000040000fa
:0400500002040000a6
:020000040000fa
:04005400680300003d
:020000040000fa
:040058008e03000013
:020000040000fa
:04005c001803000085
:020000040000fa
:040060001803000081
:020000040000fa
:04006400180300007d
:020000040000fa
:040068001803000079
:020000040000fa
:04006c00b4030000d9
:020000040000fa
:040070001803000071
:020000040000fa
:04007400180300006d
:020000040000fa
:040078001803000069
:020000040000fa
:04007c001803000065
:020000040000fa
:040080001803000061
:020000040000fa
:04008400180300005d
:020000040000fa
:040088001803000059
:020000040000fa
:04008c001803000055
:020000040000fa
:040090001803000051
:020000040000fa
:04009400180300004d
:020000040000fa
:040098001803000049
:020000040000fa
:04009c001803000045
:020000040000fa
:0400a0001803000041
:020000040000fa
:0400a400180300003d
:020000040000fa
:0400a8001803000039
:020000040000fa
:0400ac001803000035
:020000040000fa
:0400b0001803000031
:020000040000fa
:0400b400180300002d
:020000040000fa
:0400b8001803000029
:020000040000fa
:0400bc001803000025
:020000040000fa
:0400c0001803000021
:020000040000fa
:0400c400180300001d
:020000040000fa
:0400c8001803000019
:020000040000fa
:0400cc001803000015
:020000040000fa
:0400d0001803000011
:020000040000fa
:0400d400180300000d
:020000040000fa
:0400d8001803000009
:020000040000fa
:0400dc001803000005
:020000040000fa
:0400e0001803000001
:020000040000fa
:0400e40018030000fd
:020000040000fa
:0400e80018030000f9
:020000040000fa
:0400ec0018030000f5
:020000040000fa
:0400f00018030000f1
:020000040000fa
:0400f40018030000ed
:020000040000fa
:0400f80018030000e9
:020000040000fa
:0400fc0018030000e5
:020000040000fa
:0401000018030000e0
:020000040000fa
:0401040018030000dc
:020000040000fa
:0401080018030000d8
:020000040000fa
:04010c0018030000d4
:020000040000fa
:0401100028040000bf
:020000040000fa
:0401140018030000cc
:020000040000fa
:0401180018030000c8
:020000040000fa
:04011c0018030000c4
:020000040000fa
:0401200018030000c0
:020000040000fa
:0401240018030000bc
:020000040000fa
:0401280018030000b8
:020000040000fa
:04012c0018030000b4
:020000040000fa
:0401300018030000b0
:020000040000fa
:0401340018030000ac
:020000040000fa
:0401380018030000a8
:020000040000fa
:04013c0018030000a4
:020000040000fa
:0401400018030000a0
:020000040000fa
:04014400180300009c
:020000040000fa
:040148001803000098
:020000040000fa
:04014c001803000094
:020000040000fa
:040150001803000090
:020000040000fa
:04015400180300008c
:020000040000fa
:040158001803000088
:020000040000fa
:04015c001803000084
:020000040000fa
:040160001803000080
:020000040000fa
:04016400180300007c
:020000040000fa
:040168001803000078
:020000040000fa
:04016c001803000074
:020000040000fa
:040170001803000070
:020000040000fa
:04017400180300006c
:020000040000fa
:040178001803000068
:020000040000fa
:04017c001803000064
:020000040000fa
:040180001803000060
:020000040000fa
:04018400180300005c
:020000040000fa
:040188001803000058
:020000040000fa
:04018c001803000054
:020000040000fa
:040190001803000050
:020000040000fa
:04019400180300004c
:020000040000fa
:040198001803000048
:020000040000fa
:04019c001803000044
:020000040000fa
:0401a0001803000040
:020000040000fa
:0401a400180300003c
:020000040000fa
:0401a8001803000038
:020000040000fa
:0401ac001803000034
:020000040000fa
:0401b0001803000030
:020000040000fa
:0401b400180300002c
:020000040000fa
:0401b8001803000028
:020000040000fa
:0401bc001803000024
:020000040000fa
:0401c0001803000020
:020000040000fa
:0401c400180300001c
:020000040000fa
:0401c8001803000018
:020000040000fa
:0401cc001803000014
:020000040000fa
:0401d0001803000010
:020000040000fa
:0401d400180300000c
:020000040000fa
:0401d8001803000008
:020000040000fa
:0401dc001803000004
:020000040000fa
:0401e0001803000000
:020000040000fa
:0401e40018030000fc
:020000040000fa
:0401e80018030000f8
:020000040000fa
:0401ec0018030000f4
:020000040000fa
:0401f00018030000f0
:020000040000fa
:0401f40018030000ec
:020000040000fa
:0401f80018030000e8
:020000040000fa
:0401fc0018030000e4
:020000040000fa
:08040000a6150000f415000030
:020000040000fa
:100408002f9920008efe20000e01880000000000b9
:10041800000020000000e00002003200000120007f
:100428002002880014000700820107000000e00095
:1004380003003a0040b42100010020000200370008
:100448000000200001002000810f70000100320030
:1004580014000700000020000000e0000200320045
:100468000000020000000000481802000000000020
:100478000040da000000fe004440a90000202000ef
:100488000000e000030032000020200090018800f6
:100498004440a800000006008a1f78008b1f7800df
:1004a80000000600a1028800800478000000eb002c
:1004b8001f003700e284440054a0b4009905ba0034
:1004c800e284440054a0b4009906ba00e2844400cf
:1004d80054a0b4000006eb00476fde00fd07b20031
:1004e800ae018800636ce10003003a00eaff0700f0
:1004f8000000eb000e003700606ce10008003a00d5
:10050800004deb000a05e800020039003420ec0039
:100518000af0a0008b05e900f9ff3e00040037004f
:100528006168e100010032000086eb000b00070063
:1005380019c7ba001905ba000e04e00003003a0012
:100548000a00e000dbff3a0000000600fe07b200e8
:10055800ae0288008a047800f5ff37000cd0a300ab
:10056800e20f4d001c00390089027800354dba00b1
:100578000a05e800020039003420ec000af0a00067
:100588008b05e9000f003200254dba000a05e80086
:10059800020039003420ec000af0a0008b05e900c5
:1005a800080032000c00e0000600320015cdba0049
:1005b8000a05e800020039003420ec000af0a00027
:1005c8008b05e9008984e80054a0b4000b00e00022
:1005d800e2ff3a00000006009902ba00055d7800c3
:1005e8008b05e900f7ff3200c82ade00055d7800b8
:1005f8008b05e900f3ff32000c00e000f1ff320048
:1006080019ddba00eeff370000000000000000000e
:1006180000000000000000000000000000000000d2
:1006280000000000000000003200f8003400f8006c
:10063800881f780018002000a801880008202000e2
:10064800980188004f0478000000fa0000000000bc
:1006580000000000ffff37003600f800809fbe0052
:10066800829fbe00849fbe00869fbe003200f800b5
:100678003400f80010002000a001880000202000ad
:10068800900188000000fa008860a900e07f8000df
:100698000000e00002003a00f30b070001003700f9
:1006a800620e07000080fa003400f9003200f900f9
:1006b8004f03be004f02be004f01be004f00be00f8
:1006c8003600f900004006003600f800809fbe00a2
:1006d800829fbe00849fbe00869fbe000000fa0075
:1006e800e07f80000000e00002003a00af08070049
:1006f80001003700520e07000080fa004f03be00c9
:100708004f02be004f01be004f00be003600f90088
:10071800004006003600f800809fbe00829fbe00a1
:10072800849fbe00869fbe000000fa00e07f800024
:100738000000e00002003a007208070001003700dc
:10074800440e07000080fa004f03be004f02be00af
:100758004f01be004f00be003600f9000040060001
:100768003600f800809fbe00829fbe00849fbe00b6
:10077800869fbe000000fa008a20a900e07f800062
:100788000000e00002003a00580a070001003700a4
:10079800350e07000080fa004f03be004f02be006e
:1007a8004f01be004f00be003600f90000400600b1
:1007b8003600f800809fbe00829fbe00849fbe0066
:1007c800869fbe000000fa00e07f80000000e00085
:1007d80002003a00490a070001003700270e070007
:1007e8000080fa004f03be004f02be004f01be005a
:1007f8004f00be003600f900004006003600f80041
:10080800809fbe00829fbe00849fbe00869fbe0060
:100818000000fa00e07f80000000e00002003a00db
:100828003a0a070001003700190e07000080fa0095
:100838004f03be004f02be004f01be004f00be0076
:100848003600f900004006003600f800809fbe0020
:10085800829fbe00849fbe00869fbe000000fa00f3
:10086800e07f80000000e00002003a002b0a070049
:10087800010037000b0e07000080fa004f03be008e
:100888004f02be004f01be004f00be003600f90007
:10089800004006000000fa008020a90000000000c7
:1008a8000000000000000000000000000000000040
:1008b8000000000000000000000000000000fe0032
:1008c8000080fa00004006000000fa008060a900dd
:1008d8000000000000000000000000000000000010
:1008e8000000000000000000000000000000000000
:1008f8000000fe000080fa00004006000000fa0038
:100908008040a90000000000000000000000000076
:1009180000000000000000000000000000000000cf
:10092800000000000000fe000080fa000040060001
:100938000000fa008080a90000000000000000000c
:10094800000000000000000000000000000000009f
:1009580000000000000000000000fe000080fa0017
:10096800004006000000fa008020a90000000000f6
:10097800000000000000000000000000000000006f
:100988000000000000000000000000000000fe0061
:100998000080fa00004006000000fa008060a9000c
:1009a800000000000000000000000000000000003f
:1009b800000000000000000000000000000000002f
:1009c8000000fe000080fa00004006000000fa0067
:1009d8008040a900000000000000000000000000a6
:1009e80000000000000000000000000000000000ff
:1009f800000000000000fe000080fa000040060031
:100a08000000fa008080a90000000000000000003b
:100a180000000000000000000000000000000000ce
:100a280000000000000000000000fe000080fa0046
:100a38000040060000000500800178000200370031
:100a4800815978000201e9000200e000fcff3a0049
:040a58000000060094
:020000040000fa
:100a5c0000000000c1c0000081c100004001000086
:100a6c0001c30000c00300008002000041c200006e
:100a7c0001c60000c00600008007000041c700004e
:100a8c0000050000c1c5000081c400004004000046
:100a9c0001cc0000c00c0000800d000041cd000016
:100aac00000f0000c1cf000081ce0000400e0000fe
:100abc00000a0000c1ca000081cb0000400b0000fe
:100acc0001c90000c00900008008000041c80000f6
:100adc0001d80000c01800008019000041d90000a6
:100aec00001b0000c1db000081da0000401a00008e
:100afc00001e0000c1de000081df0000401f00006e
:100b0c0001dd0000c01d0000801c000041dc000065
:100b1c0000140000c1d4000081d500004015000075
:100b2c0001d70000c01700008016000041d600005d
:100b3c0001d20000c01200008013000041d300005d
:100b4c0000110000c1d1000081d000004010000055
:100b5c0001f00000c03000008031000041f10000c5
:100b6c0000330000c1f3000081f2000040320000ad
:100b7c0000360000c1f6000081f70000403700008d
:100b8c0001f50000c03500008034000041f4000085
:100b9c00003c0000c1fc000081fd0000403d000055
:100bac0001ff0000c03f0000803e000041fe00003d
:100bbc0001fa0000c03a0000803b000041fb00003d
:100bcc0000390000c1f9000081f800004038000035
:100bdc0000280000c1e8000081e900004029000065
:100bec0001eb0000c02b0000802a000041ea00004d
:100bfc0001ee0000c02e0000802f000041ef00002d
:100c0c00002d0000c1ed000081ec0000402c000024
:100c1c0001e40000c02400008025000041e5000034
:100c2c0000270000c1e7000081e60000402600001c
:100c3c0000220000c1e2000081e30000402300001c
:100c4c0001e10000c02100008020000041e0000014
:100c5c0001a00000c06000008061000041a1000004
:100c6c0000630000c1a3000081a2000040620000ec
:100c7c0000660000c1a6000081a7000040670000cc
:100c8c0001a50000c06500008064000041a40000c4
:100c9c00006c0000c1ac000081ad0000406d000094
:100cac0001af0000c06f0000806e000041ae00007c
:100cbc0001aa0000c06a0000806b000041ab00007c
:100ccc0000690000c1a9000081a800004068000074
:100cdc0000780000c1b8000081b900004079000024
:100cec0001bb0000c07b0000807a000041ba00000c
:100cfc0001be0000c07e0000807f000041bf0000ec
:100d0c00007d0000c1bd000081bc0000407c0000e3
:100d1c0001b40000c07400008075000041b50000f3
:100d2c0000770000c1b7000081b6000040760000db
:100d3c0000720000c1b2000081b3000040730000db
:100d4c0001b10000c07100008070000041b00000d3
:100d5c0000500000c1900000819100004051000043
:100d6c0001930000c053000080520000419200002b
:100d7c0001960000c056000080570000419700000b
:100d8c0000550000c1950000819400004054000003
:100d9c00019c0000c05c0000805d0000419d0000d3
:100dac00005f0000c19f0000819e0000405e0000bb
:100dbc00005a0000c19a0000819b0000405b0000bb
:100dcc0001990000c05900008058000041980000b3
:100ddc0001880000c04800008049000041890000e3
:100dec00004b0000c18b0000818a0000404a0000cb
:100dfc00004e0000c18e0000818f0000404f0000ab
:100e0c00018d0000c04d0000804c0000418c0000a2
:100e1c0000440000c18400008185000040450000b2
:100e2c0001870000c047000080460000418600009a
:100e3c0001820000c042000080430000418300009a
:100e4c0000410000c1810000818000004040000092
:020000040000fa
:100e5c000800fa0020079800614798000040eb005a
:100e6c0010479800ae0090001e4090000080fb00e0
:100e7c000080400021c0b300014878001e40900063
:100e8c000040e80010479800ae0090001e40900013
:100e9c000080fb00008040006e41900041c8b30010
:100eac0081404100014878001e4090000040e8005d
:100ebc00104798001e4090000040e8001047980032
:100ecc004093200010407800004178002e009000e4
:100edc008e00e80041060700409320001040780087
:100eec000080fb00f20f500027003200f20f500080
:100efc0003003c00f10f5000060032006b0037007d
:100f0c00f30f50003e003200f40f50005900320035
:100f1c0066003700d04980004800de00e2498000be
:100f2c00f10f200081006100c808dd000100700095
:100f3c00004178002e0090008e00e8002706070084
:100f4c00d04980004800de00e2498000f10f20000b
:100f5c0081006100c808dd00010070004800de005f
:100f6c00004178002e0090008e00e8001b06070060
:100f7c0010408000e10f50004b003a002000200090
:100f8c001040880049003700d04980004800de003e
:100f9c00e2498000f10f200081006100c808dd00eb
:100fac0001007000004178002e0090008e00e800d7
:100fbc000a060700d04980004800de00e2498000a4
:100fcc00f10f200081006100c808dd0001007000f5
:100fdc004800de00004178002e0090008e00e800f2
:100fec00fe05070080972000104078000041780033
:100ffc002e0090008e00e800f80507002b0037004b
:10100c000040eb00004f7800160037001e80fb00fc
:10101c0066004000800040004093200000804000ab
:10102c0010007800004178002e0090008e00e8003f
:10103c00ea0507001e80fb006600400080004000af
:10104c004093200000804000100078004800de0033
:10105c00004178002e0090008e00e800df050700ac
:10106c001e4fe8001e407800fb4f5000e7ff360093
:10107c000e0037002e0090008e00e80022c0b30056
:10108c00d60507002e0090008e00e80072c0b30059
:10109c00d20507002e0090008e00e80012c0b300ad
:1010ac00ce05070001003700000000001e40900034
:1010bc0052c2b300824040002e00900021409800a4
:1010cc001e409000e54040002e0090002140990009
:1010dc001e4090008080fb002e0090000001eb0071
:1010ec009706070010079800ae0090001e40900075
:1010fc000080fb0000804000be4090008180fb001f
:10110c00c408de00814078000142b000014878003c
:10111c001e4090000040e80010479800ae00900080
:10112c001e4090000080fb0000804000be409000fc
:10113c00efc060000142b000014878001e409000f2
:10114c000040e80010479800ae0090001e40900050
:10115c000080fb0000804000ae4090008180fb00ce
:10116c00c408de00814078000142b00001487800dc
:10117c001e4090000040e80010479800ae00900020
:10118c001e4090000080fb0000804000ae409000ac
:10119c00efc060000142b000014878001e40900092
:1011ac000040e80010479800ae0090001e409000f0
:1011bc000080fb000080400031c0b3000148780083
:1011cc001e4090000040e800104798000080fa0094
:1011dc00000006000800fa002007980061479800fc
:1011ec0030c0b300004f78001e80fb00ae009000b2
:1011fc00e140780040932000014878001e4fe80041
:10120c0040932000104078000080fb00ed0f500050
:10121c00fb003200ed0f500003003c00ea0f5000c1
:10122c009a0032001b013700ef0f5000080032000b
:10123c00ef0f500014013500f00f50003b0032004e
:10124c00f50f500012013a000000fe0011013700aa
:10125c001e80fb00ae009000614078002047980093
:10126c001e4fe8001e80fb00ae009000614078002d
:10127c00304798001e4fe8001e009000f10f200030
:10128c0081006000c808dd00a3498000f20f200037
:10129c000281610082807000a1498800c800de00d4
:1012ac00f00f200000806000b249800001f02f0098
:1012bc008100610001007000b04988001e80fb00b5
:1012cc00ae00900061407800204798001e4fe80067
:1012dc001e80fb00ae009000614078003047980003
:1012ec001e4fe8001e009000f10f200081006000ee
:1012fc00c808dd00c3498000f20f200002816100a4
:10130c0082807000c1498800c800de00f00f200008
:10131c0000806000d249800001f02f008100610044
:10132c0001007000d0498800da0037001e80fb00f5
:10133c00ae00900061407800204798001e4fe800f6
:10134c001e80fb00ae009000614078003047980092
:10135c001e4fe8001e009000f10f2000810060007d
:10136c00c808dd00d3498000f20f20000281610023
:10137c0082807000d1498800c800de00f00f200088
:10138c0000806000e249800001f02f0081006100c4
:10139c0001007000e04988001e80fb00ae00900048
:1013ac0061407800204798001e4fe8001e80fb002b
:1013bc00ae00900061407800304798001e4fe80066
:1013cc001e009000f10f200081006000c808dd00b5
:1013dc00b3498000f20f200002816100828070000e
:1013ec00b1498800c800de00f00f200000806000ca
:1013fc00c249800001f02f008100610001007000e3
:10140c00c04988001e80fb00ae009000e1407800cf
:10141c00f0932000014878001e4fe8000040eb00dc
:10142c0010479800150037001e80fb00ae0090009e
:10143c0061407800204798001e4fe8001e80fb009a
:10144c00ae00900061407800304798001e4fe800d5
:10145c001e4090000080fb009e0090006600400043
:10146c00000140004093200000004100010878007a
:10147c001e4090000040e800104798001e4090006d
:10148c00fb4f5000e8ff3600820037001e80fb0047
:10149c00ae00900061407800204798001e4fe80095
:1014ac001e80fb00ae009000614078003047980031
:1014bc001e4fe8001e009000f10f2000810060001c
:1014cc00c808dd00d3498000f20f200002816100c2
:1014dc0082807000d1498800c800de00f00f200027
:1014ec0000806000e249800001f02f008100610063
:1014fc0001007000e04988001e80fb00ae009000e7
:10150c0061407800204798001e4fe8001e80fb00c9
:10151c00ae00900061407800304798001e4fe80004
:10152c001e009000f10f200081006000c808dd0053
:10153c00b3498000f20f20000281610082807000ac
:10154c00b1498800c800de00f00f20000080600068
:10155c00c249800001f02f00810061000100700081
:10156c00c04988001e80fb00ae009000e14078006e
:10157c00f0932000014878001e4fe8000040eb007b
:10158c0010479800150037001e80fb00ae0090003d
:10159c0061407800204798001e4fe8001e80fb0039
:1015ac00ae00900061407800304798001e4fe80074
:1015bc001e4090000080fb009e00900066004000e2
:1015cc000001400040932000000041000108780019
:1015dc001e4090000040e80010479800f093200057
:1015ec00104078000080fb000000d10080407800a3
:1015fc001e40900080cf5000e3ff3e0025003700d6
:10160c001e80fb00ae009000e1407800f0932000bb
:10161c00014878001e4fe8001e80fb00ae009000d1
:10162c0061407800204798001e4fe8001e80fb00a8
:10163c00ae00900061407800304798001e4fe800e3
:10164c001e009000f10f200081006000c808dd0032
:10165c00b3498000f20f200002816100828070008b
:10166c00b1498800c800de00f00f20000080600047
:10167c00c249800001f02f00810061000100700060
:10168c00c04988000300370000000000010037004b
:10169c00000000003093200011c0b3000148780016
:1016ac000080fa00000006000200fa00e09820001a
:1016bc00104078000080fb00e30f50000501320061
:1016cc00e30f500007003c00e10f500045003200d2
:1016dc00e10f5000d1003c000000e0000800320097
:1016ec008a013700e50f500066013200e50f50000b
:1016fc0026013500e60f50006a01320083013700e5
:10170c0000902000d1032000130807000000000007
:10171c0000000000000000000000000000000000bd
:10172c000000000080c0b300004f780003003700b9
:10173c001e407800560707001e4fe80090c2b30009
:10174c009e40780080cf5000f9ff3600e0982000d2
:10175c0011c0b3000148780010c1b3006d0107003f
:10176c00a04980004800de00b2498000f10f200043
:10177c0081006100c808dd0001007000f10f20003d
:10178c0081006000c808dd00b3498000f20f200022
:10179c000281610082807000b1498800c800de00bf
:1017ac00f00f200000806000c249800001f02f0083
:1017bc008100610001007000c0498800e14980008f
:1017cc00f00f2000008060000080a000e04988003d
:1017dc00f149800000f02f0000806000f049880083
:1017ec004a0137004093200010407800f04f500021
:1017fc0025003a0030932000104078000004e000ef
:10180c0021003200d04980004800de00e24980000f
:10181c00f10f200081006100c808dd00010070009c
:10182c0080007800e04980004800de00f349800029
:10183c00f20f2000028161004811dd0002007000ef
:10184c00808f500004003a00e098200021c0b300c3
:10185c0001487800080037008097200021c0b300b1
:10186c000148780020c1b3002a010700c09820006d
:10187c0041c0b30001487800309320008040eb0059
:10188c000148780064003700409320001040780035
:10189c00ea4f500025003a003093200010407800a9
:1018ac000004e00021003200d04980004800de0036
:1018bc00e2498000f10f200081006100c808dd00c2
:1018cc000100700080007800e04980004800de00d4
:1018dc00f3498000f20f2000028161004811dd0005
:1018ec0002007000808f500004003a00e098200045
:1018fc0031c0b30001487800080037008097200001
:10190c0021c0b3000148780020c1b30001010700d9
:10191c00c098200041c0b3000148780030932000eb
:10192c008040eb00014878003b00370040932000da
:10193c0010407800ed4f50000b003a00309320001f
:10194c00104078000004e00007003200e09820000e
:10195c0041c0b30001487800309320008040eb0078
:10196c00014878002c00370040932000104078008c
:10197c00ee4f50000b003a003093200010407800de
:10198c000004e00007003200e098200051c0b300d2
:10199c0001487800309320008040eb00014878002b
:1019ac001d0037004093200010407800ef4f50008e
:1019bc000b003a0030932000104078000004e00047
:1019cc0007003200e09820008040eb0001487800ce
:1019dc00309320008040eb00014878000e00370067
:1019ec004093200010407800e94f5000c2003a00ac
:1019fc0030932000104078000004e000c00032005a
:101a0c00309320008040eb000148780040c1b300c7
:101a1c00c0000700bd003700bc003700f093200069
:101a2c00104078000080fb000000d10000407800de
:101a3c000081fb00b04980004800de00c3498000f3
:101a4c00f10f200081806100c808dd0001007000ea
:101a5c008000eb00039420003406070010c1b30093
:101a6c00ac000700e04980004800de00f24980002d
:101a7c00f10f200081006100c808dd00010070003a
:101a8c000000e800f10f200081006000c808dd00b4
:101a9c00e3498000f20f2000028161008280700017
:101aac00e1498800c800de00f00f200000806000d3
:101abc00f249800001f02f008100610001007000ec
:101acc00f0498800e098200011c0b300014878006c
:101adc008e003700f0932000104078000080fb004f
:101aec000000d100004078000081fb00b04980006c
:101afc004800de00c3498000f10f200081806100a6
:101b0c00c808dd00010070008000eb000394200089
:101b1c000606070010c1b3007e000700e0498000f4
:101b2c004800de00f2498000f10f200081006100c6
:101b3c00c808dd00010070000000e800f10f200073
:101b4c0081006000c808dd00e3498000f20f20002e
:101b5c000281610082807000e1498800c800de00cb
:101b6c00f00f200000806000f249800001f02f008f
:101b7c008100610001007000f0498800e0982000ad
:101b8c0011c0b30001487800600037000040eb0042
:101b9c00004f78002e003700b04980004800de006e
:101bac00c2498000f10f200081006100c808dd00ef
:101bbc0001007000800078001e80fb000080400057
:101bcc008000eb00c1050700704088008140880050
:101bdc001e80fb00fc004000f093200010407800b9
:101bec000080fb000000d100004078000080fb006a
:101bfc0000805000714080006600400000014000f1
:101c0c004093200000004100010878001168ef00ab
:101c1c001e80fb00fd004000f09320001040780077
:101c2c000080fb000000d100004078000080fb0029
:101c3c0000805000814080006600400000014000a0
:101c4c004093200000004100010878001ecfe800fe
:101c5c00f0932000104078000080fb000000d100c1
:101c6c00004078009e4f5000cbff3e0030c1b300c7
:101c7c0028000700e098200011c0b300014878004c
:101c8c002200370010c1b300220007001000200012
:101c9c0010408800e098200061c0b3000148780033
:101cac001a00370010408000e20f500016003a0076
:101cbc006011b80040002200010020001a05070046
:101ccc000000fe0040002200010020005404070028
:101cdc001ce8b7001cc8bf00e14f500004003a00dc
:101cec000000000000000000d804070007003700c7
:101cfc000228ef0005003700000000000300370049
:101d0c000000000001003700000000000080fa0015
:101d1c00000006000200fa00004f780040932000fb
:101d2c001e487800c0922000904078000104a0006a
:101d3c00014878000080fa00000006000000fa005c
:101d4c00c0982000104078000080fb00e30f50008a
:101d5c0049003200e40f500056003200e10f5000f1
:101d6c0059003a004093200010407800ef4f50008b
:101d7c000e003a0030932000104078000004e00080
:101d8c000a003200c098200031c0b300014878002e
:101d9c00e09820008040eb00014878003093200050
:101dac008040eb000148780032003700409320005f
:101dbc0010407800ed4f50000e003a003093200098
:101dcc00104078000004e0000a003200c0982000a7
:101ddc0031c0b30001487800e098200041c0b30046
:101dec0001487800309320008040eb0001487800d7
:101dfc00200037004093200010407800ee4f500038
:101e0c000e003a0030932000104078000004e000ef
:101e1c000a003200c098200031c0b300014878009d
:101e2c00e098200051c0b3000148780030932000a6
:101e3c008040eb00014878000e00370040932000f2
:101e4c0010407800e94f50001c003a0030932000fd
:101e5c00104078000004e0001a003200309320009b
:101e6c008040eb000148780040c1b300a9ff070097
:101e7c001500370014003700409320001040780004
:101e8c00ec4f500009003a003093200010407800cd
:101e9c000004e00005003200c098200011c0b3001f
:101eac00014878000000000007003700fefd070025
:101ebc00050037000040fe00feff37000000000068
:101ecc0001003700000000000080fa00000006004e
:101edc000600fa0010822000100798000040eb006a
:101eec00104798009e409000014f78002b0037005f
:101efc001e80fb009e009000008040009040780007
:101f0c00414798001e4fe8004e409000fb4f500098
:101f1c0019003a001e80fb009e00900000804000db
:101f2c009040780000cdb30000c0400040479800be
:101f3c001e4fe8004e4090000004e00007003a00fd
:101f4c001e4090000080fb009e009000008040002e
:101f5c00b1c1b300014878000d0037001e4090005d
:101f6c000080fb009e00900000804000ce4090005e
:101f7c0001487800060037001e4090000080fb00ee
:101f8c009e00900000804000ce40900001487800f8
:101f9c001e4090000040e80010479800008a200086
:101fac00104078009e4f5000d1ff3e00008a200068
:101fbc00904078001e4090001e40500080c04000b1
:101fcc00008a2000014878000080fa00000006001a
:101fdc000200fa00881f7800004f7800408a200029
:101fec0010407800704060000004e0004c013a00a2
:101ffc00208a2000104078000080fb00e20f500087
:10200c0057003200e20f500005003c000000e000d9
:10201c000a003200e10f5000200032003501370079
:10202c00e40f5000b0003200e40f50007600350091
:10203c00e50f5000ca0032002e0137001e40780018
:10204c00e24f50002f013a00108a20001040780017
:10205c000081fb00e1812000810041009e48780056
:10206c008040e800108a200001487800108a200087
:10207c009040780010c8b30080cf500003003600a9
:10208c00204580000040a00020458800208a2000c8
:10209c0011c0b3000148780021013700108a2000dc
:1020ac00104078000081fb00e1812000810041009c
:1020bc009e4878008040e800108a20000148780093
:1020cc00108a20009040780010c8b30080cf5000d8
:1020dc0003003600204580000040a0002045880009
:1020ec0000ceb3001e4040001ae8b7001ac8bf006b
:1020fc000004e00005003200a1812000914078002e
:10210c00f0c3b30080cf500011003600a181200035
:10211c009140780040c6b30080cf500005003600d7
:10212c00a18120009140780030cab30080cf5000cc
:10213c00070036001ac8bf000004e000040032009b
:10214c00204580000040a00020458800f4003700a6
:10215c00208a200021c0b30001487800f00037002d
:10216c00108a2000104078000081fb00e1812000e3
:10217c00810041009e4878008040e800108a2000d1
:10218c0001487800108a20009040780010c8b300f5
:10219c0080cf500003003600204580000040a00096
:1021ac002045880080c2b3009e40780080cf50004c
:1021bc000400360020cab3009e40780080cf500047
:1021cc0004003600204580000040a0002045880017
:1021dc00d300370000ceb3009e404000008a2000a0
:1021ec0001487800008a200010407800e54050003b
:1021fc00008a200001487800208a200031c0b300fa
:10220c0001487800c6003700308a20001040780062
:10221c000004e0001300320000c3b3009e407800bd
:10222c0080cf50000b00320020c3b3009e407800da
:10223c0080cf50000700320030c3b3009e407800be
:10224c0080cf500003003200204580000040a000e9
:10225c0020458800308a20008040eb00014878003f
:10226c00060037001e407800fb4f500003003a0078
:10227c00308a200011c0b30001487800108a200079
:10228c00104078000081fb00e181200081004100ba
:10229c009e4878008040e800108a200001487800b1
:1022ac00108a20009040780010c8b30080cf5000f6
:1022bc0003003600204580000040a0002045880027
:1022cc00108a200090407800008a2000104078008e
:1022dc0080cf50008d003a00208a200041c0b3000e
:1022ec00014878008e003700108a200010407800da
:1022fc000081fb00e1812000810041009e487800b4
:10230c008040e800108a200001487800108a2000e4
:10231c009040780010c8b30080cf50000300360006
:10232c00204580000040a00020458800108a200035
:10233c00104078008080fb00008a2000104078005c
:10234c000080fb0064004000808f500071003a0058
:10235c00208a200051c0b30001487800700037007b
:10236c001e407800e34f500033003a00108a2000e2
:10237c00104078000080fb00e4005000e081200059
:10238c0000804000104078000080fb000002b1008b
:10239c00cc00dd00108a2000104078000080fb008b
:1023ac0063015000e08120000000410010407800e3
:1023bc000080fb000002b1004800dd0081007000cd
:1023cc00108a2000104078000080fb000081e9009a
:1023dc00e081200000004100104078000080fb00ec
:1023ec000002b1004400dd0081007000108a200062
:1023fc00104078000080fb000001e900e081200023
:10240c0000004100104078000080fb000002b10089
:10241c0001047000008a2000104078000080fb004e
:10242c000001eb0080007800e0812000c40107006f
:10243c00800f540004003200204580000040a000b2
:10244c002045880036003700108a200010407800a4
:10245c000081fb00e1812000810041009e48780052
:10246c008040e800108a200001487800108a200083
:10247c009040780010c8b30080cf500003003600a5
:10248c00204580000040a00020458800008a2000e4
:10249c0010407800e3405000008a2000014878008a
:1024ac008bfe0700a18120009140780000c8bf007e
:1024bc0080cf5000030032001ac8bf000004e000b7
:1024cc0003003a00204580000030a0002045880021
:1024dc00408a200010407800684060000004e00052
:1024ec000e003a00204580000040a00020458800e6
:1024fc000b003700204580000040a00020458800dc
:10250c000700370000000000050037000000000045
:10251c00030037000000000001003700000000003d
:10252c00408a200010407800704060000004e000f9
:10253c0002003200e0812000690007004f0478009f
:10254c000080fa00000006000000fa00c092200093
:10255c0010407800614060000004e000130032007d
:10256c00c0922000104078000042b2000004e0004d
:10257c000e003a0061498000e0ff2f0000806000ef
:10258c0060498800608a200055000700724980006d
:10259c0000c8bf0080407800608a20000200010063
:1025ac00604980000010a000604988000080fa009b
:1025bc00000006000000fa00408a2000104078005d
:1025cc00684060000004e00016003200e097200034
:1025dc00104078000004e00004003a00e09720006e
:1025ec0011c0b300014878000e003700e0972000be
:1025fc0010407800e14f40000a003a008249800008
:10260c0000c8bf0080407800e0812000020001007b
:10261c00e081200032000700e09720008040eb00b2
:10262c00014878000080fa00000006000000fa0063
:10263c00c092200010407800624060000004e0006e
:10264c0025003200c0922000104078000042b200f9
:10265c000004e0001d003a008092200090407800b9
:10266c0020c8b30080cf50001a003e007a06a800a4
:10267c008980a9009980a800604980000050a000c2
:10268c006049880000000000d11c80000010200070
:10269c00008060000000e000fbff32009092200000
:1026ac00104078000081fb00618a2000810041000d
:1026bc00914078008180fb00e11c88008040e8009c
:1026cc0090922000014878000300370000000000c1
:1026dc0001003700000000000080fa000000060036
:1026ec000200fa00000f78001e007800220820007b
:1026fc008000eb00cff807001e0078008040eb0054
:10270c00614099001e0078008040eb004140990028
:10271c001e0078008040eb00314099001e007800cc
:10272c008040eb00214099001e0078008040eb00b7
:10273c00514099000080fa00000006000000fa00e9
:10274c00a13d800000fc2f0000806000f000b30071
:10275c00a03d8800113f800000f82f000080600031
:10276c003000b300103f880020022000001d8800bc
:10277c0080002000c01c88009a23ef0099e3a80079
:10278c009be3a9009ba3a8009b43a8008960a90018
:10279c008980a9009960a8007a06a900e081200030
:1027ac00cfff0700608a2000cdff0700e0722000f9
:1027bc0070498800008f2000804988000080fa0052
:1027cc00000006000000fa007aff07005eff070019
:1027dc0096ff07000080fa00000006000600fa00d1
:1027ec00000f780011079800424798004e40900067
:1027fc00e24f5000030032004e409000e34f500077
:10280c0018003a001e009000104078000080fb0079
:10281c001e004000b1c1b300014878001e009000ba
:10282c00104078008040e8001e00900001487800bd
:10283c001e009000104078000080fb001e0040003d
:10284c00ce4090000143b000014878001e0090007b
:10285c00104078008040e8001e009000014878008d
:10286c00250037004e409000fb4f500017003a00f7
:10287c001e009000104078000080fb001e004000fd
:10288c00b1c1b300014878001e00900010407800e0
:10289c008040e8001e009000014878001e00900067
:1028ac00104078000080fb001e00400001c3b30004
:1028bc00014878001e009000104078008040e8002d
:1028cc001e009000014878000b0037001e0090009d
:1028dc00104078000080fb001e004000ce409000ad
:1028ec00014878001e009000104078008040e800fd
:1028fc001e009000014878000080fa0000000600dd
:10290c000000fa00c104800000002100008060007b
:10291c000000e00022003200410480000000210091
:10292c00008060000000e0001d0032008980a900da
:10293c009092200090407800809220001040780007
:10294c0080cf50000b003a007a06a9009980a900ac
:10295c0061498000f0fd2f00008060006049880014
:10296c0061498000d0ff2f00008060006049880022
:10297c000b00370090922000104078000081fb0083
:10298c00618a200081004100914078008180fb0029
:10299c00e11c88008040e8009092200001487800fb
:1029ac000080fa00000006000000fa00c10480005c
:1029bc0000802000008060000000e0001900320060
:1029cc004104800000802000008060000000e000d6
:1029dc00140032008960a900d01c800062006000e5
:1029ec000000e000040032009a23a900204580007a
:1029fc000040a00020458800d01c800064006000ce
:102a0c000000e00004003200f01c80002045800033
:102a1c000040a00020458800f01c80000040780099
:102a2c006bfd07000080fa00000006000000fa00b1
:102a3c00c098200010407800e14f500034003a005c
:102a4c004093200010407800ec4f50000c003a00ee
:102a5c0030932000104078000004e00008003200a1
:102a6c004000220001002000ed0007001ce8b70028
:102a7c00a09720008040eb00014878001d00370033
:102a8c00a097200010407800e24f50000e003a0052
:102a9c004093200010407800eb4f50000a003a00a1
:102aac0030932000104078000004e0000600320053
:102abc0030c0b3001ce8b700309320008040eb001e
:102acc00014878000b003700a097200010407800d8
:102adc00e14f400007003a001cc8bf000004e000b2
:102aec0004003a004000220001002000cc00070046
:102afc001ce8b700a097200010407800e14f400080
:102b0c0003003a00a09720008040eb0001487800b9
:102b1c000080fa00000006000200fa000000eb0042
:102b2c00000f7800010037001e0fe8001e0078002f
:102b3c00e90f5000fcff36000080fa000000060090
:102b4c000c00fa00300798004107980052079800d3
:102b5c006000b800008fbe00180037003e009000e7
:102b6c00104078008080fb005e0090008080680040
:102b7c00f00f200000806000200798005e0090009d
:102b8c00c800de002e00900000014000e05228003a
:102b9c000000410010007800008068005007980089
:102bac003e0090000000e800300798001200200062
:102bbc00030020001e0f41005e9749004e0090005c
:102bcc008000eb00be0f5000ae8f5800e3ff3e00bc
:102bdc005e0090000080fa00000006001800fa0069
:102bec0070079800010f9800120f9800230f98009f
:102bfc00340f98006000b800008fbe00380037001a
:102c0c00a1028000310798006e0047001000900070
:102c1c00a00288007e0090008e08900000007800d2
:102c2c001080ba00600798007e0090008e0890001b
:102c3c00000078001000ba00500798003e01900088
:102c4c00a20288000040eb004047980017003700b4
:102c5c004e4090000080fb00ea00470000804000de
:102c6c00104078008080fb003e0890008080680057
:102c7c00f00f200000806000400798003e08900094
:102c8c00c800de004e00900000014000e052280019
:102c9c00000041001000780000806800300f9800a0
:102cac004e4090000040e800404798004e40900095
:102cbc00e34f5000e6ff36007e0090008e08900037
:102ccc0062004000e080480070079800010f9800f7
:102cdc0012002000030020001e0f41005e974900e7
:102cec001e089000ae0890001e01be00800f51001f
:102cfc00818f5900c2ff39003e0890000080fa0015
:102d0c00000006000000fa008300a90081e0a90081
:102d1c00120007003e02070088fe070002000700b1
:102d2c000080fa00000006000000fa00c0982000a5
:102d3c0011c0b300014878001c68ef0020982000f7
:102d4c0011c0b30001487800a097200011c0b30057
:102d5c00014878000080fa00000006000000fa002c
:102d6c006626ef007a26ef008e26ef007426ef0021
:102d7c008826ef009c26ef007226ef008626ef00d7
:102d8c009a26ef006826ef007c26ef009026ef00d5
:102d9c0030002000503388007e26ef009226ef0092
:102dac007e46a9007e66a9009206a9009226a9007b
:102dbc009246a9007606a9007626a9007646a800b8
:102dcc007666a9007686a90076e6a8007706a900a3
:102ddc007726a8007746a9007766a9007786a90010
:102dec0077a6a80077c6a90077e6a8008a06a800ef
:102dfc008a26a8008a46a8008a66a8008a86a800a7
:102e0c008aa6a8006206a8006226a8006246a8004e
:102e1c006266a8006306a9000080fa0000000600a4
:102e2c000400fa00008fbe001e00be002701070040
:102e3c000001be00f0ff2f00f10f2000800f5100a9
:102e4c00818f590002003a0020c0b3000100370006
:102e5c0010c0b3000080fa00000006000000fa0069
:102e6c00603480004200de006140600000c0ea0077
:102e7c006140600061406000d28020001241780007
:102e8c00e1cfb3008140610000c070000de8b700d5
:102e9c00603480000000d1006140600000c0ea0096
:102eac00614060006140600000404000d280200022
:102ebc0012417800d1cfb3008140610000c0700096
:102ecc000de8b7006034800000407800614060007d
:102edc0000c0ea0061406000e1406000200020007a
:102eec000008dd00d280200012417800b1cfb30081
:102efc008140610000c070000de8b70060348000b4
:102f0c004300de006140600000c0ea0061406000e8
:102f1c00e1406000300020000008dd00d28020007d
:102f2c001241780071cfb3008140610000c0700085
:102f3c000de8b700603480004400de0061406000a2
:102f4c0000c0ea0061406000e140600040002000e9
:102f5c000008dd00d280200012417800f1ceb300d1
:102f6c008140610000c070000de8b7006034800043
:102f7c004500de006140600000c0ea006140600076
:102f8c00e1406000500020000008dd00d2802000ed
:102f9c0012417800f1cdb3008140610000c0700097
:102fac000de8b7000dc8a9000de8a9000080fa00d3
:102fbc00000006000000fa00a8ff07000dc8bf00c3
:102fcc000ce8b7000080fa00000006000000fa00d0
:102fdc0002c1a90002e1a9003200200080072000f4
:102fec00a109200013102000804978008149780045
:102ffc008249780012002000600420007105200036
:10300c0003102000804978008149780082497800bb
:10301c000000000001088000000027008080600094
:10302c0000002300808f5000faff3a0000000000df
:10303c000108800000022000008060000000e00019
:10304c00fbff32000080fa00000006000000fa00ce
:10305c0000c8bf000080fb00f07f880020702000bb
:10306c0011002000c07f8800d17f88001000200054
:10307c00e07f880004200400000000000080fa00bb
:10308c00000006000000fa00d0ff07001dff07003b
:10309c00c8ff07000cc8bf0000e8b700fc2fef000a
:1030ac007866a8002098200010407800e14f40007e
:1030bc0003003a005dfe0700c2fd07001ffb07007e
:1030cc00180107001cc8bf00e14f5000f5ff3a0083
:1030dc000000000000000000dcff07000000eb0017
:1030ec000080fa00000006000000fa008afe0700cb
:1030fc000080fa00000006000000fa0086fe0700bf
:10310c000080fa00000006000000fa0082fe0700b2
:10311c000080fa00000006000000fa007efe0700a6
:10312c000080fa00000006001400fa00881f7800e6
:10313c006007980071079800020f9800130f980011
:10314c006e009000fe0090006011b80042079800dd
:10315c005307980040079800510798000e099000fb
:10316c009e09900000002000f10f2000020478005e
:10317c0003017800800178000100780003046400ea
:10318c00000061008000eb00c000dd0000002000aa
:10319c000001be006140b800000171008181710026
:1031ac00409bde00cf9bde00060f78008e0890005f
:1031bc0000f02f00008060001e0f40000e089000f1
:1031cc00204798000e0990009e09900000002000f6
:1031dc00f10f2000020378000301780080017800d1
:1031ec000100780003036300000061008000eb0025
:1031fc00c000dd00000020000001be006130b800fe
:10320c000001710081817100409ade00cf9ade00ce
:10321c00240798008e08900000f02f0000806000ba
:10322c00ae00900000804000200798000e0890002f
:10323c0060479800a00f2000a00288001000240016
:10324c00003b88005e009000203b88004e00900000
:10325c00103b88000000eb001e08bb002e409000c5
:10326c008080fb000000eb000188bb0020002000e8
:10327c00ae0090000108bb006e4090008080fb0007
:10328c00200020000188bb000500fc005005200038
:10329c00303b8800a00a2000303b880061e7a80082
:1032ac00000000000000000000000000013b800056
:1032bc0000002800008060000000e000fbff3a00e6
:1032cc004f0478000080fa00000006000a00fa00a3
:1032dc003007980041079800a1028000010f780088
:1032ec006600470010009000a00288003e0090008d
:1032fc00ce009000000078001080ba0020079800e3
:10330c003e009000ce009000000078001000ba0043
:10331c00100798009e007800a10288001e00900003
:10332c00ae0090000080fa00000006001600fa00c3
:10333c0070079800010f9800120f9800230f980047
:10334c000000eb00000f7800a00f2000a002880006
:10335c0010002400003b8800460037001e00780057
:10336c006101b8007e0090008e08900002004000c1
:10337c00838048006011b8005207980063079800da
:10338c0050079800610798001e007800000040006c
:10339c00ae08900000804000900078001107980063
:1033ac001e00e80000004000ae08900000804000c5
:1033bc0010007800404798001e80e8000000400094
:1033cc00ae08900000804000900078003107980013
:1033dc009e0078006380400000004000ae08900022
:1033ec000080400010007800004f98006e009000a4
:1033fc00203b88005e009000103b88000000eb0032
:10340c009e0090000108bb004e4090008080fb00a5
:10341c000000eb000188bb0020002000be009000e3
:10342c000108bb000e4890008080fb0020002000ab
:10343c000188bb009e007800648f40000500fc00f2
:10344c0050052000303b8800a00a2000303b88004b
:10345c0061e7a80000000000000000000000000070
:10346c00013b800000002800008060000000e000ac
:10347c00fbff3a001e0890009e007800808f5000e1
:10348c00b6ff390061c7a9000080fa0000000600f1
:10349c000600fa00404798006000b800008fbe009c
:1034ac004e4090000081fb008001eb004a18dd00cb
:1034bc00c610de00810070004a10dd006011b800fb
:1034cc00028fbe00008fbe0030002400003b88003d
:1034dc001e009000203b88001e007800103b8800e6
:1034ec000500fc0050052000303b8800a00a20009d
:1034fc00303b880061e7a8000000000000000000dd
:10350c0000000000013b80000000280000806000eb
:10351c000000e000fbff3a0061c7a9000080fa0040
:10352c00000006000200fa00b0408000c040880095
:10353c000040eb00004f7800300037001e80fb008d
:10354c00c200dd00a09720000080400010407800f1
:10355c00e24f500015003a00c14080001e80fb0075
:10356c004200dd000081e800a0972000000041002f
:10357c0010007800808050001e80fb00000140008d
:10358c00609820000000410010007800808f5000ef
:10359c00060039001e80fb00c200dd00a097200051
:1035ac000080400080c0eb00014878001e80fb00ca
:1035bc00c200dd00a0972000008040001040780081
:1035cc00e14f50000c003a001e80fb00c14080000f
:1035dc004201dd00c0972000000041000108780086
:1035ec001e80fb00c200dd00a09720000080400080
:1035fc0021c0b300014878001e4fe8001e4078003f
:10360c00e24f5000cdff36000080fa0000000600ab
:10361c000000fa009021ef0000fa2000900c8800c6
:10362c009421ef00a10c8000f0fc2f0000806000c2
:10363c000040a000a00c880041058000f0ff28008d
:10364c0080806000000023000100700040058800ad
:10365c008860a9009860a80095e1a8000080fa0095
:10366c00000006000000fa00b04080000000e800f6
:0c367c00b04088000080fa00000006004a
:020000040000fa
:103688003409000046000000800000000e08000019
:103698000400000080000000120800000400000080
:1036a80082000000fe1f0000000000000808000063
:1036b80006000000800000008609000006000000e7
:1036c8008200000094110200003200007a09000014
:1036d8000c00000080000000160800000400000034
:1036e800800000001e080000160100008000000095
:1036f8001a08000002000000800000008c09000089
:1037080006000000800000001c0800000200000005
:103718008200000001000000fe0f0000020000000f
:103728008200000000000000fc0f00000200000002
:103738008200000000000000f80f000004000000f4
:1037480082000000000000000000000000080000e7
:0c375800080000008000000000000000dd
:020000040000fa
:10376400f03fb1000180b10006003500ee0309000e
:1037740000000000403fb1000180b100fbff3d00ac
:103784001000b000203fb0000200350000800900a6
:08379400000000000000060027
:020000040000fa
:043ffc0000000000c1
:020000040000fa
:104034000000fa00bafa07000080fa000000060047
:020000040000fa
:104048000000fa00b5fa07000080fa000000060038
:020000040000fa
:10405c000000fa00b0fa07000080fa000000060029
:020000040000fa
:104070000000fa00abfa07000080fa00000006001a
:020000040000fa
:104084000000fa00a6fa07000080fa00000006000b
:020000040000fa
:104098000000fa00a1fa07000080fa0000000600fc
:020000040000fa
:1040ac000000fa009cfa07000080fa0000000600ed
:020000040000fa
:020000040001f9
:045e0000f7ff0000a8
:020000040000fa
:020000040001f9
:045e2000ffffff0081
:020000040000fa
:020000040001f9
:045e30008bffff00e5
:020000040000fa
:020000040001f9
:045e380071ffff00f7
:020000040000fa
:020000040001f9
:045e4000d79fff00e9
:020000040000fa
:020000040001f9
:045e4800fcffff005c
:020000040000fa
:020000040001f9
:045e5000ddffff0073
:020000040000fa
:020000040001f9
:045e5800ffffff0049
:020000040000fa
:04f008007f454c46ae
:020000040000fa
:04f00c007f454c46aa
:020000040000fa
:04f014007f454c46a2
:020000040000fa
:04f018007f454c469e
:00000001FF
