:020000040000fa
:040008006a21000069
:020000040000fa
:04000c006a21000065
:020000040000fa
:040010006a21000061
:020000040000fa
:040014006a2100005d
:020000040000fa
:040018006a21000059
:020000040000fa
:04001c006a21000055
:020000040000fa
:040020006a21000051
:020000040000fa
:040024006a2100004d
:020000040000fa
:040028006a21000049
:020000040000fa
:04002c006a21000045
:020000040000fa
:040030006a21000041
:020000040000fa
:040034006a2100003d
:020000040000fa
:040038006a21000039
:020000040000fa
:04003c006a21000035
:020000040000fa
:040040006a21000031
:020000040000fa
:040044006a2100002d
:020000040000fa
:040048006a21000029
:020000040000fa
:04004c006a21000025
:020000040000fa
:040050006a21000021
:020000040000fa
:040054006a2100001d
:020000040000fa
:040058006a21000019
:020000040000fa
:04005c006a21000015
:020000040000fa
:040060006a21000011
:020000040000fa
:040064006a2100000d
:020000040000fa
:040068006a21000009
:020000040000fa
:04006c006a21000005
:020000040000fa
:040070006a21000001
:020000040000fa
:040074006a210000fd
:020000040000fa
:040078006a210000f9
:020000040000fa
:04007c006a210000f5
:020000040000fa
:040080006a210000f1
:020000040000fa
:040084006a210000ed
:020000040000fa
:040088006a210000e9
:020000040000fa
:04008c006a210000e5
:020000040000fa
:040090006a210000e1
:020000040000fa
:040094006a210000dd
:020000040000fa
:040098006a210000d9
:020000040000fa
:04009c006a210000d5
:020000040000fa
:0400a0006a210000d1
:020000040000fa
:0400a4006a210000cd
:020000040000fa
:0400a8006a210000c9
:020000040000fa
:0400ac006a210000c5
:020000040000fa
:0400b0006a210000c1
:020000040000fa
:0400b4006a210000bd
:020000040000fa
:0400b8006a210000b9
:020000040000fa
:0400bc006a210000b5
:020000040000fa
:0400c0006a210000b1
:020000040000fa
:0400c4006a210000ad
:020000040000fa
:0400c8006a210000a9
:020000040000fa
:0400cc006a210000a5
:020000040000fa
:0400d0006a210000a1
:020000040000fa
:0400d4006a2100009d
:020000040000fa
:0400d8006a21000099
:020000040000fa
:0400dc006a21000095
:020000040000fa
:0400e0006a21000091
:020000040000fa
:0400e4006a2100008d
:020000040000fa
:0400e8006a21000089
:020000040000fa
:0400ec006a21000085
:020000040000fa
:0400f0006a21000081
:020000040000fa
:0400f4006a2100007d
:020000040000fa
:0400f8006a21000079
:020000040000fa
:0400fc006a21000075
:020000040000fa
:040100006a21000070
:020000040000fa
:040104006a2100006c
:020000040000fa
:040108006a21000068
:020000040000fa
:04010c006a21000064
:020000040000fa
:040110006a21000060
:020000040000fa
:040114006a2100005c
:020000040000fa
:040118006a21000058
:020000040000fa
:04011c006a21000054
:020000040000fa
:040120006a21000050
:020000040000fa
:040124006a2100004c
:020000040000fa
:040128006a21000048
:020000040000fa
:04012c006a21000044
:020000040000fa
:040130006a21000040
:020000040000fa
:040134006a2100003c
:020000040000fa
:040138006a21000038
:020000040000fa
:04013c006a21000034
:020000040000fa
:040140006a21000030
:020000040000fa
:040144006a2100002c
:020000040000fa
:040148006a21000028
:020000040000fa
:04014c006a21000024
:020000040000fa
:040150006a21000020
:020000040000fa
:040154006a2100001c
:020000040000fa
:040158006a21000018
:020000040000fa
:04015c006a21000014
:020000040000fa
:040160006a21000010
:020000040000fa
:040164006a2100000c
:020000040000fa
:040168006a21000008
:020000040000fa
:04016c006a21000004
:020000040000fa
:040170006a21000000
:020000040000fa
:040174006a210000fc
:020000040000fa
:040178006a210000f8
:020000040000fa
:04017c006a210000f4
:020000040000fa
:040180006a210000f0
:020000040000fa
:040184006a210000ec
:020000040000fa
:040188006a210000e8
:020000040000fa
:04018c006a210000e4
:020000040000fa
:040190006a210000e0
:020000040000fa
:040194006a210000dc
:020000040000fa
:040198006a210000d8
:020000040000fa
:04019c006a210000d4
:020000040000fa
:0401a0006a210000d0
:020000040000fa
:0401a4006a210000cc
:020000040000fa
:0401a8006a210000c8
:020000040000fa
:0401ac006a210000c4
:020000040000fa
:0401b0006a210000c0
:020000040000fa
:0401b4006a210000bc
:020000040000fa
:0401b8006a210000b8
:020000040000fa
:0401bc006a210000b4
:020000040000fa
:0401c0006a210000b0
:020000040000fa
:0401c4006a210000ac
:020000040000fa
:0401c8006a210000a8
:020000040000fa
:0401cc006a210000a4
:020000040000fa
:0401d0006a210000a0
:020000040000fa
:0401d4006a2100009c
:020000040000fa
:0401d8006a21000098
:020000040000fa
:0401dc006a21000094
:020000040000fa
:0401e0006a21000090
:020000040000fa
:0401e4006a2100008c
:020000040000fa
:0401e8006a21000088
:020000040000fa
:0401ec006a21000084
:020000040000fa
:0401f0006a21000080
:020000040000fa
:0401f4006a2100007c
:020000040000fa
:0401f8006a21000078
:020000040000fa
:0401fc006a21000074
:020000040000fa
:084008005e200400000000002e
:020000040000fa
:104034000000fa009a1c07000080fa000000060045
:020000040000fa
:104048000000fa00e31207000080fa0000000600f2
:020000040000fa
:10405c000000fa00ae1207000080fa000000060013
:020000040000fa
:104070000000fa009b1307000080fa000000060011
:020000040000fa
:104084000000fa00341d07000080fa00000006005a
:020000040000fa
:104098000000fa00331d07000080fa000000060047
:020000040000fa
:1040ac000000fa00321d07000080fa000000060034
:020000040000fa
:1040bc008f2321000e7f24000e01880000000000d9
:1040cc00000020000000e00002003200000120008f
:1040dc0020028800140007007d0007000000e000ab
:1040ec0003003a0060ac25000100200002003700fc
:1040fc000000200001002000810f70000100320040
:10410c0014000700000020000000e0000200320054
:10411c000000020000000000a05902000000000096
:10412c000040da000000fe004440a900a02220005c
:10413c000000e00003003200002020009001880005
:10414c004440a800000006008a1f78008b1f7800ee
:10415c0000000600a1028800800478000000eb003b
:10416c001f003700e284440054a0b4009905ba0043
:10417c00e284440054a0b4009906ba00e2844400de
:10418c0054a0b4000006eb00476fde00fd07b20040
:10419c00ae018800636ce10003003a00eaff0700ff
:1041ac000000eb000e003700606ce10008003a00e4
:1041bc00004deb000a05e800020039003420ec0049
:1041cc000af0a0008b05e900f9ff3e00040037005f
:1041dc006168e100010032000086eb000b00070073
:1041ec0019c7ba001905ba000e04e00003003a0022
:1041fc000a00e000dbff3a0000000600fe07b200f8
:10420c00ae0288008a047800f5ff37000cd0a300ba
:10421c00e20f4d001c00390089027800354dba00c0
:10422c000a05e800020039003420ec000af0a00076
:10423c008b05e9000f003200254dba000a05e80095
:10424c00020039003420ec000af0a0008b05e900d4
:10425c00080032000c00e0000600320015cdba0058
:10426c000a05e800020039003420ec000af0a00036
:10427c008b05e9008984e80054a0b4000b00e00031
:10428c00e2ff3a00000006009902ba00055d7800d2
:10429c008b05e900f7ff3200c82ade00055d7800c7
:1042ac008b05e900f3ff32000c00e000f1ff320057
:1042bc0019ddba00eeff370000000000000000001e
:1042cc0000000000000000000040da000000fe00ca
:1042dc000000050003f0a200889fbe008a9fbe006c
:1042ec008c1f7800f7000700fe0033006450e100db
:1042fc004f0032006420e1005200320003826c0057
:10430c0007003b000905d0000306d000820f5400c3
:10431c000c065d00020039000200320089017800b1
:10432c00030678008582550004003d000003fd0063
:10433c008103fd008502ea008b854200840f720028
:10434c0002003b0060001000e08018006011b80013
:10435c000005eb007a28e1000a003900060078001d
:10436c00c75ddd00f707b200878075002d003700b0
:10437c00828171000a017800610560008180d100a2
:10438c000080d3008502e900f9ff3b0006044000e1
:10439c008784480002003b0060041400e0841c0089
:1043ac000988a300070032008a81710082817100a4
:1043bc00610164008904d1000884d3008b05e800f6
:1043cc00170037000978a30013003a000b00e00037
:1043dc00130034008b05e9000804440089844c0068
:1043ec000a4474000978a3000d003a000b00e000a9
:1043fc00070034008b05e9000804440089844c0054
:10440c0001003a000b0020000978a300f7ff3200ee
:10441c000001eb0002003700828171000a01780074
:10442c006d0007000cf0a70001f0a000b6003700eb
:10443c006420e10002003a00838f6c00b600330068
:10444c000801be000200be00af003700889fbe000e
:10445c008a9fbe008c1f78009a000700a1003300d1
:10446c0003866c006450e1002e0032006420e100f1
:10447c00330032006150e1002f0032006120e10076
:10448c003100320085855500eb07b0000900200093
:10449c0008042000050037000804440089844c00ff
:1044ac000a0031000603430087834b0000015300d0
:1044bc0081815b00f8ff33000203be000800a000fe
:1044cc000804440089844c00f6ff3900c639dd002d
:1044dc008301730001003200130020008904d10015
:1044ec000884d3000998a300050032000800a70037
:1044fc000300a0008904d1000884d3008b05e800d8
:10450c008904d1000884d3000001eb000281d200a1
:10451c003100070001f0a1000cf0a70001f0a00091
:10452c00790037006420e1007b0032000801be00f6
:10453c000200be00f7ff37006120e1007600320078
:10454c006000b800f3ff37000000200001f82700de
:10455c00f0ff370014002000b6003700f4ff2f00e6
:10456c00b40037000001be00410007000470a70032
:10457c0003f0a10003f8a30013003a006509b10091
:10458c0010003200090035006928e10002003500f6
:10459c000100280000000500000040008180480058
:1045ac008502e900fcff3a0000000600f88f42008b
:1045bc00050035008100d1000080d3008502e800a1
:1045cc00fcff3a00000006008000eb000000050034
:1045dc006011b800b20037008100200061805500e6
:1045ec000b003d000b00200061fe2f000100e100dc
:1045fc001d00340082817100610164008904d100c6
:10460c000884d3000000e800faff3a007100200093
:10461c0061006400030070000200600009003200b9
:10462c0061044400e0844c000988a50005003200b8
:10463c008b05e8006808e10002003a008904d1000b
:10464c000884d300f20f20000258e10005003d0061
:10465c00c75ddd00f907b20089807500080078009d
:10466c00000006000bf827008b0078000000050006
:10467c00c70ade00f107b200f50fb20008003200e5
:10468c00e1cf4200020032000170a00024000500be
:10469c00810f700001003200040805004400050081
:1046ac00810f700002003a00140005008502e90039
:1046bc000000400081c04800fcff3b000170a000de
:1046cc00240005000004be00e9ff07000003be0043
:1046dc000405be000200be00e5ff0700844f750014
:1046ec00000006000200be006450e1000500360028
:1046fc006420e100020036000968a30001003a00c2
:10470c000800be000160a0004f0678004f05be00f7
:10471c004f04be0000000600f0ff2f00f1ff270041
:10472c00f9ff3700889fbe008a9fbe008c1f78005f
:10473c00e4ff0700ebff330003866c006450e100dc
:10474c00240032006420e100270032006150e100b7
:10475c00220032006120e100210032008b854200f2
:10476c00eb07b1000134b800003ab800080442006d
:10477c0089844a00013ab8000030b80088804000b3
:10478c0009014a0004003300000040008180480009
:10479c00020149008b05e900c909dd0083017000a5
:1047ac000100320013002000c814de004814dd00a4
:1047bc004709de001200b200c808de000884700051
:1047cc0085ff070001f0a1000cf0a70001f0a0008c
:1047dc00cdff37006120e100cfff32000801be00a1
:1047ec000200be00f7ff37006150e100fcff3a0009
:1047fc00c9ff37006022b800060220000000d0007c
:10480c008180d2000482d2008582d2000000a000f8
:10481c000202520083825a0003003100020242005d
:10482c0083824a000000a1000603e900f3ff3a006e
:10483c0000000600889fbe008a9fbe00841f78007f
:10484c00a0ff07004f00780011003300f0ff2f008d
:10485c00838f6c0006003b00040565000a00a7006e
:10486c000800370009f0a6001000200008003700ef
:10487c00820f5400838f5c0003003900100020006d
:10488c0001003e000000200009f0a7000000ea0033
:10489c004f05be004f04be000000e0000000060003
:1048ac00889fbe008a9fbe000082700004027100c7
:1048bc0004827100260032000004be000200be001b
:1048cc006011b8006b092000950220000182cf0016
:1048dc000a0039000541b1000082cf000700390001
:1048ec000541b1000982cf00040039000541b10037
:1048fc000882cf00010039000541b1000542520089
:10490c00120032000a003b008281710061016400d8
:10491c008100d1000080d3008984d3000884d300a7
:10492c008b05e8000442e800f7ff3a000700370067
:10493c000804440089844c00000048008180480031
:10494c008b05e9000442e900f9ff3a0022ff070059
:10495c004f05be004f04be00000006008001780029
:10496c0002003700815978000201e9000200e000e2
:08497c00fcff3a0000000600f8
:020000040000fa
:1049840000000000c1c0000081c10000400100001f
:1049940001c30000c00300008002000041c2000007
:1049a40001c60000c00600008007000041c70000e7
:1049b40000050000c1c5000081c4000040040000df
:1049c40001cc0000c00c0000800d000041cd0000af
:1049d400000f0000c1cf000081ce0000400e000097
:1049e400000a0000c1ca000081cb0000400b000097
:1049f40001c90000c00900008008000041c800008f
:104a040001d80000c01800008019000041d900003e
:104a1400001b0000c1db000081da0000401a000026
:104a2400001e0000c1de000081df0000401f000006
:104a340001dd0000c01d0000801c000041dc0000fe
:104a440000140000c1d4000081d50000401500000e
:104a540001d70000c01700008016000041d60000f6
:104a640001d20000c01200008013000041d30000f6
:104a740000110000c1d1000081d0000040100000ee
:104a840001f00000c03000008031000041f100005e
:104a940000330000c1f3000081f200004032000046
:104aa40000360000c1f6000081f700004037000026
:104ab40001f50000c03500008034000041f400001e
:104ac400003c0000c1fc000081fd0000403d0000ee
:104ad40001ff0000c03f0000803e000041fe0000d6
:104ae40001fa0000c03a0000803b000041fb0000d6
:104af40000390000c1f9000081f8000040380000ce
:104b040000280000c1e8000081e9000040290000fd
:104b140001eb0000c02b0000802a000041ea0000e5
:104b240001ee0000c02e0000802f000041ef0000c5
:104b3400002d0000c1ed000081ec0000402c0000bd
:104b440001e40000c02400008025000041e50000cd
:104b540000270000c1e7000081e6000040260000b5
:104b640000220000c1e2000081e3000040230000b5
:104b740001e10000c02100008020000041e00000ad
:104b840001a00000c06000008061000041a100009d
:104b940000630000c1a3000081a200004062000085
:104ba40000660000c1a6000081a700004067000065
:104bb40001a50000c06500008064000041a400005d
:104bc400006c0000c1ac000081ad0000406d00002d
:104bd40001af0000c06f0000806e000041ae000015
:104be40001aa0000c06a0000806b000041ab000015
:104bf40000690000c1a9000081a80000406800000d
:104c040000780000c1b8000081b9000040790000bc
:104c140001bb0000c07b0000807a000041ba0000a4
:104c240001be0000c07e0000807f000041bf000084
:104c3400007d0000c1bd000081bc0000407c00007c
:104c440001b40000c07400008075000041b500008c
:104c540000770000c1b7000081b600004076000074
:104c640000720000c1b2000081b300004073000074
:104c740001b10000c07100008070000041b000006c
:104c840000500000c19000008191000040510000dc
:104c940001930000c05300008052000041920000c4
:104ca40001960000c05600008057000041970000a4
:104cb40000550000c195000081940000405400009c
:104cc400019c0000c05c0000805d0000419d00006c
:104cd400005f0000c19f0000819e0000405e000054
:104ce400005a0000c19a0000819b0000405b000054
:104cf40001990000c059000080580000419800004c
:104d040001880000c048000080490000418900007b
:104d1400004b0000c18b0000818a0000404a000063
:104d2400004e0000c18e0000818f0000404f000043
:104d3400018d0000c04d0000804c0000418c00003b
:104d440000440000c184000081850000404500004b
:104d540001870000c0470000804600004186000033
:104d640001820000c0420000804300004183000033
:104d740000410000c181000081800000404000002b
:104d84000102000004080000102000004080000020
:104d94000100000002000000040000000800000000
:104da400100000002000000040000000800000000f
:104db40000010000000200000004000000080000e0
:104dc40000100000002000000040000000800000ef
:044dd40031010000a9
:020000040000fa
:104dd8000000fa00a01d21008040eb000148780087
:104de8000080fa00000006000000fa00b01e210052
:104df8008040eb0001487800c01e21008040eb0095
:104e080001487800d01e210041c6b300014878004f
:104e1800004b200001002000708f8800818f8800df
:104e28004006200001002000908f8800a18f880094
:104e3800a000200001002000b08f8800c18f8800ea
:104e4800e001200001002000d08f8800e18f880059
:104e5800e01f21008040eb0001487800f01f21008e
:104e680011c0b30001487800c012200001002000e2
:104e7800009088001190880040202100a1c0b30054
:104e8800014878005020210041c1b3000148780052
:104e980060202100a1c0b3000148780070202100e3
:104ea80011c0b30001487800402121008040eb0088
:104eb80001487800502121008040eb00014878002b
:104ec800602121008040eb0001487800702121001a
:104ed8008040eb00014878000870ef000970ef008f
:104ee800a00f2000010020006080880071808800e9
:104ef80040382000010020008080880091808800d0
:104f0800a00f200001002000a0808800b180880048
:104f180000002800010020008090880091908800ff
:104f280000c0eb00b70a07000080fa000000060086
:104f38000000fa0000c0eb00b20a07007886a9005a
:104f48007866a9008d26a900402121008040eb0049
:104f580001487800502121008040eb00014878008a
:104f6800702121008040eb00014878000080fa00a1
:104f7800000006000000fa00b01e21001040780072
:104f88000004e00006003200b01e21001040780046
:104f9800e14f5000020032000000eb00a000370093
:104fa800c01e2100104078000004e0000e0032000e
:104fb800c01e210010407800e14f50000a00320066
:104fc800c01e210010407800e24f50000600320059
:104fd800b01e210010407800e14f500002003a0056
:104fe8000000eb008e003700928f8000a38f8000b6
:104ff800803e200001002000800f5100818f590061
:1050080006003600b01e210010407800e14f500025
:1050180002003a000000eb0081003700b28f8000e8
:10502800c38f80008007200001002000800f5100fe
:10503800818f590006003600b01e2100104078000c
:10504800e14f500002003a000000eb007400370006
:10505800b28f8000c38f8000d08f8000e18f8000e6
:10506800800f5100818f59000b003600d08f8000cf
:10507800e18f8000e00f5000e08f580006003200fa
:10508800b01e210010407800e14f500002003a00a5
:105098000000eb0062003700e01f2100104078009c
:1050a8000004e00006003200e01f210010407800f4
:1050b800e14f5000020032000000eb0058003700ba
:1050c800f01f2100104078000004e0000a003200c0
:1050d800f01f210010407800e14f50000600320018
:1050e800e01f210010407800e14f500002003a0014
:1050f8000000eb004a003700029080001390800007
:105108009000200001002000800f5100818f59007d
:1051180006003e00e01f210010407800e14f5000db
:1051280002003a000000eb003d003700b08f80001d
:10513800c18f8000421f20000289b9000201780057
:105148006002b9008401780003014100431f200078
:105158000300b8000101410082007800108d88002a
:10516800218d8800708f8000818f8000d08088001a
:10517800e1808800c01e210010407800e14f5000f7
:105188000f003a00908f8000a18f8000421f2000fe
:105198000289b900020178006002b9008401780030
:1051a80003014100431f20000300b8000101410032
:1051b80082007800508d8800618d880017003700c4
:1051c800c01e210010407800e24f50000f003a0046
:1051d800908f8000a18f8000421f20000289b900b3
:1051e800020178006002b9008401780003014100df
:1051f800431f20000300b80001014100820078002d
:10520800508d8800618d880004003700803e2000a2
:1052180001002000508d8800618d8800100020005a
:105228000080fa00000006000000fa00301e21008d
:1052380010407800614060000004e00011003a006e
:10524800301e210010407800624060000004e00039
:105258000c003a00301e21001040780064406000c5
:105268000004e00007003a00301e210010407800da
:10527800684060000004e00002003a000000eb0013
:105288000b003700201e2100104078000004e000c9
:1052980006003200201e210010407800e14f500027
:1052a800020032000000eb0001003700100020006f
:1052b8000080fa00000006000c00fa00889fbe007b
:1052c800a01d2100104078000080fb00cf80de0088
:1052d8008201200003002000820f5000838f5800b5
:1052e80021073e00006001001d0037002e00370036
:1052f800e2003700c7033700c6033700c50337008d
:10530800c4033700c3033700c2033700c1033700a3
:10531800c0033700bf033700be033700bd033700a3
:10532800bc033700bb033700ba033700b9033700a3
:105338005c05370005003700830637006c05370029
:1053480009073700800637007f0637008081800014
:10535800e10f500008073a00b80907001d07370099
:10536800a01d210011c0b3000148780040c0b3005f
:105378009817070050c0b3009617070060c0b30025
:105388009417070070c0b3009217070080c0b300dd
:10539800901707001e70ef003270ef005c30ef00ce
:1053a8005e30ef000b073700e1fe07006030ef00ca
:1053b8006230ef006430ef00b01e2100104078002a
:1053c800e14f500007003a00c01e2100104078004d
:1053d8000004e00003003a00e0828000f30f500070
:1053e80010003400b01e210010407800e14f50003a
:1053f80004003a00c01e210010407800e14f500020
:1054080008003200b01e210010407800e14f500023
:1054180011003a00c01e210010407800e24f5000f1
:105428000d003a0010c0b3001ef0b700c01d2100e7
:105438008040eb00014878006630ef006830ef00ec
:105448006a30ef006c30ef00a01d210021c0b300ce
:1054580001487800090037001e70ef00000028009e
:10546800010020004090880051908800000028002a
:10547800010020006090880071908800e01f2100e2
:1054880010407800e14f50000d003a00f082800093
:10549800e90f50000a003c0010c0b30032f0b7001a
:1054a8006e30ef007030ef0080c0b300391707008e
:1054b800a01d210021c0b300014878000500370075
:1054c8003270ef0000002800010020008090880062
:1054d80091908800218f800000802000008060006b
:1054e8000000e0000800320091fe0700a01d210026
:1054f80011c0b30001487800501e21008040eb0025
:1055080001487800b3063700218f80000020200072
:10551800008060000000e0001100320095fe0700e6
:10552800e10f500007003a00e01d210011c0b30050
:1055380001487800a01d210021c1b300014878006e
:1055480003003700a01d210041c1b30001487800c5
:10555800501e21008040eb00014878009d0637006e
:10556800218f800000402000008060000000e000e3
:10557800830632002cff07000000e00004003a0018
:10558800a01d210041c1b3000148780091063700f1
:10559800a01d210021c1b3000148780064fe070066
:1055a800e01d210011c1b30001487800301e210020
:1055b80010407800614060000004e0000b003200f9
:1055c800201e210010407800e14f500004003a00ee
:1055d8004021210011c0b3000148780003003700c2
:1055e800402121008040eb0001487800301e210056
:1055f80010407800624060000004e0000b003200b8
:10560800201e210010407800e14f500004003a00ad
:105618005021210011c0b300014878000300370071
:10562800502121008040eb0001487800301e210005
:1056380010407800684060000004e0000b00320071
:10564800201e210010407800e14f500004003a006d
:105658007021210011c0b300014878000300370011
:10566800702121008040eb0001487800501e210085
:105678008040eb000148780056063700218f8000f3
:1056880000802000008060000000e0000800320078
:1056980027fe0700a01d210011c0b30001487800b3
:1056a800501e21008040eb00014878004906370071
:1056b800218f800000202000008060000000e000b2
:1056c800110032002bfe0700e10f500007003a00de
:1056d800e01d210011c0b30001487800a01d210081
:1056e80021c1b3000148780003003700a01d210044
:1056f80041c1b30001487800501e21008040eb00f2
:105708000148780033063700218f800000402000d0
:10571800008060000000e00042003200c2fe070086
:105728000000e00004003a00a01d210041c1b300c0
:105738000148780027063700a01d210021c1b300c9
:1057480001487800fafd0700e01d210011c1b300ef
:1057580001487800301e2100104078006140600048
:105768000004e0000b003200201e210010407800e9
:10577800e14f500004003a004021210011c0b3005d
:105788000148780003003700402121008040eb00e9
:1057980001487800301e2100104078006240600007
:1057a8000004e0000b003200201e210010407800a9
:1057b800e14f500004003a005021210011c0b3000d
:1057c8000148780003003700502121008040eb0099
:1057d80001487800301e21001040780068406000c1
:1057e8000004e0000b003200201e21001040780069
:1057f800e14f500004003a007021210011c0b300ad
:105808000148780003003700702121008040eb0038
:1058180001487800501e21008040eb0001487800c4
:10582800ec0537001ed0bf00e14f5000ec013a00f4
:10583800871507000004e0001b003a00bcfd0700c4
:1058480040c0b3006316070050c0b30061160700dc
:1058580060c0b3005f16070070c0b3005d16070094
:1058680080c0b3005b160700e01f210010407800dd
:10587800e14f500002003a0080c0b300451607000f
:105888006e30ef007030ef006630ef006830ef00e8
:105898006a30ef006c30ef00a01d210051c1b30049
:1058a80001487800cb053700928f8000a38f8000d5
:1058b800803e200001002000800f5100818f590098
:1058c80011003a004021210011c0b30001487800be
:1058d800c01e210010407800e24f50000600320040
:1058e8007886a8005021210011c0b3000148780033
:1058f8007866a800ba013700d01e21001040780051
:1059080040080700b6013700908f8000a18f800003
:10591800e00f5000e08f580010003a0040212100ad
:105928008040eb0001487800c01e2100104078003c
:10593800e24f5000020032007886a90002003700ca
:1059480000c0eb002f080700502121008040eb0029
:10595800014878007866a900a1013700a01e21003f
:10596800104078000080fb00e10f5000ec0032008e
:10597800e20f50007f0132000000e00089013a0088
:10598800c01d2100104078000004e000040032002f
:10599800c01d210010407800e14f50002d003a0052
:1059a80070c0b3000b16070070c0b300f9150700ec
:1059b8006a30ef006c30ef004021210011c0b300c5
:1059c80001487800c01e210010407800e24f5000c6
:1059d800020032007886a80003003700d01e21009c
:1059e8001040780007080700502121008040eb0094
:1059f800014878007866a900c01d21001040780091
:105a08000004e00008003200c01d210010407800aa
:105a1800e14f500009003a00c01e210010407800f4
:105a2800e24f50000500320060c0b300e9150700de
:105a380060c0b300d71507000200370060c0b3008c
:105a4800e4150700c01d210021c0b30001487800fb
:105a580063013700c01d210010407800e24f50005c
:105a680052013a0060c0b300fd150700e14f400045
:105a780017003a0050212100104078000004e0008f
:105a880013003a0060c0b300d2150700c01e210001
:105a980010407800e24f50000700320060c0b300a9
:105aa800bc1507005021210011c0b300014878003f
:105ab8007866a8001f003700402121008040eb00d5
:105ac8000148780000c0eb00ce0707001900370036
:105ad80060c0b300e2150700e14f400015003a002e
:105ae8005021210010407800e14f500011003a0089
:105af80060c0b300b7150700402121008040eb00cb
:105b080001487800c01e210010407800e24f500084
:105b1800020032007886a9000200370000c0eb00be
:105b2800b8070700502121008040eb0001487800a9
:105b38007866a90070c0b300c9150700e14f40009e
:105b48001c013a005083800061838000610040009e
:105b5800e0804800508388006183880070c0b300eb
:105b68009c15070070c0b3008a1507005083800099
:105b7800618380000081880011818800d0808000c6
:105b8800e180800020818800318188005083800076
:105b9800618380000001be00d0808000e180800029
:105ba800800f5100818f5900040139006a30ef00dd
:105bb8006c30ef00c01e21001040780068014700db
:105bc800e40047003b050700e10f50003b003a00a6
:105bd8002e009000be0090004090880051908800f0
:105be8004e009000de009000609088007190880060
:105bf80042908000539080006090800071908000f7
:105c0800988f8000a98f800064072100841f780086
:105c180027072100a60121000202be000001be00e4
:105c28000800be00500507008f87e90090838000b8
:105c3800a18380000081880011818800d0808000c5
:105c4800e18080002081880031818800c01e210009
:105c580010407800e24f5000060032009083800028
:105c6800a1838000508d8800618d88007886a80007
:105c780007003700b0838000c1838000508d880002
:105c8800618d8800d01e2100104078005d07070054
:105c980060c0b3004f15070060c0b3003d15070092
:105ca8004021210011c0b300014878005021210093
:105cb8008040eb0001487800c9003700008380006d
:105cc8000000e80000838800e08280000000e8000f
:105cd800e082880000838000e40f5000090034004f
:105ce80000002800010020004090880051908800a2
:105cf8000000280001002000609088007190880052
:105d08001e70ef00e01d210021c0b300014878009b
:105d1800a01d210071c1b30001487800b000370010
:105d2800d08f8000e18f8000e00f5000e08f580096
:105d380011003a004021210011c0b3000148780049
:105d4800c01e210010407800e24f500006003200cb
:105d58007886a8005021210011c0b30001487800be
:105d68007866a8009e003700d01e210010407800f9
:105d7800240707009a003700b08f8000c18f800089
:105d8800e00f5000e08f580010003a004021210039
:105d98008040eb0001487800c01e210010407800c8
:105da800e24f5000020032007886a9000200370056
:105db80000c0eb0013070700502121008040eb00d2
:105dc800014878007866a90085003700c01d2100c9
:105dd800104078000004e00004003200c01d2100db
:105de80010407800e24f50001e003a0040c0b30057
:105df800f814070050c0b300f614070040c0b30001
:105e0800e414070050c0b300e21407006630ef0046
:105e18006830ef004021210011c0b300014878002c
:105e2800c01e210010407800e24f500006003200ea
:105e38007886a8005021210011c0b30001487800dd
:105e48007866a80003003700d01e210010407800b3
:105e5800ec060700c01d210011c0b30001487800fe
:105e68005f003700c01d210010407800e14f50004e
:105e780054003a0040c0b300f9140700e14f400055
:105e880011003a0040c0b300d2140700402121009d
:105e98008040eb0001487800c01e210010407800c7
:105ea800e24f5000020032007886a9000200370055
:105eb80000c0eb00d3060700502121008040eb0012
:105ec800014878007866a90050c0b300e4140700c0
:105ed800e14f40003d003a0030838000418380005c
:105ee80061004000e08048003083880041838800da
:105ef80050c0b300b714070050c0b300a514070082
:105f080030838000418380000001be00d08f800074
:105f1800e18f8000800f5100818f59002d003a00d9
:105f280040c0b3009b1407006630ef006830ef00f4
:105f38004021210011c0b30001487800c01e210093
:105f480010407800e24f5000060032007886a80022
:105f58005021210011c0b300014878007866a800dc
:105f68001f003700d01e210010407800a50607004a
:105f78001b003700eefb07001e70ef0032d0bf0099
:105f8800e14f500015003a006e30ef007030ef001e
:105f980080c0b3008f14070080c0b3007d140700d1
:105fa8000f003700000000000d003700000000005f
:105fb8000b00370000000000090037000000000057
:105fc800070037000000000005003700000000004f
:105fd8000300370000000000010037000000000047
:105fe80032d0bf00e14f5000e7033a0080c0b30051
:105ff8009b140700e14f4000e5033a0070838000de
:106008008183800061004000e08048007083880040
:106018008183880080c0b3006e14070080c0b3007d
:106028005c14070070838000818380000001be003b
:106038000090800011908000800f5100818f5900de
:10604800680039006e30ef007030ef00f01f21005b
:10605800104078008e007800e1030700e10f50003f
:1060680046003a001e00be0080908800919088008b
:106078006230ef007021210010407800e14f50009d
:1060880008003a0033d0bf00e14f500005003a0045
:10609800702121008040eb00014878008d26a9007e
:1060a800350037007021210010407800e14f500082
:1060b80015003a001e00be00a200200003002000c8
:1060c800cdf907000001be006020210010407800d3
:1060d8008080fb0070202100104078000080fb00c9
:1060e80000804000cf80de00800f5100818f590072
:1060f80005003900702121008040eb00014878003c
:106108008d26a9001c00370070212100104078005e
:106118000004e000a0033a001e00be00a200200018
:1061280003002000b4f907000001be006020210030
:10613800104078008080fb0070202100104078001b
:106148000080fb0000805000cf80de00800f5100ef
:10615800818f590092033e0033d0bf000004e00055
:1061680091033a007021210011c0b3000148780062
:106178008d26a80097033700960337001083800008
:106188000000e8001083880010838000e40f5000ae
:10619800870334006230ef00f08280000000e800de
:1061a800f08288000000280001002000809088000c
:1061b800919088003270ef00402121008040eb0070
:1061c800014878008d26a900e01d210021c0b300f8
:1061d80001487800a01d210081c1b3000148780062
:1061e8007c0337007021210010407800e14f5000f7
:1061f80071033a0033d0bf00e14f500070033a00fa
:10620800702121008040eb00014878008d26a9000c
:10621800700337005021210010407800e14f5000f2
:1062280002003a007866a800010037007866a900e5
:106238004021210010407800e14f50000a003a0048
:10624800c01e210010407800e24f500002003200ca
:106258007886a8000c003700d01e21001040780076
:10626800e805070008003700c01e2100104078002c
:10627800e24f5000020032007886a9000200370081
:1062880000c0eb00df0507007021210010407800f6
:10629800e14f500002003a008d26a80001003700a7
:1062a8008d26a9004021210010407800e14f5000c0
:1062b80010003a0050212100104078000004e0004e
:1062c8000c003a0060212100104078000004e00032
:1062d80008003a0070212100104078000004e00016
:1062e80004003a00a01d210031c0b3000148780025
:1062f8001b01370040212100104078000004e00015
:1063080010003a005021210010407800e14f500061
:106318000c003a0060212100104078000004e000e1
:1063280008003a0070212100104078000004e000c5
:1063380004003a00a01d210041c0b30001487800c4
:106348000701370040212100104078000004e000d8
:1063580010003a0050212100104078000004e000ad
:106368000c003a006021210010407800e14f5000f5
:1063780008003a0070212100104078000004e00075
:1063880004003a00a01d210051c0b3000148780064
:10639800f300370040212100104078000004e0009d
:1063a80010003a0050212100104078000004e0005d
:1063b8000c003a0060212100104078000004e00041
:1063c80008003a007021210010407800e14f500089
:1063d80004003a00a01d210061c0b3000148780004
:1063e800df0037004021210010407800e14f5000c5
:1063f80010003a005021210010407800e14f500071
:106408000c003a0060212100104078000004e000f0
:1064180008003a0070212100104078000004e000d4
:1064280004003a00a01d210071c0b30001487800a3
:10643800cb0037004021210010407800e14f500088
:1064480010003a0050212100104078000004e000bc
:106458000c003a006021210010407800e14f500004
:1064680008003a0070212100104078000004e00084
:1064780004003a00a01d210081c0b3000148780043
:10648800b70037004021210010407800e14f50004c
:1064980010003a0050212100104078000004e0006c
:1064a8000c003a0060212100104078000004e00050
:1064b80008003a007021210010407800e14f500098
:1064c80004003a00a01d210091c0b30001487800e3
:1064d800a300370040212100104078000004e000ac
:1064e80010003a005021210010407800e14f500080
:1064f8000c003a006021210010407800e14f500064
:1065080008003a0070212100104078000004e000e3
:1065180004003a00a01d2100a1c0b3000148780082
:106528008f00370040212100104078000004e0006f
:1065380010003a005021210010407800e14f50002f
:106548000c003a0060212100104078000004e000af
:1065580008003a007021210010407800e14f5000f7
:1065680004003a00a01d2100b1c0b3000148780022
:106578007b00370040212100104078000004e00033
:1065880010003a0050212100104078000004e0007b
:106598000c003a006021210010407800e14f5000c3
:1065a80008003a007021210010407800e14f5000a7
:1065b80004003a00a01d2100c1c0b30001487800c2
:1065c800670037004021210010407800e14f50005b
:1065d80010003a005021210010407800e14f50008f
:1065e8000c003a006021210010407800e14f500073
:1065f80008003a0070212100104078000004e000f3
:1066080004003a00a01d2100d1c0b3000148780061
:10661800530037004021210010407800e14f50001e
:1066280010003a005021210010407800e14f50003e
:106638000c003a0060212100104078000004e000be
:1066480008003a007021210010407800e14f500006
:1066580004003a00a01d2100e1c0b3000148780001
:106668003f0037004021210010407800e14f5000e2
:1066780010003a0050212100104078000004e0008a
:106688000c003a006021210010407800e14f5000d2
:1066980008003a007021210010407800e14f5000b6
:1066a80004003a00a01d2100f1c0b30001487800a1
:1066b8002b00370040212100104078000004e00042
:1066c80010003a005021210010407800e14f50009e
:1066d8000c003a006021210010407800e14f500082
:1066e80008003a007021210010407800e14f500066
:1066f80004003a00a01d210001c1b3000148780040
:10670800170037004021210010407800e14f500069
:1067180010003a005021210010407800e14f50004d
:106728000c003a006021210010407800e14f500031
:1067380008003a007021210010407800e14f500015
:1067480004003a00a01d210011c1b30001487800df
:1067580003003700a01d210011c0b30001487800d4
:10676800218f800000802000008060000000e00091
:1067780005003200eef90700a01d210011c0b3008a
:106788000148780043003700218f80000040200036
:10679800008060000000e0003e003200a2fa07001e
:1067a8000000e00004003a00a01d210041c1b30030
:1067b8000148780037003700a01d2100904078007c
:1067c800e01d210001487800a01d210021c1b3006f
:1067d80001487800301e21001040780061406000b8
:1067e8000004e0000b003200201e21001040780059
:1067f800e14f500004003a004021210011c0b300cd
:106808000148780003003700402121008040eb0058
:1068180001487800301e2100104078006240600076
:106828000004e0000b003200201e21001040780018
:10683800e14f500004003a005021210011c0b3007c
:106848000148780003003700502121008040eb0008
:1068580001487800301e2100104078006840600030
:106868000004e0000b003200201e210010407800d8
:10687800e14f500004003a007021210011c0b3001c
:106888000148780003003700702121008040eb00a8
:1068980001487800501e21008040eb000148780034
:1068a800cc013700218f800000102000008060009c
:1068b8000000e00005003200e01d21009040780053
:1068c800a01d210001487800c2013700218f8000f7
:1068d80000802000008060000000e000ba01320063
:1068e800a01d210011c0b30001487800b90137008c
:1068f80000c0eb00430407007886a9007866a90069
:10690800402121008040eb000148780050212100ff
:106918008040eb0001487800218f80000080200033
:10692800008060000000e0000900320080c0b30071
:10693800281207006e30ef007030ef007cf9070076
:10694800a01d210011c0b300014878005d00370088
:10695800218f800000202000008060000000e000ff
:106968001100320083f90700e10f500007003a00d8
:10697800e01d210011c0b30001487800a01d2100ce
:1069880021c1b3000148780003003700a01d210091
:1069980041c1b30001487800501e21008040eb003f
:1069a8000148780047003700218f80000040200010
:1069b800008060000000e0004200320080c0b300a8
:1069c800041207006e30ef007030ef0016fa07006f
:1069d8000000e00004003a00a01d210041c1b300fe
:1069e8000148780037003700a01d210021c1b300fd
:1069f800014878004ef90700e01d210011c1b300dd
:106a080001487800301e2100104078006140600085
:106a18000004e0000b003200201e21001040780026
:106a2800e14f500004003a004021210011c0b3009a
:106a38000148780003003700402121008040eb0026
:106a480001487800301e2100104078006240600044
:106a58000004e0000b003200201e210010407800e6
:106a6800e14f500004003a005021210011c0b3004a
:106a78000148780003003700502121008040eb00d6
:106a880001487800301e21001040780068406000fe
:106a98000004e0000b003200201e210010407800a6
:106aa800e14f500004003a007021210011c0b300ea
:106ab8000148780003003700702121008040eb0076
:106ac80001487800e2100700e14f500008003a0042
:106ad80080c0b300bf1107006e30ef007030ef00c8
:106ae800a01d210011c0b30001487800390137000a
:106af800e01f210010407800e14f50008e003a005e
:106b080080c0b300d6110700e14f40008a003a0068
:106b1800708380008183800061004000e08048002d
:106b2800708388008183880080c0b300a9110700a2
:106b380080c0b300971107007083800081838000b4
:106b48000001be000090800011908000800f51006d
:106b5800818f590067003a006e30ef007030ef0007
:106b6800f01f2100104078008e0078001c010700fb
:106b7800e10f500045003a001e00be0080908800da
:106b8800919088006230ef00702121001040780059
:106b9800e14f500008003a0033d0bf00e14f5000e9
:106ba80005003a00702121008040eb000148780080
:106bb8008d26a90060003700702121001040780060
:106bc800e14f500015003a001e00be00a200200050
:106bd8000300200008f707000001be006020210024
:106be800104078008080fb00702021001040780061
:106bf8000080fb0000804000cf80de00800f510045
:106c0800818f590005003900702121008040eb0078
:106c1800014878008d26a90047003700702121001f
:106c2800104078000004e0003e003a001e00be005c
:106c3800a200200003002000eff607000001be00bc
:106c480060202100104078008080fb007020210027
:106c5800104078000080fb0000805000cf80de00ec
:106c6800800f5100818f590030003e0033d0bf00a3
:106c78000004e0002f003a007021210011c0b30089
:106c8800014878008d26a8002b003700108380006b
:106c98000000e8001083880010838000e40f500093
:106ca800250034006230ef00f08280000000e80028
:106cb800f0828800000028000100200080908800f1
:106cc800919088003270ef00402121008040eb0055
:106cd800014878008d26a900e01d210051c1b300ac
:106ce80001487800a01d210081c1b3000148780047
:106cf800110037007021210010407800e14f50004a
:106d08000d003a0033d0bf00e14f50000a003a00ae
:106d1800702121008040eb00014878008d26a900f1
:106d280005003700000000000300370000000000e5
:106d38000100370000000000501e21008040eb00d9
:106d480001487800a300370032d0bf00e14f50005f
:106d5800030032001ed0bf00e14f500016003a0079
:106d6800208380000000e00007003a0000c1b30063
:106d78001811070000c1b300061107001000200019
:106d8800208388000f00370000c1b30034110700ca
:106d9800e14f40000a003a0000c1b3000d1107009e
:106da8006430ef00e01d210090407800a01d210014
:106db80001487800030037005df80700010037003c
:106dc80000000000218f800000802000008060000b
:106dd8000000e0000700320000c1b300fd1007000a
:106de8006430ef00a01d210011c0b30001487800f5
:106df80078003700218f800000202000008060008c
:106e08000000e000110032005af80700e10f5000be
:106e180007003a00e01d210011c0b30001487800c6
:106e2800a01d210021c1b3000148780003003700ec
:106e3800a01d210041c1b30001487800501e210067
:106e48008040eb000148780062003700218f800005
:106e580000402000008060000000e0005c0032007c
:106e6800f1f807000000e00004003a00a01d21002e
:106e780041c1b3000148780056003700a01d210029
:106e880021c1b3000148780029f80700e01d21005e
:106e980011c1b30001487800301e2100104078006d
:106ea800614060000004e0000b003200201e210059
:106eb80010407800e14f500004003a0040212100c2
:106ec80011c0b300014878000300370040212100b9
:106ed8008040eb0001487800301e21001040780007
:106ee800624060000004e0000b003200201e210018
:106ef80010407800e14f500004003a005021210072
:106f080011c0b30001487800030037005021210068
:106f18008040eb0001487800301e210010407800c6
:106f2800684060000004e0000b003200201e2100d1
:106f380010407800e14f500004003a007021210011
:106f480011c0b30001487800030037007021210008
:106f58008040eb0001487800501e21008040eb0083
:106f6800014878001b003700a01d21008040eb007d
:106f780001487800170037000000000015003700ae
:106f88000000000013003700000000001100370067
:106f9800000000000f003700000000000d0037005f
:106fa800000000000b003700000000000900370057
:106fb800000000000700370000000000050037004f
:106fc8000000000003003700000000000100370047
:106fd800000000004f04be000080fa000000060018
:106fe8000400fa00004f7800110798001e80fb008b
:106ff8000000e00003003200e10f50001a003200e8
:10700800290037001ed0bf000004e00010003a003d
:1070180008d0bf000004e00002003a0010c0b3002e
:1070280008f0b70009d0bf000004e00006003a00ed
:1070380060808000718080001e0190000089be0081
:1070480010002000190037000000eb00170037007f
:1070580060808000718080001e0190000089be0061
:1070680010002000110037000ad0bf000004e00023
:1070780002003a0010c0b3000af0b7000bd0bf00fe
:107088000004e00006003a00a0808000b180800083
:107098001e0190000089be00100020000300370088
:1070a8000000eb00010037000000eb000080fa0050
:1070b800000006000600fa00004f7800110798004b
:1070c800220798001e80fb000000e0000500320047
:1070d8000000e00021003500e20f50001f003c00d6
:1070e8001400370008d0bf000004e00002003a0096
:1070f80010c0b30008f0b70009d0bf000004e000da
:107108000a003a0060808000718080001e019000b3
:107118000089be0080808000918080002e01900050
:107128000089be00100020000d0037000000eb00b1
:107138000b0037001e01900000002800010020000d
:107148000089be002e0190000000280001002000e8
:107158000089be0010002000010037000000eb008d
:107168000080fa00000006004800fa00889fbe0070
:10717800401f9800511f9800621f9800731f9800c5
:107188000427980015279800262798003727980085
:10719800c01e210010407800e14f500021003a0045
:1071a800708f8000818f80002e2190000089be00a2
:1071b800908f8000a18f8000421f20000289b900b3
:1071c800020178006002b9008401780003014100df
:1071d800431f20000300b80001014100820078002d
:1071e8003e2190000089be00908f8000a18f800012
:1071f800421f20000289b900020178006002b9002c
:107208008401780003014100431f20000300b800f7
:1072180001014100820078004eb997000089be0044
:10722800f5013700c01e210010407800e24f5000e1
:1072380016003a00708f8000818f80002e21900008
:107248000089be003e2190006000b8000089be00a1
:10725800908f8000a18f8000421f20000289b90012
:10726800020178006002b90084017800030141003e
:10727800431f20000300b80001014100820078008c
:107288004eb997000089be00db0137000e20900040
:107298009e209000cff40700020020000312240073
:1072a8006bf4070000179800111798006e189000eb
:1072b800fe189000c7f4070002002000a34724002e
:1072c80063f4070020179800311798004e189000b3
:1072d800de189000bff4070002002000832c240071
:1072e8005bf407004017980051179800d04d220012
:1072f80061072400601798007117980018c0b30040
:1073080002002000031224000e1090009e1090002e
:1073180091f407000000e000010035000044eb0094
:107328000804e000040032000000200001f42300fb
:10733800008fbe001b00370018c0b30002002000f9
:10734800031f24000e1090009e10900084f4070084
:107358000000e00001003c000044eb000804e000ed
:10736800040032000000200001e82300008fbe0066
:107378000c0037000e1190009e11900000002000b4
:10738800011a2400d4f30700d2cc2c00c3cc23006c
:10739800e5f407000200200003f02300cff3070004
:1073a800008fbe0018c0b300d2cc2c00c3ec230061
:1073b8002e109000be10900067f407000000e00057
:1073c800010035000044eb000804e000050032002d
:1073d8000000200001e823002007980031079800ea
:1073e8002100370018c0b300d2cc2c00c3f423000e
:1073f8002e109000be10900059f407000000e00025
:1074080001003c000044eb000804e00005003200e5
:107418000000200001f4230020079800310798009d
:10742800110037002e119000be119000a09929007c
:1074380091f12300a8f3070002002000030a2400aa
:10744800b9f40700020020000308240000f4070034
:107458000001be000000200001f023009ef3070099
:107468002007980031079800708f8000818f800076
:1074780058f407000004be002e019000be019000e1
:107488001e00be0095f307000001be000800be0004
:10749800a5f4070034f407002e2190000089be00ef
:1074a800708f8000818f80004af407000004be00be
:1074b8002e019000be0190001e00be0087f3070059
:1074c8000001be000800be0097f40700001f9800e6
:1074d800111f980018c0b3000200200003122400f6
:1074e8000e1090009e1090001bf407000000e000b2
:1074f800010035000044eb000804e00005003200fc
:107508000000200001f02300400798005107980070
:107518001d00370018c0b30002002000031f24001c
:107528000e1090009e1090000df407000000e0007f
:1075380001003c000044eb000804e00005003200b4
:107548000000200001fc2300400798005107980024
:107558000d00370002002000031224000e109000d6
:107568009e1090005cf3070002002000031a24001c
:10757800b7f307000200200003f0230057f30700c9
:10758800400798005107980018c0b300d2cc2c00cf
:10759800c3ec23002e109000be109000eef30700fd
:1075a8000000e000010035000044eb000804e000a2
:1075b80005003200a099290091f123006007980086
:1075c800710798001700370018c0b300d2cc2c0000
:1075d800c3f423002e109000be109000e0f30700c3
:1075e8000000e00001003c000044eb000804e0005b
:1075f80005003200d0cc2c00c1e4230060079800bd
:1076080071079800070037002e119000be119000f6
:107618000000200001f823002ff3070060079800fe
:107628007107980018c0b30002002000031f24004f
:107638000e1090009e109000c7f307000000e000b5
:10764800010035000044eb000804e00005003200aa
:107658000000200001e82300000f9800110f980097
:107668001d00370018c0b3000200200003222400c8
:107678000e1090009e109000b9f307000000e00083
:1076880001003c000044eb000804e0000500320063
:107698000000200001f02300000f9800110f98004f
:1076a8000d00370002002000031f24000e10900078
:1076b8009e10900008f30700020020000322240017
:1076c80063f307000200200003e8230003f3070028
:1076d800000f9800110f980018c0b300d2cc2c00ee
:1076e800c3e423002e109000be1090009af3070008
:1076f8000000e000010035000044eb000804e00051
:10770800050032000000200001f42300200f98003b
:10771800310f98001d00370018c0b300d2cc2c00e0
:10772800c3ec23002e109000be1090008cf30700cd
:107738000000e00001003c000044eb000804e00009
:10774800050032000000200001e82300200f980007
:10775800310f98000d0037002e119000be119000d7
:10776800d0cc2c00c1ec2300dbf207000200200083
:1077780003022400ecf307000200200003e82300c2
:10778800d6f20700200f9800310f98002e099000bc
:10779800be0990000e0890009e089000cff20700e6
:1077a800201f9800311f980018c0b3000200200065
:1077b800031f24000e1090009e10900066f307002f
:1077c8000000e000010035000044eb000804e00080
:1077d800040032006000b800400f9800510f980074
:1077e8001d00370018c0b300020020000322240047
:1077f8000e1090009e10900059f307000000e00062
:1078080001003c000044eb000804e00005003200e1
:107818006066260061ee2300400f9800510f980023
:107828000d00370002002000031f24000e109000f6
:107838009e109000a8f2070002002000030924000f
:10784800b9f3070002002000832c240000f307008e
:10785800400f9800510f980018c0b300d2cc2c00ec
:10786800c3e423002e109000be1090003af30700e6
:107878000000e000010035000044eb000804e000cf
:10788800050032006066260061ee2300600f980054
:10789800710f98001900370018c0b30002002000cb
:1078a80003f023002e109000be1090002cf3070068
:1078b8000000e00001003c000044eb000804e00088
:1078c800040032006000b800600f9800710f980043
:1078d8000a0037002e119000be1190000000200011
:1078e80001f023007cf207000200200003fc2300c3
:1078f8008df30700600f9800710f98004e019000fb
:10790800de0190000e1890009e18900086f3070084
:107918006e019000fe01900083f307002e1990007d
:10792800be19900080f307006e119000fe119000c0
:107938007df307004e119000de1190007af30700e6
:1079480009f307003e2190000089be003e20900008
:107958001000be00421f200003002000a6f307000d
:107968000001be002e2090001000be00800f5100c4
:10797800818f59000e0036002e2090001000be00a6
:10798800421f20000289b900020178006002b90094
:107998008401780003014100431f20000300b80060
:1079a80001014100820078003e2190000089be005c
:1079b8003e2090001000be0006f307000004be0041
:1079c800d2cc2c00c3dc23004e089000de089000c7
:1079d80042f207006e099000fe0990003ff207008e
:1079e8000001be000800be004ff30700def20700ea
:1079f8004eb997000089be004f04be000080fa000f
:107a0800000006000200fa00004f78001e407800cf
:107a1800ea4f5000020034000040eb00004f7800ad
:107a28009860a9001e41780041032100824878002f
:107a38009860a8000080fa00000006000000fa0024
:107a48000060fe0010a1a9000000fe000080fa00fe
:107a5800000006000000fa00a13d800000fc2f0095
:107a680000806000f000b300a03d8800113f800056
:107a780000f82f00008060003000b300103f88003d
:107a880020022000001d880080002000c01c880003
:107a98009a23ef0099e3a8009be3a9009ba3a80001
:107aa8009b43a8008960a9008980a9009960a80063
:107ab8007a06a900c009210008000700e00d21008e
:107ac8000600070080082400008988006030240030
:107ad800108988000080fa00000006000200fa0001
:107ae800000f78001e007800c20320008000eb0021
:107af8009bf307001e0078008040eb0001c098004f
:107b08001e0078008040eb00617898001e00780025
:107b18008040eb00517898001e0078008040eb0010
:107b2800417898001e0078008040eb00717898003a
:107b38000080fa00000006000200fa00000f78003a
:107b48001e0078008040eb0001c098001e007800fd
:107b58008040eb00617898001e0078008040eb00c0
:107b6800517898001e0078008040eb00417898001a
:107b78001e0078008040eb00717898000080fa00c1
:107b8800000006000200fa00004f7800c00d210036
:107b980010407800704060000004e000af003a0038
:107ba800a00d2100104078000080fb00e20f50007b
:107bb80029003200e20f500005003c000000e00000
:107bc8000a003200e10f500012003200990037001d
:107bd800e40f500064003200e40f50003900350013
:107be800e50f500070003200920037001e40780008
:107bf800e24f500092003a009e407800c0092100f0
:107c080098000700a00d210011c0b30001487800ba
:107c1800920037009e407800c009210091000700bb
:107c280000ceb3001e4040009af0b7009ad0bf00c3
:107c3800a10007000004e00003003a00c009210089
:107c4800bdff070085003700a00d210021c0b3004b
:107c580001487800810037009e407800c009210063
:107c68008000070080c2b3009e40780080cf50009b
:107c780004003600c0c5b3009e40780080cf500095
:107c880003003600c0092100abff0700730037006e
:107c980000ceb3009e404000800d210001487800ce
:107ca800800d210010407800e5405000800d210033
:107cb80001487800a00d210031c0b30001487800c8
:107cc80066003700b00d2100104078000004e00085
:107cd8001200320000c3b3009e40780080cf5000ed
:107ce8000a00320020c3b3009e40780080cf5000c5
:107cf8000600320030c3b3009e40780080cf5000a9
:107d080002003200c00921008bff0700b00d2100de
:107d18008040eb0001487800060037001e407800dc
:107d2800fb4f500003003a00b00d210011c0b30012
:107d3800014878009e407800c009210049000700ea
:107d4800900d210090407800800d210010407800af
:107d580080cf50003c003a00a00d210041c0b30084
:107d6800014878003d0037009e407800c009210096
:107d78003c000700900d2100104078008080fb0037
:107d8800800d2100104078000080fb006400400056
:107d9800808f50002e003a00a00d210051c0b30082
:107da800014878002d0037001e407800e34f50004e
:107db80004003a00c0092100550007000004e00053
:107dc80003003a00c00921005bff070023003700c9
:107dd8009e407800c009210022000700800d210084
:107de80010407800e3405000800d210001487800e1
:107df800a10921009140780002d0bf0080cf500037
:107e080003003a00e08680000030a000e086880089
:107e18007d000700c00d2100104078006840600018
:107e28000004e0000c003a00c009210042ff0700ee
:107e38000a003700c00921003fff0700070037008c
:107e480000000000050037000000000003003700b4
:107e58000000000001003700000000000080fa0068
:107e6800000006000400fa00000f7800214798007f
:107e78001e007800507890008080fb001e0178007a
:107e8800ae41900003f178008040e8001e007800c1
:107e9800517898001e007800d0789000b0c3b300e5
:107ea80080cf5000020036001e00780022ff070035
:107eb8000080fa00000006000200fa00004f780077
:107ec8001e4078000004e0000400320010c3b30034
:107ed8009e40780080cf50000800360040c6b300ae
:107ee8009e40780080cf50000600360050c9b3008d
:107ef8009e40780080cf500002003e0010c0b300c2
:107f0800010037000040eb000080fa000000060086
:107f18000600fa00200798002e0090004078900094
:107f28008080fb002e0090000001eb00d2020700c9
:107f3800000f78002e009000507890000080fb0021
:107f480064005000ae009000614078000080fb00a3
:107f58000002b1004c00dd00100798002e009000d0
:107f6800507890000080fb0063005000ae00900045
:107f7800614078000080fb000002b1004800dd008d
:107f88009e00900001007000100798002e009000dd
:107f9800507890000080fb000080e900ae0090005f
:107fa800614078000080fb000002b1004400dd0061
:107fb8009e00900001007000100798002e009000ad
:107fc800507890000080fb000000e900ae009000af
:107fd800614078000080fb000002b1009e00900024
:107fe80001007000100798001e0090009e0f5000be
:107ff80002003a0010c0b300010037000040eb0057
:108008000080fa00000006000600fa00f0092100ce
:10801800100798000040eb00104798009e40900021
:10802800014f78002b0037001e80fb009e00900057
:108038000080400090407800414798001e4fe800bb
:108048004e409000fb4f500019003a001e80fb0084
:108058009e009000008040009040780000cdb30062
:1080680000c04000404798001e4fe8004e40900076
:108078000004e00007003a001e4090000080fb006a
:108088009e00900000804000b1c1b3000148780014
:108098000d0037001e4090000080fb009e009000fd
:1080a80000804000ce40900001487800060037006c
:1080b8001e4090000080fb009e0090000080400061
:1080c800ce409000014878001e4090000040e80033
:1080d80010479800800d2100104078009e4f5000f6
:1080e800d1ff3e00800d2100904078001e40900096
:1080f8001e40500080c04000800d210001487800db
:108108000080fa00000006000800fa002007980026
:10811800614798000040eb00004f78001e4078004f
:108128008080fb002e01900023c0b30003f178008b
:108138000040e800004f78001e4078008080fb0077
:10814800ee41900042c8b30082c141002e01900068
:1081580003f178000040e800004f78001e407800e6
:108168000040e800004f7800401e210010407800d1
:10817800804078002e009000014178008e00780041
:1081880009020700a01d21001040780080407800f7
:108198002e009000014178008e007800020207004e
:1081a800d01d210010407800804078002e009000fb
:1081b800014178008e007800fb0107002e00900036
:1081c8000041eb008e007800f70107002e009000b8
:1081d80022c0b3008e007800f30107002e00900043
:1081e80032c0b3008e007800ef0107004090800095
:1081f80051908000804078002e0090000141780066
:108208008e007800e80107004290800053908000bb
:1082180000f02f000100200002027800030178001e
:10822800800178000100780003026200000061000c
:108238008000eb00c000dd00000020000001be004f
:108248006120b8000001710081817100481add00c9
:108258004810de0000007200c818de008040780078
:108268002e009000014178008e007800ce010700b2
:108278006090800071908000804078002e0090000f
:10828800014178008e007800c701070062908000e5
:108298007390800000f02f00010020000202780097
:1082a8000301780080017800010078000302620071
:1082b800000061008000eb00c000dd00000020002d
:1082c8000001be006120b8000001710081817100c9
:1082d800481add004810de0000007200c818de00f1
:1082e800804078002e009000014178008e007800d0
:1082f800ad01070080908000919080008040780058
:108308002e009000014178008e007800a601070039
:10831800829080009390800000f02f0001002000e0
:1083280002027800030178008001780001007800db
:1083380003026200000061008000eb00c000dd0065
:10834800000020000001be006120b800000171009b
:1083580081817100481add004810de0000007200bb
:10836800c818de00804078002e0090000141780097
:108378008e0078008c010700402121001040780011
:10838800804078002e009000014178008e0078002f
:1083980085010700502121001040780080407800b6
:1083a8002e009000014178008e0078007e010700c1
:1083b8006021210010407800804078002e00900055
:1083c800014178008e0078007701070070212100b4
:1083d80010407800804078002e009000014178001d
:1083e8008e00780070010700a08480001000be0095
:1083f800804078002e009000014178008e007800bf
:1084080069010700a08480001001be0000f02f0061
:108418000100200002027800030178008001780042
:108428000100780003026200000061008000eb0098
:10843800c000dd00000020000001be006120b8007f
:108448000001710081817100481add004810de00ca
:1084580000007200c818de00804078002e009000ee
:10846800014178008e0078004f010700a084800049
:108478001001be0000002000f10f20000202780069
:10848800030178008001780001007800030262008f
:10849800000061008000eb00c000dd00000020004b
:1084a8000001be006120b8000001710081817100e7
:1084b8004018de0001002000804078002e00900067
:1084c800014178008e007800370107001e407800cf
:1084d80052c2b300824040002e0090002140980014
:1084e8001e407800e54040002e009000417898003a
:1084f8001e4078008080fb002e0090000001eb00f9
:108508005d010700f10f2000810060001e4190000e
:108518006041610081407100114798004800de0009
:10852800ae409000e0c0600000c070002047980096
:108538001e4078008080fb002e4190000281fb00e5
:108548004411de000241780004c2b30084414100b6
:108558002e01900003f178000040e800004f7800f9
:108568001e4078008080fb002e4190006f41610022
:1085780004c2b300844141002e01900003f1780049
:108588000040e800004f78001e4078008080fb0023
:108598001e4190000281fb004411de000241780078
:1085a80004c2b300844141002e01900003f1780019
:1085b8000040e800004f78001e4078008080fb00f3
:1085c8001e4190006f41610004c2b3008441410024
:1085d8002e01900003f178000040e800004f780079
:1085e8001e4078008080fb002e01900033c0b3004d
:1085f80003f178000040e800004f78000080fa009e
:10860800000006000c00fa0040079800214f98006f
:1086180030c0b300004f78001e80fb00ce009000f1
:10862800e1407800401e2100014878001e4fe80014
:108638001e80fb00ce009000e1407800501e210013
:10864800014878001e4fe800401e210010407800c5
:108658000080fb00f30f50001a003200f30f5000a7
:1086680003003c00e10f50000a003200cc00370044
:10867800f40f5000bb003200f50f5000c7003a005d
:10868800a01d210031c1b300014878003030ef004f
:10869800c30037001e80fb00ce009000e140780048
:1086a800a01e2100014878001e4fe8001e80fb0034
:1086b800ce0090006140780033f0b7001e4fe8000c
:1086c800b70037001e80fb00ce009000e140780024
:1086d800b01e2100014878001e4fe8001e80fb00f4
:1086e800ce009000e1407800c01e210001487800cb
:1086f8001e4fe800c01e210010407800e14f5000d6
:1087080014003600c01e21009040780040c6b30017
:1087180080cf500003003600c01e210041c6b300c0
:1087280001487800c01e2100104078008080fb00be
:10873800d0cc2c000008b8004308de008040780048
:10874800d01e210001487800c01e210021c0b300be
:10875800014878001e80fb00ce0090006140780040
:10876800104798001e4fe8001e80fb00ce009000c6
:1087780061407800204798001e4fe8001e40900096
:108788000080fb00ae4090008180fb00c808dd003f
:1087980001007000cf80de00708f8800818f880014
:1087a8001e80fb00ce0090006140780010479800c2
:1087b8001e4fe8001e80fb00ce009000614078004c
:1087c800204798001e4fe8001e4090000080fb00e4
:1087d800ae4090008180fb00c808dd0001007000f9
:1087e800cf80de00908f8800a18f88001e80fb005c
:1087f800ce00900061407800104798001e4fe800b6
:108808001e80fb00ce009000614078002047980051
:108818001e4fe8001e4090000080fb00ae40900014
:108828008180fb00c808dd0001007000cf80de00f9
:10883800b08f8800c18f88001e80fb00ce0090009a
:1088480061407800104798001e4fe8001e80fb002a
:10885800ce00900061407800204798001e4fe80045
:108868001e4090000080fb00ae4090008180fb001d
:10887800c808dd0001007000cf80de00d08f8800be
:10888800e18f88001e80fb00ce009000e140780058
:10889800e01f2100014878001e4fe8001e80fb0001
:1088a800ce009000e1407800f01f210001487800d8
:1088b8001e4fe8001e80fb00ce009000614078004b
:1088c800104798001e4fe8001e80fb00ce00900065
:1088d80061407800204798001e4fe8001e40900035
:1088e8000080fb00ae4090008180fb00c808dd00de
:1088f80001007000cf80de00009088001190880091
:108908001e80fb00ce009000e1407800402021004e
:10891800014878001e4fe8001e80fb00ce00900042
:10892800e140780050202100014878001e4fe800ff
:108938001e80fb00ce009000e140780060202100fe
:10894800014878001e4fe8001e80fb00ce00900012
:10895800e140780070202100014878001e4fe800af
:108968000f0037001e80fb00ce009000e140780029
:10897800301e2100014878001e4fe8001e80fb00d1
:10898800ce009000e1407800201e210001487800c8
:108998001e4fe80000000000010037000000000042
:1089a8000080fa00000006000800fa00100798008e
:1089b80021079800624798002e009000104f780019
:1089c8006e409000e24f5000030032006e4090006d
:1089d800e34f50000e003a001e80fb009e009000fe
:1089e80000804000b1c1b300014878001e4fe80084
:1089f8001e80fb009e00900000804000ee4090002a
:108a08000143b000014878001e4fe8001600370007
:108a18006e409000fb4f50000d003a001e80fb0096
:108a28009e00900000804000b1c1b300014878006a
:108a38001e4fe8001e80fb009e0090000080400052
:108a480001c3b300014878001e4fe8000600370054
:108a58001e80fb009e00900000804000ee409000c9
:108a6800014878001e4fe8002e0090001e4878004c
:108a78000080fa00000006000c00fa003007980099
:108a880041079800520798006000b800008fbe00a8
:108a9800180037003e009000104078008080fb00ee
:108aa8005e00900080806800f00f20000080600069
:108ab800200798005e009000c800de002e0090009d
:108ac80000014000204c2a000000410010007800fe
:108ad80000806800500798003e0090000000e80001
:108ae8003007980012002000030020001e0f4100ec
:108af8005e9749004e0090008000eb00be0f5000ca
:108b0800ae8f5800e3ff3e005e0090000080fa0040
:108b1800000006000000fa00c104800000002100e7
:108b2800008060000000e00028003200410480005e
:108b380000002100008060000000e00023003200f7
:108b48008980a900b011210090407800a01121006f
:108b58001040780080cf5000110039007a06a90033
:108b68009980a900f1888000f0fd2f000080600046
:108b7800f0888800f1888000d0ff2f000080600016
:108b8800f0888800a01d210010407800f34f5000a5
:108b98000e003a0010002000808188000b0037008a
:108ba800b0112100104078000081fb00e10d210088
:108bb80081004100914078008180fb00e11c880021
:108bc8008040e800b0112100014878000080fa00d8
:108bd800000006000000fa00c104800000802000a8
:108be800008060000000e0001700320041048000af
:108bf80000802000008060000000e00012003200c9
:108c08008960a900d01c8000620060000000e000bc
:108c1800030032009a23a900c0092100c6fb0700ff
:108c2800d01c8000640060000000e00003003200f7
:108c3800f01c8000c0092100bffb0700f01c800069
:108c480000407800cffb07000080fa000000060013
:108c58000000fa0004000700220007004c0007008b
:108c68000080fa00000006000000fa00c00d210094
:108c780010407800684060000004e00017003200ef
:108c880010c0b300760907000004e00003003a00b2
:108c980010c0b3003f0907001000370010c0b30030
:108ca8006f090700e14f40000c003a00128980006c
:108cb80002d0bf0080407800c009210002000100f6
:108cc800c009210085fb0700e08680000020a00085
:108cd800e086880010c0b3003e0907000080fa0053
:108ce800000006000000fa00c00d210010407800c6
:108cf800644060000004e00018003200e011210028
:108d0800104078000042b2000004e00013003a006e
:108d1800e1868000b0ff2f0000806000e0868800b8
:108d2800e00d21006dfb07000289800002d0bf0022
:108d380080407800e00d210002000100f0888000ea
:108d48000010a000f088880020c0b30011090700b7
:108d580030c0b3001f0907000b003700c00d210009
:108d680010407800644060000004e00006003a000b
:108d780020c0b3003a0907000004e00002003a00ee
:108d880020c0b300030907000080fa0000000600b5
:108d98000000fa00e01121001040780062406000f5
:108da8000004e00025003200e011210010407800a6
:108db8000042b2000004e0001d003a00a0112100aa
:108dc80090407800c0c3b30080cf50001a003e0026
:108dd8007a06a8008980a9009980a800f0888000f8
:108de8000050a000f088880000000000d11c80001e
:108df80000102000008060000000e000fbff32004f
:108e0800b0112100104078000081fb00e10d210025
:108e180081004100914078008180fb00e11c8800be
:108e28008040e800b01121000148780003003700b5
:108e38000000000001003700000000000080fa0078
:108e4800000006000000fa006003210081212100d3
:108e58001100980060032100812121000108780099
:108e680060032100a00090000110a00021009800dc
:108e78006003210020019000e1ff2f0081006100c4
:108e880021009800600321008040eb0061409800b9
:108e980000092000c024880000002800d024880091
:108ea8009e24ef008a20a9009a20a8007826a8000e
:108eb80040042000c08088000080fa0000000600fe
:108ec8000200fa0060032100e0409000014f7800a2
:108ed8001e4078000080fa00000006000000fa003a
:108ee8008a20a900f124800000082000008060008a
:108ef8000000e000080032009ee4a9003e30ef00c8
:108f080020828000200090008000eb00010878009b
:108f18004430ef00d8003700f0818000e40f5000a3
:108f2800c8003200e40f500009003e00e10f500075
:108f380040003200e10f50000e003900e20f5000ef
:108f480040003200e30f500066003200c0003700d6
:108f5800e60f5000a3003200e60f50008f003900e2
:108f6800e70f5000b7003200e80f5000a1003200b0
:108f7800b700370060032100200090006200600005
:108f88000000e000bb003a006003210010009000e0
:108f980020828800600321001000900010407800b3
:108fa80040f0b7006003210010009000100090000e
:108fb800108288006003210010009000e600400045
:108fc80060032100110098006003210090009000c8
:108fd800e0212100808f500003003a006003210047
:108fe80081212100110098006003210020019000d8
:108ff800e1ff2f008100610021009800600321003b
:10900800900090006003210010007800808f5000cd
:1090180004003a0060032100a00090000110a000a5
:10902800210098009a04a80020002000f081880000
:10903800910037009a24a80020002000f0818800c1
:109048008d00370054d0bf00e14f50000a003200b5
:109058001082800010007800b082880010828000a2
:1090680020009000c082880010828000204090007c
:109078005af0b700010037005470ef00b182800049
:10908800f00f2000808f500009003600b082800069
:109098004800de00e6006000000f200001007000bc
:1090a800b0248800a0002000f081880072003700fa
:1090b800b0828000b0248800b08280006100600027
:1090c800004078000004e000030032005000200057
:1090d800f08188006800370030002000f0818800a7
:1090e80065003700f124800000002800008060003f
:1090f8000000e00009003200600321006040900099
:109108008040e80060032100614098009fe4a900c6
:10911800500020006b000700570037005ad0bf00ee
:109128008080fb008100e900cf08de0081407800e4
:109138000040e9005af0b7000104e00010003200d6
:1091480010828000660040001082880040d0bf0076
:109158000040e90040f0b70040d0bf000004e00044
:1091680003003a00200020005600070042003700a4
:109178009a24a80020002000f08188003e003700d3
:10918800c0828000904078008180fb00b124880074
:109198000000e800c082880037003700f124800012
:1091a80000002800008060000000e0000900320094
:1091b80060032100604090008040e80060032100c7
:1091c80061409800400020003e0007009fe4a9008d
:1091d800290037009a64a80080002000f0818800e8
:1091e8002500370080002000f08188009a64a800dc
:1091f80021003700c0828000a124800081407800cf
:10920800014878000000e800c08288005ad0bf00fa
:109218000040e9005af0b7005ad0bf000004e0004f
:10922800040032009aa4a90060002000f0818800a0
:10923800020037009aa4a800110007009a84a80029
:109248000d003700200020001e0007000a0037002c
:1092580060032100604090008040e8006003210026
:109268006140980060002000160007000000000020
:1092780001003700000000000080fa00000006002e
:109288000000fa001082800066004000108288000a
:1092980040d0bf000040e90040f0b70040d0bf0018
:1092a8000004e00003003a0040002000f08188003c
:1092b8000200370010002000f08188000080fa00ca
:1092c800000006000200fa00000f78009a44a80087
:1092d80020828000200090000000e000030032009f
:1092e80020828000200090001e0878003e30ef00a9
:1092f8000080fa00000006000800fa00000f78005d
:10930800214798002207980033079800600321003e
:1093180020009000610060000000e0000a003a00b0
:10932800ae0190002e4190009e007800402221005e
:10933800780007003e0190004122210010c0b300d0
:109348001f000700030037003e0090008000eb007c
:10935800010878000080fa00000006000800fa0002
:10936800000f7800214798002207980033079800db
:109378006003210020009000610060000000e00010
:109388000a003a00ae0190002e4190009e0078003d
:10939800e0212100470007003e019000e121210063
:1093a80010c0b30006000700030037003e0090001d
:1093b8008000eb00010878000080fa000000060039
:1093c8000600fa00004f780011079800220798005d
:1093d8006003210020009000610060000000e000b0
:1093e8002f003a002e00900011002000010878009c
:1093f80060032100100078009e0090001100980082
:1094080060032100100078001e48780060032100e6
:1094180010007800ae009000210098006003210041
:1094280010007800e6004000600321000108780081
:109438006003210090007800e0212100808f500017
:1094480003003a006003210081212100010878000f
:109458006003210020019000d1ff2f0081006100ee
