:020000040000fa
:082e0800ae17040000000000f9
:020000040000fa
:102f5c002fe0200080ff200000018800000000000e
:102f6c000a00070011000700000020000000e0002c
:102f7c000200320000000200000000006257020054
:102f8c00000000000040da000000fe004440a900f0
:102f9c00008120000000e00003003200000020004f
:102fac00a00188004440a80000000600406c2500e9
:102fbc00010020001600370062004000e08048004d
:102fcc00910188009001ba0062004000e080480046
:102fdc00910188009002ba0062004000e080480035
:102fec000002eb006028e10005003a008301e900d3
:102ffc0007003300038009000059eb000400370080
:10300c006128e100010032000082eb00050007009e
:10301c00910188001001ba000200e000e6ff3a00be
:10302c0000000500910188008002780062004000d9
:10303c00e08048003559ba008301e90008003200ed
:10304c002559ba008301e900050032000400e000b4
:10305c00f4ff320015d9ba008301e900f1ff3a0000
:10306c00000006000000000000000000000000004e
:10307c00000000008001eb00020037008171780035
:10308c008301e800828f5100fcff3a00000006002b
:10309c00839f68000100e00002003d00600010000a
:1030ac00e08018000300e00002003d006001110008
:1030bc00e08119000b0007004f00e00002003b000c
:1030cc0060001000e080180000000600020ab90041
:1030dc00001bb9000200b8008100420081004300cf
:1030ec00000006006022b800060220000000d0009c
:1030fc008180d2000482d2008582d2000000a00020
:10310c000202520083825a00030031000202420084
:10311c0083824a000000a1000603e900f3ff3a0095
:10312c00000006000001be00710107000470a7003a
:10313c0003f0a10003f8a30013003a006509b100e5
:10314c0010003200090035006928e100020035004a
:10315c0001002800000005000000400081804800ac
:10316c008502e900fcff3a0000000600f88f4200df
:10317c00050035008100d1000080d3008502e800f5
:10318c00fcff3a00000006008000eb000000050088
:10319c00889fbe008a9fbe00010578000100e000f8
:1031ac000400350008003c000000e0002000320064
:1031bc000500370060001000e080180002003b00a2
:1031cc0001f02c001a0037000004be006011b8009a
:1031dc006b0920000982cf00020039000882cf0061
:1031ec000441b000694252000e00320008003b005e
:1031fc0082817100610164008904d1000884d300cc
:10320c008b05e8000442e800f9ff3a00050037009e
:10321c000804440089844c008b05e9000442e90051
:10322c00fbff3a00470107000af0a70001f0a000dd
:10323c004f05be004f04be000000060003f0a200c4
:10324c00889fbe008a9fbe008c1f78006301070018
:10325c006a0133006450e1004f0032006420e10049
:10326c005200320003826c0007003b000905d000bd
:10327c000306d000820f54000c065d0002003900da
:10328c00020032008901780003067800858255001f
:10329c0004003d000003fd008103fd008502ea00ef
:1032ac008b854200840f720002003b00600010000e
:1032bc00e08018006011b8000005eb007a28e100ee
:1032cc000a00390006007800c75ddd00f707b20080
:1032dc00878075002d003700828171000a0178000b
:1032ec00610560008180d1000080d3008502e90077
:1032fc00f9ff3b00060440008784480002003b00b5
:10330c0060041400e0841c000988a300070032004c
:10331c008a81710082817100610164008904d1008d
:10332c000884d3008b05e800170037000978a30048
:10333c0013003a000b00e000130034008b05e90089
:10334c000804440089844c000a4474000978a300e2
:10335c000d003a000b00e000070034008b05e9007b
:10336c000804440089844c0001003a000b00200042
:10337c000978a300f7ff32000001eb0002003700d0
:10338c00828171000a017800ee0007000cf0a700a2
:10339c0001f0a000220137006420e10002003a0095
:1033ac00838f6c00220133000801be000200be00b6
:1033bc001b013700889fbe008a9fbe008c1f7800bf
:1033cc000004be00ca0007000478a30026003a00df
:1033dc006120e1002500320009f8a30025003a0025
:1033ec006420e10021003200f507b1000508a300bc
:1033fc000200320000004000818048006044b800a8
:10340c0003102000020020000000400081804800d2
:10341c000805440089854c000a0541008b8549004c
:10342c000a0550008b855800030033000a00be00cb
:10343c0002047400838474008301d1000281d300e0
:10344c00830f7100f0ff3a008904d1000884d30087
:10345c006001490082017800c1adde00fb07b000bd
:10346c00b8000700ee0037000960a0000800be009d
:10347c00eb00370012022000124f8800f0ff2f00e3
:10348c00f1ff2700e6003700889fbe008a9fbe0030
:10349c008c1f7800d1000700d800330003866c0025
:1034ac006450e100240032006420e1002700320067
:1034bc006150e100220032006120e1002100320065
:1034cc008b854200eb07b1000134b800003ab8001c
:1034dc000804420089844a00013ab8000030b80060
:1034ec008880400009014a000400330000004000bd
:1034fc0081804800020149008b05e900c909dd0003
:10350c00830170000100320013002000c814de009b
:10351c004814dd004709de001200b200c808de00c6
:10352c00088470008700070001f0a1000cf0a700d0
:10353c0001f0a000ba0037006120e100bc003200ad
:10354c000801be000200be00f7ff37006150e10029
:10355c00fcff3a00b60037000001be006400070013
:10356c000470a70003f0a1006509b1001600320039
:10357c000d0035006828e10006003500f0ff2f0033
:10358c00f1ff27000300e00013003b0001002800be
:10359c000000050000004000818048008502e90021
:1035ac00fcff3a0008003700f88f420002003c0094
:1035bc008000eb00000005008100d1000080d300ea
:1035cc008502e800fcff3a000300e00002003b002b
:1035dc0060001000e080180000000600889fbe000c
:1035ec008a9fbe008c1f78007c000700830033008c
:1035fc0003866c006450e1002e0032006420e10070
:10360c00330032006150e1002f0032006120e100f4
:10361c003100320085855500eb07b0000900200011
:10362c0008042000050037000804440089844c007d
:10363c000a0031000603430087834b00000153004e
:10364c0081815b00f8ff33000203be000800a0007c
:10365c000804440089844c00f6ff3900c639dd00ab
:10366c008301730001003200130020008904d10093
:10367c000884d3000998a300050032000800a700b5
:10368c000300a0008904d1000884d3008b05e80056
:10369c008904d1000884d3000001eb000281d20020
:1036ac002800070001f0a1000cf0a70001f0a00019
:1036bc005b0037006420e1005d0032000801be00b1
:1036cc000200be00f7ff37006120e1005800320015
:1036dc006000b800f3ff37000000200001f827005d
:1036ec00f0ff37007ffe07000400be00000006005c
:1036fc00c70ade00f107b200f50fb2000800320075
:10370c00e1cf4200020032000170a000240005004d
:10371c00810f700001003200040805004400050010
:10372c00810f700002003a00140005008502e900c8
:10373c000000400081c04800fcff3b000170a0006d
:10374c002400050081002000618055000b003d0025
:10375c000b00200061fe2f000100e1001d00340071
:10376c0082817100610164008904d1000884d30056
:10377c000000e800faff3a007100200061006400cc
:10378c000300700002006000090032006104440074
:10379c00e0844c000988a500050032008b05e80088
:1037ac006808e10002003a008904d1000884d300c3
:1037bc00f20f20000258e10005003d00c75ddd005e
:1037cc00f907b20089807500080078000000060037
:1037dc000bf827008b007800000005000004be00e9
:1037ec00c3ff07000003be000405be000200be00bc
:1037fc00bfff0700844f7500000006000200be00ea
:10380c006450e100050036006420e100020036003f
:10381c000968a30001003a000800be000160a00086
:10382c004f0678004f05be004f04be000000060096
:0c383c00f0ff2f00f1ff2700f9ff37001c
:020000040000fa
:0200000401f009
:04000000ffff0000fe
:020000040000fa
:0200000401f009
:04000800fdff0000f8
:020000040000fa
:0200000401f009
:04000c0078ff000079
:020000040000fa
:0200000401f009
:040010005dff000090
:020000040000fa
:0200000401f009
:0400140064ff000085
:020000040000fa
:0200000401f009
:04001800ffff0000e6
:020000040000fa
:0200000401f009
:04001c00ddff000004
:020000040000fa
:0c2e3400da480400000000000000060066
:020000040000fa
:0c2e48003c4904000000000000000600ef
:020000040000fa
:0c2e78000e4b04000000000000000600eb
:020000040000fa
:0c2f2400ba4a0400000000000000060093
:020000040000fa
:0c2f5000e44a040000000000000006003d
:020000040000fa
:0c2e6000844e040000000000000006008a
:020000040000fa
:0c2e5400064f0400000000000000060013
:020000040000fa
:042e040000000000ca
:020000040000fa
:10384800ff7f0000fd7f0000f97f0000f57f00008a
:10385800f07f0000e97f0000e17f0000d87f0000d2
:10386800cd7f0000c17f0000b47f0000a67f00006c
:10387800977f0000867f0000747f0000617f000052
:103888004d7f0000377f0000217f0000097f000086
:10389800ef7e0000d57e0000b97e00009c7e00000f
:1038a8007e7e00005f7e00003e7e00001d7e0000e0
:1038b800fa7d0000d57d0000b07d0000897d000004
:1038c800627d0000397d00000e7d0000e37c000071
:1038d800b67c0000887c0000597c0000297c000030
:1038e800f87b0000c57b0000917b00005c7b00003a
:1038f800267b0000ee7a0000b67a00007c7a000091
:10390800417a0000057a0000c87900008979000032
:103918004a79000009790000c7780000847800001f
:103928003f780000fa770000b37700006b7700005b
:1039380022770000d87600008d76000041760000de
:10394800f3750000a57500005575000004750000aa
:10395800b27400005f7400000a740000b5730000c0
:103968005e73000007730000ae720000547200001e
:10397800f97100009d71000040710000e2700000c4
:103988008370000022700000c16f00005e6f0000ad
:10399800fb6e0000966e0000306e0000c96d0000de
:1039a800616d0000f86c00008e6c0000236c000054
:1039b800b76b00004a6b0000dc6a00006d6a00000b
:1039c800fd6900008b69000019690000a668000005
:1039d80032680000bc67000046670000cf66000040
:1039e80056660000dd65000063650000e8640000bd
:1039f8006c640000ee63000070630000f162000078
:103a080071620000f06100006e610000eb60000070
:103a180068600000e35f00005d5f0000d75e0000a3
:103a28004f5e0000c75d00003e5d0000b35c000013
:103a3800285c00009c5b00000f5b0000825a0000bd
:103a4800f359000064590000d358000042580000a0
:103a5800b05700001d5700008a560000f5550000b9
:103a680060550000c9540000325400009b53000008
:103a78000253000068520000ce510000335100008c
:103a880097500000fb4f00005d4f0000bf4e000044
:103a9800204e0000814d0000e04c00003f4c00002b
:103aa8009d4b0000fb4a0000584a0000b449000042
:103ab8000f49000069480000c34700001c47000088
:103ac80075460000cd450000244500007a440000fa
:103ad800d0430000254300007a420000ce41000098
:103ae8002141000073400000c53f0000173f00005f
:103af800683e0000b83d0000073d0000563c00004d
:103b0800a53b0000f23a0000403a00008c39000062
:103b1800d9380000243800006f370000ba3600009a
:103b2800043600004d35000096340000df330000f5
:103b3800263300006e320000b5310000fb30000073
:103b480041300000872f0000cc2e0000112e00000d
:103b5800552d0000992c0000dc2b00001f2b0000c5
:103b6800612a0000a3290000e5280000262800009b
:103b780067270000a8260000e82500002825000087
:103b880067240000a6230000e5220000232200008d
:103b9800612100009f200000dd1f00001a1f0000a7
:103ba800571e0000931d0000cf1c00000b1c0000d6
:103bb800471b0000821a0000be190000f918000017
:103bc800331800006e170000a8160000e215000068
:103bd8001c150000551400008f130000c8120000c7
:103be800011200003a11000072100000ab0f000033
:103bf800e30e00001c0e0000540d00008c0c0000a9
:103c0800c40b0000fb0a0000330a00006a09000028
:103c1800a2080000d90700001107000048060000ac
:103c28007f050000b6040000ed0300002403000037
:103c38005b02000092010000c900000000000000c3
:103c480000000000c1c0000081c100004001000068
:103c580001c30000c00300008002000041c2000050
:103c680001c60000c00600008007000041c7000030
:103c780000050000c1c5000081c400004004000028
:103c880001cc0000c00c0000800d000041cd0000f8
:103c9800000f0000c1cf000081ce0000400e0000e0
:103ca800000a0000c1ca000081cb0000400b0000e0
:103cb80001c90000c00900008008000041c80000d8
:103cc80001d80000c01800008019000041d9000088
:103cd800001b0000c1db000081da0000401a000070
:103ce800001e0000c1de000081df0000401f000050
:103cf80001dd0000c01d0000801c000041dc000048
:103d080000140000c1d4000081d500004015000057
:103d180001d70000c01700008016000041d600003f
:103d280001d20000c01200008013000041d300003f
:103d380000110000c1d1000081d000004010000037
:103d480001f00000c03000008031000041f10000a7
:103d580000330000c1f3000081f20000403200008f
:103d680000360000c1f6000081f70000403700006f
:103d780001f50000c03500008034000041f4000067
:103d8800003c0000c1fc000081fd0000403d000037
:103d980001ff0000c03f0000803e000041fe00001f
:103da80001fa0000c03a0000803b000041fb00001f
:103db80000390000c1f9000081f800004038000017
:103dc80000280000c1e8000081e900004029000047
:103dd80001eb0000c02b0000802a000041ea00002f
:103de80001ee0000c02e0000802f000041ef00000f
:103df800002d0000c1ed000081ec0000402c000007
:103e080001e40000c02400008025000041e5000016
:103e180000270000c1e7000081e6000040260000fe
:103e280000220000c1e2000081e3000040230000fe
:103e380001e10000c02100008020000041e00000f6
:103e480001a00000c06000008061000041a10000e6
:103e580000630000c1a3000081a2000040620000ce
:103e680000660000c1a6000081a7000040670000ae
:103e780001a50000c06500008064000041a40000a6
:103e8800006c0000c1ac000081ad0000406d000076
:103e980001af0000c06f0000806e000041ae00005e
:103ea80001aa0000c06a0000806b000041ab00005e
:103eb80000690000c1a9000081a800004068000056
:103ec80000780000c1b8000081b900004079000006
:103ed80001bb0000c07b0000807a000041ba0000ee
:103ee80001be0000c07e0000807f000041bf0000ce
:103ef800007d0000c1bd000081bc0000407c0000c6
:103f080001b40000c07400008075000041b50000d5
:103f180000770000c1b7000081b6000040760000bd
:103f280000720000c1b2000081b3000040730000bd
:103f380001b10000c07100008070000041b00000b5
:103f480000500000c1900000819100004051000025
:103f580001930000c053000080520000419200000d
:103f680001960000c05600008057000041970000ed
:103f780000550000c19500008194000040540000e5
:103f8800019c0000c05c0000805d0000419d0000b5
:103f9800005f0000c19f0000819e0000405e00009d
:103fa800005a0000c19a0000819b0000405b00009d
:103fb80001990000c0590000805800004198000095
:103fc80001880000c04800008049000041890000c5
:103fd800004b0000c18b0000818a0000404a0000ad
:103fe800004e0000c18e0000818f0000404f00008d
:103ff800018d0000c04d0000804c0000418c000085
:1040080000440000c1840000818500004045000094
:1040180001870000c047000080460000418600007c
:1040280001820000c042000080430000418300007c
:1040380000410000c1810000818000004040000074
:104048000102000004080000102000004080000069
:020000040000fa
:104058000400fa00889fbe008a9fbe008c9fbe00a5
:104068000005780020c0b300004d7800190020003a
:1040780040c8b30080c0400081747d003dc0b300db
:104088008df79f00ebab20000b499000f0805700a4
:104098000a0078002051020000000000a8ab2000b0
:1040a80018417800f08057000a007800205102007b
:1040b8000000000038419000f08057000a007800a6
:1040c800205102000000000052c0b300f0805700e9
:1040d8000a00780020510200000000000941780021
:1040e800f08057000a00780020510200000000000c
:1040f80042c0b300f08057000a0078002051020047
:10410800000000004b419000f08057000a00780042
:10411800205102000000000008f02f001256800015
:1041280008016100030020004818dd004811de0086
:1041380002017000c819de00f08057000a007800fc
:104148002051020000000000fc0f200022568000d1
:104158000c01610003002000f08057000a0078007d
:104168002051020000000000225680000801610072
:1041780003002000c818dd004811de00028170002d
:10418800c819de00f08057000a00780020510200ac
:10419800000000003bde20009b41780061c1610007
:1041a800f08057000a00780020510200000000004b
:1041b80060a7200010417800f08057000a007800be
:1041c80020510200000000001b81fb000201d10009
:1041d80061416100f08057000a0078002051020018
:1041e8000000000080a7200010417800f0805700f0
:1041f8000a0078002051020000000000c25380002d
:104208000801610003002000481add004811de00a3
:1042180002017200c899de00f08057000a00780099
:104228002051020000000000e06f80001001be0075
:10423800f08057000a0078002051020000000000ba
:10424800e06f80001000be00000464000900200038
:104258004848dd004844de0008047000c84cde0011
:1042680008417800f08057000a00780020510200c9
:1042780000000000e06f80001000be000101660031
:1042880003002000f08057000a0078002051020047
:10429800000000000ff097005042b0002045980041
:1042a8008ff0970065c04000407d98008180fb003a
:1042b8000001eb000a007800cc4e0200000000006c
:1042c800c801de008ff097000182fb00020f20007a
:1042d80083006100c488de000142b00001727d00e5
:1042e8000ff297008440e80081f79f008180fb006f
:1042f800efc161000342b00083707d008ff1970029
:104308008340e80081f79f000c4060008180fb003b
:10431800000161004491de000242b00082707d001d
:104328000ff297008440e80081f79f008180fb002e
:104338006f4060000042b00080707d008ff09700f1
:104348000140e8000080fb000d707d004f06be00b4
:104358004f05be004f04be000080fa0000000600b2
:104368000600fa0000027800e3ab2000304090001d
:1043780080499800c4409000c1c1980080407800ee
:10438800e64f5000cf0032000d003e00e34f5000d2
:10439800cc00320005003e00e14f50001e00320004
:1043a800e24f500021013a001d003700e44f500051
:1043b80035003200e54f50001c013a002e0037004e
:1043c800e94f50003000320005003e00e74f500032
:1043d8002d003200e84f500014013a002600370043
:1043e800f54f50000600320090c2b30080cf500055
:1043f8000c013200efcf50000c013a003c003700ae
:1044080040c1b300a1ab2000804878000000eb0059
:10441800e0528800050137000000eb000201370078
:1044280054409000a0ff9f00e4409000b1ff9f001f
:104438005fb8970050568800f4409000a1ff9f0095
:1044480004489000b0ff9f00dfb8970061568800cd
:1044580014489000a0ff9f00a4489000b1ff9f005f
:104468005fb89700f0578800344890000080fb0040
:1044780040568800ed003700e0ab20005442900021
:1044880064709800e9003700d4409000a1ff9f00b5
:1044980064409000b0ff9f00e2ab20005fb8970037
:1044a800cf80de00d0578800e1578800f4409000a4
:1044b800a1ff9f0004489000b0ff9f00dfb897005d
:1044c800f157880014489000a0ff9f00a44890006e
:1044d800b1ff9f005fb89700c0578800b4489000ac
:1044e80021c19800444a900064719800cf003700b9
:1044f80054409000a0ff9f00e4409000b1ff9f004f
:104508005fb89700cf80de00106a8800216a8800b3
:1045180074409000a0ff9f0084489000b1ff9f0066
:104528005fb89700cf80de00806a8800916a8800b3
:1045380014489000a0ff9f00a4489000b1ff9f007e
:104548005fb89700406a8800b4489000a1ff9f00b8
:1045580044489000b0ff9f00668157003200780001
:10456800cf80de00506a8800616a8800d4489000d5
:104578000149780064489000d0ff9f00f4489000fb
:104588002141980004509000f0ff9f00120078002d
:1045980092009000d0578800e1578800945090000e
:1045a800a1ff9f0024509000b0ff9f00dfb8970044
:1045b800f157880034509000a0ff9f00c45090002d
:1045c800b1ff9f005fb89700c0578800d450900093
:1045d800c171980064509000d0719800f450900018
:1045e800a1ff9f0004589000b0ff9f00dfb897001c
:1045f8008156880014589000a0ff9f00a45890008e
:10460800b1ff9f005fb89700a0568800b45890008b
:10461800a1ff9f0044589000b0ff9f00dfb89700ab
:104628009156880054589000a0ff9f00e4589000cd
:10463800b1ff9f005fb89700b0578800f45890000a
:10464800a1ff9f0004609000b0ff9f00dfb89700b3
:10465800b156880014609000a0ff9f00a4609000ed
:10466800b1ff9f005fb8970060568800b460900063
:10467800a1ff9f0044609000b0ff9f00dfb8970043
:104688007156880054609000b0c198006462900030
:10469800e4719800537090000004e0006300320059
:1046a800805680000000e00003003200a056800021
:1046b8000000e0005d003a000040eb00d071980077
:1046c8005a00370064805700d440900001487800b1
:1046d800e4409000d1ff9f00f440900021409800f2
:1046e80084489000f1ff9f00e1ab200010017800a2
:1046f80090019000d2578800e35788001448900032
:10470800a0ff9f0024489000b0ff9f005fb897006b
:10471800f057880034489000a0ff9f00444890005c
:10472800b0ff9f005fb89700c057880054489000ba
:10473800c070980064489000d07098007448900049
:10474800a0ff9f0004509000b0ff9f005fb8970043
:104758008056880014509000a0ff9f0024509000bd
:10476800b0ff9f005fb89700a056880034509000b3
:10477800a0ff9f0044509000b0ff9f005fb89700d3
:104788009056880054509000a0ff9f0064509000fd
:10479800b0ff9f005fb89700b05788007450900032
:1047a800a0ff9f0004589000b0ff9f005fb89700db
:1047b800b056880014589000a0ff9f00245890001d
:1047c800b0ff9f005fb8970060568800345890008b
:1047d800a0ff9f0044589000b0ff9f005fb897006b
:1047e8007056880054589000b0c09800645a9000e1
:1047f800e4709800517090000004e0000b00320053
:10480800805680000000e00003003200a0568000bf
:104818000000e00005003a000040eb00d07098006e
:104828000200370010002000605288000080fa0063
:10483800000006000040eb00a1ab20008048780093
:1048480061ab2000804878000000060080407800b6
:10485800e44f5000010034008040eb009460a90050
:10486800a0a52000014878009460a8000000060078
:1048780080407800e44f5000010034008040eb0095
:104888009460a90090a52000014878009460a800d1
:10489800000006000000eb006052880050528800bb
:1048a80040528800305288002052880010528800f8
:1048b80000528800f0518800e0518800d0518800eb
:1048c800c0518800b0518800a051880090518800dc
:1048d80080518800705188006051880000000600ef
:1048e8000800fa00889fbe008a9fbe008c1f7800cf
:1048f800e0ab2000407190000204e000b1013a00f2
:10490800a3ab2000234090000080fb0001002000a2
:10491800ee0f5000e08f5800a4013e000060010037
:1049280010003700950137001c00370028003700b9
:104938004400370055003700e600370042013700d1
:104948008e0137005a0137006e01370075013700b4
:104958007f013700890137000000370010c0b3001d
:104968001e0637000004eb008869880000c0eb00d1
:10497800b6ff0700a0c9200048e89800b05680009c
:104988006011b8003445020000000000a1ab20000f
:10499800214090000040e800b7003700c0a6200082
:1049a8001000e00006003200705380000000e000b4
:1049b80003003200805380000000e00076013a00d6
:1049c80001c1b300a0ab2000014878007201370094
:1049d800585280000800e00011003a00a9ab2000fe
:1049e80081698000c0578000808f5000040031002a
:1049f80040c0b300a044980008407800f70537008d
:104a08005256800003002000b05680003445020052
:104a180000000000294090006b404000f5ff37007f
:104a28005256800003002000b05680003445020032
:104a380000000000a1ab2000214090006b40400026
:104a480058013700c0a620001000e00009003a0015
:104a5800705380000000e00006003a008053800098
:104a68000000e00003003a0001c1b300a0ab200041
:104a780001487800f0578000f2698000036a8000de
:104a88003445020000000000430137001058800040
:104a98000068a3005c003200585280000800e00063
:104aa80059003a0000c0eb0068ff07001000200022
:104ab80050528800a0c9200048e898000646020025
:104ac80000000000126a8000236a8000820f5000f4
:104ad800838f58004200350006460200000000009f
:104ae800fa6980000b6a800082698000c5578000df
:104af8008a0f50008b8f58000a0034000280520041
:104b08000000e90001002000d2578000e357800030
:104b18006c18020000000000606988007169880054
:104b280010003700028052000000e9000100200058
:104b3800d2578000e35780006c1802000000000084
:104b48000004be00064602000000000000005500f8
:104b580081805d00080440008984480068698800f5
:104b6800796988006a6980007b69800061568000e5
:104b780090568000008650006164b8000801be00ad
:104b88000a00be00781b020000000000506988007f
:104b98000000e0000b0032000801be000a00be0061
:104ba80078180200000000000000e8004052880069
:104bb8006101b8000a00be00781802000000000079
:104bc8000c0037000801be000a00be007818020079
:104bd80000000000405288003c5288000600370060
:104be800c057800081698000010050004052880051
:104bf800d057800030528800a1ab2000214090009f
:104c08000040e800a04098000646020000000000ae
:104c1800126a8000236a8000820f5000838f580038
:104c2800e6003500585280000800e000e3003a0032
:104c3800a9c9200049e890000004e00004003a00f7
:104c480010c0b300c0ec980040c0b3001f0037008c
:104c5800d0450200000000000004e0000800320017
:104c680008407800ee45020000000000a1ab2000db
:104c78002140900000c0e800a04098005eff370087
:104c880049e89000e14f4000cc003a00a1ab200079
:104c9800214090000040e800a04098004056800065
:104ca800e30f500008003200e20f50000700320006
:104cb800e10f500004003200e40f500002003200ff
:104cc800e50f5000bd003a0020c0b300dffe07002a
:104cd80049ff3700105880000068a300a700320081
:104ce800585280000800e000a4003a0000c0eb0021
:104cf800d6fe07001000200050528800a0c92000ee
:104d080048e898000646020000000000126a800089
:104d1800236a8000820f5000838f580043003500bb
:104d28000646020000000000fa6980000b6a800055
:104d380082698000c55780008a0f50008b8f580009
:104d48000a003400028052000000e900010020003f
:104d5800d2578000e35780006c1802000000000062
:104d6800606988007169880010003700028052006d
:104d78000000e90001002000d2578000e3578000be
:104d88006c180200000000000004be000646020085
:104d9800000000000000550081805d00080440000c
:104da8008984480068698800796988006a69800090
:104db8007b69800061568000905680000086500014
:104dc8006164b8000801be000a00be00781b02003a
:104dd80000000000506988000000e0000c0032006c
:104de8000801be000a00be0078180200000000009a
:104df8000000e800405288006101b8000a00be00c7
:104e08007818020000000000305288005b0037006c
:104e18000801be000a00be00781802000000000069
:104e2800405288003c52880054003700c057800028
:104e3800816980000100500040528800d1578000ed
:104e4800315288004d003700c0a620001000e00055
:104e580006003a00705380000000e00003003a00aa
:104e6800885380000800e0000400320011c1b3003c
:104e7800a0ab20000148780050003700a9ab200003
:104e8800e0ab2000507090000004e0000600320003
:104e9800a0568000d2698000e36980003445020092
:104ea800000000000f00370090c0b300d1fe3700ab
:104eb800a9ab200000c0eb0064fe0700a2c92000d7
:104ec8000044eb0048e99800b15780000100e00079
:104ed800070032000100d100306b880010c0b30019
:104ee80040499800294090000040e800c1fe370082
:104ef8002940900000c0e800a044980001407800d4
:104f0800b6043700a0c9200040489000e14f400097
:104f18002a003a00b1c0b300a0ab2000214098009d
:104f280026003700b05680006011b80034450200f2
:104f380000000000806980000000e80080698800a7
:104f4800a1ab2000214090000040e800a04098005c
:104f5800d0450200000000000004e0001700320005
:104f68000040eb00ee45020000000000a1ab20006d
:104f780021409000694050000a003700d0450200e7
:104f8800000000000004e0000c0032000040eb00cc
:104f9800ee45020000000000a1ab20002140900077
:104fa8000040e800a040980004003700a0c0b3000b
:104fb8008049780002407800880437000040eb0000
:104fc80086043700e14f51008c04320002c0e9002a
:104fd800e14f500083043e00a2ab20002240900025
:104fe8000080fb0001002000fa0f5000e08f5800fd
:104ff80076043e00006001001c00370025003700e1
:1050080066043700260037003b0037003f003700b2
:105018004f00370052003700890137008c013700f4
:105028007a02370087023700c60237005b04370070
:105038005a043700ce023700010337001d0337003a
:10504800aa03370002043700540437001d04370050
:105058003204370039043700450437004f0437005d
:1050680000003700100020005b043700726a8000df
:10507800426988000004eb001869880038698800d4
:1050880000c0eb00f1fd0700a0c9200048e8980027
:1050980029003700b05680006011b80002033700bd
:1050a80052528000a1c0b3000200e00020043a0080
:1050b800c0a620001000e000890232007053800072
:1050c8000000e00086023200805380000000e0000b
:1050d80083023200a9ab200041698000a0c0b30060
:1050e8000100e0000a0432000100e900406988007c
:1050f80040c0b30043023700406a80008040eb00a4
:10510800a2430200000000002b043700c0a62000c4
:105118001000e0002f043a00705380000000e00007
:105128002c043a00885380000800e00029043a0063
:10513800c446020000000000a1ab200021409000fe
:105148000040e800a04098000800780022043700da
:10515800406a8000f2698000036a8000d20237004a
:10516800064602000000000090bf9f00a1bf9f00fc
:10517800f0698000016a80001fba9700afba9700f3
:10518800800f5200818f5a000200340090bf9f00a8
:10519800a1bf9f00105880000068a300c90032001a
:1051a800585280000800e000c6003a0000c0eb003a
:1051b800a6fd07001000200050528800a0c920005a
:1051c80048e89800186a8000296a80001fb897008c
:1051d800afb89700880f5000898f58000b003d002a
:1051e800726a80008200e90040698000810f5000e7
:1051f80006003a0022528800c157800011528800e8
:10520800d257800002528800ae003700e0ab200081
:105218004070900044698000e24f50003e003a0020
:1052280024528800706a80000000e900800f520054
:105238003d0032002d0031000400e0002d00320056
:10524800e20f520038003e00c5578000f869800020
:10525800096a80008a6a80009b6a8000e20f520017
:1052680012003a000000eb00205288006128b800c4
:10527800d2578000e35780006c180200000000003d
:105288001fba9700afba97000401540085815c00eb
:1052980000004100818049000000440081804c00ea
:1052a8000000450081804d00610037000000eb00e0
:1052b800205288006128b800d2578000e357800048
:1052c8006c180200000000001fba9700afba9700e0
:1052d8000401540085815c00000041008180490080
:1052e8000a0154008b815c00490037000400e0008b
:1052f80051003a00886a8000996a8000c55780008a
:105308001fb89700afb89700800f5400818f5c00da
:105318004200340035003700e20f52001300360017
:105328000400e90020528800c057800001002000d6
:10533800d2578000e35780006c180200000000007c
:10534800f2698000036a80001fba9700afba97001d
:105358000401510085815900000041008180490005
:105368000000440081804c0031003700e20f5200f9
:1053780013003a000000eb0020528800c05780005c
:1053880001002000d2578000e35780006c1802000b
:1053980000000000f2698000036a80001fba9700cd
:1053a800afba9700040151008581590000004100ff
:1053b80081804900826a8000936a80001400370067
:1053c8000400e0001c003a0024528800886a80002b
:1053d800996a8000c55780001fb89700afb897003a
:1053e800880f5000898f58000c003c006128b800d5
:1053f800d2578000e35780006c18020000000000bc
:105408001fba9700afba97000401540085815c0069
:105418000000410081804900050037006128b8007c
:10542800d2578000e35780006c180200000000008b
:10543800f0688800016988006c568000f868800070
:1054480009698000f1578000b0042000808f500067
:1054580002003e0090568000000656006165b800c4
:105468000a01be000800be00781b02000000000010
:10547800e06888000000e0000c0032000a01be006d
:105488000800be0078180200000000000000e800d4
:10549800105288006101b8000800be0078180200a8
:1054a8000000000000528800060037000a01be0014
:1054b8000800be00781802000000000010528800a2
:1054c8000c528800306980000000e00028003a0093
:1054d800106a8000216a80001fb99700afb9970051
:1054e800800f5100818f59002100350051528000f2
:1054f8000100e0001e003a00a2c9200042e8900026
:105508000004e00007003a0010c0b30040e998002a
:1055180040c0b300cdfc07001000200010698800cf
:1055280023003700e14f400021003a00100020001e
:10553800306988001169880040568000e30f5000e8
:1055480008003200e20f500007003200e10f50005f
:1055580004003200e40f500002003200e50f500052
:1055680013003a0020c0b300b8fc07001000370051
:10557800406980000000e0000d003a00806a800069
:10558800916a80001fba9700afba9700800f520047
:10559800818f5a0006003500585280000800e0004c
:1055a80003003a0000c0eb00a8fc07001869880057
:1055b800d0450200000000000004e00005033200ae
:1055c8000040eb00ee450200000000005052800051
:1055d8000000e00016003a00c0a620001000e0001d
:1055e80006003a00705380000000e00003003a0013
:1055f800805380000000e0000300320011c1b300b6
:10560800a0ab200001487800a9ab200041698000c8
:105618000100e000030032000100e9004069880051
:10562800b50237002940900063404000b8023700b7
:10563800a1ab20002140900063404000e102370008
:10564800406a8000e2ff2f00f3ff2f009601370029
:105658000646020000000000f0b79f0081bf9f00cf
:10566800f0698000016a80007fb197008fb99700c8
:10567800800f5100818f5900030034006022b80068
:10568800f4b79f0085bf9f00105880000068a300f2
:105698009f003200585280000800e0009c003a0049
:1056a80000c0eb0069fc0700100020005052880081
:1056b800a0c9200048e89800e0ab200040709000a6
:1056c80044698000e24f500053003a002452880099
:1056d800706a80000000e900800f52003400310039
:1056e8000400e00034003200e20f52000b003600e4
:1056f800c057800001002000d2578000e357800087
:105708006c180200000000007fb197008fb9970065
:10571800000041008180490048003700c5578000db
:105728008a6a80009b6a8000e20f520013003a00e8
:1057380028528800f8698000096a80006128b8004a
:10574800d2578000e35780006c1802000000000068
:105758007fb297008fba97000000420081804a000c
:105768000000440081804c000a0454008b845c00d3
:105778000000440081804c00400037002852880017
:105788006128b800d2578000e35780006c180200e7
:10579800000000007fb197008fb99700000041001a
:1057a800818049000000450081804d0033003700aa
:1057b8000400e00033003a00886a8000996a80009b
:1057c800c55780007fb097008fb89700880f5000aa
:1057d800898f58000a0034006128b800d257800029
:1057e800e35780006c180200000000007fb29700a9
:1057f8008fba97000801520089815a001d003700ae
:105808006128b800d2578000e35780006c18020066
:105818000000000019003700e10f52000a003600ae
:1058280024528800c057800001002000d257800011
:10583800e35780006c18020000000000126a800024
:10584800236a80000b003700e10f52000d003a0078
:1058580028528800c057800001002000d2578000dd
:10586800e35780006c18020000000000826a800084
:10587800936a80000000410081804900f068880038
:10588800016988006c568000f8688000096980000a
:10589800f1578000b0042000808f500002003e00c5
:1058a80090568000000656006165b8000a01be00e7
:1058b8000800be00781b020000000000e0688800b5
:1058c8000000e0000c0032000a01be000800be0023
:1058d80078180200000000000000e800105288005c
:1058e8006101b8000800be0078180200000000003e
:1058f80000528800060037000a01be000800be00fa
:105908007818020000000000105288000c5288002d
:1059180011698000e18f500016003a00a0c92000ec
:1059280040e89000e14f400012003a0050528000d9
:105938000000e0000f003a00316988001069880013
:1059480040568000e30f500008003200e20f50007c
:1059580007003200e10f500004003200e40f50004d
:1059680002003200e50f500002003a0020c0b300e8
:10597800b6fb0700406980000000e0000f003a0015
:10598800806a8000916a80007fb197008fb9970084
:10599800800f5100818f590008003c005852800048
:1059a8000800e00005003a0000c0eb00a7fb070074
:1059b80018698800a0c9200048e89800d04502006e
:1059c800000000000004e000020232000040eb008a
:1059d800ee45020000000000525280000200e00084
:1059e800f5013a00a9ab2000416980000100e00000
:1059f8000e0032000100e90040698800294090004b
:105a080063405000a044980079003700a9ab2000fb
:105a1800b05680006011b800344502000000000054
:105a2800515280000100e00003003a002940900034
:105a38000040e800b601370029409000644040006b
:105a4800af01370011698000e18f500014003a005f
:105a5800a0c9200040e89000e14f400010003a0043
:105a6800316988000000eb0010698800405680000a
:105a7800e30f500008003200e20f50000700320028
:105a8800e10f500004003200e40f50000200320021
:105a9800e50f500002003a0020c0b3006bfb07007e
:105aa800d0450200000000000004e000c9013200f7
:105ab8000040eb00ee45020000000000c0a62000f8
:105ac8001000e00006003200705380000000e00083
:105ad80003003200805380000000e00002003a001a
:105ae80001c1b30064013700a9ab2000d057800082
:105af800e1578000e00f5000e08f58000b003200a3
:105b08000004eb00186988004869880000c0eb00b1
:105b18004efb0700a0c9200048e89800d868880014
:105b280029409000644040006401370052568000cc
:105b380003002000b0568000344502000000000039
:105b48006d013700d0450200000000000004e000ad
:105b5800a00132000040eb00ee450200000000000a
:105b6800a1ab2000214090006e4040009501370015
:105b7800585280000800e00028003a00416980007f
:105b8800c0578000808f50001b003100c0a6200045
:105b98001000e0000b003a00705380000000e000a5
:105ba80008003a00805380000000e00005003a0039
:105bb80001c1b300a0ab20000148780020002000fc
:105bc80086013700326a800003002000b05680004a
:105bd80034450200000000000001eb002269880043
:105be800a1ab2000214090000040e800a0409800b0
:105bf8000200780078013700525680000300200028
:105c0800b05680003445020000000000a1ab20001f
:105c1800214090006a4040004afd370052568000fb
:105c280003002000b0568000344502000000000048
:105c3800a1ab2000214090006a404000610137007c
:105c4800c0a620001000e0000d003a00705380004c
:105c58000000e0000a003a00805380000000e000e5
:105c680007003a00206980000000e00004003a00c4
:105c78001000200020698800c446020000000000cf
:105c8800d0450200000000000004e000510132008d
:105c98000040eb00ee45020000000000b269800001
:105ca80003002000f0578000344502000000000087
:105cb8004101370006460200000000000005be0052
:105cc800b069800001002000800f5500818f5d00c1
:105cd800010034000005be00105880000068a300d1
:105ce80053003200585280000800e00050003a008b
:105cf80000c0eb00d5fa07001000200050528800c1
:105d0800a0c9200048e898002852880006460200ea
:105d180000000000326a800003002000820f50005b
:105d2800838f580036003500d06880000000e000fe
:105d380033003a00c05780004269800002005000da
:105d48000000e90001002000d2578000e3578000de
:105d58006c18020000000000b269800003002000f7
:105d68000a0151008b8159000005410081854900d5
:105d7800fa6888000b6988006c568000f15780002b
:105d8800b0042000808f500002003e009056800032
:105d9800000656006164b8000801be000a00be0093
:105da800781b020000000000e06888000000e000a6
:105db8000c0032000801be000a00be00781802007c
:105dc800000000000000e800105288006101b800df
:105dd8000a00be0078180200000000000052880087
:105de8000f0037000801be000a00be007818020044
:105df80000000000105288000c528800080037008c
:105e08000000eb00d0688800c0578000416980001e
:105e18000100500010528800d357800003528800b8
:105e2800a1ab2000214090000040e800a04098006d
:105e38000646020000000000326a800003002000cd
:105e4800820f5000838f5800e200350058528000be
:105e58000800e000df003a00a9c9200049e89000e6
:105e68000004e00005003a0010c0b300c0ec980040
:105e780040c0b30075fa0700b3fc3700d0450200f4
:105e8800000000000004e00007003200084078002d
:105e9800ee45020000000000a1ab20002140900068
:105ea80000c0e800a7fc370049e89000e14f400037
:105eb800c8003a0040568000e30f50000800320046
:105ec800e20f500007003200e10f500004003200da
:105ed800e40f500002003200e50f5000b6003a000f
:105ee80020c0b30059fa0700b30037000646020085
:105ef800000000000005be00b0698000010020001d
:105f0800800f5500818f5d00010034000005be0040
:105f1800105880000068a300a0003200585280008a
:105f28000800e0009d003a0000c0eb0047fa0700b7
:105f38001000200050528800a0c9200048e89800ae
:105f4800285288000646020000000000326a8000dd
:105f580003002000c557800044698000820f50006c
:105f6800838f580031003500048052000000e9009a
:105f780001002000d2578000e35780006c1802000f
:105f880000000000b2698000030020000a015100ef
:105f98008b8159000005410081854900fa68880015
:105fa8000b6988006c568000f1578000b00420000f
:105fb800808f500002003e00905680000006560078
:105fc8006164b8000801be000a00be00781b020028
:105fd80000000000e06888000000e0000c003200cb
:105fe8000801be000a00be00781802000000000088
:105ff8000000e800105288006101b8000a00be00e5
:106008007818020000000000005288000b003700da
:106018000801be000a00be00781802000000000057
:10602800105288000c528800040037000480520087
:1060380010528800d457800004528800a1ab200079
:10604800214090000040e800a0409800530037002d
:10605800c0a620001000e00006003a00705380003f
:106068000000e00003003a00885380000800e000c8
:106078000400320011c1b300a0ab20000148780031
:1060880054003700a9ab2000e0ab2000507090000e
:106098000004e00008003200a0568000d2698000a9
:1060a800e3698000344502000000000029409000a8
:1060b8000040e8000100370050c1b300a044980038
:1060c80021fc3700a9ab200000c0eb00dff9070076
:1060d800a2c920000040eb0040e99800b1578000b9
:1060e8000100e000080032000100d100306b880098
:1060f80010c0b30040499800294090000040e800d3
:10610800a0449800330037002940900000c0e80000
:10611800a0449800010078002f003700a0c9200093
:1061280040489000e14f40002a003a0071c1b30096
:10613800a0ab20002140980026003700b056800010
:106148006011b8003445020000000000406980007a
:106158000000e80040698800105880000068a3002b
:106168001500320010002000d068880012003700a7
:10617800d0450200000000000004e00015003200d5
:106188000040eb00ee45020000000000a1ab20003b
:1061980021409000694050000a003700d0450200b5
:1061a800000000000004e0000a0032000040eb009c
:1061b800ee45020000000000a1ab20002140900045
:1061c8000040e800a040980002003700a0c0b300db
:1061d800004978000000eb000080fb000080fb0015
:1061e80009003700e64f510006003200e54f510024
:1061f80004003200e14f410002003200200020007c
:1062080001003700100020004f0678004f05be003f
:106218004f04be000080fa0000000600881f7800c6
:1062280080d32000104478000804e0000300320006
:10623800e14f540046003a0020003700c0a6200075
:106248001000e00042003200705380000000e000bf
:106258003f003200805380000000e0003c00320024
:106268000646020000000000e00f5000e08f5800d2
:1062780004003400064602000000000008417800cf
:1062880005003700064602000000000008417800bb
:1062980060001000e080180003192000830f5000f0
:1062a800e08f58000100340022c0b30011c0b300d1
:1062b80080d320000148780026003700c0a62000bf
:1062c8001000e00022003a00705380000000e00057
:1062d8001f003a00885380000800e0001c003a00c4
:1062e8000646020000000000e00f5000e08f580052
:1062f80007003400064602000000000002322000b9
:10630800820f5000e08f58000b003400080037005f
:10631800064602000000000060001000e08018003f
:1063280003322000830f5000e08f58000200340031
:1063380012c0b30003003700c4460200000000008a
:106348000841780080d320000048eb0001003700a6
:106358000041eb000280fb004f04780000000600bb
:10636800e3a5200093407800e1cf500012003200ee
:1063780003003900e2cf500043003a001f00370005
:10638800a1c920000040eb0080509800c070980020
:10639800d2c2bf000018a3003b003a00d2c2bf001f
:1063a8000008a30038003a0010c0b30080509800dd
:1063b8008049780034003700d2c2bf000018a3001b
:1063c80003003a00d2c2bf000008a3000200320056
:1063d8008049eb002c003700a2c920000250900031
:1063e800e14f400028003a0020c0b30080497800ff
:1063f80041e19800c4e2a90023003700a1c92000a8
:1064080041e09000e14f400004003a0041709000e4
:10641800e24f500001003200c4e2a800d2c2bf001f
:106428000018a30003003a00d2c2bf006141600017
:1064380003003200e0a520000048eb000f00370001
:10644800a1c92000d3c2bf000008a3000d003a0074
:10645800417090000004e00003003a0010c0b3004f
:10646800c070980008003700e14f400006003a006d
:1064780031c0b300e0a5200001487800c4e2a800bc
:1064880001003700c2709800e0a520001080fb00d2
:10649800000006000060fe0040a7a90083e0a800f5
:1064a800040204000000000000000600889fbe00ef
:1064b8008a1f7800a0ab200010407800f44f5000ed
:1064c80009003a00e0528000e10f50000f033a0043
:1064d8000060fe0040a7a90083e0a80004020400b1
:1064e80000000000090337000080fb0001002000c5
:1064f800f30f5000e08f580004033e0000600100d5
:10650800130037002700370034003700cd0037006c
:10651800ea003700c601370081023700c40237009d
:10652800cf023700e1023700e0023700df02370010
:10653800de023700dd023700dc023700db023700fd
:10654800da023700d9023700d8023700d7023700fd
:1065580010002000505e88000004eb0048568800b8
:1065680000c0eb00b9f8070000c0eb00c0f8070056
:10657800d402a90058528800a8528800985288006e
:1065880078528800a0c9200040689000e14f400080
:10659800de023a00d402a800a0ab20001048e800b0
:1065a800da023700105880000018a300d702320022
:1065b800d0460200000000008c47020000000000e6
:1065c80021c0b300a0ab20000148780011c0b3007f
:1065d800a0c9200041509800cc023700a9ab200088
:1065e80029409000e44f50005c00320008003e0053
:1065f800e14f50002b0032000e003900e24f5000ee
:1066080032003200e34f500083003a003700370071
:10661800e64f5000610032005b003900e74f500040
:106628007300320011c0b300e84f50007b00320005
:1066380079003700f05780000000e00006003200c3
:10664800605680000000e0000300320050568000d1
:106658000000e00004003a00a1c0b300a0ab200095
:10666800014878006c00370000c0eb0077f807009d
:1066780040568000e50f500002003a0000c0eb00d1
:106688007bf807000004eb00a86988002645020093
:10669800000000007ff80700c44602000000000068
:1066a8004e003700a06980000000e800a06988005b
:1066b800e50f500002003c0020c0b3005500370031
:1066c800c0c0b300804c780053003700a269800036
:1066d800802520000091b900cf91de00e001200064
:1066e800344502000000000048003700d045020091
:1066f800000000000004e000470032000040eb000a
:10670800ee45020000000000c0a620001000e000d6
:1067180009003200705380000000e00006003200db
:10672800805380000000e000030032002940900000
:1067380000c0e9003700370011c0b300e0012000b5
:10674800a243020000000000a1ab200021409000fd
:106758000040e800a04098002f003700c0a62000a5
:106768001000e0002c003200705380000000e000b0
:1067780029003200805380000000e000260032002b
:1067880050c0b300230037008040eb00e001200038
:10679800a2430200000000001c003700c0a6200031
:1067a8001000e0001c003a00705380000000e00078
:1067b80019003a00885380000800e00016003a00eb
:1067c800c44602000000000052568000030020006a
:1067d800e00120003445020000000000294090003c
:1067e8000040e800a0449800884078000b0037007b
:1067f800d0450200000000000004e000060032005e
:106808000040eb00ee450200000000002940900027
:106818000040e800a04498008040eb000104e0003c
:1068280024003a00a0c9200040509000e14f4000e9
:1068380036023a00c1c0b300a0ab2000014878007e
:106848003202370000c0eb0000f807004056800015
:10685800e50f500002003a0000c0eb0004f8070002
:1068680090528000e10f500007003a000000eb0052
:10687800a05288009052880070528800a1c9200058
:1068880080f09800c0f0980040568000e50f500056
:1068980001003200d402a900d04502000000000027
:1068a8000004e000190232000040eb00ee4502004f
:1068b8000000000041c0b300dfff3700264502009a
:1068c8000000000071538000c0a620001000e00006
:1068d800070032000100e0000c0032008053800005
:1068e80011c0b3000000e00006003a0007003700be
:1068f8000100e00005003a00815380000100e0003b
:1069080002003a0080d320000148780000c0eb0064
:10691800cef70700e9ab200040568000e50f500095
:1069280002003a0000c0eb00d1f707009152800046
:106938000100e00006003a00a15288007152880068
:10694800a0c9200001f0980041f09800d402a900e5
:10695800105880007804600051c0b300b6ff3a00b8
:106968000028a300e901320060528000e10f5000c6
:106978004a003a00497090000004e00018003a000c
:10698800585288006256800003002000f26988008f
:10699800036a88008056800000005100e08059009a
:1069a800d0698800e16988003052800000015100f8
:1069b800e0815900126a8800236a880040528000ea
:1069c800c05788009056800001002000d4c0b30052
:1069d800800f5100818f59002d0035008402370047
:1069e800e24f500002003200e34f500024003a000a
:1069f80058528800625680006110b800f06988001b
:106a0800016a880020528000706a88001052800055
:106a1800c0578800035280006118b800d05788001a
:106a2800e1578800f1578000b0042000808f5000a3
:106a380009003600b26988008056800000005100c5
:106a480001002000d0698800e16988000300510036
:106a5800306a880066023700b8578800d8749800f2
:106a68009256800003004100b06988006000b800b9
:106a7800d0698800e1698800326a88005c023700c2
:106a8800e14f40005a02320000000000feff3700cc
:106a9800a0ab2000044878009c0137007df7070070
:106aa800497090000004e00015003a00625680002a
:106ab80003002000f2698800036a8800805680007d
:106ac80000005100e0805900d0698800e169880021
:106ad800d0578000e15780000001510081815900a2
:106ae800126a8800236a88009056800001002000fe
:106af800800f5100818f59004b0035003e0237004e
:106b0800e14f500022003a00605680006103b8004f
:106b1800f6698800076a88006000b800c06a8800c3
:106b2800d16a8800805680000100200000015300cf
:106b380081815b00d2698800e3698800a06a8800c7
:106b4800b16a8800d4578000e557800004015300db
:106b580085815b00126a8800236a8800e46a8800dd
:106b6800f56a88009056800001002000800f5100cf
:106b7800818f59002c0035000000530081805b0094
:106b8800800f5200818f5a0027003c001a023700fc
:106b9800e24f500002003200e34f50001e003a005e
:106ba800625680006110b800f0698800016a8800a8
:106bb800506a8000706a8800d3578000f1578000bf
:106bc800b0042000808f500009003600b2698800a8
:106bd800805680000000510001002000d069880024
:106be800e169880003005100306a8800020237001a
:106bf800b8578800d8749800925680000300410066
:106c0800b06988006000b800d0698800e169880030
:106c1800326a8800f8013700e14f40000200320074
:106c280000000000feff3700d1c0b30002ff3700ac
:106c38009252800010588000f00060000e00320070
:106c4800e10f510007003a000000eb00a052880055
:106c58009052880070528800a1c9200080f09800e6
:106c6800c0f0980040568000e50f50000e0032003a
:106c7800d402a8000c003700e10f510006003a00ca
:106c8800a15288009152880071528800a0c9200042
:106c980001f0980041f0980040568000e50f500040
:106ca80001003200d402a9005cfd0700e14f50004a
:106cb8009e003200e24f5000a000320010588000c1
:106cc8000008a30094003a00800078000104b20094
:106cd80091003a000038a3000c013200a4ab200058
:106ce800244090000081fb0003002000e90f5100c0
:106cf800e08f59007d003e00040478000260010026
:106d08000b0037000f0037006c0037001000370009
:106d18002900370031003700510037005c00370088
:106d2800660037000000370010c0b3007400370059
:106d38008000eb009169880010c0b30020429800e1
:106d48006c003700f05780006011b8001d00370054
:106d5800c0a620001000e00006003200705380003a
:106d68000000e00003003200805380000000e000d3
:106d780002003a0001c1b30029003700a8ab200087
:106d880091698000c0578000808f50000200310058
:106d980040c0b3000f0037005256800003002000a7
:106da800f0578000344502000000000028409000a1
:106db8006540400007003700f0578000d257800038
:106dc800e35780003445020000000000284090008e
:106dd8000040e8002044980048003700d0450200f1
:106de800000000000004e000440032000040eb0016
:106df800ee45020000000000c0a620001000e000e0
:106e08000a003200705380000000e00007003200e2
:106e1800805380000000e0000400320011c1b3007c
:106e2800a0ab20000148780034003700e0ab200018
:106e380020c090000080fb0001002000421f2000bd
:106e4800030020006c18020000000000206b88007e
:106e580011c0b300a0c92000014898001e003700e7
:106e6800a0c9200000489000e14f400023003a00ec
:106e7800f05780006011b80034450200000000009f
:106e8800906980000000e8009069880012003700cf
:106e9800d0450200000000000004e00017003200a6
:106ea8000040eb00ee45020000000000a1ab20000e
:106eb80021409000644050000a003700d04502008d
:106ec800000000000004e0000c0032000040eb006d
:106ed800ee45020000000000a1ab20002140900018
:106ee8000040e800a040980004003700a0c0b300ac
:106ef800004a780001407800010037000040eb00ac
:106f08000080fb00e14f500080003a0010588000dc
:106f18000048a3007d003a0071c0b30046fe370068
:106f2800befc0700e14f500002003a00b1c0b300b8
:106f380041fe3700e24f500002003a00f1c0b300b2
:106f48003dfe3700105880006104600008003200e0
:106f580081c0b300a0ab20000148780010002000d9
:106f68000100200040518800515188006700370017
:106f78004004b2006500320059f6070080447800ea
:106f8800e14f500022003a0060528000e10f5000ab
:106f980001003a003ff60700e0ab2000b0c09000c7
:106fa8000104e00018003200aac920004ac190007c
:106fb8000204e00014003a0090528000e10f5000f3
:106fc80005003a00a8528800985288007852880034
:106fd80008f5980042f5980040568000e50f5000eb
:106fe80001003200d402a8000180fb00010020004b
:106ff800421f2000030020006c180200000000005f
:10700800106c880049c5980081c0b3000afe37009b
:10701800e24f50003d003a0060528000e10f5000fe
:1070280001003a001bf60700a1c0b30002fe3700ba
:10703800105880000008a30002003a000068a3006e
:10704800320032005256800003002000e001200088
:10705800344502000000000031c0b300f6fd3700df
:10706800105880001004b2002800320052568000e8
:1070780003002000e0012000344502000000000069
:1070880031c0b300a0ab20000148780000c0eb007d
:10709800eef5070040568000e50f50001b003a004f
:1070a80000c0eb00f2f50700180037002645020083
:1070b80000000000f7f5070000c0eb00e3f507004b
:1070c80040568000e50f500002003a0000c0eb0077
:1070d800e7f5070090528000e10f500007003a00e2
:1070e8000000eb00a052880090528800705288007f
:1070f800a1c9200080f09800c0f098004056800098
:10710800e50f500001003200d402a900a1c92000f7
:1071180041c09000e14f40000f003a000041eb00f1
:10712800c2c0980090528000e10f500006003a005b
:107138000000eb00a052880070528800905288002e
:1071480080f09800c2f0980040568000e50f50008b
:1071580001003200d402a90060a620001004e0005b
:10716800200032002645020000000000a1c92000ce
:1071780001e890000004e00003003a0010c0b300ea
:1071880080e8980017003700e14f400015003a00ea
:107198000041020000000000b45b800000b820003d
:1071a800104078007040600006003200825b80006a
:1071b800935b800004007800344502000000000062
:1071c8000500370040b720009040780004007800a0
:1071d800a2430200000000008040eb00a0c920008c
:1071e80001e8980030de2000104078006840600018
:1071f80007003a00a0c9200000609000e14f40005d
:1072080003003a0021c1b300a0ab20000148780078
:1072180053fc0700e34f500013003a0091528000de
:107228000100e00010003a00e0a5200001487800c5
:10723800a05280000000e800a05288007152880027
:1072480011c0b300a0c9200001f09800110020006f
:107258009152880040568000e50f5000010032002e
:10726800d402a80081528800a2c9200002f0900030
:10727800e14f40000f003a0090528000e10f5000ab
:107288000c003a0081528000e18f500009003a005a
:107298000040eb0000f1980041f198004056800052
:1072a800e50f500001003200d402a9000000eb00f5
:1072b800805288002afc0700e34f50001f003a0064
:1072c80091528000e18f50001c003a0082528000e9
:1072d8000200e00019003a00e0a52000024878000a
:1072e800a3c92000c2f19800a05280000000e80065
:1072f800a0528800e40f50000600360031c1b300e8
:10730800a0ab200001487800a25288009252880061
:107318002400370081f19800705280000000e800d6
:107328007052880040568000e50f5000010032007e
:10733800d402a800815288001a003700a3c920008f
:1073480043f09000e14f400016003a00925280004e
:10735800e10f510013003a00815280000100e00063
:1073680010003a00c1f1980070528000e30f5000fd
:107378000400360071528800a1528800915288009a
:107388000800370082f198000000e8007052880079
:1073980040568000e50f500001003200d402a800da
:1073a80082528800a1ab20001104e00007003200df
:1073b800105880000078a3000400320010c0b30009
:1073c80080487800e0a520000048eb00a2ab200030
:1073d8001240780061ab2000914f50000800320045
:1073e800804878000040eb002041980004003700f6
:1073f80064c0b300a6fd370061c0b3000efd3700be
:0c7408004f0578004f04be000000060095
:020000040000fa
:10741400889fbe008a9fbe000000e00001003d007e
:107424000000ea00cf80de005200200003002000ac
:107434004e180200000000000004be00820c200070
:10744400030020006c180200000000007054880043
:107454008154880002552f00030020000800be005c
:107464006c180200000000008100d1000080d300ed
:107474001055880021558800125a8000cf91de00f3
:107484006c1802000000000002242400f300200015
:1074940078180200000000000005be00f0548800c7
:1074a40001558800b0598000c15980009818020025
:1074b400000000000001be00205488003154880000
:1074c4006c180200000000000004be00d0548800c4
:1074d400e15488000a01be000a00be006c180200d4
:1074e40000000000b0548800c15488000801400026
:1074f40089814800040033000200be00ce18020057
:10750400000000000b003700610061000100200052
:107514008301d1000281d3000200700083807000d7
:10752400ce180200000000000001be00261902006f
:1075340000000000e019020000000000981802009a
:107544000000000090548800a1548800725a800002
:10755400835a80006c180200000000003055880037
:107564004155880002712200030020006c180200bb
:1075740000000000925a8000047122000491b900b6
:1075840078180200000000005055880061558800fa
:10759400983e2000090020000801be006c1802007b
:1075a400000000000271220003002000781802008d
:1075b400000000005054880061548800923e20006e
:1075c400820f5000e08f58000200360058548800a3
:1075d40069548800505480004f05be004f04be001b
:1075e40000000600a4dc2000026080006611b900df
:1075f40020bc20001080fb0002004000000040007e
:10760400e0017a004298de00605988001060800032
:107614006600b90032bc20001281fb000001410069
:1076240002014100c419dd0062007a00808141003a
:107634007359880000000600889fbe008a9fbe0020
:1076440019608000d95b88000b608000cb5b8800e8
:10765400d75f8000c55f8000b85f8000aa5f8000ac
:1076640061608000f01f2000808f500069003c00a2
:107674006160800034608000f00f2000808f500033
:107684003b003c0062608000b05d8000020141006c
:1076940043c22900628179000280b900cf89de00eb
:1076a400410bdd004f01de0002017300020378008c
:1076b4000000eb00d05b88000400e000050032000d
:1076c400506080000000e00002003c00820378006b
:1076d4006a00370044c2290030bf200011c0b30043
:1076e40090cf100010003a0061608000b25d80000d
:1076f400f00f2000010050000000400060007a00fc
:107704000091b9004118dd004f11de000201700044
:10771400cf99de00020278000000eb00c05b880015
:1077240086037800b000370061608000b25d80009d
:10773400f00f2000010050000000400060007a00bb
:107744000091b900c118dd004f11de000281700004
:10775400cf99de000202ea00953e200084824200b6
:1077640010002000c05b8800860378009f0037006b
:107774000400e00005003200506080000000e000da
:1077840002003c00080378001100370061608000ab
:10779400b25d8000f01f2000010050000000400096
:1077a40041c22900608078000091b900411bdd00ce
:1077b4004f11de0002017300cf99de000203ea00dc
:1077c400973e20008683430010002000d05b880091
:1077d40044c2290030bf200011c0b30090cf100074
:1077e40006003a0060608000b25d80000000400046
:1077f40004004000000096007300370062608000bf
:10780400b05d8000020141000401410002019600c4
:107814005c0037006160800034608000f02f20003d
:10782400808f500035003c0062608000b05d8000b5
:107834000201410043c229000301410002019400f6
:107844000280b900410bdd004f00de000000730030
:10785400cf88de000003ea00973e200086834300c1
:1078640010002000d05b88000400e0000500320016
:10787400506080000000e00002003c000a02780032
:107884005a00370044c2290030bf200011c0b300a1
:1078940090cf10000d003a0061608000b25d80005e
:1078a400f02f2000010050000000400060007a002a
:1078b4000091b9004118dd004f11de000201700093
:1078c400cf99de000202ea003400370061608000d4
:1078d400b25d8000f02f2000010050000000400045
:1078e40060007a000091b900c118dd004f11de007c
:1078f40002817000cf99de00380037000400e000f8
:1079040005003200506080000000e00002003c00ee
:10791400080378001000370061608000b25d8000c9
:10792400f03f2000010050000000400041c2290047
:10793400608078000091b900411bdd004f11de002a
:1079440002017300cf99de00020378000000eb000f
:10795400d05b88008203780044c2290030bf200035
:1079640011c0b30090cf100011003a006260800093
:10797400b05d80000201410003a02f00030141001b
:1079840062017a000280b9004109dd004f00de0087
:1079940000007100cf88de000002ea00953e20005e
:1079a4008482420010002000c05b88000f00370072
:1079b40060608000b25d80000000400001a02f00e4
:1079c4000100400060007a000091b9004118dd0018
:1079d4004f11de0002017000cf99de000202780030
:1079e4000000eb00c05b88008202780001b8200030
:1079f40002c4b300114061004c003a009140780089
:107a040062c0600049003200098144006101110034
:107a140002c1b900d05b800000004000610010008a
:107a240000b0b90000015100cf91de00e00f510019
:107a3400e08f590013003400c85d80000804e90099
:107a4400030033008381d1000281d300fbff3700a0
:107a5400e25d88000200e0000f0034000600e00050
:107a640002003a00f0ff2700e05d8800f05d80002e
:107a740031bc20008048780010002000305e88006f
:107a8400050037000000eb00e05d8800015e800027
:107a940030bc2000014878000b81450061011100d1
:107aa40002d1b900c05b80000000400061001000fa
:107ab40000a0b90000015100cf91de00e00f510099
:107ac400e08f590013003400c85d80000804e90009
:107ad400030033008381d1000281d300fbff370010
:107ae400d25d88000200e000150034000400e000cc
:107af40002003a00f0ff2700d05d8800f05d8000ae
:107b040021bc20008048780010002000205e8800fe
:107b14000b0037000000eb00d05d8800015e8000a0
:107b240020bc20000148780005003700005e80007a
:107b340031bc20008048780021bc200080487800b7
:107b440095a0a900d75f8800c55f8800b65f88004c
:107b5400a45f880000b8200001c4b30010c0600016
:107b640005003a00d25b800012608800c65b80008a
:107b7400066088009bfe070095a0a8004f05be0084
:107b84004f04be0000000600889fbe008a9fbe000e
:107b940001b8200002c4b3001140610011003a0092
:107ba4009140780061c0600003003a00c05e80002c
:107bb4004580de0009003700d05e8000017122009c
:107bc400810f500003003c00018f2d00810f5000f5
:107bd40002003d00315988003200370030598800d6
:107be400300037009140780061c0600003003a0023
:107bf400c45e80003459880002003700d05e8000e3
:107c0400305988003059800001e22400810f50006f
:107c140003003c00011e2b00810f500001003d00b9
:107c240031598800225f8000335f800055608000f6
:107c3400020078000200e00001003d000200ea00ba
:107c4400c280de00f4ff270005a0de00808f500014
:107c5400140034008580e900305980000000e00001
:107c64000700340001a0de0030598800cf80de0018
:107c7400800f5100818f59000a003400070037003b
:107c840001a0de000000ea0030598800cf80de0049
:107c9400800f5100818f590002003d00205f880051
:107ca400315f880002b820009280fb00c508de0026
:107cb400e1c060001280fb004400de00614060000f
:107cc40080cf5000070032001280fb00015c80006e
:107cd4000000d100700060000140a10080807000ad
:107ce400015c880012417800704061003800320065
:107cf4009500a900905d8000a15d8000525d800028
:107d0400635d80000004510081845900385d88005f
:107d1400495d88009500a800426080006110b900a8
:107d2400800f5400818f5c0015003d000200ea00c2
:107d3400cf80de00800f5400818f5c00100034007f
:107d4400a1b2200030ab20001004e0000300320098
:107d540010c0b30080487800010037008048eb0071
:107d64006000b800405f8800515f8800205f880091
:107d7400315f880010002000505e880057003700f3
:107d8400a0b220000048eb00305980000000e00061
:107d940002003d000000ea0030598800205f8000a6
:107da4000000e00001003d000000ea006105b900a8
:107db40042012000030020000a00be006c180200eb
:107dc40000000000800f5400818f5c00020034002a
:107dd400305980000700370060001000e080180070
:107de400800f5400818f5c0004003d0030598000f6
:107df4000000ea00cf80de0036003700a05e80007d
:107e0400cf80de0002002800430020006c1802002e
:107e1400000000000a01be004e180200000000002d
:107e24000001be00e00f5000e08f580002003a004d
:107e340012002000030020000800be006c1802009d
:107e440000000000cf89de00410add004f01de00a2
:107e540002017200425f8800535f8800305980003d
:107e64006102b900840f5100858f5900030034006a
:107e7400445f8800555f8800180037000000ea005e
:107e8400cf80de00800f5100818f59001100350032
:107e940061005100e080590004032000840f500069
:107ea400e08f580003003e00200320000100200062
:107eb400080037001203b0000380b0000003200064
:107ec400800f5100e08f590004003e00e0fc2f00b9
:107ed400f1ff2f00405f8800515f8800b85e80008a
:107ee400465f8000575f8000245f8000355f80001c
:107ef4000401530085815b00e00f5200e08f5a00bb
:107f0400100034006140b900800f5100818f590086
:107f140016003c00a85e80000800ea00cf80de0066
:107f2400800f5100818f590013003d006140b9005a
:107f34000000520081805a00205f8800315f880071
:107f44000f0037000800ea00cf80de00800f5100e8
:107f5400818f5900f5ff3500a05e8000cf80de00e0
:107f6400800f5100818f5900030034000400400049
:107f740085804800f0ff3700265f8800375f88005f
:107f8400526080000200e0001e003a00215f800081
:107f94000100e00001003d008100ea003159880041
:107fa40020b820000248780000b820001040780073
:107fb4007040600003003200820c20004038200032
:107fc4000800370030608000e10f500003003a00e1
:107fd400c2122000e02e200002003700c21c200044
:107fe40080252000808f500008003d00828f5000c3
:107ff4000600340011c0b30020b820000148780006
:108004000200370020b820000048eb00225f800007
:10801400335f8000f0ae2000010020000200400029
:1080240083804800e45d2100840f5000e08f5800f5
:1080340003003e00605b8000715b8000020037003b
:10804400405b8000515b8000205c8800315c8800cc
:108054009500a90011032000810f5100e08f590001
:108064001000340000402800717d21004e180200e9
:10807400000000000004be0011e1a80011c0b3001c
:1080840030bf20000148780000b8200002c4b300cb
:108094001040610029003200445a8000b45d880019
:1080a400260037000ab82000f0fc2f00f1ff2f0053
:1080b400800f5100818f59000e003d0000402800c0
:1080c400717d21004e180200000000000004be0073
:1080d40011e1a80030bf200000c8eb0001c4b300c8
:1080e4001ac0600015003200425a8000b25d880058
:1080f4001200370011e1a9000621ef000a21ef0068
:10810400005c80000080a100005c8800005c8000ae
:108114000090a100005c880004c4b3001a4062000f
:1081240018fc2800c90720000004e00003003a00fe
:10813400305a8000b05d88003ffd070000b8200081
:1081440001c4b30010c060000f003a00225f800039
:10815400335f8000005f8000115f8000800f51005a
:10816400818f590008003200025f8800135f880085
:1081740002007800a6fc07007055880011c0b30007
:1081840020ab20000148780030bf20001040780068
:108194000000fb00cf80de000801be006c18020066
:1081a4000000000042608000cf91de006c180200e5
:1081b400000000004609dd004a00de0000007100f6
:1081c400ca88de00e05e8800f15e8800241f20007b
:1081d400840f5000e08f580004003c00301f200042
:1081e40001002000e05e8800f15e88009500a80090
:1081f4004f05be004f04be00000006008000eb00e7
:10820400215388000153880020a6200001487800eb
:10821400f0a520000148780060a6200001487800fd
:1082240000000600881f78009500a900905d80007a
:10823400a15d8000705d8800815d88009500a800c4
:10824400685e8000e20f540070003a0011b820000c
:1082540011417800614061001000320091407800c3
:1082640062c0600006003a001141e20004003d00d3
:1082740060a6200013c0b30090cf110007003a009d
:108284000000eb00d05e88006000b800205f88002a
:10829400315f880010002000505e880000b8200084
:1082a40010407800684060000400320036fe070089
:1082b400005c80000030a100005c88002260800027
:1082c40050608000800f51000e003200e60f510014
:1082d4000b003e00205f8000315f8000f3ae200081
:1082e400830f5000e08f580006003c005260880065
:1082f400001020000280de0040608800010037008a
:108304002060880002b820009280fb00c608de00ce
:10831400e1c060001280fb004700de0080cf500007
:108324002c0032009500a90095a0a900d425ef00e7
:10833400d421ef00c1e1a900c1e5a900c221ef00e9
:10834400c225ef0011e1a9000621ef000a21ef0088
:1083540001c4b30012c0600009003200325a800028
:10836400b25d8800b4fc0700005c80000060a100de
:10837400005c8800005c80000070a1000a003700e7
:10838400435a8000b35d880046520200000000009a
:10839400a9fc0700005c80000060a000005c88006d
:1083a400005c80000070a000005c8800a000200039
:1083b40090028800c221ef0010002000102e8800d7
:1083c400c1e1a800c1e5a8009500a80095a0a800f7
:1083d40011e1a800615e8000505e8000808f500033
:1083e4003400320010002000605e8800505e880077
:1083f400a1c9200080e09800c1e1a900c1e5a9005d
:10840400d425ef00d421ef0016003700e10f54000b
:1084140018003a00505e8000e10f50002500320041
:10842400605e88008040eb00a0c9200001e0980055
:1084340081fc07006bfc07004652020000000000ac
:108444008000eb002153880001538800a000200025
:1084540090028800110e8800182e8800c1e1a8003f
:10846400c1e5a800005c80000030a000005c88002a
:10847400100037000800e0000e003a0086510200a8
:1084840000000000bc510200000000005651020030
:10849400000000006052020000000000465202008a
:1084a4000000000010002000605e8800505e88001c
:1084b40052ff07004f047800000006006059800056
:1084c400a02e880070598000a00e8800905e800065
:1084d400b00e8800c00e8800805e8000d00e880038
:1084e400b02e880000000600889fbe008a9fbe0050
:1084f4008c9fbe006101b9006108b90000065100fb
:1085040081865900ac588800bd588800aa5c800058
:10851400bb5c8000225b8000335b80000c00be00eb
:108524006c180200000000000004be00025b800022
:10853400135b8000d05c8000e15c80006c1802005a
:10854400000000000004540081845c004348dd0006
:108554004d44de0008047000cdccde000a04440063
:108564008b844c00c05c8000cf80de000005550089
:1085740081855d00225c8000335c80000a00be00bf
:108584006c180200000000004309dd004d00de000d
:1085940000007100cd88de000001540081815c0080
:1085a400a25c8800b35c8800745e80006120b9001e
:1085b400800f5100818f590005003c000402ea003d
:1085c4006120b900800f5100818f590002003d00e5
:1085d400c45c880001003700c25c880020b8200019
:1085e40011c0b30090cf100003003a00c05c8000bb
:1085f4004280de00c05c8800dc5c8800ed5c8800a2
:10860400c05c80004f06be004f05be004f04be0094
:1086140000000600889fbe008a9fbe008c9fbe009b
:108624006101b9006108b900000651008186590052
:108634008c5888009d5888004a5c80005b5c8000f0
:10864400225b8000335b80000c00be006c180200cb
:10865400000000000004be00025b8000135b800089
:10866400705c8000815c80006c18020000000000d7
:108674000004540081845c004348dd004d44de0066
:1086840008047000cdccde000a0444008b844c0046
:10869400605c8000cf80de000005550081855d00b0
:1086a400225c8000335c80000a00be006c1802006b
:1086b400000000004309dd004d00de0000007100f1
:1086c400cd88de000001540081815c00425c88009a
:1086d400535c8800745e80006120b900800f5100f3
:1086e400818f590005003c000402ea006120b900b2
:1086f400800f5100818f590002003d00645c8800a6
:1087040001003700625c880020b8200011c0b3006b
:1087140090cf100003003a00605c80004280de00cd
:10872400605c88007c5c88008d5c8800605c8000f4
:108734004f06be004f05be004f04be0000000600f9
:10874400881f78000001780001447800b05b88003d
:1087540040b7200001487800401f20000010b800f6
:10876400c2032000030020004e1802000000000095
:108774008000780032bf2000e14f540003003a002b
:108784008000ea0000c9eb000200370010c0b3000b
:1087940000497800d15e880020002000505e8800e7
:1087a400005c80000050a100005c88004f04780049
:1087b400000006000000eb00f058880011c0b30070
:1087c40000b2200001487800a0c920004178980038
:1087d40000000600881f78008001780001447800ba
:1087e400a0c9200040789000e14f40000f003a00fb
:1087f40001b2200010c0b300914f100008003a00ed
:10880400f058800000004100f0588800830f5000a9
:1088140003003900f358880030c0b3008048780062
:1088240011c0b300a0c9200041789800f05880001e
:10883400421f20000200b800c203200003002000f1
:108844004e18020000000000e14f540001003a00fd
:108854000000ea00d05e880020002000505e8800fe
:10886400005c80000050a100005c88004f04780088
:1088740000000600889fbe00800278000204be004b
:10888400e00f5100e08f590002003a0008e72f0082
:10889400f9ff2f0006b2200016417800e24f510084
:1088a4003d003200e34f510011003200e14f51000e
:1088b40048003a00a3c9200043789000e14f4000eb
:1088c40044003a00f058800000804000f0588800ce
:1088d400850f500004003900f558880030c0b300fb
:1088e400004b78003b003700c2799800390037000c
:1088f400f55888009500a900905d8000a15d800076
