:020000040000fa
:080000000004040000000000f0
:020000040000fa
:04000800d004000020
:020000040000fa
:04000c007605000075
:020000040000fa
:040010008c0500005b
:020000040000fa
:04001400a205000041
:020000040000fa
:04001800b805000027
:020000040000fa
:04001c00d00400000c
:020000040000fa
:04002000d004000008
:020000040000fa
:04002400d004000004
:020000040000fa
:04002800d004000000
:020000040000fa
:04002c00d0040000fc
:020000040000fa
:04003000d0040000f8
:020000040000fa
:04003400142c000088
:020000040000fa
:04003800d0040000f0
:020000040000fa
:04003c00d0040000ec
:020000040000fa
:04004000d0040000e8
:020000040000fa
:04004400d0040000e4
:020000040000fa
:04004800d0040000e0
:020000040000fa
:04004c00d0040000dc
:020000040000fa
:04005000d22c0000ae
:020000040000fa
:04005400d0040000d4
:020000040000fa
:04005800d0040000d0
:020000040000fa
:04005c00d0040000cc
:020000040000fa
:04006000d0040000c8
:020000040000fa
:04006400d0040000c4
:020000040000fa
:04006800d0040000c0
:020000040000fa
:04006c00d0040000bc
:020000040000fa
:04007000d0040000b8
:020000040000fa
:04007400d0040000b4
:020000040000fa
:04007800d0040000b0
:020000040000fa
:04007c00d0040000ac
:020000040000fa
:04008000d0040000a8
:020000040000fa
:04008400d0040000a4
:020000040000fa
:04008800d0040000a0
:020000040000fa
:04008c00d00400009c
:020000040000fa
:04009000d004000098
:020000040000fa
:04009400d004000094
:020000040000fa
:04009800d004000090
:020000040000fa
:04009c00d00400008c
:020000040000fa
:0400a0003a2c0000f6
:020000040000fa
:0400a400602c0000cc
:020000040000fa
:0400a800d004000080
:020000040000fa
:0400ac00f82c00002c
:020000040000fa
:0400b000d004000078
:020000040000fa
:0400b400d004000074
:020000040000fa
:0400b800d004000070
:020000040000fa
:0400bc00d00400006c
:020000040000fa
:0400c000d004000068
:020000040000fa
:0400c400d004000064
:020000040000fa
:0400c800d004000060
:020000040000fa
:0400cc00d00400005c
:020000040000fa
:0400d000d004000058
:020000040000fa
:0400d400d004000054
:020000040000fa
:0400d800d004000050
:020000040000fa
:0400dc00d00400004c
:020000040000fa
:0400e000d004000048
:020000040000fa
:0400e400d004000044
:020000040000fa
:0400e800d004000040
:020000040000fa
:0400ec00d00400003c
:020000040000fa
:0400f000d004000038
:020000040000fa
:0400f400d004000034
:020000040000fa
:0400f800d004000030
:020000040000fa
:0400fc00d00400002c
:020000040000fa
:04010000d004000027
:020000040000fa
:04010400d004000023
:020000040000fa
:04010800d00400001f
:020000040000fa
:04010c00d00400001b
:020000040000fa
:04011000d004000017
:020000040000fa
:04011400d004000013
:020000040000fa
:04011800d00400000f
:020000040000fa
:04011c00d00400000b
:020000040000fa
:04012000d004000007
:020000040000fa
:04012400d004000003
:020000040000fa
:04012800d0040000ff
:020000040000fa
:04012c00d0040000fb
:020000040000fa
:04013000d0040000f7
:020000040000fa
:04013400d0040000f3
:020000040000fa
:04013800d0040000ef
:020000040000fa
:04013c00d0040000eb
:020000040000fa
:04014000d0040000e7
:020000040000fa
:04014400d0040000e3
:020000040000fa
:04014800d0040000df
:020000040000fa
:04014c00d0040000db
:020000040000fa
:04015000d0040000d7
:020000040000fa
:04015400d0040000d3
:020000040000fa
:04015800d0040000cf
:020000040000fa
:04015c00d0040000cb
:020000040000fa
:04016000d0040000c7
:020000040000fa
:04016400d0040000c3
:020000040000fa
:04016800d0040000bf
:020000040000fa
:04016c00d0040000bb
:020000040000fa
:04017000862c0000d9
:020000040000fa
:04017400ac2c0000af
:020000040000fa
:04017800d0040000af
:020000040000fa
:04017c00442d00000e
:020000040000fa
:04018000d0040000a7
:020000040000fa
:04018400d0040000a3
:020000040000fa
:04018800d00400009f
:020000040000fa
:04018c00d00400009b
:020000040000fa
:04019000d004000097
:020000040000fa
:040194001e2d00001c
:020000040000fa
:04019800d00400008f
:020000040000fa
:04019c00d00400008b
:020000040000fa
:04020800d00400001e
:020000040000fa
:04020c00ce0500001b
:020000040000fa
:04021000e405000001
:020000040000fa
:04021400fa050000e7
:020000040000fa
:0402180010060000cc
:020000040000fa
:04021c00d00400000a
:020000040000fa
:04022000d004000006
:020000040000fa
:04022400d004000002
:020000040000fa
:04022800d0040000fe
:020000040000fa
:04022c00d0040000fa
:020000040000fa
:04023000d0040000f6
:020000040000fa
:04023400d0040000f2
:020000040000fa
:04023800d0040000ee
:020000040000fa
:04023c00d0040000ea
:020000040000fa
:04024000d0040000e6
:020000040000fa
:04024400d0040000e2
:020000040000fa
:04024800d0040000de
:020000040000fa
:04024c00d0040000da
:020000040000fa
:04025000d0040000d6
:020000040000fa
:04025400d0040000d2
:020000040000fa
:04025800d0040000ce
:020000040000fa
:04025c00d0040000ca
:020000040000fa
:04026000d0040000c6
:020000040000fa
:04026400d0040000c2
:020000040000fa
:04026800d0040000be
:020000040000fa
:04026c00d0040000ba
:020000040000fa
:04027000d0040000b6
:020000040000fa
:04027400d0040000b2
:020000040000fa
:04027800d0040000ae
:020000040000fa
:04027c00d0040000aa
:020000040000fa
:04028000d0040000a6
:020000040000fa
:04028400d0040000a2
:020000040000fa
:04028800d00400009e
:020000040000fa
:04028c00d00400009a
:020000040000fa
:04029000d004000096
:020000040000fa
:04029400d004000092
:020000040000fa
:040298005605000007
:020000040000fa
:04029c00d00400008a
:020000040000fa
:0402a000d004000086
:020000040000fa
:0402a400d004000082
:020000040000fa
:0402a800d00400007e
:020000040000fa
:0402ac00d00400007a
:020000040000fa
:0402b000d004000076
:020000040000fa
:0402b400d004000072
:020000040000fa
:0402b800d00400006e
:020000040000fa
:0402bc00d00400006a
:020000040000fa
:0402c000d004000066
:020000040000fa
:0402c400d004000062
:020000040000fa
:0402c800d00400005e
:020000040000fa
:0402cc00d00400005a
:020000040000fa
:0402d000d004000056
:020000040000fa
:0402d400d004000052
:020000040000fa
:0402d800d00400004e
:020000040000fa
:0402dc00d00400004a
:020000040000fa
:0402e000d004000046
:020000040000fa
:0402e400d004000042
:020000040000fa
:0402e800d00400003e
:020000040000fa
:0402ec00d00400003a
:020000040000fa
:0402f000d004000036
:020000040000fa
:0402f400d004000032
:020000040000fa
:0402f800d00400002e
:020000040000fa
:0402fc00d00400002a
:020000040000fa
:04030000d004000025
:020000040000fa
:04030400d004000021
:020000040000fa
:04030800d00400001d
:020000040000fa
:04030c00d004000019
:020000040000fa
:04031000d004000015
:020000040000fa
:04031400d004000011
:020000040000fa
:04031800d00400000d
:020000040000fa
:04031c00d004000009
:020000040000fa
:04032000d004000005
:020000040000fa
:04032400d004000001
:020000040000fa
:04032800d0040000fd
:020000040000fa
:04032c00d0040000f9
:020000040000fa
:04033000d0040000f5
:020000040000fa
:04033400d0040000f1
:020000040000fa
:04033800d0040000ed
:020000040000fa
:04033c00d0040000e9
:020000040000fa
:04034000d0040000e5
:020000040000fa
:04034400d0040000e1
:020000040000fa
:04034800d0040000dd
:020000040000fa
:04034c00d0040000d9
:020000040000fa
:04035000d0040000d5
:020000040000fa
:04035400d0040000d1
:020000040000fa
:04035800d0040000cd
:020000040000fa
:04035c00d0040000c9
:020000040000fa
:04036000d0040000c5
:020000040000fa
:04036400d0040000c1
:020000040000fa
:04036800d0040000bd
:020000040000fa
:04036c00d0040000b9
:020000040000fa
:04037000180500006c
:020000040000fa
:04037400e0040000a1
:020000040000fa
:04037800d0040000ad
:020000040000fa
:04037c00d0040000a9
:020000040000fa
:04038000d0040000a5
:020000040000fa
:04038400d0040000a1
:020000040000fa
:04038800d00400009d
:020000040000fa
:04038c00d004000099
:020000040000fa
:04039000d004000095
:020000040000fa
:04039400d004000091
:020000040000fa
:04039800d00400008d
:020000040000fa
:04039c00d004000089
:020000040000fa
:10080000afd020004efe20000e0188000000000046
:10081000000020000000e000020032000001200083
:100820002002880014000700080107000000e00013
:1008300003003a00a04c2200010020000200370013
:100840000000200001002000810f70000100320034
:1008500014000700000020000000e0000200320049
:100860000000020000000000002302000000000061
:100870000040da000000fe004440a900802c200067
:100880000000e0000300320000002000a00188000a
:100890004440a800000006008a1f78008b1f7800e3
:1008a0000000060091018800800478000000eb0041
:1008b0001a003700e284440032a0b4009905ba005f
:1008c000e284440032a0b4009906ba00e2844400f5
:1008d00032a0b4000006eb00476fde00fd07b20057
:1008e000636ce10003003a00ebff07000000eb003f
:1008f0000a003700606ce10004003a00005deb0084
:100900008b05e900fdff3e00040037006168e1004f
:10091000010032000086eb000b00070019c7ba0087
:100920001905ba000e04e00003003a000a00e000d6
:10093000e0ff3a0000000600fe07b2009e018800ba
:100940008a047800f5ff3700395dba008b05e900ad
:100950000c003200295dba008b05e9000800320066
:100960000c00e00003003a00e284440032a0b4002e
:10097000f5ff370019ddba008b05e900faff3a00f0
:100980008904e800e184440032a0b40000000600bd
:100990003818040000000000a21b04000000000042
:1009a0003400f800881f780008002000a8018800a3
:1009b0004f0478000000000000000000ffff370037
:1009c000809fbe00829fbe009e60ab00150032007b
:1009d0008e60ab00130032008e60a900b1ad200024
:1009e000114078000101e900924f500007003a00e1
:1009f000dda2a9009e60a900f05680000050a10071
:100a00000010a100f0568800060037000081fb00ae
:100a100083a52000634179000281fb00a2128800b7
:100a20008048e8004f01be004f00be0000400600b5
:100a30003600f800809fbe00829fbe00849fbe00eb
:100a4000869fbe009e40ab00120032008e40ab007d
:100a5000100032008e40a9005222ab000400320088
:100a60005222a900b05280000040a000b05288007d
:100a70005242ab0004003200b0128000b05280003d
:100a80000040a000b0528800b0128000a01c0200fc
:100a9000000000004f03be004f02be004f01be0029
:100aa0004f00be003600f9000040060000a0fe0026
:100ab0003400f800881f780008002000a801880092
:100ac0004f0478009780ab00050032000000210041
:100ad0008600b600020032008780a900fc2fec00df
:100ae0003400f9000080fe00004006008020a900cc
:100af00000000000000000000000000000000000f6
:100b000000000000000000000000000000000000e5
:100b10000000fe00004006008060a9000000000008
:100b200000000000000000000000000000000000c5
:100b30000000000000000000000000000000fe00b7
:100b4000004006008040a9000000000000000000f6
:100b50000000000000000000000000000000000095
:100b600000000000000000000000fe000040060041
:100b70008080a900000000000000000000000000cc
:100b80000000000000000000000000000000000065
:100b9000000000000000fe00004006008020a900c8
:100ba0000000000000000000000000000000000045
:100bb0000000000000000000000000000000000035
:100bc0000000fe00004006008060a9000000000058
:100bd0000000000000000000000000000000000015
:100be0000000000000000000000000000000fe0007
:100bf000004006008040a900000000000000000046
:100c000000000000000000000000000000000000e4
:100c100000000000000000000000fe000040060090
:100c20008080a9000000000000000000000000001b
:100c300000000000000000000000000000000000b4
:100c4000000000000000fe0000400600000005005b
:020000040000fa
:100c500000000000c1c0000081c100004001000090
:100c600001c30000c00300008002000041c2000078
:100c700001c60000c00600008007000041c7000058
:100c800000050000c1c5000081c400004004000050
:100c900001cc0000c00c0000800d000041cd000020
:100ca000000f0000c1cf000081ce0000400e000008
:100cb000000a0000c1ca000081cb0000400b000008
:100cc00001c90000c00900008008000041c8000000
:100cd00001d80000c01800008019000041d90000b0
:100ce000001b0000c1db000081da0000401a000098
:100cf000001e0000c1de000081df0000401f000078
:100d000001dd0000c01d0000801c000041dc00006f
:100d100000140000c1d4000081d50000401500007f
:100d200001d70000c01700008016000041d6000067
:100d300001d20000c01200008013000041d3000067
:100d400000110000c1d1000081d00000401000005f
:100d500001f00000c03000008031000041f10000cf
:100d600000330000c1f3000081f2000040320000b7
:100d700000360000c1f6000081f700004037000097
:100d800001f50000c03500008034000041f400008f
:100d9000003c0000c1fc000081fd0000403d00005f
:100da00001ff0000c03f0000803e000041fe000047
:100db00001fa0000c03a0000803b000041fb000047
:100dc00000390000c1f9000081f80000403800003f
:100dd00000280000c1e8000081e90000402900006f
:100de00001eb0000c02b0000802a000041ea000057
:100df00001ee0000c02e0000802f000041ef000037
:100e0000002d0000c1ed000081ec0000402c00002e
:100e100001e40000c02400008025000041e500003e
:100e200000270000c1e7000081e600004026000026
:100e300000220000c1e2000081e300004023000026
:100e400001e10000c02100008020000041e000001e
:100e500001a00000c06000008061000041a100000e
:100e600000630000c1a3000081a2000040620000f6
:100e700000660000c1a6000081a7000040670000d6
:100e800001a50000c06500008064000041a40000ce
:100e9000006c0000c1ac000081ad0000406d00009e
:100ea00001af0000c06f0000806e000041ae000086
:100eb00001aa0000c06a0000806b000041ab000086
:100ec00000690000c1a9000081a80000406800007e
:100ed00000780000c1b8000081b90000407900002e
:100ee00001bb0000c07b0000807a000041ba000016
:100ef00001be0000c07e0000807f000041bf0000f6
:100f0000007d0000c1bd000081bc0000407c0000ed
:100f100001b40000c07400008075000041b50000fd
:100f200000770000c1b7000081b6000040760000e5
:100f300000720000c1b2000081b3000040730000e5
:100f400001b10000c07100008070000041b00000dd
:100f500000500000c190000081910000405100004d
:100f600001930000c0530000805200004192000035
:100f700001960000c0560000805700004197000015
:100f800000550000c195000081940000405400000d
:100f9000019c0000c05c0000805d0000419d0000dd
:100fa000005f0000c19f0000819e0000405e0000c5
:100fb000005a0000c19a0000819b0000405b0000c5
:100fc00001990000c05900008058000041980000bd
:100fd00001880000c04800008049000041890000ed
:100fe000004b0000c18b0000818a0000404a0000d5
:100ff000004e0000c18e0000818f0000404f0000b5
:10100000018d0000c04d0000804c0000418c0000ac
:1010100000440000c18400008185000040450000bc
:1010200001870000c04700008046000041860000a4
:1010300001820000c04200008043000041830000a4
:1010400000410000c181000081800000404000009c
:101050001201000010010000000000000008000064
:10106000d80400009be8000002000000010200001c
:101070000001000009020000290000000101000039
:1010800000c000003209000004000000000200005f
:101090000300000000000000092100001101000011
:1010a00000010000221d0000000700000581000073
:1010b00003400000000100000705000001030000dc
:1010c00040000000010000000403000009040000cb
:1010d000340300004d0000006900000063000000c0
:1010e000720000006f000000630000006800000054
:1010f00069000000700000002000000054000000a3
:101100006500000063000000680000006e00000041
:101110006f0000006c0000006f000000670000001e
:101120007900000020000000490000006e0000006f
:10113000630000002e0000002603000055000000a0
:1011400053000000420000002000000048000000a2
:1011500049000000440000002000000042000000a0
:101160006f0000006f000000740000006c000000c1
:101170006f000000610000006400000065000000d6
:101180007200000006000000ff09000001a100003d
:101190000119000001290000401500000026000090
:1011a000ff0000007508000095400000810200006b
:1011b000190100002940000091020000c000000059
:1011c0003a88000064880000688800009c8800005d
:1011d000821400002a5d00006f9a000025010000c3
:020000040000fa
:1011e0000800fa0068805700818e28000700090077
:1011f0003158780002ae2000e98057000040eb0033
:10120000d2417800d1cf510005003a000040e800fb
:10121000e84f5000faff3a0010c0b3000100370059
:101220000040eb000080fa00000006005628ef00a6
:101230005828ef0010002000b07f880091cab3004a
:10124000e2852000014978006ae8b7006468ef0091
:1012500066a8ef0068a8ef006568ef0000000600d0
:101260002ca3ef001c17020000000000efff370066
:101270007208e20002003a000071220090438800e8
:101280007228ed00402480000000060000000600e7
:101290000000060000000600000006002e230400e7
:1012a0000000000000000600d1c1b30010c0b30070
:1012b000521602000000000003c4b30002b6200072
:1012c0008040eb0010c0b300aa160200000000002e
:1012d000b0428800000006009444a8007028ef0087
:1012e0009444a90000000600881f780020c0b300c5
:1012f00078e8b700b8c0b3000600370008407800af
:101300009c2402000000000078170200000000008a
:101310000844e8005ec8bf00884f5000f7ff310066
:101320006a48e2000c003a003260ef008080eb0077
:101330000000eb000108bb000c00fc005005200081
:10134000303b8800a00a2000303b880061e7a800fd
:10135000000000000000000061c7a9006468ef0001
:101360004f047800000006000040eb0091cb200005
:10137000804878008100e80080487800f0c0b30021
:10138000481c02000000000020c0b30064e8b70061
:1013900000000600881f7800304380004143800031
:1013a000e10f4000e08f48000e003a0012ae20002e
:1013b0001281fb0023ae20009381fb00c819dd00e1
:1013c0000300710032ae20001281fb0043ae20000a
:1013d0009381fb00c819dd00830071003043880051
:1013e0004143880012ae20001281fb0023ae200092
:1013f0009381fb00c819dd000300710032ae2000ac
:101400001281fb0043ae20009381fb00c819dd0070
:101410008300710032438000434380000044eb00ae
:10142000800f5100818f59002e003a0028003700ac
:1014300052862000124178008280fb0003ba20000f
:10144000818240000883fb008403200000005200da
:1014500024002000110009000400d800000043000f
:10146000640040000000400001ae200061427800ae
:101470000482fb0000804000104090004800dd0026
:101480000000720080b17a000241e800548620001a
:10149000024a7800344380004543800061004200e6
:1014a000e0804a003043880041438800fc4f5100ef
:1014b00006003a007c005000e0805800c201200085
:1014c00060240200000000006568ef000844e800a6
:1014d00050ae20001080fb008000d100814f5400ee
:1014e000d3ff39006468ef004f0478000000060065
:1014f000889fbe008a1f78008c9fbe00304380000a
:1015000041438000e10f4000e08f48000e003a00a8
:1015100012ae20001281fb0023ae20009381fb005d
:10152000c819dd000300710032ae20001281fb00fb
:1015300043ae20009381fb00c819dd0083007100d9
:1015400030438800414388003c4380004d43800085
:1015500014ae20001482fb0025ae20009582fb0013
:10156000c82add000501720034ae20001482fb00a1
:1015700045ae20009582fb00c82add00850172007f
:10158000820f5600838f5e0047003a0094cb200004
:101590009482fb000401e8009281fb00c819dd0081
:1015a000838172008301e800034a7800c819de00d5
:1015b00003497800680152000c497800c861de00d8
:1015c0000201e800034978000201e8000d497800b3
:1015d000c869de000201e8000349780052ae20002d
:1015e0001282fb00d2cb2000044978008401d10094
:1015f000598620009944780082032000040251009b
:1016000022002000110009000202d8000002780028
:101610000001eb0012003700e90241008582420020
:10162000c6ca200085024300e403420087834300ca
:1016300008ae200068c57b000a85fb0087034400d4
:10164000174390004833dd0006037500864a780092
:101650004833de00964298000201e8000402e800e8
:1016600082cf5100ecff3e000382fb008002eb00c2
:101670000400460085804e003043880041438800c6
:1016800089c14100518620008348780000c1b30021
:10169000481c02000000000020c0b30064e8b7004e
:1016a0006568ef00010037006468ef004f06be0078
:1016b0004f0578004f04be000000060065c8bf005b
:1016c0000081fb000080fb008000eb0034438000c1
:1016d000454380000000520081805a0003ba200078
:1016e00060240200000000006568ef0066a8ef00bb
:1016f00068a8ef006468ef000000060066a8ef002d
:1017000068a8ef0092cb20009281fb000200e80065
:101710009080fb00c808dd00818071008100e80036
:1017200001497800c808de000148780012ae2000a8
:101730001281fb0023ae20009381fb00c819dd005d
:101740000300710032ae20001281fb0043ae200086
:101750009381fb00c819dd008300710012cb2000cb
:1017600000497800c801de000201e8000349780062
:101770000201e80001497800c808de000200e80024
:101780000148780050ae20009080fb006a004100c4
:10179000014878000103d10082032000810051003c
:1017a00022002000110009008200d8008000fd0006
:1017b0000000eb0012003700690140000201410007
:1017c000c3ca20000281410064824000040242003a
:1017d00005ae2000e5437a008783fb0004824200c7
:1017e00094419000c819dd0083817300034978009b
:1017f000c819de00134198000000e8008100e800ed
:10180000804f5300ecff3e00a0c0b300481c020014
:101810000000000020c0b30064e8b700000006002c
:10182000889fbe00c04280000000e000020032003d
:101830001000e0005500350071c0b30000b2200078
:101840000148780012ae20001281fb0023ae200078
:101850009381fb00c819dd000300710032ae200047
:101860001281fb0043ae20009381fb00c819dd000c
:101870008300710012b2200000497800c801de0028
:101880000201e800034978000201e80001497800fc
:10189000c808de000200e8000148780051ae2000d0
:1018a0000280e800114878000044eb002a0037006d
:1018b0000881fb008001eb0014ae20001482fb00c5
:1018c00025ae20009582fb00c82add0005007200cd
:1018d00034ae20001482fb0045ae20009582fb0050
:1018e000c82add00850072000200400083804800a5
:1018f0004024020000000000d0428800e14288003d
:101900000881fb001980fb000000d100800151001c
:101910000302b00001b220008381410083814000b6
:10192000d4428000844978004822de009441980027
:101930005d68ef00000051001002b00000004000a0
:1019400000804000e142800001487800c808de00c5
:101950001140980008c4e80059ae20001980fb002f
:101960000000d100804f5400d1ff390003c4b30000
:1019700002b2200011c0b30001407800aa16020094
:1019800000000000c04288006468ef004f04be0001
:101990000000060071c0b30000b2200001487800ca
:1019a00012ae20001281fb0023ae20009381fb00c9
:1019b000c819dd000300710032ae20001281fb0067
:1019c00043ae20009381fb00c819dd008300710045
:1019d000f20f20000202600013b220008449780058
:1019e000c801de0025b22000834a78000281600031
:1019f0008502e800824a78004808de008500e80099
:101a00008048780051ae2000914078008582e8003f
:101a1000814a7800d5cb2000814a7800ec805200c2
:101a200084487800eb805200834878008100e80009
:101a3000824878008100e80080487800d0c0b30078
:101a4000481c02000000000020c0b30064e8b7009a
:101a50000000060040c022000100200040240200d7
:101a600000000000f2ff2f00f30f2000820f500053
:101a7000838f5800070032009424ef000080eb00b1
:101a8000000000000000e900fdff3a00f022020023
:101a90000000000000000600e0c0b300481c020087
:101aa0000000000010c0b30041bf20008048780053
:101ab00091cf20008048780020c0b30064e8b700d0
:101ac0000000060020c0b30064e8b700f00f20005b
:101ad000c04d8800d04d8800e04d880010002000e7
:101ae0003041880081bf20008048780090c0b3005a
:101af000481c04000000000020c0b30064e8b700e8
:101b000020002000f04d880090002000004e88004a
:101b100010002000104e88004041880000000600a0
:101b20006468ef0040c02200010020007e22020015
:101b300000000000e14f500005003a0052c0b30021
:101b4000219b20008248780081be200080487800d8
:101b500000000600881f7800418620009140780030
:101b60000104e0001c003a00b04280000000e000e8
:101b7000020032001000e0008a013500f0b52000bc
:101b8000f1ad20000204200000014100d06878007f
:101b9000820f5000fdff3a0003c4b30002b62000dc
:101ba0008040eb0010c0b300aa1602000000000045
:101bb000b042880010c0b30064e8b700f0b1200064
:101bc00001042000808040000068eb00810f50007d
:101bd000fdff3a0073013700e1cf500012013a00d7
:101be00000ae200010407800e34f5000a200320009
:101bf00003003e00e24f5000ab003a0011003700f6
:101c0000e94f500003003200ea4f5000a6003a00ae
:101c10000300370080cf20000048eb00a20037000f
:101c20006ffd07000004e0009f00320090ae20002e
:101c30001040780081cf20008048780024e8b70069
:101c40009900370066fd07000004e00096003200ae
:101c500090ae20001040780081cf200080487800ae
:101c6000e14f400008003a0000802a00004388004d
:101c7000200020001043880001c02200614388003a
:101c80006e28ef001c00370024e8b700b1c2b30093
:101c9000814f500007003a00020022006243880092
:101ca0006e28ef0000f02a00004388006228ef0051
:101cb00011003700c1c2b300814f500008003a0044
:101cc00001c02200614388006e28ef0002802a00d4
:101cd00002438800220020001243880006003700db
:101ce00000702100604388006e28ef00018025000d
:101cf000014388006228ef0022c0b30000b2200038
:101d00000248780081c3b3000000e8000148780071
:101d10000000e8000248780013c0b3000000e800ab
:101d200003487800604380007143800044b2200083
:101d3000004a7800c802de000402e800054a780084
:101d40000402e800014a7800c80ade000402e80044
:101d5000054a7800044380001543800000005200cb
:101d600081805a0084b22000004a7800c802de0058
:101d70000402e800054a78000402e800014a7800fd
:101d8000c808de000400e800014878008480e8000c
:101d900080c8eb006ac8bf002a003a008348780078
:101da0008100e800804878008100e80080487800e1
:101db0008100e800804878008100e80080487800d1
:101dc0008100e8008048780043c0b3008100e8004b
:101dd000834878008100e800804878008100e800ae
:101de0008048780033c0b3008100e8008348780061
:101df00083cfb3008100e80083487800b3cab30002
:101e00008100e800834878008100e800824878007b
:101e10008100e8008048780082c0b3008100e800bb
:101e2000824878008100e800804878008100e8005e
:101e3000804878008100e800804878000100e800d0
:101e400000c8eb00c04280000000e0000200320049
:101e50001000e0001400350003c4b30002b22000fb
:101e600011c0b30001407800aa1602000000000073
:101e7000c04288000b00370010ae20001004e000c4
:101e800004003a00a0cab3005ee8b7006a68ef0039
:101e90000400370090cab3005ee8b700a2862000b5
:101ea000014978006468ef0000ae200081cf200077
:101eb00000c1eb00914f11001b003a001080fb00a5
:101ec0008000eb0064005000e0805800e60f5000f6
:101ed000e08f5800b3003e000060010008003700aa
:101ee000090037000a0037000b0037000c003700ec
:101ef000ac00370000003700fffe0700a9003700e4
:101f0000f9fc0700a700370022fd0700a5003700f5
:101f1000eafd0700a300370041fe0700a1003700db
:101f2000ccfe07009f0037001080fb008000eb0014
:101f300064005000e0805800e60f5000e08f580029
:101f400098003e00006001000a0037002e003700b4
:101f50002f00370030003700310037000100370014
:101f600002003700eefe07008e003700d5fe0700a6
:101f70008c00370024c8bf00b1c2b300814f5000ad
:101f800007003a00d0ca20000048eb00ebc0500028
:101f90000000e800014878000000e8000f0037006a
:101fa000d2ca20008200e800c3c2b300834f5000b1
:101fb00006003a000049eb00804878000100e80084
:101fc0000048eb000180e800060037000049eb0004
:101fd00070c1b30080487800f0ca20000048eb00d0
:101fe0000000e8000048eb0001c1b30065004000bc
:101ff00001487800f7c040000000e8000148780080
:10200000d9fc07006700370039fd0700650037007d
:10201000bafd0700630037005efe0700610037006d
:102020009dfe07005f003700c0ca20009040780086
:10203000f1cf500005003a00f09c20001004e000b1
:10204000190032006468ef002b003700f4cf500015
:1020500015003a00f89c20001804e000120032003d
:1020600002b22000c04d800000497800d14d8000b0
:102070000200e80001487800e14d80000280e8009d
:102080000148780003c4b30011c0b30001407800d8
:10209000aa16020000000000c04288006468ef0039
:1020a000004ceb003d00370040418000e10f500044
:1020b00013003a002828ef0002b22000f14d800002
:1020c00001497800034e80008200e80083487800d0
:1020d000134e80008280e8008348780003c4b30078
:1020e00080407800aa16020000000000c04288006c
:1020f0006468ef00f09c20000048eb0027003700e8
:10210000f3cf50001b003a00f09c20001004e000c8
:10211000180032000000eb00e400400002b2200092
:1021200081804000810041006902400004024200b9
:10213000c5ca200065437a000683fb000482420082
:1021400094419000c819dd00830173008348780032
:10215000c819de00934098000000e800fc0f500012
:10216000edff3a0003c4b30011c0b3000140780092
:10217000dcff3700a0cf200011c0b30090cf1000cb
:1021800006003a009424ef000080eb0000000000fd
:102190000000e900fdff3a000000fe007817020091
:1021a000000000004f04780000000600209b200083
:1021b00001c2b3000280200012417800814f51001b
:1021c00006003a0021c0b3000148780011c0b300f6
:1021d0000000e800014878000400370011c0b30097
:1021e00001487800309b20000048eb0000c8bf0089
:1021f000ff4f5000050036008824ab0003003a0072
:1022000054fe0700781702000000000000000600de
:10221000881f7800209b20001040e900e14f50000b
:1022200009003e0048032000184478000000200008
:1022300034e0b700781702000000000040032000df
:1022400008487800d9ff07004f0478000000060016
:1022500013c8bf00e24f500017003a0094a4ab002f
:10226000150032005040800081c0b30090cf1000b4
:1022700011003a0001c0230090806000004023005c
:10228000808f50000c003a00604080001000e00099
:102290000900350001c12000110098000000eb008a
:1022a00082c12000e25878000000e800e80f5000ea
:1022b000fbff3a000e0037001368ef0081c0b30047
:1022c00060408000014878006040800001c120002b
:1022d00011009800c1c8b300114098000040eb0005
:1022e000114080009040980011408000904098007c
:1022f00070ca20001004e0000a003d0063004000a6
:102300009080fb000000e8001080fb004800dd002a
:1023100000807000010032000000010070ca20003f
:102320001074a1000000060020c1200011c0b300fd
:1023300090cf10000e003a000080e90010407800b5
:102340007f4060000a003a0020ca20001074a000fc
:1023500010c1200032c0b300904f110003003a00ba
:102360001000200030408800010037000628ef00f0
:1023700020c120001004e0002e003a000080e90097
:10238000104078007f406000e24f500029003a0082
:1023900040c1200090417800efc06100250032006c
:1023a00021ca20001174a0001004e00006003500ce
:1023b000104078006f4060000080fb00000040008b
:1023c000e180200005003700104078006f40600079
:1023d0000080fb00000040002180200061007800a8
:1023e00011c1200032c0b300914f110002003a0029
:1023f00041c8b3000b00370041c120009141780073
:102400006fc161000281fb0002014100a34a20006c
:10241000030141001210a1001104e00003003d007f
:1024200001c4b300114098000000060081ccb30045
:10243000114098000000060000c8b30001c1200050
:10244000914f100035003a0021ca200000ccb300a3
:102450008048780030c1200010407800e24f5000e2
:102460000c003200e34f50001b003200e14f5000df
:1024700029003a00808228008180e90080487800a5
:102480004800de008100e8008048780021c1b300e8
:102490001c00370020c120001080fb00000040001d
:1024a000018e28006100780001ca20008048780071
:1024b0004801de008100e800824878008180e80061
:1024c00020419000824878008100e8003040900070
:1024d000804878000000060020c120001080fb002a
:1024e00000004000218e28006100780001ca200011
:1024f000804878004801de008100e80082487800ca
:102500009080fb0030ca2000014878000000e800fd
:102510000048eb00000006008048eb0000000600c9
:1025200081c120008048eb000100e8000048eb007a
:1025300000c12000104078007f4160000281fb0054
:1025400020ca2000e10f51000b003200e20f5100c1
:102550000b0032000200e0001f003a001074a000df
:102560001104a00030408000e10f50001a003a0032
:102570001114a000180037001074a00016003700d6
:102580001074a00040c120001004e00006003500d7
:10259000104078006f4060000080fb0000004000a9
:1025a000e180200005003700104078006f40600097
:1025b0000080fb00000040002180200061007800c6
:1025c000104090000028a3000300320011c0b300a7
:1025d00080c120000148780020ca20001004e000db
:1025e0000a003d0081c120000081e9000149780016
:1025f000c808de000001e900014978001004a000cd
:1026000021c0b3000000e800014878000000060087
:1026100030ca20001080fb0041ca20009180fb00de
:10262000c808dd008100700080002000e78f5000a6
:102630000c003e00010078002181200091407800cc
:102640000104e00002003a0011c0b30003003700ab
:10265000e1cf500003003a0021c0b30022812000e6
:102660000149780011408000914190004801de004e
:1026700002c17100924098001140800080487800ab
:1026800033ca20001382fb008300e8001181fb00a5
:102690004811dd00020172000001510082497800fa
:1026a0004811de008248780081c12000a1408800e6
:1026b0008300e90091407800e1c060001e003a000c
:1026c0000d00370004ca20001481fb008401e800db
:1026d0009380fb00c808dd0081007100a2408000eb
:1026e00031597800a2408800014a7800c808de000d
:1026f000814978000000e9000000e000f1ff3a00a5
:102700000000060004ca20001481fb008401e800d8
:102710009380fb00c808dd0081007100a2408000aa
:1027200031597800a2408800014a7800c808de00cc
:10273000814978000000e9000000e000f1ff3a0064
:102740000000060094a4a90000c8b30071ca2000cc
:1027500022ca20001204e0001a0035001140600077
:102760000e00320020c0b30013e8b7001040800014
:102770000048eb0081ccb30010408000114098006d
:1027800082c0b30060408000024878006040800052
:1027900082c12000120098003900370081c0b300c8
:1027a00060408000014878006040800001c1200046
:1027b00011009800c1c8b30011409800e8c0500053
:1027c0002e003700914060003e003a0001c1200019
:1027d000114060002c003200e68040001180fb00b8
:1027e0008101e8009382fb00c82add0085027000a9
:1027f00032ca20001283fb000200e8001082fb00b6
:102800004822dd0004027300848f5200070031006b
:102810001182fb009380fb00c808dd00810072007c
:1028200001497800c808de000148780078ff0700f9
:1028300010c0b30013e8b70080c0b300614080004f
:10284000804878006340800002c120009201980017
:1028500001c8b3009141980053408000804978003e
:1028600050408000120098001140980081c1200063
:10287000104080001100980081ccb300104080000f
:10288000114098000000060021c0b30032812000f2
:1028900001497800114080008048780081ccb30065
:1028a000104080001140980082c0b300604080005a
:1028b000024878006040800082c120001200980029
:1028c0001140980000000600881f7800104080002a
:1028d000100478004e44de006144640000c8bf006c
:1028e000e84f500008003a0020c120001080fb0093
:1028f000b024880000c1b3009604e20001003a0051
:1029000040c0b30000e8b70013c8bf00e14f50005b
:1029100011003a0081c12000104080001100980091
:102920003bff07001040800021812000914078008b
:10293000e2cf500002003a0041c8b3000400370063
:1029400081ccb3000804e0000100320081c8b3006c
:1029500011409800010037003dfe07004f04780049
:102960000000060050408000104178000282fb0009
:1029700083ca20009382fb008300e8001180fb00e3
:102980004800dd0000807200800f52000200360017
:1029900000417800040037000400500080497800ae
:1029a0004800de00804878000000eb000c00370093
:1029b00054ca20009482fb008401e8009380fb004d
:1029c000c808dd008180720085c12000e5587800cc
:1029d000014a7800c808de00814978000000e8005c
:1029e000804f5100f2ff3e0080ca20001080fb00a3
:1029f00091ca20009180fb00c808dd0081007000b2
:102a0000604080000d00320081c0b30001487800b2
:102a10006040800081c1200011009800514080007a
:102a200011e8a30002003a0081ccb3000100370096
:102a300081c8b300114098000000060001c12000c9
:102a400011009800a0ca20009080fb000000e80060
:102a50001080fb004800dd000080700001003200a3
:102a60000000010070ca20001074a10000000600e0
:102a700013c8bf00e24f500001003a00b9ff370011
:102a8000f3fd370020ca20001074a0000868ef0092
:102a900020c1200010417800118020008248780079
:102aa0001004e00003003a0000c1b30000e8b700e2
:102ab0000000060000c2b30000e8b700540904009b
:102ac0000000000000c1200001c6b30010c060007b
:102ad0003a003a0010c120001080fb008000eb009b
:102ae000eb0f5000e08f580034003e000060010002
:102af0001400370014003700300037001200370090
:102b00002e003700060037000a0037002900370082
:102b10000a003700080037000c0037001d0037009e
:102b200020ca20001074a00080c0b30000e8b700e5
:102b30000000060040fe3700d2ff37001080200062
:102b40000600370076fe3700f7fd370040c1200051
:102b50009080fb00808020000080400001ca20009f
:102b6000804878004800de008100e8008048780056
:102b70000100e800904078000104a00013c0b300f9
:102b80000001e800034978000174a00001487800c2
:102b90000000060020ca20001074a00040c12000e0
:102ba0009080fb008080200022c12000927078007d
:102bb00000000600520902000000000000000600ac
:102bc000104080001000e00002003d008040eb005b
:102bd000114098001268ef001368ef0030ca20001f
:102be0000048eb000000e8000048eb000080e9002e
:102bf0000048eb00b3ff07004e0902000000000090
:102c0000d0fe370016c8bf000080fb0080007800af
:102c10000120a1000100e0000c003a00c00fb2004a
:102c200001c0200001004000504088006040880042
:102c300001c023009080600000402300808f50007e
:102c400001003a00deff370089ff3700e88f5000af
:102c500001003a001cff0700000006000080fb0096
:102c60008181fb000000400080814100c219dd002d
:102c700002c020000281410012f0a1000104e00026
:102c800002003a00e180200001003700218020008e
:102c90008230780000c020000300400010e0a00057
:102ca00000000600889fbe00004478000880fb00fa
:102cb000000040008184fb00a14a20008930780098
:102cc0000938a300030032008040eb000840780080
:102cd000e2ff07000928a3000300320011c0b3007f
:102ce00008407800ddff07004f04be00000006002a
:102cf0000004e0000b003a0081c0b3006040800097
:102d0000014878006040800001c120001100980057
:102d1000c1c8b30011409800e8c0500010408000c6
:102d20000a0037008180fb000080fb0000004000ab
:102d3000008040004200dd0001c020000080400013
:102d40001041900041c8b3008140710011409800cb
:102d5000000006000080fb000104e00003003200d8
:102d600000004000218020000200370000004000e9
:102d7000e180200061007800904090000164a20092
:102d8000114098001200980003487800904090008d
:102d90000144b200114098001041900081c8b30076
:102da0008140710011409800000006008180fb0006
:102db000120020008110dd000148780000000600ac
:102dc00048090200000000008284a90041c0b3004d
:102dd00000482000f5ff37008284a80041c0b300fe
:102de000a0482000f1ff0700460904000000000091
:102df000aa24ab000d00320050408000104190002a
:102e000001c8b300814f510007003a001140800013
:102e10001141900041c8b300814f510002003a00b7
:102e2000e8c0400011409800aa24a90071c0b30076
:102e3000a0482000ddff3700f00f2000702488003c
:102e400050248800f009200080248800b00f200062
:102e5000602488008804a80000c020004800de002c
:102e6000c02488009424a8009424a9009624ef008c
:102e70000000eb00c200dd0002c020008100410024
:102e80008008eb00b11078000000e800e40f50006b
:102e9000f8ff3a00d00020005025880003003700da
:102ea00031c0b300a0482000c0ff070050248000bc
:102eb00068006000faff3a0021ca200080487800cc
:102ec00070ca20000048eb000000e8000048eb005a
:102ed0000000e8000048eb0094a4a90040c02000d6
:102ee000104088000168ef000068ef000000060055
:102ef000881f78000048e2000b003a009424ef009d
:102f00008c24ef00010037009404a8009404ab0067
:102f1000fdff320010c0b30000e8b700a624ef00a8
:102f2000000120004025880000c8bf00e14f50008c
:102f300007003a00f00f2000502488008c24ef0096
:102f40008c04a8008c84a80020c0b30000e8b7005f
:102f50008084ab00030032008284ab0001003200a9
:102f600097ff07008824ab003f003a008a04ab00bb
:102f70000f0032008c04ab000d003200aeff0700e2
:102f800040c0b30000e8b70000c120001060880016
:102f900081c0b30000c02000014878000000e800b4
:102fa0009040780063c86000c1c8b30010c87000ca
:102fb0008a84ab00060032008c84ab00040032002f
:102fc00085ff070041c0b300a048200077ff07003d
:102fd0008a44ab00070032008c44ab00050032008d
:102fe0004a0902000000000021c0b300a0482000f0
:102ff0006eff07008ae4ab00030032008ce4ab00f4
:10300000010032007aff07008a24ab00060032007c
:103010008c24ab00040032004c09020000000000c8
:10302000f00f20007024880000c8bf00e34f50005c
:103030000d0036008c64ab000b00320048c0b300ba
:103040008a64ab00080032009024800016e8b700c4
:1030500031c0b300a048200054ff0700e9fe07007c
:103060000844e900f6ff3a004f047800000006002b
:103070000400fa00889fbe008a9fbe00000478000a
:1030800020c0b300004c780002c2b30002c0400070
:103090001044980030c0b300c0f79f008140e900a1
:1030a000e3cf400001003e0000000000c9ca20003c
:1030b00019417800ec80570008007800ee1f0200ec
:1030c000000000001980fb008000eb006900500048
:1030d000e0805800e70f5000e08f58006f013e007d
:1030e0000060010007003700bc0037006b013700ab
:1030f0006a013700240137006801370005003700f6
:103100005000370010002000d04188003c28ef001c
:103110006201370060658000c1c2b30042822000b6
:1031200012417800814f51001f003a004800de0034
:10313000ebca2000f90f20009b806400c808dd0066
:1031400001017000ec80570008007800ee1f0200bb
:1031500000000000626580004811de009b81640071
:10316000c819dd000300710002f02f0000016100aa
:103170008001eb004818dd004811de0002017000fc
:10318000c819de00ec80570008007800ee1f02002e
:1031900000000000726580004811de000281fb0023
:1031a0008001eb00160037004800de00ebca20006b
:1031b000f90f20009b806400c808dd000101700049
:1031c000ec80570008007800ee1f020000000000ad
:1031d000626580004811de009b816400c819dd0033
:1031e0000300710002f02f00000161008001eb007c
:1031f0004818dd004811de0002017000c819de0029
:10320000ec80570008007800ee1f0200000000006c
:10321000a06580004800de006acb2000f90f200086
:103220001a8164004811dd0002017000ec80570033
:1032300008007800ee1f0200000000001a81640000
:1032400012013700c06580004800de00aacb2000d4
:10325000f90f20001a8164004811dd00020170009e
:10326000ec80570008007800ee1f0200000000000c
:103270001a816400ec80570008007800ee1f0200fd
:103280000000000080658000c1c2b30042822000bf
:1032900012417800814f51001e003a004800de00c4
:1032a000e80555009b806400c808dd00010170003e
:1032b000ec80570008007800ee1f020000000000bc
:1032c000826580004811de009b816400c819dd0022
:1032d0000300710002f02f00000161008001eb008b
:1032e0004818dd004811de0002017000c819de0038
:1032f000ec80570008007800ee1f0200000000007c
:10330000926580004811de000281fb008001eb0025
:10331000150037004800de002bcb20009b806400a6
:10332000c808dd0001017000ec805700080078003b
:10333000ee1f020000000000826580004811de00e0
:103340009b816400c819dd000300710002f02f00aa
:10335000000161008001eb004818dd004811de002b
:1033600002017000c819de00ec80570008007800e8
:10337000ee1f020000000000d0cb200010417800ba
:10338000ec80570008007800ee1f020000000000eb
:103390008004eb00698544000a054500cbca200083
:1033a0006b017d00ec80570008007800ee1f0200e2
:1033b000000000006b017d004811de00ec8057002a
:1033c00008007800ee1f0200000000008904e800f9
:1033d000fc8f5400efff3a00b0003700c06580005a
:1033e0004800de00aacb2000f90f20001a816400fb
:1033f0004811dd0002017000ec80570008007800e1
:10340000ee1f0200000000001a816400ec805700eb
:1034100008007800ee1f02000000000080658000b8
:10342000c1c2b3004282200012417800814f510096
:103430001e003a004800de00e80555009b8064004d
:10344000c808dd0001017000ec805700080078001a
:10345000ee1f020000000000826580004811de00bf
:103460009b816400c819dd000300710002f02f0089
:10347000000161008001eb004818dd004811de000a
:1034800002017000c819de00ec80570008007800c7
:10349000ee1f020000000000926580004811de006f
:1034a0000281fb008001eb00150037004800de00c0
:1034b0002bcb20009b806400c808dd000101700058
:1034c000ec80570008007800ee1f020000000000aa
:1034d000826580004811de009b816400c819dd0010
:1034e0000300710002f02f00000161008001eb0079
:1034f0004818dd004811de0002017000c819de0026
:10350000ec80570008007800ee1f02000000000069
:10351000d0cb200010417800ec80570008007800e4
:10352000ee1f0200000000008044eb001000370096
:103530000985fb00690545000a054500cbca200046
:103540006b017d00ec80570008007800ee1f020040
:10355000000000006b017d004811de00ec80570088
:1035600008007800ee1f0200000000008944e80017
:10357000d0cb20001080fb000000d10080cf540091
:10358000ebff390045003700d0cb20001041780018
:10359000ec80570008007800ee1f020000000000d9
:1035a00080658000c1c2b3004282200012417800d1
:1035b000814f51001f003a004800de002bcb200055
:1035c000f90f20009b806400c808dd000101700035
:1035d000ec80570008007800ee1f02000000000099
:1035e000826580004811de009b816400c819dd00ff
:1035f0000300710002f02f00000161008001eb0068
:103600004818dd004811de0002017000c819de0014
:10361000ec80570008007800ee1f02000000000058
:10362000926580004811de000281fb008001eb0002
:10363000160037004800de002bcb2000f90f2000d9
:103640009b806400c808dd0001017000ec80570019
:1036500008007800ee1f0200000000008265800074
:103660004811de009b816400c819dd000300710071
:1036700002f02f00000161008001eb004818dd001e
:103680004811de0002017000c819de00ec8057000e
:1036900008007800ee1f0200000000004ff19700c4
:1036a0008280fb0052c2b30002c040002044980058
:1036b00065c04000204499000001eb00080078003c
:1036c0004a22020000000000804078004ff197007d
:1036d0000282fb00c801de004c00de000042b000a8
:1036e00000747a000240e8000081fb00efc1610035
:1036f0000342b000037479000040e8000081fb0041
:103700008181fb00c419de000342b000037479001c
:103710000040e8000081fb00efc060000142b00003
:10372000017479000040e8000080fb0031c0b30064
:10373000017478004f05be004f04be000080fa00ff
:10374000000006000200fa00b0409000c2ca20004b
:1037500001497800f2cf50002500320003003e00fe
:10376000f1cf500045003a000e003700f3cf500073
:1037700034003200f4cf500040003a00c0409000c6
:103780008180fb00c14d8800d04090008180fb000b
:10379000d14d8800604090000080fb00e04d880023
:1037a00036003700c0409000e1ff9f00504090007d
:1037b000f0ff9f00014178008280fb00c808dd0017
:1037c000b0658000f00fb20000807000b065880026
:1037d000ffb89700c808de0000f02f00c265800027
:1037e0000000610000807000c06588002300370081
:1037f00040429000e4ff9f00d0409000f1ff9f0006
:103800000481fb004811dd00b1658000f10fb200ba
:1038100081007100b16588007fb997004811de0012
:1038200001f02f00c365800081806100810071007c
:10383000c165880061cf200060409000804878001a
:103840000e0037008000eb0040419000e2ff9f0037
:1038500050429000f4ff9f00698140000201410046
:10386000c3ca20007fba9700843179008100e80044
:103870000080e800fc8f5000f3ff3a0011c0b30055
:10388000f09c2000014878000080fa00000006004b
:10389000c1ca200080487800e0ad20001004a000dc
:1038a000000006008040eb00014078001300370064
:1038b0008081fb00329d2000e34179000040e80058
:1038c000fbcf51000a003a000082fb00e44279007d
:1038d00004cdb30084c242000040e8000182fb0036
:1038e0000504e0000300320005717a000200370091
:1038f0000182fb00037279008140e80022a52000cc
:1039000092417800834f5000e9ff390083c04000a6
:1039100000c9500000000600810009000058eb00bb
:103920002008b1008040eb006140990041409900bf
:103930003140990021409900514099000000060053
:10394000889fbe008a9fbe000044780060a52000ca
:103950001040780070406000de003a0040a5200072
:103960001080fb008000eb00e50f5000e08f580056
:10397000d5003e000060010005003700160037004a
:10398000370037004f003700770037008e003700d0
:10399000e24f5400cf003a0031a5200011407800da
:1039a0000081fb00d3f72f008181410088717900ed
:1039b0000040e8008048780011c8b300814f5000f3
:1039c00003003600b05280000040a000b0528800d2
:1039d00011c0b3007900370031a5200011407800f4
:1039e0000081fb00d3f72f008181410088717900ad
:1039f0000040e8008048780011c8b300814f5000b3
:103a000003003600b05280000040a000b052880091
:103a100000ceb30000444400a0872000084878008e
:103a20008840e900e0c3b30080cf50000a003600b0
:103a3000b1c9b30001444400804f54000600360071
:103a4000b05280000040a000b0528800000000008a
:103a5000000000009f00370021c0b300570037006e
:103a600031a52000114078000081fb00d3f72f0022
:103a700081814100887179000040e8008048780029
:103a800011c8b300814f500003003600b0528000cf
:103a90000040a000b052880071cdb30081404400c6
:103aa00090c7b30080cf500087003e00b1cdb30077
:103ab00020a520000148440031c0b3000080e80088
:103ac0003f00370050a520001004e0000f00320036
:103ad00000c3b300804f54000900320000c0e8006a
:103ae000804f5400060032000040e800804f540030
:103af00003003200b05280000040a000b0528800a5
:103b000050a520000048eb0004003700fb4f540094
:103b100002003a0011c0b3000148780031a520002e
:103b2000114078000081fb00d3f72f008181410014
:103b3000887179000040e8008048780011c8b3001f
:103b4000814f500003003600b15280000140a000b8
:103b5000b152880021a52000914f50005d003a002d
:103b600041c0b3001500370031a520001140780096
:103b70000081fb00d3f72f0081814100887179001b
:103b80000040e8008048780011c8b300814f500021
:103b900003003600b15280000140a000b1528800fd
:103ba0000080fb0021a520009180fb00e480400004
:103bb000810f500047003a0051c0b30040a52000db
:103bc0000148780043003700e34f54003e003a00bc
:103bd0003aa520001a80fb00e4005000d9f72f001e
:103be0008a844400e9c07800cc08dd0063015000fd
:103bf000e94579008b85fb000b02b100c85ddd0053
:103c0000818575008000e900e9c078008180fb00b3
:103c10000102b1008b8570000080e90069407800e6
:103c20000080fb000002b1004400dd008b05700045
:103c30000a00e9009080fb000001eb000900780019
:103c40004a22020000000000808f55001e003a004a
:103c50001a4078008080fb0088f478000040e8007b
:103c6000004d780011c8b300814f500003003600aa
:103c7000b05280000040a000b052880020a5200073
:103c80009040780063c8500006ff0700a18720001d
:103c9000914078008180fb0024c8bf000080fb00b9
:103ca0004006b000808f500003003a00b052800000
:103cb0000030a000b052880060a5200010407800bd
:103cc0006840600003003a00b05280000040a0004d
:103cd000b052880060a5200010407800704060005d
:103ce00002003200009d20000bff07004f05be00c0
:103cf0004f04be0000000600881f780060a5200069
:103d000010407800e840600080bf200017003200bb
:103d10000048eb006c045000184078000004e000fc
:103d200003003a0010c0b300004c780020003700b8
:103d3000e14f40001e003a0041822000914078008f
:103d4000009d2000624e800002000100009d2000c6
:103d5000f1fe0700004ceb0030418000e10f500005
:103d600013003a002628ef000e00370080c0eb0059
:103d700090cf10000e003a000048eb00c0be2000bb
:103d80000048eb00009d2000e3fe0700304180006a
:103d9000e10f500006003a002628ef00f19c2000b9
:103da0008048780041c1b300c0ca200001487800b3
:103db0004f04780000000600889fbe00209b200072
:103dc00010407800e24f500009003a0008bf200080
:103dd000984f10001800320079cf2000e1c1b300e5
:103de000b0c0b30099cf100012003e000b003700a6
:103df000e54f500010003a0008bf200020c0b3007b
:103e0000984f10000c00320079cf2000e1c1b300c0
:103e100099cf100007003e00c0c0b300481c02004c
:103e200000000000994ce80010c0b300004c78007e
:103e300001003700004ceb00c0ca200010407800a1
:103e4000ee4f500012003a0048bf200080c0eb0047
:103e500098cf10000e003a0099cf200051c0b30057
:103e600099cf100006003e00481c02000000000030
:103e700010c0b300004c7800994ce80004003700f3
:103e8000004ceb0011c0b300a0cf20000148780027
:103e9000e0ad200011c2b30010c06000e14f50003f
:103ea0000d003a00f05680000000a100f056880096
:103eb00080a5200098fe07004182200091407800f4
:103ec00080a52000524e800002000100f0568000c4
:103ed0000010a000f05688004f04be00000006004d
:103ee000dd62a800d962a900dd82a900d982a800fc
:103ef000dda2a900d9a2a90010022000c0128800ea
:103f000080002000801288005222ef0051e2a800b9
:103f100053e2a90053a2a8005342a8008e40a90072
:103f20008e60a9009e40a800009d20007afe070038
:103f300080a5200078fe070080832100504e880075
:103f400020ba2100604e880080bf20000048eb00ae
:103f500000000600e0ad2000104078000018a3002b
:103f60001a0032000058a30018003a0020c8b3001d
:103f7000a1ad2000914f100014003e00dda2a8006a
:103f80008e60a9009e60a800f05680000050a0003e
:103f9000f05688005302ab000a0032000100e8002e
:103fa000904078000181fb00d3f72f008081410011
:103fb000634179000281fb00a21288000148e800f9
:103fc0000000060051e2a900c5ff0700000006003e
:103fd00049ff070078ff0700deff370002c2e90053
:103fe0009181fb00e14f520007003e00b4c1b300d5
:103ff00004f079009141e800834878008381fb0058
:104000000243b00009003700fb4f510007003a009f
:1040100002f079001141e800824878000281fb003b
:1040200003c3b300037079000100370002f0790088
:104030009148e80000000600a09a20000048eb002c
:1040400010c0b300219b20008048780041be2000b2
:10405000804878007868ef00e4804000804878006d
:104060002628ef002c28ef00000006000004e000e6
:1040700003003200e14f500026003a0014003700e0
:1040800000fc2f004235800082006000d100b300a8
:1040900041358800c842a800c006b6000030a00024
:1040a00000368800c802a9002c23a8002c43a800d1
:1040b000f10f2c000036800080806000007020002e
:1040c0000100700000368800c822a9000000060028
:1040d00000fc2f00ac06b600a001b30060358800dc
:1040e000f0e2a800f00f2c00a13680000101600072
:1040f00001b0200082807000a1368800f0c2a900c3
:10410000d206b60001a020008080700091368800a1
:10411000f102a90000000600e14f50000f0032003c
:1041200003003900e24f50001c003a001500370030
:104130004022ef004422ef004222ef0041e2a900ba
:1041400042a2a8004342a9004302a90042c2a8001b
:104150004322a80041e2a800000006006022ef0010
:104160006422ef0061e2a90062a2a8006342a900f4
:104170006302a90062c2a8006322a80061e2a8004d
:10418000000006000002200010148800100020002b
:1041900020148800c00028000014880000000600d9
:1041a000f00b20004207b6006304200074052000d5
:1041b0002174200083487800844878008048780083
:1041c00000fc2f00f2368000820060005100b30036
:1041d000f136880035358000850060001101b3009c
:1041e00031358800f10f2c0012358000828260008a
:1041f00002a022000501710012358800653680009a
:1042000005016000c201b30062368800923680006a
:104210008282600002a020000501710092368800b1
:10422000a23680008282600002b020000501710089
:10423000a23688006535800005016000a201b30048
:1042400062358800b236800082826000021022004f
:1042500005017100b2368800c53580000501600097
:104260000220a000c235880055368000058160001c
:1042700002d0a00052368800123a80000260a000ee
:1042800025742000834a7800844a7800824a7800a6
:10429000cc22ef00d422ef00ce22ef00d622ef0096
:1042a0002a23ef002ca3ef00c002a800c022a80020
:1042b000c082a800c0a2a900c0c2a900c0e2a80094
:1042c000c122a800c1c2a800c802a900c822a90032
:1042d000c842a800c862a800c882a900c8a2a90054
:1042e000c902a800c922a900c942a900c962a80040
:1042f000c982a800c9a2a900c9c2a900c9e2a80030
:10430000d042a800d062a900d082a800d182a80023
:10431000d1a2a900d1c2a900d1e2a800d802a90067
:10432000d822a900d842a900d882a800d8a2a90002
:10433000d8c2a900d8e2a900d902a800d922a800b1
:10434000d942a900d962a900d982a800d9a2a9009e
:10435000d9c2a900d9e2a800e022a800e042a80042
:10436000e062a900e082a900e0a2a900e0c2a900e1
:10437000e0e2a900e122a800e802a900e822a800e2
:10438000e842a900e882a800e8a2a800e902a80083
:10439000e982a800e9a2a800f022a900f042a90041
:1043a000f062a900f0c2a900f0e2a800f102a900a1
:1043b000f122a900f182a900f1a2a800f1c2a9008e
:1043c000f1e2a80053368000030160009200b300c0
:1043d00052368800553680008580600001b0a0000c
:1043e000513688004235800082006000d100b30061
:1043f00041358800cc06b6007000b30060368800f6
:1044000000000600889fbe00f00b20004207b600a7
:104410006804200079052000217420008848780075
:1044200089487800804878000040eb000fff0700c3
:10443000103a80000060a0002174200088487800b5
:1044400089487800804878000040eb0032ff070080
:1044500010c0b30005ff070010c0b3002eff070017
:1044600020c0b3002cff07004f04be000000060070
:1044700083e0a8007e250200000000003009020051
:1044800000000000701f020000000000eafe37007c
:104490000000060043032000934178000400200040
:1044a00045032000844a78006022b8000b003700e2
:1044b0004813de00b083fb0007016900f20fb20071
:1044c0000201410087622800670179000601690046
:1044d0000060fe0061024200e0824a00610bb80009
:1044e000860f5200878f5a00f1ff390040032000e9
:1044f0000348780002007800000006004024020013
:10450000000000000002be0011c0b300f2ff2f0047
:10451000f30f2000820f5200838f5a0001003a00ef
:1045200021c0b3000140780000000600209b20005d
:1045300010407800e14f500016003a0060418000c2
:104540000000e0001f003a0071cf20008048780092
:104550002468ef0080be200080c0eb0090cf1000e8
:1045600006003a007848e20004003a0040c0220009
:1045700001002000e1ff070078e8b70080be2000be
:1045800080c0eb0090cf10000e003a000048eb0016
:104590000c003700e54f50000a003a0070cf2000b1
:1045a0000048eb002468ef0080be200080c0eb00d4
:1045b00090cf100003003a000048eb0010c0b30099
:1045c00078e8b700209b200021c0b30090cf1000f6
:1045d00002003a0010002000604188000000060040
:1045e0002021ef001ca1ef008780a9009780a9007f
:1045f00083e0a900042c0400000000000000060075
:10460000e7fe07007fff070099ff070020902000ca
:10461000c07f880010002000d07f88002828ef008d
:104620000060fe00c1ff070008110200000000004a
:10463000e81f020000000000442502000000000006
:1046400078c8bf00e14f5000f5ff3a0000000000bd
:1046500000000000e2ff07000000050000c120008c
:10466000104078007f406000e14f50006f003a003a
:1046700040c120001004e0006c003a0063005000cc
:1046800061c0b30090cf10002a003a000080e8001b
:1046900010407800fcc04000814f500011003200f3
:1046a0008140e800814f50001f00320081c0e900c6
:1046b000814f50001f003a0001c8bf00e14f500079
:1046c0001c003a00c084280001ca200080487800fd
:1046d0004800de008100e8008048780091c0b30007
:1046e0000a00370001c8bf00e14f500011003a0036
:1046f000208c280001ca2000804878004800de0095
:104700008100e80080487800d1c1b30030ca2000a1
:10471000014878000000e8000048eb0001ccb3003d
:104720000080e9000200370001c8b30020ca200061
:104730000148780000c1200002c6b300904061002b
:1047400000c2b30080cf500038003a0010c12000f2
:1047500010407800e34f50001e00320003003e007e
:10476000e24f500031003a0005003700ea4f500098
:1047700010003200eb4f50002c003a0024003700ac
:104780005087200001ca2000804878004800de00e1
:104790008100e8008048780011c0b30030ca2000d2
:1047a000014878000000e8000048eb0011ccb3009d
:1047b0001400370001c8b30020ca20000148780067
:1047c00030c12000104178005187200082487800d5
:1047d000000006006087200001ca200080487800a1
:1047e0004800de008100e8008048780011c0b30076
:1047f00030ca2000014878000000e8000048eb00c3
:1048000011c8b3000080e9000148780000000600ec
:1048100001c8b30020ca20000148780020c1200050
:10482000104178006187200082487800000006006f
:10483000000006000000060034002400043b88004d
:1048400024032000014a78000208bb000388bb0053
:104850001000fc0050052000303b8800a00a20001a
:10486000303b880061e7a800000000000000000065
:104870006007e200feff350061c7a90000000600e6
:104880000400fa00e0bf9f00f1bf9f002303200057
:1048900093417800eff8970020032000014878004a
:1048a0006fb997001282ba00840078001200ba0033
:1048b00022032000034978000080fa00000006006f
:1048c000881f780034002400043b88000002eb00bd
:1048d0001400370000034200e08348002503200055
:1048e000874a780086027800930abb001303900081
:1048f000868abb000482e8001000fc0055052000f9
:10490000353b8800a50a2000353b880061e7a800f8
:1049100000000000000000006007e200feff35001c
:10492000e4814100820f5200eaff390061c7a9000b
:104930004f047800000006000080fb008000eb00c0
:104940004a09dd00c601de00830171004a01dd0075
:1049500020042400003b8800200320000348780046
:104960000080eb000009bb001000fc005005200097
:10497000303b8800a00a2000303b880061e7a80097
:1049800000000000000000006007e200feff3500ac
:04499000000006001d
:020000040000fa
:10499400ac0c00005000000000000000e00a000021
:1049a4000001000000000000560800001e00000086
:1049b40000000000f60f00000200000002000000ea
:1049c400010000007c0800004e010000000000000f
:1049d400780800000200000002000000010000004e
:1049e400f80f0000040000000200000000000000b6
:1049f400000000001c0800003a0000000000000055
:104a0400ca09000016010000000000007a08000036
:104a14000200000000000000fc0c00000e0000007a
:104a2400020000006400020000c8000002000a0046
:104a3400000a000032000000e00b00001c0000002f
:104a440000000000fc0f0000040000000000000053
:104a5400100c00009c00000000000000000c00008e
:104a64001000000000000000000800001c0000000e
:104a740000000000740800000400000000000000b2
:044a8400000000002e
:020000040000fa
:104a88009780a900fc0ff800fe0ff9009780a80096
:104a9800e37f800000be20000081e8008000eb007a
:104aa80024c0b300904f120006003a0092825100d1
:104ab800c4cf200064827800848f5200010039003e
:104ac80000c8eb0014c0b300904f120003003a0076
:104ad8000309780024c0b30004487800640040004b
:104ae800640141008180e800ee8f5000ecff3a003d
:104af80000000600000120000009880000e22400f0
:104b0800e008880087c0a9009780a80021e1a800d4
:084b1800fc2fef000000060075
:020000040000fa
:0857f80002090000010000009d
:020000040000fa
:105828003400f800881f780008002000a8018800cc
:0c5838004f0478003400f9000040060026
:020000040000fa
:105874003400f800881f780008002000a801880080
:0c5884004f0478003400f90000400600da
:020000040000fa
:1058c0003400f800881f780008002000a801880034
:0c58d0004f0478003400f900004006008e
:020000040000fa
:10590c003400f800881f780008002000a8018800e7
:0c591c004f0478003400f9000040060041
:020000040000fa
:105958003400f800881f780008002000a80188009b
:0c5968004f0478003400f90000400600f5
:020000040000fa
:1059a4003400f800881f780008002000a80188004f
:0c59b4004f0478003400f90000400600a9
:020000040000fa
:1059f0003400f800881f780008002000a801880003
:0c5a00004f0478003400f900004006005c
:020000040000fa
:105a3c003400f800881f780008002000a8018800b6
:0c5a4c004f0478003400f9000040060010
:020000040000fa
:105a88003400f800881f780008002000a80188006a
:0c5a98004f0478003400f90000400600c4
:020000040000fa
:020000040005f5
:0457f400ffff0000b3
:020000040000fa
:020000040005f5
:0457f800ae130000ec
:020000040000fa
:020000040005f5
:0457fc00773e0000f4
:00000001FF
