:020000040000fa
:082e0800ae17040000000000f9
:020000040000fa
:102f5c002fe0200080ff200000018800000000000e
:102f6c000a00070011000700000020000000e0002c
:102f7c000200320000000200000000005c5202005f
:102f8c00000000000040da000000fe004440a900f0
:102f9c00008120000000e00003003200000020004f
:102fac00a00188004440a80000000600e01b25009a
:102fbc00010020001600370062004000e08048004d
:102fcc00910188009001ba0062004000e080480046
:102fdc00910188009002ba0062004000e080480035
:102fec000002eb006028e10005003a008301e900d3
:102ffc0007003300038009000059eb000400370080
:10300c006128e100010032000082eb00050007009e
:10301c00910188001001ba000200e000e6ff3a00be
:10302c0000000500910188008002780062004000d9
:10303c00e08048003559ba008301e90008003200ed
:10304c002559ba008301e900050032000400e000b4
:10305c00f4ff320015d9ba008301e900f1ff3a0000
:10306c00000006000000000000000000000000004e
:10307c00000000008001eb00020037008171780035
:10308c008301e800828f5100fcff3a00000006002b
:10309c00839f68000100e00002003d00600010000a
:1030ac00e08018000300e00002003d006001110008
:1030bc00e08119000b0007004f00e00002003b000c
:1030cc0060001000e080180000000600020ab90041
:1030dc00001bb9000200b8008100420081004300cf
:1030ec00000006006022b800060220000000d0009c
:1030fc008180d2000482d2008582d2000000a00020
:10310c000202520083825a00030031000202420084
:10311c0083824a000000a1000603e900f3ff3a0095
:10312c00000006000001be006e0107000470a7003d
:10313c0003f0a10003f8a30013003a006509b100e5
:10314c0010003200090035006928e100020035004a
:10315c0001002800000005000000400081804800ac
:10316c008502e900fcff3a0000000600f88f4200df
:10317c00050035008100d1000080d3008502e800f5
:10318c00fcff3a00000006008000eb000000050088
:10319c00889fbe008a9fbe00010578000100e000f8
:1031ac000400350008003c000000e0002000320064
:1031bc000500370060001000e080180002003b00a2
:1031cc0001f02c001a0037000004be006011b8009a
:1031dc006b0920000982cf00020039000882cf0061
:1031ec000441b000694252000e00320008003b005e
:1031fc0082817100610164008904d1000884d300cc
:10320c008b05e8000442e800f9ff3a00050037009e
:10321c000804440089844c008b05e9000442e90051
:10322c00fbff3a00440107000af0a70001f0a000e0
:10323c004f05be004f04be000000060003f0a200c4
:10324c00889fbe008a9fbe008c1f7800600107001b
:10325c00670133006450e1004f0032006420e1004c
:10326c005200320003826c0007003b000905d000bd
:10327c000306d000820f54000c065d0002003900da
:10328c00020032008901780003067800858255001f
:10329c0004003d000003fd008103fd008502ea00ef
:1032ac008b854200840f720002003b00600010000e
:1032bc00e08018006011b8000005eb007a28e100ee
:1032cc000a00390006007800c75ddd00f707b20080
:1032dc00878075002d003700828171000a0178000b
:1032ec00610560008180d1000080d3008502e90077
:1032fc00f9ff3b00060440008784480002003b00b5
:10330c0060041400e0841c000988a300070032004c
:10331c008a81710082817100610164008904d1008d
:10332c000884d3008b05e800170037000978a30048
:10333c0013003a000b00e000130034008b05e90089
:10334c000804440089844c000a4474000978a300e2
:10335c000d003a000b00e000070034008b05e9007b
:10336c000804440089844c0001003a000b00200042
:10337c000978a300f7ff32000001eb0002003700d0
:10338c00828171000a017800eb0007000cf0a700a5
:10339c0001f0a0001f0137006420e10002003a0098
:1033ac00838f6c001f0133000801be000200be00b9
:1033bc0018013700889fbe008a9fbe008c1f7800c2
:1033cc000004be00c70007000478a30026003a00e2
:1033dc006120e1002500320009f8a30025003a0025
:1033ec006420e10021003200f507b1000508a300bc
:1033fc000200320000004000818048006044b800a8
:10340c0003102000020020000000400081804800d2
:10341c000805440089854c000a0541008b8549004c
:10342c000a0550008b855800030033000a00be00cb
:10343c0002047400838474008301d1000281d300e0
:10344c00830f7100f0ff3a008904d1000884d30087
:10345c006001490082017800c1adde00fb07b000bd
:10346c00b5000700eb0037000960a0000800be00a3
:10347c00e800370012022000124f8800f0ff2f00e6
:10348c00f1ff2700e3003700889fbe008a9fbe0033
:10349c008c1f7800ce000700d500330003866c002b
:1034ac006450e100240032006420e1002700320067
:1034bc006150e100220032006120e1002100320065
:1034cc008b854200eb07b1000134b800003ab8001c
:1034dc000804420089844a00013ab8000030b80060
:1034ec008880400009014a000400330000004000bd
:1034fc0081804800020149008b05e900c909dd0003
:10350c00830170000100320013002000c814de009b
:10351c004814dd004709de001200b200c808de00c6
:10352c00088470008400070001f0a1000cf0a700d3
:10353c0001f0a000b70037006120e100b9003200b3
:10354c000801be000200be00f7ff37006150e10029
:10355c00fcff3a00b30037000001be006100070019
:10356c000470a70003f0a1006509b1001600320039
:10357c000d0035006828e10006003500f0ff2f0033
:10358c00f1ff27000300e00013003b0001002800be
:10359c000000050000004000818048008502e90021
:1035ac00fcff3a0008003700f88f420002003c0094
:1035bc008000eb00000005008100d1000080d300ea
:1035cc008502e800fcff3a000300e00002003b002b
:1035dc0060001000e080180000000600889fbe000c
:1035ec008a9fbe008c1f7800790007008000330092
:1035fc0003866c006450e1002e0032006420e10070
:10360c00330032006150e1002f0032006120e100f4
:10361c003100320085855500eb07b0000900200011
:10362c0008042000050037000804440089844c007d
:10363c000a0031000603430087834b00000153004e
:10364c0081815b00f8ff33000203be000800a0007c
:10365c000804440089844c00f6ff3900c639dd00ab
:10366c008301730001003200130020008904d10093
:10367c000884d3000998a300050032000800a700b5
:10368c000300a0008904d1000884d3008b05e80056
:10369c008904d1000884d3000001eb000281d20020
:1036ac002500070001f0a1000cf0a70001f0a0001c
:1036bc00580037006420e1005a0032000801be00b7
:1036cc000200be00f7ff37006120e1005500320018
:1036dc006000b800f3ff37000000200001f827005d
:1036ec00f0ff3700c70ade00f107b200f50fb20099
:1036fc0008003200e1cf4200020032000170a0004d
:10370c0024000500810f7000010032000408050040
:10371c0044000500810f700002003a0014000500ff
:10372c008502e9000000400081c04800fcff3b001e
:10373c000170a0002400050081002000618055006c
:10374c000b003d000b00200061fe2f000100e1008a
:10375c001d00340082817100610164008904d10074
:10376c000884d3000000e800faff3a007100200042
:10377c006100640003007000020060000900320068
:10378c0061044400e0844c000988a5000500320067
:10379c008b05e8006808e10002003a008904d100ba
:1037ac000884d300f20f20000258e10005003d0010
:1037bc00c75ddd00f907b20089807500080078004c
:1037cc00000006000bf827008b00780000000500b5
:1037dc000004be00c3ff07000003be000405be00ca
:1037ec000200be00bfff0700844f750000000600fa
:1037fc000200be006450e100050036006420e100c8
:10380c00020036000968a30001003a000800be005f
:10381c000160a0004f0678004f05be004f04be00ab
:10382c0000000600f0ff2f00f1ff2700f9ff370022
:020000040000fa
:0200000401f009
:04000000ffff0000fe
:020000040000fa
:0200000401f009
:04000800fdff0000f8
:020000040000fa
:0200000401f009
:04000c0078ff000079
:020000040000fa
:0200000401f009
:040010005dff000090
:020000040000fa
:0200000401f009
:0400140064ff000085
:020000040000fa
:0200000401f009
:04001800ffff0000e6
:020000040000fa
:0200000401f009
:04001c00ddff000004
:020000040000fa
:0c2e3400d4430400000000000000060071
:020000040000fa
:0c2e4800364404000000000000000600fa
:020000040000fa
:0c2e7800084604000000000000000600f6
:020000040000fa
:0c2f2400b445040000000000000006009e
:020000040000fa
:0c2f5000de450400000000000000060048
:020000040000fa
:0c2e60007e490400000000000000060095
:020000040000fa
:0c2e5400004a040000000000000006001e
:020000040000fa
:042e040000000000ca
:020000040000fa
:10383c00ff7f0000fd7f0000f97f0000f57f000096
:10384c00f07f0000e97f0000e17f0000d87f0000de
:10385c00cd7f0000c17f0000b47f0000a67f000078
:10386c00977f0000867f0000747f0000617f00005e
:10387c004d7f0000377f0000217f0000097f000092
:10388c00ef7e0000d57e0000b97e00009c7e00001b
:10389c007e7e00005f7e00003e7e00001d7e0000ec
:1038ac00fa7d0000d57d0000b07d0000897d000010
:1038bc00627d0000397d00000e7d0000e37c00007d
:1038cc00b67c0000887c0000597c0000297c00003c
:1038dc00f87b0000c57b0000917b00005c7b000046
:1038ec00267b0000ee7a0000b67a00007c7a00009d
:1038fc00417a0000057a0000c8790000897900003f
:10390c004a79000009790000c7780000847800002b
:10391c003f780000fa770000b37700006b77000067
:10392c0022770000d87600008d76000041760000ea
:10393c00f3750000a57500005575000004750000b6
:10394c00b27400005f7400000a740000b5730000cc
:10395c005e73000007730000ae720000547200002a
:10396c00f97100009d71000040710000e2700000d0
:10397c008370000022700000c16f00005e6f0000b9
:10398c00fb6e0000966e0000306e0000c96d0000ea
:10399c00616d0000f86c00008e6c0000236c000060
:1039ac00b76b00004a6b0000dc6a00006d6a000017
:1039bc00fd6900008b69000019690000a668000011
:1039cc0032680000bc67000046670000cf6600004c
:1039dc0056660000dd65000063650000e8640000c9
:1039ec006c640000ee63000070630000f162000084
:1039fc0071620000f06100006e610000eb6000007d
:103a0c0068600000e35f00005d5f0000d75e0000af
:103a1c004f5e0000c75d00003e5d0000b35c00001f
:103a2c00285c00009c5b00000f5b0000825a0000c9
:103a3c00f359000064590000d358000042580000ac
:103a4c00b05700001d5700008a560000f5550000c5
:103a5c0060550000c9540000325400009b53000014
:103a6c000253000068520000ce5100003351000098
:103a7c0097500000fb4f00005d4f0000bf4e000050
:103a8c00204e0000814d0000e04c00003f4c000037
:103a9c009d4b0000fb4a0000584a0000b44900004e
:103aac000f49000069480000c34700001c47000094
:103abc0075460000cd450000244500007a44000006
:103acc00d0430000254300007a420000ce410000a4
:103adc002141000073400000c53f0000173f00006b
:103aec00683e0000b83d0000073d0000563c000059
:103afc00a53b0000f23a0000403a00008c3900006f
:103b0c00d9380000243800006f370000ba360000a6
:103b1c00043600004d35000096340000df33000001
:103b2c00263300006e320000b5310000fb3000007f
:103b3c0041300000872f0000cc2e0000112e000019
:103b4c00552d0000992c0000dc2b00001f2b0000d1
:103b5c00612a0000a3290000e528000026280000a7
:103b6c0067270000a8260000e82500002825000093
:103b7c0067240000a6230000e52200002322000099
:103b8c00612100009f200000dd1f00001a1f0000b3
:103b9c00571e0000931d0000cf1c00000b1c0000e2
:103bac00471b0000821a0000be190000f918000023
:103bbc00331800006e170000a8160000e215000074
:103bcc001c150000551400008f130000c8120000d3
:103bdc00011200003a11000072100000ab0f00003f
:103bec00e30e00001c0e0000540d00008c0c0000b5
:103bfc00c40b0000fb0a0000330a00006a09000035
:103c0c00a2080000d90700001107000048060000b8
:103c1c007f050000b6040000ed0300002403000043
:103c2c005b02000092010000c900000000000000cf
:103c3c0000000000c1c0000081c100004001000074
:103c4c0001c30000c00300008002000041c200005c
:103c5c0001c60000c00600008007000041c700003c
:103c6c0000050000c1c5000081c400004004000034
:103c7c0001cc0000c00c0000800d000041cd000004
:103c8c00000f0000c1cf000081ce0000400e0000ec
:103c9c00000a0000c1ca000081cb0000400b0000ec
:103cac0001c90000c00900008008000041c80000e4
:103cbc0001d80000c01800008019000041d9000094
:103ccc00001b0000c1db000081da0000401a00007c
:103cdc00001e0000c1de000081df0000401f00005c
:103cec0001dd0000c01d0000801c000041dc000054
:103cfc0000140000c1d4000081d500004015000064
:103d0c0001d70000c01700008016000041d600004b
:103d1c0001d20000c01200008013000041d300004b
:103d2c0000110000c1d1000081d000004010000043
:103d3c0001f00000c03000008031000041f10000b3
:103d4c0000330000c1f3000081f20000403200009b
:103d5c0000360000c1f6000081f70000403700007b
:103d6c0001f50000c03500008034000041f4000073
:103d7c00003c0000c1fc000081fd0000403d000043
:103d8c0001ff0000c03f0000803e000041fe00002b
:103d9c0001fa0000c03a0000803b000041fb00002b
:103dac0000390000c1f9000081f800004038000023
:103dbc0000280000c1e8000081e900004029000053
:103dcc0001eb0000c02b0000802a000041ea00003b
:103ddc0001ee0000c02e0000802f000041ef00001b
:103dec00002d0000c1ed000081ec0000402c000013
:103dfc0001e40000c02400008025000041e5000023
:103e0c0000270000c1e7000081e60000402600000a
:103e1c0000220000c1e2000081e30000402300000a
:103e2c0001e10000c02100008020000041e0000002
:103e3c0001a00000c06000008061000041a10000f2
:103e4c0000630000c1a3000081a2000040620000da
:103e5c0000660000c1a6000081a7000040670000ba
:103e6c0001a50000c06500008064000041a40000b2
:103e7c00006c0000c1ac000081ad0000406d000082
:103e8c0001af0000c06f0000806e000041ae00006a
:103e9c0001aa0000c06a0000806b000041ab00006a
:103eac0000690000c1a9000081a800004068000062
:103ebc0000780000c1b8000081b900004079000012
:103ecc0001bb0000c07b0000807a000041ba0000fa
:103edc0001be0000c07e0000807f000041bf0000da
:103eec00007d0000c1bd000081bc0000407c0000d2
:103efc0001b40000c07400008075000041b50000e2
:103f0c0000770000c1b7000081b6000040760000c9
:103f1c0000720000c1b2000081b3000040730000c9
:103f2c0001b10000c07100008070000041b00000c1
:103f3c0000500000c1900000819100004051000031
:103f4c0001930000c0530000805200004192000019
:103f5c0001960000c05600008057000041970000f9
:103f6c0000550000c19500008194000040540000f1
:103f7c00019c0000c05c0000805d0000419d0000c1
:103f8c00005f0000c19f0000819e0000405e0000a9
:103f9c00005a0000c19a0000819b0000405b0000a9
:103fac0001990000c05900008058000041980000a1
:103fbc0001880000c04800008049000041890000d1
:103fcc00004b0000c18b0000818a0000404a0000b9
:103fdc00004e0000c18e0000818f0000404f000099
:103fec00018d0000c04d0000804c0000418c000091
:103ffc0000440000c18400008185000040450000a1
:10400c0001870000c0470000804600004186000088
:10401c0001820000c0420000804300004183000088
:10402c0000410000c1810000818000004040000080
:10403c000102000004080000102000004080000075
:020000040000fa
:10404c000400fa00889fbe008a9fbe008c9fbe00b1
:10405c000005780020c0b300004d78001900200046
:10406c0040c8b30080c0400081747d003dc0b300e7
:10407c008df79f002bba20000b499000f080570061
:10408c000a0078001a4c020000000000e8b9200079
:10409c0018417800f08057000a0078001a4c020092
:1040ac000000000038419000f08057000a007800b2
:1040bc001a4c02000000000042c0b300f080570010
:1040cc000a0078001a4c0200000000000941780038
:1040dc00f08057000a0078001a4c02000000000023
:1040ec0042c0b300f08057000a0078001a4c02005e
:1040fc00000000004b419000f08057000a0078004f
:10410c001a4c02000000000008f02f00325d800005
:10411c0008016100030020004818dd004811de0092
:10412c0002017000c819de00f08057000a00780008
:10413c001a4c020000000000fc0f2000425d8000c1
:10414c000c01610003002000f08057000a00780089
:10415c001a4c020000000000425d80000801610062
:10416c0003002000c818dd004811de000281700039
:10417c00c819de00f08057000a0078001a4c0200c3
:10418c00000000003bde20009b41780061c1610013
:10419c00f08057000a0078001a4c02000000000062
:1041ac00a0b5200010417800f08057000a0078007c
:1041bc001a4c0200000000001b81fb000201d10020
:1041cc0061416100f08057000a0078001a4c02002f
:1041dc0000000000c0b5200010417800f0805700ae
:1041ec000a0078001a4c020000000000e25a80001d
:1041fc000801610003002000481add004811de00b0
:10420c0002017200c899de00f08057000a007800a5
:10421c001a4c020000000000e06f80001001be008c
:10422c00f08057000a0078001a4c020000000000d1
:10423c00e06f80001000be00000464000900200044
:10424c004848dd004844de0008047000c84cde001d
:10425c0008417800f08057000a0078001a4c0200e0
:10426c0000000000e06f80001000be00010166003d
:10427c0003002000f08057000a0078001a4c02005e
:10428c00000000000ff097005042b000204598004d
:10429c008ff0970065c04000407d98008180fb0046
:1042ac000001eb000a007800c64902000000000083
:1042bc00c801de008ff097000182fb00020f200086
:1042cc0083006100c488de000142b00001727d00f1
:1042dc000ff297008440e80081f79f008180fb007b
:1042ec00efc161000342b00083707d008ff1970035
:1042fc008340e80081f79f000c4060008180fb0048
:10430c00000161004491de000242b00082707d0029
:10431c000ff297008440e80081f79f008180fb003a
:10432c006f4060000042b00080707d008ff09700fd
:10433c000140e8000080fb000d707d004f06be00c0
:10434c004f05be004f04be000080fa0000000600be
:10435c000600fa008001780020ba2000b3409000db
:10436c0001489800c340900041c09800004890005c
:10437c000080fb000100200062005000e08058002b
:10438c00ff0f5000e08f580028023e000060010033
:10439c0025003700ac003700230137003800370008
:1043ac00a900370020013700350037001e01370007
:1043bc001e0237001d0237001c0237001b0237009b
:1043cc001a02370032003700180237001702370084
:1043dc001602370015023700140237000c003700a4
:1043ec002b01370011023700100237000f02370083
:1043fc000e0237000d0237000c0237000b0237009b
:10440c000a0237000902370008023700670137003b
:10441c0040c1b300e1b92000804878000000eb00f7
:10442c00005a88000102370053409000a0ff9f0003
:10443c00e3409000b1ff9f005fb89700705d88006b
:10444c00f3409000a1ff9f0003489000b0ff9f0035
:10445c00dfb89700815d880013489000a0ff9f0093
:10446c00a3489000b1ff9f005fb89700105f8800d1
:10447c00334890000080fb00605d8800eb01370042
:10448c0020ba2000d341900063709800e7013700f8
:10449c00d3409000a1ff9f0063409000b0ff9f00ad
:1044ac005fb89700cf80de00e06a8800f16a880070
:1044bc00f3409000a1ff9f0003489000b0ff9f00c5
:1044cc005fb89700cf80de00c06a8800d16a880090
:1044dc0093489000a1ff9f0023489000b0ff9f00dd
:1044ec00dfb897005168880033489000a0ff9f0008
:1044fc00c3489000b1ff9f006681570032007800de
:10450c00cf80de0060688800716888005348900096
:10451c0000497800e3489000d1ff9f007348900059
:10452c002041980083509000f1ff9f0024ba200096
:10453c001200780092009000f05e8800015f880005
:10454c0013509000a0ff9f00a3509000b1ff9f005c
:10455c005fb89700105f8800b3509000a1ff9f00d8
:10456c0043509000b0ff9f00dfb89700e15e8800d9
:10457c005350900040729800e35090005172980094
:10458c0073509000a0ff9f0083589000b1ff9f00d4
:10459c005fb89700a05d880093589000a1ff9f0022
:1045ac0023589000b0ff9f00dfb89700c15d8800d2
:1045bc0033589000a0ff9f00c3589000b1ff9f009c
:1045cc005fb89700b05d8800d3589000a1ff9f00a2
:1045dc0063589000b0ff9f00dfb89700d15e880051
:1045ec0073589000a0ff9f0083609000b1ff9f0064
:1045fc005fb89700d05d880093609000a1ff9f008a
:10460c0023609000b0ff9f00dfb89700815d8800a9
:10461c0033609000a0ff9f00c3609000b1ff9f002b
:10462c005fb89700905d8800d360900031c298000d
:10463c00e361900063729800547090000004e000f5
:10464c007a0132006f0037006481570053409000ac
:10465c0000497800e3409000d1ff9f007340900028
:10466c002041980083489000f1ff9f0012007800d1
:10467c009200900024ba2000f05e8800015f880050
:10468c00b0598800c159880013489000a0ff9f00c2
:10469c00a3489000b1ff9f005fb89700105f88009f
:1046ac000100200090598800a159880033489000df
:1046bc00a0ff9f00c3489000b1ff9f005fb8970018
:1046cc00e05e880001002000705988008159880044
:1046dc0053489000407298000080fb0001002000bd
:1046ec0050598800615988006349900052729800b3
:1046fc000280fb00010020003059880041598800dd
:10470c0073489000a0ff9f0083509000b1ff9f0062
:10471c005fb89700a05d880093509000a1ff9f00a8
:10472c0023509000b0ff9f00dfb89700c15d880058
:10473c0033509000a0ff9f00c3509000b1ff9f002a
:10474c005fb89700b05d8800d3509000a1ff9f0028
:10475c0063509000b0ff9f005fb89700d05e880058
:10476c0001002000b0588800c1588800f350900018
:10477c00a1ff9f0003589000b0ff9f005fb8970007
:10478c00d05d88000100200090588800a158880056
:10479c0093589000a1ff9f0023589000b0ff9f00fa
:1047ac00dfb89700815d880033589000a0ff9f0010
:1047bc00c3589000b1ff9f005fb89700905d8800d0
:1047cc000100200050588800615888005358900010
:1047dc0030c298000080fb00010020003058880097
:1047ec004158880063589000607298000080fb006c
:1047fc000100200010588800215888000204e000b5
:10480c000a013200a05d80000000e00003003200cd
:10481c00c05d80000000e00004013a000040eb00a5
:10482c00507298000101370053409000a0ff9f0088
:10483c00e3409000b1ff9f0022ba20005fb89700c0
:10484c00cf80de00f05e8800015f8800734090002e
:10485c00a0ff9f0083489000b1ff9f005fb89700b6
:10486c00105f880093489000a1ff9f0023489000a0
:10487c00b0ff9f00dfb89700e15e880033489000de
:10488c0020c19800c349900063719800e70037007d
:10489c005340900022ba2000407198000080fb0029
:1048ac0001002000b0598800c1598800e3409000f5
:1048bc00a1ff9f0073409000b0ff9f005fb897006e
:1048cc00805d88000100200090598800a159880063
:1048dc0083489000a1ff9f0013489000b0ff9f00f9
:1048ec005fb89700e05d88000100200070598800d7
:1048fc0081598800a3489000a1ff9f003348900085
:10490c00b0ff9f006681570032007800f05d880090
:10491c00010020005059880061598800c34890005c
:10492c000149780053489000d0ff9f00e348900065
:10493c002141980073489000f0ff9f00120078000e
:10494c00005e880001002000305988004159880021
:10495c0083509000a1ff9f0013509000b0ff9f0068
:10496c00dfb89700215e8800235090000049780042
:10497c00b3509000d1ff9f0043509000204198000d
:10498c00d3509000f1ff9f0012007800105e880059
:10499c0063509000a0ff9f00f3519000b3ff9f0065
:1049ac00dfb89700315e8800a000370053409000bc
:1049bc0022ba2000407198000080fb00010020000a
:1049cc00b0598800c159880063409000a0ff9f0037
:1049dc00f3409000b1ff9f005fb89700805d8800a6
:1049ec000100200090598800a159880003489000cc
:1049fc00a0ff9f0093489000b1ff9f005fb8970005
:104a0c00a05e880001002000705988008159880040
:104a1c0023489000a0ff9f00b3489000b1ff9f0077
:104a2c005fb89700cf80de00406a8800516a88002a
:104a3c00505988006159880043489000a0ff9f009e
:104a4c00d3489000b1ff9f005fb89700cf80de0085
:104a5c00606a8800716a8800305988004159880062
:104a6c0063489000a0ff9f00f3489000b1ff9f00a7
:104a7c005fb89700cf80de00206a8800316a88001a
:104a8c0003509000a0ff9f0093509000b1ff9f0037
:104a9c005fb89700cf80de00006a8800116a88003a
:104aac0023509000a0ff9f00b3509000b1ff9f00d7
:104abc005fb89700cf80de00e0698800f16988005c
:104acc0043509000a0ff9f00d3509000b1ff9f0077
:104adc005fb89700cf80de00c0698800d16988007c
:104aec00b0588800c158880063509000a0ff9f0008
:104afc00f3509000b1ff9f005fb89700cf80de00ad
:104b0c00a0698800b169880090588800a158880075
:104b1c0003589000a0ff9f0093589000b1ff9f0096
:104b2c006681570032007800cf80de0080698800f3
:104b3c00916988002358900000497800b358900080
:104b4c00d1ff9f004358900020419800d35890000b
:104b5c00f1ff9f0012007800405e880001002000e9
:104b6c0050588800615888006358900000497800bc
:104b7c00f3589000d1ff9f000360900020419800f3
:104b8c0093609000f1ff9f0012007800505e880047
:104b9c0001002000305888004158880023609000a4
:104bac00a0ff9f00b3609000b1ff9f005fb897001b
:104bbc00605e880001002000105888002158880091
:104bcc0043609000a0ff9f00d3609000b1ff9f0056
:104bdc005fb89700705e880001002000f0578800d5
:104bec000158880063609000a0ff9f00f360900064
:104bfc00b1ff9f005fb89700805e88000100200025
:104c0c00d0578800e157880003689000a0ff9f00f0
:104c1c0093699000b3ff9f005fb89700905e880087
:104c2c0001002000b0578800c15788000080fa00ae
:104c3c00000006000040eb00e1b92000804878003d
:104c4c00a1b9200080487800000006008040780060
:104c5c00e44f5000010034008040eb009460a90048
:104c6c00e0b32000014878009460a8000000060022
:104c7c0080407800e44f5000010034008040eb008d
:104c8c009460a900d0b32000014878009460a8007b
:104c9c0000000600889fbe0020ba200040719000e2
:104cac000204e000e8003a00e3b920002340900041
:104cbc000080fb0001002000ee0f5000e08f580038
:104ccc00db003e000060010010003700cc00370014
:104cdc001d00370029003700380037004900370025
:104cec00c700370078003700c50037009000370048
:104cfc00a5003700ac003700b6003700c000370005
:104d0c000000370010c0b300da0237000004eb00db
:104d1c000868880000c0eb00ccff070080c72000ab
:104d2c0048e89800d05d80006011b8001040020087
:104d3c0000000000e1b92000214090000040e80094
:104d4c00a04098003e00370000b520001000e000a5
:104d5c0006003200905a80000000e0000300320090
:104d6c00a05a80000000e000ac003a0001c1b30082
:104d7c00e0b9200001487800a8003700e9b920000c
:104d8c0001688000e05e8000808f500002003100de
:104d9c0040c0b30007003700725d800003002000a4
:104dac00d05d8000104002000000000029409000ff
:104dbc006b404000a0449800a100370000b52000d3
:104dcc001000e00009003a00905a80000000e0005a
:104ddc0006003a00a05a80000000e00003003a00f0
:104dec0001c1b300e0b9200001487800105f8000d9
:104dfc00a26a8000b36a800010400200000000002c
:104e0c0086003700e240020000000000e26a8000e9
:104e1c00f36a8000820f5000838f580088003500a1
:104e2c0089c7200049ec90000804e00006003a0015
:104e3c0010c0b300c0ec980040c0b30083ff070063
:104e4c00084078008b023700ac40020000000000e4
:104e5c00004478000004e000070032000040eb0042
:104e6c00ca40020000000000e1b92000214090007f
:104e7c0000c0e8006c00370049e89000e14f4000aa
:104e8c006f003a00e1b92000214090000040e8009a
:104e9c00a0409800605d8000e30f500008003200d5
:104eac00e20f5000e5ff3200e10f50000400320029
:104ebc00e40f500002003200e50f500060003a0091
:104ecc0020c0b300ddff370000b520001000e0006b
:104edc0006003a00905a80000000e00003003a00ff
:104eec00a85a80000800e0000400320011c1b30091
:104efc00e0b920000148780051003700e9b92000e2
:104f0c0020ba2000507090000004e000060032002f
:104f1c00c05d8000826a8000936a800010400200ad
:104f2c00000000000f00370090c0b3000f003700e6
:104f3c00e9b9200000c0eb0044ff070082c7200045
:104f4c000044eb0048e99800d15e80000100e000cd
:104f5c00080032000100d100306b880010c0b30093
:104f6c0040499800294090000040e800a044980077
:104f7c00b3ff37002940900000c0e800a04498001f
:104f8c00014078003b02370080c720004048900069
:104f9c00e14f40002a003a00b1c0b300e0b9200054
:104fac002140980026003700d05d80006011b800c9
:104fbc001040020000000000006880000000e800c3
:104fcc0000688800e1b92000214090000040e80012
:104fdc00a0409800ac400200000000000004e0007b
:104fec00170032000040eb00ca4002000000000035
:104ffc00e1b9200021409000694050000a003700c0
:10500c00ac400200000000000004e0000c00320084
:10501c000040eb00ca40020000000000e1b9200093
:10502c00214090000040e800a040980004003700a8
:10503c00a0c0b30080497800024078000d02370010
:10504c000040eb000b023700e14f51000f02320021
:10505c0002c0e900e14f500008023e00e2b9200016
:10506c00224090000080fb0001002000fa0f50004d
:10507c00e08f5800fb013e00006001001c0037006f
:10508c00e2003700eb013700230037003400370013
:10509c0038003700480037004d0037009d003700be
:1050ac00a0003700d9003700db00370019013700aa
:1050bc00e0013700df0137002101370048013700dc
:1050cc0062013700db0137008c013700d901370052
:1050dc00a7013700bc013700c3013700ca013700f4
:1050ec00d40137000000370010002000e001370029
:1050fc0090688000f06788000004eb00c8678800a7
:10510c00e867880000c0eb00d0fe070080c72000d5
:10511c0048e898002200370000b520001000e0009d
:10512c00e4003200905a80000000e000e100320000
:10513c00a05a80000000e000de003200e9b9200037
:10514c00f1678000a0c0b3000100e0009b013200b9
:10515c000100e900f067880040c0b30093013700fc
:10516c00506880008040eb007e3e02000000000092
:10517c00b701370000b520001000e000bb013a0079
:10518c00905a80000000e000b8013a00a85a800054
:10519c000800e000b5013a00a04102000000000048
:1051ac00e1b92000214090000040e800a0409800a8
:1051bc0008007800ae01370050688000a26a8000b9
:1051cc00b36a80001040020000000000a00137000c
:1051dc00e2400200000000000001be00e467800015
:1051ec000400e00023003a00e06a8000f16a8000cd
:1051fc00800f5100818f59001e00350081c720009f
:10520c0041e890000004e00007003a0010c0b30031
:10521c00c0e8980040c0b3008cfe070010002000ce
:10522c00c06788001e003700e14f40001c003a00a8
:10523c0010002000e0678800c4678800605d800073
:10524c00e30f500008003200e20f5000070032005c
:10525c00e10f500004003200e40f50000200320055
:10526c00e50f50000e003a0020c0b30077fe070097
:10527c000b003700f86780000800e00008003a00d7
:10528c00c06a8000d16a8000800f5100818f590064
:10529c000300350000c0eb006cfe0700c8678800f7
:1052ac00ac400200000000000004e0006f0132007e
:1052bc000040eb00ca4002000000000000b52000d6
:1052cc001000e00006003a00905a80000000e00058
:1052dc0003003a00a05a80000000e00003003200f6
:1052ec0011c1b300e0b9200001487800e9b92000f1
:1052fc00f16780000100e000030032000100e900ca
:10530c00f067880027013700294090006340400077
:10531c002a01370050688000e2ff2f00f3ff2f00b6
:10532c00a8ff3700c1678000e18f500014003a00dd
:10533c0080c7200040e89000e14f400010003a0088
:10534c00e16788000000eb00c0678800605d8000aa
:10535c00e30f500008003200e20f5000070032004b
:10536c00e10f500004003200e40f50000200320044
:10537c00e50f500002003a0020c0b30033fe0700d6
:10538c00e2400200000000000001be00f86780004f
:10539c000800e0000a003a00c06a8000d16a800070
:1053ac00800f5100818f590005003c0000c0eb00bc
:1053bc0026fe0700c867880080c7200048e89800d0
:1053cc00ac400200000000000004e00027013200a5
:1053dc00e9b920000040eb00ca40020000000000c8
:1053ec00f16780000100e000050032000100e900d7
:1053fc00f06788002940900063405000eb003700b4
:10540c00294090000040e800ec003700d05d80009f
:10541c006011b8006bff3700c1678000e18f50004e
:10542c0014003a0080c7200040e89000e14f400093
:10543c0010003a00e16788000000eb00c0678800ac
:10544c00605d8000e30f500008003200e20f500056
:10545c0007003200e10f500004003200e40f50004e
:10546c0002003200e50f500002003a0020c0b300e9
:10547c00f6fd0700ac400200000000000004e00054
:10548c00fa0032000040eb00ca40020000000000ad
:10549c0000b520001000e00006003200905a800099
:1054ac000000e00003003200a05a80000000e00081
:1054bc0002003a0001c1b3009a003700e9b920009c
:1054cc00f05e8000015f8000e00f5000e08f58001c
:1054dc000a0032000004eb00c8678800f8678800f7
:1054ec0000c0eb00d9fd070080c7200048e89800f9
:1054fc0029409000644040009b003700725d8000a2
:10550c0003002000d05d800010400200000000006d
:10551c00a4003700ac400200000000000004e000d2
:10552c00d20032000040eb00ca4002000000000034
:10553c00e1b92000214090006e404000c7003700c8
:10554c00f1678000e05e8000808f50001b0031000e
:10555c0000b520001000e0000b003a00905a8000cb
:10556c000000e00008003a00a05a80000000e000b3
:10557c0005003a0001c1b300e0b9200001487800f1
:10558c0020002000bb0037003268800003002000a0
:10559c00d05d800010400200000000000001eb0014
:1055ac00d2678800e1b92000214090000040e8005b
:1055bc00a040980002007800ad003700725d8000ba
:1055cc0003002000d05d80001040020000000000ad
:1055dc00e1b92000214090006b4040009f00370053
:1055ec0000b520001000e0000d003a00905a800039
:1055fc000000e0000a003a00a05a80000000e00021
:10560c0007003a00d06780000000e00004003a0078
:10561c0010002000d0678800a041020000000000ac
:10562c00ac400200000000000004e0008f003200db
:10563c000040eb00ca4002000000000042688000fd
:10564c0003002000105f8000defe3700e240020005
:10565c00000000003268800003002000820f500020
:10566c00838f58008100350088c7200048e89000df
:10567c000004e00005003a0010c0b30040ec9800b4
:10568c0040c0b30071fd070078003700ac40020049
:10569c00000000000004e000070032000040eb00b6
:1056ac00ca40020000000000e1b920002140900037
:1056bc0000c0e8006900370048e89000e14f400066
:1056cc006a003a00605d8000e30f50000800320071
:1056dc00e20f500007003200e10f500004003200ce
:1056ec00e40f500002003200e50f500058003a0061
:1056fc0020c0b30055fd07005500370000b5200051
:10570c001000e00006003a00905a80000000e00013
:10571c0003003a00a85a80000800e00004003200a0
:10572c0011c1b300e0b92000014878004f003700e8
:10573c00e9b9200020ba2000507090000004e0006d
:10574c0008003200c05d8000826a8000936a80008d
:10575c001040020000000000294090000040e800ca
:10576c000100370050c1b300a044980090fe3700f0
:10577c00e9b9200000c0eb0034fd070082c720000f
:10578c000040eb0040e99800d15e80000100e00091
:10579c00080032000100d100306b880010c0b3004b
:1057ac0040499800294090000040e800a04498002f
:1057bc002e0037002940900000c0e800a04498005b
:1057cc00010078002a00370080c720004048900074
:1057dc00e14f400025003a0071c1b300e0b9200050
:1057ec002140980021003700d05d80006011b80086
:1057fc001040020000000000f06780000000e8008c
:10580c00f067880012003700ac4002000000000076
:10581c000004e000150032000040eb00ca4002001a
:10582c0000000000e1b920002140900069405000c8
:10583c000a003700ac400200000000000004e00049
:10584c000a0032000040eb00ca40020000000000d9
:10585c00e1b92000214090000040e800a0409800f1
:10586c0002003700a0c0b300004978000000eb0034
:10587c000080fb000080fb0007003700e64f510062
:10588c0004003200e54f51000200320020002000dd
:10589c0001003700100020004f04be00000006007d
:1058ac00881f780000d12000104478000804e00024
:1058bc0003003200e14f540046003a00200037004c
:1058cc0000b520001000e00042003200905a800029
:1058dc000000e0003f003200a05a80000000e00011
:1058ec003c003200e240020000000000e00f5000db
:1058fc00e08f580004003400e24002000000000079
:10590c000841780005003700e2400200000000006a
:10591c000841780060001000e08018000319200096
:10592c00830f5000e08f58000100340022c0b300f8
:10593c0011c0b30000d120000148780026003700c8
:10594c0000b520001000e00022003a00905a8000c0
:10595c000000e0001f003a00a85a80000800e00098
:10596c001c003a00e240020000000000e00f500072
:10597c00e08f580007003400e240020000000000f5
:10598c0002322000820f5000e08f58000b003400d0
:10599c0008003700e2400200000000006000100028
:1059ac00e080180003322000830f5000e08f580075
:1059bc000200340012c0b30003003700a041020003
:1059cc00000000000841780000d120000048eb00e6
:1059dc00010037000041eb000280fb004f0478000f
:1059ec000000060023b4200093407800e1cf500063
:1059fc001200320003003900e2cf500043003a009d
:105a0c001f00370081c720000040eb008050980039
:105a1c00c0709800d2c2bf000018a3003b003a002f
:105a2c00d2c2bf000008a30038003a0010c0b30077
:105a3c00805098008049780034003700d2c2bf00f3
:105a4c000018a30003003a00d2c2bf000008a30054
:105a5c00020032008049eb002c00370082c7200086
:105a6c0002509000e14f400028003a0020c0b300e3
:105a7c008049780041e19800c4e2a9002300370076
:105a8c0081c7200041e09000e14f400004003a0043
:105a9c0041709000e24f500001003200c4e2a800b7
:105aac00d2c2bf000018a30003003a00d2c2bf004c
:105abc00614160000300320020b420000048eb007c
:105acc000f00370081c72000d3c2bf000008a3001d
:105adc000d003a00417090000004e00003003a0011
:105aec0010c0b300c070980008003700e14f4000b0
:105afc0006003a0031c0b30020b420000148780001
:105b0c00c4e2a80001003700c270980020b4200045
:105b1c001080fb00000006000060fe0040a7a900fa
:105b2c0083e0a8000402040000000000000006004e
:105b3c00889fbe008a1f7800e0b9200010407800d2
:105b4c00f44f500009003a00005a8000e10f500059
:105b5c00dd023a000060fe0040a7a90083e0a80027
:105b6c000402040000000000d70237000080fb0094
:105b7c0001002000f30f5000e08f5800d2023e00cd
:105b8c000060010013003700250037003200370099
:105b9c00ca003700e7003700ab013700620237005c
:105bac00950237009e023700b0023700af02370073
:105bbc00ae023700ad023700ac023700ab02370043
:105bcc00aa023700a9023700a8023700a702370043
:105bdc00a602370010002000305588000004eb00ae
:105bec00685d880000c0eb0018fc070000c0eb00eb
:105bfc001ffc0700d402a90088578800785788003a
:105c0c005857880080c7200040689000e14f400042
:105c1c00ad023a00e0b920001048e800aa023700b3
:105c2c00305f80000018a300a7023200ac410200d4
:105c3c0000000000864202000000000021c0b300fa
:105c4c00e0b920000148780011c0b30080c72000e3
:105c5c00415098009c023700e9b92000294090007f
:105c6c00e44f50005b00320008003e00e14f500052
:105c7c002a0032000e003900e24f50003100320091
:105c8c00e34f500082003a0036003700e64f5000d8
:105c9c00600032005a003900e74f500072003200a9
:105cac0011c0b300e84f50007a0032007800370082
:105cbc00105f80000000e00006003200805d800074
:105ccc000000e00003003200705d80000000e00086
:105cdc0004003a00a1c0b300e0b9200001487800ec
:105cec006b00370000c0eb00d8fb0700605d800044
:105cfc00e50f500002003a0000c0eb00dcfb07008f
:105d0c000004eb002868880002400200000000003c
:105d1c00a0410200000000004e0037002068800007
:105d2c000000e80020688800e50f500002003c00ed
:105d3c0020c0b30055003700c0c0b300804c7800c1
:105d4c005300370022688000802520000091b900a4
:105d5c00cf91de00e00120001040020000000000a6
:105d6c0048003700ac400200000000000004e000d6
:105d7c00470032000040eb00ca4002000000000067
:105d8c0000b520001000e00009003200905a80009d
:105d9c000000e00006003200a05a80000000e00085
:105dac00030032002940900000c0e90037003700a2
:105dbc0011c0b300e00120007e3e02000000000094
:105dcc00e1b92000214090000040e800a04098007c
:105ddc002f00370000b520001000e0002c0032002e
:105dec00905a80000000e00029003200a05a800088
:105dfc000000e0002600320050c0b3002300370042
:105e0c008040eb00e00120007e3e0200000000001c
:105e1c001c00370000b520001000e0001c003a0008
:105e2c00905a80000000e00019003a00a85a800047
:105e3c000800e00016003a00a0410200000000003b
:105e4c00725d800003002000e00120001040020081
:105e5c0000000000294090000040e800a044980099
:105e6c00884078000b003700ac40020000000000b6
:105e7c000004e000060032000040eb00ca400200c3
:105e8c0000000000294090000040e800a044980069
:105e9c008040eb000104e00024003a0080c72000a1
:105eac0040509000e14f400007023a00c1c0b300df
:105ebc00e0b92000014878000302370000c0eb0075
:105ecc0062fb0700605d8000e50f500002003a00a5
:105edc0000c0eb0066fb070070578000e10f50001c
:105eec0007003a000000eb008057880070578800cc
:105efc005057880081c7200080f09800c0f09800af
:105f0c00605d8000e50f500001003200d402a90052
:105f1c00ac400200000000000004e000ea01320086
:105f2c000040eb00ca4002000000000041c0b3007a
:105f3c00dfff37000240020000000000915a800091
:105f4c0000b520001000e000070032000100e00066
:105f5c000c003200a05a800011c0b3000000e00019
:105f6c0006003a00070037000100e00005003a0087
:105f7c00a15a80000100e00002003a0000d120008c
:105f8c000148780000c0eb0030fb070028ba200065
:105f9c00605d8000e50f500002003a0000c0eb008d
:105fac0033fb0700715780000100e00006003a0047
:105fbc00815788005157880080c7200001f0980055
:105fcc0041f09800d402a900305f80007802600094
:105fdc0051c0b300b6ff3a000028a300ba0132004a
:105fec00487090000004e00015003a00825d8000cb
:105ffc0003002000a26a8800b36a8800a05d8000bc
:10600c0000005100e0805900806a8800916a880085
:10601c00f05e8000015f8000000151008181590019
:10602c00e26a8800f36a8800b05d800001002000fd
:10603c00800f5100818f5900810035005b023700c1
:10604c00e14f500022003a00805d80006103b800ef
:10605c00a66a8800b76a88006000b800c06888002b
:10606c00d1688800a05d8000010020000001530071
:10607c0081815b00826a8800936a8800a06888002e
:10608c00b1688800f45e8000055f80000401530055
:10609c0085815b00e26a8800f36a8800e468880006
:1060ac00f5688800b05d800001002000800f510071
:1060bc00818f5900620035000000530081805b0025
:1060cc00800f5200818f5a005d003c003702370070
:1060dc00e24f500007003a00825d80006110b8006a
:1060ec00a06a8800b16a88006068800090688800a7
:1060fc0021003700e64f500017003a00805d800009
:10610c006101b800a26a8800b36a8800a2698000a5
:10611c00b3698000626988007369880082698000b5
:10612c009369800042698800536988004068880040
:10613c00425e8000020050000100200020698800af
:10614c0031698800505e80000100200000698800e1
:10615c001169880015023700e34f50001e003a0009
:10616c00825d80006110b800a06a8800b16a880066
:10617c006368800093688800f35e8000115f800084
:10618c00b0042000808f500009003600426888005f
:10619c00a05d80000000510001002000806a880092
:1061ac00916a88000300510030688800ff013700b5
:1061bc00d45e880054749800b25d800003004100e6
:1061cc00406888006000b800806a8800916a880086
:1061dc0032688800f5013700e54f500016003a0090
:1061ec00805d80006102b800a46a8800b56a8800ee
:1061fc00846a8800956a8800005e80000000520066
:10620c00e0805a00e06a8800f16a8800125e800023
:10621c0003002000626a8800736a8800e00f500057
:10622c00e08f580006003500840f5100858f59000f
:10623c0003003c00dd01370000000000feff3700ca
:10624c00d1c0b3001aff370072578000305f800056
:10625c00f00060000e003200e10f510007003a0020
:10626c000000eb008057880070578800505788005a
:10627c0081c7200080f09800c0f09800605d80001d
:10628c00e50f50000e003200d402a8000c003700bd
:10629c00e10f510006003a008157880071578800c1
:1062ac005157880080c7200001f0980041f09800f9
:1062bc00605d8000e50f500001003200d402a9009f
:1062cc0077fd0700e14f50009a003200e24f50007a
:1062dc009c003200305f8000e100600090003a00ca
:1062ec000038a300f8003200e4b9200024409000ec
:1062fc000081fb0003002000e90f5100e08f5900e2
:10630c007d003e0004047800026001000b003700a1
:10631c000f0037006c0037001000370029003700e1
:10632c0031003700510037005c0037006600370041
:10633c000000370010c0b300740037008000eb0081
:10634c001168880010c0b300204298006c00370020
:10635c00105f80006011b8001d00370000b52000f0
:10636c001000e00006003200905a80000000e000af
:10637c0003003200a05a80000000e00002003a0046
:10638c0001c1b30029003700e8b920001168800072
:10639c00e05e8000808f50000200310040c0b300ee
:1063ac000f003700725d800003002000105f80003a
:1063bc0010400200000000002840900065404000a2
:1063cc0007003700105f8000f25e8000035f8000e2
:1063dc001040020000000000284090000040e8003f
:1063ec002044980048003700ac4002000000000038
:1063fc000004e000440032000040eb00ca40020000
:10640c000000000000b520001000e0000a0032007f
:10641c00905a80000000e00007003200a05a800073
:10642c000000e0000400320011c1b300e0b920000c
:10643c00014878003400370020ba200020c09000ba
:10644c000080fb0001002000421f20000300200000
:10645c006c18020000000000206b880011c0b30013
:10646c0080c72000014898001e00370080c720001c
:10647c0000489000e14f400023003a00105f80007c
:10648c006011b8001040020000000000106880008d
:10649c000000e8001068880012003700ac400200d1
:1064ac00000000000004e000170032000040eb0088
:1064bc00ca40020000000000e1b920002140900019
:1064cc00644050000a003700ac400200000000009d
:1064dc000004e0000c0032000040eb00ca40020057
:1064ec0000000000e1b92000214090000040e800cd
:1064fc00a040980004003700a0c0b300004a780008
:10650c0001407800010037000040eb000004e0007f
:10651c006d003200305f80000048a3006a003a0032
:10652c0071c0b30062fe3700ddfc0700e14f500084
:10653c0002003a00b1c0b3005dfe3700e24f5000dc
:10654c0002003a00f1c0b30059fe3700305f800002
:10655c006104600022003a000028a3005a003200b7
:10656c00ccf9070080447800e14f50001e003a003f
:10657c0020ba2000b0c090000104e00018003200e6
:10658c008ac720004ac190000204e00014003a00bf
:10659c0070578000e10f500005003a0088578800c2
:1065ac00785788005857880008f5980042f59800ed
:1065bc00605d8000e50f500001003200d402a8009d
:1065cc000180fb0001002000421f2000030020007e
:1065dc006c18020000000000106c880049c598007f
:1065ec0081c0b30032fe3700a1c0b300e24f5000af
:1065fc002ffe320034003700305f80000008a3000b
:10660c0031003200725d800003002000e0012000a8
:10661c00104002000000000031c0b30024fe37001f
:10662c00305f80000008a30027003200725d8000fc
:10663c0003002000e00120001040020000000000d8
:10664c0031c0b300e0b920000148780000c0eb0075
:10665c007ef90700605d8000e50f50001a003a00db
:10666c0000c0eb0082f9070017003700024002005f
:10667c000000000000c0eb0074f90700605d8000b2
:10668c00e50f500002003a0000c0eb0078f907005b
:10669c0070578000e10f500007003a000000eb003b
:1066ac0080578800705788005057880081c7200099
:1066bc0080f09800c0f09800605d8000e50f5000fd
:1066cc0001003200d402a90081c7200041c0900013
:1066dc00e14f40000f003a000041eb00c2c09800af
:1066ec0070578000e10f500006003a000000eb00ec
:1066fc0080578800505788007057880080f09800a9
:10670c00c2f09800605d8000e50f5000010032007f
:10671c00d402a900a0b420001004e0002000320034
:10672c00024002000000000081c7200001e8900038
:10673c000004e00003003a0010c0b30080e89800a9
:10674c0017003700e14f400015003a00dc3b020017
:10675c000000000094528000c0a52000104078007a
:10676c00704060000600320062528000735280005c
:10677c000400780010400200000000000500370003
:10678c0000a5200090407800040078007e3e0200b6
:10679c00000000008040eb0080c7200001e898005a
:1067ac0030de2000104078006840600007003a009e
:1067bc0080c7200000609000e14f400003003a00c9
:1067cc0021c1b300e0b920000148780085fc070026
:1067dc00e34f500013003a00715780000100e000b5
:1067ec0010003a0020b42000014878008057800047
:1067fc000000e800805788005157880011c0b30092
:10680c0080c7200001f0980011002000715788000b
:10681c00605d8000e50f500001003200d402a8003a
:10682c006157880082c7200002f09000e14f4000c1
:10683c000f003a0070578000e10f50000c003a0036
:10684c0061578000e18f500009003a000040eb00d6
:10685c0000f1980041f19800605d8000e50f500058
:10686c0001003200d402a9000000eb006057880040
:10687c005cfc0700e34f50001f003a00715780008a
:10688c00e18f50001c003a00625780000200e000cb
:10689c0019003a0020b420000248780083c7200079
:1068ac00c2f19800805780000000e80080578800f3
:1068bc00e40f50000600360031c1b300e0b92000ef
:1068cc0001487800825788007257880024003700ee
:1068dc0081f19800505780000000e8005057880064
:1068ec00605d8000e50f500001003200d402a8006a
:1068fc00615788001a00370083c7200043f09000ce
:10690c00e14f400016003a0072578000e10f510031
:10691c0013003a00615780000100e00010003a00bb
:10692c00c1f1980050578000e30f5000040036006e
:10693c00515788008157880071578800080037002c
:10694c0082f198000000e80050578800605d8000dc
:10695c00e50f500001003200d402a80062578800f5
:10696c00e1b920001104e00007003200305f800024
:10697c000078a3000400320010c0b30080487800f7
:10698c0020b420000048eb00e2b92000124078004f
:10699c00a1b92000914f50000600320080487800c9
:1069ac000040eb00204198000200370061c0b300aa
:1069bc003ffd37004f0578004f04be000000060075
:020000040000fa
:1069cc00889fbe008a9fbe000000e00001003d00d1
:1069dc000000ea00cf80de005200200003002000ff
:1069ec004e180200000000000004be00820c2000c3
:1069fc00030020006c18020000000000905b88006f
:106a0c00a15b880002552f00030020000800be0087
:106a1c006c180200000000008100d1000080d3003f
:106a2c00305c8800415c8800f2508000cf91de0021
:106a3c006c1802000000000002242400f300200067
:106a4c0078180200000000000005be00105c8800f1
:106a5c00215c880090508000a150800098180200a2
:106a6c00000000000001be00405b8800515b880004
:106a7c006c180200000000000004be00f05b8800ef
:106a8c00015c88000a01be000a00be006c180200fe
:106a9c0000000000d05b8800e15b8800080140002a
:106aac0089814800040033000200be00ce180200a9
:106abc00000000000b0037006100610001002000a5
:106acc008301d1000281d30002007000838070002a
:106adc00ce180200000000000001be0026190200c2
:106aec0000000000e01902000000000098180200ed
:106afc0000000000b05b8800c15b88005251800030
:106b0c00635180006c18020000000000505c88008b
:106b1c00615c880002712200030020006c180200e6
:106b2c000000000072518000047122000491b90031
:106b3c007818020000000000705c8800815c8800fe
:106b4c00983e2000090020000801be006c180200cd
:106b5c0000000000027122000300200078180200df
:106b6c0000000000705b8800815b8800923e200072
:106b7c00820f5000e08f580002003600785b8800ce
:106b8c00895b8800705b80004f05be004f04be001f
:106b9c0000000600a4dc2000e25680006611b9005b
:106bac00e0a920001080fb00020040000000400023
:106bbc00e0017a004298de0040508800f0568000d8
:106bcc006600b900f2a920001281fb00000141000f
:106bdc0002014100c419dd0062007a00808141008d
:106bec005350880000000600889fbe008a9fbe009c
:106bfc00f9568000b9528800eb568000ab528800e1
:106c0c00b7568000a5568000985680008a568000a2
:106c1c0041578000f01f2000808f500069003c001d
:106c2c004157800014578000f00f2000808f5000d7
:106c3c003b003c0042578000905480000201410010
:106c4c00e3c12900628179000280b900cf89de009e
:106c5c00410bdd004f01de000201730002037800de
:106c6c000000eb00b05288000400e0000500320088
:106c7c00305780000000e00002003c0082037800e6
:106c8c006a003700e4c12900f0ac200011c0b30049
:106c9c0090cf100010003a004157800092548000b1
:106cac00f00f2000010050000000400060007a004e
:106cbc000091b9004118dd004f11de000201700097
:106ccc00cf99de00020278000000eb00a052880091
:106cdc0086037800b0003700415780009254800042
:106cec00f00f2000010050000000400060007a000e
:106cfc000091b900c118dd004f11de000281700057
:106d0c00cf99de000202ea00953e20008482420008
:106d1c0010002000a0528800860378009f003700e6
:106d2c000400e00005003200305780000000e00055
:106d3c0002003c0008037800110037004157800026
:106d4c0092548000f01f2000010050000000400011
:106d5c00e1c12900608078000091b900411bdd0081
:106d6c004f11de0002017300cf99de000203ea002e
:106d7c00973e20008683430010002000b05288000c
:106d8c00e4c12900f0ac200011c0b30090cf10007a
:106d9c0006003a00405780009254800000004000ea
:106dac00040040000000960073003700425780003a
:106dbc009054800002014100040141000201960040
:106dcc005c0037004157800014578000f02f2000e2
:106ddc00808f500035003c0042578000905480005a
:106dec0002014100e3c129000301410002019400aa
:106dfc000280b900410bdd004f00de000000730083
:106e0c00cf88de000003ea00973e20008683430013
:106e1c0010002000b05288000400e0000500320091
:106e2c00305780000000e00002003c000a027800ad
:106e3c005a003700e4c12900f0ac200011c0b300a7
:106e4c0090cf10000d003a00415780009254800002
:106e5c00f02f2000010050000000400060007a007c
:106e6c000091b9004118dd004f11de0002017000e5
:106e7c00cf99de000202ea0034003700415780004f
:106e8c0092548000f02f20000100500000004000c0
:106e9c0060007a000091b900c118dd004f11de00ce
:106eac0002817000cf99de00380037000400e0004a
:106ebc0005003200305780000000e00002003c006a
:106ecc00080378001000370041578000925480006e
:106edc00f03f20000100500000004000e1c12900fb
:106eec00608078000091b900411bdd004f11de007d
:106efc0002017300cf99de00020378000000eb0062
:106f0c00b052880082037800e4c12900f0ac200064
:106f1c0011c0b30090cf100011003a00425780000e
:106f2c00905480000201410003a02f000301410096
:106f3c0062017a000280b9004109dd004f00de00d9
:106f4c0000007100cf88de000002ea00953e2000b0
:106f5c008482420010002000a05288000f003700ed
:106f6c0040578000925480000000400001a02f0088
:106f7c000100400060007a000091b9004118dd006a
:106f8c004f11de0002017000cf99de000202780082
:106f9c000000eb00a052880082027800c1a52000fe
:106fac0002c4b300114061004c003a0091407800db
:106fbc0062c0600049003200098144006101110087
:106fcc0002c1b900b0528000000040006100100006
:106fdc0000b0b90000015100cf91de00e00f51006c
:106fec00e08f590013003400a85480000804e90015
:106ffc00030033008381d1000281d300fbff3700f3
:10700c00c25488000200e0000f0034000600e000cb
:10701c0002003a00f0ff2700c0548800d0548000d2
:10702c00f1a920008048780010002000105588003d
:10703c00050037000000eb00c0548800e1548000cc
:10704c00f0a92000014878000b8145006101110076
:10705c0002d1b900a0528000000040006100100075
:10706c0000a0b90000015100cf91de00e00f5100eb
:10707c00e08f590013003400a85480000804e90084
:10708c00030033008381d1000281d300fbff370062
:10709c00b25488000200e000150034000400e00047
:1070ac0002003a00f0ff2700b0548800d054800052
:1070bc00e1a92000804878001000200000558800cd
:1070cc000b0037000000eb00b0548800e154800046
:1070dc00e0a920000148780005003700e05480004a
:1070ec00f1a9200080487800e1a9200080487800b0
:1070fc0095a0a900b7568800a5568800965688001a
:10710c0084568800c0a5200001c4b30010c06000e4
:10711c0005003a00b2528000f2568800a652800058
:10712c00e65688009bfe070095a0a8004f05be0000
:10713c004f04be0000000600889fbe008a9fbe0060
:10714c00c1a5200002c4b3001140610011003a0037
:10715c009140780061c0600003003a00a0558000a7
:10716c004580de0009003700b05580000171220017
:10717c00810f500003003c00018f2d00810f500047
:10718c0002003d001150880032003700105088007a
:10719c00300037009140780061c0600003003a0075
:1071ac00a45580001450880002003700b0558000b0
:1071bc00105088001050800001e22400810f500014
:1071cc0003003c00011e2b00810f500001003d000c
:1071dc0011508800025680001356800035578000ed
:1071ec00020078000200e00001003d000200ea000d
:1071fc00c280de00f4ff270005a0de00808f500067
:10720c00140034008580e900105080000000e0007c
:10721c000700340001a0de0010508800cf80de0093
:10722c00800f5100818f59000a003400070037008d
:10723c0001a0de000000ea0010508800cf80de00c4
:10724c00800f5100818f590002003d0000568800cc
:10725c0011568800c2a520009280fb00c508de00f4
:10726c00e1c060001280fb004400de006140600061
:10727c0080cf5000070032001280fb00e1528000ea
:10728c000000d100700060000140a10080807000ff
:10729c00e1528800124178007040610038003200e1
:1072ac009500a900705480008154800032548000f5
:1072bc004354800000045100818459001854880004
:1072cc00295488009500a800225780006110b9004d
:1072dc00800f5400818f5c0015003d000200ea0015
:1072ec00cf80de00800f5400818f5c0010003400d2
:1072fc0061a0200070b920001004e00003003200ef
:10730c0010c0b30080487800010037008048eb00c3
:10731c006000b8002056880031568800005688005e
:10732c001156880010002000305588005700370097
:10733c0060a020000048eb00105080000000e0002e
:10734c0002003d000000ea0010508800005680004a
:10735c000000e00001003d000000ea006105b900fa
:10736c0042012000030020000a00be006c1802003d
:10737c0000000000800f5400818f5c00020034007c
:10738c00105080000700370060001000e0801800eb
:10739c00800f5400818f5c0004003d001050800071
:1073ac000000ea00cf80de003600370080558000f8
:1073bc00cf80de0002002800430020006c18020081
:1073cc00000000000a01be004e1802000000000080
:1073dc000001be00e00f5000e08f580002003a00a0
:1073ec0012002000030020000800be006c180200f0
:1073fc0000000000cf89de00410add004f01de00f5
:10740c00020172002256880033568800105080000a
:10741c006102b900840f5100858f590003003400bc
:10742c002456880035568800180037000000ea0002
:10743c00cf80de00800f5100818f59001100350084
:10744c0061005100e080590004032000840f5000bb
:10745c00e08f580003003e002003200001002000b4
:10746c00080037001203b0000380b00000032000b6
:10747c00800f5100e08f590004003e00e0fc2f000b
:10748c00f1ff2f0020568800315688009855800057
:10749c002656800037568000045680001556800012
:1074ac000401530085815b00e00f5200e08f5a000d
:1074bc00100034006140b900800f5100818f5900d9
:1074cc0016003c00885580000800ea00cf80de00e2
:1074dc00800f5100818f590013003d006140b900ad
:1074ec000000520081805a00005688001156880016
:1074fc000f0037000800ea00cf80de00800f51003b
:10750c00818f5900f5ff350080558000cf80de005b
:10751c00800f5100818f590003003400040040009b
:10752c0085804800f0ff3700065688001756880003
:10753c00325780000200e0001e003a000156800025
:10754c000100e00001003d008100ea0011508800bc
:10755c00e0a5200002487800c0a52000104078006b
:10756c007040600003003200820c20004038200084
:10757c000800370010578000e10f500003003a005c
:10758c00c2122000e02e200002003700c21c200096
:10759c0080252000808f500008003d00828f500015
:1075ac000600340011c0b300e0a5200001487800ab
:1075bc0002003700e0a520000048eb0002568000d6
:1075cc0013568000f0ae20000100200002004000a5
:1075dc0083804800e45d2100840f5000e08f580048
:1075ec0003003e00405280005152800002003700e0
:1075fc0020528000315280000053880011538800c3
:10760c009500a90011032000810f5100e08f590053
:10761c001000340000402800717d21004e1802003b
:10762c00000000000004be0011e1a80011c0b3006e
:10763c00f0ac200001487800c0a5200002c4b300c3
:10764c0010406100290032002451800094548800bd
:10765c0026003700caa52000f0fc2f00f1ff2f00f8
:10766c00800f5100818f59000e003d000040280012
:10767c00717d21004e180200000000000004be00c5
:10768c0011e1a800f0ac200000c8eb0001c4b3006d
:10769c001ac06000150032002251800092548800fc
:1076ac001200370011e1a9000621ef000a21ef00ba
:1076bc00e05280000080a100e0528800e05280007f
:1076cc000090a100e052880004c4b3001a4062008c
:1076dc0018fc2800c90720000004e00003003a0051
:1076ec0010518000905488003ffd0700c0a5200079
:1076fc0001c4b30010c060000f003a0002568000b5
:10770c0013568000e0558000f1558000800f510029
:10771c00818f590008003200e2558800f35588002b
:10772c0002007800a6fc0700905c880011c0b30032
:10773c0060b9200001487800f0ac200010407800bf
:10774c000000fb00cf80de000801be006c180200b8
:10775c000000000022578000cf91de006c18020060
:10776c00000000004609dd004a00de000000710048
:10777c00ca88de00c0558800d1558800241f20001f
:10778c00840f5000e08f580004003c00301f200094
:10779c0001002000c0558800d15588009500a80034
:1077ac004f05be004f04be00000006008000eb0039
:1077bc00415a8800215a880060b4200001487800a2
:1077cc0030b4200001487800a0b4200001487800b3
:1077dc0000000600881f78009500a90070548000f6
:1077ec008154800050548800615488009500a80092
:1077fc0048558000e20f540070003a00d1a52000db
:10780c001141780061406100100032009140780015
:10781c0062c0600006003a001141e20004003d0025
:10782c00a0b4200013c0b30090cf110007003a00a1
:10783c000000eb00b05588006000b80000568800ce
:10784c00115688001000200030558800c0a520007b
:10785c0010407800684060000400320036fe0700db
:10786c00e05280000030a100e052880002578000f6
:10787c0030578000800f51000e003200e60f51008f
:10788c000b003e000056800011568000f3ae200025
:10789c00830f5000e08f580006003c0032578800e0
:1078ac00001020000280de00205788000100370005
:1078bc0000578800c2a520009280fb00c608de009d
:1078cc00e1c060001280fb004700de0080cf50005a
:1078dc002c0032009500a90095a0a900d425ef003a
:1078ec00d421ef00c1e1a900c1e5a900c221ef003c
:1078fc00c225ef0011e1a9000621ef000a21ef00db
:10790c0001c4b30012c060000900320012518000a3
:10791c0092548800b4fc0700e05280000060a10083
:10792c00e0528800e05280000070a1000a0037008d
:10793c002351800093548800404d02000000000049
:10794c00a9fc0700e05280000060a000e052880013
:10795c00e05280000070a000e0528800a0002000df
:10796c0090028800c221ef0010002000102e880029
:10797c00c1e1a800c1e5a8009500a80095a0a80049
:10798c0011e1a8004155800030558000808f5000d7
:10799c00340032001000200040558800305588001b
:1079ac0081c7200080e09800c1e1a900c1e5a900d1
:1079bc00d425ef00d421ef0016003700e10f54005e
:1079cc0018003a0030558000e10f500025003200bd
:1079dc00405588008040eb0080c7200001e09800f3
:1079ec0081fc07006bfc0700404d0200000000000a
:1079fc008000eb00415a8800215a8800a00020002a
:107a0c0090028800110e8800182e8800c1e1a80091
:107a1c00c1e5a800e05280000030a000e0528800d0
:107a2c00100037000800e0000e003a00804c020005
:107a3c0000000000b64c020000000000504c020098
:107a4c00000000005a4d020000000000404d0200f2
:107a5c0000000000100020004055880030558800c0
:107a6c0052ff07004f0478000000060040508000d1
:107a7c00a02e880050508000a00e88007055800009
:107a8c00b00e8800c00e880060558000d00e8800b3
:107a9c00b02e880000000600889fbe008a9fbe00a2
:107aac008c9fbe006101b9006108b900000651004d
:107abc00818659008c4f88009d4f88008a53800026
:107acc009b53800002528000135280000c00be00b9
:107adc006c180200000000000004be00e25180009f
:107aec00f3518000b0538000c15380006c18020029
:107afc00000000000004540081845c004348dd0059
:107b0c004d44de0008047000cdccde000a044400b5
:107b1c008b844c00a0538000cf80de000005550004
:107b2c0081855d0002538000135380000a00be0063
:107b3c006c180200000000004309dd004d00de005f
:107b4c0000007100cd88de000001540081815c00d2
:107b5c008253880093538800545580006120b900eb
:107b6c00800f5100818f590005003c000402ea008f
:107b7c006120b900800f5100818f590002003d0037
:107b8c00a453880001003700a2538800e0a5200010
:107b9c0011c0b30090cf100003003a00a053800036
:107bac004280de00a0538800bc538800cd5388006f
:107bbc00a05380004f06be004f05be004f04be0010
:107bcc0000000600889fbe008a9fbe008c9fbe00ee
:107bdc006101b9006108b9000006510081865900a5
:107bec006c4f88007d4f88002a5380003b538000e7
:107bfc0002528000135280000c00be006c18020070
:107c0c00000000000004be00e2518000f35180002f
:107c1c0050538000615380006c180200000000007b
:107c2c000004540081845c004348dd004d44de00b8
:107c3c0008047000cdccde000a0444008b844c0098
:107c4c0040538000cf80de000005550081855d002b
:107c5c0002538000135380000a00be006c1802000f
:107c6c00000000004309dd004d00de000000710043
:107c7c00cd88de000001540081815c002253880015
:107c8c0033538800545580006120b900800f510097
:107c9c00818f590005003c000402ea006120b90004
:107cac00800f5100818f590002003d004453880021
:107cbc000100370042538800e0a5200011c0b3003a
:107ccc0090cf100003003a00405380004280de0049
:107cdc00405388005c5388006d53880040538000eb
:107cec004f06be004f05be004f04be00000006004c
:107cfc00881f7800000178000144780090528800b9
:107d0c0000a5200001487800401f20000010b8009a
:107d1c00c2032000030020004e18020000000000e7
:107d2c0080007800f2ac2000e14f540003003a00d0
:107d3c008000ea0000c9eb000200370010c0b3005d
:107d4c0000497800b155880020002000305588008b
:107d5c00e05280000050a100e05288004f047800ef
:107d6c00000006000000eb00d04f880011c0b300eb
:107d7c00c09f20000148780080c7200041789800ff
:107d8c0000000600881f780080017800014478000c
:107d9c0080c7200040789000e14f40000f003a006f
:107dac00c19f200010c0b300914f100008003a0092
:107dbc00d04f800000004100d04f8800830f50004e
:107dcc0003003900d34f880030c0b30080487800de
:107ddc0011c0b30080c7200041789800d04f8000bc
:107dec00421f20000200b800c20320000300200044
:107dfc004e18020000000000e14f540001003a0050
:107e0c000000ea00b05588002000200030558800a2
:107e1c00e05280000050a100e05288004f0478002e
:107e2c0000000600889fbe00800278000204be009d
:107e3c00e00f5100e08f590002003a0008e72f00d4
:107e4c00f9ff2f00c69f200016417800e24f510029
:107e5c003d003200e34f510011003200e14f510060
:107e6c0048003a0083c7200043789000e14f40005f
:107e7c0044003a00d04f800000804000d04f880072
:107e8c00850f500004003900d54f880030c0b30076
:107e9c00004b78003b003700c2799800390037005e
:107eac00d54f88009500a900705480008154800043
:107ebc00f04f8800015088009500a800e00f50009a
:107ecc00e08f580002003d00f007b0000180b000c8
:107edc00c789de00490add004701de00020172009d
:107eec00f24f880003508800809f200010407800db
:107efc000004e00006003a00a04f8000b14f800063
:107f0c00800f5100818f590008003d001d00370083
:107f1c00e14f50001b003a00a04f8000b14f800091
:107f2c00800f5100818f590016003d0021c0b30015
:107f3c00c09f20000148780011c0b30080c720000a
:107f4c00417898000f00370081c7200041789000dd
:107f5c00e14f40000b003a00d04f8000840f5000de
:107f6c000400390004005000d04f880010c0b3004a
:107f7c00030037000000eb00d04f8800004b780066
:107f8c00c0789800d04f8000421f20000200b8003b
:107f9c00c2032000030020004e1802000000000065
:107fac004749dd00c941de00830171004741dd0016
:107fbc003254880043548800220020003255880037
:107fcc00b055880012032000800f510002003500cc
:107fdc0020032000b0558800e05280000050a00023
:107fec00e052880011c0b30070b92000014878003d
:107ffc004f04be000000060030558000e20f500018
:10800c0003003a00e05280000080a000e05288009b
:10801c0000000600889fbe00000278000204be002b
:10802c00905288006252880073528800401f2000d2
:10803c000020b800c2032000030020004e180200ec
:10804c00000000000001be0000027800e00f5400a8
:10805c00e08f5c0002003a0008e72f00f9ff2f00c8
:10806c004748dd00c940de00810070004740dd005c
:10807c00305488004154880020002000305588007e
:10808c00b255880010032000800f520002003c0003
:10809c000000e800b0558800e05280000050a000bd
:1080ac00e052880011c0b30070b92000014878007c
:1080bc004f04be0000000600889fbe0080017800bf
:1080cc008144780002047800401f20000018b8009a
:1080dc00c2032000030020004e1802000000000024
:1080ec00000178006140b800305488004154880089
:1080fc00e1cf540005003a000201ea0060001000d4
:10810c00e08018003054880041548800b255880033
:10811c006011b8000256880013568800e0528000a7
:10812c000050a000e052880011c0b30070b92000cc
:10813c00014878009500a900725488008354880087
:10814c009500a8004f04be0000000600c0a520004a
:10815c0010407800704060000800320060a02000e1
:10816c001004e0000500320080c7200000e0900001
:10817c0011c0b300e14f4000010032008040eb0021
:10818c000180fb000000060061a020008048780000
:10819c0071b9200080487800000006009500a90005
:1081ac00c0528000d1528000000006003054800084
:1081bc0041548000000006009500a9007054800016
:1081cc0081548000f04f8800015088009500a80071
:1081dc00e00f5000e08f580002003d00f007b000a7
:1081ec000180b0004909dd004700de00000071008d
:1081fc00c788de00f04f88000150880000000600a0
:10820c00889fbe000004be00ebff07000001eb00de
:10821c00880f5000898f5800010035001200200093
:10822c00020078004f04be0000000600e4874700ff
:10823c00889fbe008a9fbe008c9fbe008e1f780058
:10824c000007780081bf9f00820578000404be00ff
:10825c000400be00eaff070080467800809f2000e3
:10826c000d487800e00f5400e08f5c0002003a00eb
:10827c0008e72f00f9ff2f000b00e00002003a0086
:10828c000b0678000c0037000e0578000006eb009a
:10829c00070037000b0555006150b800e2012000c3
:1082ac00030020004e1802000000000000064600eb
:1082bc008b0f5500f7ff31000c0046000100200029
:1082cc000d04e00003003a000000540081805c00c3
:1082dc00020037000800400089804800a04f880049
:1082ec00b14f8800c29f20000fb897000000e0003b
:1082fc00070032000000eb00d04f880011c0b30023
:10830c000149780080c720004178980003003700ad
:10831c00de4f880030c0b300004978004f0778006a
:10832c004f06be004f05be004f04be004f00b1000b
:10833c00000006009500a9006000b8007054880089
:10834c00815488009500a80000000600a0002000c1
:10835c0060508800605d8000e10f500019003a0009
:10836c00401f20000100200040528800515288001c
:10837c002052880031528800c07a21000100200070
:10838c000052880011528800407321000100200027
:10839c00e0518800f1518800d0cc2c00c1002400a1
:1083ac00c0518800d15188003033230031012400a2
:1083bc00a0518800b1518800f026210031b823006b
:1083cc002b003700e20f500002003200e30f500088
:1083dc000d003a00401f2000010020004052880090
:1083ec00515288002052880031528800e0c222008d
:1083fc0001002000005288001152880020b5220094
:10840c00010020000e003700e40f50001d003a0060
:10841c00c0122000010020004052880051528800f8
:10842c00205288003152880000d027000100200023
:10843c000052880011528800809127000100200012
:10844c00e0518800f151880000002000010924004f
:10845c00c0518800d1518800e07a240011f2230029
:10846c00a0518800b151880020952400d1b123007f
:10847c0080518800915188000003200070518800c1
:10848c0000000600e50f50001c003a00c01220004e
:10849c000100200040528800515288002052880070
:1084ac003152880000d027000100200000528800c3
:1084bc00115288008091270001002000e0518800b3
:1084cc00f15188000000200001092400c0518800ef
:1084dc00d1518800e07a240011f22300a0518800c9
:1084ec00b151880020952400d1b12300805188001f
:1084fc009151880000032000705188000000060094
:10850c000400fa00889fbe008a9fbe008c9fbe00ac
:10851c0002002000832c2400c0518000d151800027
:10852c004a1a020000000000b21a0200000000000b
:10853c00505188006151880002002000832c2400d7
:10854c00a0518000b15180004a1a020000000000c6
:10855c00b21a0200000000000005780000518800eb
:10856c0002002400c36124008051800091518000de
:10857c004a1a020000000000b21a020000000000bb
:10858c00f050880070518000cf80de00ce180200c1
:10859c000000000080bf9f0091bf9f0002002400dc
:1085ac00c36924004a1a02000000000002402200a5
:1085bc0043972400f41a0200000000002204260055
:1085cc0053e6230026190200000000000006be003e
:1085dc00d0508800e150880002002000832c240039
:1085ec004a1a0200000000000004be00b0508800cf
:1085fc00c1508800cfd5de000a00be00ce180200a4
:10860c00000000000001be000800be002619020098
:10861c000000000090508800a150880002002c003f
:10862c00f3472400c0518000d15180004a1a020047
:10863c000000000002002000032024004a1a02005f
:10864c00000000000004be0060508000cf80de00ff
:10865c00ce180200000000000005be000001be00a4
:10866c000800be004a1a020000000000323323004a
:10867c00330d2400f41a0200000000000200200058
:10868c00832c2400f41a020000000000b21a02002d
:10869c00000000004051880032332300330d2400c9
:1086ac000800be00f41a020000000000b21a02001a
:1086bc000000000030518800205188000c01be00e1
:1086cc00a0518000b151800026190200000000006a
:1086dc000001be00c0518000d15180004a1a020036
:1086ec000000000002002400a34724004a1a0200e4
:1086fc00000000000a01be004a1a0200000000003f
:10870c000fb997009fb99700f41a020000000000ff
:10871c0002002000832c2400f41a02000000000048
:10872c00b21a020000000000105188000200200064
:10873c00031e24000fb897009fb89700f41a02008c
:10874c00000000003233230033052400f41a020029
:10875c000000000002002000037024004a1a0200ee
:10876c0000000000b21a02000000000080508800d7
:10877c006101b90000002800411f20004e180200c2
:10878c0000000000705088004f06be004f05be0070
:0c879c004f04be000080fa000000060040
:020000040000fa
:1087a800809fbe003400f80000c0b300a00188001c
:1087b8008460a900c1b320001140e8008048780017
:1087c800f34f500007003400e05280000030a00052
:1087d800e0528800a06780000000e800a0678800d9
:1087e8008048eb00b1b320001140e80080487800d1
:1087f800e34f5000010034008048eb00e0b3200054
:108808009140780090cf500002003c00d422a8008c
:1088180001003700d422a900605d8000e50f5000f8
:108828000d003a00a1b320001140e800804878000c
:10883800e34f5000010034008048eb00d0b3200023
:108848009140780090cf500002003c00d402a8006c
:1088580001003700d402a9003400f9004f00be001f
:10886800004006003600f800809fbe00829fbe00d0
:10887800849fbe00869fbe003400f80000c0b3008d
:10888800a00188008500a900d262a800c055800018
:10889800d1558000600888007108880095a0a9005b
:1088a8007108800050088000808f500006003e004c
:1088b8006108800030088000808f500002003e0070
:1088c8000621ef000a21ef0095a0a800d0a52000fe
:1088d8001040780061406000060032004057800078
:1088e8000004e00003003a00e05280000090a0007d
