:020000040000fa
:080000000402040000000000ee
:020000040000fa
:100408008f982000209d2000000188000000000037
:100418000a00070011000700000020000000e000ab
:10042800020032000000020000000000c80e0200b6
:10043800000000000040da000000fe004440a9006f
:10044800004020000000e00003003200000020000f
:10045800a00188004440a80000000600e014210024
:10046800010020001600370062004000e0804800cc
:10047800910188009001ba0062004000e0804800c5
:10048800910188009002ba0062004000e0804800b4
:100498000002eb006028e10005003a008301e90052
:1004a80007003300038009000059eb0004003700ff
:1004b8006128e100010032000082eb00050007001e
:1004c800910188001001ba000200e000e6ff3a003e
:1004d8000000050091018800800278006200400059
:1004e800e08048003559ba008301e900080032006d
:1004f8002559ba008301e900050032000400e00034
:10050800f4ff320015d9ba008301e900f1ff3a007f
:1005180000000600000000000000000000000000cd
:1005280000000000000000000000000000000000c3
:10053800000000008001eb000200370081717800a4
:100548008301e800828f5100fcff3a00000006009a
:020000040000fa
:0200000401f009
:04000000ffff0000fe
:020000040000fa
:0200000401f009
:04000800fdff0000f8
:020000040000fa
:0200000401f009
:04000c0078ff000079
:020000040000fa
:0200000401f009
:040010005dff000090
:020000040000fa
:0200000401f009
:0400140077ff000072
:020000040000fa
:0200000401f009
:04001800ffff0000e6
:020000040000fa
:0200000401f009
:04001c00ddff000004
:020000040000fa
:10000800921100002e100000441000005a10000049
:10001800701000009211000092110000921100006f
:100028009211000092110000921100001a170000ae
:10003800921100009211000092110000921100002c
:100048002417000092110000921100002a170000e6
:10005800301700003c1700009211000092110000b8
:1000680092110000921100009211000092110000fc
:1000780092110000921100009211000092110000ec
:1000880092110000921100009211000092110000dc
:1000980092110000921100009211000092110000cc
:1000a80092110000921100009211000092110000bc
:1000b80092110000921100009211000092110000ac
:1000c800921100009211000092110000921100009c
:1000d800921100009211000092110000921100008c
:1000e800921100009211000092110000921100007c
:1000f800921100009211000092110000921100006c
:10010800921100009211000092110000921100005b
:100118009211000092110000921100009217000045
:10012800921100009211000092110000921100003b
:10013800921100009211000092110000921100002b
:100148009211000092110000a817000092110000ff
:10015800921100009211000092110000921100000b
:1001680092110000921100009211000092110000fb
:1001780092110000921100009211000092110000eb
:1001880092110000921100009211000092110000db
:1001980092110000921100009211000092110000cb
:1001a80092110000921100009211000092110000bb
:1001b80092110000921100009211000092110000ab
:1001c800921100009211000092110000921100009b
:1001d800921100009211000092110000921100008b
:1001e800921100009211000092110000921100007b
:0801f8009211000092110000b9
:020000040000fa
:1002080092110000861000009c100000b21000003f
:10021800c810000092110000921100009211000015
:100228009211000092110000921100003811000094
:10023800921100009211000092110000921100002a
:10024800921100009211000092110000560a00005d
:10025800da0c0000921100009211000092110000c7
:1002680092110000921100009211000092110000fa
:1002780092110000921100009211000092110000ea
:1002880092110000921100009211000092110000da
:1002980092110000921100009211000092110000ca
:1002a80092110000921100009211000092110000ba
:1002b80092110000921100009211000092110000aa
:1002c800921100009211000092110000921100009a
:1002d800921100009211000092110000921100008a
:1002e800921100009211000092110000921100007a
:1002f800921100009211000092110000921100006a
:100308009211000092110000921100009211000059
:100318009211000092110000921100009211000049
:100328009211000092110000921100009211000039
:100338009211000092110000921100009211000029
:100348009211000092110000921100009211000019
:100358009211000092110000921100009211000009
:1003680092110000921100009211000092110000f9
:1003780092110000921100009211000092110000e9
:1003880092110000921100009211000092110000d9
:1003980092110000921100009211000092110000c9
:1003a80092110000921100009211000092110000b9
:1003b80092110000921100009211000092110000a9
:1003c8009211000092110000921100009211000099
:1003d8009211000092110000921100009211000089
:1003e8009211000092110000921100009211000079
:0803f8009211000092110000b7
:020000040000fa
:08040000160d0000520d000072
:020000040000fa
:042dfc00429D0000F4
:020000040000fa
:1005580000000000c1c0000081c10000400100008f
:1005680001c30000c00300008002000041c2000077
:1005780001c60000c00600008007000041c7000057
:1005880000050000c1c5000081c40000400400004f
:1005980001cc0000c00c0000800d000041cd00001f
:1005a800000f0000c1cf000081ce0000400e000007
:1005b800000a0000c1ca000081cb0000400b000007
:1005c80001c90000c00900008008000041c80000ff
:1005d80001d80000c01800008019000041d90000af
:1005e800001b0000c1db000081da0000401a000097
:1005f800001e0000c1de000081df0000401f000077
:1006080001dd0000c01d0000801c000041dc00006e
:1006180000140000c1d4000081d50000401500007e
:1006280001d70000c01700008016000041d6000066
:1006380001d20000c01200008013000041d3000066
:1006480000110000c1d1000081d00000401000005e
:1006580001f00000c03000008031000041f10000ce
:1006680000330000c1f3000081f2000040320000b6
:1006780000360000c1f6000081f700004037000096
:1006880001f50000c03500008034000041f400008e
:10069800003c0000c1fc000081fd0000403d00005e
:1006a80001ff0000c03f0000803e000041fe000046
:1006b80001fa0000c03a0000803b000041fb000046
:1006c80000390000c1f9000081f80000403800003e
:1006d80000280000c1e8000081e90000402900006e
:1006e80001eb0000c02b0000802a000041ea000056
:1006f80001ee0000c02e0000802f000041ef000036
:10070800002d0000c1ed000081ec0000402c00002d
:1007180001e40000c02400008025000041e500003d
:1007280000270000c1e7000081e600004026000025
:1007380000220000c1e2000081e300004023000025
:1007480001e10000c02100008020000041e000001d
:1007580001a00000c06000008061000041a100000d
:1007680000630000c1a3000081a2000040620000f5
:1007780000660000c1a6000081a7000040670000d5
:1007880001a50000c06500008064000041a40000cd
:10079800006c0000c1ac000081ad0000406d00009d
:1007a80001af0000c06f0000806e000041ae000085
:1007b80001aa0000c06a0000806b000041ab000085
:1007c80000690000c1a9000081a80000406800007d
:1007d80000780000c1b8000081b90000407900002d
:1007e80001bb0000c07b0000807a000041ba000015
:1007f80001be0000c07e0000807f000041bf0000f5
:10080800007d0000c1bd000081bc0000407c0000ec
:1008180001b40000c07400008075000041b50000fc
:1008280000770000c1b7000081b6000040760000e4
:1008380000720000c1b2000081b3000040730000e4
:1008480001b10000c07100008070000041b00000dc
:1008580000500000c190000081910000405100004c
:1008680001930000c0530000805200004192000034
:1008780001960000c0560000805700004197000014
:1008880000550000c195000081940000405400000c
:10089800019c0000c05c0000805d0000419d0000dc
:1008a800005f0000c19f0000819e0000405e0000c4
:1008b800005a0000c19a0000819b0000405b0000c4
:1008c80001990000c05900008058000041980000bc
:1008d80001880000c04800008049000041890000ec
:1008e800004b0000c18b0000818a0000404a0000d4
:1008f800004e0000c18e0000818f0000404f0000b4
:10090800018d0000c04d0000804c0000418c0000ab
:1009180000440000c18400008185000040450000bb
:1009280001870000c04700008046000041860000a3
:1009380001820000c04200008043000041830000a3
:1009480000410000c181000081800000404000009b
:020000040000fa
:100958000400fa00889fbe008a1f7800000478000f
:1009680020c0b300004c780040c8b30080c04000ed
:100978001144980030c0b300e0f79f00c9912000ef
:1009880019417800ea80570008007800a40c02009a
:100998000000000019407800f24f50001e0032009d
:1009a80003003e00f14f500050003a0005003700a8
:1009b800f34f500029003200f44f50004b003a002a
:1009c8003b003700794090000080fb000949900007
:1009d8004811dd0000017100ea8057000800780026
:1009e800a40c020000000000094990000281fb00ed
:1009f800ea80570008007800a40c020000000000fc
:100a0800904b8000e10f500038003a002000200091
:100a1800904b880035003700794090000080fb003b
:100a2800094990004811dd0000017100ea80570073
:100a380008007800a40c020000000000094990009a
:100a48000281fb00ea80570008007800a40c02002d
:100a58000000000049c19000200037000005eb00ad
:100a6800899220001980fb00194190004811dd008f
:100a780000017100ea80570008007800a40c020009
:100a880000000000194190000281fb00ea80570035
:100a980008007800a40c0200000000000a05e80025
:100aa8008984e800fc0f550010003200edff370084
:100ab80022c0b300ea80570008007800a40c0200a6
:100ac8000000000052c0b300ea8057000800780018
:100ad800a40c02000000000012c0b300ea80570016
:100ae80008007800a40c0200000000006ff09700d6
:100af8005042b00020449800eff0970065c04000d5
:100b0800204499008180fb000001eb000800780078
:100b1800160d020000000000eff097008181fb0035
:100b28004801de00cc00de000142b00081717c008b
:100b3800eff197008340e800e1f79f008180fb0018
:100b48006f4161000242b00082707c00eff09700b4
:100b58000141e800e2f79f000281fb008000780075
:100b6800010fb200c488de000142b00001717c00b0
:100b78006ff197008240e800e1f79f008180fb0059
:100b88006f4060000042b00080707c00eff1970079
:100b98000340e8000080fb0031c0b30001707c0016
:100ba8004f0578004f04be000080fa0000000600e0
:100bb8000200fa008000780030409000c2912000c6
:100bc80000497800ef4f50000c00320005003e004d
:100bd800ea4f500039003200ed4f50006c003a00e7
:100be80062003700f04f500013003200f54f5000fc
:100bf80067003a000000fe006500370041409000a1
:100c0800e0ff9f00d1419000f3ff9f001041980042
:100c1800fff997002341980061409000e0ff9f0092
:100c2800f1409000f1ff9f00504198007ff8970035
:100c38006041980056003700c1419000e3ff9f00d3
:100c480051409000f0ff9f00734198007ff8970093
:100c580000499800e1419000e3ff9f007140900037
:100c6800f0ff9f00334198007ff8970040419800bb
:100c78008149900033499800698040000001eb00e9
:100c88008192200090417800e3ff9f0090419000fe
:100c9800f3ff9f00eff9970083487800fff997006a
:100ca800934098000201e8008180e8000080e80095
:100cb800fc0f510036003200f2ff3700414090002f
:100cc800e0ff9f00d1419000f3ff9f007041980022
:100cd800fff997000349980061409000e0ff9f00ea
:100ce800f1419000f3ff9f0030419800fff9970011
:100cf80043419800014890003049980092c0b300e1
:100d08000002eb00100037000280fb0060c0780092
:100d1800e0ff9f000240e8000080fb0060c0780010
:100d2800f0ff9f0002c1e8000380fb0000004000c4
:100d3800050040006c004000eff997000348780078
:100d4800fff9970013409800844178000402e800f6
:100d5800c5912000354890000080fb000000d100bc
:100d680080cf5100e8ff390009003700414090006a
:100d780030499800d1419000e3ff9f00e140900086
:100d8800f1ff9f0033419800fff997004341980015
:100d980011c0b30020912000514098000080fa0053
:100da80000000600889fbe008a1f780082972000f6
:100db80012407800e34f500033003200e44f5000f7
:100dc80049013200e14f500049013a00c391200027
:100dd80013407800ef4f500009003a00219120009d
:100de800514090000004e0004101320030c0b300df
:100df800004978000040eb00204198000b003700c4
:100e0800ed4f50000b003a00219120005140900016
:100e18000004e0003601320030c0b3000049780019
:100e280040c0b300204198000040eb00d04098003b
:100e38002f013700ee4f500008003a0021912000a2
:100e4800514090000004e0002901320030c0b30096
:100e58000049780050c0b300f2ff3700e94f500056
:100e680023013a0021912000514090000004e00045
:100e78001f0132000040eb00d040980040c1b30091
:100e88008049780099003700c09120009040780090
:100e9800eccf500007003a0020912000504090000d
:100ea8000004e0000300320010c0b30000497800dd
:100eb8000f0137008997200029409000e34f500028
:100ec8008f00320004003e00e14f5000290032003c
:100ed8008b003e0007003700e54f5000e00032006d
:100ee8000045eb00ce003900e64f500000013a0003
:100ef800e700370040a7a90058c0b30008407800b1
:100f080000100200000000000844e800f64f5400fa
:100f1800faff3a000060fe0040a7a80013c0b30023
:100f28008097200023409800c291200010c1b30090
:100f38000049780021802000614091000000a00055
:100f4800e0409900924090008180fb002240900090
:100f58004800dd0001007000304198004800de00c4
:100f680040419800134998000040eb002049980040
:100f7800df003700f0cf500013003a002091200026
:100f8800504090000004e000d9003200c3912000d6
:100f9800734090000080fb00034990004811dd0079
:100fa80000017100934890008180fb002348900065
:100fb8004800dd0001007000800f510018003a0061
:100fc80020c0b30014003700eacf500022003a00d6
:100fd80020912000504090000004e000c40032003e
:100fe800c3912000734090000080fb0003499000eb
:100ff8004811dd0000017100934890008180fb00da
:10100800234890004800dd0001007000800f510067
:1010180003003a0030c0b300a04498000a0037002b
:1010280020c0b300c0c1980020c1b3008049780037
:1010380021802000614091000000a000e04099005c
:1010480040c0b300804c78008040eb002091200025
:1010580051409800a6003700edcf500006003a0036
:1010680021912000514090000004e000a0003200cf
:1010780040c0b30007003700eecf500007003a0029
:1010880021912000514090000004e00098003200b7
:1010980050c0b300a044980063ff3700efcf500062
:1010a80007003a0021912000514090000004e00020
:1010b8008f0032000040eb00a04498005bff37002f
:1010c800e9cf50008a003a00219120005140900059
:1010d8000004e000860032000040eb00d040980099
:1010e80041c1b300c0912000014878002180200050
:1010f800614091000000a000e04099007c003700aa
:1011080040a7a900c8912000384990000281fb003f
:101118000201d100b84190008381fb004840900053
:101128004800dd00030070000100200083922000c9
:10113800c00f0200000000000060fe0040a7a800e9
:1011480010c1b300004c780021802000614091005c
:101158000000a000e0409900984890008180fb00c2
:10116800284890004800dd00010070000000e800f9
:10117800104c98004800de00204c980010c0b300c6
:1011880041003700394190000281fb00494090003e
:101198004800dd00020070000a84fb0008004000df
:1011a80001002000a20f020000000000c0488800d3
:1011b800d1488800394890000080fb000000d10029
:1011c8000000540000004000090040008191200008
:1011d8009140780041c09800c1488000c808de00ee
:1011e80051c09800b09120000048eb0039489000a9
:1011f8000080fb000000d1000004540008044400f3
:1012080009044400a09120001040780060c49800b0
:10121800d04880004800de0070c498000ac5e80085
:10122800c9912000394890000080fb000000d100df
:10123800804f5500d3ff390030c1b300804c78008f
:1012480021802000614091000000a000e04099004a
:1012580011c0b30080972000214098002400370077
:1012680011c1b300c09120000148780021802000fe
:10127800614091000000a000e040990010002000ab
:10128800904b880060c0b300a04498001800370055
:10129800904b8000e20f500015003a0040a7a900cb
:1012a8004070210001002000cc0d02000000000069
:1012b8006198200080487800e14f500005003a000e
:1012c8000000000000000000b20e02000000000054
:1012d800070037000000eb00904b88000060fe001c
:1012e80040a7a800020037000040fe00feff3700bc
:1012f8004f0578004f04be0000000600881f7800e4
:1013080000047800220820008000eb009e02020002
:10131800000000000040eb00604499004044990040
:101328003044990020449900504499004f047800b3
:1013380000000600500520004011880080002000b1
:10134800001188002222ef0021e2a80023e2a90070
:1013580023a2a8002342a8008560a9008580a900cf
:101368009560a800c502a900c102a900a0882000b4
:10137800e2ff070020802000e0ff0700c04a2000ad
:1013880090488800c05d2000a04888000000060042
:10139800889fbe00a8882000684091000038a300fc
:1013a8001100320049962000494090000004e000f6
:1013b80002003a0010c0b3000a003700e14f4000b5
:1013c80009003a0040972000904078000800780013
:1013d800a24880000200010008007800c7ff07004b
:1013e8000040eb00c044980028802000e8409100ad
:1013f80012c2b30002c06000e14f50000d003a0075
:10140800010078000000a1006044990008007800fd
:10141800baff070040972000904078000800780045
:101428009248800002000100684091000010a0006e
:1014380060449900684191000218a3001700320027
:101448000258a30015003a00a840910020c8b30034
:1014580080cf500011003e00c502a8008580a90079
:101468009580a800020078000050a0006044990010
:1014780023c2bf000008a300fdff32002280200025
:10148800b24091000180fb00604079000080fb00c1
:10149800201188008140e800314199004f04be00c6
:1014a800000006003600f800809fbe00829fbe0044
:1014b800849fbe00869fbe00889fbe008a1f78005a
:1014c80095c0bf000038a3001501320085c0bf00d9
:1014d8000038a300120132008560a90022c2bf00b3
:1014e8000018a300050032002222a900a1882000cc
:1014f800614091000040a000e040990022c2bf0076
:101508000028a3000500320030118000a1882000c7
:10151800614091000040a000e04099003211800035
:1015280002457800a9882000e94091000148a300fd
:10153800f9003a0049409100e24f5000380032006b
:1015480005003e000004e00009003200e14f5000b1
:10155800e9003a0015003700e44f500070003200ef
:1015680045003900e54f5000e3003a00800037009d
:10157800e24f5100e4003a00394091008080fb00be
:1015880082f07c000040e800b044990011c8b30024
:10159800814f500003003600694091000040a000d0
:1015a800e044990010c0b300310037003940910081
:1015b8008080fb0082f07c000040e800b044990085
:1015c80011c8b300814f50000300360069409100f4
:1015d8000040a000e044990000ceb30080404500e0
:1015e80000802000014878000140e900e2c3b30010
:1015f800824f500006003600b0c9b30000c040005a
:10160800824f5000020036000104e00078003a00e2
:1016180021c0b300a088200041409900ba003700db
:10162800394091008080fb0082f07c000040e80097
:10163800b044990011c8b300814f50000300360030
:10164800694091000040a000e044990070cdb300cb
:101658000040450091c7b300814f500064003e0030
:10166800b0cdb30000404500a044990030c0b3009d
:10167800c0449900a4003700594091000004e000dc
:101688001000320000c3b300804f5100090032003f
:1016980000c0e800804f5100060032000040e8001a
:1016a800804f510003003200010078000040a00084
:1016b800e04499008040eb00a08820005140990048
:1016c80004003700fb4f510002003a0010c0b3007d
:1016d800d0449900a2882000324091008080fb000d
:1016e8008a7079000040e8003041990011c8b300c1
:1016f800814f500003003600624091000040a00076
:1017080060419900b24091002240910080cf500082
:101718007d003a0040c0b300404199007a0037008c
:10172800394091008080fb0082f07c000040e80096
:10173800b044990011c8b300814f5000030036002f
:10174800694091000040a000e0449900b940910030
:101758008180fb00294091000080fb00640040006c
:10176800808f500068003a0050c0b300c0ff3700b7
:10177800e34f51001e003a00b94091008180fb0000
:101788006480500060c47c0002fe2f004c44dd00e1
:101798006380500060c07c00000041004800dd000c
:1017a800000474000180e90060c07c000080fb0038
:1017b800020040004400dd00000474008100e900dc
:1017c80061c07c000080fb0002004000000474003f
:1017d800a94091008180fb000001eb00a088200057
:1017e800160d020000000000800f540004003200b3
:1017f800694091000040a000e04499004200370091
:10180800394091008080fb008af07c000040e800ad
:10181800b044990011c8b300814f5000030036004e
:10182800694091000040a000e044990029409100df
:1018380063405000a04499008042eb000003eb0095
:10184800160037000580fb00d4882000e0417a00ac
:101858008540e800fbcf51000c003a000281fb00f4
:101868000180fb00e0407a0000cdb30000c04000da
:1018780085c0e8000004e00002003a0003717a0025
:101888000400370000717a00020037000280fb0074
:1018980003707a000603e800814278000641780068
:1018a800a3882000a340910081cf5200e5ff3900b2
:1018b80006c0520000c05000a041990000802000de
:1018c800904078004097200090cf500002003200ee
:1018d8000104e00003003a00634091000030a000da
:1018e800e0419900a1882000614091000038a300e0
:1018f80005003a0002003700a188200061409100ed
:101908000040a000e0409900a088200060409100bd
:101918000048a30002003200a088200077fe0700dc
:101928004f0578004f04be004f03be004f02be00b3
:101938004f01be004f00be003600f900004006000f
:10194800000278008101780002c0e900e14f5000f0
:1019580009003e009180fb00b0c1b30080707a009e
:101968001340e800804978000080fb0005c3b300fd
:1019780085404100080037001180fb00fb4f5100f3
:1019880007003a0002707a001140e80080487800a9
:101998000080fb0001c3b30001707a00010037002a
:1019a80002707a009349e80000000600809fbe009c
:1019b800821f780095c0bf000048a30016003200bf
:1019c80085c0bf000048a300130032008580a9002d
:1019d80022802000b24091002240910080cf500028
:1019e80007003a00c502a9009580a900624091004d
:1019f8000050a1000010a1006041990006003700c6
:101a08000180fb00604079000080fb002011880005
:101a18000140e800304199004f0178004f00be00b6
:101a280000400600881f78000004780081037800d1
:101a38008201780046032000164378000000200049
:101a480034e0b7006022b8000b0037004819de0008
:101a58000400440010c069000080fb000000400042
:101a6800c12a280060807800800169000060fe00bb
:101a780061024200e0824a006138b800800f5200db
:101a8800818f5a00f1ff39000600780034e0b70072
:101a9800030078004f047800000006000800fa00f0
:101aa800889fbe00c0bf9f00d1bf9f000204be0038
:101ab80043032000934178000000200034e0b70081
:101ac8006033b800200037000060fe0022032000c9
:101ad800124178002ff8970032e0b700cfb897008e
:101ae8001180ba00b0bf9f009100ba00a1bf9f004b
:101af8000200780032e0b700ec8257004821de008f
:101b08003580fb0000006a00f00fb20000004000c2
:101b1800c12a2800608078000002690068805700a8
:101b2800808f5200f5ff3a004fb89700dfb8970052
:101b380062004000e0804800c0bf9f00d1bf9f0006
:101b480061034300e0834b00880f5300898f5b00db
:101b5800ddff39000300780034e0b70004007800a6
:101b68004f04be000080fa000000060011c0b30058
:101b78008097200001487800609820000048eb001a
:101b880040962000014898000148780000000600af
:101b9800a20f0200000000000001be00f0ff2f00ad
:101ba800f10f2000000069008180690001007000c9
:101bb8000000cf000000ea004f00de0062001000c5
:101bc80000000600881f78008097200011c0b3002d
:101bd80090cf10002e003a00c0912000904078006d
:101be800eccf50000c003a002091200050409000ab
:101bf8000004e000080032004070210001002000cd
:101c0800e3ff070061982000804878004096200094
:101c18000048eb001900370040962000104078007b
:101c2800e24f50000c003a00ebcf500013003a008e
:101c380022912000524090000004e0000f00320082
:101c480030c0b30061982000804878000040eb0065
:101c58005041980009003700e14f40000c003a005d
:101c6800689820001804e00004003a004070210041
:101c780001002000c6ff0700004c780040962000b5
:101c880080c0eb0090cf100001003a000048eb0044
:101c98004f04780000000600cac2bf000000d1004f
:101ca80061006000429820000004a2009240780081
:101cb8000104a10080c07000cac2bf004200de005b
:101cc800610060000004a200004040000114a1006f
:101cd80080c07000cac2bf004300de00610060001f
:101ce8000004a2004200dd000124a10080c07000b1
:101cf800c2c2bf004400de00610060000004a20010
:101d08004300dd000134a10080c07000c3c2bf00e1
:101d18000000d100610060000004a2004400dd0062
:101d28000144a10080c07000cac2bf000080fb004f
:101d38004700de000004a2004500dd000154a100b8
:101d480080c070000160a1000170a1000149780005
:101d580050982000014878000000060040972000b5
:101d68001080fb00f04e8800205020001100200059
:101d7800d04e8800e14e880083e0a90004170400d3
:101d8800000000000000060060022000303a8800d1
:101d9800794040004467b60000ceb3004467b600ff
:101da80032002000a10920008007200033742000a1
:101db8008049780081497800824978001200200023
:101dc80071052000600420002374200080497800f9
:101dd800814978008249780043c7bf000047b200b4
:101de80001c3b300814f5000fbff3a0042c7bf0058
:101df8000058a300fdff320083e0a800d0a2a9008c
:101e0800c882a800a4c6bf0001ceb300014060008c
:101e18000024a000a4e6b700d5c6bf0001406000ba
:101e28003040b300d5e6b7002c63a8002c83a80087
:101e38002ca3a80012110200000000009e09020055
:101e48000000000011c0b30080972000014878000e
:101e5800609820000048eb00409620000148980058
:101e6800014878008cff0700519820004097200017
:101e7800114878000060fe0040a7a8000060fe003e
:101e88004096200000489000e14f400005003a00cd
:101e98004cff0700cc09020000000000d606020033
:101ea80000000000de100200000000006098200022
:101eb80011c0b30090cf1000f0ff3a0000000000fe
:101ec80000000000409720001080fb00f04e8800c2
:101ed8002050200011002000d04e8800e14e8800dc
:101ee80083e0a900041704000000000000000500ba
:101ef80034002400043b88008000fd0032e0b70075
:101f08008000fd000208bb000388bb001000fc0035
:101f180050052000303b8800a00a2000303b880094
:101f280061e7a80000000000000000006147e2002f
:101f3800feff350061c7a900000006000400fa0092
:101f4800e0bf9f00f1bf9f0021032000914078006f
:101f58006ff8970032e0b7006fb897009081ba0029
:101f68001001ba000100780032e0b7000200be009c
:101f78000080fa0000000600881f78000003be00f9
:101f88008202780030002400003b88000002eb0049
:101f98001400370004004300e0804b008000fd007f
:101fa80032e0b7008000fd001308bb001301900069
:101fb8000288bb000482e8001000fc0058052000dd
:101fc800383b8800a80a2000383b880061e7a80051
:101fd80000000000000000006147e200feff35003d
:101fe800e4814100850f5200eaff390061c7a9006a
:101ff8004f047800000006000080fb00010020006c
:102008004a09dd00c601de00830171004a01dd00d6
:1020180020042400003b88000300780032e0b70069
:102028000080eb000009bb001000fc0050052000f8
:10203800303b8800a00a2000303b880061e7a800f8
:1020480000000000000000006147e200feff3500cc
:10205800000006008020a900000000000000000029
:102068000000000000000000000000000000000068
:1020780000000000000000000000fe000040060014
:102088008060a900000000000000000000000000bf
:102098000000000000000000000000000000000038
:1020a800000000000000fe00004006008040a9007b
:1020b8000000000000000000000000000000000018
:1020c8000000000000000000000000000000000008
:1020d8000000fe00004006008080a900000000000b
:1020e80000000000000000000000000000000000e8
:1020f8000000000000000000000000000000fe00da
:10210800004006008020a900000000000000000038
:1021180000000000000000000000000000000000b7
:1021280000000000000000000000fe000040060063
:102138008060a9000000000000000000000000000e
:102148000000000000000000000000000000000087
:10215800000000000000fe00004006008040a900ca
:102168000000000000000000000000000000000067
:102178000000000000000000000000000000000057
:102188000000fe00004006008080a900000000005a
:102198000000000000000000000000000000000037
:1021a8000000000000000000000000000000fe0029
:1021b800004006009460a900824b8000124b880002
:1021c8009460a80041962000e397200020c0b30047
:1021d800914f100005003a001100900000005100d6
:1021e800930f50000100390080c8eb0010c0b30005
:1021f800914f100003003a009200980020c0b300ed
:1022080080487800e48040008381e800009720003f
:10221800808f5000edff3a00000006008000eb00c0
:102228000108880000712200100888002108880031
:1022380004c1bf00f1ccb300014060000044a0001d
:1022480004e1b700a5c0bf00f1c8b30001406000b9
:102258000043b300a5e0b7008460a9009460a8001b
:1022680005e1a80000000600801f78003400f8008f
:1022780000c0b300a00188008460a900804b8000e2
:102288000000e800804b88003400f9004f00780017
:0422980000400600fc
:020000040000fa
:10229c0000080000180100000000000018090000f0
:1022ac004a00000000000000840900000200000049
:1022bc00000000008609000002000000020000007f
:1022cc0001000000720900000c000000000000007a
:1022dc00da09000004000000020000000000000009
:1022ec0000000000de0900000200000002000000f7
:1022fc00000000007e090000060000000200000043
:10230c00941102000032000062090000100000006d
:08231c000000000000000000b9
:020000040000fa
:042324000000fe00b7
:00000001FF
