:020000040000fa
:080000000002040000000000f2
:020000040000fa
:04000800d002000022
:020000040000fa
:04000c00d00200001e
:020000040000fa
:04001000d00200001a
:020000040000fa
:04001400d002000016
:020000040000fa
:04001800d002000012
:020000040000fa
:04001c00d00200000e
:020000040000fa
:04002000d00200000a
:020000040000fa
:04002400d002000006
:020000040000fa
:04002800d002000002
:020000040000fa
:04002c00d0020000fe
:020000040000fa
:04003000d0020000fa
:020000040000fa
:04003400142c000088
:020000040000fa
:04003800d0020000f2
:020000040000fa
:04003c00d0020000ee
:020000040000fa
:04004000d0020000ea
:020000040000fa
:04004400d0020000e6
:020000040000fa
:04004800d0020000e2
:020000040000fa
:04004c00d0020000de
:020000040000fa
:04005000d22c0000ae
:020000040000fa
:04005400d0020000d6
:020000040000fa
:04005800d0020000d2
:020000040000fa
:04005c00d0020000ce
:020000040000fa
:04006000d0020000ca
:020000040000fa
:04006400d0020000c6
:020000040000fa
:04006800d0020000c2
:020000040000fa
:04006c00d0020000be
:020000040000fa
:04007000d0020000ba
:020000040000fa
:04007400d0020000b6
:020000040000fa
:04007800d0020000b2
:020000040000fa
:04007c00d0020000ae
:020000040000fa
:04008000d0020000aa
:020000040000fa
:04008400d0020000a6
:020000040000fa
:04008800d0020000a2
:020000040000fa
:04008c00d00200009e
:020000040000fa
:04009000d00200009a
:020000040000fa
:04009400d002000096
:020000040000fa
:04009800d002000092
:020000040000fa
:04009c00d00200008e
:020000040000fa
:0400a0003a2c0000f6
:020000040000fa
:0400a400602c0000cc
:020000040000fa
:0400a800d002000082
:020000040000fa
:0400ac00f82c00002c
:020000040000fa
:0400b000d00200007a
:020000040000fa
:0400b400d002000076
:020000040000fa
:0400b800d002000072
:020000040000fa
:0400bc00d00200006e
:020000040000fa
:0400c000d00200006a
:020000040000fa
:0400c400d002000066
:020000040000fa
:0400c800d002000062
:020000040000fa
:0400cc00d00200005e
:020000040000fa
:0400d000d00200005a
:020000040000fa
:0400d400d002000056
:020000040000fa
:0400d800d002000052
:020000040000fa
:0400dc00d00200004e
:020000040000fa
:0400e000d00200004a
:020000040000fa
:0400e400d002000046
:020000040000fa
:0400e800d002000042
:020000040000fa
:0400ec00d00200003e
:020000040000fa
:0400f000d00200003a
:020000040000fa
:0400f400d002000036
:020000040000fa
:0400f800d002000032
:020000040000fa
:0400fc00d00200002e
:020000040000fa
:04010000d002000029
:020000040000fa
:04010400d002000025
:020000040000fa
:04010800d002000021
:020000040000fa
:04010c00d00200001d
:020000040000fa
:04011000d002000019
:020000040000fa
:04011400d002000015
:020000040000fa
:04011800d002000011
:020000040000fa
:04011c00d00200000d
:020000040000fa
:04012000d002000009
:020000040000fa
:04012400d002000005
:020000040000fa
:04012800d002000001
:020000040000fa
:04012c00d0020000fd
:020000040000fa
:04013000d0020000f9
:020000040000fa
:04013400d0020000f5
:020000040000fa
:04013800d0020000f1
:020000040000fa
:04013c00d0020000ed
:020000040000fa
:04014000d0020000e9
:020000040000fa
:04014400d0020000e5
:020000040000fa
:04014800d0020000e1
:020000040000fa
:04014c00d0020000dd
:020000040000fa
:04015000d0020000d9
:020000040000fa
:04015400d0020000d5
:020000040000fa
:04015800d0020000d1
:020000040000fa
:04015c00d0020000cd
:020000040000fa
:04016000d0020000c9
:020000040000fa
:04016400d0020000c5
:020000040000fa
:04016800d0020000c1
:020000040000fa
:04016c00d0020000bd
:020000040000fa
:04017000862c0000d9
:020000040000fa
:04017400ac2c0000af
:020000040000fa
:04017800d0020000b1
:020000040000fa
:04017c00d0020000ad
:020000040000fa
:04018000d0020000a9
:020000040000fa
:04018400d0020000a5
:020000040000fa
:04018800d0020000a1
:020000040000fa
:04018c00d00200009d
:020000040000fa
:04019000d002000099
:020000040000fa
:040194001e2d00001c
:020000040000fa
:04019800d002000091
:020000040000fa
:04019c00d00200008d
:020000040000fa
:04020800d002000020
:020000040000fa
:04020c00d00200001c
:020000040000fa
:04021000d002000018
:020000040000fa
:04021400d002000014
:020000040000fa
:04021800d002000010
:020000040000fa
:04021c00d00200000c
:020000040000fa
:04022000d002000008
:020000040000fa
:04022400d002000004
:020000040000fa
:04022800d002000000
:020000040000fa
:04022c00d0020000fc
:020000040000fa
:04023000d0020000f8
:020000040000fa
:04023400d0020000f4
:020000040000fa
:04023800d0020000f0
:020000040000fa
:04023c00d0020000ec
:020000040000fa
:04024000d0020000e8
:020000040000fa
:04024400d0020000e4
:020000040000fa
:04024800d0020000e0
:020000040000fa
:04024c00d0020000dc
:020000040000fa
:04025000d0020000d8
:020000040000fa
:04025400d0020000d4
:020000040000fa
:04025800d0020000d0
:020000040000fa
:04025c00d0020000cc
:020000040000fa
:04026000d0020000c8
:020000040000fa
:04026400d0020000c4
:020000040000fa
:04026800d0020000c0
:020000040000fa
:04026c00d0020000bc
:020000040000fa
:04027000d0020000b8
:020000040000fa
:04027400d0020000b4
:020000040000fa
:04027800d0020000b0
:020000040000fa
:04027c00d0020000ac
:020000040000fa
:04028000d0020000a8
:020000040000fa
:04028400d0020000a4
:020000040000fa
:04028800d0020000a0
:020000040000fa
:04028c00d00200009c
:020000040000fa
:04029000d002000098
:020000040000fa
:04029400d002000094
:020000040000fa
:04029800d002000090
:020000040000fa
:04029c00d00200008c
:020000040000fa
:0402a000d002000088
:020000040000fa
:0402a400d002000084
:020000040000fa
:0402a800d002000080
:020000040000fa
:0402ac00d00200007c
:020000040000fa
:0402b000d002000078
:020000040000fa
:0402b400d002000074
:020000040000fa
:0402b800d002000070
:020000040000fa
:0402bc00d00200006c
:020000040000fa
:0402c000d002000068
:020000040000fa
:0402c400d002000064
:020000040000fa
:0402c800d002000060
:020000040000fa
:0402cc00d00200005c
:020000040000fa
:0402d000d002000058
:020000040000fa
:0402d400d002000054
:020000040000fa
:0402d800d002000050
:020000040000fa
:0402dc00d00200004c
:020000040000fa
:0402e000d002000048
:020000040000fa
:0402e400d002000044
:020000040000fa
:0402e800d002000040
:020000040000fa
:0402ec00d00200003c
:020000040000fa
:0402f000d002000038
:020000040000fa
:0402f400d002000034
:020000040000fa
:0402f800d002000030
:020000040000fa
:0402fc00d00200002c
:020000040000fa
:04030000d002000027
:020000040000fa
:04030400d002000023
:020000040000fa
:04030800d00200001f
:020000040000fa
:04030c00d00200001b
:020000040000fa
:04031000d002000017
:020000040000fa
:04031400d002000013
:020000040000fa
:04031800d00200000f
:020000040000fa
:04031c00d00200000b
:020000040000fa
:04032000d002000007
:020000040000fa
:04032400d002000003
:020000040000fa
:04032800d0020000ff
:020000040000fa
:04032c00d0020000fb
:020000040000fa
:04033000d0020000f7
:020000040000fa
:04033400d0020000f3
:020000040000fa
:04033800d0020000ef
:020000040000fa
:04033c00d0020000eb
:020000040000fa
:04034000d0020000e7
:020000040000fa
:04034400d0020000e3
:020000040000fa
:04034800d0020000df
:020000040000fa
:04034c00d0020000db
:020000040000fa
:04035000d0020000d7
:020000040000fa
:04035400d0020000d3
:020000040000fa
:04035800d0020000cf
:020000040000fa
:04035c00d0020000cb
:020000040000fa
:04036000d0020000c7
:020000040000fa
:04036400d0020000c3
:020000040000fa
:04036800d0020000bf
:020000040000fa
:04036c00d0020000bb
:020000040000fa
:04037000d0020000b7
:020000040000fa
:04037400d0020000b3
:020000040000fa
:04037800d0020000af
:020000040000fa
:04037c00d0020000ab
:020000040000fa
:04038000d0020000a7
:020000040000fa
:04038400d0020000a3
:020000040000fa
:04038800d00200009f
:020000040000fa
:04038c00d00200009b
:020000040000fa
:04039000d002000097
:020000040000fa
:04039400d002000093
:020000040000fa
:04039800d00200008f
:020000040000fa
:04039c00d00200008b
:020000040000fa
:100400006fff20000eff21000e0188000000000099
:10041000000020000000e000020032000001200087
:100420002002880014000700660007000000e000ba
:1004300003003a00208d2700210020000200370031
:100440000000200001002000810f70000100320038
:1004500014000700000020000000e000020032004d
:100460000000020000000000a4680200020000007a
:100470000040da000000fe004440a900805a20003d
:100480000000e0000300320000002000a00188000e
:100490004440a800000006008a1f78008b1f7800e7
:1004a0000000060091018800800478000000eb0045
:1004b0001a003700e284440032a0b4009905ba0063
:1004c000e284440032a0b4009906ba00e2844400f9
:1004d00032a0b4000006eb00476fde00fd07b2005b
:1004e000636ce10003003a00ebff07000000eb0043
:1004f0000a003700606ce10004003a00005deb0088
:100500008b05e900fdff3e00040037006168e10053
:10051000010032000086eb000b00070019c7ba008b
:100520001905ba000e04e00003003a000a00e000da
:10053000e0ff3a0000000600fe07b2009e018800be
:100540008a047800f5ff3700395dba008b05e900b1
:100550000c003200295dba008b05e900080032006a
:100560000c00e00003003a00e284440032a0b40032
:10057000f5ff370019ddba008b05e900faff3a00f4
:100580008904e800e184440032a0b40000000600c1
:100590005e2d040000000000ee38040000000000a2
:1005a0003400f800881f780008002000a8018800a7
:1005b0004f0478000000fa00000000000000000076
:1005c000ffff37000000050003f0a200889fbe0077
:1005d0008a9fbe008c1f78005e0107006501330012
:1005e0006450e1004f0032006420e100520032000c
:1005f00003826c0007003b000905d0000306d00011
:10060000820f54000c065d00020039000200320027
:1006100089017800030678008582550004003d00ba
:100620000003fd008103fd008502ea008b85420086
:10063000840f720002003b0060001000e080180090
:100640006011b8000005eb007a28e1000a003900cb
:1006500006007800c75ddd00f707b20087807500ef
:100660002d003700828171000a0178006105600069
:100670008180d1000080d3008502e900f9ff3b00b2
:10068000060440008784480002003b006004140018
:10069000e0841c000988a300070032008a817100f1
:1006a00082817100610164008904d1000884d30053
:1006b0008b05e800170037000978a30013003a0003
:1006c0000b00e000130034008b05e900080444002f
:1006d00089844c000a4474000978a3000d003a0094
:1006e0000b00e000070034008b05e900080444001b
:1006f00089844c0001003a000b0020000978a30017
:10070000f7ff32000001eb00020037008281710028
:100710000a017800d40007000cf0a70001f0a00047
:100720001d0137006420e10002003a00838f6c0055
:100730001d0133000801be000200be001601370093
:100740000001eb0057000700040032000200200007
:1007500003f8230001f0a6009cff0700000006003c
:10076000889fbe008a9fbe008c1f7800f90007009a
:100770000001330003866c006450e1002e0032005b
:100780006420e100330032006150e1002f003200ac
:100790006120e1003100320085855500eb07b00093
:1007a0000900200008042000050037000804440068
:1007b00089844c000a0031000603430087834b0004
:1007c0000001530081815b00f8ff33000203be008b
:1007d0000800a0000804440089844c00f6ff39009a
:1007e000c639dd00830173000100320013002000d0
:1007f0008904d1000884d3000998a30005003200c1
:100800000800a7000300a0008904d1000884d300d9
:100810008b05e8008904d1000884d3000001eb00b7
:100820000281d2009000070001f0a1000cf0a700a7
:1008300001f0a000d80037006420e100da003200a7
:100840000801be000200be00f7ff37006120e10092
:10085000d50032006000b800f3ff37000000200030
:1008600001f82700f0ff3700839f68000100e000d7
:1008700002003d0060001000e08018000300e0006e
:1008800002003d0060011100e08119000c01070029
:100890004f00e00002003b0060001000e080180004
:1008a00000000600889fbe008a9fbe000003be00b5
:1008b0009300070085057800828152000200200025
:1008c0006220e10004003a00f307b10004003500a3
:1008d0007718e100040035000600be001400370060
:1008e0006000b8000f003700f50f2000faff2f005e
:1008f0008502d1000a85d3008301e900fcff3b009b
:100900008184620000046500890f7400f2ff3200e8
:100910008582ea000a85ea0081846200000465009d
:100920005100070007f0a70001f0a0000081eb00d4
:100930000200e0004f05be004f04be0000000600ac
:1009400014002000f1003700f4ff2f00ef00370003
:100950000001be006a0007000470a70003f0a100b8
:100960006509b100160032000d0035006828e1006d
:1009700006003500f0ff2f00f1ff27000300e00024
:1009800013003b00010028000000050000004000ab
:10099000818048008502e900fcff3a00080037002a
:1009a000f88f420002003c008000eb0000000500d0
:1009b0008100d1000080d3008502e800fcff3a00ee
:1009c0000300e00002003b0060001000e08018001f
:1009d000000006000001be00490007000470a700e7
:1009e00003f0a10003f8a30013003a006509b10069
:1009f00010003200090035006928e10002003500ce
:100a0000010028000000050000004000818048002f
:100a10008502e900fcff3a0000000600f88f420062
:100a2000050035008100d1000080d3008502e80078
:100a3000fcff3a00000006008000eb00000005000b
:100a40006011b800cc0037000001eb0095ff0700f3
:100a5000040032000200200003f8230001f0a70088
:100a6000d9fe0700000006008100200061805500cb
:100a70000b003d000b00200061fe2f000100e10093
:100a80001d00340082817100610164008904d1007d
:100a90000884d3000000e800faff3a00710020004b
:100aa0006100640003007000020060000900320071
:100ab00061044400e0844c000988a5000500320070
:100ac0008b05e8006808e10002003a008904d100c3
:100ad0000884d300f20f20000258e10005003d0019
:100ae000c75ddd00f907b200898075000800780055
:100af000000006000bf827008b00780000000500be
:100b0000c70ade00f107b200f50fb200080032009c
:100b1000e1cf4200020032000170a0002400050075
:100b2000810f700001003200040805004400050038
:100b3000810f700002003a00140005008502e900f0
:100b40000000400081c04800fcff3b000170a00095
:100b5000240005000004be00e9ff07000003be00fa
:100b60000405be000200be00e5ff0700844f7500cb
:100b7000000006000200be006450e10005003600df
:100b80006420e100020036000968a30001003a0079
:100b90000800be000160a0004f0678004f05be00af
:100ba0004f04be0000000600f0ff2f00f1ff2700f9
:100bb000f9ff3700811f78000100e00002003d00ce
:100bc00060001000e08018000300e00002003d001b
:100bd00060011100e0811900490007004f00e000aa
:100be00002003b0060001000e080180000000600da
:100bf000889fbe008a9fbe008c1f7800d5ff07002b
:100c0000dcff330003866c006450e10024003200f6
:100c10006420e100270032006150e1002200320030
:100c20006120e100210032008b854200eb07b1001a
:100c30000134b800003ab8000804420089844a0030
:100c4000013ab8000030b8008880400009014a002d
:100c50000400330000004000818048000201490088
:100c60008b05e900c909dd00830170000100320035
:100c700013002000c814de004814dd004709de0020
:100c80001200b200c808de000884700076ff07007a
:100c900001f0a1000cf0a70001f0a000beff37009a
:100ca0006120e100c0ff32000801be000200be006a
:100cb000f7ff37006150e100fcff3a00baff370050
:100cc0006022b800060220000000d0008180d2001f
:100cd0000482d2008582d2000000a00002025200ed
:100ce00083825a00030031000202420083824a00dc
:100cf0000000a1000603e900f3ff3a00000006002f
:100d0000efff07000400be0000000600889fbe0041
:100d10008a9fbe00841f78008eff07004f00780076
:100d200011003300f0ff2f00838f6c0006003b00a2
:100d3000040565000a00a7000800370009f0a600b6
:100d40001000200008003700820f5400838f5c00e1
:100d5000030039001000200001003e0000002000c8
:100d600009f0a7000000ea004f05be004f04be00d6
:100d70000000e00000000600889fbe008a9fbe00c1
:100d800000827000040271000482710026003200ab
:100d90000004be000200be006011b8006b09200014
:100da000950220000182cf000a0039000541b10000
:100db0000082cf00070039000541b1000982cf0051
:100dc000040039000541b1000882cf00010039005c
:100dd0000541b10005425200120032000a003b00fa
:100de00082817100610164008100d1000080d30024
:100df0008984d3000884d3008b05e8000442e8000e
:100e0000f7ff3a00070037000804440089844c00cb
:100e100000004800818048008b05e9000442e90099
:100e2000f9ff3a0010ff07004f05be004f04be0057
:100e30000000060080017800020037008159780028
:100e40000201e9000200e000fcff3a000000060099
:020000040000fa
:100e50000000000002000000040000000700000085
:100e6000090000000b0000000d0000000f00000052
:100e7000110000001400000016000000180000001f
:100e80001a0000001c0000001f00000021000000ec
:100e90002300000025000000270000002a000000b9
:100ea0002c0000002e000000300000003200000086
:100eb0003400000037000000390000003b00000053
:100ec0003d0000003f000000420000004400000020
:100ed00046000000480000004a0000004c000000ee
:100ee0004f000000510000005300000055000000ba
:100ef000570000005a0000005c0000005e00000087
:100f00006000000062000000640000006700000054
:100f1000690000006b0000006d0000006f00000021
:100f200072000000740000007600000078000000ed
:100f30007a0000007d0000007f00000081000000ba
:100f40008300000085000000870000008a00000088
:100f50008c0000008e000000900000009200000055
:100f60009500000097000000990000009b00000021
:100f70009d0000009f000000a2000000a4000000ef
:100f8000a6000000a8000000aa000000ad000000bc
:100f9000af000000b1000000b3000000b500000089
:100fa000b8000000ba000000bc000000be00000055
:100fb000c0000000c2000000c5000000c700000023
:100fc000c9000000cb000000cd000000d0000000f0
:100fd000d2000000d4000000d6000000d8000000bd
:100fe000da000000dd000000df000000e10000008a
:100ff000e3000000e5000000e8000000ea00000057
:10100000ec000000ee000000f0000000f200000024
:10101000f5000000f7000000f9000000fb000000f0
:10102000fd000000000100000201000004010000ba
:1010300006010000000000004500000089000000db
:10104000ce00000013010000580100009c010000c8
:10105000e1010000260200006a020000af02000069
:10106000f4020000390300007d030000c203000009
:10107000070400004c04000090040000d5040000a8
:101080001a0500005e050000a3050000e805000049
:101090002d06000071060000b6060000fb060000e9
:1010a0003f07000084070000c90700000e08000089
:1010b0005208000097080000dc080000200900002a
:1010c00065090000aa090000ef090000330a0000ca
:1010d000780a0000bd0a0000010b0000460b00006a
:1010e0008b0b0000d00b0000140c0000590c00000a
:1010f0009e0c0000e30c0000270d00006c0d0000aa
:10110000b10d0000f50d00003a0e00007f0e00004a
:10111000c40e0000080f00004d0f0000920f0000e9
:10112000d60f00000000000000000000bd08000015
:10113000000000007a11000000000000371a0000d3
:1011400000000000f422000000000000b12b0000ad
:10115000000000006e340000000000002b3d000085
:1011600000000000e845000000000000a54e00005f
:101170000000000062570000000000001f60000037
:1011800000000000dc680000000000009971000011
:1011900000000000557a00000000000012830000eb
:1011a00000000000cf8b0000000000008c940000c5
:1011b00000000000499d00000000000006a600009d
:1011c00000000000c3ae00000000000080b7000077
:1011d000000000003dc0000000000000fac8000050
:1011e00000000000b7d100000000000074da000029
:1011f0000000000031e3000000000000eeeb000002
:1012000000000000abf400000000000068fd0000da
:10121000000000002506000001000000e20e0000b2
:10122000010000009f170000010000005c2000008a
:10123000010000001929000001000000d631000063
:1012400001000000933a000001000000504300003c
:10125000010000000d4c000001000000ca54000015
:1012600001000000865d00000100000043660000f0
:1012700001000000006f000001000000bd770000c9
:10128000010000007a8000000100000037890000a2
:1012900001000000f491000001000000b19a00007c
:1012a000010000006ea30000010000002bac000054
:1012b00001000000e8b4000001000000a5bd00002e
:1012c0000100000062c60000010000001fcf000006
:1012d00001000000dcd700000100000099e00000e0
:1012e0000100000056e900000100000013f20000b8
:1012f00001000000d0fa0000010000008d03000092
:10130000020000004a0c0000020000000715000067
:1013100002000000c41d0000020000008126000041
:10132000020000003e2f000002000000fb3700001a
:1013300002000000b84000000200000074490000f4
:10134000020000003152000002000000ee5a0000ce
:1013500002000000ab63000002000000686c0000a7
:10136000020000002575000002000000e27d000080
:10137000020000009f860000020000005c8f000059
:10138000020000001998000002000000d6a0000032
:101390000200000093a900000200000050b200000b
:1013a000020000000dbb000002000000cac30000e4
:1013b0000200000087cc00000200000044d50000bd
:1013c0000200000001de000002000000bee6000096
:1013d000020000007bef00000200000038f800006f
:1013e00002000000f500000003000000b209000048
:1013f000030000006f120000030000002c1b00001f
:1014000003000000e923000003000000a52c0000f9
:101410000300000062350000030000001f3e0000d2
:1014200003000000dc46000003000000994f0000ac
:101430000300000056580000030000001361000084
:1014400003000000d0690000030000008d7200005e
:10145000030000004a7b0000030000000784000036
:1014600003000000c48c0000030000008195000010
:10147000030000003e9e000003000000fba60000e9
:1014800003000000b8af00000300000075b80000c2
:101490000300000032c1000003000000efc900009b
:1014a00003000000acd200000300000069db000074
:1014b0000300000026e4000003000000e3ec00004d
:1014c00003000000a0f50000030000005dfe000026
:1014d000030000001a07000004000000d60f0000ff
:1014e000040000009318000004000000050500003f
:1014f00005050000050500000505000005050000c4
:1015000005050000050500000505000005050000b3
:1015100005050000050500000505000005050000a3
:101520000505000005050000050500000505000093
:101530000505000005050000050500000505000083
:10154000050500000505000005050000000000007d
:10155000c1c0000081c100004001000001c30000c3
:10156000c00300008002000041c2000001c600006c
:10157000c00600008007000041c700000005000011
:10158000c1c5000081c400004004000001cc00007f
:10159000c00c0000800d000041cd0000000f0000d5
:1015a000c1cf000081ce0000400e0000000a000004
:1015b000c1ca000081cb0000400b000001c900003f
:1015c000c00900008008000041c8000001d80000e8
:1015d000c01800008019000041d90000001b000065
:1015e000c1db000081da0000401a0000001e00008c
:1015f000c1de000081df0000401f000001dd0000af
:10160000c01d0000801c000041dc00000014000030
:10161000c1d4000081d500004015000001d70000b2
:10162000c01700008016000041d6000001d2000063
:10163000c01200008013000041d300000011000020
:10164000c1d1000081d000004010000001f0000076
:10165000c03000008031000041f100000033000084
:10166000c1f3000081f200004032000000360000ab
:10167000c1f6000081f700004037000001f50000ce
:10168000c03500008034000041f40000003c000040
:10169000c1fc000081fd0000403d000001ff000092
:1016a000c03f0000803e000041fe000001fa000043
:1016b000c03a0000803b000041fb00000039000000
:1016c000c1f9000081f80000403800000028000047
:1016d000c1e8000081e900004029000001eb0000a2
:1016e000c02b0000802a000041ea000001ee00004b
:1016f000c02e0000802f000041ef0000002d0000f0
:10170000c1ed000081ec0000402c000001e400006d
:10171000c02400008025000041e5000000270000f3
:10172000c1e7000081e60000402600000022000022
:10173000c1e2000081e300004023000001e100005d
:10174000c02100008020000041e0000001a0000056
:10175000c06000008061000041a100000063000043
:10176000c1a3000081a200004062000000660000ea
:10177000c1a6000081a700004067000001a500008d
:10178000c06500008064000041a40000006c0000ff
:10179000c1ac000081ad0000406d000001af000051
:1017a000c06f0000806e000041ae000001aa000082
:1017b000c06a0000806b000041ab000000690000bf
:1017c000c1a9000081a80000406800000078000066
:1017d000c1b8000081b900004079000001bb0000e1
:1017e000c07b0000807a000041ba000001be00000a
:1017f000c07e0000807f000041bf0000007d00002f
:10180000c1bd000081bc0000407c000001b40000ac
:10181000c07400008075000041b500000077000032
:10182000c1b7000081b600004076000000720000e1
:10183000c1b2000081b300004073000001b100009c
:10184000c07100008070000041b000000050000036
:10185000c190000081910000405100000193000000
:10186000c053000080520000419200000196000029
:10187000c05600008057000041970000005500004e
:10188000c19500008194000040540000019c0000bc
:10189000c05c0000805d0000419d0000005f000012
:1018a000c19f0000819e0000405e0000005a0000c1
:1018b000c19a0000819b0000405b0000019900007c
:1018c000c0590000805800004198000001880000c5
:1018d000c04800008049000041890000004b000022
:1018e000c18b0000818a0000404a0000004e0000c9
:1018f000c18e0000818f0000404f0000018d00006c
:10190000c04d0000804c0000418c000000440000ed
:10191000c18400008185000040450000018700006f
:10192000c0470000804600004186000001820000a0
:10193000c0420000804300004183000000410000dd
:10194000c1810000818000004040000001020000d1
:10195000040800001020000040800000010000008a
:101960000200000004000000080000001000000059
:101970002000000040000000800000000001000086
:101980000002000000040000000800000010000039
:101990000020000000400000008000003101000035
:020000040000fa
:1019a0000000fa00001922008040eb000148780096
:1019b0002628ef000080fa00000006000000fa0070
:1019c000204a22008040eb0001487800304a220083
:1019d0008040eb0001487800404a220041c6b30035
:1019e00001487800004b20000100200030258900cc
:1019f0004125890040062000010020005025890073
:101a000061258900a00020000100200070258900c8
:101a100081258900e0012000010020009025890037
:101a2000a1258900604b22008040eb00014878002e
:101a3000704b220011c0b30001487800a0002000c4
:101a400001002000c0258900d1258900c04b22005b
:101a5000a1c0b30001487800d04b2200f1c0b30010
:101a600001487800e04b220081c2b30001487800b1
:101a7000f04b220011c0b30001487800004c220056
:101a80008040eb0001487800201d22008040eb00e0
:101a900001487800301d22008040eb0001487800aa
:101aa000801d22008040eb0001487800501d22007c
:101ab0008040eb0001487800601d22008040eb0070
:101ac00001487800701d22008040eb00014878003a
:101ad0001468ef001568ef00a00f2000010020003f
:101ae000d0408800e14088004038200001002000fc
:101af000f040880001418800a00f20000100200074
:101b000010418800214188000000280001002000c9
:101b1000700e8900810e89000040eb00af070700be
:101b20000080fa00000006000000fa000040eb0010
:101b3000aa070700c2c2a900da22a90010482200a1
:101b400010407800624060000004e00003003200b2
:101b5000801d22008040eb0001487800501d2200cb
:101b60008040eb0001487800601d22008040eb00bf
:101b700001487800701d22008040eb000148780089
:101b80000000280001002000700e8900810e8900ed
:101b90000080fa00000006000000fa00204a22003f
:101ba000104078000004e00006003200204a2200c5
:101bb00010407800e14f5000020032000000eb00be
:101bc000a5003700304a2200104078000004e000f1
:101bd0000e003200304a220010407800e14f5000e1
:101be0000a003200304a220010407800e24f5000d4
:101bf00006003200204a220010407800e14f5000d9
:101c000002003a000000eb009300370052258100eb
:101c100063258100803e200001002000800f5100dc
:101c2000818f590006003600204a220010407800bb
:101c3000e14f500002003a000000eb008600370040
:101c4000722581008325810080072000010020008b
:101c5000800f5100818f590006003600204a220073
:101c600010407800e14f500002003a000000eb0005
:101c7000790037007225810083258100902581003d
:101c8000a1258100800f5100818f59000b00360083
:101c900090258100a1258100e00f5000e08f5800c1
:101ca00006003200204a220010407800e14f500028
:101cb00002003a000000eb0067003700604b220092
:101cc000104078000004e00006003200604b220063
:101cd00010407800e14f5000020032000000eb009d
:101ce0005d003700704b2200104078000004e000d7
:101cf0000a003200704b220010407800e14f500083
:101d000006003200604b220010407800e14f500086
:101d100002003a000000eb004f003700c04b2200e9
:101d200090407800d04b22001040780080cf5000c7
:101d3000020036000000eb0047003700004c220094
:101d4000104078000004e00006003200004c220041
:101d500010407800e14f5000020032000000eb001c
:101d60003d0037007025810081258100421f200041
:101d70000289b900020178006002b900840178008c
:101d800003014100431f20000300b800010141008e
:101d90008200780010f0890021f089003025810050
:101da000412581005041880061418800304a22006d
:101db00010407800e14f50000f003a00502581009c
:101dc00061258100421f20000289b90002017800cc
:101dd0006002b9008401780003014100431f200024
:101de0000300b800010141008200780050f0890032
:101df00061f0890017003700304a22001040780057
:101e0000e24f50000f003a0050258100612581000b
:101e1000421f20000289b900020178006002b90067
:101e20008401780003014100431f20000300b80033
:101e3000010141008200780050f0890061f08900c2
:101e400004003700803e20000100200050f089008f
:101e500061f08900100020000080fa0000000600f8
:101e60000200fa0010482200104078006140600033
:101e70000004e00026003a001048220010407800dc
:101e8000624060000004e00021003a001048220097
:101e900010407800644060000004e0001c003a003c
:101ea0001048220010407800684060000004e00004
:101eb00017003a001048220010407800704060007f
:101ec0000004e00012003a001048220010407800a0
:101ed0000042b2000004e0000d003a001048220069
:101ee000104078000044b2000004e00008003a000e
:101ef000104822009040780000c8b30000c0600085
:101f00000004e00002003a000000eb005900370036
:101f10000040eb00004f780010482200104078008d
:101f2000614060000004e000010032001e4fe80044
:101f30001048220010407800624060000004e00079
:101f4000010032001e4fe8001048220010407800c7
:101f5000644060000004e000010032001e4fe80011
:101f60001048220010407800684060000004e00043
:101f7000010032001e4fe800104822001040780097
:101f8000704060000004e000010032001e4fe800d5
:101f900010482200104078000042b2000004e00027
:101fa000010032001e4fe800104822001040780067
:101fb0000044b2000004e000010032001e4fe800bf
:101fc000104822009040780000c8b30000c06000b4
:101fd0000004e000010032001e4fe8001e407800bf
:101fe000e14f5000020036000000eb0021003700f6
:101ff00010482200104078000044b2000004e000c5
:1020000006003200901d220010407800e14f500081
:1020100002003a000000eb001600370010482200d2
:10202000104078000042b2000004e00006003200d8
:10203000a01d220010407800e14f500002003a003d
:102040000000eb000b003700d03e2200104078006b
:102050000004e00006003200d03e2200104078006c
:10206000e14f5000020032000000eb000100370099
:10207000100020000080fa00000006000e00fa00a8
:102080009144800000042000808f50002300320023
:1020900000c5b300c629020000000000e14f400067
:1020a0001e003a00abc8bf000004e0000b003a007d
:1020b00056c8bf00e14f500008003a0000c5b30009
:1020c00082290200000000005668ef00103a20004c
:1020d0005a5402000200000010003700abc8bf00d5
:1020e0000004e0000d003a0056c8bf000004e00004
:1020f0000a003a0000c5b300822902000000000077
:102100005668ef00a0c4b30082290200000000005e
:10211000003a20005a54020002000000e04b220066
:10212000104078000004e00037003200604b2200cd
:1021300010407800e14f500033003a00ee540200a6
:10214000020000000000e00003003a005fc8bf008a
:10215000e14f50002c003a0080c2b300c6290200b3
:1021600000000000e14f400027003a00514280008b
:1021700000002800008060000000e0000f003a002e
:10218000701d220010407800e14f50000b003a0013
:10219000e0c4b300822902000000000080c2b30046
:1021a0008229020000000000da22a900303a200053
:1021b0005a54020002000000130037005142800010
:1021c00000002800008060000000e0000e003a00df
:1021d000701d2200104078000004e0000a003a0060
:1021e000e0c4b300822902000000000080c2b300f6
:1021f0008229020000000000da22a900203a200013
:102200005a5402000200000040c2b300c629020076
:1022100000000000e14f400009003a00ee540200c7
:10222000020000000000e0000500320040c2b300e0
:10223000822902000000000010c0b3002fe8b700a0
:1022400000192200104078000080fb00e20f5000cf
:10225000a6003200e20f500005003c000000e00044
:1022600008003200e10f50001c0032000605370064
:10227000e40f50006b033200e50f5000f40332000e
:102280000105370040c0b3008229020000000000b1
:1022900050c0b300822902000000000060c0b300fb
:1022a000822902000000000070c0b30082290200f1
:1022b0000000000080c0b30082290200000000007e
:1022c0002e68ef003168ef00062aef002f68ef005c
:1022d00010c0b30030e8b7002705370012fe070032
:1022e000082aef000a2aef000c2aef0050582200bb
:1022f000104078000004e00004003a00605822001a
:10230000104078000004e00006003200a0c4b300d2
:102310008229020000000000a0c4b300602902006e
:1023200000000000204a220010407800e14f5000d9
:1023300007003a00304a2200104078000004e00014
:1023400003003a0030508000f30f500010003400ba
:10235000204a220010407800e14f500004003a006b
:10236000304a220010407800e14f5000080032004f
:10237000204a220010407800e14f500011003a003e
:10238000304a220010407800e24f50000d003a0021
:1023900010c0b3002ee8b700201922008040eb00e7
:1023a000014878000e2aef00102aef00122aef00f1
:1023b000142aef000019220021c0b3000148780060
:1023c000090037002e68ef000000280001002000ff
:1023d000300e8900410e8900000028000100200015
:1023e000500e8900610e8900604b22001040780079
:1023f000e14f500011003a0030418000e90f5000d9
:102400000e003e0010c0b30031e8b700162aef00fe
:10241000182aef0080c0b30060290200000000000d
:1024200080c2b300602902000000000000192200f1
:1024300021c0b30001487800050037003168ef0083
:102440000000280001002000700e8900810e890024
:10245000a10d810000002400008060000000e00069
:1024600002003200b0fd0700c3043700104822000c
:1024700010407800684060000004e0000f003a005f
:102480001048220010407800704060000004e00016
:102490000a003a00104822001040780062406000b4
:1024a0000004e00005003a001048220010407800c7
:1024b000644060000004e0007804320068fe070019
:1024c0000000e00004003a00003820005a540200e6
:1024d00002000000a804370093fd07000019220045
:1024e00041c0b30001487800a3043700a10d81006a
:1024f00000002400008060000000e00002003200c4
:1025000089fd07009c043700104822001040780025
:10251000684060000004e0000f003a00104822000c
:1025200010407800704060000004e0000a003a00ab
:102530001048220010407800624060000004e00073
:1025400005003a0010482200104078006440600006
:102550000004e0000c00320041fe07000000e00033
:1025600004003a00003820005a5402000200000023
:10257000810437006cfd07000019220041c0b30040
:10258000014878007c0437002ec8bf00e14f50009e
:10259000d7013a00da650200020000000004e00002
:1025a00021003a0060fd070040c0b300822902000c
:1025b0000000000050c0b3008229020000000000ab
:1025c00060c0b300822902000000000070c0b300a8
:1025d000822902000000000080c0b30082290200ae
:1025e00000000000604b220010407800e14f5000d6
:1025f00003003a0080c0b300602902000000000020
:10260000162aef00182aef000e2aef00102aef001a
:10261000122aef00142aef000019220051c0b30063
:102620000148780054043700522581006325810059
:10263000803e200001002000800f5100818f590052
:1026400019003a00601d220011c0b3000148780053
:10265000304a220010407800e24f50000200320061
:10266000c2c2a80003003700404a22001040780090
:10267000da040700304a220010407800e24f500090
:102680009b013a0030c8bf00e14f500098013a006a
:102690003068ef002f68ef0040c2b30060290200ed
:1026a0000000000092013700502581006125810063
:1026b000e00f5000e08f58000c003a00601d22002f
:1026c0008040eb0001487800304a2200104078003a
:1026d000e24f500002003200c2c2a900840137005c
:1026e0000040eb00bd04070081013700301c2200d0
:1026f000104078000080fb00e10f5000b80032006d
:10270000e20f5000590132000000e00065013a007c
:1027100020192200104078000004e000040032007c
:102720002019220010407800e14f50002a003a00a2
:1027300060c0b300822902000000000070c0b30036
:10274000822902000000000060c0b300602902007e
:102750000000000070c0b30060290200000000000b
:10276000122aef00142aef00601d220011c0b300ee
:1027700001487800304a220010407800e24f5000b3
:1027800002003200c2c2a80003003700404a220003
:102790001040780091040700304a22001040780071
:1027a000e24f500008003a0030c8bf00e14f50002f
:1027b00005003a003068ef002f68ef0040c2b30018
:1027c00060290200000000002019220021c0b3008f
:1027d0000148780046013700201922001040780097
:1027e000e24f500031013a0060c0b300c629020038
:1027f00000000000e14f40000e003a0060c0b3004e
:102800008229020000000000601d22008040eb00d1
:1028100001487800304a220010407800e24f500012
:1028200002003200c2c2a900020037000040eb00e3
:102830006a04070070c0b300c6290200000000004f
:10284000e14f40001b013a0090508000a1508000f1
:1028500061004000e080480090508800a15088004e
:1028600070c0b300822902000000000070c0b300f5
:10287000602902000000000090508000a1508000fc
:102880000001be005041800061418000800f510076
:10289000818f590009013900122aef00142aef0034
:1028a000304a2200104078006a014700e6004700e5
:1028b000e8030700e10f500028003a003e009000b6
:1028c000ce009000300e8900410e89005e0090001d
:1028d000ee009000500e8900610e8900300e8100dc
:1028e000410e8100560e8100670e8100a5a12000d7
:1028f000a48220000001be000600be000204070002
:10290000d0508000e150800050f0890061f08900d3
:10291000304a220010407800e24f5000020032009e
:10292000c2c2a80003003700404a220010407800cd
:102930002a04070060c0b3008229020000000000e2
:1029400060c0b3006029020000000000601d22008a
:1029500011c0b30001487800e50037004050800006
:102960000000e80040508800305080000000e8007f
:1029700030508800601d22008040eb000148780044
:10298000304a220010407800e24f5000020032002e
:10299000c2c2a900020037000040eb000f0407008c
:1029a00040508000e40f500009003400000028006f
:1029b00001002000300e8900410e8900000028002f
:1029c00001002000500e8900610e89002e68ef0082
:1029d000103820005a54020002000000c4003700e2
:1029e00090258100a1258100e00f5000e08f580064
:1029f00019003a00601d220011c0b30001487800a0
:102a0000304a220010407800e24f500002003200ad
:102a1000c2c2a80003003700404a220010407800dc
:102a2000ee030700304a220010407800e24f5000c9
:102a3000a4003a0030c8bf00e14f5000a3003a00a4
:102a40003068ef002f68ef0040c2b3006029020039
:102a500000000000a600370070258100812581005c
:102a6000e00f5000e08f58000c003a00601d22007b
:102a70008040eb0001487800304a22001040780086
:102a8000e24f500002003200c2c2a9009800370095
:102a90000040eb00d1030700950037002019220009
:102aa000104078000004e0000400320020192200e9
:102ab00010407800e24f50002a003a0040c0b300b6
:102ac000822902000000000050c0b30082290200e9
:102ad0000000000040c0b3006029020000000000b8
:102ae00050c0b30060290200000000000e2aef0071
:102af000102aef00601d220011c0b30001487800c9
:102b0000304a220010407800e24f500002003200ac
:102b1000c2c2a80003003700404a220010407800db
:102b2000ae030700304a220010407800e24f500008
:102b300008003a0030c8bf00e14f500005003a00dd
:102b40003068ef002f68ef0040c2b3006029020038
:102b5000000000002019220011c0b30001487800d5
:102b6000630037002019220010407800e14f500028
:102b700058003a0040c0b300c6290200000000001f
:102b8000e14f40000e003a0040c0b300822902002d
:102b900000000000601d22008040eb00014878002a
:102ba000304a220010407800e24f5000020032000c
:102bb000c2c2a900020037000040eb0087030700f3
:102bc00050c0b300c629020000000000e14f4000e1
:102bd00042003a0070508000815080006100400047
:102be000e0804800705088008150880050c0b300d9
:102bf000822902000000000050c0b30060290200da
:102c00000000000070508000815080000001be0074
:102c100090258100a1258100800f5100818f5900ee
:102c200030003a0040c0b3006029020000000000fc
:102c30000e2aef00102aef00601d220011c0b30021
:102c400001487800304a220010407800e24f5000de
:102c500002003200c2c2a80025003700404a22000c
:102c6000104078005d03070021003700aefb07002d
:102c70002e68ef0031c8bf00e14f50001b003a0042
:102c8000162aef00182aef0080c0b3008229020044
:102c90000000000080c0b3006029020000000000b6
:102ca0001300370000000000110037000000000092
:102cb0000f003700000000000d003700000000008a
:102cc0000b00370000000000090037000000000082
:102cd000070037000000000005003700000000007a
:102ce0000300370000000000010037000000000072
:102cf00031c8bf00e14f50006a023a00ee540200b2
:102d0000020000000000e0006802320080c0b30052
:102d1000c629020000000000e14f400065023a00b1
:102d2000b0508000c150800061004000e080480049
:102d3000b0508800c150880080c0b30082290200d2
:102d40000000000080c0b300602902000000000005
:102d5000b0508000c15080000001be00c02581003d
:102d6000d1258100800f5100818f590093003900d7
:102d7000162aef00182aef00704b2200104078004e
:102d80008e80e8007e020700e10f500074003a00d8
:102d90000a2aef001e009000ae009000700e89001d
:102da000810e8900701d220010407800e14f500014
:102db00016003a0099c8bf00e14f50000b003200e6
:102dc00098c8bf00e14f500008003200a0df81002a
:102dd000640060000000e00004003a006476020035
:102de00000000000e14f500008003a0080c2b3002c
:102df0008229020000000000701d22008040eb00cc
:102e000001487800da22a90054003700701d220022
:102e100010407800e14f50001d003a00700e810014
:102e2000810e8100a2002000030020006006020045
:102e3000000000000001be00e04b220010407800be
:102e40008080fb00f04b2200104078000080fb00e7
:102e500000804000cf80de00800f5100818f59003c
:102e60000b00390080c2b30082290200000000007c
:102e700080c2b3006029020000000000701d220023
:102e80008040eb0001487800da22a90033003700c7
:102e9000e04b2200104078000004e00007023200fe
:102ea000701d2200104078000004e00005023a0086
:102eb000700e8100810e8100a2002000030020001e
:102ec00060060200000000000001be00e04b22008e
:102ed000104078008080fb00f04b2200104078000a
:102ee0000080fb0000805000cf80de00800f51008a
:102ef000818f5900f5013e0099c8bf000004e00031
:102f0000f4013a0098c8bf000004e000f3013a0061
:102f1000a0df8100640060000000e000f1013a00e1
:102f200064760200000000000004e000ef013a00b7
:102f300080c2b300822902000000000080c2b300fa
:102f40006029020000000000701d220011c0b300c3
:102f500001487800da22a80007023700060237008d
:102f6000505080000000e800505088005050800011
:102f7000e40f5000df0134000a2aef0030418000e6
:102f80000000e80030418800701d22008040eb0006
:102f900001487800da22a900000028000100200082
:102fa000700e8900810e89003168ef002038200002
:102fb0005a54020002000000ef013700701d220089
:102fc00010407800e14f5000cc013a0099c8bf0092
:102fd000e14f50000b00320098c8bf00e14f500095
:102fe00008003200a0df8100640060000000e00003
:102ff00004003a006476020000000000e14f500037
:10300000c0013a0080c2b300822902000000000023
:10301000701d22008040eb0001487800da22a900f0
:10302000d501370010482200104078006840600049
:103030000004e0000f003a00104822001040780021
:10304000704060000004e0000a003a0010482200ce
:1030500010407800624060000004e00005003a0083
:103060001048220010407800644060000004e00036
:103070000a0032007afb07000000e00004003a007a
:10308000003820005a5402000200000003003700fc
:103090000019220041c0b30001487800a10d810051
:1030a00000002400008060000000e0000500320005
:1030b0009dfa07000019220011c0b30001487800f2
:1030c000ad013700a10d81000000280000806000e4
:1030d0000000e0000500320093fa0700001922000a
:1030e00011c0b30001487800a30137001048220046
:1030f00010407800624060000004e0001a003200d6
:10310000d03e220010407800e14f50000b003a0002
:10311000a0c4b3008229020000000000a0c4b300d4
:103120006029020000000000801d220011c0b300d1
:1031300001487800e262a80025003700a0c4b3006f
:103140008229020000000000a0c4b3006029020030
:1031500000000000801d22008040eb000148780044
:10316000e262a9001a0037001048220010407800df
:10317000644060000004e00004003200501d2200a2
:103180008040eb0001487800110037001048220011
:1031900010407800684060000004e0000400320045
:1031a000601d22008040eb000148780008003700d5
:1031b0001048220010407800704060000004e000d9
:1031c00003003200701d22008040eb0001487800af
:1031d000104822008040eb00014878000040eb00de
:1031e000004f7800801d220010407800e14f500011
:1031f00001003a001e4fe800501d220010407800e8
:10320000e14f500001003a001e4fe800601d22000f
:1032100010407800e14f500001003a001e4fe800d6
:10322000701d220010407800e14f500001003a006c
:103230001e4fe8001e4078000004e00033013a0011
:103240000019220011c0b300014878004a0137007c
:10325000a10d810000002400008060000000e0005b
:103260000a00320080c0b300822902000000000082
:10327000162aef00182aef002bfa07000019220087
:1032800011c0b300014878003b013700104822000c
:1032900010407800684060000004e0000f003a0031
:1032a0001048220010407800704060000004e000e8
:1032b0000a003a0010482200104078006240600086
:1032c0000004e00005003a00104822001040780099
:1032d000644060000004e0001100320080c0b300d0
:1032e0008229020000000000162aef00182aef00d1
:1032f000dbfa07000000e00004003a00003820007c
:103300005a540200020000001b01370006fa0700b1
:103310000019220041c0b3000148780016013700af
:10332000da65020002000000e14f500009003a0097
:1033300080c0b3008229020000000000162aef00be
:10334000182aef000019220011c0b30001487800cc
:103350000901370031c8bf00e14f5000ed003a00cd
:10336000ee540200020000000000e000eb0032001a
:1033700080c0b300c629020000000000e14f4000f9
:10338000e8003a00b0508000c15080006100400069
:10339000e0804800b0508800c150880080c0b30071
:1033a000822902000000000080c0b30060290200f2
:1033b00000000000b0508000c15080000001be003d
:1033c000c0258100d1258100800f5100818f5900d7
:1033d00093003a00162aef00182aef00704b2200e3
:1033e000104078008e80e800e5000700e10f5000f3
:1033f00074003a000a2aef001e009000ae00900010
:10340000700e8900810e8900701d22001040780026
:10341000e14f500016003a0099c8bf00e14f50003c
:103420000b00320098c8bf00e14f50000800320086
:10343000a0df8100640060000000e00004003a00aa
:103440006476020000000000e14f500008003a00de
:1034500080c2b3008229020000000000701d22001b
:103460008040eb0001487800da22a90054003700c0
:10347000701d220010407800e14f50001d003a00fe
:10348000700e8100810e8100a20020000300200048
:1034900060060200000000000001be00e04b2200b8
:1034a000104078008080fb00f04b22001040780034
:1034b0000080fb0000804000cf80de00800f5100c4
:1034c000818f59000b00390080c2b30082290200ad
:1034d0000000000080c2b30060290200000000006c
:1034e000701d22008040eb0001487800da22a9001c
:1034f00033003700e04b2200104078000004e00069
:103500008a003200701d2200104078000004e000a4
:1035100088003a00700e8100810e8100a200200018
:103520000300200060060200000000000001be0051
:10353000e04b2200104078008080fb00f04b22001e
:10354000104078000080fb0000805000cf80de003b
:10355000800f5100818f590078003e0099c8bf004c
:103560000004e00077003a0098c8bf000004e000c3
:1035700076003a00a0df8100640060000000e000f7
:1035800074003a0064760200000000000004e000cd
:1035900072003a0080c2b3008229020000000000dd
:1035a00080c2b3006029020000000000701d2200ec
:1035b00011c0b30001487800da22a8006e0037007d
:1035c0006d003700505080000000e8005050880027
:1035d00050508000e40f5000620034000a2aef00cf
:1035e000304180000000e80030418800701d22005a
:1035f0008040eb0001487800da22a9000000280092
:1036000001002000700e8900810e89003168ef00f2
:10361000203820005a5402000200000056003700f3
:10362000701d220010407800e14f50004f003a001a
:1036300099c8bf00e14f50000b00320098c8bf008e
:10364000e14f500008003200a0df810064006000fc
:103650000000e00004003a00647602000000000070
:10366000e14f500043003a0080c2b30082290200bb
:1036700000000000701d22008040eb00014878002f
:10368000da22a9003c003700001922008040eb003c
:1036900001487800000000003700370000000000fb
:1036a0003500370000000000330037000000000044
:1036b00031003700000000002f003700000000003c
:1036c0002d003700000000002b0037000000000034
:1036d000290037000000000027003700000000002c
:1036e0002500370000000000230037000000000024
:1036f00021003700000000001f003700000000001c
:103700001d003700000000001b0037000000000013
:10371000190037000000000017003700000000000b
:103720001500370000000000130037000000000003
:1037300011003700000000000f00370000000000fb
:103740000d003700000000000b00370000000000f3
:1037500009003700000000000700370000000000eb
:1037600005003700000000000300370000000000e3
:1037700001003700000000000080fa000000060091
:103780000400fa00004f7800110798001e80fb002b
:103790000000e00003003200e10f50001a00320088
:1037a000290037002ec8bf000004e00010003a00d6
:1037b00014c8bf000004e00002003a0010c0b300cb
:1037c00014e8b70015c8bf000004e00006003a0086
:1037d000d0408000e14080001e0190000089be00c2
:1037e00010002000190037000000eb001700370020
:1037f000d0408000e14080001e0190000089be00a2
:10380000100020001100370016c8bf000004e000bf
:1038100002003a0010c0b30016e8b70017c8bf0096
:103820000004e00006003a001041800021418000c1
:103830001e0190000089be00100020000300370028
:103840000000eb00010037000000eb000080fa00f0
:10385000000006000600fa00004f780011079800eb
:10386000220798001e80fb000000e00005003200e7
:103870000000e00021003500e20f50001f003c0076
:103880001400370014c8bf000004e00002003a0032
:1038900010c0b30014e8b70015c8bf000004e00072
:1038a0000a003a00d0408000e14080001e019000f4
:1038b0000089be00f0408000014180002e01900090
:1038c0000089be00100020000d0037000000eb0052
:1038d0000b0037001e0190000000280001002000ae
:1038e0000089be002e019000000028000100200089
:1038f0000089be0010002000010037000000eb002e
:103900000080fa00000006000c00fa00008fbe00e4
:10391000220798003307980044079800550798003d
:10392000304a220010407800e14f500013003a0066
:1039300030258100412581004e0190000089be00a4
:103940005025810061258100421f20000289b900b5
:10395000020178006002b90084017800030141008f
:10396000431f20000300b8000101410082007800dd
:103970005e0190000089be0016003700304a220028
:1039800010407800e24f500012003a0030258100cc
:10399000412581004e0190000089be005025810024
:1039a00061258100421f20000289b90002017800d0
:1039b0006002b9008401780003014100431f200028
:1039c0000300b80001014100820078005e01900010
:1039d0000089be000080fa00000006000200fa0024
:1039e000004f780020c3b3009e40780080cf500085
:1039f000020034000040eb00004f78009460a90002
:103a00001e40780018e8b7009460a8000080fa0013
:043a100000000600ac
:020000040000fa
:103a14000400fa000e80e800000178002100200074
:103a2400002020009a78020002000000e90007004c
:103a3400000f78001e0090009e0f50000500320019
:103a440020de2200904078000104a00001487800a4
:103a54000500370020de220010417800e1cfb300da
:103a640081406100014878000e80e8000001780080
:103a740021002000003020009a780200020000009b
:103a84004a010700000f78001e0090009e0f5000ae
:103a94000400320020de2200904078000114a000cf
:103aa400014878000e80e800000178002100200021
:103ab400007020009a78020002000000090207004a
:103ac400000f78001e0090009e0f5000040032008a
:103ad40020de2200904078000124a00001487800f4
:103ae4000e80e80000017800210020000035240049
:103af4009a7802000200000091020700000f78008b
:103b04001e0090009e0f50000400320020de2200b0
:103b1400904078000134a000014878000e80e8004d
:103b24000001780021002000005024009a7802004f
:103b340002000000ff020700000f78001e00900042
:103b44009e0f50000400320030de220090407800c6
:103b54000104a000014878000e80e800000178000c
:103b640021002000004024009a7802000200000096
:103b740058030700000f7800304a220010407800f4
:103b8400e14f500012003600304a22009040780085
:103b940040c6b30080cf500003003600304a2200f4
:103ba40041c6b30001487800304a22001040780032
:103bb4000080fb000000d10080407800404a2200d1
:103bc40001487800304a220021c0b300014878003f
:103bd4001e0090009e0f50000400320020de2200e0
:103be400904078000144a00001487800942f02001e
:103bf400020000000004e0002d0032000e80e80006
:103c04000001780021002000007524009a78020049
:103c1400020000008a030700000f78001e009000d5
:103c24009e0f50000400320020de220090407800f5
:103c34000154a000014878000e80e80000017800db
:103c440021002000007924009a780200020000007c
:103c5400e2030700000f78001e0090009e0f500042
:103c64000400320020de2200904078000164a000ad
:103c7400014878000e80e80000017800210020004f
:103c8400008024009a780200020000003804070033
:103c9400000f78001e0090009e0f500004003200b8
:103ca40020de2200904078000174a00001487800d2
:103cb40010c0b3000080fa00000006000200fa0001
:103cc4000000eb00000f78002020200090438800c3
:103cd4000144220090438000010178000104200087
:103ce4009a78020002000000904380000004b000b3
:103cf400904388009e00780000442200010178006f
:103d0400010420007046020002000000000f780049
:103d14000e0078000001780021002000002020001f
:103d2400d8770200020000000080fa0000000600bc
:103d34000200fa000040eb00004f78000e00e8009b
:103d440082770200020000001e4090006140600083
:103d54000004e0001c003a0069c8bf000004e00051
:103d640002003a0020202000a04388009186200011
:103d740091407800f0c3b30080cf500010003e00a3
:103d8400a14380000244220069c8bf000080fb00f8
:103d940000004100104078000080fb00ce76020055
:103da40002000000a04380000000e800a043880057
:103db40069c8bf000040e80069e8b70002003700a6
:103dc40010c0b300004f78001e4078000080fa0055
:103dd400000006000200fa000000eb00000f78006b
:103de40020202000a043880001442200a04380003a
:103df40001017800010420009a780200020000000a
:103e0400a04380000004b000a043880000442200c6
:103e14001e01780001042000704602000200000028
:103e2400000f78001e0078000080fa0000000600f1
:103e34000200fa000040eb00004f780070c8bf0099
:103e44000004e00002003a00203020009043880083
:103e540070c8bf00f74f50001d003e00e2962200dc
:103e640070c8bf000080fb007e00b900000078002d
:103e7400800041009043800001017800e1012000ae
:103e84009a78020002000000904380007e00400007
:103e94009043880072438000e396220070c8bf00fc
:103ea4000080fb007e00b900000078000080410023
:103eb400e101200070460200020000007043880007
:103ec40070c8bf000040e80070e8b7000800370081
:103ed400e08620000001780021002000003020004e
:103ee400d87702000200000010c0b300004f780031
:103ef4001e4078000080fa00000006000400fa006a
:103f0400204798000040eb00004f78000e00e800c6
:103f140082770200020000001e40900061406000b1
:103f24000004e0001e003a0069c8bf000004e0007d
:103f340006003a002e4090000080fb007e00b9008d
:103f4400000078002030b000a043880069c8bf009a
:103f5400fd4f500010003e00a1438000e2c3220048
:103f640069c8bf000080fb000000410010407800d9
:103f74000080fb00ce76020002000000a043800017
:103f84000000e800a043880069c8bf000040e800c2
:103f940069e8b7000200370010c0b300004f780092
:103fa4001e4078000080fa00000006000400fa00b9
:103fb4000000eb00000f780020302000a0438800b0
:103fc4000040eb00204798001c003700e2962200d6
:103fd4002e4090000080fb007e00b90000007800b5
:103fe40080004100a043800001017800e10120002d
:103ff4009a78020002000000a04380007e00400086
:10400400a0438800e29622002e4090000080fb002e
:104014007e00b90000007800000041001e01780015
:10402400e10120007046020002000000000f780049
:104034002e4090000040e800204798002e40900059
:10404400f74f5000e1ff36001e0078000080fa00b0
:10405400000006000000fa001000200070438800f1
:10406400e0862000000178002100200000302000bc
:10407400d8770200020000000080fa000000060069
:104084000200fa000040eb00004f780070c8bf0047
:104094000004e00005003a0071c8bf000004e0001d
:1040a40002003a00207020009043880070c8bf00ce
:1040b400f74f500027003e0071c8bf00e44f500086
:1040c4001f003e00e278220071c8bf008080fb0020
:1040d400000620000088b90000007800800041003c
:1040e4009043800001017800010620009a780200c4
:1040f40002000000904380000006b0009043880056
:1041040072438000e378220071c8bf008080fb0006
:10411400000620000088b9000000780000804100fb
:10412400010620007046020002000000704388006f
:1041340071c8bf000040e80071e8b7000d00370007
:1041440070c8bf000040e80070e8b7007168ef0075
:1041540008003700e08620000001780021002000dc
:1041640000702000d87702000200000010c0b300e5
:10417400004f78001e4078000080fa00000006001e
:104184000400fa0020479800314798000040eb00f3
:10419400004f78000e00e800827702000200000061
:1041a4001e409000614060000004e00028003a00d6
:1041b40069c8bf000004e0000e003a002e409000e1
:1041c4000081fb003e4090000080fb006500b900c8
:1041d4000000780000004100800078000006200004
:1041e4000088b90080007800207020000080400022
:1041f400a04388009186200091407800f0c5b30068
:1042040080cf500010003e00a1438000e2722200e3
:1042140069c8bf000080fb00000041001040780026
:104224000080fb00ce76020002000000a043800064
:104234000000e800a043880069c8bf000040e8000f
:1042440069e8b7000200370010c0b300004f7800df
:104254001e4078000080fa00000006000400fa0006
:10426400204798002e4090008080fb00001e200014
:104274000088b900000078008000780020702000d9
:1042840000804000a04388000040eb00004f78000d
:104294000f003700e27822009e80fb000006200019
:1042a4000088b9000000780080004100a04380002d
:1042b40001017800010620009a7802000200000043
:1042c400a04380000006b000a04388001e4fe80011
:1042d4001e407800e44f5000eeff36000080fa00e4
:1042e400000006000400fa000000eb00000f780054
:1042f40020702000a04388000040eb002047980075
:10430400270037000040eb00304798001e003700bc
:10431400e27822003e4090008080fb0000062000ee
:104324000088b9000000780080004100a0438000ac
:1043340001017800010620009a78020002000000c2
:10434400a04380000006b000a0438800e278220069
:104354003e4090008080fb00000620000088b900e9
:1043640000007800000041001e01780001062000d2
:104374007046020002000000000f78003e409000ea
:104384000040e800304798003e409000e44f500061
:10439400dfff36002e4090000040e80020479800e0
:1043a4002e409000f74f5000d6ff36001e007800d4
:1043b4000080fa00000006000000fa00100020004f
:1043c40070438800e086200000017800210020006e
:1043d40000702000d8770200020000000080fa007c
:1043e400000006000200fa000040eb00004f7800d5
:1043f40070c8bf000004e00002003a002035240029
:104404009043880070c8bf00e54f50001a003e007a
:1044140070c8bf008080fb000070220080804000d4
:104424009043800001017800110020009a78020076
:1044340002000000904380000000e80090438800e0
:104444007143800070c8bf000081fb00007022002f
:1044540000004100010178001100200070460200b4
:10446400020000007043880070c8bf000040e800ec
:1044740070e8b70008003700e086200000017800eb
:104484002100200000352400d8770200020000003b
:1044940010c0b300004f78001e4078000080fa007e
:1044a400000006000200fa000040eb00004f780014
:1044b4000e00e80082770200020000001e40900017
:1044c400614060000004e0001a003a0069c8bf00bf
:1044d4000004e00002003a0020352400a0438800d4
:1044e40069c8bf00e54f500010003e00a1438000a2
:1044f40069c8bf000081fb00c0c522000000410064
:10450400104078000080fb00ce760200020000001c
:10451400a04380000000e800a043880069c8bf00f1
:104524000040e80069e8b7000200370010c0b3009b
:10453400004f78001e4078000080fa00000006005a
:104544000400fa000000eb00000f7800203524007e
:10455400a04388000040eb00204798001800370073
:104564002e4090008080fb0000702200808040007c
:10457400a043800001017800110020009a78020015
:1045840002000000a04380000000e800a04388006f
:104594002e4090008080fb000070220000804000cc
:1045a4001e01780011002000704602000200000085
:1045b400000f78002e4090000040e800204798004b
:1045c4002e409000e54f5000e5ff36001e007800b5
:1045d4000080fa00000006000200fa000040eb0030
:1045e400004f780070c8bf000004e00002003a00e9
:1045f400205024009043880070c8bf00f74f50003b
:104604001a003e0070c8bf008080fb00806e22004c
:104614008080400090438000010178001100200058
:104624009a78020002000000904380000000e80035
:10463400904388007143800070c8bf000081fb0074
:10464400806e22000000410001017800110020006a
:1046540070460200020000007043880070c8bf006a
:104664000040e80070e8b70008003700e08620004a
:10467400000178002100200000502400d8770200b7
:104684000200000010c0b300004f78001e40780004
:104694000080fa00000006000200fa000040eb006f
:1046a400004f78000e00e80082770200020000004c
:1046b4001e409000614060000004e0001a003a00cf
:1046c40069c8bf000004e00002003a002050240042
:1046d400a043880069c8bf00f74f500010003e0097
:1046e400a143800069c8bf000081fb00409e2300f5
:1046f40000004100104078000080fb00ce760200ec
:1047040002000000a04380000000e800a0438800ed
:1047140069c8bf000040e80069e8b700020037003c
:1047240010c0b300004f78001e4078000080fa00eb
:10473400000006000400fa000000eb00000f7800ff
:1047440020502400a04388000040eb00204798003c
:10475400180037002e4090008080fb00806e2200fd
:1047640080804000a04380000101780011002000f7
:104774009a78020002000000a04380000000e800d4
:10478400a04388002e4090008080fb00806e2200b1
:10479400008040001e0178001100200070460200d5
:1047a40002000000000f78002e4090000040e80056
:1047b400204798002e409000f74f5000e5ff360048
:1047c4001e0078000080fa00000006000400fa00d1
:1047d4000000eb001007980020402400000f780030
:1047e400224a2200010220001e0078009a7802006a
:1047f40002000000010220001e8f40001e009000f5
:104804000001780001022000204a220070460200c4
:1048140002000000100798000e80e80000017800f4
:104824002100200000402400d8770200020000008c
:104834000080fa00000006000200fa000040eb00cd
:10484400004f78000e00e8008277020002000000aa
:104854001e409000614060000004e0001a003a002d
:1048640069c8bf000004e00002003a0020402400b0
:10487400a043880069c8bf00ff4f500010003e00ed
:10488400a143800069c8bf000081fb0020482200ca
:1048940000004100104078000080fb00ce7602004a
:1048a40002000000a04380000000e800a04388004c
:1048b40069c8bf000040e80069e8b700020037009b
:1048c40010c0b300004f78001e4078000080fa004a
:1048d400000006000200fa000000eb00000f780060
:1048e40020402400a0438800a0438000224a2200e4
:1048f400010220009a78020002000000a043800018
:104904000002b000a04388001e01780001022000cc
:10491400204a22007046020002000000000f7800c6
:104924001e0078000080fa00000006000400fa006f
:104934000000eb001007980020752400000f780099
:10494400804f220000017800610320001e007800df
:104954009a78020002000000610320001e8f4000cc
:104964009e009000804f2200010178006103200026
:104974007046020002000000100798000e80e80054
:10498400000178002100200000752400d87702007f
:10499400020000000080fa00000006000200fa0095
:1049a4000040eb00004f78000e00e8008277020020
:1049b400020000001e409000614060000004e0001e
:1049c4001c003a0069c8bf000004e00002003a007d
:1049d40020752400a043880091862000914078002f
:1049e40050c3b30080cf500010003e00a1438000ac
:1049f400224c220069c8bf000080fb000000410077
:104a0400104078000080fb00ce7602000200000017
:104a1400a04380000000e800a043880069c8bf00ec
:104a24000040e80069e8b7000200370010c0b30096
:104a3400004f78001e4078000080fa000000060055
:104a44000200fa000000eb00000f7800207524003b
:104a5400a0438800814f2200a04380000101780018
:104a6400610320009a78020002000000a043800045
:104a74006003b000a0438800804f22001e0178002c
:104a8400610320007046020002000000000f78005d
:104a94001e0078000080fa00000006000000fa0002
:104aa4001000200070438800e08620000001780098
:104ab4002100200000752400d877020002000000c5
:104ac4000080fa00000006000400fa000000eb0079
:104ad4001007980020792400000f78002055220048
:104ae40000017800410220001e0078009a7802003c
:104af40002000000410220001e8f40009e00900032
:104b04002055220001017800410220007046020075
:104b140002000000100798000e80e80000017800f1
:104b24002100200000792400d87702000200000050
:104b34000080fa00000006000200fa000040eb00ca
:104b4400004f78000e00e8008277020002000000a7
:104b54001e409000614060000004e0001c003a0028
:104b640069c8bf000004e00002003a002079240074
:104b7400a0438800918620009140780030c2b300a1
:104b840080cf500010003e00a1438000e25222007a
:104b940069c8bf000080fb0000004100104078009d
:104ba4000080fb00ce76020002000000a0438000db
:104bb4000000e800a043880069c8bf000040e80086
:104bc40069e8b7000200370010c0b300004f780056
:104bd4001e4078000080fa00000006000200fa007f
:104be4000000eb00000f780020792400a043880027
:104bf40021552200a04380000101780041022000d9
:104c04009a78020002000000a04380004002b00035
:104c1400a0438800205522001e0178004102200094
:104c24007046020002000000000f78001e007800a9
:104c34000080fa00000006000000fa0010002000c6
:104c440070438800e08620000001780021002000e5
:104c540000792400d8770200020000000080fa00e6
:104c6400000006000400fa000000eb0010079800a2
:104c740020802400000f78000058220000017800f2
:104c8400a10020001e0078009a78020002000000b3
:104c94009e0078006a8f40009e0090000058220019
:104ca40001017800a100200070460200020000000b
:104cb400100798000e80e800000178002100200011
:104cc40000802400d8770200020000000080fa006f
:104cd400000006000200fa000040eb00004f7800dc
:104ce4000e00e80082770200020000001e409000df
:104cf400614060000004e0001a003a0069c8bf0087
:104d04000004e00002003a0020802400a043880050
:104d140069c8bf00e94f500010003e00a143800065
:104d24006257220069c8bf000080fb0000004100f8
:104d3400104078000080fb00ce76020002000000e4
:104d4400a04380000000e800a043880069c8bf00b9
:104d54000040e80069e8b7000200370010c0b30063
:104d6400004f78001e4078000080fa000000060022
:104d74000200fa000000eb00000f780020802400fd
:104d8400a043880001582200a0438000010178005c
:104d9400a10020009a78020002000000a0438000d5
:104da4006a004000a0438800005822001e017800d9
:104db400a10020007046020002000000000f7800ed
:104dc4001e0078000080fa00000006000000fa00cf
:104dd4001000200070438800e08620000001780065
:104de4002100200000802400d87702000200000087
:104df4000080fa00000006000400fa000040eb0006
:104e0400004f78002000250090438800e1612200d3
:104e14009043800001017800410120009a7802004b
:104e2400020000009043800074004000904388001a
:104e34009e009000e0612200010178004101200001
:104e44007046020002000000100798000e80e8007f
:104e5400000178002100200000002500d87702001e
:104e64000200000010c0b300004f78001e4078001c
:104e74000080fa00000006000200fa000040eb0087
:104e8400004f78000e00e800827702000200000064
:104e94001e409000614060000004e0001a003a00e7
:104ea40069c8bf000004e00002003a0020002500a9
:104eb400a043880069c8bf00f34f500010003e00b3
:104ec400a1438000a260220069c8bf000080fb00eb
:104ed40000004100104078000080fb00ce76020004
:104ee40002000000a04380000000e800a043880006
:104ef40069c8bf000040e80069e8b7000200370055
:104f040010c0b300004f78001e4078000080fa0003
:104f1400000006000200fa000000eb00000f780019
:104f24000e0037009e00780070804000c200dd0053
:104f3400401b2200008140006000b8000089be00d0
:104f44001e007800c200dd00004422000081400001
:104f54006000b8000089be001e0fe8001e00780043
:104f6400ef0f5000efff36000000eb00000f780059
:104f74000a0037001e0078007e00b9008000780027
:104f8400e096220000804000e20120008000eb0057
:104f94001a070200000000001e0fe8001e0078003f
:104fa400f70f5000f3ff3600e20120008000eb0011
:104fb400e0c322001a070200000000000000eb001a
:104fc400000f78000b0037009e00780000062000d8
:104fd4000088b90080007800e0782200008040005a
:104fe400020620008000eb001a0702000000000007
:104ff4001e0fe8001e007800e40f5000f2ff360098
:10500400020620008000eb00e07222001a07020072
:10501400000000000000eb00000f780005003700de
:10502400007022001e0040008040eb000148780020
:105034001e0fe8001e007800e50f5000f8ff360050
:105044000000eb00000f780005003700806e22009e
:105054001e0040008040eb00014878001e0fe8006d
:105064001e007800f70f5000f8ff360002022000ff
:105074008000eb00204822001a0702000000000014
:10508400620320008000eb00204c22001a0702007b
:1050940000000000420220008000eb00e0522200e9
:1050a4001a07020000000000a20020008000eb00ac
:1050b400605722001a070200000000000080fa0076
:0450c40000000600e2
:020000040000fa
:1050c8000200fa000021ef0000fa20001008880012
:1050d8000421ef0021088000f0fc2f000080600010
:1050e8000040a0002008880021058000f0ff28006b
:1050f8008080600000002300010070002005880007
:105108008460a9009460a80005e1a8000040eb00b5
:10511800004f7800080037001e80fb006600b900c9
:1051280080007800e0cd2000008040008040eb0047
:10513800014878001e4fe80040c6b3009e40780042
:1051480080cf5000f4ff36000080fa00000006000f
:105158000200fa00605180007151800040518800bf
:10516800515188000040eb00004f78003a003700aa
:105178001e80fb006600b90080007800e0cd2000aa
:105188000080400010407800e24f50001a003a00ba
:1051980042518000535180001e80fb006600b90018
:1051a800000078008080e800e0cd2000008040000a
:1051b8001000be0000015100818159001e80fb00d3
:1051c800c200dd0020df2300008040001000be0088
:1051d800800f5100818f5900070039001e80fb00a5
:1051e8006600b90080007800e0cd20000080400013
:1051f80080c0eb00014878001e80fb006600b90003
:1052080080007800e0cd2000008040001040780049
:10521800e14f50000f003a001e81fb004051800012
:10522800515180006611b9008201780002ce200039
:10523800028141000089be001e80fb006600b900a3
:1052480080007800e0cd20000080400021c0b3003d
:10525800014878001e4fe80040c6b3009e40780021
:1052680080cf5000c2ff36000080fa000000060020
:105278000400fa00204798006051800071518000b6
:10528800000178002e4090000080fb006600b90005
:10529800000078008080e800e0cd20000080400019
:1052a8001000be0000007800000f51001e007800ba
:1052b8000080fa00000006000200fa00004f7800a3
:1052c80040c6b3009e40780080cf500008003e00e2
:1052d8001e80fb006600b90080007800e0cd200049
:1052e8000080400011c0b300014878000100370079
:1052f800000000000080fa00000006000200fa002a
:10530800004f780040c6b3009e40780080cf500020
:1053180008003e001e80fb006600b900800078008f
:10532800e0cd2000008040008040eb00014878007c
:1053380001003700000000000080fa0000000600ad
:105348000200fa00004f780040c6b3009e40780083
:1053580080cf500008003e001e80fb006600b900a8
:1053680080007800e0cd200000804000e1cfb3004d
:105378000148780001003700000000000080fa00b2
:10538800000006000200fa00004f780040c6b30093
:105398009e40780080cf5000020036000040eb00ad
:1053a800060037001e80fb006600b9008000780008
:1053b800e0cd200000804000104078000080fa0016
:1053c800000006000000fa008460a9006051800017
:1053d8007151800061004000e08048006051880001
:1053e80071518800304a220010407800e24f500086
:1053f80011003a0019c8bf000040e80019e8b700da
:10540800918120009140780010c3b30080cf5000f4
:10541800010036001968ef00918120009140780062
:1054280018c8bf0080cf500002003100c2c2a800d7
