:020000040000fa
:04000800142e0000b2
:020000040000fa
:04000c00142e0000ae
:020000040000fa
:04001000142e0000aa
:020000040000fa
:04001400142e0000a6
:020000040000fa
:04001800142e0000a2
:020000040000fa
:04001c00142e00009e
:020000040000fa
:04002000142e00009a
:020000040000fa
:04002400142e000096
:020000040000fa
:04002800142e000092
:020000040000fa
:04002c00142e00008e
:020000040000fa
:04003000142e00008a
:020000040000fa
:04003400142c000088
:020000040000fa
:04003800142e000082
:020000040000fa
:04003c00142e00007e
:020000040000fa
:04004000142e00007a
:020000040000fa
:04004400142e000076
:020000040000fa
:04004800142e000072
:020000040000fa
:04004c00142e00006e
:020000040000fa
:04005000d22c0000ae
:020000040000fa
:04005400142e000066
:020000040000fa
:04005800142e000062
:020000040000fa
:04005c00142e00005e
:020000040000fa
:04006000142e00005a
:020000040000fa
:04006400142e000056
:020000040000fa
:04006800142e000052
:020000040000fa
:04006c00142e00004e
:020000040000fa
:04007000142e00004a
:020000040000fa
:04007400142e000046
:020000040000fa
:04007800142e000042
:020000040000fa
:04007c00142e00003e
:020000040000fa
:04008000142e00003a
:020000040000fa
:04008400142e000036
:020000040000fa
:04008800142e000032
:020000040000fa
:04008c00142e00002e
:020000040000fa
:04009000142e00002a
:020000040000fa
:04009400142e000026
:020000040000fa
:04009800142e000022
:020000040000fa
:04009c00142e00001e
:020000040000fa
:0400a0003a2c0000f6
:020000040000fa
:0400a400602c0000cc
:020000040000fa
:0400a800142e000012
:020000040000fa
:0400ac00f82c00002c
:020000040000fa
:0400b000142e00000a
:020000040000fa
:0400b400142e000006
:020000040000fa
:0400b800142e000002
:020000040000fa
:0400bc00142e0000fe
:020000040000fa
:0400c000142e0000fa
:020000040000fa
:0400c400142e0000f6
:020000040000fa
:0400c800142e0000f2
:020000040000fa
:0400cc00142e0000ee
:020000040000fa
:0400d000142e0000ea
:020000040000fa
:0400d400142e0000e6
:020000040000fa
:0400d800142e0000e2
:020000040000fa
:0400dc00142e0000de
:020000040000fa
:0400e000142e0000da
:020000040000fa
:0400e400142e0000d6
:020000040000fa
:0400e800142e0000d2
:020000040000fa
:0400ec00142e0000ce
:020000040000fa
:0400f000142e0000ca
:020000040000fa
:0400f400142e0000c6
:020000040000fa
:0400f800142e0000c2
:020000040000fa
:0400fc00142e0000be
:020000040000fa
:04010000142e0000b9
:020000040000fa
:04010400142e0000b5
:020000040000fa
:04010800142e0000b1
:020000040000fa
:04010c00142e0000ad
:020000040000fa
:04011000142e0000a9
:020000040000fa
:04011400142e0000a5
:020000040000fa
:04011800142e0000a1
:020000040000fa
:04011c00142e00009d
:020000040000fa
:04012000142e000099
:020000040000fa
:04012400142e000095
:020000040000fa
:04012800142e000091
:020000040000fa
:04012c00142e00008d
:020000040000fa
:04013000142e000089
:020000040000fa
:04013400142e000085
:020000040000fa
:04013800142e000081
:020000040000fa
:04013c00142e00007d
:020000040000fa
:04014000142e000079
:020000040000fa
:04014400142e000075
:020000040000fa
:04014800142e000071
:020000040000fa
:04014c00142e00006d
:020000040000fa
:04015000142e000069
:020000040000fa
:04015400142e000065
:020000040000fa
:04015800142e000061
:020000040000fa
:04015c00142e00005d
:020000040000fa
:04016000142e000059
:020000040000fa
:04016400142e000055
:020000040000fa
:04016800142e000051
:020000040000fa
:04016c00142e00004d
:020000040000fa
:04017000862c0000d9
:020000040000fa
:04017400ac2c0000af
:020000040000fa
:04017800142e000041
:020000040000fa
:04017c00142e00003d
:020000040000fa
:04018000142e000039
:020000040000fa
:04018400142e000035
:020000040000fa
:04018800142e000031
:020000040000fa
:04018c00142e00002d
:020000040000fa
:04019000142e000029
:020000040000fa
:040194001e2d00001c
:020000040000fa
:04019800142e000021
:020000040000fa
:04019c00142e00001d
:020000040000fa
:04020800142e0000b0
:020000040000fa
:04020c00142e0000ac
:020000040000fa
:04021000142e0000a8
:020000040000fa
:04021400142e0000a4
:020000040000fa
:04021800142e0000a0
:020000040000fa
:04021c00142e00009c
:020000040000fa
:04022000142e000098
:020000040000fa
:04022400142e000094
:020000040000fa
:04022800142e000090
:020000040000fa
:04022c00142e00008c
:020000040000fa
:04023000142e000088
:020000040000fa
:04023400142e000084
:020000040000fa
:04023800142e000080
:020000040000fa
:04023c00142e00007c
:020000040000fa
:04024000142e000078
:020000040000fa
:04024400142e000074
:020000040000fa
:04024800142e000070
:020000040000fa
:04024c00142e00006c
:020000040000fa
:04025000142e000068
:020000040000fa
:04025400142e000064
:020000040000fa
:04025800142e000060
:020000040000fa
:04025c00142e00005c
:020000040000fa
:04026000142e000058
:020000040000fa
:04026400142e000054
:020000040000fa
:04026800142e000050
:020000040000fa
:04026c00142e00004c
:020000040000fa
:04027000142e000048
:020000040000fa
:04027400142e000044
:020000040000fa
:04027800142e000040
:020000040000fa
:04027c00142e00003c
:020000040000fa
:04028000142e000038
:020000040000fa
:04028400142e000034
:020000040000fa
:04028800142e000030
:020000040000fa
:04028c00142e00002c
:020000040000fa
:04029000142e000028
:020000040000fa
:04029400142e000024
:020000040000fa
:04029800142e000020
:020000040000fa
:04029c00142e00001c
:020000040000fa
:0402a000142e000018
:020000040000fa
:0402a400142e000014
:020000040000fa
:0402a800142e000010
:020000040000fa
:0402ac00142e00000c
:020000040000fa
:0402b000142e000008
:020000040000fa
:0402b400142e000004
:020000040000fa
:0402b800142e000000
:020000040000fa
:0402bc00142e0000fc
:020000040000fa
:0402c000142e0000f8
:020000040000fa
:0402c400142e0000f4
:020000040000fa
:0402c800142e0000f0
:020000040000fa
:0402cc00142e0000ec
:020000040000fa
:0402d000142e0000e8
:020000040000fa
:0402d400142e0000e4
:020000040000fa
:0402d800142e0000e0
:020000040000fa
:0402dc00142e0000dc
:020000040000fa
:0402e000142e0000d8
:020000040000fa
:0402e400142e0000d4
:020000040000fa
:0402e800142e0000d0
:020000040000fa
:0402ec00142e0000cc
:020000040000fa
:0402f000142e0000c8
:020000040000fa
:0402f400142e0000c4
:020000040000fa
:0402f800142e0000c0
:020000040000fa
:0402fc00142e0000bc
:020000040000fa
:04030000142e0000b7
:020000040000fa
:04030400142e0000b3
:020000040000fa
:04030800142e0000af
:020000040000fa
:04030c00142e0000ab
:020000040000fa
:04031000142e0000a7
:020000040000fa
:04031400142e0000a3
:020000040000fa
:04031800142e00009f
:020000040000fa
:04031c00142e00009b
:020000040000fa
:04032000142e000097
:020000040000fa
:04032400142e000093
:020000040000fa
:04032800142e00008f
:020000040000fa
:04032c00142e00008b
:020000040000fa
:04033000142e000087
:020000040000fa
:04033400142e000083
:020000040000fa
:04033800142e00007f
:020000040000fa
:04033c00142e00007b
:020000040000fa
:04034000142e000077
:020000040000fa
:04034400142e000073
:020000040000fa
:04034800142e00006f
:020000040000fa
:04034c00142e00006b
:020000040000fa
:04035000142e000067
:020000040000fa
:04035400142e000063
:020000040000fa
:04035800142e00005f
:020000040000fa
:04035c00142e00005b
:020000040000fa
:04036000142e000057
:020000040000fa
:04036400142e000053
:020000040000fa
:04036800142e00004f
:020000040000fa
:04036c00142e00004b
:020000040000fa
:04037000142e000047
:020000040000fa
:04037400142e000043
:020000040000fa
:04037800142e00003f
:020000040000fa
:04037c00142e00003b
:020000040000fa
:04038000142e000037
:020000040000fa
:04038400142e000033
:020000040000fa
:04038800142e00002f
:020000040000fa
:04038c00142e00002b
:020000040000fa
:04039000142e000027
:020000040000fa
:04039400142e000023
:020000040000fa
:04039800142e00001f
:020000040000fa
:04039c00142e00001b
:020000040000fa
:08580800442d04000000000023
:020000040000fa
:0858100000020000040000008a
:020000040000fa
:105828003600f800809fbe00829fbe00849fbe00a5
:10583800869fbe003400f80000002000a001880008
:105848000000fa00349e0200020000000080fa0006
:105858003400f9004f03be004f02be004f01be00e6
:0c5868004f00be003600f90000400600b2
:020000040000fa
:105874003600f800809fbe00829fbe00849fbe0059
:10588400869fbe003400f80000002000a0018800bc
:105894000000fa00ba130200020000000080fa00bf
:1058a4003400f9004f03be004f02be004f01be009a
:0c58b4004f00be003600f9000040060066
:020000040000fa
:1058c0003600f800809fbe00829fbe00849fbe000d
:1058d000869fbe003400f80000002000a001880070
:1058e0000000fa0068130200020000000080fa00c5
:1058f0003400f9004f03be004f02be004f01be004e
:0c5900004f00be003600f9000040060019
:020000040000fa
:10590c003600f800809fbe00829fbe00849fbe00c0
:10591c00869fbe003400f80000002000a001880023
:10592c000000fa0022760200020000000080fa005b
:10593c003400f9004f03be004f02be004f01be0001
:0c594c004f00be003600f90000400600cd
:020000040000fa
:105958003600f800809fbe00829fbe00849fbe0074
:10596800869fbe003400f80000002000a0018800d7
:105978000000fa00d2750200020000000080fa0060
:105988003400f9004f03be004f02be004f01be00b5
:0c5998004f00be003600f9000040060081
:020000040000fa
:1059a4003600f800809fbe00829fbe00849fbe0028
:1059b400869fbe003400f80000002000a00188008b
:1059c4000000fa002c940200020000000080fa009b
:1059d4003400f9004f03be004f02be004f01be0069
:0c59e4004f00be003600f9000040060035
:020000040000fa
:1059f0003600f800809fbe00829fbe00849fbe00dc
:105a0000869fbe003400f80000002000a00188003e
:105a10000000fa0034940200020000000080fa0046
:105a20003400f9004f03be004f02be004f01be001c
:0c5a30004f00be003600f90000400600e8
:020000040000fa
:105a3c003600f800809fbe00829fbe00849fbe008f
:105a4c00869fbe003400f80000002000a0018800f2
:105a5c000000fa003c940200020000000080fa00f2
:105a6c003400f9004f03be004f02be004f01be00d0
:0c5a7c004f00be003600f900004006009c
:020000040000fa
:105a8800ef9521000eff21000e01880000000000a4
:105a9800000020000000e0000200320000012000a9
:105aa8002002880014000700660007000000e000dc
:105ab80003003a00201c2a002100200002003700c1
:105ac8000000200001002000810f7000010032005a
:105ad80014000700000020000000e000020032006f
:105ae8000000020000000000008f02000200000019
:105af8000040da000000fe004440a900805a20005f
:105b08000000e0000300320000002000a00188002f
:105b18004440a800000006008a1f78008b1f780008
:105b28000000060091018800800478000000eb0066
:105b38001a003700e284440032a0b4009905ba0084
:105b4800e284440032a0b4009906ba00e28444001a
:105b580032a0b4000006eb00476fde00fd07b2007c
:105b6800636ce10003003a00ebff07000000eb0064
:105b78000a003700606ce10004003a00005deb00a9
:105b88008b05e900fdff3e00040037006168e10075
:105b9800010032000086eb000b00070019c7ba00ad
:105ba8001905ba000e04e00003003a000a00e000fc
:105bb800e0ff3a0000000600fe07b2009e018800e0
:105bc8008a047800f5ff3700395dba008b05e900d3
:105bd8000c003200295dba008b05e900080032008c
:105be8000c00e00003003a00e284440032a0b40054
:105bf800f5ff370019ddba008b05e900faff3a0016
:105c08008904e800e184440032a0b40000000600e2
:105c18002e38040000000000be430400000000000d
:105c28003400f800881f780008002000a8018800c8
:105c38004f0478000000fa00000000000000000097
:105c4800ffff37000000050003f0a200889fbe0098
:105c58008a9fbe008c1f78005e0107006501330033
:105c68006450e1004f0032006420e100520032002d
:105c780003826c0007003b000905d0000306d00032
:105c8800820f54000c065d00020039000200320049
:105c980089017800030678008582550004003d00dc
:105ca8000003fd008103fd008502ea008b854200a8
:105cb800840f720002003b0060001000e0801800b2
:105cc8006011b8000005eb007a28e1000a003900ed
:105cd80006007800c75ddd00f707b2008780750011
:105ce8002d003700828171000a017800610560008b
:105cf8008180d1000080d3008502e900f9ff3b00d4
:105d0800060440008784480002003b006004140039
:105d1800e0841c000988a300070032008a81710012
:105d280082817100610164008904d1000884d30074
:105d38008b05e800170037000978a30013003a0024
:105d48000b00e000130034008b05e9000804440050
:105d580089844c000a4474000978a3000d003a00b5
:105d68000b00e000070034008b05e900080444003c
:105d780089844c0001003a000b0020000978a30038
:105d8800f7ff32000001eb0002003700828171004a
:105d98000a017800d40007000cf0a70001f0a00069
:105da8001d0137006420e10002003a00838f6c0077
:105db8001d0133000801be000200be0016013700b5
:105dc8000001eb0057000700040032000200200029
:105dd80003f8230001f0a6009cff0700000006005e
:105de800889fbe008a9fbe008c1f7800f9000700bc
:105df8000001330003866c006450e1002e0032007d
:105e08006420e100330032006150e1002f003200cd
:105e18006120e1003100320085855500eb07b000b4
:105e28000900200008042000050037000804440089
:105e380089844c000a0031000603430087834b0025
:105e48000001530081815b00f8ff33000203be00ac
:105e58000800a0000804440089844c00f6ff3900bb
:105e6800c639dd00830173000100320013002000f1
:105e78008904d1000884d3000998a30005003200e2
:105e88000800a7000300a0008904d1000884d300fb
:105e98008b05e8008904d1000884d3000001eb00d9
:105ea8000281d2009000070001f0a1000cf0a700c9
:105eb80001f0a000d80037006420e100da003200c9
:105ec8000801be000200be00f7ff37006120e100b4
:105ed800d50032006000b800f3ff37000000200052
:105ee80001f82700f0ff3700839f68000100e000f9
:105ef80002003d0060001000e08018000300e00090
:105f080002003d0060011100e08119000c0107004a
:105f18004f00e00002003b0060001000e080180025
:105f280000000600889fbe008a9fbe000003be00d6
:105f38009300070085057800828152000200200046
:105f48006220e10004003a00f307b10004003500c4
:105f58007718e100040035000600be001400370081
:105f68006000b8000f003700f50f2000faff2f007f
:105f78008502d1000a85d3008301e900fcff3b00bc
:105f88008184620000046500890f7400f2ff32000a
:105f98008582ea000a85ea008184620000046500bf
:105fa8005100070007f0a70001f0a0000081eb00f6
:105fb8000200e0004f05be004f04be0000000600ce
:105fc80014002000f1003700f4ff2f00ef00370025
:105fd8000001be006a0007000470a70003f0a100da
:105fe8006509b100160032000d0035006828e1008f
:105ff80006003500f0ff2f00f1ff27000300e00046
:1060080013003b00010028000000050000004000cc
:10601800818048008502e900fcff3a00080037004b
:10602800f88f420002003c008000eb0000000500f1
:106038008100d1000080d3008502e800fcff3a000f
:106048000300e00002003b0060001000e080180040
:10605800000006000001be00490007000470a70008
:1060680003f0a10003f8a30013003a006509b1008a
:1060780010003200090035006928e10002003500ef
:106088000100280000000500000040008180480051
:106098008502e900fcff3a0000000600f88f420084
:1060a800050035008100d1000080d3008502e8009a
:1060b800fcff3a00000006008000eb00000005002d
:1060c8006011b800cc0037000001eb0095ff070015
:1060d800040032000200200003f8230001f0a700aa
:1060e800d9fe0700000006008100200061805500ed
:1060f8000b003d000b00200061fe2f000100e100b5
:106108001d00340082817100610164008904d1009e
:106118000884d3000000e800faff3a00710020006c
:106128006100640003007000020060000900320092
:1061380061044400e0844c000988a5000500320091
:106148008b05e8006808e10002003a008904d100e4
:106158000884d300f20f20000258e10005003d003a
:10616800c75ddd00f907b200898075000800780076
:10617800000006000bf827008b00780000000500df
:10618800c70ade00f107b200f50fb20008003200be
:10619800e1cf4200020032000170a0002400050097
:1061a800810f70000100320004080500440005005a
:1061b800810f700002003a00140005008502e90012
:1061c8000000400081c04800fcff3b000170a000b7
:1061d800240005000004be00e9ff07000003be001c
:1061e8000405be000200be00e5ff0700844f7500ed
:1061f800000006000200be006450e1000500360001
:106208006420e100020036000968a30001003a009a
:106218000800be000160a0004f0678004f05be00d0
:106228004f04be0000000600f0ff2f00f1ff27001a
:10623800f9ff3700811f78000100e00002003d00ef
:1062480060001000e08018000300e00002003d003c
:1062580060011100e0811900490007004f00e000cb
:1062680002003b0060001000e080180000000600fb
:10627800889fbe008a9fbe008c1f7800d5ff07004c
:10628800dcff330003866c006450e1002400320018
:106298006420e100270032006150e1002200320052
:1062a8006120e100210032008b854200eb07b1003c
:1062b8000134b800003ab8000804420089844a0052
:1062c800013ab8000030b8008880400009014a004f
:1062d80004003300000040008180480002014900aa
:1062e8008b05e900c909dd00830170000100320057
:1062f80013002000c814de004814dd004709de0042
:106308001200b200c808de000884700076ff07009b
:1063180001f0a1000cf0a70001f0a000beff3700bb
:106328006120e100c0ff32000801be000200be008b
:10633800f7ff37006150e100fcff3a00baff370071
:106348006022b800060220000000d0008180d20040
:106358000482d2008582d2000000a000020252000e
:1063680083825a00030031000202420083824a00fd
:106378000000a1000603e900f3ff3a000000060050
:10638800efff07000400be0000000600889fbe0063
:106398008a9fbe00841f78008eff07004f00780098
:1063a80011003300f0ff2f00838f6c0006003b00c4
:1063b800040565000a00a7000800370009f0a600d8
:1063c8001000200008003700820f5400838f5c0003
:1063d800030039001000200001003e0000002000ea
:1063e80009f0a7000000ea004f05be004f04be00f8
:1063f8000000e00000000600889fbe008a9fbe00e3
:1064080000827000040271000482710026003200cc
:106418000004be000200be006011b8006b09200035
:10642800950220000182cf000a0039000541b10021
:106438000082cf00070039000541b1000982cf0072
:10644800040039000541b1000882cf00010039007d
:106458000541b10005425200120032000a003b001b
:1064680082817100610164008100d1000080d30045
:106478008984d3000884d3008b05e8000442e8002f
:10648800f7ff3a00070037000804440089844c00ed
:1064980000004800818048008b05e9000442e900bb
:1064a800f9ff3a0010ff07004f05be004f04be0079
:1064b800000006008001780002003700815978004a
:1064c8000201e9000200e000fcff3a0000000600bb
:020000040000fa
:1064d80000000000020000000400000007000000a7
:1064e800090000000b0000000d0000000f00000074
:1064f8001100000014000000160000001800000041
:106508001a0000001c0000001f000000210000000d
:106518002300000025000000270000002a000000da
:106528002c0000002e0000003000000032000000a7
:106538003400000037000000390000003b00000074
:106548003d0000003f000000420000004400000041
:1065580046000000480000004a0000004c0000000f
:106568004f000000510000005300000055000000db
:10657800570000005a0000005c0000005e000000a8
:106588006000000062000000640000006700000076
:10659800690000006b0000006d0000006f00000043
:1065a800720000007400000076000000780000000f
:1065b8007a0000007d0000007f00000081000000dc
:1065c8008300000085000000870000008a000000aa
:1065d8008c0000008e000000900000009200000077
:1065e8009500000097000000990000009b00000043
:1065f8009d0000009f000000a2000000a400000011
:10660800a6000000a8000000aa000000ad000000dd
:10661800af000000b1000000b3000000b5000000aa
:10662800b8000000ba000000bc000000be00000076
:10663800c0000000c2000000c5000000c700000044
:10664800c9000000cb000000cd000000d000000011
:10665800d2000000d4000000d6000000d8000000de
:10666800da000000dd000000df000000e1000000ab
:10667800e3000000e5000000e8000000ea00000078
:10668800ec000000ee000000f0000000f200000046
:10669800f5000000f7000000f9000000fb00000012
:1066a800fd000000000100000201000004010000dc
:1066b80006010000000000004500000089000000fd
:1066c800ce00000013010000580100009c010000ea
:1066d800e1010000260200006a020000af0200008b
:1066e800f4020000390300007d030000c20300002b
:1066f800070400004c04000090040000d5040000ca
:106708001a0500005e050000a3050000e80500006a
:106718002d06000071060000b6060000fb0600000a
:106728003f07000084070000c90700000e080000aa
:106738005208000097080000dc080000200900004b
:1067480065090000aa090000ef090000330a0000eb
:10675800780a0000bd0a0000010b0000460b00008b
:106768008b0b0000d00b0000140c0000590c00002b
:106778009e0c0000e30c0000270d00006c0d0000cb
:10678800b10d0000f50d00003a0e00007f0e00006c
:10679800c40e0000080f00004d0f0000920f00000b
:1067a800d60f00000000000000000000bd08000037
:1067b800000000007a11000000000000371a0000f5
:1067c80000000000f422000000000000b12b0000cf
:1067d800000000006e340000000000002b3d0000a7
:1067e80000000000e845000000000000a54e000081
:1067f8000000000062570000000000001f60000059
:1068080000000000dc680000000000009971000032
:1068180000000000557a000000000000128300000c
:1068280000000000cf8b0000000000008c940000e6
:1068380000000000499d00000000000006a60000be
:1068480000000000c3ae00000000000080b7000098
:10685800000000003dc0000000000000fac8000071
:1068680000000000b7d100000000000074da00004a
:106878000000000031e3000000000000eeeb000023
:1068880000000000abf400000000000068fd0000fc
:10689800000000002506000001000000e20e0000d4
:1068a800010000009f170000010000005c200000ac
:1068b800010000001929000001000000d631000085
:1068c80001000000933a000001000000504300005e
:1068d800010000000d4c000001000000ca54000037
:1068e80001000000865d0000010000004366000012
:1068f80001000000006f000001000000bd770000eb
:10690800010000007a8000000100000037890000c3
:1069180001000000f491000001000000b19a00009d
:10692800010000006ea30000010000002bac000075
:1069380001000000e8b4000001000000a5bd00004f
:106948000100000062c60000010000001fcf000027
:1069580001000000dcd700000100000099e0000001
:106968000100000056e900000100000013f20000d9
:1069780001000000d0fa0000010000008d030000b3
:10698800020000004a0c0000020000000715000089
:1069980002000000c41d0000020000008126000063
:1069a800020000003e2f000002000000fb3700003c
:1069b80002000000b8400000020000007449000016
:1069c800020000003152000002000000ee5a0000f0
:1069d80002000000ab63000002000000686c0000c9
:1069e800020000002575000002000000e27d0000a2
:1069f800020000009f860000020000005c8f00007b
:106a0800020000001998000002000000d6a0000053
:106a18000200000093a900000200000050b200002c
:106a2800020000000dbb000002000000cac3000005
:106a38000200000087cc00000200000044d50000de
:106a48000200000001de000002000000bee60000b7
:106a5800020000007bef00000200000038f8000090
:106a680002000000f500000003000000b209000069
:106a7800030000006f120000030000002c1b000040
:106a880003000000e923000003000000a52c00001b
:106a98000300000062350000030000001f3e0000f4
:106aa80003000000dc46000003000000994f0000ce
:106ab80003000000565800000300000013610000a6
:106ac80003000000d0690000030000008d72000080
:106ad800030000004a7b0000030000000784000058
:106ae80003000000c48c0000030000008195000032
:106af800030000003e9e000003000000fba600000b
:106b080003000000b8af00000300000075b80000e3
:106b18000300000032c1000003000000efc90000bc
:106b280003000000acd200000300000069db000095
:106b38000300000026e4000003000000e3ec00006e
:106b480003000000a0f50000030000005dfe000047
:106b5800030000001a07000004000000d60f000020
:106b68000400000093180000040000000505000060
:106b780005050000050500000505000005050000e5
:106b880005050000050500000505000005050000d5
:106b980005050000050500000505000005050000c5
:106ba80005050000050500000505000005050000b5
:106bb80005050000050500000505000005050000a5
:106bc800050500000505000005050000000000009f
:106bd800c1c0000081c100004001000001c30000e5
:106be800c00300008002000041c2000001c600008e
:106bf800c00600008007000041c700000005000033
:106c0800c1c5000081c400004004000001cc0000a0
:106c1800c00c0000800d000041cd0000000f0000f6
:106c2800c1cf000081ce0000400e0000000a000025
:106c3800c1ca000081cb0000400b000001c9000060
:106c4800c00900008008000041c8000001d8000009
:106c5800c01800008019000041d90000001b000086
:106c6800c1db000081da0000401a0000001e0000ad
:106c7800c1de000081df0000401f000001dd0000d0
:106c8800c01d0000801c000041dc00000014000052
:106c9800c1d4000081d500004015000001d70000d4
:106ca800c01700008016000041d6000001d2000085
:106cb800c01200008013000041d300000011000042
:106cc800c1d1000081d000004010000001f0000098
:106cd800c03000008031000041f1000000330000a6
:106ce800c1f3000081f200004032000000360000cd
:106cf800c1f6000081f700004037000001f50000f0
:106d0800c03500008034000041f40000003c000061
:106d1800c1fc000081fd0000403d000001ff0000b3
:106d2800c03f0000803e000041fe000001fa000064
:106d3800c03a0000803b000041fb00000039000021
:106d4800c1f9000081f80000403800000028000068
:106d5800c1e8000081e900004029000001eb0000c3
:106d6800c02b0000802a000041ea000001ee00006c
:106d7800c02e0000802f000041ef0000002d000011
:106d8800c1ed000081ec0000402c000001e400008f
:106d9800c02400008025000041e500000027000015
:106da800c1e7000081e60000402600000022000044
:106db800c1e2000081e300004023000001e100007f
:106dc800c02100008020000041e0000001a0000078
:106dd800c06000008061000041a100000063000065
:106de800c1a3000081a2000040620000006600000c
:106df800c1a6000081a700004067000001a50000af
:106e0800c06500008064000041a40000006c000020
:106e1800c1ac000081ad0000406d000001af000072
:106e2800c06f0000806e000041ae000001aa0000a3
:106e3800c06a0000806b000041ab000000690000e0
:106e4800c1a9000081a80000406800000078000087
:106e5800c1b8000081b900004079000001bb000002
:106e6800c07b0000807a000041ba000001be00002b
:106e7800c07e0000807f000041bf0000007d000050
:106e8800c1bd000081bc0000407c000001b40000ce
:106e9800c07400008075000041b500000077000054
:106ea800c1b7000081b60000407600000072000003
:106eb800c1b2000081b300004073000001b10000be
:106ec800c07100008070000041b000000050000058
:106ed800c190000081910000405100000193000022
:106ee800c05300008052000041920000019600004b
:106ef800c056000080570000419700000055000070
:106f0800c19500008194000040540000019c0000dd
:106f1800c05c0000805d0000419d0000005f000033
:106f2800c19f0000819e0000405e0000005a0000e2
:106f3800c19a0000819b0000405b0000019900009d
:106f4800c0590000805800004198000001880000e6
:106f5800c04800008049000041890000004b000043
:106f6800c18b0000818a0000404a0000004e0000ea
:106f7800c18e0000818f0000404f0000018d00008d
:106f8800c04d0000804c0000418c0000004400000f
:106f9800c184000081850000404500000187000091
:106fa800c0470000804600004186000001820000c2
:106fb800c0420000804300004183000000410000ff
:106fc800c1810000818000004040000001020000f3
:106fd80004080000102000004080000001000000ac
:106fe800020000000400000008000000100000007b
:106ff80020000000400000008000000000010000a8
:10700800000200000004000000080000001000005a
:107018000020000000400000008000003101000056
:020000040000fa
:107028000200fa00004f7800114798001e409000b7
:107038008080fb00800720000088b900800078006d
:1070480040de2200008040001e4878000080fa00e0
:10705800000006000c00fa0040079800214f980035
:107068000040eb00404798002e4890008080fb00cd
:10707800800720000088b9008000780040de2200e8
:10708800008f40002e4890000080fb007e00b90071
:1070980080007800e09622000080400010079800e9
:1070a800ce0090004e4090000080fb000080400021
:1070b80021c0b300014878004e4090000040e8002d
:1070c80040479800ce0090004e4090000080fb00a2
:1070d80000804000ae4890001142b000014878009e
:1070e8004e4090000040e800404798004e40900015
:1070f8000040e800404798001e00780010407800e3
:10710800004178004e009000e40047002e6d020018
:10711800020000001e00780010f090000041780086
:107128004e009000e40047002e6d020002000000af
:107138001e007800104078000080fb006101b90053
:107148000080eb008080eb00020040008380480054
:107158008202200003002000820f5000838f580015
:1071680028053e0000600100280537002700370089
:10717800ce013700ce0237007a003700cb01370046
:10718800cb02370077003700c90237001f053700e8
:107198001e0537001d0537001c0537001b05370085
:1071a800850037001905370018053700170537001f
:1071b8001605370015053700140537001d0337007d
:1071c8001205370011053700100537000f05370085
:1071d8000e0537000d0537000c0537000b05370085
:1071e8000a05370009053700c103370007053700ce
:1071f8000605370005053700040537000305370085
:107208000205370001053700f90437001e00900019
:10721800c04090008180fb00504090000080fb003f
:107228004800dd0000807000004178004e009000aa
:10723800e40047002e6d0200020000001e009000ce
:10724800c04090008180fb00504090000080fb000f
:107258004800dd00008070004800de000041780032
:107268004e009000e40047002e6d0200020000006e
:107278001e0090009080fb00104090000080fb00f2
:107288004800dd0000807000004178004e0090004a
:10729800e40047002e6d0200020000001e0090006e
:1072a8009080fb00104090000080fb004800dd004b
:1072b800008070004800de00004178004e00900019
:1072c800e40047002e6d0200020000001e0090003e
:1072d800c05090008180fb00505090000080fb005f
:1072e8004800dd0000807000004178004e009000ea
:1072f800e40047002e6d0200020000001e0090000e
:10730800c05090008180fb00505090000080fb002e
:107318004800dd00008070004800de000041780071
:107328004e009000e40047002e6d020002000000ad
:107338002e4890000080fb00610b200080804000f8
:10734800206322000080400010407800004178004f
:107358004e009000e40047002e6d0200020000007d
:10736800ab0437001e00780010f09000f04f50007a
:1073780005003a0011c0b3002e489000f2760200d2
:1073880002000000040037008040eb002e48900007
:10739800f2760200020000001e00900020589000c3
:1073a800004178004e009000e40047002e6d020076
:1073b800020000009604370011c0b3002e48900068
:1073c800f2760200020000001e00780020189000eb
:1073d800004178004e009000e40047002e6d020046
:1073e800020000001e007800201890004800de000f
:1073f800004178004e009000e40047002e6d020026
:10740800020000001e00780030189000004178004b
:107418004e009000e40047002e6d020002000000bc
:107428001e007800301890004800de000041780007
:107438004e009000e40047002e6d0200020000009c
:107448001e00780030089000004178004e0090003f
:10745800e40047002e6d0200020000001e007800c4
:10746800300890004800de00004178004e0090008f
:10747800e40047002e6d0200020000001e007800a4
:1074880040189000004178004e009000e40047004a
:107498002e6d0200020000001e00780040189000c7
:1074a8004800de00004178004e009000e4004700ec
:1074b8002e6d0200020000001e007800f00090000f
:1074c80060009000004178004e009000e400470002
:1074d8002e6d0200020000001e007800600190007e
:1074e800f001900000f02f00010020000202780057
:1074f800030178008001780001007800030262002f
:10750800000061008000eb00c000dd0000002000ea
:107518000001be006120b800000171008181710086
:10752800481add004810de0000007200c818de00ae
:10753800004178004e009000e40047002e6d0200e4
:10754800020000001e00780060019000f001900029
:1075580000002000f10f20000202780003017800eb
:1075680080017800010078000302620000006100d9
:107578008000eb00c000dd00000020000001be001c
:107588006120b80000017100818171004018de009f
:1075980001002000004178004e009000e400470000
:1075a8002e6d0200020000001e007800f00090001e
:1075b800600090004808de00004178004e0090000e
:1075c800e40047002e6d0200020000001e00780053
:1075d80020089000004178004e009000e400470029
:1075e8002e6d0200020000001e00780020089000a6
:1075f8004800de00004178004e009000e40047009b
:107608002e6d0200020000001e007800300090007d
:10761800004178004e009000e40047002e6d020003
:10762800020000001e007800300090004800de00d4
:10763800004178004e009000e40047002e6d0200e3
:10764800020000001e007800104090000041780001
:107658004e009000e40047002e6d0200020000007a
:107668001e00780000609000004178004e009000f5
:10767800e40047002e6d0200020000001e007800a2
:1076880010109000004178004e009000e400470080
:107698002e6d0200020000001e00780010109000fd
:1076a8004800de00004178004e009000e4004700ea
:1076b8002e6d0200020000001e00780020109000cd
:1076c800004178004e009000e40047002e6d020053
:1076d800020000001e007800201090004800de0024
:1076e800004178004e009000e40047002e6d020033
:1076f800020000001e009000e04090008180fb0026
:10770800704090000080fb004800dd0000807000a1
:10771800004178004e009000e40047002e6d020002
:10772800020000001e009000e04090008180fb00f5
:10773800704090000080fb004800dd000080700071
:107748004800de00004178004e009000e400470049
:107758002e6d0200020000001e007800500090000c
:10776800004178004e009000e40047002e6d0200b2
:10777800020000001e007800500090004800de0063
:10778800004178004e009000e40047002e6d020092
:10779800020000001e0078003010900000417800c0
:1077a8004e009000e40047002e6d02000200000029
:1077b8001e007800301090004800de00004178007c
:1077c8004e009000e40047002e6d02000200000009
:1077d8001e00780050089000004178004e0090008c
:1077e800e40047002e6d0200020000001e00780031
:1077f800500890004800de00004178004e009000dc
:10780800e40047002e6d0200020000001e00780010
:1078180060089000004178004e009000e4004700a6
:107828002e6d0200020000001e0078006008900023
:107838004800de00004178004e009000e400470058
:107848002e6d0200020000002e489000e44f500008
:1078580004003e001e0078008040eb00115898009c
:10786800030037001e00780051c0b300115898007b
:107878001e00780010589000004178004e009000db
:10788800e40047002e6d0200020000001e00900078
:1078980020589000004178004e009000e400470016
:1078a8002e6d0200020000005903370011c0b3001a
:1078b8002e489000f2760200020000001e007800b8
:1078c800f000900060009000004178004e009000a9
:1078d800e40047002e6d0200020000001e00780040
:1078e80060019000f001900000f02f0001002000de
:1078f8000202780003017800800178000100780016
:1079080003026200000061008000eb00c000dd009f
:10791800000020000001be006120b80000017100d5
:1079280081817100481add004810de0000007200f5
:10793800c818de00004178004e009000e4004700bf
:107948002e6d0200020000001e0078006001900009
:10795800f001900000002000f10f200002027800e2
:1079680003017800800178000100780003026200ba
:10797800000061008000eb00c000dd000000200076
:107988000001be006120b800000171008181710012
:107998004018de0001002000004178004e009000f1
:1079a800e40047002e6d0200020000001e0078006f
:1079b800f0009000600090004808de000041780068
:1079c8004e009000e40047002e6d02000200000007
:1079d8001e00780020089000004178004e009000ba
:1079e800e40047002e6d0200020000001e0078002f
:1079f800200890004800de00004178004e0090000a
:107a0800e40047002e6d0200020000001e0078000e
:107a180030009000004178004e009000e4004700dc
:107a28002e6d0200020000001e0078003000900059
:107a38004800de00004178004e009000e400470056
:107a48002e6d0200020000001e0078001040900019
:107a5800004178004e009000e40047002e6d0200bf
:107a6800020000001e0078000060900000417800cd
:107a78004e009000e40047002e6d02000200000056
:107a88001e00780010109000004178004e00900011
:107a9800e40047002e6d0200020000001e0078007e
:107aa800101090004800de00004178004e00900061
:107ab800e40047002e6d0200020000001e0078005e
:107ac80020109000004178004e009000e40047002c
:107ad8002e6d0200020000001e00780020109000a9
:107ae8004800de00004178004e009000e4004700a6
:107af8002e6d0200020000001e009000e040900081
:107b08008180fb00704090000080fb004800dd0091
:107b180000807000004178004e009000e4004700ab
:107b28002e6d0200020000001e009000e040900050
:107b38008180fb00704090000080fb004800dd0061
:107b4800008070004800de00004178004e00900080
:107b5800e40047002e6d0200020000001e007800bd
:107b680050009000004178004e009000e40047006b
:107b78002e6d0200020000001e00780050009000e8
:107b88004800de00004178004e009000e400470005
:107b98002e6d0200020000001e00780030109000d8
:107ba800004178004e009000e40047002e6d02006e
:107bb800020000001e007800301090004800de002f
:107bc800004178004e009000e40047002e6d02004e
:107bd800020000001e007800500890000041780064
:107be8004e009000e40047002e6d020002000000e5
:107bf8001e007800500890004800de000041780020
:107c08004e009000e40047002e6d020002000000c4
:107c18001e00780060089000004178004e00900037
:107c2800e40047002e6d0200020000001e007800ec
:107c3800600890004800de00004178004e00900087
:107c4800e40047002e6d0200020000002e4890005c
:107c5800e44f500004003e001e0078008040eb0016
:107c680011589800030037001e00780051c0b30077
:107c7800115898001e0078001058900000417800b4
:107c88004e009000e40047002e6d02000200000044
:107c98001e00900020589000004178004e0090008f
:107ca800e40047002e6d0200020000005802370071
:107cb8001e00780010f09000e84f500004003200d9
:107cc8001e00780010f09000f84f500005003a00b0
:107cd80011c0b3002e489000f276020002000000a6
:107ce800040037008040eb002e489000f276020036
:107cf800020000001e007800f00090006000900074
:107d0800004178004e009000e40047002e6d02000c
:107d1800020000001e00780060019000f001900051
:107d280000f02f0001002000020278000301780013
:107d38008001780001007800030262000000610001
:107d48008000eb00c000dd00000020000001be0044
:107d58006120b8000001710081817100481add00be
:107d68004810de0000007200c818de0000417800ec
:107d78004e009000e40047002e6d02000200000053
:107d88001e00780020089000004178004e00900006
:107d9800e40047002e6d0200020000001e0078007b
:107da800200890004800de00004178004e00900056
:107db800e40047002e6d0200020000001e0078005b
:107dc80030009000004178004e009000e400470029
:107dd8002e6d0200020000001e00780030009000a6
:107de8004800de00004178004e009000e4004700a3
:107df8002e6d0200020000001e007800005890005e
:107e0800004178004e009000e40047002e6d02000b
:107e1800020000001e0090002058900000417800e9
:107e28004e009000e40047002e6d020002000000a2
:107e3800f701370011c0b3002e489000f276020017
:107e4800020000004e009000e400470052c0b3005a
:107e58002e6d0200020000001e00780050089000fd
:107e6800004178004e009000e40047002e6d0200ab
:107e7800020000001e007800500890004800de0054
:107e8800004178004e009000e40047002e6d02008b
:107e9800020000001e007800501890000041780091
:107ea8004e009000e40047002e6d02000200000022
:107eb8001e007800501890004800de00004178004d
:107ec8004e009000e40047002e6d02000200000002
:107ed8001e00780060189000004178004e00900065
:107ee800e40047002e6d0200020000001e0078002a
:107ef800601890004800de00004178004e009000b5
:107f0800e40047002e6d0200020000001e00780009
:107f180070189000004178004e009000e40047007f
:107f28002e6d0200020000001e00780070189000fc
:107f38004800de00004178004e009000e400470051
:107f48002e6d0200020000004e009000e400470081
:107f58000041eb002e6d0200020000001e007800b8
:107f6800701890006101b8000000200001f02f0097
:107f7800020278000301780080017800010078008f
:107f880003026200000061008000eb00c000dd0019
:107f9800000020000001be006120b800000171004f
:107fa800818171004818de0001002000004178003e
:107fb8004e009000e40047002e6d02000200000011
:107fc8001e00780010209000004178004e009000bc
:107fd800e40047002e6d0200020000001e00780039
:107fe800102090004800de00004178004e0090000c
:107ff800e40047002e6d0200020000001e00780019
:1080080000209000004178004e009000e4004700f6
:108018002e6d0200020000001e0078000020900073
:108028004800de00004178004e009000e400470060
:108038002e6d0200020000004e009000e400470090
:108048000041eb002e6d0200020000001e007800c7
:10805800002090006101b8000000200001f02f000e
:10806800020278000301780080017800010078009e
:1080780003026200000061008000eb00c000dd0028
:10808800000020000001be006120b800000171005e
:10809800818171004818de0001002000004178004d
:1080a8004e009000e40047002e6d02000200000020
:1080b8001e00780020209000004178004e009000bb
:1080c800e40047002e6d0200020000001e00780048
:1080d800202090004800de00004178004e0090000b
:1080e800e40047002e6d020002000000480137003e
:1080f80011c0b3002e489000f27602000200000082
:108108004e009000e400470062c0b3002e6d0200ec
:10811800020000001e00780050089000004178001e
:108128004e009000e40047002e6d0200020000009f
:108138001e007800500890004800de0000417800da
:108148004e009000e40047002e6d0200020000007f
:108158001e009000c05090008180fb00505090009d
:108168000080fb004800dd000080700000417800be
:108178004e009000e40047002e6d0200020000004f
:108188001e009000c05090008180fb00505090006d
:108198000080fb004800dd00008070004800de0021
:1081a800004178004e009000e40047002e6d020068
:1081b800020000001e007800402090000041780076
:1081c8004e009000e40047002e6d020002000000ff
:1081d8001e007800402090004800de000041780032
:1081e8004e009000e40047002e6d020002000000df
:1081f8001e00780050209000004178004e0090004a
:10820800e40047002e6d0200020000001e00780006
:10821800502090004800de00004178004e00900099
:10822800e40047002e6d0200020000001e007800e6
:1082380060209000004178004e009000e400470064
:108248002e6d0200020000001e00780060209000e1
:108258004800de00004178004e009000e40047002e
:108268002e6d0200020000001e00780070209000b1
:10827800004178004e009000e40047002e6d020097
:10828800020000001e007800702090004800de0008
:10829800004178004e009000e40047002e6d020077
:1082a800020000001e0078000028900000417800bd
:1082b8004e009000e40047002e6d0200020000000e
:1082c8001e007800002890004800de000041780079
:1082d8004e009000e40047002e6d020002000000ee
:1082e8001e00780010289000004178004e00900091
:1082f800e40047002e6d0200020000001e00780016
:10830800102890004800de00004178004e009000e0
:10831800e40047002e6d0200020000001e007800f5
:1083280020289000004178004e009000e4004700ab
:108338002e6d0200020000001e0078002028900028
:108348004800de00004178004e009000e40047003d
:108358002e6d0200020000001e00780030289000f8
:10836800004178004e009000e40047002e6d0200a6
:10837800020000001e007800302890004800de004f
:10838800004178004e009000e40047002e6d020086
:10839800020000001e00780070189000004178006c
:1083a8004e009000e40047002e6d0200020000001d
:1083b8001e007800701890004800de000041780028
:1083c8004e009000e40047002e6d020002000000fd
:1083d8004e009000e40047000041eb002e6d0200c3
:1083e800020000001e007800701890006101b800bb
:1083f8000000200001f02f0002027800030178003d
:10840800800178000100780003026200000061002a
:108418008000eb00c000dd00000020000001be006d
:108428006120b80000017100818171004818de00e8
:1084380001002000004178004e009000e400470051
:108448002e6d0200020000001e007800002090003f
:10845800004178004e009000e40047002e6d0200b5
:10846800020000001e007800002090004800de0096
:10847800004178004e009000e40047002e6d020095
:10848800020000004e009000e40047000041eb00ad
:108498002e6d0200020000001e00780000209000ef
:1084a8006101b8000000200001f02f0002027800ee
:1084b800030178008001780001007800030262005f
:1084c800000061008000eb00c000dd00000020001b
:1084d8000001be006120b8000001710081817100b7
:1084e8004818de0001002000004178004e0090008e
:1084f800e40047002e6d0200020000001e00780014
:1085080050189000004178004e009000e4004700a9
:108518002e6d0200020000001e0078005018900026
:108528004800de00004178004e009000e40047005b
:108538002e6d0200020000001e00780060189000f6
:10854800004178004e009000e40047002e6d0200c4
:10855800020000001e007800601890004800de004d
:10856800004178004e009000e40047002e6d0200a4
:10857800020000001e0078001020900000417800e2
:108588004e009000e40047002e6d0200020000003b
:108598001e007800102090004800de00004178009e
:1085a8004e009000e40047002e6d0200020000001b
:1085b8001e00780020209000004178004e009000b6
:1085c800e40047002e6d0200020000001e00780043
:1085d800202090004800de00004178004e00900006
:1085e800e40047002e6d020002000000080037007a
:1085f8001000200001002000508688006186880055
:1086080003003700000000000100370000000000f0
:108618004e40900052c2b300824040004e0090008d
:10862800214098004e409000e54040004e009000e8
:1086380041d899004e4090008080fb004e00900089
:108648000001eb00e06c020002000000f10f2000c6
:10865800810060005e4190006041610081407100ce
:10866800514798004800de00ee409000e0c06000ee
:1086780000c0700060479800ce0090004e40900007
:108688000080fb0000804000ee4090008180fb00ed
:10869800c408de00814078000142b000014878003b
:1086a8004e4090000040e80040479800ce009000ff
:1086b8004e4090000080fb0000804000ee4090009b
:1086c800efc060000142b000014878004e409000c1
:1086d8000040e80040479800ce0090004e409000cf
:1086e8000080fb0000804000de4090008180fb009d
:1086f800c408de00814078000142b00001487800db
:108708004e4090000040e80040479800ce0090009e
:108718004e4090000080fb0000804000de4090004a
:10872800efc060000142b000014878004e40900060
:108738000040e80040479800ce0090004e4090006e
:108748000080fb000080400031c0b3000148780081
:108758004e4090000040e800404798004e009000ce
:10876800a0e091000114a00021e099000080fa0027
:10877800000006001200fa007007980001579800e0
:1087880030c0b300004f78001e80fb00fe00900050
:1087980061417800124798001e4fe8001e80fb00d8
:1087a800fe00900061417800224798001e4fe800c3
:1087b8001e80fb00fe00900061417800324798005f
:1087c8001e4fe8001e80fb00fe009000614078000c
:1087d800004f98001e4fe8001e80fb00fe0090002e
:1087e80061407800104f98001e4fe8001e80fb0083
:1087f800fe00900061407800204f98001e4fe8006e
:108808000040eb00304f98000e5090000081fb00b4
:108818004e009000de009000c211dd0042002200f0
:10882800028141000089be001e80fb00fe0090000e
:1088380061407800404798001e4fe8001e80fb000a
:10884800fe00900061407800504798001e4fe800f5
:108858001e80fb00fe009000614078006047980091
:108868001e4fe8001e80fb00fe009000614078006b
:10887800704798001e4fe8000e5090008081fb0062
:108888002e009000be009000820720000299b900d7
:108898008201780042e12200028141000089be0085
:1088a8000e5090008080fb001e80fb007e0190002f
:1088b80062417800800720000088b90080007800b5
:1088c800c0e0220000804000024878001e4fe80007
:1088d8000e5090008080fb001e80fb007e019000ff
:1088e80062417800800720000088b9008000780085
:1088f800c0e0220000804000124098001e4fe800af
:108908000e5090008080fb001e80fb007e019000ce
:1089180062417800800720000088b9008000780054
:10892800e0e0220000804000024878001e4fe80086
:108938001e80fb00fe00900061407800404f9800c8
:108948001e4fe8001e80fb00fe009000614078008a
:10895800504f98001e4fe8000e5090008080fb009a
:108968006e019000800720000088b9008000780020
:10897800a0e5220000804000020878001e80fb006d
:10898800fe00900061407800004f98001e4fe800fc
:108998001e80fb00fe00900061407800104f980098
:1089a8001e4fe8001e80fb00fe009000614078002a
:1089b800204f98001e4fe8000040eb00304f980011
:1089c8000e5090000081fb004e009000de009000e9
:1089d800c211dd00420c2200028141000089be0064
:1089e8000e5090008080fb00800720000088b900ae
:1089f8008000780060e52200008140006000b80037
:108a08000089be002e4090000080fb00cf80de0071
:108a18004201200003002000820f5000838f58007d
:108a2800ea013e000060010014003700230037000f
:108a3800400037003f003700480037008d003700fe
:108a4800a00037006300370076003700cb003700fe
:108a580018013700af003700e2003700fb0037008d
:108a68002e013700470137006001370079013700d0
:108a7800ac01370091013700c40137000e50900057
:108a88008080fb00800720000088b9008000780003
:108a980060e5220000804000900078000100a000fe
:108aa800010878000e5090000080fb008040eb0029
:108ab80014e3020001000000c50137008040eb000c
:108ac8000e509000f2760200020000000e50900056
:108ad8008080fb00800720000088b90080007800b3
:108ae80060e5220000804000900078000110a0009e
:108af800010878000e5090008080fb00800720005d
:108b08000088b9008000780060e5220000804000fd
:108b1800900078000100a000010878000e50900035
:108b28000080fb008040eb0014e30200010000001d
:108b3800a701370011c0b3000e509000f276020072
:108b4800020000000e5090000080fb0011c0b3002e
:108b580014e30200010000009d0137008040eb0093
:108b68000e509000f2760200020000000e509000b5
:108b78008080fb00800720000088b9008000780012
:108b880060e5220000804000900078000100a0000d
:108b9800010878000e5090008080fb0080072000bc
:108ba8000088b9008000780060e52200008040005d
:108bb800900078000120a000010878000e50900075
:108bc8000080fb008040eb0014e30200010000007d
:108bd8007f01370011c0b3000e509000f2760200fa
:108be800020000000e5090008080fb0080072000eb
:108bf8000088b9008000780060e52200008040000d
:108c0800900078000170a000010878000e509000d4
:108c18000080fb0011c0b30014e302000100000053
:108c28006b01370011c0b3000e509000f2760200bd
:108c3800020000000e5090008080fb00800720009a
:108c48000088b9008000780060e5220000804000bc
:108c5800900078000160a000010878000e50900094
:108c68000080fb0011c0b30014e302000100000003
:108c78005701370011c0b3000e509000f276020081
:108c8800020000000e5090008080fb00800720004a
:108c98000088b9008000780060e52200008040006c
:108ca800900078000140a000010878000e50900064
:108cb8000080fb0011c0b30014e3020001000000b3
:108cc8004301370011c0b3000e509000f276020045
:108cd800020000000e5090008080fb0080072000fa
:108ce8000088b9008000780060e52200008040001c
:108cf800900078000130a000010878000e50900024
:108d08000080fb0011c0b30014e302000100000062
:108d18002f0137000e5090008080fb008007200054
:108d28000088b9008000780060e5220000804000db
:108d3800900078000100a000010878000e50900013
:108d48008080fb00800720000088b9008000780040
:108d580060e5220000804000900078000180a000bb
:108d6800010878000e5090000080fb0011c0b3008d
:108d780014e3020001000000150137000e509000b6
:108d88008080fb00800720000088b9008000780000
:108d980060e5220000804000900078000100a000fb
:108da800010878000e5090008080fb0080072000aa
:108db8000088b9008000780060e52200008040004b
:108dc800900078000190a000010878000e509000f3
:108dd8000080fb0011c0b30014e302000100000092
:108de800fb0037000e5090008080fb0080072000b9
:108df8000088b9008000780060e52200008040000b
:108e0800900078000100a000010878000e50900042
:108e18008080fb00800720000088b900800078006f
:108e280060e52200008040009000780001a0a000ca
:108e3800010878000e5090000080fb0011c0b300bc
:108e480014e3020001000000e10037000e5090001a
:108e58008080fb00800720000088b900800078002f
:108e680060e5220000804000900078000100a0002a
:108e7800010878000e5090008080fb0080072000d9
:108e88000088b9008000780060e52200008040007a
:108e98009000780001b0a000010878000e50900002
:108ea8000080fb0011c0b30014e3020001000000c1
:108eb800c70037000e5090008080fb00800720001c
:108ec8000088b9008000780060e52200008040003a
:108ed800900078000100a000010878000e50900072
:108ee8008080fb00800720000088b900800078009f
:108ef80060e52200008040009000780001c0a000da
:108f0800010878000e5090000080fb0011c0b300eb
:108f180014e3020001000000ad0037000e5090007d
:108f28008080fb00800720000088b900800078005e
:108f380060e5220000804000900078000100a00059
:108f4800010878000e5090008080fb008007200008
:108f58000088b9008000780060e5220000804000a9
:108f68009000780001d0a000010878000e50900011
:108f78000080fb0011c0b30014e3020001000000f0
:108f8800930037000e5090008080fb00800720007f
:108f98000088b9008000780060e522000080400069
:108fa800900078000100a000010878000e509000a1
:108fb8008080fb00800720000088b90080007800ce
:108fc80060e52200008040009000780001e0a000e9
:108fd800010878000e5090000080fb0011c0b3001b
:108fe80014e3020001000000790037000e509000e1
:108ff8008080fb00800720000088b900800078008e
:1090080060e5220000804000900078000100a00088
:10901800010878000e5090008080fb008007200037
:109028000088b9008000780060e5220000804000d8
:109038009000780001f0a000010878000e50900020
:109048000080fb0011c0b30014e30200010000001f
:109058005f0037000e5090008080fb0080072000e2
:109068000088b9008000780060e522000080400098
:10907800900078000100a000010878000e509000d0
:109088008080fb00800720000088b90080007800fd
:1090980080e5220000804000900078000100a000d8
:1090a800010878000e5090000080fb0011c0b3004a
:1090b80014e3020001000000450037000e50900044
:1090c8008080fb00800720000088b90080007800bd
:1090d80060e5220000804000900078000100a000b8
:1090e800010878000e5090008080fb008007200067
:1090f8000088b9008000780080e5220000804000e8
:10910800900078000120a000010878000e5090001f
:109118000080fb0011c0b30014e30200010000004e
:109128002b0037000e5090008080fb008007200045
:109138000088b9008000780060e5220000804000c7
:10914800900078000100a000010878000e509000ff
:109158008080fb00800720000088b900800078002c
:1091680080e5220000804000900078000110a000f7
:10917800010878000e5090000080fb0011c0b30079
:1091880014e3020001000000110037000e509000a7
:109198008080fb00800720000088b90080007800ec
:1091a80080e5220000804000900078000130a00097
:1091b800010878000e5090000080fb008040eb0012
:1091c80014e3020001000000010037000000000065
:1091d8000e5090000080fb00610b20008080400052
:1091e800206322000080400010407800e54f5000c6
:1091f8004b003a000e5090008080fb009084800065
:10920800808f500021003a000e5090000004e000ca
:1092180043003a004039810051398100000078004c
:1092280061006000004078000004e0003c0032006b
:1092380011c0b3000e509000f27602000200000048
:109248000e5090000080fb0011c0b30014e3020030
:1092580001000000a184800000042000808f5000dd
:109268002f003200a08480000040780011c0b300b5
:10927800f276020002000000a084800011c0b30052
:1092880014e3020001000000250037000e50900092
:109298008080fb00a0848000808f500020003a006e
:1092a8000e5090000004e0001d003a004039810093
:1092b80051398100000078006100600000407800aa
:1092c8000004e0001600320011c0b3000e509000f8
:1092d800f2760200020000000e5090000080fb00b1
:1092e80011c0b30014e30200010000009184800063
:1092f80000042000808f5000090032009084800014
:109308000040780011c0b300f276020002000000ad
:109318009084800011c0b30014e302000100000033
:109328000080fa00000006000c00fa00889fbe00ca
:109338008a1f780040079800510798004e00900057
:10934800de0090006830020000000000008fbe00c0
:109358004e009000de009000e42e020000000000a5
:1093680020079800310798001e01be004e009000ab
:10937800de009000282e0200000000000004be005d
:109388004e019000de0190002e009000be0090007b
:10939800282e0200000000001ac0b3000001be0021
:1093a8000800be00e42f0200000000000000e000fa
:1093b800010035000045eb000a04e000020032001d
:1093c8001e00be00020037002e009000be00900074
:1093d8004f0578004f04be000080fa000000060028
:1093e8000e00fa004007980051079800424f980075
:1093f8000000eb001007980000c0eb004047980001
:109408000040eb00004f7800a00037009e80fb0072
:10941800000620000088b90080007800e07822006b
:1094280000804000300798004e4890000004e0009b
:1094380008003a003e009000204890000004e00038
:109448000f0032003e00900020489000e14f50008d
:109458000b0032004e489000e14f500044003a00a3
:109468003e00900020489000e24f50000400320077
:109478003e00900020489000e34f50003c003a0026
:109488003e019000a24190008381fb00324290008f
:109498000482fb004822dd0084817100030078000b
:1094a800c24190008381fb00524190000281fb0081
:1094b8004811dd0002817100820078004e019000a1
:1094c800de019000820f5000838f580028003e0074
:1094d8003e019000e24190008381fb0072429000bf
:1094e8000482fb004822dd008481710003007800bb
:1094f800824990008381fb00124990000281fb00a1
:109508004811dd0002817100820078004e01900050
:10951800de019000820f5000838f5800140036003f
:109528003e0090009080fb00104090000080fb00ff
:109538004800dd0000807000800078001e00900068
:10954800808f50000a0036003e0090009080fb009b
:10955800104090000080fb004800dd000080700093
:10956800100798009e407800414798004600370051
:109578004e4890000004e00043003a003e0090008e
:1095880020489000e44f5000040032003e00900054
:1095980020489000e14f50003b003a003e01900007
:1095a800a24190008381fb00324290000482fb00bc
:1095b8004822dd008481710003007800c2419000d8
:1095c8008381fb00524190000281fb004811dd00bd
:1095d80002817100820078004e019000de01900047
:1095e800820f5000838f580027003e003e019000f4
:1095f800e24190008381fb00724290000482fb00ec
:109608004822dd00848171000300780082499000bf
:109618008381fb00124990000281fb004811dd00a4
:1096280002817100820078004e019000de019000f6
:10963800820f5000838f5800130036003e009000c0
:109648009080fb00104090000080fb004800dd0087
:1096580000807000800078001e009000808f50000d
:10966800090036003e0090009080fb0010409000fa
:109678000080fb004800dd000080700010079800a3
:109688009e407800414798001e4fe8001e40780031
:10969800e44f50005dff36004e4090000080fa0015
:1096a800000006007200fa00889fbe00503798003c
:1096b8006137980062ef980073ef9800043f9800b4
:1096c8006ee890008080fb00800720000088b900c9
:1096d8008000780040de220000804000100f9800d3
:1096e8007ee89000e14f500005003a001e09900006
:1096f8006000b800000998001109980004003700bc
:109708001e0990006000b80060019800710198007f
:109718007ee990005e309000ee30900030ff070048
:10972800405798004e509000e14f4000ad03320082
:109738004e5090008080fb00000620000088b90091
:1097480080007800e078220000804000300f980008
:109758006ee890000080fb007e00b9008000780071
:10976800e096220000804000400f98000040eb0087
:10977800004f7800980337001e80fb00be09900058
:109788006e0040004201dd00634279000482fb0064
:1097980082824100954290008582fb00c82add0044
:1097a8000502720004007800028241002442900001
:1097b8000482fb0002814100324190000281fb00db
:1097c8004811dd000201720082007800500f9800f5
:1097d800610f98001e80fb000000e800be099000a1
:1097e8006e0040004201dd00634279000482fb0004
:1097f80082824100954290008582fb00c82add00e4
:1098080005027200040078000282410024429000a0
:109818000482fb0002814100324190000281fb007a
:109828004811dd000201720082007800700f980074
:10983800011798001e80fb00be09900064004000dc
:109848004201dd00634279000482fb00828241000c
:10985800954290008582fb00c82add00050272004f
:109868000400780002824100244290000482fb0038
:1098780002814100324190000281fb004811dd0065
:1098880002017200820078001017980021179800d2
:109898001e80fb000000e800be0990006400400044
:1098a8004201dd00634279000482fb0082824100ac
:1098b800954290008582fb00c82add0005027200ef
:1098c8000400780002824100244290000482fb00d8
:1098d80002814100324190000281fb004811dd0005
:1098e8000201720082007800301798004117980032
:1098f8005e319000ee3190005e089000ee08900016
:10990800800f5100818f59000f003a007ee89000c7
:10991800e14f500006003a001e0890001e1190000a
:10992800ae11900002089800130898002d03370024
:109938001e0890001e119000ae1190006200980061
:1099480073009800270337005e319000ee319000d5
:109958007e0890008e109000800f5100818f590072
:1099680012003a001e407800e84f50000f003a00fd
:109978007ee89000e14f500006003a001e08900073
:109988003e119000ce11900002089800130898002c
:10999800140337001e0890003e119000ce1190006d
:1099a80062009800730098000e0337005e31900043
:1099b800ee3190005e089000ee089000800f510094
:1099c800818f5900070036005e319000ee3190001b
:1099d8007e0890008e109000800f5100818f5900f2
:1099e800190039005e319000ee3190005e08900059
:1099f800ee089000800f5100818f5900030031005c
:109a08001e4078000004e0000f0032005e31900034
:109a1800ee3190007e0890008e109000800f51006b
:109a2800818f5900420136007e0890008e10900008
:109a3800e00f5000e08f58003d0132001e407800d2
:109a4800e84f50003a013a005e309000ee30900046
:109a58006430020000000000502798006127980039
:109a68005e089000ee0890006430020000000000dc
:109a780070279800012f98007e0890008e109000a3
:109a88006430020000000000102f9800212f980079
:109a98001e109000ae10900064300200000000001c
:109aa800302f9800412f98003e109000ce10900063
:109ab8006430020000000000502f9800612f9800c9
:109ac8007ee89000e14f5000ea003a007e219000c5
:109ad8008e2990001e289000ae289000282e0200a3
:109ae800000000000004be003e299000ce2990002e
:109af8005e289000ee289000282e0200000000004a
:109b08000001be000800be00f42e020000000000a4
:109b1800702f9800013798003e299000ce299000b8
:109b28007e2890008e3090003c310200000000003a
:109b38000001be007e2090008e289000282e020092
:109b48000000000010379800213798000040eb0013
:109b5800004f98000000eb00300798004e08900076
:109b68009080fb00104090000080fb004800dd0062
:109b7800008070008000eb006430020000000000ec
:109b88000004be003e0090008000eb00643002003c
:109b9800000000000001be000800be003c310200c9
:109ba800000000003e299000ce2990002a2e0200d5
:109bb8000000000010079800210798001e0190007f
:109bc800ae0190007e2890008e3090003c3102005b
:109bd800000000001e319000ae3190002a2e0200d5
:109be80000000000303798004137980018c0b300d3
:109bf8005e219000ee2190003e309000ce30900023
:109c0800e82f0200000000000000e00001003c0016
:109c18000044eb000804e0003c0032003e009000e5
:109c28000000e0001c0032003e0090000000e90047
:109c3800300798004e0890009080fb00104090007c
:109c48000080fb004800dd00008070008000eb0011
:109c580064300200000000000004be003e009000d6
:109c68008000eb0064300200000000000001be002c
:109c78000800be003c310200000000003e299000b0
:109c8800ce2990002a2e020000000000100798003c
:109c980021079800040037003e299000ce29900043
:109ca80012079800230798001e019000ae0190004b
:109cb8007e2890008e3090003c31020000000000a9
:109cc8001e319000ae3190002a2e020000000000e4
:109cd80030379800413798003e319000ce319000df
:109ce8005e209000ee209000282e02000000000068
:109cf8002e300200000000000e3990000089be00de
:109d080010c0b300004f98000d0037005e2190008e
:109d1800ee2190003e309000ce309000e42f0200fb
:109d2800000000000000e00005003a000e39900035
:109d38006000b8000089be0010c0b300004f980052
:109d480018c0b3005e299000ee2990001e00900014
:109d5800ae009000e82f0200000000000000e000c4
:109d680001003c000044eb000804e000330032002e
:109d78005e299000ee2990001207980023079800aa
:109d88007e2990008e3190001e009000ae00900059
:109d98003c310200000000001e319000ae319000fe
:109da8002a2e020000000000303798004137980042
:109db80018c0b3005e219000ee2190003e30900064
:109dc800ce309000e82f0200000000000000e00004
:109dd80001003c000044eb000804e0000b003200e6
:109de8005e219000ee2190003e309000ce30900031
:109df800282e0200000000002e30020000000000a3
:109e08000e3990000089be000a0037003e319000ec
:109e1800ce3190005e209000ee209000282e0200a7
:109e2800000000002e300200000000000e399000f3
:109e38000089be0010c0b300004f98003e0090009b
:109e48000000e800300798000e4890000004e00089
:109e580042ff32001e009000ae0090002e3002003b
:109e6800000000001e0990000009980011099800e0
:109e7800dc0137005e219000ee2190001e28900042
:109e8800ae289000282e0200000000003e29900015
:109e9800ce2990003c310200000000000004be0002
:109ea8007e2190008e2990005e209000ee20900088
:109eb800282e0200000000005e299000ee29900084
:109ec8003c310200000000000001be000800be0096
:109ed8002a2e0200000000000004be007e2190002f
:109ee8008e2990001e289000ae289000282e02008f
:109ef800000000000001be000800be00f42e0200b1
:109f08000000000008fd07001007980021079800ce
:109f18001e009000ae0090002e30020000000000ed
:109f28001e0990006001980071019800ad0137008a
:109f38005e319000ee3190005e089000ee089000cf
:109f4800800f5100818f5900a20136005e089000f1
:109f5800ee089000e00f5000e08f58009d0132009d
:109f68007e0890008e109000e00f5000e08f58009f
:109f780098013a001e80fb000000e900be0990002d
:109f88006e0040004201dd00634279000482fb005c
:109f980082824100954290008582fb00c82add003c
:109fa80005027200040078000282410024429000f9
:109fb8000482fb0002814100324190000281fb00d3
:109fc8004811dd000201720082007800500f9800ed
:109fd800610f98001e80fb00be0990006e004000d3
:109fe8004201dd00634279000482fb008282410065
:109ff800954290008582fb00c82add0005027200a8
:10a008000400780002824100244290000482fb0090
:10a0180002814100324190000281fb004811dd00bd
:10a028000201720082007800700f980001179800f2
:10a038001e80fb000000e900be099000640040009b
:10a048004201dd00634279000482fb008282410004
:10a05800954290008582fb00c82add000502720047
:10a068000400780002824100244290000482fb0030
:10a0780002814100324190000281fb004811dd005d
:10a0880002017200820078001017980021179800ca
:10a098001e80fb00be099000640040004201dd0004
:10a0a800634279000482fb0082824100954290005d
:10a0b8008582fb00c82add000502720004007800d2
:10a0c80002824100244290000482fb000281410088
:10a0d800324190000281fb004811dd00020172004c
:10a0e8008200780030179800411798005e30900081
:10a0f800ee30900064300200000000005017980015
:10a10800611798005e089000ee0890006430020025
:10a118000000000070179800011f98007e0890004a
:10a128008e1090006430020000000000101f98009c
:10a13800211f98001e109000ae109000643002009d
:10a1480000000000301f9800411f98003e1090004a
:10a15800ce1090006430020000000000501f9800ec
:10a16800611f98007ee89000e14f5000ea003a0035
:10a178007e1190008e1990001e189000ae18900065
:10a18800282e0200000000000004be003e199000c6
:10a19800ce1990005e189000ee189000282e02004c
:10a1a800000000000001be000800be00f42e0200fe
:10a1b80000000000701f9800012798003e199000c9
:10a1c800ce1990007e1890008e2090003c3102003d
:10a1d800000000000001be007e1090008e18900064
:10a1e800282e020000000000102798002127980060
:10a1f8000040eb00005798000000eb007007980043
:10a208004e0890009080fb00104090000080fb00fa
:10a218004800dd00008070008000eb006430020020
:10a22800000000000004be007e0090008000eb00eb
:10a2380064300200000000000001be000800be00fb
:10a248003c310200000000003e199000ce19900039
:10a258002a2e0200000000005007980061079800ad
:10a268005e019000ee0190007e1890008e20900014
:10a278003c310200000000001e219000ae21900039
:10a288002a2e02000000000030279800412798007d
:10a2980018c0b3005e119000ee1190003e209000af
:10a2a800ce209000e82f0200000000000000e0002f
:10a2b80001003c000044eb000804e0003c003200d0
:10a2c8007e0090000000e0001c0032007e0090003c
:10a2d8000000e900700798004e0890009080fb008d
:10a2e800104090000080fb004800dd0000807000f6
:10a2f8008000eb0064300200000000000004be0093
:10a308007e0090008000eb00643002000000000036
:10a318000001be000800be003c3102000000000041
:10a328003e199000ce1990002a2e0200000000006d
:10a338005007980061079800040037003e19900004
:10a34800ce19900052079800630798005e019000ac
:10a35800ee0190007e1890008e2090003c310200a3
:10a36800000000001e219000ae2190002a2e02005d
:10a378000000000030279800412798003e219000f7
:10a38800ce2190005e109000ee109000282e020062
:10a39800000000002e300200000000000e3990007e
:10a3a8000089be0010c0b300005798000d003700a8
:10a3b8005e119000ee1190003e209000ce2090009b
:10a3c800e42f0200000000000000e00005003a0051
:10a3d8000e3990006000b8000089be0010c0b300bc
:10a3e8000057980018c0b3005e199000ee1990004d
:10a3f8005e009000ee009000e82f020000000000d0
:10a408000000e00001003c000044eb000804e0000c
:10a41800330032005e199000ee1990005207980040
:10a42800630798007e1990008e2190005e009000ce
:10a43800ee0090003c310200000000001e21900058
:10a44800ae2190002a2e020000000000302798005c
:10a458004127980018c0b3005e119000ee119000db
:10a468003e209000ce209000e82f0200000000005f
:10a478000000e00001003c000044eb000804e0009c
:10a488000b0032005e119000ee1190003e2090000b
:10a49800ce209000282e0200000000002e3002007e
:10a4a800000000000e3990000089be000a00370045
:10a4b8003e219000ce2190005e109000ee1090009a
:10a4c800282e0200000000002e30020000000000cc
:10a4d8000e3990000089be0010c0b30000579800e4
:10a4e8007e0090000000e800700798000e50900071
:10a4f8000004e00042ff32005e009000ee00900091
:10a508002e300200000000001e099000000998008b
:10a5180011099800330037005e119000ee11900089
:10a528001e189000ae189000282e020000000000af
:10a538003e199000ce1990003c3102000000000046
:10a548000004be007e1190008e1990005e109000ed
:10a55800ee109000282e0200000000005e19900006
:10a56800ee1990003c310200000000000001be001e
:10a578000800be002a2e0200000000000004be00f1
:10a588007e1190008e1990001e189000ae18900051
:10a59800282e0200000000000001be000800be00d6
:10a5a800f42e0200000000005ffb0700500798002f
:10a5b800610798005e009000ee0090002e300200c7
:10a5c800000000001e0990006001980071019800c9
:10a5d800040037001e4fe8001e407800e84f500086
:10a5e80065fc36007ee89000e14f50000c003a0010
:10a5f8001e0890009008900000089000e00f50009e
:10a60800e08f580011003a006ee890000080fb00cf
:10a61800f015b000ca7a0200020000000b003700f3
:10a628001e089000f000900060009000e00f5000bd
:10a63800e08f580005003a006ee890000080fb00ab
:10a64800f015b000ca7a0200020000004e509000d7
:10a658004f04be000080fa00000006004e00fa0019
:10a66800889fbe00402798005127980042cf980045
:10a6780053cf98004ec890008080fb0080072000d0
:10a688000088b9008000780040de22000080400089
:10a69800100798001e0190006000b800000998009b
:10a6a800110998005ec990004e209000de209000ad
:10a6b8004bfb0700404798004e409000e14f400098
:10a6c800be0132004e4090008080fb000006200052
:10a6d8000088b90080007800e078220000804000ff
:10a6e800300798003e009000a04890001e0090009f
:10a6f800114098000040eb00004f7800ac01370093
:10a708001e80fb00be0190006e0040004201dd008b
:10a71800634279000482fb008282410095429000e6
:10a728008582fb00c82add0005027200040078005b
:10a7380002824100244290000482fb000281410011
:10a74800324190000281fb004811dd0002017200d5
:10a758008200780040079800510798001e80fb008f
:10a768000000e800be0190006e0040004201dd00dc
:10a77800634279000482fb00828241009542900086
:10a788008582fb00c82add000502720004007800fb
:10a7980002824100244290000482fb0002814100b1
:10a7a800324190000281fb004811dd000201720075
:10a7b8008200780060079800710798001e80fb00ef
:10a7c800be019000640040004201dd006342790050
:10a7d8000482fb0082824100954290008582fb0042
:10a7e800c82add00050272000400780002824100d8
:10a7f800244290000482fb00028141003241900013
:10a808000281fb004811dd0002017200820078001d
:10a81800000f9800110f98001e80fb000000e80050
:10a82800be019000640040004201dd0063427900ef
