:020000040000fa
:082e0800ae17040000000000f9
:020000040000fa
:102f5c00efdb200080ff2000000188000000000053
:102f6c000a00070011000700000020000000e0002c
:102f7c00020032000000020000000000dc560200db
:102f8c00000000000040da000000fe004440a900f0
:102f9c00008120000000e00003003200000020004f
:102fac00a00188004440a80000000600e063250052
:102fbc00010020001600370062004000e08048004d
:102fcc00910188009001ba0062004000e080480046
:102fdc00910188009002ba0062004000e080480035
:102fec000002eb006028e10005003a008301e900d3
:102ffc0007003300038009000059eb000400370080
:10300c006128e100010032000082eb00050007009e
:10301c00910188001001ba000200e000e6ff3a00be
:10302c0000000500910188008002780062004000d9
:10303c00e08048003559ba008301e90008003200ed
:10304c002559ba008301e900050032000400e000b4
:10305c00f4ff320015d9ba008301e900f1ff3a0000
:10306c00000006000000000000000000000000004e
:10307c00000000008001eb00020037008171780035
:10308c008301e800828f5100fcff3a00000006002b
:10309c00839f68000100e00002003d00600010000a
:1030ac00e08018000300e00002003d006001110008
:1030bc00e08119000b0007004f00e00002003b000c
:1030cc0060001000e080180000000600020ab90041
:1030dc00001bb9000200b8008100420081004300cf
:1030ec00000006006022b800060220000000d0009c
:1030fc008180d2000482d2008582d2000000a00020
:10310c000202520083825a00030031000202420084
:10311c0083824a000000a1000603e900f3ff3a0095
:10312c00000006000001be00710107000470a7003a
:10313c0003f0a10003f8a30013003a006509b100e5
:10314c0010003200090035006928e100020035004a
:10315c0001002800000005000000400081804800ac
:10316c008502e900fcff3a0000000600f88f4200df
:10317c00050035008100d1000080d3008502e800f5
:10318c00fcff3a00000006008000eb000000050088
:10319c00889fbe008a9fbe00010578000100e000f8
:1031ac000400350008003c000000e0002000320064
:1031bc000500370060001000e080180002003b00a2
:1031cc0001f02c001a0037000004be006011b8009a
:1031dc006b0920000982cf00020039000882cf0061
:1031ec000441b000694252000e00320008003b005e
:1031fc0082817100610164008904d1000884d300cc
:10320c008b05e8000442e800f9ff3a00050037009e
:10321c000804440089844c008b05e9000442e90051
:10322c00fbff3a00470107000af0a70001f0a000dd
:10323c004f05be004f04be000000060003f0a200c4
:10324c00889fbe008a9fbe008c1f78006301070018
:10325c006a0133006450e1004f0032006420e10049
:10326c005200320003826c0007003b000905d000bd
:10327c000306d000820f54000c065d0002003900da
:10328c00020032008901780003067800858255001f
:10329c0004003d000003fd008103fd008502ea00ef
:1032ac008b854200840f720002003b00600010000e
:1032bc00e08018006011b8000005eb007a28e100ee
:1032cc000a00390006007800c75ddd00f707b20080
:1032dc00878075002d003700828171000a0178000b
:1032ec00610560008180d1000080d3008502e90077
:1032fc00f9ff3b00060440008784480002003b00b5
:10330c0060041400e0841c000988a300070032004c
:10331c008a81710082817100610164008904d1008d
:10332c000884d3008b05e800170037000978a30048
:10333c0013003a000b00e000130034008b05e90089
:10334c000804440089844c000a4474000978a300e2
:10335c000d003a000b00e000070034008b05e9007b
:10336c000804440089844c0001003a000b00200042
:10337c000978a300f7ff32000001eb0002003700d0
:10338c00828171000a017800ee0007000cf0a700a2
:10339c0001f0a000220137006420e10002003a0095
:1033ac00838f6c00220133000801be000200be00b6
:1033bc001b013700889fbe008a9fbe008c1f7800bf
:1033cc000004be00ca0007000478a30026003a00df
:1033dc006120e1002500320009f8a30025003a0025
:1033ec006420e10021003200f507b1000508a300bc
:1033fc000200320000004000818048006044b800a8
:10340c0003102000020020000000400081804800d2
:10341c000805440089854c000a0541008b8549004c
:10342c000a0550008b855800030033000a00be00cb
:10343c0002047400838474008301d1000281d300e0
:10344c00830f7100f0ff3a008904d1000884d30087
:10345c006001490082017800c1adde00fb07b000bd
:10346c00b8000700ee0037000960a0000800be009d
:10347c00eb00370012022000124f8800f0ff2f00e3
:10348c00f1ff2700e6003700889fbe008a9fbe0030
:10349c008c1f7800d1000700d800330003866c0025
:1034ac006450e100240032006420e1002700320067
:1034bc006150e100220032006120e1002100320065
:1034cc008b854200eb07b1000134b800003ab8001c
:1034dc000804420089844a00013ab8000030b80060
:1034ec008880400009014a000400330000004000bd
:1034fc0081804800020149008b05e900c909dd0003
:10350c00830170000100320013002000c814de009b
:10351c004814dd004709de001200b200c808de00c6
:10352c00088470008700070001f0a1000cf0a700d0
:10353c0001f0a000ba0037006120e100bc003200ad
:10354c000801be000200be00f7ff37006150e10029
:10355c00fcff3a00b60037000001be006400070013
:10356c000470a70003f0a1006509b1001600320039
:10357c000d0035006828e10006003500f0ff2f0033
:10358c00f1ff27000300e00013003b0001002800be
:10359c000000050000004000818048008502e90021
:1035ac00fcff3a0008003700f88f420002003c0094
:1035bc008000eb00000005008100d1000080d300ea
:1035cc008502e800fcff3a000300e00002003b002b
:1035dc0060001000e080180000000600889fbe000c
:1035ec008a9fbe008c1f78007c000700830033008c
:1035fc0003866c006450e1002e0032006420e10070
:10360c00330032006150e1002f0032006120e100f4
:10361c003100320085855500eb07b0000900200011
:10362c0008042000050037000804440089844c007d
:10363c000a0031000603430087834b00000153004e
:10364c0081815b00f8ff33000203be000800a0007c
:10365c000804440089844c00f6ff3900c639dd00ab
:10366c008301730001003200130020008904d10093
:10367c000884d3000998a300050032000800a700b5
:10368c000300a0008904d1000884d3008b05e80056
:10369c008904d1000884d3000001eb000281d20020
:1036ac002800070001f0a1000cf0a70001f0a00019
:1036bc005b0037006420e1005d0032000801be00b1
:1036cc000200be00f7ff37006120e1005800320015
:1036dc006000b800f3ff37000000200001f827005d
:1036ec00f0ff37007ffe07000400be00000006005c
:1036fc00c70ade00f107b200f50fb2000800320075
:10370c00e1cf4200020032000170a000240005004d
:10371c00810f700001003200040805004400050010
:10372c00810f700002003a00140005008502e900c8
:10373c000000400081c04800fcff3b000170a0006d
:10374c002400050081002000618055000b003d0025
:10375c000b00200061fe2f000100e1001d00340071
:10376c0082817100610164008904d1000884d30056
:10377c000000e800faff3a007100200061006400cc
:10378c000300700002006000090032006104440074
:10379c00e0844c000988a500050032008b05e80088
:1037ac006808e10002003a008904d1000884d300c3
:1037bc00f20f20000258e10005003d00c75ddd005e
:1037cc00f907b20089807500080078000000060037
:1037dc000bf827008b007800000005000004be00e9
:1037ec00c3ff07000003be000405be000200be00bc
:1037fc00bfff0700844f7500000006000200be00ea
:10380c006450e100050036006420e100020036003f
:10381c000968a30001003a000800be000160a00086
:10382c004f0678004f05be004f04be000000060096
:0c383c00f0ff2f00f1ff2700f9ff37001c
:020000040000fa
:0200000401f009
:04000000ffff0000fe
:020000040000fa
:0200000401f009
:04000800fdff0000f8
:020000040000fa
:0200000401f009
:04000c0078ff000079
:020000040000fa
:0200000401f009
:040010005dff000090
:020000040000fa
:0200000401f009
:0400140064ff000085
:020000040000fa
:0200000401f009
:04001800ffff0000e6
:020000040000fa
:0200000401f009
:04001c00ddff000004
:020000040000fa
:0c2e3400544804000000000000000600ec
:020000040000fa
:0c2e4800b6480400000000000000060076
:020000040000fa
:0c2e7800884a0400000000000000060072
:020000040000fa
:0c2f2400344a0400000000000000060019
:020000040000fa
:0c2f50005e4a04000000000000000600c3
:020000040000fa
:0c2e6000fe4d0400000000000000060011
:020000040000fa
:0c2e5400804e040000000000000006009a
:020000040000fa
:042e040000000000ca
:020000040000fa
:10384800ff7f0000fd7f0000f97f0000f57f00008a
:10385800f07f0000e97f0000e17f0000d87f0000d2
:10386800cd7f0000c17f0000b47f0000a67f00006c
:10387800977f0000867f0000747f0000617f000052
:103888004d7f0000377f0000217f0000097f000086
:10389800ef7e0000d57e0000b97e00009c7e00000f
:1038a8007e7e00005f7e00003e7e00001d7e0000e0
:1038b800fa7d0000d57d0000b07d0000897d000004
:1038c800627d0000397d00000e7d0000e37c000071
:1038d800b67c0000887c0000597c0000297c000030
:1038e800f87b0000c57b0000917b00005c7b00003a
:1038f800267b0000ee7a0000b67a00007c7a000091
:10390800417a0000057a0000c87900008979000032
:103918004a79000009790000c7780000847800001f
:103928003f780000fa770000b37700006b7700005b
:1039380022770000d87600008d76000041760000de
:10394800f3750000a57500005575000004750000aa
:10395800b27400005f7400000a740000b5730000c0
:103968005e73000007730000ae720000547200001e
:10397800f97100009d71000040710000e2700000c4
:103988008370000022700000c16f00005e6f0000ad
:10399800fb6e0000966e0000306e0000c96d0000de
:1039a800616d0000f86c00008e6c0000236c000054
:1039b800b76b00004a6b0000dc6a00006d6a00000b
:1039c800fd6900008b69000019690000a668000005
:1039d80032680000bc67000046670000cf66000040
:1039e80056660000dd65000063650000e8640000bd
:1039f8006c640000ee63000070630000f162000078
:103a080071620000f06100006e610000eb60000070
:103a180068600000e35f00005d5f0000d75e0000a3
:103a28004f5e0000c75d00003e5d0000b35c000013
:103a3800285c00009c5b00000f5b0000825a0000bd
:103a4800f359000064590000d358000042580000a0
:103a5800b05700001d5700008a560000f5550000b9
:103a680060550000c9540000325400009b53000008
:103a78000253000068520000ce510000335100008c
:103a880097500000fb4f00005d4f0000bf4e000044
:103a9800204e0000814d0000e04c00003f4c00002b
:103aa8009d4b0000fb4a0000584a0000b449000042
:103ab8000f49000069480000c34700001c47000088
:103ac80075460000cd450000244500007a440000fa
:103ad800d0430000254300007a420000ce41000098
:103ae8002141000073400000c53f0000173f00005f
:103af800683e0000b83d0000073d0000563c00004d
:103b0800a53b0000f23a0000403a00008c39000062
:103b1800d9380000243800006f370000ba3600009a
:103b2800043600004d35000096340000df330000f5
:103b3800263300006e320000b5310000fb30000073
:103b480041300000872f0000cc2e0000112e00000d
:103b5800552d0000992c0000dc2b00001f2b0000c5
:103b6800612a0000a3290000e5280000262800009b
:103b780067270000a8260000e82500002825000087
:103b880067240000a6230000e5220000232200008d
:103b9800612100009f200000dd1f00001a1f0000a7
:103ba800571e0000931d0000cf1c00000b1c0000d6
:103bb800471b0000821a0000be190000f918000017
:103bc800331800006e170000a8160000e215000068
:103bd8001c150000551400008f130000c8120000c7
:103be800011200003a11000072100000ab0f000033
:103bf800e30e00001c0e0000540d00008c0c0000a9
:103c0800c40b0000fb0a0000330a00006a09000028
:103c1800a2080000d90700001107000048060000ac
:103c28007f050000b6040000ed0300002403000037
:103c38005b02000092010000c900000000000000c3
:103c480000000000c1c0000081c100004001000068
:103c580001c30000c00300008002000041c2000050
:103c680001c60000c00600008007000041c7000030
:103c780000050000c1c5000081c400004004000028
:103c880001cc0000c00c0000800d000041cd0000f8
:103c9800000f0000c1cf000081ce0000400e0000e0
:103ca800000a0000c1ca000081cb0000400b0000e0
:103cb80001c90000c00900008008000041c80000d8
:103cc80001d80000c01800008019000041d9000088
:103cd800001b0000c1db000081da0000401a000070
:103ce800001e0000c1de000081df0000401f000050
:103cf80001dd0000c01d0000801c000041dc000048
:103d080000140000c1d4000081d500004015000057
:103d180001d70000c01700008016000041d600003f
:103d280001d20000c01200008013000041d300003f
:103d380000110000c1d1000081d000004010000037
:103d480001f00000c03000008031000041f10000a7
:103d580000330000c1f3000081f20000403200008f
:103d680000360000c1f6000081f70000403700006f
:103d780001f50000c03500008034000041f4000067
:103d8800003c0000c1fc000081fd0000403d000037
:103d980001ff0000c03f0000803e000041fe00001f
:103da80001fa0000c03a0000803b000041fb00001f
:103db80000390000c1f9000081f800004038000017
:103dc80000280000c1e8000081e900004029000047
:103dd80001eb0000c02b0000802a000041ea00002f
:103de80001ee0000c02e0000802f000041ef00000f
:103df800002d0000c1ed000081ec0000402c000007
:103e080001e40000c02400008025000041e5000016
:103e180000270000c1e7000081e6000040260000fe
:103e280000220000c1e2000081e3000040230000fe
:103e380001e10000c02100008020000041e00000f6
:103e480001a00000c06000008061000041a10000e6
:103e580000630000c1a3000081a2000040620000ce
:103e680000660000c1a6000081a7000040670000ae
:103e780001a50000c06500008064000041a40000a6
:103e8800006c0000c1ac000081ad0000406d000076
:103e980001af0000c06f0000806e000041ae00005e
:103ea80001aa0000c06a0000806b000041ab00005e
:103eb80000690000c1a9000081a800004068000056
:103ec80000780000c1b8000081b900004079000006
:103ed80001bb0000c07b0000807a000041ba0000ee
:103ee80001be0000c07e0000807f000041bf0000ce
:103ef800007d0000c1bd000081bc0000407c0000c6
:103f080001b40000c07400008075000041b50000d5
:103f180000770000c1b7000081b6000040760000bd
:103f280000720000c1b2000081b3000040730000bd
:103f380001b10000c07100008070000041b00000b5
:103f480000500000c1900000819100004051000025
:103f580001930000c053000080520000419200000d
:103f680001960000c05600008057000041970000ed
:103f780000550000c19500008194000040540000e5
:103f8800019c0000c05c0000805d0000419d0000b5
:103f9800005f0000c19f0000819e0000405e00009d
:103fa800005a0000c19a0000819b0000405b00009d
:103fb80001990000c0590000805800004198000095
:103fc80001880000c04800008049000041890000c5
:103fd800004b0000c18b0000818a0000404a0000ad
:103fe800004e0000c18e0000818f0000404f00008d
:103ff800018d0000c04d0000804c0000418c000085
:1040080000440000c1840000818500004045000094
:1040180001870000c047000080460000418600007c
:1040280001820000c042000080430000418300007c
:1040380000410000c1810000818000004040000074
:104048000102000004080000102000004080000069
:020000040000fa
:104058000400fa00889fbe008a9fbe008c9fbe00a5
:104068000005780029c0b3000948780040c8b300ab
:1040780080c04000114598003dc0b3008df79f00f7
:104088000bb820000b499000f08057000a00780018
:104098009a50020000000000c8b7200018417800bc
:1040a800f08057000a0078009a50020000000000d3
:1040b80038419000f08057000a0078009a500200ba
:1040c800000000000041eb00f08057000a00780073
:1040d8009a5002000000000009417800f080570063
:1040e8000a0078009a5002000000000042c0b300a5
:1040f800f08057000a0078009a5002000000000083
:104108004b419000f08057000a0078009a50020056
:104118000000000008f02f00225c80000801610008
:10412800030020004818dd004811de00020170007d
:10413800c819de00f08057000a0078009a50020083
:1041480000000000fc0f2000325c80000c016100c0
:1041580003002000f08057000a0078009a500200ff
:1041680000000000325c80000801610003002000ac
:10417800c818dd004811de0002817000c819de0091
:10418800f08057000a0078009a50020000000000f2
:10419800fbd920009b41780061c16100f080570085
:1041a8000a0078009a5002000000000080b3200046
:1041b80010417800f08057000a0078009a500200f9
:1041c800000000001b81fb000201d1006141610079
:1041d800f08057000a0078009a50020000000000a2
:1041e800a0b3200010417800f08057000a00780042
:1041f8009a50020000000000d259800008016100b6
:1042080003002000481add004811de000201720098
:10421800c899de00f08057000a0078009a50020022
:1042280000000000c06d80001001be00f080570043
:104238000a0078009a50020000000000c06d80005b
:104248001000be0000046400090020004848dd009a
:104258004844de0008047000c84cde0008417800bd
:10426800f08057000a0078009a5002000000000011
:10427800c06d80001000be00010166000300200030
:10428800f08057000a0078009a50020000000000f1
:104298000ff097005042b000204598008ff097002b
:1042a80065c04000407d98008180fb000001eb0064
:1042b8000a007800464e020000000000c801de0037
:1042c8008ff097000182fb00020f2000830061003d
:1042d800c488de000142b00001727d000ff2970031
:1042e8008440e80081f79f008180fb00efc16100f6
:1042f8000342b00083707d008ff197008340e8008f
:1043080081f79f000c4060008180fb000001610084
:104318004491de000242b00082707d000ff29700e7
:104328008440e80081f79f008180fb006f406000b7
:104338000042b00080707d008ff097000140e800d7
:104348000080fb000d707d004f06be004f05be00cb
:104358004f04be000080fa00000006000600fa00c4
:104368000002780003b8200030409000804998008f
:10437800c4409000c1c1980080407800e64f5000ca
:10438800cf0032000d003e00e34f5000cc00320059
:1043980005003e00e14f50001e003200e24f500081
:1043a80021013a001d003700e44f5000350032006b
:1043b800e54f50001c013a002e003700e94f50002d
:1043c8003000320005003e00e74f50002d0032005b
:1043d800e84f500014013a0026003700f54f50000e
:1043e8000600320090c2b30080cf50000c013200aa
:1043f800efcf50000c013a003c00370040c1b30039
:10440800c1b72000804878000000eb00f058880011
:10441800050137000000eb0002013700544090000e
:10442800a0ff9f00e4409000b1ff9f005fb8970095
:10443800605c8800f4409000a1ff9f000448900051
:10444800b0ff9f00dfb89700715c880014489000a7
:10445800a0ff9f00a4489000b1ff9f005fb897009d
:10446800005e8800344890000080fb00505c8800a3
:10447800ed00370000b820005442900064709800a6
:10448800e9003700d4409000a1ff9f0064409000ed
:10449800b0ff9f0002b820005fb89700cf80de0011
:1044a800e05d8800f15d8800f4409000a1ff9f0066
:1044b80004489000b0ff9f00dfb89700015e8800b5
:1044c80014489000a0ff9f00a4489000b1ff9f00ef
:1044d8005fb89700d05d8800b448900021c198006b
:1044e800444a900064719800cf003700544090000f
:1044f800a0ff9f00e4409000b1ff9f005fb89700c5
:10450800cf80de00f0678800016888007440900062
:10451800a0ff9f0084489000b1ff9f005fb89700fc
:10452800cf80de00606888007168880014489000b9
:10453800a0ff9f00a4489000b1ff9f005fb89700bc
:1045480020688800b4489000a1ff9f00444890006c
:10455800b0ff9f006681570032007800cf80de00f0
:104568003068880041688800d44890000149780084
:1045780064489000d0ff9f00f448900021419800c3
:1045880004509000f0ff9f00120078009200900005
:10459800e05d8800f15d880094509000a1ff9f00c5
:1045a80024509000b0ff9f00dfb89700015e88009c
:1045b80034509000a0ff9f00c4509000b1ff9f00ae
:1045c8005fb89700d05d8800d4509000c171980002
:1045d80064509000d0719800f4509000a1ff9f00a3
:1045e80004589000b0ff9f00dfb89700915c8800e6
:1045f80014589000a0ff9f00a4589000b1ff9f009e
:104608005fb89700b05c8800b4589000a1ff9f0085
:1046180044589000b0ff9f00dfb89700a15c880065
:1046280054589000a0ff9f00e4589000b1ff9f00ed
:104638005fb89700c05d8800f4589000a1ff9f0004
:1046480004609000b0ff9f00dfb89700c15c88004d
:1046580014609000a0ff9f00a4609000b1ff9f002d
:104668005fb89700705c8800b4609000a1ff9f005d
:1046780044609000b0ff9f00dfb89700815c88001d
:1046880054609000b0c1980064629000e471980092
:10469800537090000004e00063003200905c8000da
:1046a8000000e00003003200b05c80000000e00081
:1046b8005d003a000040eb00d07198005a003700c6
:1046c80064805700d440900001487800e44090008e
:1046d800d1ff9f00f440900021409800844890004a
:1046e800f1ff9f0001b820001001780090019000b0
:1046f800e25d8800f35d880014489000a0ff9f00e9
:1047080024489000b0ff9f005fb89700005e8800c3
:1047180034489000a0ff9f0044489000b0ff9f00dd
:104728005fb89700d05d880054489000c07098002a
:1047380064489000d070980074489000a0ff9f00d3
:1047480004509000b0ff9f005fb89700905c88000d
:1047580014509000a0ff9f0024509000b0ff9f00cd
:104768005fb89700b05c880034509000a0ff9f00ad
:1047780044509000b0ff9f005fb89700a05c88008d
:1047880054509000a0ff9f0064509000b0ff9f001d
:104798005fb89700c05d880074509000a0ff9f002c
:1047a80004589000b0ff9f005fb89700c05c880075
:1047b80014589000a0ff9f0024589000b0ff9f005d
:1047c8005fb89700705c880034589000a0ff9f0085
:1047d80044589000b0ff9f005fb89700805c880045
:1047e80054589000b0c09800645a9000e470980043
:1047f800517090000004e0000b003200905c8000d3
:104808000000e00003003200b05c80000000e0001f
:1048180005003a000040eb00d07098000200370015
:1048280010002000705888000080fa000000060080
:104838000040eb00c1b720008048780081b7200015
:10484800804878000000060080407800e44f50005f
:10485800010034008040eb009460a900c0b1200042
:10486800014878009460a8000000060080407800a5
:10487800e44f5000010034008040eb009460a90030
:10488800b0b12000014878009460a800000006003c
:104898000000eb0070588800605888005058880065
:1048a80040588800305888002058880010588800e0
:1048b80000588800f0578800e0578800d0578800d3
:1048c800c0578800b0578800a057880090578800c4
:1048d8008057880070578800000006000800fa001a
:1048e800889fbe008a9fbe008c1f780000b82000f9
:1048f800407190000204e000a6013a00c3b720000e
:10490800234090000080fb0001002000ee0f5000c3
:10491800e08f580099013e00006001001000370048
:104928008a0137001c003700280037004400370090
:1049380055003700db0037003701370083013700a7
:104948004f013700630137006a01370074013700ef
:104958007e0137000000370010c0b300e7053700bc
:104968000004eb006867880000c0eb00b6ff070092
:1049780060c5200048e89800c05c80006011b8005d
:10498800b044020000000000c1b7200021409000a0
:104998000040e800b7003700e0b220001000e00057
:1049a80006003200805980000000e0000300320059
:1049b800905980000000e0006b013a0001c1b3008b
:1049c800c0b72000014878006701370068588000a8
:1049d8000800e00011003a00c9b7200061678000b4
:1049e800d05d8000808f50000400310040c0b300cb
:1049f800a044980008407800c0053700625c800039
:104a080003002000c05c8000b044020000000000e9
:104a1800294090006b404000f5ff3700625c800041
:104a280003002000c05c8000b044020000000000c9
:104a3800c1b72000214090006b4040004d01370075
:104a4800e0b220001000e00009003a008059800020
:104a58000000e00006003a00905980000000e000e5
:104a680003003a0001c1b300c0b720000148780034
:104a7800005e8000d2678000e3678000b0440200d7
:104a88000000000038013700205e80000068a300a5
:104a98005c003200685880000800e00059003a00c5
:104aa80000c0eb0068ff0700100020006058880075
:104ab80060c5200048e89800824502000000000018
:104ac800f267800003688000820f5000838f5800cf
:104ad800420035008245020000000000da678000cd
:104ae800eb67800062678000d55d80008a0f500008
:104af8008b8f58000a003400028052000000e90041
:104b080001002000e25d8000f35d80006c18020067
:104b180000000000406788005167880010003700d7
:104b2800028052000000e90001002000e25d8000e0
:104b3800f35d80006c180200000000000004be0055
:104b480082450200000000000000550081805d00e1
:104b5800080440008984480048678800596788002d
:104b68004a6780005b678000715c8000a05c800001
:104b7800008650006164b8000801be000a00be004b
:104b8800781b020000000000306788000000e00089
:104b98000b0032000801be000a00be0078180200af
:104ba800000000000000e800505888006101b800cb
:104bb8000a00be0078180200000000000c00370050
:104bc8000801be000a00be007818020000000000bc
:104bd800505888004c58880006003700d05d800087
:104be800616780000100500050588800e05d800037
:104bf80040588800c1b72000214090000040e800dc
:104c0800a04098008245020000000000f267800082
:104c180003688000820f5000838f5800db00350046
:104c2800685880000800e000d8003a0069c52000f4
:104c380049e890000004e00004003a0010c0b30006
:104c4800c0ec980040c0b300140037004c45020087
:104c5800000000000004e00008003200084078006e
:104c68006a45020000000000c1b720002140900002
:104c780000c0e800a04098005eff370049e89000b7
:104c8800e14f4000c1003a00c1b720002140900028
:104c98000040e800a040980020c0b300eafe0700ea
:104ca80054ff3700205e80000068a300a700320090
:104cb800685880000800e000a4003a0000c0eb003b
:104cc800e1fe0700100020006058880060c5200041
:104cd80048e898008245020000000000f267800062
:104ce80003688000820f5000838f5800430035000e
:104cf8008245020000000000da678000eb67800050
:104d080062678000d55d80008a0f50008b8f580045
:104d18000a003400028052000000e900010020006f
:104d2800e25d8000f35d80006c1802000000000066
:104d380040678800516788001000370002805200e1
:104d48000000e90001002000e25d8000f35d8000c2
:104d58006c180200000000000004be00824502003a
:104d6800000000000000550081805d00080440003c
:104d78008984480048678800596788004a67800026
:104d88005b678000715c8000a05c8000008650003a
:104d98006164b8000801be000a00be00781b02006a
:104da80000000000306788000000e0000c003200be
:104db8000801be000a00be007818020000000000ca
:104dc8000000e800505888006101b8000a00be00e1
:104dd8007818020000000000405888005b00370087
:104de8000801be000a00be0078180200000000009a
:104df800505888004c58880054003700d05d800017
:104e0800616780000100500050588800e15d800013
:104e1800415888004d003700e0b220001000e00043
:104e280006003a00805980000000e00003003a00c4
:104e3800985980000800e0000400320011c1b30056
:104e4800c0b720000148780050003700c9b72000db
:104e580000b82000507090000004e0000600320006
:104e6800b05c8000b2678000c3678000b044020075
:104e7800000000000f00370090c0b300dcfe3700d0
:104e8800c9b7200000c0eb006ffe070062c5200014
:104e98000044eb0048e99800c15d80000100e00093
:104ea800070032000100d1001069880010c0b3006b
:104eb80040499800294090000040e800ccfe3700a7
:104ec8002940900000c0e800a04498000140780004
:104ed8008a04370060c5200040489000e14f400038
:104ee8002a003a00b1c0b300c0b7200021409800a2
:104ef80026003700c05c80006011b800b044020092
:104f080000000000606780000000e800606788001b
:104f1800c1b72000214090000040e800a040980060
:104f28004c450200000000000004e00017003200b9
:104f38000040eb006a45020000000000c1b72000f5
:104f480021409000694050000a0037004c4502009b
:104f5800000000000004e0000c0032000040eb00fc
:104f68006a45020000000000c1b7200021409000ff
:104f78000040e800a040980004003700a0c0b3003b
:104f880080497800024078005c0437000040eb005c
:104f98005a043700e14f51006004320002c0e900b2
:104fa800e14f500057043e00c2b720002240900055
:104fb8000080fb0001002000fa0f5000e08f58002d
:104fc8004a043e00006001001c003700250037003d
:104fd8003a043700260037003b0037003f0037000f
:104fe8004f003700520037007e013700810137003b
:104ff8006402370071023700a50237002f0437001a
:105008002e043700ad023700e0023700fc023700fb
:105018007e033700d603370028043700f103370032
:10502800060437000d04370019043700230437003d
:1050380000003700100020002f043700526880005d
:10504800226788000004eb00f8668800186788006b
:1050580000c0eb00fcfd070060c5200048e8980090
:1050680029003700c05c80006011b800e1023700f9
:1050780062588000a1c0b3000200e000f4033a00c7
:10508800e0b220001000e000680232008059800081
:105098000000e00065023200905980000000e00046
:1050a80062023200c9b7200021678000a0c0b300a7
:1050b8000100e000de0332000100e90020678800fb
:1050c80040c0b3002d023700206880008040eb000c
:1050d8001e43020000000000ff033700e0b220007a
:1050e8001000e00003043a00805980000000e0004e
:1050f80000043a00985980000800e000fd033a00d7
:105108004046020000000000c1b720002140900086
:105118000040e800a040980008007800f603370037
:1051280020688000d2678000e3678000b102370002
:10513800824502000000000090bf9f00a1bf9f00b1
:10514800d0678000e16780001fba9700afba970068
:10515800800f5200818f5a000200340090bf9f00d8
:10516800a1bf9f00205e80000068a300c900320034
:10517800685880000800e000c6003a0000c0eb0054
:10518800b1fd0700100020006058880060c52000ad
:1051980048e89800f8678000096880001fb8970001
:1051a800afb89700880f5000898f58000b003d005a
:1051b800526880008200e90020678000810f50005b
:1051c80006003a0032588800d15d800021588800d6
:1051d800e25d800012588800ae00370000b8200059
:1051e8004070900024678000e24f50003e003a0073
:1051f80034588800506880000000e900800f520091
:105208003d0032002d0031000400e0002d00320086
:10521800e20f520038003e00d55d8000d86780005c
:10522800e96780006a6880007b688000e20f5200ae
:1052380012003a000000eb00305888006128b800de
:10524800e25d8000f35d80006c1802000000000041
:105258001fba9700afba97000401540085815c001b
:1052680000004100818049000000440081804c001a
:105278000000450081804d00610037000000eb0010
:10528800305888006128b800e25d8000f35d800036
:105298006c180200000000001fba9700afba970010
:1052a8000401540085815c000000410081804900b0
:1052b8000a0154008b815c00490037000400e000bb
:1052c80051003a006868800079688000d55d8000e8
:1052d8001fb89700afb89700800f5400818f5c000b
:1052e8004200340035003700e20f52001300360048
:1052f8000400e90030588800d05d800001002000db
:10530800e25d8000f35d80006c1802000000000080
:10531800d2678000e36780001fba9700afba970092
:105328000401510085815900000041008180490035
:105338000000440081804c0031003700e20f520029
:1053480013003a000000eb0030588800d05d800060
:1053580001002000e25d8000f35d80006c1802000f
:1053680000000000d2678000e36780001fba970042
:10537800afba97000401510085815900000041002f
:1053880081804900626880007368800014003700db
:105398000400e0001c003a00345888006868800067
:1053a80079688000d55d80001fb89700afb8970076
:1053b800880f5000898f58000c003c006128b80005
:1053c800e25d8000f35d80006c18020000000000c0
:1053d8001fba9700afba97000401540085815c009a
:1053e8000000410081804900050037006128b800ad
:1053f800e25d8000f35d80006c1802000000000090
:10540800d0668800e16688007c5c8000d8668000f1
:10541800e9668000015e8000b0042000808f5000a3
:1054280002003e00a05c8000000656006165b800de
:105438000a01be000800be00781b02000000000040
:10544800c06688000000e0000c0032000a01be00bf
:105458000800be0078180200000000000000e80004
:10546800205888006101b8000800be0078180200c2
:105478000000000010588800060037000a01be002e
:105488000800be00781802000000000020588800bc
:105498001c588800106780000000e0001d003a00da
:1054a800f0678000016880001fb99700afb99700c6
:1054b800800f5100818f5900160035006158800017
:1054c8000100e00013003a0062c5200042e89000a5
:1054d8000004e00007003a0010c0b30040e998005b
:1054e80040c0b300d8fc070010002000f066880018
:1054f80018003700e14f400016003a001000200065
:1055080010678800f166880020c0b300cefc070051
:1055180010003700206780000000e0000d003a000e
:1055280060688000716880001fba9700afba970062
:10553800800f5200818f5a0006003500685880009d
:105548000800e00003003a0000c0eb00befc0700c2
:10555800f86688004c450200000000000004e000e6
:10556800e40232000040eb006a450200000000003f
:10557800605880000000e00016003a00e0b2200009
:105588001000e00006003a00805980000000e000aa
:1055980003003a00905980000000e0000300320048
:1055a80011c1b300c0b7200001487800c9b7200076
:1055b800216780000100e000030032000100e900db
:1055c800206788009402370029409000634040001b
:1055d80097023700c1b72000214090006340400087
:1055e800c002370020688000e2ff2f00f3ff2f0081
:1055f800800137008245020000000000f0b79f00dc
:1056080081bf9f00d0678000e16780007fb197006d
:105618008fb99700800f5100818f59000300340023
:105628006022b800f4b79f0085bf9f00205e80000d
:105638000068a3009f003200685880000800e0005e
:105648009c003a0000c0eb007ffc0700100020001f
:105658006058880060c5200048e8980000b820001d
:105668004070900024678000e24f500053003a00d9
:1056780034588800506880000000e900800f52000c
:10568800340031000400e00034003200e20f520020
:105698000b003600d05d800001002000e25d800034
:1056a800f35d80006c180200000000007fb19700d5
:1056b8008fb99700000041008180490048003700f9
:1056c800d55d80006a6880007b688000e20f520028
:1056d80013003a0038588800d8678000e9678000ce
:1056e8006128b800e25d8000f35d80006c1802005c
:1056f800000000007fb297008fba970000004200b8
:1057080081804a000000440081804c000a04540053
:105718008b845c000000440081804c00400037000e
:10572800385888006128b800e25d8000f35d800089
:105738006c180200000000007fb197008fb9970035
:1057480000004100818049000000450081804d0033
:10575800330037000400e00033003a006868800036
:1057680079688000d55d80007fb097008fb897007a
:10577800880f5000898f58000a0034006128b8004b
:10578800e25d8000f35d80006c18020000000000fc
:105798007fb297008fba97000801520089815a009a
:1057a8001d0037006128b800e25d8000f35d8000cd
:1057b8006c1802000000000019003700e10f5200c9
:1057c8000a00360034588800d05d800001002000af
:1057d800e25d8000f35d80006c18020000000000ac
:1057e800f2678000036880000b003700e10f520069
:1057f8000d003a0038588800d05d80000100200074
:10580800e25d8000f35d80006c180200000000007b
:105818006268800073688000000041008180490050
:10582800d0668800e16688007c5c8000d8668000cd
:10583800e9668000015e8000b0042000808f50007f
:1058480002003e00a05c8000000656006165b800ba
:105858000a01be000800be00781b0200000000001c
:10586800c06688000000e0000c0032000a01be009b
:105878000800be0078180200000000000000e800e0
:10588800205888006101b8000800be00781802009e
:105898000000000010588800060037000a01be000a
:1058a8000800be0078180200000000002058880098
:1058b8001c588800f1668000e18f50000b003a0008
:1058c80060c5200040e89000e14f400007003a0022
:1058d800605880000000e00004003a00116788006a
:1058e800f066880020c0b300d7fb0700206780005f
:1058f8000000e0000f003a006068800071688000d6
:105908007fb197008fb99700800f5100818f5900a0
:1059180008003c00685880000800e00005003a00d4
:1059280000c0eb00c8fb0700f866880060c52000cf
:1059380048e898004c450200000000000004e00020
:10594800ec0132000040eb006a4502000000000054
:10595800625880000200e000df013a00c9b7200069
:10596800216780000100e0000e0032000100e9001c
:10597800206788002940900063405000a0449800a8
:105988006e003700c9b72000c05c80006011b80005
:10599800b044020000000000615880000100e000ef
:1059a80003003a00294090000040e800a0013700b9
:1059b800294090006440400099013700f16680005a
:1059c800e18f500009003a0060c5200040e89000cf
:1059d800e14f400005003a00116788000000eb0025
:1059e800f066880020c0b30097fb07004c45020012
:1059f800000000000004e000be0132000040eb009f
:105a08006a45020000000000e0b220001000e0003b
:105a180006003200805980000000e00003003200d8
:105a2800905980000000e00002003a0001c1b30074
:105a380059013700c9b72000e05d8000f15d8000a2
:105a4800e00f5000e08f58000b0032000004eb001c
:105a5800f86688002867880000c0eb007afb07001a
:105a680060c5200048e89800b86688002940900082
:105a78006440400059013700625c80000300200048
:105a8800c05c8000b04402000000000062013700e2
:105a98004c450200000000000004e00095013200bf
:105aa8000040eb006a45020000000000c1b720007a
:105ab800214090006e4040008a01370068588000fd
:105ac8000800e00028003a0021678000d05d8000cf
:105ad800808f50001b003100e0b220001000e00071
:105ae8000b003a00805980000000e00008003a00ee
:105af800905980000000e00005003a0001c1b300a1
:105b0800c0b7200001487800200020007b01370042
:105b18001268800003002000c05c8000b0440200ce
:105b2800000000000001eb0002678800c1b72000f8
:105b3800214090000040e800a04098000200780052
:105b48006d013700625c800003002000c05c8000ab
:105b5800b044020000000000c1b7200021409000be
:105b68006a4040006bfd3700625c80000300200043
:105b7800c05c8000b044020000000000c1b72000f3
:105b8800214090006a40400056013700e0b22000f2
:105b98001000e0000d003a00805980000000e0008d
:105ba8000a003a00905980000000e00007003a001f
:105bb800006780000000e00004003a0010002000a8
:105bc8000067880040460200000000004c450200c3
:105bd800000000000004e000460132000040eb0035
:105be8006a45020000000000926780000300200060
:105bf800005e8000b044020000000000360137005b
:105c080082450200000000000005be009067800089
:105c180001002000800f5500818f5d0001003400d5
:105c28000005be00205e80000068a300530032001b
:105c3800685880000800e00050003a0000c0eb00ff
:105c480001fb0700100020006058880060c5200094
:105c580048e8980038588800824502000000000093
:105c68001268800003002000820f5000838f5800c4
:105c780036003500b06680000000e00033003a00ce
:105c8800d05d800022678000020050000000e9001b
:105c980001002000e25d8000f35d80006c180200c6
:105ca8000000000092678000030020000a015100f4
:105cb8008b8159000005410081854900da6688001a
:105cc800eb6688007c5c8000015e8000b0042000e8
:105cd800808f500002003e00a05c80000006560045
:105ce8006164b8000801be000a00be00781b02000b
:105cf80000000000c06688000000e0000c003200d0
:105d08000801be000a00be0078180200000000006a
:105d18000000e800205888006101b8000a00be00b1
:105d28007818020000000000105888000f003700a3
:105d38000801be000a00be0078180200000000003a
:105d4800205888001c588800080037000000eb0025
:105d5800b0668800d05d8000216780000100500097
:105d680020588800e35d800013588800c1b72000e0
:105d7800214090000040e800a040980082450200c1
:105d8800000000001268800003002000820f50000d
:105d9800838f5800d7003500685880000800e0005d
:105da800d4003a0069c5200049e890000004e000ea
:105db80005003a0010c0b300c0ec980040c0b30022
:105dc800a1fa0700d4fc37004c450200000000008f
:105dd8000004e00007003200084078006a4502002d
:105de80000000000c1b720002140900000c0e8007a
:105df800c8fc370049e89000e14f4000bd003a0078
:105e080020c0b30090fa0700bffc370082450200ab
:105e1800000000000005be0090678000010020001f
:105e2800800f5500818f5d00010034000005be0021
:105e3800205e80000068a300a0003200685880003f
:105e48000800e0009d003a0000c0eb007efa070061
:105e5800100020006058880060c5200048e89800bd
:105e6800385888008245020000000000126880004f
:105e780003002000d55d800024678000820f500059
:105e8800838f580031003500048052000000e9007b
:105e980001002000e25d8000f35d80006c180200c4
:105ea8000000000092678000030020000a015100f2
:105eb8008b8159000005410081854900da66880018
:105ec800eb6688007c5c8000015e8000b0042000e6
:105ed800808f500002003e00a05c80000006560043
:105ee8006164b8000801be000a00be00781b020009
:105ef80000000000c06688000000e0000c003200ce
:105f08000801be000a00be00781802000000000068
:105f18000000e800205888006101b8000a00be00af
:105f28007818020000000000105888000b003700a5
:105f38000801be000a00be00781802000000000038
:105f4800205888001c58880004003700048052003c
:105f580020588800e45d800014588800c1b72000ec
:105f6800214090000040e800a0409800530037000e
:105f7800e0b220001000e00006003a0080598000de
:105f88000000e00003003a00985980000800e00093
:105f98000400320011c1b300c0b7200001487800e6
:105fa80054003700c9b7200000b820005070900096
:105fb8000004e00008003200b05c8000b267800096
:105fc800c3678000b0440200000000002940900030
:105fd8000040e8000100370050c1b300a044980019
:105fe8004dfc3700c9b7200000c0eb0016fa0700c7
:105ff80062c520000040eb0040e99800c15d8000c8
:106008000100e000080032000100d100106988009a
:1060180010c0b30040499800294090000040e800b3
:10602800a0449800330037002940900000c0e800e1
:10603800a0449800010078002f00370060c52000b8
:1060480040489000e14f40002a003a0071c1b30077
:10605800c0b720002140980026003700c05c8000af
:106068006011b800b0440200000000002067800002
:106078000000e80020678800205e80000068a30018
:106088001500320010002000b066880012003700aa
:106098004c450200000000000004e000150032003a
:1060a8000040eb006a45020000000000c1b7200074
:1060b80021409000694050000a0037004c4502001a
:1060c800000000000004e0000a0032000040eb007d
:1060d8006a45020000000000c1b72000214090007e
:1060e8000040e800a040980002003700a0c0b300bc
:1060f800004978000000eb000080fb000080fb00f6
:1061080009003700e64f510006003200e54f510004
:1061180004003200e14f410002003200200020005c
:1061280001003700100020004f0678004f05be0020
:106138004f04be000080fa0000000600881f7800a7
:1061480040cf2000104478000804e000030032002b
:10615800e14f540046003a0020003700e0b220002a
:106168001000e00042003200805980000000e0008a
:106178003f003200905980000000e0003c003200ef
:106188008245020000000000e00f5000e08f580038
:106198000400340082450200000000000841780035
:1061a8000500370082450200000000000841780021
:1061b80060001000e080180003192000830f5000d1
:1061c800e08f58000100340022c0b30011c0b300b2
:1061d80040cf20000148780026003700e0b22000b8
:1061e8001000e00022003a00805980000000e00022
:1061f8001f003a00985980000800e0001c003a008f
:106208008245020000000000e00f5000e08f5800b7
:10621800070034008245020000000000023220001e
:10622800820f5000e08f58000b0034000800370040
:10623800824502000000000060001000e0801800a5
:1062480003322000830f5000e08f58000200340012
:1062580012c0b300030037004046020000000000ef
:106268000841780040cf20000048eb0001003700cb
:106278000041eb000280fb004f047800000006009c
:1062880003b2200093407800e1cf500012003200a2
:1062980003003900e2cf500043003a001f003700e6
:1062a80061c520000040eb0080509800c070980045
:1062b800d2c2bf000018a3003b003a00d2c2bf0000
:1062c8000008a30038003a0010c0b30080509800be
:1062d8008049780034003700d2c2bf000018a300fc
:1062e80003003a00d2c2bf000008a3000200320037
:1062f8008049eb002c00370062c520000250900056
:10630800e14f400028003a0020c0b30080497800df
:1063180041e19800c4e2a9002300370061c52000cc
:1063280041e09000e14f400004003a0041709000c5
:10633800e24f500001003200c4e2a800d2c2bf0000
:106348000018a30003003a00d2c2bf0061416000f8
:106358000300320000b220000048eb000f003700b5
:1063680061c52000d3c2bf000008a3000d003a0099
:10637800417090000004e00003003a0010c0b30030
:10638800c070980008003700e14f400006003a004e
:1063980031c0b30000b2200001487800c4e2a80070
:1063a80001003700c270980000b220001080fb0086
:1063b800000006000060fe0040a7a90083e0a800d6
:1063c800040204000000000000000600889fbe00d0
:1063d8008a1f7800c0b7200010407800f44f5000a2
:1063e8000a003a00f0588000e10f500005033a0017
:1063f800d402a9000060fe0040a7a90083e0a8001d
:106408000402040000000000fe0237000080fb00c8
:1064180001002000f30f5000e08f5800f9023e0001
:1064280000600100130037002600370031003700f4
:10643800ca003700e7003700c30137007e02370083
:10644800b9023700c4023700d6023700d502370038
:10645800d4023700d3023700d2023700d102370006
:10646800d0023700cf023700ce023700cd02370006
:10647800cc02370010002000305588000004eb00e3
:10648800585c880000c0eb00eff8070000c0eb0084
:10649800f6f80700d402a90068588800b8588800a0
:1064a800a85888008858880060c520004068900077
:1064b800e14f4000d3023a00c0b720001048e8007e
:1064c800d0023700d402a800205e80000018a30084
:1064d800cc0232004c4602000000000006470200d1
:1064e8000000000011c0b30060c5200041509800b2
:1064f800c4023700c9b7200029409000e44f50007b
:106508005c00320008003e00e14f50002b003200d2
:106518000e003900e24f500032003200e34f5000c5
:1065280083003a0037003700e64f50006100320020
:106538005b003900e74f50007300320011c0b30010
:10654800e84f50007b00320079003700005e800081
:106558000000e00006003200705c80000000e000ef
:1065680003003200605c80000000e00004003a0094
:10657800a1c0b300c0b72000014878006c00370004
:1065880000c0eb00b0f80700505c8000e50f500039
:1065980002003a0000c0eb00b4f807000004eb006a
:1065a80088678800a244020000000000b8f80700cd
:1065b80040460200000000004e003700806780005f
:1065c8000000e80080678800e50f500002003c00ea
:1065d80020c0b30055003700c0c0b300804c78001d
:1065e8005300370082678000802520000091b900a1
:1065f800cf91de00e0012000b0440200000000005e
:10660800480037004c450200000000000004e0008c
:10661800470032000040eb006a450200000000001d
:10662800e0b220001000e00009003200805980002c
:106638000000e00006003200905980000000e000f1
:10664800030032002940900000c0e90037003700fd
:1066580011c0b300e00120001e430200000000004a
:10666800c1b72000214090000040e800a0409800f9
:106678002f003700e0b220001000e0002c003200ac
:10668800805980000000e000290032009059800005
:106698000000e0002600320050c0b300230037009d
:1066a8008040eb00e00120001e43020000000000d3
:1066b8001c003700e0b220001000e0001c003a0087
:1066c800805980000000e00019003a0098598000c5
:1066d8000800e00016003a004046020000000000f2
:1066e800625c800003002000e0012000b04402004a
:1066f80000000000294090000040e800a0449800f5
:10670800884078000b0037004c450200000000006c
:106718000004e000060032000040eb006a45020079
:1067280000000000294090000040e800a0449800c4
:106738008040eb000104e00024003a0060c520001e
:1067480040509000e14f40002e023a00c1c0b30013
:10675800c0b72000014878002a02370000c0eb00cb
:1067680039f80700505c8000e50f500002003a003d
:1067780000c0eb003df80700a0588000e10f500072
:1067880007003a000000eb00b0588800a0588800c5
:106798008058880061c5200080f09800c0f09800fb
:1067a800505c8000e50f500001003200d402a900bf
:1067b8004c450200000000000004e0001102320015
:1067c8000040eb006a4502000000000041c0b30031
:1067d800dfff3700a244020000000000815980005a
:1067e800e0b220001000e000070032000100e000e5
:1067f8000c0032009059800011c0b3000000e00086
:1068080006003a00070037000100e00005003a00e2
:10681800915980000100e00002003a0040cf2000ba
:106828000148780000c0eb0007f8070009b820000d
:10683800505c8000e50f500002003a0000c0eb00f9
:106848000af80700a15880000100e00006003a009d
:10685800b15888008158880060c5200001f0980070
:1068680041f09800d402a900205e800078046000fe
:1068780051c0b300b6ff3a000028a300e10132007e
:1068880070588000e10f50004a003a0049709000ab
:106898000004e00018003a0068588800725c800024
:1068a80003002000d2678800e3678800905c8000be
:1068b80000005100e0805900b0678800c167880077
:1068c8004058800000015100e0815900f2678800bb
:1068d8000368880050588000d05d8800a05c800064
:1068e80001002000d4c0b300800f5100818f5900ef
:1068f8002d0035007c023700e24f500002003200c4
:10690800e34f500024003a0068588800725c800009
:106918006110b800d0678800e167880030588000af
:106928005068880020588000d05d88001358800087
:106938006118b800e05d8800f15d8800015e8000a4
:10694800b0042000808f500009003600926788004c
:10695800905c80000000510001002000b0678800b2
:10696800c167880003005100106888005e02370084
:10697800c85d8800d8749800a25c800003004100bc
:10698800906788006000b800b0678800c167880019
:106998001268880054023700e14f4000520232006a
:1069a80000000000feff3700c0b720000448780050
:1069b80094013700b6f70700497090000004e00022
:1069c80015003a00725c800003002000d26788003e
:1069d800e3678800905c800000005100e080590067
:1069e800b0678800c1678800e05d8000f15d8000c5
:1069f8000001510081815900f2678800036888000e
:106a0800a05c800001002000800f5100818f590098
:106a18004b00350036023700e14f500022003a00a3
:106a2800705c80006103b800d6678800e76788005b
:106a38006000b800a0688800b1688800905c800099
:106a4800010020000001530081815b00b2678800cb
:106a5800c36788008068880091688800e45d8000ca
:106a6800f55d80000401530085815b00f2678800b2
:106a780003688800c4688800d5688800a05c800026
:106a880001002000800f5100818f59002c00350033
:106a98000000530081805b00800f5200818f5a00f4
:106aa80027003c0012023700e24f5000020032007b
:106ab800e34f50001e003a00725c80006110b8007d
:106ac800d0678800e16788003068800050688800d7
:106ad800e35d8000015e8000b0042000808f5000dc
:106ae8000900360092678800905c80000000510021
:106af80001002000b0678800c167880003005100ca
:106b080010688800fa013700c85d8800d8749800ba
:106b1800a25c800003004100906788006000b80014
:106b2800b0678800c167880012688800f0013700e4
:106b3800e14f40000200320000000000feff370075
:106b4800d1c0b30002ff3700a2588000205e800049
:106b5800f00060000e003200e10f510007003a001b
:106b68000000eb00b0588800a058880080588800c2
:106b780061c5200080f09800c0f09800505c80004b
:106b8800e50f50000e003200d402a8000c003700b8
:106b9800e10f510006003a00b1588800a15888005a
:106ba8008158880060c5200001f0980041f09800e5
:106bb800505c8000e50f500001003200d402a900ab
:106bc8005efd0700e14f50009e003200e24f50008a
:106bd800a0003200205e80000008a30094003a0064
:106be800800078000104b20091003a000038a30048
:106bf80004013200c4b72000244090000081fb004b
:106c080003002000e90f5100e08f59007d003e008d
:106c180004047800026001000b0037000f00370001
:106c28006c003700100037002900370031003700aa
:106c3800510037005c00370066003700000037005d
:106c480010c0b300740037008000eb007167880043
:106c580010c0b300204298006c003700005e80002e
:106c68006011b8001d003700e0b220001000e000fd
:106c780006003200805980000000e0000300320066
:106c8800905980000000e00002003a0001c1b30002
:106c980029003700c8b7200071678000d05d8000e8
:106ca800808f50000200310040c0b3000f00370051
:106cb800625c800003002000005e8000b044020097
:106cc80000000000284090006540400007003700a1
:106cd800005e8000e25d8000f35d8000b044020049
:106ce80000000000284090000040e8002044980080
:106cf800480037004c450200000000000004e00096
:106d0800440032000040eb006a4502000000000029
:106d1800e0b220001000e0000a0032008059800034
:106d28000000e00007003200905980000000e000f9
:106d38000400320011c1b300c0b720000148780038
:106d48003400370000b8200020c090000080fb000d
:106d580001002000421f2000030020006c180200e0
:106d6800000000000069880011c0b30060c5200061
:106d7800014898001e00370060c5200000489000b8
:106d8800e14f400023003a00005e80006011b80027
:106d9800b044020000000000706780000000e800b6
:106da80070678800120037004c45020000000000a0
:106db8000004e000170032000040eb006a450200c2
:106dc80000000000c1b7200021409000644050003e
:106dd8000a0037004c450200000000000004e000f3
:106de8000c0032000040eb006a4502000000000081
:106df800c1b72000214090000040e800a040980062
:106e080004003700a0c0b300004a780001407800b1
:106e1800010037000040eb000080fb00e14f50000c
:106e280078003a00205e80000048a30075003a0010
:106e380071c0b30046fe3700c0fc0700e14f5000a8
:106e480002003a00b1c0b30041fe3700e24f5000e3
:106e580002003a00f1c0b3003dfe3700205e80001a
:106e68006104600026003a004004b2006500320068
:106e78009af6070080447800e14f500022003a005b
:106e880070588000e10f500001003a0080f60700ba
:106e980000b82000b0c090000104e00018003200e3
:106ea8006ac520004ac190000204e00014003a00bc
:106eb800a0588000e10f500005003a00b85888003b
:106ec800a85888008858880008f5980042f5980066
:106ed800505c8000e50f500001003200d402a80089
:106ee8000180fb0001002000421f20000300200059
:106ef8006c18020000000000f069880049c598007d
:106f080081c0b30012fe3700e24f50003d003a0046
:106f180070588000e10f500001003a005cf607004d
:106f2800a1c0b3000afe3700205e80000008a3005d
:106f380002003a000068a30032003200625c800060
:106f480003002000e0012000b0440200000000001f
:106f580031c0b300fefd3700205e80001004b2008f
:106f680028003200625c800003002000e00120005d
:106f7800b04402000000000031c0b300c0b72000d8
:106f88000148780000c0eb002ff60700505c800035
:106f9800e50f50001b003a0000c0eb0033f6070075
:106fa80018003700a24402000000000038f607006d
:106fb80000c0eb0024f60700505c8000e50f50008d
:106fc80002003a0000c0eb0028f60700a058800035
:106fd800e10f500007003a000000eb00b0588800ad
:106fe800a05888008058880061c5200080f098006b
:106ff800c0f09800505c8000e50f5000010032009e
:10700800d402a90061c5200041c09000e14f4000b2
:107018000f003a000041eb00c2c09800a058800061
:10702800e10f500006003a000000eb00b05888005d
:1070380080588800a058880080f09800c2f0980016
:10704800505c8000e50f500001003200d402a90016
:1070580080b220001004e00020003200a2440200a8
:107068000000000061c5200001e890000004e00075
:1070780003003a0010c0b30080e8980017003700fa
:10708800e14f400015003a007c400200000000007b
:1070980094528000c0a52000104078007040600025
:1070a80006003200625280007352800004007800ab
:1070b800b0440200000000000500370000a52000d1
:1070c80090407800040078001e4302000000000091
:1070d8008040eb0060c5200001e89800f0d920004e
:1070e800104078006840600007003a0060c5200042
:1070f80000609000e14f400003003a0021c1b30056
:10710800c0b72000014878005dfc0700e34f50003d
:1071180013003a00a15880000100e00010003a0076
:1071280000b2200001487800b05880000000e80054
:10713800b05888008158880011c0b30060c520008d
:1071480001f0980011002000a1588800505c8000d0
:10715800e50f500001003200d402a80091588800c1
:1071680062c5200002f09000e14f40000f003a0095
:10717800a0588000e10f50000c003a0091588000a0
:10718800e18f500009003a000040eb0000f1980040
:1071980041f19800505c8000e50f5000010032007a
:1071a800d402a9000000eb009058880034fc0700c6
:1071b800e34f50001f003a00a1588000e18f5000b3
:1071c8001c003a00925880000200e00019003a00c2
:1071d80000b220000248780063c52000c2f1980080
:1071e800b05880000000e800b0588800e40f500054
:1071f8000600360031c1b300c0b72000014878004e
:10720800b2588800a25888002400370081f19800fd
:10721800805880000000e80080588800505c80009a
:10722800e50f500001003200d402a80091588800f0
:107238001a00370063c5200043f09000e14f40007a
:1072480016003a00a2588000e10f510013003a00de
:10725800915880000100e00010003a00c1f1980048
:1072680080588000e30f50000400360081588800e1
:10727800b1588800a15888000800370082f19800aa
:107288000000e80080588800505c8000e50f50003e
:1072980001003200d402a80092588800c1b720002b
:1072a8001104e00007003200205e80000078a3008f
:1072b8000400320010c0b3008048780000b22000fb
:1072c8000048eb00c2b720001240780081b72000c8
:1072d800914f500008003200804878000040eb00d1
:1072e800204198000400370064c0b300aefd3700a9
:1072f80061c0b30016fd37004f0578004f04be008b
:04730800000006007b
:020000040000fa
:10730c00889fbe008a9fbe000000e00001003d0087
:10731c000000ea00cf80de005200200003002000b5
:10732c004e180200000000000004be00820c200079
:10733c00030020006c18020000000000805a880036
:10734c00915a880002552f00030020000800be004f
:10735c006c180200000000008100d1000080d300f6
:10736c00205b8800315b8800f2508000cf91de00fa
:10737c006c1802000000000002242400f30020001e
:10738c0078180200000000000005be00005b8800b9
:10739c00115b880090508000a1508000981802006a
:1073ac00000000000001be00305a8800415a8800dd
:1073bc006c180200000000000004be00e05a8800b7
:1073cc00f15a88000a01be000a00be006c180200c7
:1073dc0000000000c05a8800d15a88000801400003
:1073ec0089814800040033000200be00ce18020060
:1073fc00000000000b00370061006100010020005c
:10740c008301d1000281d3000200700083807000e0
:10741c00ce180200000000000001be002619020078
:10742c0000000000e01902000000000098180200a3
:10743c0000000000a05a8800b15a88005251800008
:10744c00635180006c18020000000000405b880053
:10745c00515b880002712200030020006c180200ae
:10746c000000000072518000047122000491b900e8
:10747c007818020000000000605b8800715b8800d7
:10748c00983e2000090020000801be006c18020084
:10749c000000000002712200030020007818020096
:1074ac0000000000605a8800715a8800923e20004b
:1074bc00820f5000e08f580002003600685a880096
:1074cc00795a8800605a80004f05be004f04be00f8
:1074dc000000060064d82000e25680006611b90056
:1074ec00e0a920001080fb000200400000004000da
:1074fc00e0017a004298de0040508800f05680008f
:10750c006600b900f2a920001281fb0000014100c5
:10751c0002014100c419dd0062007a008081410043
:10752c005350880000000600889fbe008a9fbe0052
:10753c00f9568000b9528800eb568000ab52880097
:10754c00b7568000a5568000985680008a56800059
:10755c0041578000f01f2000808f500069003c00d4
:10756c004157800014578000f00f2000808f50008e
:10757c003b003c00425780009054800002014100c7
:10758c0043c22900628179000280b900cf89de00f4
:10759c00410bdd004f01de00020173000203780095
:1075ac000000eb00b05288000400e000050032003f
:1075bc00305780000000e00002003c00820378009d
:1075cc006a00370044c22900f0ac200011c0b3009f
:1075dc0090cf100010003a00415780009254800068
:1075ec00f00f2000010050000000400060007a0005
:1075fc000091b9004118dd004f11de00020170004e
:10760c00cf99de00020278000000eb00a052880047
:10761c0086037800b00037004157800092548000f8
:10762c00f00f2000010050000000400060007a00c4
:10763c000091b900c118dd004f11de00028170000d
:10764c00cf99de000202ea00953e200084824200bf
:10765c0010002000a0528800860378009f0037009d
:10766c000400e00005003200305780000000e0000c
:10767c0002003c00080378001100370041578000dd
:10768c0092548000f01f20000100500000004000c8
:10769c0041c22900608078000091b900411bdd00d7
:1076ac004f11de0002017300cf99de000203ea00e5
:1076bc00973e20008683430010002000b0528800c3
:1076cc0044c22900f0ac200011c0b30090cf1000d0
:1076dc0006003a00405780009254800000004000a1
:1076ec0004004000000096007300370042578000f1
:1076fc0090548000020141000401410002019600f7
:10770c005c0037004157800014578000f02f200098
:10771c00808f500035003c00425780009054800010
:10772c000201410043c229000301410002019400ff
:10773c000280b900410bdd004f00de000000730039
:10774c00cf88de000003ea00973e200086834300ca
:10775c0010002000b05288000400e0000500320048
:10776c00305780000000e00002003c000a02780064
:10777c005a00370044c22900f0ac200011c0b300fd
:10778c0090cf10000d003a004157800092548000b9
:10779c00f02f2000010050000000400060007a0033
:1077ac000091b9004118dd004f11de00020170009c
:1077bc00cf99de000202ea00340037004157800006
:1077cc0092548000f02f2000010050000000400077
:1077dc0060007a000091b900c118dd004f11de0085
:1077ec0002817000cf99de00380037000400e00001
:1077fc0005003200305780000000e00002003c0021
:10780c000803780010003700415780009254800024
:10781c00f03f2000010050000000400041c2290050
:10782c00608078000091b900411bdd004f11de0033
:10783c0002017300cf99de00020378000000eb0018
:10784c00b05288008203780044c22900f0ac2000ba
:10785c0011c0b30090cf100011003a0042578000c5
:10786c00905480000201410003a02f00030141004d
:10787c0062017a000280b9004109dd004f00de0090
:10788c0000007100cf88de000002ea00953e200067
:10789c008482420010002000a05288000f003700a4
:1078ac0040578000925480000000400001a02f003f
:1078bc000100400060007a000091b9004118dd0021
:1078cc004f11de0002017000cf99de000202780039
:1078dc000000eb00a052880082027800c1a52000b5
:1078ec0002c4b300114061004c003a009140780092
:1078fc0062c060004900320009814400610111003e
:10790c0002c1b900b05280000000400061001000bc
:10791c0000b0b90000015100cf91de00e00f510022
:10792c00e08f590013003400a85480000804e900cb
:10793c00030033008381d1000281d300fbff3700a9
:10794c00c25488000200e0000f0034000600e00082
:10795c0002003a00f0ff2700c0548800d054800089
:10796c00f1a92000804878001000200010558800f4
:10797c00050037000000eb00c0548800e154800083
:10798c00f0a92000014878000b814500610111002d
:10799c0002d1b900a052800000004000610010002c
:1079ac0000a0b90000015100cf91de00e00f5100a2
:1079bc00e08f590013003400a85480000804e9003b
:1079cc00030033008381d1000281d300fbff370019
:1079dc00b25488000200e000150034000400e000fe
:1079ec0002003a00f0ff2700b0548800d054800009
:1079fc00e1a9200080487800100020000055880084
:107a0c000b0037000000eb00b0548800e1548000fc
:107a1c00e0a920000148780005003700e054800000
:107a2c00f1a9200080487800e1a920008048780066
:107a3c0095a0a900b7568800a556880096568800d0
:107a4c0084568800c0a5200001c4b30010c060009b
:107a5c0005003a00b2528000f2568800a65280000f
:107a6c00e65688009bfe070095a0a8004f05be00b7
:107a7c004f04be0000000600889fbe008a9fbe0017
:107a8c00c1a5200002c4b3001140610011003a00ee
:107a9c009140780061c0600003003a00a05580005e
:107aac004580de0009003700b055800001712200ce
:107abc00810f500003003c00018f2d00810f5000fe
:107acc0002003d0011508800320037001050880031
:107adc00300037009140780061c0600003003a002c
:107aec00a45580001450880002003700b055800067
:107afc00105088001050800001e22400810f5000cb
:107b0c0003003c00011e2b00810f500001003d00c2
:107b1c0011508800025680001356800035578000a3
:107b2c00020078000200e00001003d000200ea00c3
:107b3c00c280de00f4ff270005a0de00808f50001d
:107b4c00140034008580e900105080000000e00033
:107b5c000700340001a0de0010508800cf80de004a
:107b6c00800f5100818f59000a0034000700370044
:107b7c0001a0de000000ea0010508800cf80de007b
:107b8c00800f5100818f590002003d000056880083
:107b9c0011568800c2a520009280fb00c508de00ab
:107bac00e1c060001280fb004400de006140600018
:107bbc0080cf5000070032001280fb00e1528000a1
:107bcc000000d100700060000140a10080807000b6
:107bdc00e152880012417800704061003800320098
:107bec009500a900705480008154800032548000ac
:107bfc0043548000000451008184590018548800bb
:107c0c00295488009500a800225780006110b90003
:107c1c00800f5400818f5c0015003d000200ea00cb
:107c2c00cf80de00800f5400818f5c001000340088
:107c3c0061a0200050b720001004e00003003200c7
:107c4c0010c0b30080487800010037008048eb007a
:107c5c006000b80020568800315688000056880015
:107c6c00115688001000200030558800570037004e
:107c7c0060a020000048eb00105080000000e000e5
:107c8c0002003d000000ea00105088000056800001
:107c9c000000e00001003d000000ea006105b900b1
:107cac0042012000030020000a00be006c180200f4
:107cbc0000000000800f5400818f5c000200340033
:107ccc00105080000700370060001000e0801800a2
:107cdc00800f5400818f5c0004003d001050800028
:107cec000000ea00cf80de003600370080558000af
:107cfc00cf80de0002002800430020006c18020038
:107d0c00000000000a01be004e1802000000000036
:107d1c000001be00e00f5000e08f580002003a0056
:107d2c0012002000030020000800be006c180200a6
:107d3c0000000000cf89de00410add004f01de00ab
:107d4c0002017200225688003356880010508000c1
:107d5c006102b900840f5100858f59000300340073
:107d6c002456880035568800180037000000ea00b9
:107d7c00cf80de00800f5100818f5900110035003b
:107d8c0061005100e080590004032000840f500072
:107d9c00e08f580003003e0020032000010020006b
:107dac00080037001203b0000380b000000320006d
:107dbc00800f5100e08f590004003e00e0fc2f00c2
:107dcc00f1ff2f002056880031568800985580000e
:107ddc0026568000375680000456800015568000c9
:107dec000401530085815b00e00f5200e08f5a00c4
:107dfc00100034006140b900800f5100818f590090
:107e0c0016003c00885580000800ea00cf80de0098
:107e1c00800f5100818f590013003d006140b90063
:107e2c000000520081805a000056880011568800cc
:107e3c000f0037000800ea00cf80de00800f5100f1
:107e4c00818f5900f5ff350080558000cf80de0012
:107e5c00800f5100818f5900030034000400400052
:107e6c0085804800f0ff37000656880017568800ba
:107e7c00325780000200e0001e003a0001568000dc
:107e8c000100e00001003d008100ea001150880073
:107e9c00e0a5200002487800c0a520001040780022
:107eac007040600003003200820c2000403820003b
:107ebc000800370010578000e10f500003003a0013
:107ecc00c2122000e02e200002003700c21c20004d
:107edc0080252000808f500008003d00828f5000cc
:107eec000600340011c0b300e0a520000148780062
:107efc0002003700e0a520000048eb00025680008d
:107f0c0013568000f0ae200001002000020040005b
:107f1c0083804800e45d2100840f5000e08f5800fe
:107f2c0003003e0040528000515280000200370096
:107f3c002052800031528000005388001153880079
:107f4c009500a90011032000810f5100e08f59000a
:107f5c001000340000402800717d21004e180200f2
:107f6c00000000000004be0011e1a80011c0b30025
:107f7c00f0ac200001487800c0a5200002c4b3007a
:107f8c001040610029003200245180009454880074
:107f9c0026003700caa52000f0fc2f00f1ff2f00af
:107fac00800f5100818f59000e003d0000402800c9
:107fbc00717d21004e180200000000000004be007c
:107fcc0011e1a800f0ac200000c8eb0001c4b30024
:107fdc001ac06000150032002251800092548800b3
:107fec001200370011e1a9000621ef000a21ef0071
:107ffc00e05280000080a100e0528800e052800036
:10800c000090a100e052880004c4b3001a40620042
:10801c0018fc2800c90720000004e00003003a0007
:10802c0010518000905488003ffd0700c0a520002f
:10803c0001c4b30010c060000f003a00025680006b
:10804c0013568000e0558000f1558000800f5100e0
:10805c00818f590008003200e2558800f3558800e2
:10806c0002007800a6fc0700805b880011c0b300fa
:10807c0040b7200001487800f0ac20001040780098
:10808c000000fb00cf80de000801be006c1802006f
:10809c000000000022578000cf91de006c18020017
:1080ac00000000004609dd004a00de0000007100ff
:1080bc00ca88de00c0558800d1558800241f2000d6
:1080cc00840f5000e08f580004003c00301f20004b
:1080dc0001002000c0558800d15588009500a800eb
:1080ec004f05be004f04be00000006008000eb00f0
:1080fc00315988001159880040b22000014878009d
:10810c0010b220000148780080b2200001487800ad
:10811c0000000600881f78009500a90070548000ac
:10812c008154800050548800615488009500a80048
:10813c0048558000e20f540070003a00d1a5200091
:10814c0011417800614061001000320091407800cc
:10815c0062c0600006003a001141e20004003d00dc
:10816c0080b2200013c0b30090cf110007003a007a
:10817c000000eb00b05588006000b8000056880085
:10818c00115688001000200030558800c0a5200032
:10819c0010407800684060000400320036fe070092
:1081ac00e05280000030a100e052880002578000ad
:1081bc0030578000800f51000e003200e60f510046
:1081cc000b003e000056800011568000f3ae2000dc
:1081dc00830f5000e08f580006003c003257880097
:1081ec00001020000280de002057880001003700bc
:1081fc0000578800c2a520009280fb00c608de0054
:10820c00e1c060001280fb004700de0080cf500010
:10821c002c0032009500a90095a0a900d425ef00f0
:10822c00d421ef00c1e1a900c1e5a900c221ef00f2
:10823c00c225ef0011e1a9000621ef000a21ef0091
:10824c0001c4b30012c0600009003200125180005a
:10825c0092548800b4fc0700e05280000060a1003a
:10826c00e0528800e05280000070a1000a00370044
:10827c002351800093548800c0510200000000007c
:10828c00a9fc0700e05280000060a000e0528800ca
:10829c00e05280000070a000e0528800a000200096
:1082ac0090028800c221ef0010002000102e8800e0
:1082bc00c1e1a800c1e5a8009500a80095a0a80000
:1082cc0011e1a8004155800030558000808f50008e
:1082dc0034003200100020004055880030558800d2
:1082ec0061c5200080e09800c1e1a900c1e5a900aa
:1082fc00d425ef00d421ef0016003700e10f540015
:10830c0018003a0030558000e10f50002500320073
:10831c00405588008040eb0060c5200001e09800cb
:10832c0081fc07006bfc0700c0510200000000003c
:10833c008000eb003159880011598800a000200002
:10834c0090028800110e8800182e8800c1e1a80048
:10835c00c1e5a800e05280000030a000e052880087
:10836c00100037000800e0000e003a000051020037
:10837c00000000003651020000000000d050020046
:10838c0000000000da51020000000000c0510200a1
:10839c000000000010002000405588003055880077
:1083ac0052ff07004f047800000006004050800088
:1083bc00a02e880050508000a00e880070558000c0
:1083cc00b00e8800c00e880060558000d00e88006a
:1083dc00b02e880000000600889fbe008a9fbe0059
:1083ec008c9fbe006101b9006108b9000006510004
:1083fc00818659008c4f88009d4f88008a538000dd
:10840c009b53800002528000135280000c00be006f
:10841c006c180200000000000004be00e251800055
:10842c00f3518000b0538000c15380006c180200df
:10843c00000000000004540081845c004348dd000f
:10844c004d44de0008047000cdccde000a0444006c
:10845c008b844c00a0538000cf80de0000055500bb
:10846c0081855d0002538000135380000a00be001a
:10847c006c180200000000004309dd004d00de0016
:10848c0000007100cd88de000001540081815c0089
:10849c008253880093538800545580006120b900a2
:1084ac00800f5100818f590005003c000402ea0046
:1084bc006120b900800f5100818f590002003d00ee
:1084cc00a453880001003700a2538800e0a52000c7
:1084dc0011c0b30090cf100003003a00a0538000ed
:1084ec004280de00a0538800bc538800cd53880026
:1084fc00a05380004f06be004f05be004f04be00c7
:10850c0000000600889fbe008a9fbe008c9fbe00a4
:10851c006101b9006108b90000065100818659005b
:10852c006c4f88007d4f88002a5380003b5380009d
:10853c0002528000135280000c00be006c18020026
:10854c00000000000004be00e2518000f3518000e6
:10855c0050538000615380006c1802000000000032
:10856c000004540081845c004348dd004d44de006f
:10857c0008047000cdccde000a0444008b844c004f
:10858c0040538000cf80de000005550081855d00e2
:10859c0002538000135380000a00be006c180200c6
:1085ac00000000004309dd004d00de0000007100fa
:1085bc00cd88de000001540081815c0022538800cc
:1085cc0033538800545580006120b900800f51004e
:1085dc00818f590005003c000402ea006120b900bb
:1085ec00800f5100818f590002003d0044538800d8
:1085fc000100370042538800e0a5200011c0b300f1
:10860c0090cf100003003a00405380004280de00ff
:10861c00405388005c5388006d53880040538000a1
:10862c004f06be004f05be004f04be000000060002
:10863c00881f78000001780001447800905288006f
:10864c0000a5200001487800401f20000010b80051
:10865c00c2032000030020004e180200000000009e
:10866c0080007800f2ac2000e14f540003003a0087
:10867c008000ea0000c9eb000200370010c0b30014
:10868c0000497800b1558800200020003055880042
:10869c00e05280000050a100e05288004f047800a6
:1086ac00000006000000eb00d04f880011c0b300a2
:1086bc00c09f20000148780060c5200041789800d8
:1086cc0000000600881f78008001780001447800c3
:1086dc0060c5200040789000e14f40000f003a0048
:1086ec00c19f200010c0b300914f100008003a0049
:1086fc00d04f800000004100d04f8800830f500005
:10870c0003003900d34f880030c0b3008048780094
:10871c0011c0b30060c5200041789800d04f800094
:10872c00421f20000200b800c203200003002000fa
:10873c004e18020000000000e14f540001003a0006
:10874c000000ea00b0558800200020003055880059
:10875c00e05280000050a100e05288004f047800e5
:10876c0000000600889fbe00800278000204be0054
:10877c00e00f5100e08f590002003a0008e72f008b
:10878c00f9ff2f00c69f200016417800e24f5100e0
:10879c003d003200e34f510011003200e14f510017
:1087ac0048003a0063c5200043789000e14f400038
:1087bc0044003a00d04f800000804000d04f880029
:1087cc00850f500004003900d54f880030c0b3002d
:1087dc00004b78003b003700c27998003900370015
:1087ec00d54f88009500a9007054800081548000fa
:1087fc00f04f8800015088009500a800e00f500051
:10880c00e08f580002003d00f007b0000180b0007e
:10881c00c789de00490add004701de000201720053
:10882c00f24f880003508800809f20001040780091
:10883c000004e00006003a00a04f8000b14f800019
:10884c00800f5100818f590008003d001d0037003a
:10885c00e14f50001b003a00a04f8000b14f800048
:10886c00800f5100818f590016003d0021c0b300cc
:10887c00c09f20000148780011c0b30060c52000e3
:10888c00417898000f00370061c5200041789000b6
:10889c00e14f40000b003a00d04f8000840f500095
:1088ac000400390004005000d04f880010c0b30001
:1088bc00030037000000eb00d04f8800004b78001d
:1088cc00c0789800d04f8000421f20000200b800f2
:1088dc00c2032000030020004e180200000000001c
:1088ec004749dd00c941de00830171004741dd00cd
