:020000040000fa
:085808007e2c040000000000ea
:020000040000fa
:1058fc004f3b230080ff23000001880000000000c4
:10590c000a00070011000700000020000000e00062
:10591c00020032000000020000000000f0ea020069
:10592c00000000000040da000000fe004440a90026
:10593c00406220000000e000030032000000200064
:10594c00a00188004440a8000000060020e22e00c0
:10595c00010020001600370062004000e080480083
:10596c00910188009001ba0062004000e08048007c
:10597c00910188009002ba0062004000e08048006b
:10598c000002eb006028e10005003a008301e90009
:10599c0007003300038009000059eb0004003700b6
:1059ac006128e100010032000082eb0005000700d5
:1059bc00910188001001ba000200e000e6ff3a00f5
:1059cc000000050091018800800278006200400010
:1059dc00e08048003559ba008301e9000800320024
:1059ec002559ba008301e900050032000400e000eb
:1059fc00f4ff320015d9ba008301e900f1ff3a0037
:105a0c000000060068d104000000000080d20400f1
:105a1c00000000003ae3040000000000eae4040087
:105a2c000000000098dc04000000000092dd04007f
:105a3c0000000000446f0400000000001275040018
:105a4c00000000008001eb0002003700817178003b
:105a5c008301e800828f5100fcff3a000000060031
:105a6c006022b800060220000000d0008180d20025
:105a7c000482d2008582d2000000a00002025200f3
:105a8c0083825a00030031000202420083824a00e2
:105a9c000000a1000603e900f3ff3a000000060035
:105aac00889fbe008a9fbe00010578000100e000bf
:105abc000400350008003c000000e000200032002b
:105acc000500370060001000e080180002003b0069
:105adc0001f02c001a0037000004be006011b80061
:105aec006b0920000982cf00020039000882cf0028
:105afc000441b000694252000e00320008003b0025
:105b0c0082817100610164008904d1000884d30092
:105b1c008b05e8000442e800f9ff3a000500370065
:105b2c000804440089844c008b05e9000442e90018
:105b3c00fbff3a00500107000af0a70001f0a0009b
:105b4c004f05be004f04be000000060003f0a2008b
:105b5c00889fbe008a9fbe008c1f78006c010700d6
:105b6c00730133006450e1004f0032006420e10007
:105b7c005200320003826c0007003b000905d00084
:105b8c000306d000820f54000c065d0002003900a1
:105b9c0002003200890178000306780085825500e6
:105bac0004003d000003fd008103fd008502ea00b6
:105bbc008b854200840f720002003b0060001000d5
:105bcc00e08018006011b8000005eb007a28e100b5
:105bdc000a00390006007800c75ddd00f707b20047
:105bec00878075002d003700828171000a017800d2
:105bfc00610560008180d1000080d3008502e9003e
:105c0c00f9ff3b00060440008784480002003b007b
:105c1c0060041400e0841c000988a3000700320013
:105c2c008a81710082817100610164008904d10054
:105c3c000884d3008b05e800170037000978a3000f
:105c4c0013003a000b00e000130034008b05e90050
:105c5c000804440089844c000a4474000978a300a9
:105c6c000d003a000b00e000070034008b05e90042
:105c7c000804440089844c0001003a000b00200009
:105c8c000978a300f7ff32000001eb000200370097
:105c9c00828171000a017800f70007000cf0a70060
:105cac0001f0a0002b0137006420e10002003a0053
:105cbc00838f6c002b0133000801be000200be0074
:105ccc0024013700889fbe008a9fbe008c1f78007d
:105cdc000f0107001601330003866c006450e100cd
:105cec002e0032006420e100330032006150e100ec
:105cfc002f0032006120e100310032008585550013
:105d0c00eb07b00009002000080420000500370054
:105d1c000804440089844c000a0031000603430047
:105d2c0087834b000001530081815b00f8ff330037
:105d3c000203be000800a0000804440089844c0043
:105d4c00f6ff3900c639dd00830173000100320013
:105d5c00130020008904d1000884d3000998a30003
:105d6c00050032000800a7000300a0008904d10040
:105d7c000884d3008b05e8008904d1000884d30083
:105d8c000001eb000281d200bb00070001f0a10072
:105d9c000cf0a70001f0a000ee0037006420e10039
:105dac00f00032000801be000200be00f7ff370011
:105dbc006120e100eb0032006000b800f3ff370017
:105dcc000000200001f82700f0ff3700889fbe007c
:105ddc008a9fbe008c1f7800cd000700d4003300d2
:105dec0003866c006450e100240032006420e10062
:105dfc00270032006150e100220032006120e100f6
:105e0c00210032008b854200eb07b1000134b80051
:105e1c00003ab8000804420089844a00013ab800ec
:105e2c000030b8008880400009014a0004003300ab
:105e3c000000400081804800020149008b05e90008
:105e4c00c909dd008301700001003200130020003d
:105e5c00c814de004814dd004709de001200b20051
:105e6c00c808de00088470008300070001f0a10060
:105e7c000cf0a70001f0a000b60037006120e10093
:105e8c00b80032000801be000200be00f7ff370068
:105e9c006150e100fcff3a00b20037000001be0087
:105eac00b30007000470a70003f0a10003f8a300df
:105ebc0013003a006509b1001000320009003500ea
:105ecc006928e100020035000100280000000500ef
:105edc0000004000818048008502e900fcff3a0088
:105eec0000000600f88f4200050035008100d1004b
:105efc000080d3008502e800fcff3a000000060099
:105f0c008000eb00000005000001be0098000700b7
:105f1c000470a70003f0a1006509b100160032005f
:105f2c000d0035006828e10006003500f0ff2f0059
:105f3c00f1ff27000300e00013003b0001002800e4
:105f4c000000050000004000818048008502e90047
:105f5c00fcff3a0008003700f88f420002003c00ba
:105f6c008000eb00000005008100d1000080d30010
:105f7c008502e800fcff3a000300e00002003b0051
:105f8c0060001000e08018000000060014002000e3
:105f9c008c0037000001eb00a50007000400320064
:105fac000200200003f8230001f0a700e7fe070021
:105fbc00000006000001eb009d0007000400320009
:105fcc000200200003f8230001f0a600e0fe070009
:105fdc0000000600f4ff2f007a003700839f680052
:105fec000100e00002003d0060001000e08018009d
:105ffc000300e00002003d0060011100e081190087
:10600c0097fe07004f00e00002003b00600010000c
:10601c00e080180000000600811f78000100e000fd
:10602c0002003d0060001000e08018000300e0005a
:10603c0002003d0060011100e0811900050007001d
:10604c004f00e00002003b0060001000e0801800f0
:10605c000000060082fe07000400be0000000600df
:10606c00020ab900001bb9000200b800810042000e
:10607c008100430000000600810020006180550073
:10608c000b003d000b00200061fe2f000100e10021
:10609c001d00340082817100610164008904d1000b
:1060ac000884d3000000e800faff3a0071002000d9
:1060bc0061006400030070000200600009003200ff
:1060cc0061044400e0844c000988a50005003200fe
:1060dc008b05e8006808e10002003a008904d10051
:1060ec000884d300f20f20000258e10005003d00a7
:1060fc00c75ddd00f907b2008980750008007800e3
:10610c00000006000bf827008b007800000005004b
:10611c000004be00160007000003be000405be000c
:10612c000200be0012000700844f7500000006003c
:10613c000200be006450e100050036006420e1005e
:10614c00020036000968a30001003a000800be00f6
:10615c000160a0004f0678004f05be004f04be0042
:10616c0000000600f0ff2f00f1ff2700f9ff3700b9
:10617c00c70ade00f107b200f50fb20008003200ca
:10618c00e1cf4200020032000170a00024000500a3
:10619c00810f700001003200040805004400050066
:1061ac00810f700002003a00140005008502e9001e
:1061bc000000400081c04800fcff3b000170a000c3
:1061cc0024000500889fbe008a9fbe00841f7800b3
:1061dc00cfff07004f00780011003300f0ff2f00b5
:1061ec00838f6c0006003b00040565000a00a700c5
:1061fc000800370009f0a600100020000800370046
:10620c00820f5400838f5c000300390010002000c3
:10621c0001003e000000200009f0a7000000ea0089
:10622c004f05be004f04be000000e0000000060059
:10623c00889fbe008a9fbe000003be00ccff0700f3
:10624c008505780082815200020020006220e10066
:10625c0004003a00f307b100040035007718e100a0
:10626c00040035000600be00140037006000b800c2
:10627c000f003700f50f2000faff2f008502d10028
:10628c000a85d3008301e900fcff3b008184620096
:10629c0000046500890f7400f2ff32008582ea0069
:1062ac000a85ea00818462000004650072ff070021
:1062bc0007f0a70001f0a0000081eb000200e00055
:0c62cc004f05be004f04be00000006009d
:020000040000fa
:020000040005f5
:0457f400ffff0000b3
:020000040000fa
:020000040005f5
:0457f800ae130000ec
:020000040000fa
:020000040005f5
:0457fc007f360000f4
:020000040000fa
:0c583c00feec040000000000000006006c
:020000040000fa
:0c58f00044ce0400000000000000060090
:020000040000fa
:0c58dc0088ce0400000000000000060060
:020000040000fa
:0c58b4002ab804000000000000000600fc
:020000040000fa
:0c58a00068b804000000000000000600d2
:020000040000fa
:08581000050200000300000086
:020000040000fa
:0458040000000000a0
:020000040000fa
:1062d80001020000040800001020000040800000b7
:1062e8000100000002000000040000000800000097
:1062f80010000000200000004000000080000000a6
:106308000001000000020000000400000008000076
:106318000010000000200000004000000080000085
:10632800fefd0000fbf70000efdf0000bf7f00006c
:106338000102000004080000102000004080000056
:10634800f00f00000100000002000000040000003f
:1063580008000000100000002000000040000000bd
:10636800800000000001000000020000000400009e
:10637800000800000010000000200000004000009d
:106388000080000001000000000000000a0000007a
:10639800000000006400000000000000e8030000a6
:1063a800000000001027000000000000a086000088
:1063b80001000000404200000f000000809600002d
:1063c8009800000000000000c1c0000081c100006a
:1063d8004001000001c30000c0030000800200006b
:1063e80041c2000001c60000c0060000800700008e
:1063f80041c7000000050000c1c5000081c40000bd
:106408004004000001cc0000c00c0000800d00001a
:1064180041cd0000000f0000c1cf000081ce000078
:10642800400e0000000a0000c1ca000081cb000035
:10643800400b000001c90000c009000080080000ee
:1064480041c8000001d80000c018000080190000f1
:1064580041d90000001b0000c1db000081da000008
:10646800401a0000001e0000c1de000081df0000ad
:10647800401f000001dd0000c01d0000801c00005e
:1064880041dc000000140000c1d4000081d50000e8
:106498004015000001d70000c0170000801600005a
:1064a80041d6000001d20000c01200008013000095
:1064b80041d3000000110000c1d1000081d00000cc
:1064c8004010000001f00000c030000080310000e2
:1064d80041f1000000330000c1f3000081f2000028
:1064e8004032000000360000c1f6000081f70000cd
:1064f8004037000001f50000c0350000803400007e
:1065080041f40000003c0000c1fc000081fd0000d7
:10651800403d000001ff0000c03f0000803e000039
:1065280041fe000001fa0000c03a0000803b000074
:1065380041fb000000390000c1f9000081f80000ab
:106548004038000000280000c1e8000081e9000090
:106558004029000001eb0000c02b0000802a000049
:1065680041ea000001ee0000c02e0000802f00006c
:1065780041ef0000002d0000c1ed000081ec00009b
:10658800402c000001e40000c02400008025000029
:1065980041e5000000270000c1e7000081e6000097
:1065a8004026000000220000c1e2000081e3000054
:1065b8004023000001e10000c0210000802000000d
:1065c80041e0000001a00000c06000008061000000
:1065d80041a1000000630000c1a3000081a20000e7
:1065e8004062000000660000c1a6000081a700000c
:1065f8004067000001a50000c0650000806400003d
:1066080041a40000006c0000c1ac000081ad000096
:10661800406d000001af0000c06f0000806e0000f8
:1066280041ae000001aa0000c06a0000806b0000b3
:1066380041ab000000690000c1a9000081a800006a
:106648004068000000780000c1b8000081b900006f
:106658004079000001bb0000c07b0000807a000088
:1066680041ba000001be0000c07e0000807f00002b
:1066780041bf0000007d0000c1bd000081bc0000da
:10668800407c000001b40000c07400008075000068
:1066980041b5000000770000c1b7000081b60000d6
:1066a8004076000000720000c1b2000081b3000013
:1066b8004073000001b10000c0710000807000004c
:1066c80041b0000000500000c1900000819100001e
:1066d8004051000001930000c053000080520000a8
:1066e8004192000001960000c0560000805700004b
:1066f8004197000000550000c195000081940000fa
:1067080040540000019c0000c05c0000805d000057
:10671800419d0000005f0000c19f0000819e0000b5
:10672800405e0000005a0000c19a0000819b0000f2
:10673800405b000001990000c0590000805800002b
:106748004198000001880000c0480000804900000e
:1067580041890000004b0000c18b0000818a0000c5
:10676800404a0000004e0000c18e0000818f0000ea
:10677800404f0000018d0000c04d0000804c00001b
:10678800418c000000440000c184000081850000a5
:106798004045000001870000c04700008046000017
:1067a8004186000001820000c042000080430000d2
:1067b8004183000000410000c18100008180000089
:1067c80040400000000000000000000060ae000033
:1067d800000000008051000001000000e0ff000000
:1067e80001000000a0a800000200000000570000ff
:1067f80003000000c0ff00000300000020ae0000fe
:1068080004000000805c0000050000004005000056
:1068180006000000a0b3000006000000605c000055
:1068280007000000000000000000000060ae00004b
:1068380000000000e04b00000100000040fa0000ea
:106848000100000000a300000200000060510000e9
:106858000300000020fa00000300000080a80000e8
:1068680004000000e056000005000000a0ff000042
:106878000500000000ae000006000000c056000041
:1068880007000000000000000005000001010000f2
:106898000a000000050500000505000005050000c8
:1068a80005050000050500000505000005050000b8
:1068b80005050000050500000505000005050000a8
:1068c8000505000005050000050500000505000098
:1068d8000505000005050000050500000505000088
:1068e8000505000005050000050500000505000078
:0468f8000505000092
:020000040000fa
:1068fc00881f780000047800e10f500027003a0050
:10690c00c07f8100b07f8900bcd302000000000072
:10691c000004e0000400320080f5210030509000ab
:10692c000004e00004003a00e2e90200000000006c
:10693c000004e00002003200c87f8900020037002a
:10694c000000eb00c07f8900c17f8100e18f500007
:10695c0007003a00b07f81000000e00004003a001c
:10696c00a17f890000ee220001489900e2c2a80034
:10697c00a07f8100e10f50000d003a0001ee2200d3
:10698c0001489100e14f400009003a000000eb0083
:10699c00a07f890080489900040037008000eb003c
:1069ac00a17f890000ee220001489900e2c2a900f3
:1069bc004f04780000000600a2a0020000000000b6
:1069cc0018d404000000000022e02100924178005d
:1069dc00e9cf51000d003a00100d230090407800d3
:1069ec00e1cf50001f003a000016210013c0b30085
:1069fc0090cf11001d003a00014978000040eb00d7
:106a0c0010419800204198000000060021e0210070
:106a1c00114090000004e00002003a0010c0b300e6
:106a2c0006003700e14f500006003a00100d23001d
:106a3c0090cf51000d00320020c0b3009040980060
:106a4c0000000600e24f500008003a00100d230031
:106a5c00904878000040eb0090409800a0409800cf
:106a6c0000000600e6cf5000e8ff320000000600f0
:106a7c00a66221004501de004211dd00ff0360002b
:106a8c000104e00020003a0086014100f68141003b
:106a9c00f6004100868040001181fb0011409000ff
:106aac004800dd0002027000214090000080fb00d5
:106abc00314190004811dd000001710010002000f0
:106acc00010020008703e9000300330000004000b0
:106adc0081804800fbff37000080ea008180ea00db
:106aec000402600001016100820078008449780092
:106afc004821de0092419800a14198004808de0030
:106b0c00b04198000000060086024100f682420067
:106b1c0076024100060242009480fb001440900073
:106b2c004800dd0001017000a44090008180fb0052
:106b3c00344090004800dd008101700010002000fe
:106b4c00010020008703e90003003300000040002f
:106b5c0081804800fbff37000001710081817100ca
:106b6c00824a78004810de0090429800a3429800b8
:106b7c004818de00b042980000000600a162210017
:106b8c000040eb00e0589800f058980080609800a6
:106b9c0090609800a0609800b0609800c060980069
:106bac00d0609800000006004501de00a1622100c3
:106bbc004211dd0001034100fe0343007e01410050
:106bcc00010141009281fb0092409000c808dd0059
:106bdc0003827000a24190008381fb00b2409000c0
:106bec00c808dd00838270007f0060001200200066
:106bfc00030020000000e900030033000201410003
:106c0c0083814900fbff370002027200838272000d
:106c1c00f00f2000844b6000c820de0091439800e8
:106c2c0000806200006398004828de001063980022
:106c3c0000000600110d23008048780000000600bb
:106c4c0000ee220040409000e14f400030003a003e
:106c5c00a18681000100e00005003a00cda2a90048
:106c6c00b0ff220001487800a0ff22000f0037007f
:106c7c00e18f500006003a00cda2a800b0ff220020
:106c8c000048eb00a0ff22000048eb000800370092
:106c9c00e28f500002003a00a1c0b300020037009e
:106cac00e38f500002003a00b0ff22000148780048
:106cbc00b0ff2200104178000204e0001100320005
:106ccc00a1ff22001140e80080487800824f50005c
:106cdc000c0039008048eb000040eb00c1ff2200a3
:106cec001104e00001003a0010c0b30080487800a5
:106cfc00c500dd00cdc2bf000054a10001407000f2
:106d0c00cde2b70011c0b30000ee22004140980064
:106d1c0000000600889fbe00800478006b045000c1
:106d2c00f0022000800f540017003e0020e02100ec
:106d3c0010407800e54f500004003200e74f50003f
:106d4c0002003200e44f50000a003a00084078007c
:106d5c00fed0020000000000f34f50000a003e007d
:106d6c00201d2100684078000004e00006003a0075
:106d7c000700370008407800fed002000000000039
:106d8c00f34f500002003600090078000100370074
:106d9c000000eb004f04be0000000600004178002c
:106dac0081417800f0c2b300804f510003003e00d7
:106dbc008280fb00201d21008370780000000600fb
:106dcc00804078000001eb00f0c2b30080cf50008f
:106ddc0004003e000180fb00211d210060c07800f2
:106dec000081fb000200780000000600889fbe00b6
:106dfc008a9fbe008c1f780020e021001040780094
:106e0c000080fb000100200061005000e080580071
:106e1c00ea0f5000e08f5800fc1b3e0000600100a0
:106e2c000a00370034003700530037005303370093
:106e3c0050083700850e37001f103700c804370084
:106e4c00a9153700f11b3700301737000016210049
:106e5c0011c0b30090cf100007003a00a00a200028
:106e6c00a07f88000000fe00503820000eda0200df
:106e7c0000000000e51b37000000eb00a086890035
:106e8c00211d21008058eb0020202100808f500014
:106e9c00fcff3a0020e02100104490000804e000c0
:106eac0003003200e14f5400d81b3a000e003700ab
:106ebc00000d2300084878007c88020000000000c8
:106ecc0011c0b30000ee220001487800a06221003e
:106edc0028d89800bcd8020000000000c2d80200dc
:106eec0000000000c91b370021c0b300100d2300a7
:106efc0001487800c51b370020e0210010449000a9
:106f0c00e14f5400c11b3a0000ee220000c1eb001f
:106f1c00904f1100bd1b3a0029ff220031c0b30075
:106f2c00100d230001487800bcd3020000000000c3
:106f3c000004e00002003200884c780001003700a9
:106f4c00804c7800701121000048eb0010002000ec
:106f5c0001002000508e8800618e880000a62e0053
:106f6c0001002000308e8800418e88001000200027
:106f7c00208e8800a51b370029002000a9868900d7
:106f8c0021e0210011409000e14f50001700320029
:106f9c0003003900e24f50009c1b3a00f30237000b
:106fac006ad80200000000000000cf000000ea00d8
:106fbc004f00de00111d210080487800bcd8020073
:106fcc0000000000401621000048eb007afe07008c
:106fdc00ecd002000000000001ee220010c0b30053
:106fec0080e0980080709800881b370000ee22002b
:106ffc0000709000e14f4000841b3a0020ff2200fb
:10700c0023c0b30090cf110002003a0040c2b3007d
:10701c00a0409800ded802000000000000017800bb
:10702c000000e0003d003200f01c21001004e000e4
:10703c0001003a000000fe0018dd21001840780025
:10704c000008a30004003200090078000eda0200e8
:10705c00000000006d1b37000018a3000400320074
:10706c00300020000eda020000000000671b370021
:10707c000048a30004003200500020000eda020089
:10708c0000000000611b37000058a3000400320010
:10709c00600020000eda0200000000005b1b3700cd
:1070ac0034e60200000000000004e000070032009b
:1070bc001844780064406400040032008000200012
:1070cc000eda020000000000501b3700b8c90200a5
:1070dc00000000000004e0000800320010dd210078
:1070ec0010407800644060000400320080002000f2
:1070fc000eda020000000000441b370010dd2100f6
:10710c0004c4b30010406200401b32009000200009
:10711c000eda0200000000003c1b3700a1622100c7
:10712c00a0c6b300914f100009003a00c3ed220035
:10713c00134090000004e0000500320071c0b30061
:10714c00100d230001487800924198002f1b370046
:10715c0000ee220000e09000e14f400004003a00f5
:10716c00900c20000eda020000000000271b3700f4
:10717c00101d21001004e000030032008040eb00e1
:10718c00a062210021d8980020e02100204190002d
:10719c000280fb000100200025032000850f500019
:1071ac00e08f580070023e00006001003200370092
:1071bc004f003700ab003700aa003700a90037009a
:1071cc00a8003700a7003700a6003700a50037003d
:1071dc00b0003700c2003700cc003700da003700af
:1071ec00e8003700fb0037000501370013013700ba
:1071fc0021013700340137003e0137004c013700c4
:10720c005a0137006d0137007701370085013700cf
:10721c00930137009201370091013700900137003c
:10722c008f0137008e0137008d0137008c0137003c
:10723c0092013700b1013700ba013700d301370092
:10724c00140237001a0237003002370036023700ba
:10725c003502370034023700330237003202370070
:10726c0031023700300237002f0237002e02370070
:10727c002d023700300237000041eb0080f5210071
:10728c002268980011c0b3006011210001487800f9
:10729c0040f92100024878008000eb00b1fa880028
:1072ac00c00c23000148780020f921000248780026
:1072bc00a015210002487800c18a8800a162210033
:1072cc0010c8b300b0e09900c2e09900d2e0990078
:1072dc00e2e09900f2e0990060c0b30080e8990008
:1072ec0021c3b30020e0210021409800c71a3700c9
:1072fc0034e60200000000000004e00054003200fc
:10730c00b0f680006020b2000e0032005086810082
:10731c000000e0000b003a0030c1b30034e302007f
:10732c000000000021c0b30040ed21001140980086
:10733c0011c0b30000ee2200414099001000200063
:10734c0050868900b0f68000800078000108b200f9
:10735c000d00320058868100e10f54000a003a00fb
:10736c000840780034e302000000000040ed2100ea
:10737c001840980000ee22004840990020002000a0
:10738c0050868900a11a37000088a3001000320033
:10739c0050868100e10f50000d003a008040eb0058
:1073ac0000ee2200414099000000eb00508689005d
:1073bc00003820006ed802000000000021e02100ff
:1073cc002140900067404000a04098008f1a370081
:1073dc0002ee220042409100e14f40000f003a00c3
:1073ec0050868100e10f50000c003a000040eb0089
:1073fc00404199000000eb005086890000382000c5
:10740c006ed802000000000021e021002140900015
:10741c0067404000a04098007c1a37000100e00053
:10742c007a1a3a0050868100e20f5000771a3a001f
:10743c0000ee2200414099005186890021e0210094
:10744c002140900067404000a04098006f1a370020
:10745c0021e021002140900067404000a0409800ae
:10746c006a1a370040ed210060609000e14f500037
:10747c0003003600003820006ed802000000000027
:10748c0021e02100214090000040e800a04098003d
:10749c005e1a370071c0b3000040eb00488d02004b
:1074ac00000000000004e0000900320071c0b300cd
:1074bc000040eb00e09e02000000000021e02100f3
:1074cc00214090000040e800a04098004f1a37007f
:1074dc0071c0b300609e0200000000004b1a370020
:1074ec0071c0b3000040eb00f09f020000000000f0
:1074fc000004e000451a320021e0210021409000f8
:10750c000040e800a0409800401a370071c0b3005a
:10751c000040eb00d88c0200000000000004e000ea
:10752c003a1a320071c0b3000040eb003ca00200dc
:10753c000000000021e02100214090000040e80004
:10754c00a0409800311a370071c0b3000040eb0026
:10755c00868d0200000000000004e0002b1a3200af
:10756c0071c0b3000040eb005e9f02000000000001
:10757c0021e02100214090000040e800a04098004c
:10758c00221a3700f1c0b30080c0b300488d02004e
:10759c00000000000004e00009003200f1c0b3005c
:1075ac0080c0b300e09e02000000000021e021003a
:1075bc00214090000040e800a0409800131a3700ca
:1075cc00f1c0b30080c0b300609e02000000000058
:1075dc000e1a3700f1c0b30080c0b300f09f020058
:1075ec00000000000004e000081a320021e0210035
:1075fc00214090000040e800a0409800031a37009a
:10760c00f1c0b30080c0b300d88c020000000000b1
:10761c000004e000fd193200f1c0b30080c0b300db
:10762c003ca002000000000021e02100214090005d
:10763c000040e800a0409800f4193700f1c0b300f6
:10764c0080c0b300868d0200000000000004e00042
:10765c00ee193200f1c0b30080c0b3005e9f02008f
:10766c000000000021e02100214090000040e800d3
:10767c00a0409800e519370071c1b30000c1b300f8
:10768c00488d0200000000000004e00009003200f8
:10769c0071c1b30000c1b300e09e02000000000005
:1076ac0021e02100214090000040e800a04098001b
:1076bc00d619370071c1b30000c1b300609e02003f
:1076cc0000000000d119370071c1b30000c1b30034
:1076dc00f09f0200000000000004e000cb19320013
:1076ec0021e02100214090000040e800a0409800db
:1076fc00c619370071c1b30000c1b300d88c0200a9
:10770c00000000000004e000c019320071c1b30099
:10771c0000c1b3003ca002000000000021e02100e9
:10772c00214090000040e800a0409800b7193700b5
:10773c0071c1b30000c1b300868d020000000000cf
:10774c000004e000b119320071c1b30000c1b300f4
:10775c005e9f02000000000021e02100214090000b
:10776c000040e800a0409800a8193700f1c1b30010
:10777c0080c1b300488d0200000000000004e0004e
:10778c0009003200f1c1b30080c1b300e09e0200d9
:10779c000000000021e02100214090000040e800a2
:1077ac00a040980099193700f1c1b30080c1b30013
:1077bc00609e02000000000094193700f1c1b30074
:1077cc0080c1b300f09f0200000000000004e00044
:1077dc008e19320021e02100214090000040e80089
:1077ec00a040980089193700f1c1b30080c1b300e3
:1077fc00d88c0200000000000004e0008319320065
:10780c00f1c1b30080c1b3003ca002000000000035
:10781c0021e02100214090000040e800a0409800a9
:10782c007a193700f1c1b30080c1b300868d020014
:10783c00000000000004e00074193200f1c1b30034
:10784c0080c1b3005e9f02000000000021e0210017
:10785c00214090000040e800a04098006b193700d0
:10786c0011c0b30040162100014878008240e800a6
:10787c0020e021002140980064193700800220008c
:10788c0086ca0200000000000000e00004003a007c
:10789c0020e4210011c0b30090cf100012003a0078
:1078ac0030fd80000048a30004003200a0622100db
:1078bc0020d890000004e0000b003a0010c0b30088
:1078cc0092dc02000000000001c8b30060f9210046
:1078dc007148980021e02100214090000040e80010
:1078ec00a04098004919370021e021002140900068
:1078fc0063404000a04098004419370030fd8000e0
:10790c000008a3004119320008df0200000000004b
:10791c0021e02100214090000040e800a0409800a8
:10792c003a19370084df0200000000000000e0007c
:10793c0007003a0030fd8000010c2e0001006000b1
:10794c0003003a0040fd8000630060002f193200f4
:10795c0010ff22000048eb00a062210020d890000c
:10796c0029e02100e14f500004003a00294090002a
:10797c006f404000a0449800241937002940900023
:10798c000040e800a0449800201937000000eb00ec
:10799c00b0fa880022ff220092407800e1cf50001c
:1079ac0006003a0020c0b300004978008015200082
:1079bc000eda0200000000001419370070112100cb
:1079cc001004e0000a003a00e3cf500008003a002f
:1079dc00a062210020d890000004e00004003a00ce
:1079ec0061c2b30020e02100214098000719370044
:1079fc00bcd30200000000000004e0001b003200b9
:107a0c0031c0b30020ff2200014878007011210022
:107a1c000048eb0080f52100305090000004e0009d
:107a2c0003003a00108e80000008a30003003a0007
:107a3c00108e80000008a30008003a000040eb0004
:107a4c0026d102000000000021e02100214090001e
:107a5c000040e800a0409800ec183700901520007a
:107a6c000eda020000000000e81837006000b800d1
:107a7c0070fb880081fb880090fb8800a1fb8800cc
:107a8c0021e02100214090006e404000a040980071
:107a9c00de183700e0f821001004e000db183a0093
:107aac0021c3b30020e0210021409800d7183700f3
:107abc0029e02100bcd30200000000000004e0001b
:107acc0009003200701121000048eb0020c0b30007
:107adc0026d1020000000000294090000040e80080
:107aec00a0449800c91837006000b80070fb8800eb
:107afc0081fb880090fb8800a1fb88002940900046
:107b0c006c404000a0449800c0183700e0f82100f9
:107b1c001004e000bd183a0081c2b30020e021003f
:107b2c0021409800b91837008240e80020e021007d
:107b3c0021409800b518370010c0b30001e82100af
:107b4c0080c89800d2e902000000000071c0b300a8
:107b5c000004e00001003a0041c0b300100d230006
:107b6c0001487800a9183700ffff37008040eb0070
:107b7c0000ee220001e09800a41837001900200044
:107b8c00a986890020e02100104490000804e00040
:107b9c0003003200e14f54009c183a000d003700ee
:107bac00000d230009487800e08802000000000066
:107bbc0000ee220049c8980034e6020000000000e4
:107bcc000004e000911832003ce6020000000000c6
:107bdc008e18370034e60200000000000004e000bc
:107bec002200320041ed2100b0f680000020b200ee
:107bfc0002003200887898000100370080789800e5
:107c0c0048ed2100b1f6800000802000008060006b
:107c1c0004003200103820000eda020000000000d0
:107c2c007a18370001c8a30005003200107c9800b8
:107c3c00203820000eda0200000000007318370014
:107c4c0034e60200000000000004e00043003200b3
:107c5c0020f8800031f8800002002800820f5000cc
:107c6c00e08f58003d00320028003700b8c90200f0
:107c7c0000000000804078000004e0003a00320070
:107c8c0042ed210021f480000000280000806000fb
:107c9c000200320008799800010037000079980042
:107cac0011f48000004020000081600004003200cc
:107cbc00103820000eda02000000000053183700c4
:107ccc0001b8a3000600320040ed210012789800a4
:107cdc00203820000eda0200000000004b1837009c
:107cec00b8c90200000000000004e0001b003200d4
:107cfc0048ed210020f8800031f8800003002800b6
:107d0c00830f5000e08f580014003200a2002000b6
:107d1c0003002000362d0200000000000001be0010
:107d2c00286090000080fb0001002000800f5100b3
:107d3c00818f590009003600386090000080fb00ec
:107d4c0001002000800f5100818f590003003e007c
:107d5c0010c0b300107c9800060037008040eb0088
:107d6c0040ed21000200370040ed21000178980021
:107d7c00117898005e8c0200000000000004e00006
:107d8c0003003200601121001004e00004003200f6
:107d9c006011210014c0b300904f120005003a008e
:107dac0011c0b30060112100014878004497020013
:107dbc000000000010002000cdfa0700c0ed2200ea
:107dcc00104090000004e00010183200a062210066
:107ddc0090407800a0c6b30080cf50005400320011
:107dec0007003e006540500080cf50000b00320071
:107dfc006340400080cf5000b6003a000b003700c3
:107e0c00f0c6b30080cf50005100320040ccb3001c
:107e1c0080cf5000af003a00a60037000000eb0006
:107e2c00b3fa070031c0b3003f00370034e602005c
:107e3c00000000000004e0001100320020f8800077
:107e4c0031f8800005002800850f5000e08f5800a5
:107e5c000b003200a200200003002000362d02008f
:107e6c000000000042ed2100226190000281fb0025
:107e7c0003002000820f5000838f5800150036003d
:107e8c00b8c90200000000000004e0001500320038
:107e9c0020f8800031f8800002002800820f50008a
:107eac00e08f58000f003200a200200003002000d9
:107ebc00362d02000000000042ed210022619000ee
:107ecc000281fb0003002000820f5000838f5800ba
:107edc0004003e00303820006ed802000000000084
:107eec007c0037000000eb0081fa0700bcd30200d5
:107efc00000000000004e0000a00320080f52100c0
:107f0c00305090000004e00003003200108e80001e
:107f1c000008a30003003a00108e80000008a300a4
:107f2c006c003a0051c0b300100d230068003700fc
:107f3c000000eb006efa070070c0b300110d2300b7
:107f4c008048780000ff22000048eb0061003700f9
:107f5c000000eb0066fa0700bcd302000000000032
:107f6c000004e0005b00320022fb800033fb800049
:107f7c00e10f4100e08f490003003a0000002000af
:107f8c0001f8240034003700e00f5100e08f590055
:107f9c00040035000200be00562d02000000000057
:107fac000b00370061006100010020008301d1004b
:107fbc000281d3000200700083807000562d0200f5
:107fcc00000000000001be00ae2d02000000000009
:107fdc0002002400c3612400682e0200000000008f
:107fec000004be00028c8100138c8100e00f510054
:107ffc00e08f5900040035000200be00562d02002f
:10800c00000000000c003700008c81006100600053
:10801c00010020008301d1000281d3000200700016
:10802c0083807000562d0200000000000001be008d
:10803c00ae2d0200000000000001be000800be00d2
:10804c00ec2e02000000000002002400c36124009a
:10805c00682e020000000000542f020000000000f7
:10806c000100200072fb800083fb8000800f510018
:10807c00818f59000a003d0080f52100305090009e
:10808c000004e00003003200108e80000008a30002
:10809c0003003a00108e80000008a3000d003a0087
:1080ac0081c0b300100d23000148780041c0b3001b
:1080bc00060037000000eb000dfa0700b1c0b3005a
:1080cc00100d23000148780071c0b300d00c2300c0
:1080dc0001487800a062210010417800a3c6b300cb
:1080ec0003404100f94f50000a003e00a0cab30003
:1080fc00804f510003003a0011c0b30000ff220072
:10810c000148780071c0b300100d230001487800bd
:10811c003e17370040c9b3000040410081c5b30091
:10812c00814f50000a003e00f0c6b300804f510052
:10813c00070032006a404000804f510004003200ba
:10814c0071c0b300100d2300014878002f173700c1
:10815c008040eb00c0ed2200114098002b17370037
:10816c0018002000a886890020e021001043900010
:10817c000604e00003003200e14f530023173a00dd
:10818c002b003700000d2300064878000afa070080
:10819c0000ee220048709800328e8000438e8000e2
:1081ac003280890043808900508e8000618e80006f
:1081bc00e00f5000e08f5800030032000080eb000d
:1081cc009087890004003700208e8000e10f50005a
:1081dc0001003a009287890018c0b30000ee22001b
:1081ec00087898006000b800508089006180890090
:1081fc00a8a202000000000034e60200000000000b
:10820c000004e000020032003ce602000000000026
:10821c0041ed2100b0f680000020b20002003200d7
:10822c0088789800f916370080789800f716370090
:10823c0007ee220047709000e14f400002003a0028
:10824c00a00c20001100370007789000e14f40008f
:10825c001e003a0050808100618081006102400064
:10826c00e082480054808900658089000040eb0062
:10827c00807b9800528e8000638e8000e00f51004e
:10828c00e08f590004003a00b00c20006ed80200b8
:10829c00000000000d003700820f5200838f5a003f
:1082ac00090039003080810041808100e00f5000ce
:1082bc00e08f5800f4ff3200908789006000b8000e
:1082cc003080890041808900867b980029e021005c
:1082dc00a9409000e4cf50000203320008003e0099
:1082ec00e1cf5000bc0132000d003900e2cf50004c
:1082fc0069023200e3cf5000c4163a00ef02370097
:10830c00e6cf500004033200fa023900e7cf5000e8
:10831c0007033200e8cf5000bc163a000d033700bb
:10832c00bcd30200000000000004e000a6013200f3
:10833c0081f52100216c90000804e0008a013a00cc
:10834c00d00c230044c0b300904f120014013a002b
:10835c0010c0b300f0589800e0f8210020409000c5
:10836c000004e000a300320022fb800033fb8000fd
:10837c00e10f4100e08f490003003a000a002000a1
:10838c000bf8240035003700e00f5100e08f590046
:10839c00040035000200be00562d02000000000053
:1083ac000b00370061006100010020008301d10047
:1083bc000281d3000200700083807000562d0200f1
:1083cc00000000000001be00ae2d02000000000005
:1083dc0002002400c3612400682e0200000000008b
:1083ec000004be00028c8100138c8100e00f510050
:1083fc00e08f5900040035000200be00562d02002b
:10840c00000000000c003700008c8100610060004f
:10841c00010020008301d1000281d3000200700012
:10842c0083807000562d0200000000000001be0089
:10843c00ae2d0200000000000001be000800be00ce
:10844c00ec2e02000000000002002400c361240096
:10845c00682e0200000000000005be00e2e90200e8
:10846c00000000000004e000110032000a00be0011
:10847c00542f0200000000000100200072fb80005d
:10848c0083fb8000800f5100818f590008003d0054
:10849c0011c0b30000ee22000140990021e0210040
:1084ac002140900065404000a040980057163700ce
:1084bc0078fb800089fb80000a00be00542f02006c
:1084cc00000000000001be0001002000800f5400dd
:1084dc00818f5c001900340020fb800031fb800090
:1084ec00e10f4000e08f48000300320011c0b300e0
:1084fc00020078000a00370090fb8000a1fb80008e
:10850c00e00f5000e08f5800030034004006b0002c
:10851c0011c0b3000200370011c0b300007122007b
:10852c00c4d302000000000021e021002140900093
:10853c0063404000a040980034163700800f540070
:10854c00818f5c0008003a0011c0b30000ee2200dd
:10855c000140990021e0210021409000654040003d
:10856c00a040980029163700c0fb8000d1fb80008a
:10857c00e00f5000e08f58000d003a0020fb800007
:10858c0031fb8000e10f4000e08f48000d003a0005
:10859c0090fb8000a1fb8000e00f5000e08f5800a2
:1085ac000b0034004006b0008040eb000a0037009e
:1085bc0092fb8000a3fb8000e00f5100e08f59007c
:1085cc00030034008040eb0002007800020037000a
:1085dc008040eb0000712200c4d3020000000000b8
:1085ec0021e021002140900063404000a040980011
:1085fc0006163700bcd30200000000000004e000a7
:10860c006300320022fb800033fb8000e10f41004d
:10861c00e08f490055003200e00f5100e08f590007
:10862c00040035000200be00562d020000000000c0
:10863c000b00370061006100010020008301d100b4
:10864c000281d3000200700083807000562d02005e
:10865c00000000000001be00ae2d02000000000072
:10866c0002002400c3612400682e020000000000f8
:10867c000004be00028c8100138c8100e00f5100bd
:10868c00e08f5900040035000200be00562d020098
:10869c00000000000c003700008c810061006000bd
:1086ac00010020008301d1000281d3000200700080
:1086bc0083807000562d0200000000000001be00f7
:1086cc00ae2d0200000000000001be000800be003c
:1086dc00ec2e02000000000002002400c361240004
:1086ec00682e0200000000000004be007afb80002f
:1086fc008bfb80008a2f020000000000800f5500c9
:10870c00818f5d0006003d000800be00542f020062
:10871c00000000000001be008040eb00110037009b
:10872c000800be00542f0200000000000001be0033
:10873c0001002000800f5500818f5d0008003a0079
:10874c0011c0b30000ee22000140990021e021008d
:10875c002140900065404000a0409800ab153700c8
:10876c0011c0b30002007800020037008840780086
:10877c0000712200c4d302000000000021e021009f
:10878c002140900063404000a04098009f153700a6
:10879c002940900064404000a04498009b1537008d
:1087ac00f858980022fb800033fb8000e00f51004a
:1087bc00e08f5900040035000200be00562d020067
:1087cc00000000000b003700610061000100200078
:1087dc008301d1000281d3000200700083807000fd
:1087ec00562d0200000000000001be00ae2d02005c
:1087fc000000000002002400c3612400682e020067
:10880c00000000000004be00028c8100138c81006b
:10881c00e00f5100e08f5900040035000200be004b
:10882c00562d0200000000000c003700008c810067
:10883c0061006000010020008301d1000281d3009f
:10884c000200700083807000562d020000000000b2
:10885c000001be00ae2d0200000000000001be00b1
:10886c000800be00ec2e02000000000002002400f4
:10887c00c3612400682e0200000000000004be004a
:10888c0080f52100005590000a04e0000a003a002f
:10889c0070fb800081fb8000562d02000000000060
:1088ac000001be000800be00ae2d0200000000005a
:1088bc000004be000e00370070fb800081fb8000be
:1088cc00562d0200000000000801be00ac2d020075
:1088dc00000000000004be006011b800cc2f0200a4
:1088ec00000000000000e00001003d006044b80002
:1088fc000800be00542f0200000000000002be0061
:10890c006101b80070fb800081fb8000800f51007a
:10891c00818f59000c00320011c0b3000a04e00032
:10892c0001003a008a40780004007800c4d30200a9
:10893c000000000021e02100214090006340400035
:10894c00a04098003115370011c0b30000ee220092
:10895c000140990021e02100214090006540400039
:10896c00a040980029153700d0c0b30092dc02005b
:10897c000000000041c0b30060f92100714898006c
:10898c000001eb00d2fc8800c0122000e0fc880043
:10899c0011c0b30040f9210001487800b2fa8800f8
:1089ac00c00c23000248780020f92100024878000e
:1089bc0030f9210002487800294090000040e8007e
:1089cc00a0449800111537002940900064404000e5
:1089dc00a04498000d15370030fd80006c0060003d
:1089ec000a15320080f521007158980040f92100d9
:1089fc000048eb0022fb800033fb8000e10f4100bc
:108a0c00e08f490003003a000a0020000bf8240014
:108a1c0035003700e00f5100e08f5900040035009d
:108a2c000200be00562d0200000000000b003700b3
:108a3c0061006100010020008301d1000281d3009c
:108a4c000200700083807000562d020000000000b0
:108a5c000001be00ae2d0200000000000200240048
:108a6c00c3612400682e0200000000000004be0058
:108a7c00028c8100138c8100e00f5100e08f5900b3
:108a8c00040035000200be00562d0200000000005c
:108a9c000c003700008c8100610060000100200098
:108aac008301d1000281d30002007000838070002a
:108abc00562d0200000000000001be00ae2d020089
:108acc00000000000001be000800be00ec2e0200f9
:108adc000000000002002400c3612400682e020084
:108aec00000000000005be00e2e9020000000000ea
:108afc000004e0000e0032000a00be00542f0200f9
:108b0c00000000000100200072fb800083fb80004d
:108b1c00800f5100818f590005003d0021e021009c
:108b2c00214090000040e800a0409800b7143700a6
:108b3c0078fb800089fb80000a00be00542f0200e5
:108b4c00000000000001be0001002000800f540056
:108b5c00818f5c001e00340014002000b4fa8800e1
:108b6c0020fb800031fb8000e10f4000e08f4800cb
:108b7c000300320084407800020078000a003700bd
:108b8c0090fb8000a1fb8000e00f5000e08f5800ac
:108b9c00030034004006b000844078000200370027
:108bac008440780000712200c4d302000000000051
:108bbc0011c0b30030f921000148780021e02100f8
:108bcc00214090000040e800a04098008f1437002e
:108bdc00800f5400818f5c0005003a0021e02100d9
:108bec00214090000040e800a04098008714370016
:108bfc00c0fb8000d1fb8000e00f5000e08f5800dc
:108c0c000f003a0010002000b0fa880020fb800012
:108c1c0031fb8000e10f4000e08f48000f003a006c
:108c2c0090fb8000a1fb8000e00f5000e08f58000b
:108c3c000d0034004006b0008040eb000c00370003
:108c4c0010002000b0fa880092fb8000a3fb80008b
:108c5c00e00f5100e08f5900030034008040eb001e
:108c6c0002007800020037008040eb000071220007
:108c7c00c4d302000000000011c0b30030f9210081
:108c8c000148780021e02100214090000040e800dc
:108c9c00a04098005d143700a36221009340780037
:108cac0080c6b30080cf500023003a00c2ed2200f2
:108cbc00124090000004e0003e00320020f9210038
:108ccc00904078000104e00016003a001141980031
:108cdc0073d19000e14f510003003a00348f020031
:108cec00000000000b00370002c0e900e14f50000b
:108cfc0002003e0040012000040037006440510097
:108d0c00e14f500003003e00200320000a870200c0
:108d1c000000000011c0b30020f9210001487800c8
:108d2c0024003700e1cf500037003a000040eb0040
:108d3c00104198001f003700b0c6b30080cf500020
:108d4c001c003a00c1ed2200114090000004e0002c
:108d5c001800320020f921001004e00015003a0040
:108d6c0030fd80000038a30012003200e0f8210032
:108d7c001004e0000f003a000040eb009040980017
:108d8c00d0c0b30092dc02000000000081c0b30030
:108d9c0060f9210071489800a0e62000d0fc880002
:108dac00c0122000e0fc8800294090006440400084
:108dbc00a044980020f9210015c0b30090cf1200f8
:108dcc0011003a001e8c0200000000000004e000bc
:108ddc0006003200c10c23001104e00003003a002d
:108dec0010c0b3008048780004003700c00c23008a
:108dfc0011c0b30090cf100003003a000040eb000c
:108e0c00589a020000000000e0f8210010417800a0
:108e1c000204e00004003a008000eb00b1fa880084
:108e2c0030f921000148780030fd80000038a300a3
:108e3c00f61332000204e000f4133a00c00c2300d5
:108e4c0013c0b30090cf1100f0133a00a1622100bf
:108e5c00b0c6b300914f100014003a00c1ed2200cf
:108e6c00114090000004e000100032009240980085
:108e7c00d0c0b30092dc02000000000081c0b3003f
:108e8c0060f9210071489800a0e62000d0fc880011
:108e9c00c0122000e0fc880021e02100214090005d
:108eac0064404000a0409800d813370051c0b30074
:108ebc00100d230001487800d4133700e0f821008e
:108ecc001004e000d1133a000000eb00b0fa880067
:108edc0031f921008048780040c0b300a0449800cc
:108eec00ca133700d10c2300100d23001148780051
:108efc00c613370001ee220001409100e14f400003
:108f0c00c2133a000040eb008040990040c0b3000f
:108f1c00a0449800bd13370030fd80000048a3002a
:108f2c00ba13320070c0b300a0449800b7133700d6
:108f3c0030fd80000028a300b4133a00a2a0020068
:108f4c0000000000294090000040e800a044980078
:108f5c00ae133700688e0200000000000004e00031
:108f6c00aa133200d10c2300100d230011487800f5
:108f7c00a613370011002000a186890022e02100f1
:108f8c0012409000e14f50005e00320003003900a7
:108f9c00e24f50009d133a0028063700000d2300c5
:108fac000048eb000103890080f52100206c900043
:108fbc000804e0001d003a007ff60700a0622100c3
:108fcc00f0d09000e1cf500003003a00348f020043
:108fdc00000000000d00370001c0e900e14f500017
:108fec0003003e0088407800400120000500370057
:108ffc0064c05000e14f500004003e0088407800ef
:10900c00200320000a87020000000000c00c23008f
:10901c000048eb0040f921000048eb0030f921003a
:10902c000048eb000000eb00c08a880011c0b300c0
:10903c0000ee220041709800328e8000438e80003a
:10904c003280890043808900508e8000618e8000c0
:10905c00e00f5000e08f58000300320000a62e00f5
:10906c009087890004003700208e8000e10f5000ab
:10907c0001003a009287890018c0b30000ee22006c
:10908c00087898006000b8005080890061808900e1
:10909c00a8a202000000000034e60200000000005c
:1090ac000004e0000a0032003ce602000000000070
:1090bc0041ed2100b0f680000020b2000200320029
:1090cc008878980051133700807898004f13370038
:1090dc00b8c90200000000000004e0004b1332008d
:1090ec0042ed210021f48000000028000080600087
:1090fc000200320008799800441337000079980078
:10910c0042133700a162210090c7b300914f1000a9
:10911c0009003a00c1ed2200114090000004e0006b
:10912c000500320022409000f34f50000200320044
:10913c000040eb009040980006ee22004670900034
:10914c00e14f400004003a00a00c20006ed8020051
:10915c00000000002d13370006789000e14f40000e
:10916c0027003a005080810061808100610240003c
:10917c00e082480054808900658089000040eb0043
:10918c00007b9800528e8000638e8000e00f5100af
:10919c00e08f590004003a00b00c20006ed8020099
:1091ac000000000019133700820f5200838f5a0001
:1091bc00100039003080810041808100e00f5000a8
:1091cc00e08f580004003a00b00c20006ed802006a
:1091dc00000000000d133700908789006000b80074
:1091ec00308089004180890010c0b300007b98005a
:1091fc000613370010c0b300007b98000313370030
:10920c00988e0200000000000004e000ff12320003
:10921c0020e02100204090000081fb000300200092
:10922c0094022000840f5100e08f5900f7123e0089
:10923c000260010029003700f30037001f013700de
:10924c0037013700360137004a0137005e0137001d
:10925c006f013700ac013700fe0137004d023700bb
:10926c009502370098033700ec033700fb033700f7
:10927c004c043700550437005a0437006c0437008f
:10928c007c043700d9043700150537005105370029
:10929c00500537004f0537004e0537004d05370098
:1092ac004c0537004b0537004a0537004905370098
:1092bc004805370047053700460537004505370098
:1092cc004405370043053700420537004105370098
:1092dc0040053700430537004f053700bcd302006b
:1092ec00000000000004e00013003a00e2e9020074
:1092fc00000000000004e000c4123200d0c0b30033
:10930c0092dc02000000000041c0b30060f92100b3
:10931c00714898000000eb00d0fc8800c0122000bf
:10932c00e0fc880021e021002140900064404000d6
:10933c00a0409800b51237008af5210028fc800067
:10934c000800e00064003a002a6890000004e00085
:10935c0012003a00e2e90200000000000004e00004
:10936c00aa123200d0c0b30092dc02000000000050
:10937c0041c0b30060f9210071489800d8fc880006
:10938c00c0122000e0fc880021e021002140900068
:10939c0064404000a04098009c12370008407800c0
:1093ac00589a020000000000a06221009040780052
:1093bc0050c7b30080cf5000030032006d40500006
:1093cc0080cf500025003a00c2ed220012409000e0
:1093dc000004e0002100320018419800286d98002c
:1093ec00e2e90200000000000004e0000500320089
:1093fc0021e021002140900068404000a0409800ee
:10940c008212370029e0210010ff22001004e00036
:10941c000e003a00d0c0b30092dc02000000000045
:10942c0081c0b30060f9210071489800a0e62000cb
:10943c00d0fc8800c0122000e0fc8800294090007d
:10944c006c404000a04498007012370029409000f6
:10945c006e404000a04498006c123700b0c6b300b8
:10946c0080cf500069123a00c1ed220011409000eb
:10947c000004e000651232000040eb0090409800c0
:10948c0029e0210010ff22001004e0000e003a0039
:10949c00d0c0b30092dc02000000000081c0b30019
:1094ac0060f9210071489800a0e62000d0fc8800eb
:1094bc00c0122000e0fc8800294090006c40400065
:1094cc00a044980051123700294090006e40400093
:1094dc00a04498004d1237008004eb00b9fa8800c4
:1094ec00e0f8210018c0b3002840980038409800dc
:1094fc00785d98000080eb008080eb0020fb8800fa
:10950c0031fb880070fb800081fb8000e20f400083
:10951c00e08f580025003c003a5090000004e00019
:10952c0003003200108e80000008a30003003a00f4
:10953c00108e80000008a30034123a001e8c02002a
:10954c00000000000004e0000600320011c0b3006f
:10955c00c00c2300014878000040eb00589a020030
:10956c0000000000d0c0b30092dc0200000000003c
:10957c0041c0b30060f92100714898000000eb0075
:10958c00d0fc8800c0122000e0fc880011c0b300a1
:10959c0040f921000148780021e021002140900091
:1095ac000040e800a0409800181237001e8c020002
:1095bc00000000000004e00005003200c00c230095
:1095cc000848780009407800589a02000000000012
:1095dc00d0c0b30092dc02000000000041c0b30018
:1095ec0060f9210071489800d9fc8800c012200055
:1095fc00e0fc880021e02100214090000040e800c0
:10960c00a04098000112370030fd80000028a30014
:10961c00fe11320040f921000048eb0070fb800085
:10962c0081fb8000e20f4000e08f580011003c00ed
:10963c0010002000b0fa880090fb8000a1fb800095
:10964c00e00f5000e08f5800030034004006b000db
:10965c008040eb00020037008040eb0000712200dc
:10966c00c4d302000000000011c0b30030f9210087
:10967c0001487800c80c230015c0b30098cf120025
:10968c00060032001e8c0200000000000004e00006
:10969c000500320010c0b300004c78000040eb0015
:1096ac00589a02000000000021e0210021409000a7
:1096bc000040e800a0409800d4113700c80c2300eb
:1096cc0010c0b300984f1000060032001e8c020030
:1096dc00000000000004e0000500320010c0b300e0
:1096ec00004c78000040eb00589a0200000000008b
:1096fc00e0f821001004e000c4113a008000eb00f7
:10970c00b1fa880030f921000148780021e02100ed
:10971c00214090000040e800a0409800bb113700a9
:10972c00c80c230011c0b30098cf10000600320003
:10973c001e8c0200000000000004e0000500320056
:10974c0010c0b300004c78000040eb00589a0200a7
:10975c000000000030fd80000038a300ab11320087
:10976c0021e02100214090000040e800a04098003a
:10977c00a6113700c80c230012c0b300984f11007b
:10978c00060032001e8c0200000000000004e00005
:10979c000500320010c0b300004c78000040eb0014
:1097ac00589a02000000000030fd80000028a30041
:1097bc0096113a0021e02100214090000040e80081
:1097cc00a040980091113700c80c230013c0b300bf
:1097dc0098cf110004003a0071c0b30020e02100c2
:1097ec00214098000a0037001e8c02000000000087
:1097fc000004e0000600320010c0b300004c7800fa
:10980c0021e02100214090000040e800a040980099
:10981c000040eb00589a020000000000128b02007e
:10982c00000000000004e000781132001e8c0200e1
:10983c00000000000004e00074113200e0f8210088
:10984c00304090000004e0001d00320080f5210043
:10985c00305090000004e00019003a00108e800097
:10986c000008a3001600320029e0210010ff22009e
:10987c001004e0000e003a00d0c0b30092dc0200ed
:10988c000000000081c0b30060f92100714898000d
:10989c00a0e62000d0fc8800c0122000e0fc88006c
:1098ac002940900065404000a044980057113700b3
:1098bc002940900067404000a044980053113700a5
:1098cc00e0f82100204090000004e0000900320084
:1098dc00e2e90200000000000004e0004b1132003d
:1098ec0021e02100214090000040e800a0409800b9
:1098fc004611370021e02100214090000040e80093
:10990c00a0409800411137000040eb00589a02002b
:10991c0000000000128b0200000000000004e000b8
:10992c000b0032001e8c0200000000000004e0005e
:10993c000700320010002000c08a880021e02100be
:10994c00214090000040e800a04098002f11370003
:10995c0000038100e10f50002c113600a0622100a1
:10996c0030f091000004e00014003a00e2e902003b
:10997c00000000000004e00010003a0040ed21005f
:10998c00e0609000e1cf500009003a00a0152100e2
:10999c00014878002ea102000000000021e0210007
:1099ac00214090001042b000a040980017113700e1
:1099bc00f03720006ed8020000000000dae9020047
:1099cc00000000000004e0000d00320040ed21001a
:1099dc00e0609000e1cf500009003a00a015210092
:1099ec00014878002ea102000000000021e02100b7
:1099fc00214090001042b000a040980003113700a5
:109a0c00a1622100b0c6b300914f1000ff103a00c4
:109a1c00c0ed2200104090000004e000fb1032006a
:109a2c0040ed2100e0609000e1cf5000f7103a00cb
:109a3c00a0152100014878002ea1020000000000b2
:109a4c0021e02100214090001042b000a04098007d
:109a5c00ee10370001ee220041709000e24f5000f2
:109a6c0002003a000040eb00c070980010c0b30038
:109a7c00589a0200000000006689020000000000f5
:109a8c000004e0000500320021e02100214090009c
:109a9c000040e800a0409800dc103700a0622100d4
:109aac0030f091000004e00014003a00e2e90200fa
:109abc00000000000004e00010003a0040ed21001e
:109acc00e0609000e1cf500009003a00a0152100a1
:109adc00014878002ea102000000000021e02100c6
:109aec00214090000042b000a0409800c710370001
:109afc00f03720006ed8020000000000dae9020006
:109b0c00000000000004e0000d00320040ed2100d8
:109b1c00e0609000e1cf500009003a00a015210050
:109b2c00014878002ea102000000000021e0210075
:109b3c00214090000042b000a0409800b3103700c4
:109b4c00a1622100b0c6b300914f1000af103a00d3
:109b5c00c0ed2200104090000004e000ab10320079
:109b6c0040ed2100e0609000e1cf5000a7103a00da
:109b7c00a0152100014878002ea102000000000071
:109b8c0021e02100214090000042b000a04098004c
:109b9c009e103700de8b0200000000000004e00085
:109bac0007003200a2a002000000000021e021000a
:109bbc00214090000040e800a0409800931037002e
:109bcc00a062210030f091000004e00014003a0083
:109bdc00e2e90200000000000004e00010003a007e
:109bec0040ed2100e0609000e1cf500009003a0008
:109bfc00a0152100014878002ea1020000000000f1
:109c0c0021e02100214090007f404000a0409800be
:109c1c007e103700f03720006ed8020000000000e4
:109c2c00dae90200000000000004e0000d00320040
:109c3c0040ed2100e0609000e1cf500009003a00b7
:109c4c00a0152100014878002ea1020000000000a0
:109c5c0021e02100214090007f404000a04098006e
:109c6c006a103700a1622100b0c6b300914f1000fa
:109c7c0066103a00c0ed2200104090000004e00095
:109c8c006210320040ed2100e0609000e1cf500006
:109c9c005e103a00a0152100014878002ea10200a8
:109cac000000000021e02100214090007f40400096
:109cbc00a0409800551037001e8c020000000000d8
:109ccc000004e00004003a00a062210070d0900073
:109cdc00e14f500003003a00a01521001004e000f1
:109cec00080032001e8c0200000000000004e0009e
:109cfc0046103200a015210014c0b300904f120082
:109d0c0042103a000001eb00c28a8800a015210025
:109d1c0015c0b30090cf120009003a006011210069
:109d2c000548780000ee220005409a0021e0210051
:109d3c002140900068404000a0409800331037004c
:109d4c00a062210070d09000e14f500018003a0042
:109d5c00601121000248780029e0210010ff220048
:109d6c001004e0000e003a00d0c0b30092dc0200f8
:109d7c000000000081c0b30060f921007148980018
:109d8c00a0e62000d0fc8800c0122000e0fc880077
:109d9c00294090000040e800a04498001b103700b8
:109dac002940900063404000a044980017103700f1
:109dbc00e34f500028003a0011c0b300601121009d
:109dcc000148780008038100e10f54000c003a00b0
:109ddc0088407800000520000a870200000000007f
:109dec00c88a8800200020000003890021e021009f
:109dfc002140900063405000a040980003103700b1
:109e0c0029e0210010ff22001004e0000e003a00af
:109e1c00d0c0b30092dc02000000000081c0b3008f
:109e2c0060f9210071489800a0e62000d0fc880061
:109e3c00c0122000e0fc8800294090000040e8009f
:109e4c00a0449800f10f3700294090006340400077
:109e5c00a0449800ed0f3700e24f500037003a0055
:109e6c0011c0b30060112100014878000803810083
:109e7c00e10f54000c003a00884078000200780092
:109e8c000a87020000000000c88a88002000200019
:109e9c000003890021e02100214090006340500024
:109eac00a0409800d90f3700e20f54000d003a0083
:109ebc0082407800000520000a87020000000000a4
:109ecc0010002000c08a88003000200000038900a8
:109edc0021e021002140900063405000a0409800f8
:109eec00ca0f370029e0210010ff22001004e00007
:109efc000e003a00d0c0b30092dc0200000000005b
:109f0c0081c0b30060f9210071489800a0e62000e0
:109f1c00d0fc8800c0122000e0fc88002940900092
:109f2c000040e800a0449800b80f3700294090008a
:109f3c0063404000a0449800b40f3700e44f500039
:109f4c0037003a0011c0b3006011210001487800bd
:109f5c0008038100e10f54000c003a00884078009f
:109f6c00020078000a87020000000000c88a8800fe
:109f7c00200020000003890021e0210021409000f6
:109f8c0063405000a0409800a00f3700e20f54002f
:109f9c000d003a0082407800200320000a8702005e
:109fac000000000010002000c08a88003000200053
:109fbc000003890021e02100214090006340500003
:109fcc00a0409800910f370029e0210010ff2200db
:109fdc001004e0000e003a00d0c0b30092dc020086
:109fec000000000081c0b30060f9210071489800a6
:109ffc00a0e62000d0fc8800c0122000e0fc880005
:10a00c00294090000040e800a04498007f0f3700e2
:10a01c002940900063404000a04498007b0f37001b
:10a02c00e54f5000790f3a0011c0b30060112100c8
:10a03c000148780008038100e10f54000c003a003d
:10a04c0088407800200320000a87020000000000ee
:10a05c00c88a8800200020000003890021e021002c
:10a06c002140900063405000a0409800670f3700db
:10a07c0029e0210010ff22001004e0000e003a003d
:10a08c00d0c0b30092dc02000000000081c0b3001d
:10a09c0060f9210071489800a0e62000d0fc8800ef
:10a0ac00c0122000e0fc8800294090000040e8002d
:10a0bc00a0449800550f37002940900063404000a1
:10a0cc00a0449800510f370010c0b30041f9210093
:10a0dc0080487800bcd30200000000000004e000bf
:10a0ec004600320020fc8000e10f500043003a0093
:10a0fc006000b80020fb880031fb8800228c8100b6
:10a10c00338c8100e00f5100e08f590004003500c2
:10a11c000200be00562d0200000000000b003700ac
:10a12c0061006100010020008301d1000281d30095
:10a13c000200700083807000562d020000000000a9
:10a14c000001be00ae2d0200000000000200240041
:10a15c00c3612400682e0200000000000004be0051
:10a16c00028c8100138c8100e00f5100e08f5900ac
:10a17c00040035000200be00562d02000000000055
:10a18c000c003700008c8100610060000100200091
:10a19c008301d1000281d300020070008380700023
:10a1ac00562d0200000000000001be00ae2d020082
:10a1bc00000000000001be000800be00ec2e0200f2
:10a1cc000000000002002400c3612400682e02007d
:10a1dc0000000000542f0200000000000001be002f
:10a1ec0011c0b30002007800c4d3020000000000cc
:10a1fc0011c0b30030f921000148780030fd800017
:10a20c000048a300010f320021e021002140900002
:10a21c000040e800a0409800fc0e370030fd8000a4
:10a22c000028a300f90e3a0029e02100bcd302005b
:10a23c00000000000004e0000400320029409000ff
:10a24c0000c0e800a0449800f00e370029409000b0
:10a25c0063404000a0449800ec0e3700bcd30200d1
:10a26c00000000000004e0004a00320020fc8000e6
:10a27c00e10f500043003a006000b80020fb88005a
:10a28c0031fb8800228c8100338c8100e00f51005f
:10a29c00e08f5900040035000200be00562d02006c
:10a2ac00000000000b00370061006100010020007d
:10a2bc008301d1000281d300020070008380700002
:10a2cc00562d0200000000000001be00ae2d020061
:10a2dc000000000002002400c3612400682e02006c
:10a2ec00000000000004be00028c8100138c810071
:10a2fc00e00f5100e08f5900040035000200be0051
:10a30c00562d0200000000000c003700008c81006c
:10a31c0061006000010020008301d1000281d300a4
:10a32c000200700083807000562d020000000000b7
:10a33c000001be00ae2d0200000000000001be00b6
:10a34c000800be00ec2e02000000000002002400f9
:10a35c00c3612400682e020000000000542f02008c
:10a36c00000000000001be0011c0b3000200780024
:10a37c00c4d302000000000011c0b30030f921006a
:10a38c000148780021e02100214090000040e800c5
:10a39c000300370021e021002140900000c0e800bc
:10a3ac00a0409800e0f821001004e000970e3a005d
:10a3bc0030f921000048eb0021e021002140900001
:10a3cc000040e800a0409800900e370040f92100b2
:10a3dc000048eb0011c1b30020e02100214098009f
:10a3ec008a0e370080f5210020689000e14f500064
:10a3fc000b003a006011210011c0b30090cf100087
:10a40c0002003a00a2a002000000000021e021009e
:10a41c00214090000040e800a04098007b0e3700df
:10a42c0061c1b30020e0210021409800770e370075
:10a43c006011210012c0b300904f110009003a00c6
:10a44c00688e0200000000000004e0006f0e320075
:10a45c0021e021002140900064404000a040980081
:10a46c006a0e370061c1b30020e021002140980042
:10a47c00660e370002ee220002409200a315210066
:10a48c00e14f40001c003a008040eb0001419a0073
:10a49c00c0ed22001140980081497800a062210093
:10a4ac000168980029e0210010ff22001004e00050
:10a4bc000e003a00d0c0b30092dc02000000000095
:10a4cc0081c0b30060f9210071489800a0e620001b
:10a4dc00d0fc8800c0122000e0fc880029409000cd
:10a4ec0067405000a0449800480e3700e0c0b3000d
:10a4fc00a0449800450e370015c0b30093cf12004e
:10a50c00420e3a00a16221008568980090c7b30002
:10a51c00914f10003d0e3a00c2ed22001240900007
:10a52c000004e000390e3200b01521001040780014
:10a53c000004e00018003a001041980080497800af
:10a54c008068980029e0210010ff22001004e00030
:10a55c000e003a00d0c0b30092dc020000000000f4
:10a56c0081c0b30060f9210071489800a0e620007a
:10a57c00d0fc8800c0122000e0fc8800294090002c
:10a58c0067405000a0449800200e3700e0c0b30094
:10a59c00a04498001d0e3700e14f50001b0e3a00ee
:10a5ac000040eb00806898008049780010419800ca
:10a5bc0090e89900b0e89900c0e89900d0e89900bb
:10a5cc00e0e89900f0e8990080f0990090f099008b
:10a5dc00a0f0990010002000c08a880041c1b3008f
:10a5ec0020e0210021409800080e3700e49c020076
:10a5fc000000000066890200000000000004e0007a
:10a60c000500320021e02100214090000040e800cc
:10a61c00a0409800fd0d3700a062210030f09100a1
:10a62c000004e0000e003a00e2e902000000000025
:10a63c000004e0000a003a0011c0b300a01521008c
:10a64c00014878002ea102000000000021e021004a
:10a65c002140900075404000a0409800eb0d370061
:10a66c00dae90200000000000004e0000a003200f9
:10a67c0011c0b300a0152100014878002ea10200e2
:10a68c000000000021e021002140900075404000b6
:10a69c00a0409800dd0d3700a1622100b0c6b300c8
:10a6ac00914f1000d90d3a00c0ed220010409000df
:10a6bc000004e000d50d320011c0b300a01521003c
:10a6cc00014878002ea102000000000021e02100ca
:10a6dc002140900075404000a0409800cb0d370001
:10a6ec00de8b0200000000000004e00007003200d6
:10a6fc00a2a002000000000021e0210021409000f7
:10a70c006a405000a0409800c00d3700a0622100a4
:10a71c0030f091000004e0000e003a00e2e9020083
:10a72c00000000000004e0000a003a0011c0b30071
:10a73c00a0152100014878002ea1020000000000a5
:10a74c0021e021002140900074404000a04098007e
:10a75c00ae0d3700dae90200000000000004e00052
:10a76c000a00320011c0b300a01521000148780086
:10a77c002ea102000000000021e0210021409000e9
:10a78c0074404000a0409800a00d3700a162210049
:10a79c00b0c6b300914f10009c0d3a00c0ed2200e2
:10a7ac00104090000004e000980d320011c0b3007e
:10a7bc00a0152100014878002ea102000000000025
:10a7cc0021e021002140900074404000a0409800fe
:10a7dc008e0d37008040e80020e0210021409800d9
:10a7ec008a0d3700110d2300d00c2300b2c0b3002a
:10a7fc00904f110002003a0002407800010037002f
:10a80c0040c0b300804878008040eb0000ee22008e
:10a81c00017898007d0d370056a202000000000060
:10a82c00e14f5000790d3a0021e0210021409000c9
:10a83c007e405000a0409800740d37008040eb0023
:10a84c0000ee220001789800700d370030002000d7
:10a85c00a086890028e02100184090000004e00048
:10a86c0003003200e14f5000680d3a001000370031
:10a87c005e8c0200000000000004e00003003200c7
:10a88c00601121001004e00004003200601121006e
:10a89c0013c0b30090cf11005c0d3a0011c0b3008f
:10a8ac00601121000148780043f00700570d370074
:10a8bc000000eb000ef00700284090000081fb0028
:10a8cc0003002000ee0f5100e08f59004a013e00ba
:10a8dc00026001000e003700340037008b00370097
:10a8ec008a0037008900370088003700870037005e
:10a8fc008a003700a7003700ab003700b7003700dd
:10a90c00c5003700d1003700dc003700e30037000a
:10a91c00781121008040eb0080f52100216898001f
:10a92c0040f92100014878000000eb00b0fa8800e3
:10a93c00ecd90200000000000000e0000100320031
:10a94c0010c0b300004c7800c00c23000048eb0092
:10a95c0020f921000048eb006ad80200000000003a
:10a96c00210d2000810f500004003a0021e021004d
:10a97c00214090006d4040000a003700688e0200b4
:10a98c00000000000004e0001c01320011c0b30004
:10a99c0000ee220001e8980021e021002140900007
:10a9ac000040e800a04098001401370001ee22009e
:10a9bc0001e89000e14f400010013a000041eb002b
:10a9cc0082e89800d00c2300b4c0b30021c0b300bf
:10a9dc00904f12004e003a003016210010407800c3
:10a9ec00e14f50001a003a000001eb00728b880016
:10a9fc006000b800a08b8800b18b8800c08b8800e9
:10aa0c00d18b880002047800c9212200080078004c
:10aa1c0086ca0200000000000000e00006003200c0
:10aa2c008840780010c0b300386f020000000000ae
:10aa3c0000c8b300804c78000804e8002904b0007a
:10aa4c0000022000800f540025003200efff370079
:10aa5c00e24f50000c003a006000b800a08b880058
:10aa6c00b18b8800c08b8800d18b880010c0b300dc
:10aa7c0092dc02000000000001c8b30060f9210064
:10aa8c007148980016003700e64f500009003a0054
:10aa9c00601621004248980010c0b30034e3020055
:10aaac000000000081c0b30040ed2100114098006f
:10aabc000b003700e84f500009003a0060162100e7
:10aacc00025898006000b800a08b8800b18b8800f9
:10aadc00c08b8800d18b880018d4020000000000c5
:10aaec0061c2b300d0ff220001487800b1c0b300ae
:10aafc00100d230001487800bcd8020000000000b3
:10ab0c00ecd0020000000000bc0037008040e800e0
:10ab1c0020e0210021409800b8003700800220007e
:10ab2c0086ca0200000000000000e00007003a00a6
:10ab3c0020e421001004e00004003a0021e0210090
:10ab4c00214090006640400096ff370030fd8000a9
:10ab5c00010c2e00010060002b003a0040fd80002b
:10ab6c006300600028003a00d0c0b30092dc020001
:10ab7c000000000081c0b30060f92100714898000a
:10ab8c00a0e62000d0fc8800c0122000e0fc880069
:10ab9c0081ff370030fd800091c0b3000048a30056
:10abac00dbff3a009500370031fd80000128a3003f
:10abbc0002003a00a1c0b300d5ff3700000c2e00f4
:10abcc000080600003003a0040fd800063006000dc
:10abdc008a003200c1c0b300cdff370030fd8000c9
:10abec00010c2e000100600003003a0040fd8000c3
:10abfc006300600004003200e2e902000000000083
:10ac0c000004e00064ff3a0021e0210021409000a4
:10ac1c006340400063ff370030fd80000008a30054
:10ac2c0007003a0010c0b30092dc020000000000e4
:10ac3c0001c8b30060f92100714898006f0037001b
:10ac4c0008df02000000000053ff370084df020021
:10ac5c00000000000000e0004fff3a0030fd8000d3
:10ac6c00010c2e00010060004bff3a0040fd8000fb
:10ac7c00630060006100320047ff3700e08802008b
:10ac8c000000000001ee220010c0b300c0c8980004
:10ac9c000040eb00c0f098003fff370044970200e3
:10acac000000000034e60200000000000004e00098
:10acbc000e0032003ce602000000000034e6020008
:10accc00000000000004e0002c00320048ed2100e0
:10acdc0020f8800031f8800005002800850f500016
:10acec00e08f58002500320010003700b8c9020070
:10acfc0000000000804078000004e00022003200d8
:10ad0c00b8c90200000000000004e0001b00320083
:10ad1c0048ed210020f8800031f880000200280066
:10ad2c00820f5000e08f580014003200a200200067
:10ad3c0003002000362d0200000000000001be00c0
:10ad4c00286090000080fb0001002000800f510063
:10ad5c00818f590009003600386090000080fb009c
:10ad6c0001002000800f5100818f590003003e002c
:10ad7c0010c0b300107c9800060037008040eb0038
:10ad8c0040ed21000200370040ed210001789800d1
:10ad9c0011789800000d23001004e0001700320019
:10adac0040d90200000000000000e0001300320057
:10adbc0001ee220041f090000004e00003003a0094
:10adcc0010c0b300c0f098000c003700e14f4000f9
:10addc000a003a000040eb00c0f0980011c0b3002c
:10adec00101d21000148780031c0b300100d230064
:10adfc000148780001003700ffff37006ad80200d5
:10ae0c000000000071382000810f500008003a004b
:10ae1c0001ee220041489100e14f400004003a004d
:10ae2c000040eb00c0489900000404000000000042
:10ae3c00c0ed2200104090000004e000f30b320043
:10ae4c00a06221001041780050c6b300804f510021
:10ae5c000400320065404000804f510012003a005f
:10ae6c000900370031c0b300100d230001487800f1
:10ae7c00d00c2300b3c0b30090cf11000a003a00ed
:10ae8c00024878000800370071c0b300100d230091
:10ae9c0001487800d00c2300b4c0b300904f1200ce
:10aeac0001003a00014878008040eb00c0ed220020
:10aebc0011409800d50b370010002000a0868900a7
:10aecc0020e02100104190000204e0000300320059
:10aedc00e14f5100cd0b3a0016003700000d230056
:10aeec00024878000000eb0090868900a6880200da
:10aefc00000000005e8c0200000000000004e00076
:10af0c0003003200601121001004e0000400320044
:10af1c006011210015c0b30090cf1200bb0b3a009a
:10af2c0011c0b3006011210001487800a2ee0700a7
:10af3c00b60b370003ee220003f090000004e00093
:10af4c000e003200e14f40000d003a009086810067
:10af5c000000e8009086890071702000810f50007d
:10af6c0006003600101d21000248780031c0b300e5
:10af7c00100d2300014878000100370082f1980081
:10af8c0029e0210029409000e14f50005602320088
:10af9c0003003900e34f50009c0b3e004305370083
:10afac00c0ed2200104090000004e0004902320085
:10afbc00a06221009040780080cbb30080cf50007d
:10afcc0004003a000000eb009086890091c0b300a9
:10afdc003700370050c6b30080cf500004003a0051
:10afec0031c0b300100d2300014878003402370043
:10affc0040c9b30000c04000e14f50001b003600b8
:10b00c00e0c6b30080cf50000f003a008000eb0088
:10b01c0091868900f0dc21000148780061ee8800ff
:10b02c00b0dc210001487800a0dc21000148780048
:10b03c00ecd0020000000000294090000040e80025
:10b04c00a04498001e02370060cbb30080cf5000a4
:10b05c0006003200e0cab30080cf5000030032007b
:10b06c0030cbb30080cf50000b003a008000eb00d7
:10b07c0091868900f0dc21000148780061ee88009f
:10b08c00b0dc210001487800a0dc210001487800e8
:10b09c0010c0b300eaff370040ccb30080cf5000a3
:10b0ac0008003a00d0ff22000048eb00b1c0b3000a
:10b0bc00100d23000148780071c0b300d00c2300a0
:10b0cc00c9ff37000180fb0001002000e009b1003e
:10b0dc000180b100f70f5000e08f5800f8013e00de
:10b0ec0000600100170037001b003700f401370027
:10b0fc007b0037007a00370022003700f001370060
:10b10c00ef013700ee013700ed013700ec0137009d
:10b11c00eb01370078003700b2003700e801370048
:10b12c006a003700e601370031013700440137006f
:10b13c00e301370048013700e1013700e001370037
:10b14c00900137000000eb0090868900e096020029
:10b15c000000000006003700e0880200000000003c
:10b16c000000eb009086890012970200000000009e
:10b17c0021e02100214090000040e800a040980010
:10b18c00cf01370034e60200000000000004e000ac
:10b19c001100320020f8800031f8800002002800f5
:10b1ac00820f5000e08f58000b003200a2002000ec
:10b1bc0003002000362d02000000000042ed2100ab
:10b1cc00226190000281fb0003002000820f5000de
:10b1dc00838f580015003600b8c90200000000002b
:10b1ec000004e0001800320020f8800031f88000e4
:10b1fc0003002800830f5000e08f5800120032002b
:10b20c00a200200003002000362d020000000000e8
:10b21c0042ed2100226190000281fb00030020001e
:10b22c00820f5000838f580007003e0030382000fa
:10b23c006ed802000000000021e0210021409000a7
:10b24c0000c0e800cdff37008002200086ca020053
:10b25c0000000000800078000000e00004003a00cc
:10b26c0020e4210014c0b300904f120013003a00e8
:10b27c00a06221001040900029e02100e14f500015
:10b28c0004003a0030fd80000038a30003003a00af
:10b29c00070037000004e00005003a000000eb0056
:10b2ac0090868900ee9102000000000062ff3700da
:10b2bc002940900000c0e80061ff370091868900aa
:10b2cc00ee91020000000000a9ff37000000eb0027
:10b2dc0090868900e292020000000000a4ff370073
:10b2ec000000eb009086890011c0b30020e0210023
