:020000040000fa
:085808007e2c040000000000ea
:020000040000fa
:1058fc000f3a230080ff2300000188000000000005
:10590c000a00070011000700000020000000e00062
:10591c00020032000000020000000000b4e30200ac
:10592c00000000000040da000000fe004440a90026
:10593c00406220000000e000030032000000200064
:10594c00a00188004440a80000000600606e2e00f4
:10595c00010020001600370062004000e080480083
:10596c00910188009001ba0062004000e08048007c
:10597c00910188009002ba0062004000e08048006b
:10598c000002eb006028e10005003a008301e90009
:10599c0007003300038009000059eb0004003700b6
:1059ac006128e100010032000082eb0005000700d5
:1059bc00910188001001ba000200e000e6ff3a00f5
:1059cc000000050091018800800278006200400010
:1059dc00e08048003559ba008301e9000800320024
:1059ec002559ba008301e900050032000400e000eb
:1059fc00f4ff320015d9ba008301e900f1ff3a0037
:105a0c0000000600ceca040000000000e6cb040033
:105a1c000000000004dc040000000000b4dd040001
:105a2c000000000062d50400000000005cd60400f9
:105a3c0000000000a06a0400000000006e7004006a
:105a4c00000000008001eb0002003700817178003b
:105a5c008301e800828f5100fcff3a000000060031
:105a6c006022b800060220000000d0008180d20025
:105a7c000482d2008582d2000000a00002025200f3
:105a8c0083825a00030031000202420083824a00e2
:105a9c000000a1000603e900f3ff3a000000060035
:105aac00889fbe008a9fbe00010578000100e000bf
:105abc000400350008003c000000e000200032002b
:105acc000500370060001000e080180002003b0069
:105adc0001f02c001a0037000004be006011b80061
:105aec006b0920000982cf00020039000882cf0028
:105afc000441b000694252000e00320008003b0025
:105b0c0082817100610164008904d1000884d30092
:105b1c008b05e8000442e800f9ff3a000500370065
:105b2c000804440089844c008b05e9000442e90018
:105b3c00fbff3a00500107000af0a70001f0a0009b
:105b4c004f05be004f04be000000060003f0a2008b
:105b5c00889fbe008a9fbe008c1f78006c010700d6
:105b6c00730133006450e1004f0032006420e10007
:105b7c005200320003826c0007003b000905d00084
:105b8c000306d000820f54000c065d0002003900a1
:105b9c0002003200890178000306780085825500e6
:105bac0004003d000003fd008103fd008502ea00b6
:105bbc008b854200840f720002003b0060001000d5
:105bcc00e08018006011b8000005eb007a28e100b5
:105bdc000a00390006007800c75ddd00f707b20047
:105bec00878075002d003700828171000a017800d2
:105bfc00610560008180d1000080d3008502e9003e
:105c0c00f9ff3b00060440008784480002003b007b
:105c1c0060041400e0841c000988a3000700320013
:105c2c008a81710082817100610164008904d10054
:105c3c000884d3008b05e800170037000978a3000f
:105c4c0013003a000b00e000130034008b05e90050
:105c5c000804440089844c000a4474000978a300a9
:105c6c000d003a000b00e000070034008b05e90042
:105c7c000804440089844c0001003a000b00200009
:105c8c000978a300f7ff32000001eb000200370097
:105c9c00828171000a017800f70007000cf0a70060
:105cac0001f0a0002b0137006420e10002003a0053
:105cbc00838f6c002b0133000801be000200be0074
:105ccc0024013700889fbe008a9fbe008c1f78007d
:105cdc000f0107001601330003866c006450e100cd
:105cec002e0032006420e100330032006150e100ec
:105cfc002f0032006120e100310032008585550013
:105d0c00eb07b00009002000080420000500370054
:105d1c000804440089844c000a0031000603430047
:105d2c0087834b000001530081815b00f8ff330037
:105d3c000203be000800a0000804440089844c0043
:105d4c00f6ff3900c639dd00830173000100320013
:105d5c00130020008904d1000884d3000998a30003
:105d6c00050032000800a7000300a0008904d10040
:105d7c000884d3008b05e8008904d1000884d30083
:105d8c000001eb000281d200bb00070001f0a10072
:105d9c000cf0a70001f0a000ee0037006420e10039
:105dac00f00032000801be000200be00f7ff370011
:105dbc006120e100eb0032006000b800f3ff370017
:105dcc000000200001f82700f0ff3700889fbe007c
:105ddc008a9fbe008c1f7800cd000700d4003300d2
:105dec0003866c006450e100240032006420e10062
:105dfc00270032006150e100220032006120e100f6
:105e0c00210032008b854200eb07b1000134b80051
:105e1c00003ab8000804420089844a00013ab800ec
:105e2c000030b8008880400009014a0004003300ab
:105e3c000000400081804800020149008b05e90008
:105e4c00c909dd008301700001003200130020003d
:105e5c00c814de004814dd004709de001200b20051
:105e6c00c808de00088470008300070001f0a10060
:105e7c000cf0a70001f0a000b60037006120e10093
:105e8c00b80032000801be000200be00f7ff370068
:105e9c006150e100fcff3a00b20037000001be0087
:105eac00b30007000470a70003f0a10003f8a300df
:105ebc0013003a006509b1001000320009003500ea
:105ecc006928e100020035000100280000000500ef
:105edc0000004000818048008502e900fcff3a0088
:105eec0000000600f88f4200050035008100d1004b
:105efc000080d3008502e800fcff3a000000060099
:105f0c008000eb00000005000001be0098000700b7
:105f1c000470a70003f0a1006509b100160032005f
:105f2c000d0035006828e10006003500f0ff2f0059
:105f3c00f1ff27000300e00013003b0001002800e4
:105f4c000000050000004000818048008502e90047
:105f5c00fcff3a0008003700f88f420002003c00ba
:105f6c008000eb00000005008100d1000080d30010
:105f7c008502e800fcff3a000300e00002003b0051
:105f8c0060001000e08018000000060014002000e3
:105f9c008c0037000001eb00a50007000400320064
:105fac000200200003f8230001f0a700e7fe070021
:105fbc00000006000001eb009d0007000400320009
:105fcc000200200003f8230001f0a600e0fe070009
:105fdc0000000600f4ff2f007a003700839f680052
:105fec000100e00002003d0060001000e08018009d
:105ffc000300e00002003d0060011100e081190087
:10600c0097fe07004f00e00002003b00600010000c
:10601c00e080180000000600811f78000100e000fd
:10602c0002003d0060001000e08018000300e0005a
:10603c0002003d0060011100e0811900050007001d
:10604c004f00e00002003b0060001000e0801800f0
:10605c000000060082fe07000400be0000000600df
:10606c00020ab900001bb9000200b800810042000e
:10607c008100430000000600810020006180550073
:10608c000b003d000b00200061fe2f000100e10021
:10609c001d00340082817100610164008904d1000b
:1060ac000884d3000000e800faff3a0071002000d9
:1060bc0061006400030070000200600009003200ff
:1060cc0061044400e0844c000988a50005003200fe
:1060dc008b05e8006808e10002003a008904d10051
:1060ec000884d300f20f20000258e10005003d00a7
:1060fc00c75ddd00f907b2008980750008007800e3
:10610c00000006000bf827008b007800000005004b
:10611c000004be00160007000003be000405be000c
:10612c000200be0012000700844f7500000006003c
:10613c000200be006450e100050036006420e1005e
:10614c00020036000968a30001003a000800be00f6
:10615c000160a0004f0678004f05be004f04be0042
:10616c0000000600f0ff2f00f1ff2700f9ff3700b9
:10617c00c70ade00f107b200f50fb20008003200ca
:10618c00e1cf4200020032000170a00024000500a3
:10619c00810f700001003200040805004400050066
:1061ac00810f700002003a00140005008502e9001e
:1061bc000000400081c04800fcff3b000170a000c3
:1061cc0024000500889fbe008a9fbe00841f7800b3
:1061dc00cfff07004f00780011003300f0ff2f00b5
:1061ec00838f6c0006003b00040565000a00a700c5
:1061fc000800370009f0a600100020000800370046
:10620c00820f5400838f5c000300390010002000c3
:10621c0001003e000000200009f0a7000000ea0089
:10622c004f05be004f04be000000e0000000060059
:10623c00889fbe008a9fbe000003be00ccff0700f3
:10624c008505780082815200020020006220e10066
:10625c0004003a00f307b100040035007718e100a0
:10626c00040035000600be00140037006000b800c2
:10627c000f003700f50f2000faff2f008502d10028
:10628c000a85d3008301e900fcff3b008184620096
:10629c0000046500890f7400f2ff32008582ea0069
:1062ac000a85ea00818462000004650072ff070021
:1062bc0007f0a70001f0a0000081eb000200e00055
:0c62cc004f05be004f04be00000006009d
:020000040000fa
:020000040005f5
:0457f400ffff0000b3
:020000040000fa
:020000040005f5
:0457f800ae130000ec
:020000040000fa
:020000040005f5
:0457fc007f360000f4
:020000040000fa
:0c583c00c2e504000000000000000600af
:020000040000fa
:0c58f000aac70400000000000000060031
:020000040000fa
:0c58dc00eec70400000000000000060001
:020000040000fa
:0c58b400b6b10400000000000000060077
:020000040000fa
:0c58a000f4b1040000000000000006004d
:020000040000fa
:08581000020200000300000089
:020000040000fa
:0458040000000000a0
:020000040000fa
:1062d80001020000040800001020000040800000b7
:1062e8000100000002000000040000000800000097
:1062f80010000000200000004000000080000000a6
:106308000001000000020000000400000008000076
:106318000010000000200000004000000080000085
:10632800fefd0000fbf70000efdf0000bf7f00006c
:106338000102000004080000102000004080000056
:10634800f00f00000100000002000000040000003f
:1063580008000000100000002000000040000000bd
:10636800800000000001000000020000000400009e
:10637800000800000010000000200000004000009d
:106388000080000001000000000000000a0000007a
:10639800000000006400000000000000e8030000a6
:1063a800000000001027000000000000a086000088
:1063b80001000000404200000f000000809600002d
:1063c8009800000000000000c1c0000081c100006a
:1063d8004001000001c30000c0030000800200006b
:1063e80041c2000001c60000c0060000800700008e
:1063f80041c7000000050000c1c5000081c40000bd
:106408004004000001cc0000c00c0000800d00001a
:1064180041cd0000000f0000c1cf000081ce000078
:10642800400e0000000a0000c1ca000081cb000035
:10643800400b000001c90000c009000080080000ee
:1064480041c8000001d80000c018000080190000f1
:1064580041d90000001b0000c1db000081da000008
:10646800401a0000001e0000c1de000081df0000ad
:10647800401f000001dd0000c01d0000801c00005e
:1064880041dc000000140000c1d4000081d50000e8
:106498004015000001d70000c0170000801600005a
:1064a80041d6000001d20000c01200008013000095
:1064b80041d3000000110000c1d1000081d00000cc
:1064c8004010000001f00000c030000080310000e2
:1064d80041f1000000330000c1f3000081f2000028
:1064e8004032000000360000c1f6000081f70000cd
:1064f8004037000001f50000c0350000803400007e
:1065080041f40000003c0000c1fc000081fd0000d7
:10651800403d000001ff0000c03f0000803e000039
:1065280041fe000001fa0000c03a0000803b000074
:1065380041fb000000390000c1f9000081f80000ab
:106548004038000000280000c1e8000081e9000090
:106558004029000001eb0000c02b0000802a000049
:1065680041ea000001ee0000c02e0000802f00006c
:1065780041ef0000002d0000c1ed000081ec00009b
:10658800402c000001e40000c02400008025000029
:1065980041e5000000270000c1e7000081e6000097
:1065a8004026000000220000c1e2000081e3000054
:1065b8004023000001e10000c0210000802000000d
:1065c80041e0000001a00000c06000008061000000
:1065d80041a1000000630000c1a3000081a20000e7
:1065e8004062000000660000c1a6000081a700000c
:1065f8004067000001a50000c0650000806400003d
:1066080041a40000006c0000c1ac000081ad000096
:10661800406d000001af0000c06f0000806e0000f8
:1066280041ae000001aa0000c06a0000806b0000b3
:1066380041ab000000690000c1a9000081a800006a
:106648004068000000780000c1b8000081b900006f
:106658004079000001bb0000c07b0000807a000088
:1066680041ba000001be0000c07e0000807f00002b
:1066780041bf0000007d0000c1bd000081bc0000da
:10668800407c000001b40000c07400008075000068
:1066980041b5000000770000c1b7000081b60000d6
:1066a8004076000000720000c1b2000081b3000013
:1066b8004073000001b10000c0710000807000004c
:1066c80041b0000000500000c1900000819100001e
:1066d8004051000001930000c053000080520000a8
:1066e8004192000001960000c0560000805700004b
:1066f8004197000000550000c195000081940000fa
:1067080040540000019c0000c05c0000805d000057
:10671800419d0000005f0000c19f0000819e0000b5
:10672800405e0000005a0000c19a0000819b0000f2
:10673800405b000001990000c0590000805800002b
:106748004198000001880000c0480000804900000e
:1067580041890000004b0000c18b0000818a0000c5
:10676800404a0000004e0000c18e0000818f0000ea
:10677800404f0000018d0000c04d0000804c00001b
:10678800418c000000440000c184000081850000a5
:106798004045000001870000c04700008046000017
:1067a8004186000001820000c042000080430000d2
:1067b8004183000000410000c18100008180000089
:1067c80040400000000000000000000060ae000033
:1067d800000000008051000001000000e0ff000000
:1067e80001000000a0a800000200000000570000ff
:1067f80003000000c0ff00000300000020ae0000fe
:1068080004000000805c0000050000004005000056
:1068180006000000a0b3000006000000605c000055
:1068280007000000000000000000000060ae00004b
:1068380000000000e04b00000100000040fa0000ea
:106848000100000000a300000200000060510000e9
:106858000300000020fa00000300000080a80000e8
:1068680004000000e056000005000000a0ff000042
:106878000500000000ae000006000000c056000041
:1068880007000000000000000005000001010000f2
:106898000a000000050500000505000005050000c8
:1068a80005050000050500000505000005050000b8
:1068b80005050000050500000505000005050000a8
:1068c8000505000005050000050500000505000098
:1068d8000505000005050000050500000505000088
:1068e8000505000005050000050500000505000078
:0468f8000505000092
:020000040000fa
:1068fc00881f780000047800e10f500027003a0050
:10690c00307f8100207f890022cd02000000000032
:10691c000004e00004003200a0f42100305090008c
:10692c000004e00004003a00ace2020000000000a9
:10693c000004e00002003200387f890002003700ba
:10694c000000eb00307f8900317f8100e18f500027
:10695c0007003a00207f81000000e00004003a00ac
:10696c00117f890020ed220001489900e2c2a800a5
:10697c00107f8100e10f50000d003a0021ed220044
:10698c0001489100e14f400009003a000000eb0083
:10699c00107f890080489900040037008000eb00cc
:1069ac00117f890020ed220001489900e2c2a90064
:1069bc004f04780000000600ce9b0200000000008f
:1069cc007ecd04000000000081df2100114090000a
:1069dc000004e00002003a0010c0b30007003700ca
:1069ec00e14f500007003a00f00b230011417800f2
:1069fc00904f51000a00320020c0b3009040980024
:106a0c0000000600e24f500005003a00f00b230096
:106a1c00904878000040eb0090409800a04098000f
:106a2c0000000600066221004501de004211dd0077
:106a3c00ff0360000104e00020003a0086014100e1
:106a4c00f6814100f6004100868040001181fb0078
:106a5c00114090004800dd000202700021409000bf
:106a6c000080fb00314190004811dd0000017100f5
:106a7c0010002000010020008703e9000300330010
:106a8c000000400081804800fbff37000080ea00d6
:106a9c008180ea000402600001016100820078003c
:106aac00844978004821de0092419800a141980069
:106abc004808de00b0419800000006008602410044
:106acc00f682420076024100060242009480fb00ee
:106adc00144090004800dd0001017000a4409000bb
:106aec008180fb00344090004800dd008101700083
:106afc0010002000010020008703e9000300330090
:106b0c000000400081804800fbff3700000171004d
:106b1c0081817100824a78004810de009042980012
:106b2c00a34298004818de00b0429800000006000e
:106b3c00016221000040eb00e0589800f0589800ea
:106b4c008060980090609800a0609800b0609800f9
:106b5c00c0609800d0609800000006004501de007f
:106b6c00016221004211dd0001034100fe034300dc
:106b7c007e014100010141009281fb009240900096
:106b8c00c808dd0003827000a24190008381fb00e5
:106b9c00b2409000c808dd00838270007f00600066
:106bac0012002000030020000000e9000300330065
:106bbc000201410083814900fbff37000202720091
:106bcc0083827200f00f2000844b6000c820de002e
:106bdc009143980000806200006398004828de0012
:106bec001063980000000600f10b23008048780029
:106bfc000000060020ed220040409000e14f4000d4
:106c0c0030003a00118681000100e00005003a00d6
:106c1c00cda2a90090fe22000148780080fe22003f
:106c2c000f003700e18f500006003a00cda2a800fb
:106c3c0090fe22000048eb0080fe22000048eb0092
:106c4c0008003700e28f500002003a00a1c0b300e8
:106c5c0002003700e38f500002003a0090fe220041
:106c6c000148780090fe2200104178000204e000f8
:106c7c001100320081fe22001140e80080487800ab
:106c8c00824f50000c0039008048eb000040eb00b4
:106c9c00a1fe22001104e00001003a0010c0b30074
:106cac0080487800c500dd00cdc2bf000054a100b3
:106cbc0001407000cde2b70011c0b30020ed2200fe
:106ccc004140980000000600889fbe0080047800b8
:106cdc006b045000f0022000800f540017003e009f
:106cec0080df210010407800e54f50000400320096
:106cfc00e74f500002003200e44f50000a003a0007
:106d0c000840780064ca020000000000f34f5000f5
:106d1c000a003e00801c2100684078000004e0005e
:106d2c0006003a00070037000840780064ca0200e9
:106d3c0000000000f34f50000200360009007800fc
:106d4c00010037000000eb004f04be0000000600fd
:106d5c000041780081417800f0c2b300804f5100af
:106d6c0003003e008280fb00801c210083707800b1
:106d7c0000000600804078000001eb00f0c2b30078
:106d8c0080cf500004003e000180fb00811c2100dc
:106d9c0060c078000081fb00020078000000060053
:106dac00889fbe008a9fbe008c1f7800b00b23000a
:106dbc00104078000080fb00010020000200200041
:106dcc0003002000c4102100009abe000292be00f5
:106ddc00f00b2300104278000480fb00010020001f
:106dec00020020000300200045102100809abe0004
:106dfc008292be0080df2100104078000080fb00f2
:106e0c000100200061005000e0805800ea0f5000a3
:106e1c00e08f5800ab193e00006001000a003700fb
:106e2c0029003700460037001603370005083700e5
:106e3c006e0c3700f30d37007d04370074133700e8
:106e4c00a0193700e11437000000eb001086890010
:106e5c00811c21008058eb00801f2100808f500086
:106e6c00fcff3a0080df2100104490000804e00091
:106e7c0003003200e14f540092193a000e00370023
:106e8c00e00b230008487800d883020000000000c3
:106e9c0011c0b30020ed22000148780000622100ef
:106eac0028d8980002d202000000000008d202008c
:106ebc00000000008319370021c0b300f00b230041
:106ecc00014878007f19370080df210010449000c2
:106edc00e14f54007b193a0020ed220080c0eb00fa
:106eec0090cf100077193a0009fe220031c0b30090
:106efc00f00b23000148780022cd020000000000b6
:106f0c000004e00002003200884c780001003700d9
:106f1c00804c78001000200001002000008e8800ba
:106f2c00118e880000a62e0001002000e08d880044
:106f3c00f18d880010002000d08d88006119370079
:106f4c00290020001986890081df21001140900062
:106f5c00e14f50001700320003003900e24f50009f
:106f6c0058193a00c3023700d0d1020000000000cb
:106f7c000000cf000000ea004f00de00711c210071
:106f8c008048780002d2020000000000b0152100f9
:106f9c000048eb0088fe070052ca02000000000007
:106fac0021ed220010c0b30080e0980080709800a2
:106fbc004419370020ed220000709000e14f400092
:106fcc0040193a0000fe220022c0b300904f11007d
:106fdc0003003a000048eb0040c2b300a040980008
:106fec0024d2020000000000000178000000e00044
:106ffc003d003200501c21001004e00001003a005a
:10700c000000fe0078dc2100184078000008a30086
:10701c00040032000900780032d3020000000000a6
:10702c00281937000018a30004003200300020009b
:10703c0032d3020000000000221937000048a300e0
:10704c00040032005000200032d302000000000087
:10705c001c1937000058a300040032006000200007
:10706c0032d302000000000016193700fede0200c9
:10707c00000000000004e000070032001844780013
:10708c0064406400040032008000200032d302000f
:10709c00000000000b1937002cc302000000000098
:1070ac000004e0000800320070dc21001040780081
:1070bc0064406000040032008000200032d30200e3
:1070cc0000000000ff18370070dc210003c4b3007f
:1070dc0010c06100fb1832009000200032d3020077
:1070ec0000000000f718370001622100a0c6b300b1
:1070fc00914f100009003a00e3ec2200134090007d
:10710c000004e0000500320071c0b300f00b230056
:10711c000148780092419800ea18370020ed2200cf
:10712c0000e09000e14f400004003a00900c200079
:10713c0032d3020000000000e2183700701c21005e
:10714c001004e000030032008040eb0000622100dc
:10715c0021d8980080df2100204190000280fb00a4
:10716c000100200024032000840f5000e08f580001
:10717c003f023e000060010032003700560037002d
:10718c00b2003700b1003700b0003700af00370055
:10719c00ae003700ad003700ac003700af00370051
:1071ac00c1003700cb003700d9003700e7003700ab
:1071bc00fa003700040137001201370020013700b4
:1071cc00330137003d0137004b01370059013700bf
:1071dc006c013700760137008401370092013700cb
:1071ec0091013700900137008f0137008e01370075
:1071fc008d0137008c0137008b013700910137006e
:10720c00b0013700b9013700d20137000102370055
:10721c000702370006023700050237000402370068
:10722c000302370002023700010237000002370068
:10723c00ff013700fe013700fd013700fc0137006c
:10724c00ff0137000041eb00a0f4210022689800f8
:10725c0060f82100024878008000eb0041fa8800b9
:10726c00a00b23000148780040f821000248780068
:10727c006015210002487800a18a88000062210074
:10728c000268980094890200000000000004e000ed
:10729c008c183200fede0200000000000004e0004a
:1072ac000800320010c0b30021ed2200c04099004c
:1072bc00fedb02000000000081c0b300a0ec210046
:1072cc001140980081df2100214090000040e8002f
:1072dc00a04098007b183700fede02000000000082
:1072ec000004e0005400320060f680006020b20020
:1072fc000e003200c08581000000e0000b003a0057
:10730c0030c1b300fedb02000000000021c0b3005e
:10731c00a0ec21001140980011c0b30020ed220018
:10732c004140990010002000c085890060f6800063
:10733c00800078000108b2000d003200c885810081
:10734c00e10f54000a003a0008407800fedb02000e
:10735c0000000000a0ec21001840980020ed220055
:10736c004840990020002000c0858900551837003e
:10737c000088a30010003200c0858100e10f50008e
:10738c000d003a008040eb0020ed220041409900b6
:10739c000000eb00c085890000382000d4d1020029
:1073ac000000000081df2100214090006740400078
:1073bc00a04098004318370022ed22004240910073
:1073cc00e14f40000f003a00c0858100e10f5000f2
:1073dc000c003a000040eb00404199000000eb002b
:1073ec00c085890000382000d4d1020000000000c4
:1073fc0081df21002140900067404000a0409800b0
:10740c00301837000100e0002e183a00c0858100ca
:10741c00e20f50002b183a0020ed22004140990059
:10742c00c185890081df2100214090006740400028
:10743c00a04098002318370081df210021409000e4
:10744c0067404000a04098001e1837008240e800ba
:10745c0080df2100214098001a18370071c0b3005a
:10746c000040eb0074880200000000000004e00003
:10747c000900320071c0b3000040eb000c9a02000e
:10748c000000000081df2100214090000040e80056
:10749c00a04098000b18370071c0b3008c99020003
:1074ac00000000000718370071c0b3000040eb006b
:1074bc001c9b0200000000000004e00001183200d8
:1074cc0081df2100214090000040e800a04098009e
:1074dc00fc17370071c0b3000040eb0004880200b9
:1074ec00000000000004e000f617320071c0b30089
:1074fc000040eb00689b02000000000081df2100cf
:10750c00214090000040e800a0409800ed173700a3
:10751c0071c0b3000040eb00b28802000000000014
:10752c000004e000e717320071c0b3000040eb002c
:10753c008a9a02000000000081df210021409000a7
:10754c000040e800a0409800de173700f1c0b300ff
:10755c0080c0b30074880200000000000004e0004a
:10756c0009003200f1c0b30080c0b3000c9a0200d5
:10757c000000000081df2100214090000040e80065
:10758c00a0409800cf173700f1c0b30080c0b30003
:10759c008c99020000000000ca173700f1c0b3003c
:1075ac0080c0b3001c9b0200000000000004e0003f
:1075bc00c417320081df2100214090000040e80018
:1075cc00a0409800bf173700f1c0b30080c0b300d3
:1075dc0004880200000000000004e000b91732002b
:1075ec00f1c0b30080c0b300689b02000000000033
:1075fc0081df2100214090000040e800a04098006d
:10760c00b0173700f1c0b30080c0b300b2880200dd
:10761c00000000000004e000aa173200f1c0b30023
:10762c0080c0b3008a9a02000000000081df2100b4
:10763c00214090000040e800a0409800a1173700be
:10764c0071c1b30000c1b3007488020000000000d7
:10765c000004e0000900320071c1b30000c1b300a6
:10766c000c9a02000000000081df210021409000f4
:10767c000040e800a04098009217370071c1b30099
:10768c0000c1b3008c990200000000008d17370078
:10769c0071c1b30000c1b3001c9b020000000000cc
:1076ac000004e0008717320081df210021409000a8
:1076bc000040e800a04098008217370071c1b30069
:1076cc0000c1b30004880200000000000004e000c8
:1076dc007c17320071c1b30000c1b300689b02007b
:1076ec000000000081df2100214090000040e800f4
:1076fc00a04098007317370071c1b30000c1b300ec
:10770c00b2880200000000000004e0006d17320097
:10771c0071c1b30000c1b3008a9a020000000000de
:10772c0081df2100214090000040e800a04098003b
:10773c0064173700f1c1b30080c1b3007488020034
:10774c00000000000004e00009003200f1c1b300a9
:10775c0080c1b3000c9a02000000000081df210000
:10776c00214090000040e800a040980055173700d9
:10777c00f1c1b30080c1b3008c990200000000007d
:10778c0050173700f1c1b30080c1b3001c9b02003d
:10779c00000000000004e0004a17320081df2100e5
:1077ac00214090000040e800a040980045173700a9
:1077bc00f1c1b30080c1b3000488020000000000d6
:1077cc000004e0003f173200f1c1b30080c1b300e8
:1077dc00689b02000000000081df21002140900026
:1077ec000040e800a040980036173700f1c1b30004
:1077fc0080c1b300b2880200000000000004e00069
:10780c0030173200f1c1b30080c1b3008a9a020074
:10781c000000000081df2100214090000040e800c2
:10782c00a04098002717370011c0b300b0152100f5
:10783c00014878008240e80080df21002140980058
:10784c002017370080022000fac30200000000005d
:10785c000000e00004003a0080e3210015c0b300f2
:10786c0090cf120012003a00c0fc80000048a30028
:10787c00040032000062210020d890000004e000d7
:10788c000b003a0010c0b3005cd5020000000000f1
:10789c0001c8b30080f821007148980081df2100f5
:1078ac00214090000040e800a040980005173700e8
:1078bc0081df21002140900063404000a0409800ef
:1078cc0000173700c0fc80000008a300fd16320032
:1078dc00d2d702000000000081df2100214090007f
:1078ec000040e800a0409800f61637004ed8020081
:1078fc00000000000000e00007003a00c0fc80001f
:10790c00010c2e000100600003003a00d0fc800046
:10791c0063006000eb163200f0fd22000048eb0023
:10792c000062210020d8900089df2100e14f500037
:10793c0004003a00294090006f404000a044980099
:10794c00e0163700294090000040e800a044980061
:10795c00dc1637000000eb0040fa880001fe220024
:10796c0010c0b300914f100006003a0020c0b300c5
:10797c00804878008015200032d3020000000000ff
:10798c00d016370022cd0200000000000004e000f9
:10799c0016003200a0f42100305090000004e000ea
:1079ac0003003a00c08d80000008a30003003a00d9
:1079bc00c08d80000008a30008003a000040eb00d6
:1079cc008cca02000000000081df210021409000e1
:1079dc000040e800a0409800ba163700901520002f
:1079ec0032d3020000000000b61637006000b80069
:1079fc0000fb880011fb880020fb880031fb88000d
:107a0c0081df2100214090006d404000a040980093
:107a1c00ac16370000f821001004e000a9163a005b
:107a2c0061c2b30080df210021409800a516370009
:107a3c008240e80080df210021409800a116370029
:107a4c0010c0b30061e7210080c898009ce20200de
:107a5c000000000071c0b3000004e00001003a0017
:107a6c0041c0b300f00b2300014878009516370095
:107a7c00ffff37008040eb0020ed220001e0980072
:107a8c0090163700190020001986890080df21002c
:107a9c00104490000804e00003003200e14f540051
:107aac0088163a000d003700e00b230009487800d7
:107abc003c8402000000000020ed220049c8980020
:107acc00fede0200000000000004e0007d16320023
:107adc0006df0200000000007a163700fede02000e
:107aec00000000000004e00022003200a1ec2100a4
:107afc0060f680000020b20002003200e8709800ae
:107b0c0001003700e0709800a8ec210061f68000bd
:107b1c00008020000080600004003200103820003b
:107b2c0032d30200000000006616370001c8a30023
:107b3c0005003200707498002038200032d3020007
:107b4c00000000005f163700fede0200000000009f
:107b5c000004e00043003200c0f78000d1f7800041
:107b6c0002002800820f5000e08f58003d003200c8
:107b7c00280037002cc30200000000008040780071
:107b8c000004e0003a003200a2ec2100d1f38000a6
:107b9c00000028000080600002003200687198002c
:107bac000100370060719800c1f380000040200094
:107bbc0000816000040032001038200032d3020033
:107bcc00000000003f16370001b8a3000600320089
:107bdc00a0ec2100727098002038200032d30200f3
:107bec0000000000371637002cc302000000000014
:107bfc000004e0001b003200a8ec2100c0f780005c
:107c0c00d1f7800003002800830f5000e08f58004c
:107c1c0014003200a200200003002000362d0200c8
:107c2c00000000000001be00286090000080fb00f6
:107c3c0001002000800f5100818f5900090036008f
:107c4c00386090000080fb0001002000800f510084
:107c5c00818f590003003e0010c0b300707498006f
:107c6c00060037008040eb00a0ec2100020037003a
:107c7c00a0ec210061709800717098007092020065
:107c8c00000000001000200019fb0700e0ec2200af
:107c9c00104090000004e0000a163200006221003f
:107cac0090407800a0c6b30080cf50005400320042
:107cbc0007003e006540500080cf50000b003200a2
:107ccc006340400080cf5000b6003a000b003700f4
:107cdc00f0c6b30080cf50005100320040ccb3004e
:107cec0080cf5000af003a00a60037000000eb0038
:107cfc00fffa070031c0b3003f003700fede020080
:107d0c00000000000004e00011003200c0f7800009
:107d1c00d1f7800004002800840f5000e08f580039
:107d2c000b003200a200200003002000362d0200c0
:107d3c0000000000a2ec2100226190000281fb00f7
:107d4c0003002000820f5000838f5800150036006e
:107d5c002cc30200000000000004e00015003200fb
:107d6c00c0f78000d1f7800005002800850f500077
:107d7c00e08f58000f003200a2002000030020000a
:107d8c00362d020000000000a2ec210022619000c0
:107d9c000281fb0003002000820f5000838f5800eb
:107dac0004003e0030382000d4d102000000000056
:107dbc007c0037000000eb00cdfa070022cd02005a
:107dcc00000000000004e0000a003200a0f42100d2
:107ddc00305090000004e00003003200c08d8000a1
:107dec000008a30003003a00c08d80000008a30027
:107dfc006c003a0051c0b300f00b23006800370050
:107e0c000000eb00bafa070070c0b300f10b2300be
:107e1c0080487800e0fd22000048eb00610037004c
:107e2c000000eb00b2fa070022cd020000000000b7
:107e3c000004e0005b003200b2fa8000c3fa80005c
:107e4c00e10f4100e08f490003003a0000002000e0
:107e5c0001f8240034003700e00f5100e08f590086
:107e6c00040035000200be00562d02000000000088
:107e7c000b00370061006100010020008301d1007c
:107e8c000281d3000200700083807000562d020026
:107e9c00000000000001be00ae2d0200000000003a
:107eac0002002400c3612400682e020000000000c0
:107ebc000004be00628b8100738b8100e00f5100c7
:107ecc00e08f5900040035000200be00562d020060
:107edc00000000000c003700608b81006100600026
:107eec00010020008301d1000281d3000200700048
:107efc0083807000562d0200000000000001be00bf
:107f0c00ae2d0200000000000001be000800be0003
:107f1c00ec2e02000000000002002400c3612400cb
:107f2c00682e020000000000542f02000000000028
:107f3c000100200002fb800013fb8000800f510029
:107f4c00818f59000a003d00a0f4210030509000b0
:107f5c000004e00003003200c08d80000008a30084
:107f6c0003003a00c08d80000008a3000d003a0009
:107f7c0081c0b300f00b23000148780041c0b3006e
:107f8c00060037000000eb0059fa0700b1c0b3003f
:107f9c00f00b23000148780071c0b300b00b230034
:107fac00014878000062210010417800a1c6b3009e
:107fbc0001404100f94f50000a003e00a0cab30036
:107fcc00804f510003003a0011c0b300e0fd2200c5
:107fdc000148780071c0b300f00b23000148780011
:107fec003815370040c9b3000040410081c5b300cb
:107ffc00814f50000a003e00f0c6b300804f510084
:10800c00070032006a404000804f510004003200eb
:10801c0071c0b300f00b230001487800291537001c
:10802c008040eb00e0ec2200114098002515370051
:10803c00180020001886890080df21001043900072
:10804c000604e00003003200e14f53001d153a0016
:10805c002b003700e00b23000648780056fa070087
:10806c0020ed220048709800e28d8000f38d800096
:10807c00a27f8900b37f8900008e8000118e800062
:10808c00e00f5000e08f5800030032000080eb003e
:10809c000087890004003700d08d8000e10f50006c
:1080ac0001003a000287890018c0b30020ed2200bd
:1080bc00087898006000b800c07f8900d17f8900e3
:1080cc00d49d020000000000fede02000000000053
:1080dc000004e0000200320006df02000000000095
:1080ec00a1ec210060f680000020b20002003200fa
:1080fc00e8709800f3143700e0709800f114370022
:10810c0027ed220047709000e14f400002003a003a
:10811c00a00c20001100370007789000e14f4000c0
:10812c001e003a00c07f8100d17f810061024000b7
:10813c00e0824800c47f8900d57f89000040eb00b5
:10814c00807b9800028e8000138e8000e00f51001f
:10815c00e08f590004003a00b00c2000d4d102008a
:10816c00000000000d003700820f5200838f5a0070
:10817c0009003900a07f8100b17f8100e00f500021
:10818c00e08f5800f4ff3200008789006000b800cf
:10819c00a07f8900b17f8900867b980089df210050
:1081ac00a9409000e4cf50000203320008003e00ca
:1081bc00e1cf5000bc0132000d003900e2cf50007d
:1081cc0069023200e3cf5000be143a00ef023700d0
:1081dc00e6cf500004033200fa023900e7cf50001a
:1081ec0007033200e8cf5000b6143a000d033700f5
:1081fc0022cd0200000000000004e000a6013200c5
:10820c00a1f42100216c90000804e0008a013a00de
:10821c00b00b230042c0b300904f110014013a0080
:10822c0010c0b300f058980000f8210020409000d6
:10823c000004e000a3003200b2fa8000c3fa800010
:10824c00e10f4100e08f490003003a000a002000d2
:10825c000bf8240035003700e00f5100e08f590077
:10826c00040035000200be00562d02000000000084
:10827c000b00370061006100010020008301d10078
:10828c000281d3000200700083807000562d020022
:10829c00000000000001be00ae2d02000000000036
:1082ac0002002400c3612400682e020000000000bc
:1082bc000004be00628b8100738b8100e00f5100c3
:1082cc00e08f5900040035000200be00562d02005c
:1082dc00000000000c003700608b81006100600022
:1082ec00010020008301d1000281d3000200700044
:1082fc0083807000562d0200000000000001be00bb
:10830c00ae2d0200000000000001be000800be00ff
:10831c00ec2e02000000000002002400c3612400c7
:10832c00682e0200000000000005be00ace2020056
:10833c00000000000004e000110032000a00be0042
:10834c00542f0200000000000100200002fb8000fe
:10835c0013fb8000800f5100818f590008003d00f5
:10836c0011c0b30020ed22000140990081df2100f3
:10837c002140900065404000a04098005114370007
:10838c0008fb800019fb80000a00be00542f02007d
:10839c00000000000001be0001002000800f54000e
:1083ac00818f5c0019003400b0fa8000c1fa8000a3
:1083bc00e10f4000e08f48000300320011c0b30011
:1083cc00020078000a00370020fb800031fb80009f
:1083dc00e00f5000e08f5800030034004006b0005e
:1083ec0011c0b3000200370011c0b30000712200ad
:1083fc002acd02000000000081df21002140900006
:10840c0063404000a04098002e143700800f5400a9
:10841c00818f5c0008003a0011c0b30020ed2200ef
:10842c000140990081df210021409000654040000f
:10843c00a04098002314370050fb800061fb8000a3
:10844c00e00f5000e08f58000d003a00b0fa8000a9
:10845c00c1fa8000e10f4000e08f48000d003a00a7
:10846c0020fb800031fb8000e00f5000e08f5800b3
:10847c000b0034004006b0008040eb000a003700cf
:10848c0022fb800033fb8000e00f5100e08f59008d
:10849c00030034008040eb0002007800020037003b
:1084ac008040eb00007122002acd02000000000089
:1084bc0081df21002140900063404000a0409800e3
:1084cc000014370022cd0200000000000004e00080
:1084dc0063003200b2fa8000c3fa8000e10f410061
:1084ec00e08f490055003200e00f5100e08f590039
:1084fc00040035000200be00562d020000000000f2
:10850c000b00370061006100010020008301d100e5
:10851c000281d3000200700083807000562d02008f
:10852c00000000000001be00ae2d020000000000a3
:10853c0002002400c3612400682e02000000000029
:10854c000004be00628b8100738b8100e00f510030
:10855c00e08f5900040035000200be00562d0200c9
:10856c00000000000c003700608b8100610060008f
:10857c00010020008301d1000281d30002007000b1
:10858c0083807000562d0200000000000001be0028
:10859c00ae2d0200000000000001be000800be006d
:1085ac00ec2e02000000000002002400c361240035
:1085bc00682e0200000000000004be000afb8000d0
:1085cc001bfb80008a2f020000000000800f55006a
:1085dc00818f5d0006003d000800be00542f020094
:1085ec00000000000001be008040eb0011003700cd
:1085fc000800be00542f0200000000000001be0065
:10860c0001002000800f5500818f5d0008003a00aa
:10861c0011c0b30020ed22000140990081df210040
:10862c002140900065404000a0409800a513370001
:10863c0011c0b300020078000200370088407800b7
:10864c00007122002acd02000000000081df210011
:10865c002140900063404000a040980099133700df
:10866c002940900064404000a044980095133700c6
:10867c00f8589800b2fa8000c3fa8000e00f51005d
:10868c00e08f5900040035000200be00562d020098
:10869c00000000000b0037006100610001002000a9
:1086ac008301d1000281d30002007000838070002e
:1086bc00562d0200000000000001be00ae2d02008d
:1086cc000000000002002400c3612400682e020098
:1086dc00000000000004be00628b8100738b8100df
:1086ec00e00f5100e08f5900040035000200be007d
:1086fc00562d0200000000000c003700608b81003a
:10870c0061006000010020008301d1000281d300d0
:10871c000200700083807000562d020000000000e3
:10872c000001be00ae2d0200000000000001be00e2
:10873c000800be00ec2e0200000000000200240025
:10874c00c3612400682e0200000000000004be007b
:10875c00a0f42100005590000a04e0000a003a0041
:10876c0000fb800011fb8000562d02000000000071
:10877c000001be000800be00ae2d0200000000008b
:10878c000004be000e00370000fb800011fb8000cf
:10879c00562d0200000000000801be00ac2d0200a6
:1087ac00000000000004be006011b800cc2f0200d5
:1087bc00000000000000e00001003d006044b80033
:1087cc000800be00542f0200000000000002be0092
:1087dc006101b80000fb800011fb8000800f51008c
:1087ec00818f59000c00320011c0b3000a04e00064
:1087fc0001003a008a407800040078002acd02007b
:10880c000000000081df2100214090006340400007
:10881c00a04098002b13370011c0b30020ed2200ac
:10882c000140990081df210021409000654040000b
:10883c00a040980023133700d0c0b3005cd50200d1
:10884c000000000041c0b30080f82100714898007e
:10885c000001eb0062fc8800c012200070fc880054
:10886c0011c0b30060f821000148780042fa88007a
:10887c00a00b23000248780040f821000248780041
:10888c0050f8210002487800294090000040e80090
:10889c00a04498000b13370029409000644040001e
:1088ac00a044980007133700c0fc80006c006000e7
:1088bc0004133200a0f421007158980060f82100d4
:1088cc000048eb00b2fa8000c3fa8000e10f4100cf
:1088dc00e08f490003003a000a0020000bf8240046
:1088ec0035003700e00f5100e08f590004003500cf
:1088fc000200be00562d0200000000000b003700e5
:10890c0061006100010020008301d1000281d300cd
:10891c000200700083807000562d020000000000e1
:10892c000001be00ae2d0200000000000200240079
:10893c00c3612400682e0200000000000004be0089
:10894c00628b8100738b8100e00f5100e08f590026
:10895c00040035000200be00562d0200000000008d
:10896c000c003700608b810061006000010020006a
:10897c008301d1000281d30002007000838070005b
:10898c00562d0200000000000001be00ae2d0200ba
:10899c00000000000001be000800be00ec2e02002a
:1089ac000000000002002400c3612400682e0200b5
:1089bc00000000000005be00ace202000000000058
:1089cc000004e0000e0032000a00be00542f02002a
:1089dc00000000000100200002fb800013fb80005f
:1089ec00800f5100818f590005003d0081df21006f
:1089fc00214090000040e800a0409800b1123700e0
:108a0c0008fb800019fb80000a00be00542f0200f6
:108a1c00000000000001be0001002000800f540087
:108a2c00818f5c001e0034001400200044fa880082
:108a3c00b0fa8000c1fa8000e10f4000e08f4800de
:108a4c000300320084407800020078000a003700ee
:108a5c0020fb800031fb8000e00f5000e08f5800bd
:108a6c00030034004006b000844078000200370058
:108a7c0084407800007122002acd02000000000022
:108a8c0011c0b30050f821000148780081df2100ab
:108a9c00214090000040e800a04098008912370067
:108aac00800f5400818f5c0005003a0081df2100ab
:108abc00214090000040e800a0409800811237004f
:108acc0050fb800061fb8000e00f5000e08f5800ed
:108adc000f003a001000200040fa8800b0fa800025
:108aec00c1fa8000e10f4000e08f48000f003a000f
:108afc0020fb800031fb8000e00f5000e08f58001d
:108b0c000d0034004006b0008040eb000c00370034
:108b1c001000200040fa880022fb800033fb80000c
:108b2c00e00f5100e08f5900030034008040eb004f
:108b3c0002007800020037008040eb000071220038
:108b4c002acd02000000000011c0b30050f8210033
:108b5c000148780081df2100214090000040e800ae
:108b6c00a040980057123700036221009340780010
:108b7c0080c6b30080cf500023003a00e2ec220004
:108b8c00124090000004e0003e00320040f821004a
:108b9c00904078000104e00016003a001141980062
:108bac0073d19000e14f510003003a00608a02003b
:108bbc00000000000b00370002c0e900e14f50003c
:108bcc0002003e00400120000400370064405100c8
:108bdc00e14f500003003e0020032000668202009b
:108bec000000000011c0b30040f8210001487800db
:108bfc0024003700e1cf500037003a000040eb0072
:108c0c00104198001f003700b0c6b30080cf500051
:108c1c001c003a00e1ec2200114090000004e0003e
:108c2c001800320040f821001004e00015003a0052
:108c3c00c0fc80000038a3001200320000f82100b4
:108c4c001004e0000f003a000040eb009040980048
:108c5c00d0c0b3005cd502000000000081c0b3009e
:108c6c0080f8210071489800a0e6200060fc880084
:108c7c00c012200070fc8800294090006440400025
:108c8c00a044980040f8210013c0b30090cf11000d
:108c9c0011003a007a870200000000000004e00096
:108cac0006003200a10b23001104e00003003a007f
:108cbc0010c0b3008048780004003700a00b2300dc
:108ccc0014c0b300904f120003003a000040eb00b8
:108cdc00849502000000000000f82100104178008b
:108cec000204e00004003a008000eb0041fa880026
:108cfc0050f8210001487800c0fc80000038a30027
:108d0c00f01132000204e000ee113a00a00b230037
:108d1c0015c0b30090cf1200ea113a000162210095
:108d2c00b0c6b300914f100014003a00e1ec2200e1
:108d3c00114090000004e0001000320092409800b6
:108d4c00d0c0b3005cd502000000000081c0b300ad
:108d5c0080f8210071489800a0e6200060fc880093
:108d6c00c012200070fc880081df2100214090009f
:108d7c0064404000a0409800d211370051c0b300ad
:108d8c00f00b230001487800ce11370000f82100c9
:108d9c001004e000cb113a000000eb0040fa880010
:108dac0051f821008048780040c0b300a0449800de
:108dbc00c4113700b10b2300f00b230011487800cd
:108dcc00c011370021ed220001409100e14f40001d
:108ddc00bc113a000040eb008040990040c0b30049
:108dec00a0449800b7113700c0fc80000048a300d5
:108dfc00b411320070c0b300a0449800b111370018
:108e0c00c0fc80000028a300ae113a00ce9b0200eb
:108e1c0000000000294090000040e800a0449800a9
:108e2c00a811370094890200000000000004e00043
:108e3c00a4113200b10b2300f00b23001148780071
:108e4c00a0113700110020001186890082df21005b
:108e5c0012409000e14f50005e00320003003900d8
:108e6c00e24f500097113a005c043700e00b2300ee
:108e7c000048eb0091028900a0f42100206c9000c6
:108e8c000804e0001d003a00cbf607000062210048
:108e9c00f0d09000e1cf500003003a00608a02004d
:108eac00000000000d00370001c0e900e14f500048
:108ebc0003003e0088407800400120000500370088
:108ecc0064c05000e14f500004003e008840780020
:108edc00200320006682020000000000a00b23008b
:108eec000048eb0060f821000048eb0050f821002e
:108efc000048eb000000eb00a08a880011c0b30012
:108f0c0020ed220041709800e28d8000f38d8000ee
:108f1c00a27f8900b37f8900008e8000118e8000b3
:108f2c00e00f5000e08f58000300320000a62e0026
:108f3c000087890004003700d08d8000e10f5000bd
:108f4c0001003a000287890018c0b30020ed22000e
:108f5c00087898006000b800c07f8900d17f890034
:108f6c00d49d020000000000fede020000000000a4
:108f7c000004e0000a00320006df020000000000de
:108f8c00a1ec210060f680000020b200020032004b
:108f9c00e87098004b113700e070980049113700c9
:108fac002cc30200000000000004e0004511320058
:108fbc00a2ec2100d1f380000000280000806000aa
:108fcc0002003200687198003e1137006071980001
:108fdc003c1137000162210090c7b300914f100083
:108fec0009003a00e1ec2200114090000004e0007e
:108ffc000500320022409000f34f50000200320076
:10900c000040eb009040980026ed22004670900046
:10901c00e14f400004003a00a00c2000d4d1020023
:10902c00000000002711370006789000e14f400047
:10903c0027003a00c07f8100d17f8100610240008f
:10904c00e0824800c47f8900d57f89000040eb0096
:10905c00007b9800028e8000138e8000e00f510080
:10906c00e08f590004003a00b00c2000d4d102006b
:10907c000000000013113700820f5200838f5a003a
:10908c0010003900a07f8100b17f8100e00f5000fb
:10909c00e08f580004003a00b00c2000d4d102003c
:1090ac000000000007113700008789006000b8003d
:1090bc00a07f8900b17f890010c0b300007b9800ad
:1090cc000011370010c0b300007b9800fd10370072
:1090dc00c4890200000000000004e000f910320016
:1090ec0080df2100204090000081fb000300200065
:1090fc0081022000810f5100e08f5900f1103e00d9
:10910c000260010028003700f20037001e01370012
:10911c003601370035013700490137005d01370052
:10912c006e013700ab013700ba013700d6013700aa
:10913c00eb013700ba0237000e0337001d0337006e
:10914c006e033700770337007c0337008903370041
:10915c0091033700900337008f0337008e033700dd
:10916c008d0337008c0337008b0337008a033700dd
:10917c0089033700880337008703370086033700dd
:10918c0085033700840337008303370082033700dd
:10919c0081033700800337007f0337007e033700dd
:1091ac007d0337008003370022cd02000000000051
:1091bc000004e00013003a00ace2020000000000e2
:1091cc000004e000bf103200d0c0b3005cd5020038
:1091dc000000000041c0b30080f8210071489800e5
:1091ec000000eb0060fc8800c012200070fc8800be
:1091fc0081df21002140900064404000a040980095
:10920c00b0103700aaf42100b8fb80000800e00081
:10921c0064003a002a6890000004e00012003a0052
:10922c00ace20200000000000004e000a5103200d7
:10923c00d0c0b3005cd502000000000041c0b300f8
:10924c0080f821007148980068fc8800c01220004a
:10925c0070fc880081df21002140900064404000b8
:10926c00a0409800971037000840780084950200c1
:10927c0000000000006221009040780050c7b3004d
:10928c0080cf5000030032006d40500080cf500062
:10929c0025003a00e2ec2200124090000004e000ad
:1092ac002100320018419800286d9800ace20200b1
:1092bc00000000000004e0000500320081df210006
:1092cc002140900068404000a04098007d1037007d
:1092dc0089df2100f0fd22001004e0000e003a00ae
:1092ec00d0c0b3005cd502000000000081c0b30008
:1092fc0080f8210071489800a0e6200060fc8800ee
:10930c00c012200070fc8800294090006c40400086
:10931c00a04498006b103700294090006e4040002c
:10932c00a044980067103700b0c6b30080cf50003f
:10933c0064103a00e1ec2200114090000004e000bf
:10934c00601032000040eb009040980089df210053
:10935c00f0fd22001004e0000e003a00d0c0b30073
:10936c005cd502000000000081c0b30080f8210031
:10937c0071489800a0e6200060fc8800c012200014
:10938c0070fc8800294090006c404000a04498007c
:10939c004c103700294090006e404000a0449800cb
:1093ac00481037008004eb0049fa880000f82100cf
:1093bc0018c0b3002840980038409800785d980099
:1093cc000080eb008080eb00b0fa8800c1fa8800c6
:1093dc0000fb800011fb8000e20f4000e08f580082
:1093ec0025003c003a5090000004e00003003200dd
:1093fc00c08d80000008a30003003a00c08d8000df
:10940c000008a3002f103a007a8702000000000029
:10941c000004e0000600320011c0b300a00b2300d2
:10942c00014878000040eb00849502000000000029
:10943c00d0c0b3005cd502000000000041c0b300f6
:10944c0080f82100714898000000eb0060fc880057
:10945c00c012200070fc880011c0b30060f821001d
:10946c000148780081df2100214090000040e80095
:10947c00a0409800131037007a870200000000000b
:10948c000004e00005003200a00b2300084878001f
:10949c00094078008495020000000000d0c0b300a1
:1094ac005cd502000000000041c0b30080f8210030
:1094bc007148980069fc8800c012200070fc88007c
:1094cc0081df2100214090000040e800a04098007e
:1094dc00fc0f3700c0fc80000028a300f90f3200fd
:1094ec0060f821000048eb0000fb800011fb8000bd
:1094fc00e20f4000e08f580011003c0010002000eb
:10950c0040fa880020fb800031fb8000e00f500007
:10951c00e08f5800030034004006b0008040eb00a0
:10952c00020037008040eb00007122002acd0200bf
:10953c000000000011c0b30050f821000148780071
:10954c00a80b230012c0b300984f11000600320084
:10955c007a870200000000000004e00005003200e1
:10956c0010c0b300004c78000040eb008495020062
:10957c000000000081df2100214090000040e80045
:10958c00a0409800cf0f3700a80b230013c0b300e6
:10959c0098cf1100060032007a870200000000000c
:1095ac000004e0000500320010c0b300004c78004d
:1095bc000040eb00849502000000000000f8210040
:1095cc001004e000bf0f3a008000eb0041fa880065
:1095dc0050f821000148780081df210021409000e3
:1095ec000040e800a0409800b60f3700a80b2300fd
:1095fc0014c0b300984f1200060032007a870200a4
:10960c00000000000004e0000500320010c0b300b0
:10961c00004c78000040eb00849502000000000034
:10962c00c0fc80000038a300a60f320081df2100af
:10963c00214090000040e800a0409800a10f3700a6
:10964c00a80b230015c0b30098cf120006003200ff
:10965c007a870200000000000004e00005003200e0
:10966c0010c0b300004c78000040eb008495020061
:10967c0000000000c0fc80000028a300910f3a00fd
:10968c0081df2100214090000040e800a0409800bc
:10969c008c0f3700a80b230010c0b300984f10009c
:1096ac0004003a0071c0b30080df21002140980013
:1096bc000a0037007a870200000000000004e00076
:1096cc000600320010c0b300004c780081df21008e
:1096dc00214090000040e800a04098000040eb00c2
:1096ec0084950200000000006e860200000000005d
:1096fc000004e000730f32007a87020000000000c3
:10970c000004e0006f0f320000f8210030409000a0
:10971c000004e0001d003200a0f421003050900045
:10972c000004e00019003a00c08d80000008a3007e
:10973c001600320089df2100f0fd22001004e00049
:10974c000e003a00d0c0b3005cd50200000000004f
:10975c0081c0b30080f8210071489800a0e6200079
:10976c0060fc8800c012200070fc8800294090002a
:10977c0065404000a0449800520f370029409000eb
:10978c0067404000a04498004e0f370000f82100bd
:10979c00204090000004e00009003200ace202001e
:1097ac00000000000004e000460f320081df2100c1
:1097bc00214090000040e800a0409800410f370085
:1097cc0081df2100214090000040e800a04098007b
:1097dc003c0f37000040eb008495020000000000b5
:1097ec006e860200000000000004e000350f32001d
:1097fc007a870200000000000004e000310f320004
:10980c0081df2100214090000040e800a04098003a
:10981c002c0f370021ed220041709000e24f5000d8
:10982c0002003a000040eb00c070980010c0b3007a
:10983c008495020000000000c284020000000000b9
:10984c000004e0000400320081df21002140900080
:10985c000040e800a04098000062210030f0910028
:10986c000004e000170f3a00ace202000000000018
:10987c000004e000130f3a00f0372000d4d10200ae
:10988c00000000000f0f37003a87020000000000b4
:10989c000004e00006003200ce9b02000000000035
:1098ac0081df2100214090000040e800a04098009a
:1098bc000062210030f091000004e000010f3a003a
:1098cc00ace20200000000000004e000fd0e3a00d3
:1098dc00f0372000d4d1020000000000f90e370050
:1098ec007a870200000000000004e000f50e320050
:1098fc000062210070d09000e14f500016003a0039
:10990c0089df2100f0fd22001004e0000e003a0077
:10991c00d0c0b3005cd502000000000081c0b300d1
:10992c0080f8210071489800a0e6200060fc8800b7
:10993c00c012200070fc8800294090000040e80014
:10994c00a0449800df0e370029409000634040008f
:10995c00a0449800db0e3700e34f500024003a007f
:10996c0090028100e10f50000b003a00804078001b
:10997c00000520006682020000000000200020008c
:10998c009002890081df210021409000634050004b
:10999c00a0409800cb0e370089df2100f0fd22009b
:1099ac001004e0000e003a00d0c0b3005cd50200f9
:1099bc000000000081c0b30080f8210071489800bd
:1099cc00a0e6200060fc8800c012200070fc88001b
:1099dc00294090000040e800a0449800b90e3700e0
:1099ec002940900063404000a0449800b50e370019
:1099fc00e24f500031003a0090028100e10f50001c
:109a0c000b003a00804078000000eb0066820200f8
:109a1c0000000000200020009002890081df21005e
:109a2c002140900063405000a0409800a50e3700e4
:109a3c00e20f50000b003a008040eb0000052000c4
:109a4c0066820200000000003000200090028900b5
:109a5c0081df21002140900063405000a04098001d
:109a6c00980e370089df2100f0fd22001004e00081
:109a7c000e003a00d0c0b3005cd50200000000001c
:109a8c0081c0b30080f8210071489800a0e6200046
:109a9c0060fc8800c012200070fc880029409000f7
:109aac000040e800a0449800860e37002940900042
:109abc0063404000a0449800820e3700e44f5000f1
:109acc0031003a0090028100e10f50000b003a0087
:109adc00804078000000eb0066820200000000006d
:109aec00200020009002890081df2100214090009d
:109afc0063405000a0409800720e3700e20f5000f7
:109b0c000b003a008040eb0020032000668202002c
:109b1c0000000000300020009002890081df21004d
:109b2c002140900063405000a0409800650e370023
:109b3c0089df2100f0fd22001004e0000e003a0045
:109b4c00d0c0b3005cd502000000000081c0b3009f
:109b5c0080f8210071489800a0e6200060fc880085
:109b6c00c012200070fc8800294090000040e800e2
:109b7c00a0449800530e37002940900063404000e9
:109b8c00a04498004f0e3700e54f50004d0e3a00a0
:109b9c0090028100e10f50000b003a0080407800e9
:109bac00200320006682020000000000200020003c
:109bbc009002890081df2100214090006340500019
:109bcc00a04098003f0e370089df2100f0fd2200f5
:109bdc001004e0000e003a00d0c0b3005cd50200c7
:109bec000000000081c0b30080f82100714898008b
:109bfc00a0e6200060fc8800c012200070fc8800e9
:109c0c00294090000040e800a04498002d0e370039
:109c1c002940900063404000a0449800290e370072
:109c2c0010c0b30061f821008048780022cd0200fa
:109c3c00000000000004e00046003200b0fb800091
:109c4c00e10f500043003a006000b800b0fa880001
:109c5c00c1fa8800828b8100938b8100e00f510048
:109c6c00e08f5900040035000200be00562d0200a2
:109c7c00000000000b0037006100610001002000b3
:109c8c008301d1000281d300020070008380700038
:109c9c00562d0200000000000001be00ae2d020097
:109cac000000000002002400c3612400682e0200a2
:109cbc00000000000004be00628b8100738b8100e9
:109ccc00e00f5100e08f5900040035000200be0087
:109cdc00562d0200000000000c003700608b810044
:109cec0061006000010020008301d1000281d300db
:109cfc000200700083807000562d020000000000ee
:109d0c000001be00ae2d0200000000000001be00ec
:109d1c000800be00ec2e020000000000020024002f
:109d2c00c3612400682e020000000000542f0200c2
:109d3c00000000000001be0011c0b300020078005a
:109d4c002acd02000000000011c0b30050f8210021
:109d5c0001487800c0fc80000048a300d90d3200f7
:109d6c0081df2100214090000040e800a0409800d5
:109d7c00d40d3700c0fc80000028a300d10d3a00a0
:109d8c0089df210022cd0200000000000004e00069
:109d9c00040032002940900000c0e800a044980064
:109dac00c80d37002940900063404000a044980043
:109dbc00c40d370022cd0200000000000004e000ba
:109dcc004a003200b0fb8000e10f500043003a0023
:109ddc006000b800b0fa8800c1fa8800828b81005c
:109dec00938b8100e00f5100e08f59000400350087
:109dfc000200be00562d0200000000000b003700d0
:109e0c0061006100010020008301d1000281d300b8
:109e1c000200700083807000562d020000000000cc
:109e2c000001be00ae2d0200000000000200240064
:109e3c00c3612400682e0200000000000004be0074
:109e4c00628b8100738b8100e00f5100e08f590011
:109e5c00040035000200be00562d02000000000078
:109e6c000c003700608b8100610060000100200055
:109e7c008301d1000281d300020070008380700046
:109e8c00562d0200000000000001be00ae2d0200a5
:109e9c00000000000001be000800be00ec2e020015
:109eac000000000002002400c3612400682e0200a0
:109ebc0000000000542f0200000000000001be0052
:109ecc0011c0b300020078002acd0200000000008f
:109edc0011c0b30050f821000148780081df210047
:109eec00214090000040e8000300370081df210092
:109efc002140900000c0e800a040980000f821002c
:109f0c001004e0006f0d3a0050f821000048eb00ff
:109f1c0081df2100214090000040e800a040980023
:109f2c00680d370060f821000048eb0011c1b30048
:109f3c0080df210021409800620d3700a0f4210041
:109f4c002068900089df2100e14f500006003a00a4
:109f5c00ce9b020000000000294090000040e80069
:109f6c00a0449800570d370030c1b300a0449800ae
:109f7c00540d370094890200000000000004e0003a
:109f8c00500d320081df2100214090000040e8009c
:109f9c00a04098004b0d37008040e80080df210086
:109fac0021409800470d3700f10b2300b00b230024
:109fbc00b2c0b300904f110002003a00024078008a
:109fcc000100370040c0b300804878008040eb00af
:109fdc0020ed2200017898003a0d37008040eb000c
:109fec0020ed220001789800360d3700300020005b
:109ffc001086890088df2100184090000004e000e2
:10a00c0003003200e14f50002e0d3a0002003700e1
:10a01c0069f207002b0d37000000eb0034f207004b
:10a02c00284090000081fb0003002000ee0f51003f
:10a03c00e08f590043013e00026001000e00370022
:10a04c002d00370084003700830037008200370072
:10a05c00810037008000370083003700a0003700f4
:10a06c00a4003700b0003700be003700ca0037002c
:10a07c00d5003700dc0037000041eb00a0f42100d4
:10a08c002268980060f82100024878008000eb00fc
:10a09c0041fa8800a00b23000148780040f8210009
:10a0ac0002487800d0d1020000000000210d2000f1
:10a0bc00810f500004003a0081df21002140900004
:10a0cc006d4040000a003700948902000000000037
:10a0dc000004e0001c01320011c0b30020ed22008e
:10a0ec0001e8980081df2100214090000040e80049
:10a0fc00a04098001401370021ed220001e89000e7
:10a10c00e14f400010013a000041eb0082e898005a
:10a11c00b00b2300b3c0b30021c0b30090cf11002b
:10a12c004e003a00a015210010407800e14f50007d
:10a13c001a003a000001eb00228b88006000b80086
:10a14c00508b8800618b8800708b8800818b880015
:10a15c0002047800e920220008007800fac302000b
:10a16c00000000000000e00006003200884078008b
:10a17c0010c0b300946a02000000000000c8b300d5
:10a18c00804c78000804e8002904b000000220008c
:10a19c00800f540025003200efff3700e24f5000d3
:10a1ac000c003a006000b800508b8800618b88006e
:10a1bc00708b8800818b880010c0b3005cd50200c6
:10a1cc000000000001c8b30080f82100714898001d
:10a1dc0016003700e64f500009003a00c015210068
:10a1ec004248980010c0b300fedb020000000000e3
:10a1fc0081c0b300a0ec2100114098000b00370087
:10a20c00e84f500009003a00c01521000258980090
:10a21c006000b800508b8800618b8800708b8800c0
:10a22c00818b88007ecd02000000000061c2b3006b
:10a23c00b0fe220001487800b1c0b300f00b23003f
:10a24c000148780002d202000000000052ca02004d
:10a25c0000000000bc0037008040e80080df2100d7
:10a26c0021409800b800370080022000fac3020099
:10a27c00000000000000e00007003a0080e321002d
:10a28c001004e00004003a0081df2100214090001e
:10a29c006640400096ff3700c0fc8000010c2e0089
:10a2ac00010060002b003a00d0fc800063006000cd
:10a2bc0028003a00d0c0b3005cd5020000000000ba
:10a2cc0081c0b30080f8210071489800a0e62000fe
:10a2dc0060fc8800c012200070fc880081ff3700f1
:10a2ec00c0fc800091c0b3000048a300dbff3a0023
:10a2fc0095003700c1fc80000128a30002003a0041
:10a30c00a1c0b300d5ff3700000c2e000080600008
:10a31c0003003a00d0fc8000630060008a00320029
:10a32c00c1c0b300cdff3700c0fc8000010c2e0073
:10a33c000100600003003a00d0fc80006300600064
:10a34c0004003200ace20200000000000004e00057
:10a35c0064ff3a0081df21002140900063404000ff
:10a36c0063ff3700c0fc80000008a30007003a0020
:10a37c0010c0b3005cd502000000000001c8b3009f
:10a38c0080f82100714898006f003700d2d7020086
:10a39c000000000053ff37004ed802000000000000
:10a3ac000000e0004fff3a00c0fc8000010c2e00c2
:10a3bc00010060004bff3a00d0fc8000630060009d
:10a3cc006100320047ff37003c84020000000000af
:10a3dc0021ed220010c0b300c0c898000040eb0073
:10a3ec00c0f098003fff37007092020000000000a0
:10a3fc00fede0200000000000004e0000e0032004f
:10a40c0006df020000000000fede0200000000007b
:10a41c000004e0002c003200a8ec2100c0f7800002
:10a42c00d1f7800004002800840f5000e08f580002
:10a43c0025003200100037002cc302000000000081
:10a44c00804078000004e000220032002cc302009f
:10a45c00000000000004e0001b003200a8ec21000a
:10a46c00c0f78000d1f7800005002800850f500050
:10a47c00e08f580014003200a200200003002000de
:10a48c00362d0200000000000001be002860900084
:10a49c000080fb0001002000800f5100818f5900cb
:10a4ac0009003600386090000080fb00010020009d
:10a4bc00800f5100818f590003003e0010c0b30083
:10a4cc0070749800060037008040eb00a0ec21006f
:10a4dc0002003700a0ec21006170980071709800a8
:10a4ec00e00b23001004e0001700320086d20200bb
:10a4fc00000000000000e0001300320021ed2200fb
:10a50c0041f090000004e00003003a0010c0b300da
:10a51c00c0f098000c003700e14f40000a003a00f0
:10a52c000040eb00c0f0980011c0b300701c21007b
:10a53c000148780031c0b300f00b230001487800cb
:10a54c0001003700ffff3700d0d1020000000000ef
:10a55c0071382000810f500008003a0021ed2200d4
:10a56c0041489100e14f400004003a000040eb00ec
:10a57c00c04899000004040000000000e0ec220038
:10a58c00104090000004e000ce0b3200006221006d
:10a59c001041780050c6b300804f510004003200c7
:10a5ac0065404000804f510012003a00090037000e
:10a5bc0031c0b300f00b230001487800b00b23002e
:10a5cc00b1c0b30090cf10000a003a0002487800e6
:10a5dc000800370071c0b300f00b2300014878006d
:10a5ec00b00b2300b2c0b300904f110001003a0031
:10a5fc00014878008040eb00e0ec2200114098000c
:10a60c00b00b3700100020001086890080df21007d
:10a61c00104190000204e00003003200e14f5100b1
:10a62c00a80b3a0008003700e00b23000248780022
:10a63c000000eb000086890002840200000000008c
:10a64c00ddf007009f0b370023ed220003f0900094
:10a65c000004e0000e003200e14f40000d003a0013
:10a66c00008681000000e8000086890071702000df
:10a67c00810f500006003600701c21000248780043
:10a68c0031c0b300f00b2300014878000100370003
:10a69c0082f1980089df210029409000e14f5000a1
:10a6ac005b02320003003900e34f5000850b3e0083
:10a6bc0048053700e0ec2200104090000004e00058
:10a6cc004e023200006221009040780050c6b30068
:10a6dc0080cf500002003a0031c0b300e2003700d6
:10a6ec0040c9b30000c04000e14f50001b003600d1
:10a6fc00e0c6b30080cf50000f003a008000eb00a2
:10a70c000186890050dc21000148780011ee880098
:10a71c0010dc21000148780000dc210001487800a1
:10a72c0052ca020000000000294090000040e800de
:10a73c00a04498002c02370060cbb30080cf5000af
:10a74c0006003200e0cab30080cf50000300320094
:10a75c0030cbb30080cf50000b003a008000eb00f0
:10a76c000186890050dc21000148780011ee880038
:10a77c0010dc21000148780000dc21000148780041
:10a78c0010c0b300eaff370040ccb30080cf5000bc
:10a79c0009003a00b0fe22000048eb00b1c0b30043
:10a7ac00f00b23000148780071c0b300b00b2300fc
:10a7bc00014878000c0237000180fb0001002000ea
:10a7cc00e009b1000180b100fa0f5000e08f580091
:10a7dc0005023e00006001001a0037001e00370021
:10a7ec00010237007e0037007d003700250037005e
:10a7fc00fd013700fc013700fb013700fa0137007f
:10a80c00f9013700f801370078003700b300370042
:10a81c00f50137006d003700f301370032013700c6
:10a82c0045013700f001370049013700ee013700d0
:10a83c00ed01370091013700eb013700ea013700d9
:10a84c00de0137000000eb00008689000c9202004c
:10a85c0000000000060037003c84020000000000ed
:10a86c000000eb00008689003e9202000000000010
:10a87c0081df2100214090000040e800a0409800ba
:10a88c00d9013700fede0200000000000004e000e9
:10a89c0011003200c0f78000d1f7800003002800bf
:10a8ac00830f5000e08f58000b003200a2002000f4
:10a8bc0003002000362d020000000000a2ec210055
:10a8cc00226190000281fb0003002000820f5000e7
:10a8dc00838f5800150036002cc3020000000000c6
:10a8ec000004e00018003200c0f78000d1f78000af
:10a8fc0004002800840f5000e08f58001200320032
:10a90c00a200200003002000362d020000000000f1
:10a91c00a2ec2100226190000281fb0003002000c8
:10a92c00820f5000838f580007003e003038200003
:10a93c00d4d102000000000081df210021409000f2
:10a94c0000c0e800cdff370080022000fac30200ef
:10a95c0000000000800078000000e00004003a00d5
:10a96c0080e3210015c0b30090cf120013003a0011
:10a97c00006221001040900089df2100e14f50005f
:10a98c0004003a00c0fc80000038a30003003a0029
:10a99c00070037000004e00005003a000000eb005f
:10a9ac00008689001a8d0200000000005eff37004f
:10a9bc002940900000c0e8005dff37000186890047
:10a9cc001a8d020000000000a9ff37000000eb0008
:10a9dc00008689000e8e020000000000a4ff3700e4
:10a9ec000000eb00008689007c0137008004eb003e
:10a9fc00098689000062210060d49000e24f540067
:10aa0c001b00320003003e000804e0000600320088
:10aa1c0075013700e34f540024003200e44f54001a
:10aa2c0071013a0026003700d0c0b3005cd502009b
:10aa3c000000000081c0b30080f82100714898002c
:10aa4c00a0e6200060fc8800c012200070fc88008a
:10aa5c00f0fd220009487800e0fd22001004e0001f
:10aa6c006101320041c0b300f00b230050ff3700ee
:10aa7c00d0c0b3005cd502000000000041c0b300a0
:10aa8c0080f821007148980069fc8800c0122000f1
:10aa9c0070fc8800f0fd220008487800e0fd2200e0
:10aaac001004e00050013200efff3700d0c0b300bb
:10aabc005cd502000000000001c2b30004003700a6
:10aacc00d0c0b3005cd502000000000001c4b3008c
:10aadc0080f821007148980043013700fede020027
:10aaec00000000000004e00011003200c0f78000fc
:10aafc00d1f7800002002800820f5000e08f580030
:10ab0c000b003200a200200003002000362d0200b2
:10ab1c0000000000a2ec2100226190000281fb00e9
:10ab2c0003002000820f5000838f58001500360060
:10ab3c002cc30200000000000004e00018003200ea
:10ab4c00c0f78000d1f7800003002800830f50006d
:10ab5c00e08f580012003200a200200003002000f9
:10ab6c00362d020000000000a2ec210022619000b2
:10ab7c000281fb0003002000820f5000838f5800dd
:10ab8c0007003e0030382000d4d102000000000045
:10ab9c0081df2100214090006340400037ff3700e7
:10abac000000eb00008689000c6221003cd3900071
:10abbc000684fb00a39b2100c543dd00708143008c
:10abcc00030141009280fb00124090004800dd0020
:10abdc0001027000a24090008180fb003240900086
:10abec004800dd0081027000ec8343008383430046
:10abfc009780fb00174090004800dd0001017000b9
:10ac0c00a74090008180fb00374090004800dd0099
:10ac1c00810170004a1d22002b0420000bc4b900d6
:10ac2c000804450018009000a8009000607f020006
:10ac3c00000000003cd190000280fb000b80b900aa
:10ac4c0080007800a003b00060007d0000a8a30085
:10ac5c0007ff32000a8040001040900000c0e9005d
:10ac6c00e14f50000b003e0082407800f0c0b30072
:10ac7c00946a0200000000003cd090000080fb00b1
:10ac8c000b80b9000000450042c0b3002278980048
:10ac9c00f7fe37008240780060c0b300946a02006f
:10acac00000000003cd090000080fb000b80b9003d
:10acbc008a01400042c0b300a279980068014000ac
:10accc0062017d00b2019800030a9000930a900083
:10acdc00e4019800f50198007600400060057d00c5
:10acec00aa099800e2fe370018c0b30080df2100eb
:10acfc002840980040b502000000000050dc210004
:10ad0c000048eb008000eb0011ee880010dc210005
:10ad1c000148780000dc210001487800d00b2300aa
:10ad2c0001487800c00b230001487800401c21002a
:10ad3c0008487800ac00370022cd0200000000006b
:10ad4c0081c0b3000004e00095fe3a00a600370075
:10ad5c00fede0200000000000004e000c4fe320031
:10ad6c00c285810060f68000e027b2000f0032003f
:10ad7c000200e00013003a0011c0b30020ed2200e5
:10ad8c00414099000286890040c1b300fedb0200fd
:10ad9c000000000041c0b300a0ec2100114098005d
:10adac0010002000c0858900060037000200e0007a
:10adbc0004003a0081df2100214090000040e800af
:10adcc00a040980060f68000800078000108b20076
:10addc000d003200c8858100e10f54000a003a00d2
:10adec0020002000c085890008407800fedb0200ae
:10adfc0000000000a0ec21001840980020ed22007b
:10ae0c0048409900780037000088a3000800320001
:10ae1c00c0858100e10f500005003a008000eb0076
:10ae2c00c185890020ed22004140990007003700c0
:10ae3c0022ed220042409100e14f400007003a0011
:10ae4c000000eb00c08589004041990000382000cb
:10ae5c00d4d102000000000085fe37000100e000a4
:10ae6c0061003a00c0858100e20f50005e003a009c
:10ae7c00c1858900414199007dfe370006dc210027
:10ae8c0015dc210054dc210089df2100a3db21002b
:10ae9c00134190000204e0003a003a0011c0b300e4
:10aeac00a1449800024a78000000eb0010ee8800e4
:10aebc00804a7800024b7800d00b230002487800bf
:10aecc00401c21000148780013407800e44f5000ea
:10aedc001d00320008003e00814f5000110032006e
:10aeec000d003900e24f500011003200e34f5000ca
:10aefc003d003a0011003700e64f500018003200b8
:10af0c0014003900e74f500018003200e84f500091
:10af1c0035003a001800370040b502000000000070
:10af2c0031003700beb50200000000002e003700d3
:10af3c00e2b50200000000002b00370006b602004c
:10af4c0000000000280037001eb6020000000000c0
:10af5c002500370020b60200000000002200370058
:10af6c002ab60200000000001f00370012b60200d3
:10af7c00000000001c00370034b602000000000086
:10af8c001900370010c0b300a04498000000eb007b
:10af9c0000868900004a780010ee8800804a78000c
:10afac00004b780035c0b30093cf12000e003a006e
:10afbc0052ca0200000000000b0037000000eb003a
:10afcc000086890091c0b300f00b23000148780083
:10afdc0071c0b300b00b23000148780011c0b3005e
:10afec0080df210021409800c18581000100e00034
:10affc0002003a00e0ec220011409800b68e0200ec
:10b00c0000000000468f0200000000002d093700f0
:10b01c00b68e020000000000468f02000000000007
:10b02c000362210093407800f2cab30082cf500033
:10b03c00ce0032000f003e00d0c6b30080cf5000cf
:10b04c003400320004003e000040e90080cf500084
:10b05c00d4023a0016003700e0c6b30080cf50008f
:10b06c0044003200e0cab30080cf5000cd023a0059
:10b07c006e00370050cbb30080cf50007a01320005
:10b08c0004003e0000c0e90080cf5000c5023a0029
:10b09c009000370060cbb30080cf50004c003200e2
:10b0ac006c40400080cf5000be023a009c0037003c
:10b0bc00b3d0900043d09000feb30200000000001b
:10b0cc008040780060dc210001487800e1cf50001e
:10b0dc000a003a00ccb802000000000041dc21005c
:10b0ec0080487800e14f5000f6083a002940900063
:10b0fc000040e800a0449800f2083700e2cf50006e
:10b10c00f0083a002940900000c0e800a0449800e4
:10b11c00ec08370033d090005cb402000000000053
:10b12c008040780060dc210001487800e1cf5000bd
:10b13c000a003a0038b902000000000041dc21008e
:10b14c0080487800e14f5000de083a00294090001a
:10b15c000040e800a0449800da083700e2cf500025
:10b16c00d8083a002940900000c0e800a04498009c
:10b17c00d4083700aab40200000000008040780018
:10b18c0060dc210001487800e1cf50000a003a0051
:10b19c007eb802000000000041dc210080487800ed
:10b1ac00e14f5000c7083a00294090000040e800e9
:10b1bc00a0449800c3083700e2cf5000c1083a0001
:10b1cc002940900000c0e800a0449800bd0837005a
:10b1dc00fcb40200000000008040780060dc21001c
:10b1ec0001487800e1cf50000a003a00feb7020097
:10b1fc000000000041dc210080487800e14f500045
:10b20c00b0083a00294090000040e800a0449800a3
:10b21c00ac083700e2cf5000aa083a002940900051
:10b22c0000c0e800a0449800a60837004cb6020005
:10b23c00000000000044780060dc21000848780021
:10b24c00e14f54001d003a00d0b70200000000008e
:10b25c00128b8100238b8100e00f5100e08f59008d
:10b26c0009003a00c0d4210001002000608b890045
:10b27c00718b890010002000b0fb880022fb880035
:10b28c0033fb8800080037000000eb00b0fb88009f
:10b29c0000f8210028409800100020000100200038
:10b2ac0020fb880031fb880081df210021409000c9
:10b2bc000040e800a040980082083700e24f54009c
:10b2cc0080083a002940900000c0e800a044980093
:10b2dc007c0837009eb60200000000008040780019
:10b2ec0060dc210001487800e1cf500006003a00f4
