:020000040000fa
:080000007e2c0400000000004a
:020000040000fa
:1058fc004fc22200807f24000001880000000000bd
:10590c000a00070011000700000020000000e00062
:10591c00020032000000020000000000ccea02008d
:10592c00000000000040da000000fe004440a90026
:10593c00406220000000e000030032000000200064
:10594c00a00188004440a8000000060020e02e00c2
:10595c00010020001600370062004000e080480083
:10596c00910188009001ba0062004000e08048007c
:10597c00910188009002ba0062004000e08048006b
:10598c000002eb006028e10005003a008301e90009
:10599c0007003300038009000059eb0004003700b6
:1059ac006128e100010032000082eb0005000700d5
:1059bc00910188001001ba000200e000e6ff3a00f5
:1059cc000000050091018800800278006200400010
:1059dc00e08048003559ba008301e9000800320024
:1059ec002559ba008301e900050032000400e000eb
:1059fc00f4ff320015d9ba008301e900f1ff3a0037
:105a0c000000060040d104000000000058d2040041
:105a1c000000000014e3040000000000c4e40400d3
:105a2c000000000072dc0400000000006cdd0400cb
:105a3c0000000000126f040000000000e07404007d
:105a4c00000000008001eb0002003700817178003b
:105a5c008301e800828f5100fcff3a000000060031
:105a6c006022b800060220000000d0008180d20025
:105a7c000482d2008582d2000000a00002025200f3
:105a8c0083825a00030031000202420083824a00e2
:105a9c000000a1000603e900f3ff3a000000060035
:105aac00889fbe008a9fbe00010578000100e000bf
:105abc000400350008003c000000e000200032002b
:105acc000500370060001000e080180002003b0069
:105adc0001f02c001a0037000004be006011b80061
:105aec006b0920000982cf00020039000882cf0028
:105afc000441b000694252000e00320008003b0025
:105b0c0082817100610164008904d1000884d30092
:105b1c008b05e8000442e800f9ff3a000500370065
:105b2c000804440089844c008b05e9000442e90018
:105b3c00fbff3a00500107000af0a70001f0a0009b
:105b4c004f05be004f04be000000060003f0a2008b
:105b5c00889fbe008a9fbe008c1f78006c010700d6
:105b6c00730133006450e1004f0032006420e10007
:105b7c005200320003826c0007003b000905d00084
:105b8c000306d000820f54000c065d0002003900a1
:105b9c0002003200890178000306780085825500e6
:105bac0004003d000003fd008103fd008502ea00b6
:105bbc008b854200840f720002003b0060001000d5
:105bcc00e08018006011b8000005eb007a28e100b5
:105bdc000a00390006007800c75ddd00f707b20047
:105bec00878075002d003700828171000a017800d2
:105bfc00610560008180d1000080d3008502e9003e
:105c0c00f9ff3b00060440008784480002003b007b
:105c1c0060041400e0841c000988a3000700320013
:105c2c008a81710082817100610164008904d10054
:105c3c000884d3008b05e800170037000978a3000f
:105c4c0013003a000b00e000130034008b05e90050
:105c5c000804440089844c000a4474000978a300a9
:105c6c000d003a000b00e000070034008b05e90042
:105c7c000804440089844c0001003a000b00200009
:105c8c000978a300f7ff32000001eb000200370097
:105c9c00828171000a017800f70007000cf0a70060
:105cac0001f0a0002b0137006420e10002003a0053
:105cbc00838f6c002b0133000801be000200be0074
:105ccc0024013700889fbe008a9fbe008c1f78007d
:105cdc000f0107001601330003866c006450e100cd
:105cec002e0032006420e100330032006150e100ec
:105cfc002f0032006120e100310032008585550013
:105d0c00eb07b00009002000080420000500370054
:105d1c000804440089844c000a0031000603430047
:105d2c0087834b000001530081815b00f8ff330037
:105d3c000203be000800a0000804440089844c0043
:105d4c00f6ff3900c639dd00830173000100320013
:105d5c00130020008904d1000884d3000998a30003
:105d6c00050032000800a7000300a0008904d10040
:105d7c000884d3008b05e8008904d1000884d30083
:105d8c000001eb000281d200bb00070001f0a10072
:105d9c000cf0a70001f0a000ee0037006420e10039
:105dac00f00032000801be000200be00f7ff370011
:105dbc006120e100eb0032006000b800f3ff370017
:105dcc000000200001f82700f0ff3700889fbe007c
:105ddc008a9fbe008c1f7800cd000700d4003300d2
:105dec0003866c006450e100240032006420e10062
:105dfc00270032006150e100220032006120e100f6
:105e0c00210032008b854200eb07b1000134b80051
:105e1c00003ab8000804420089844a00013ab800ec
:105e2c000030b8008880400009014a0004003300ab
:105e3c000000400081804800020149008b05e90008
:105e4c00c909dd008301700001003200130020003d
:105e5c00c814de004814dd004709de001200b20051
:105e6c00c808de00088470008300070001f0a10060
:105e7c000cf0a70001f0a000b60037006120e10093
:105e8c00b80032000801be000200be00f7ff370068
:105e9c006150e100fcff3a00b20037000001be0087
:105eac00b30007000470a70003f0a10003f8a300df
:105ebc0013003a006509b1001000320009003500ea
:105ecc006928e100020035000100280000000500ef
:105edc0000004000818048008502e900fcff3a0088
:105eec0000000600f88f4200050035008100d1004b
:105efc000080d3008502e800fcff3a000000060099
:105f0c008000eb00000005000001be0098000700b7
:105f1c000470a70003f0a1006509b100160032005f
:105f2c000d0035006828e10006003500f0ff2f0059
:105f3c00f1ff27000300e00013003b0001002800e4
:105f4c000000050000004000818048008502e90047
:105f5c00fcff3a0008003700f88f420002003c00ba
:105f6c008000eb00000005008100d1000080d30010
:105f7c008502e800fcff3a000300e00002003b0051
:105f8c0060001000e08018000000060014002000e3
:105f9c008c0037000001eb00a50007000400320064
:105fac000200200003f8230001f0a700e7fe070021
:105fbc00000006000001eb009d0007000400320009
:105fcc000200200003f8230001f0a600e0fe070009
:105fdc0000000600f4ff2f007a003700839f680052
:105fec000100e00002003d0060001000e08018009d
:105ffc000300e00002003d0060011100e081190087
:10600c0097fe07004f00e00002003b00600010000c
:10601c00e080180000000600811f78000100e000fd
:10602c0002003d0060001000e08018000300e0005a
:10603c0002003d0060011100e0811900050007001d
:10604c004f00e00002003b0060001000e0801800f0
:10605c000000060082fe07000400be0000000600df
:10606c00020ab900001bb9000200b800810042000e
:10607c008100430000000600810020006180550073
:10608c000b003d000b00200061fe2f000100e10021
:10609c001d00340082817100610164008904d1000b
:1060ac000884d3000000e800faff3a0071002000d9
:1060bc0061006400030070000200600009003200ff
:1060cc0061044400e0844c000988a50005003200fe
:1060dc008b05e8006808e10002003a008904d10051
:1060ec000884d300f20f20000258e10005003d00a7
:1060fc00c75ddd00f907b2008980750008007800e3
:10610c00000006000bf827008b007800000005004b
:10611c000004be00160007000003be000405be000c
:10612c000200be0012000700844f7500000006003c
:10613c000200be006450e100050036006420e1005e
:10614c00020036000968a30001003a000800be00f6
:10615c000160a0004f0678004f05be004f04be0042
:10616c0000000600f0ff2f00f1ff2700f9ff3700b9
:10617c00c70ade00f107b200f50fb20008003200ca
:10618c00e1cf4200020032000170a00024000500a3
:10619c00810f700001003200040805004400050066
:1061ac00810f700002003a00140005008502e9001e
:1061bc000000400081c04800fcff3b000170a000c3
:1061cc0024000500889fbe008a9fbe00841f7800b3
:1061dc00cfff07004f00780011003300f0ff2f00b5
:1061ec00838f6c0006003b00040565000a00a700c5
:1061fc000800370009f0a600100020000800370046
:10620c00820f5400838f5c000300390010002000c3
:10621c0001003e000000200009f0a7000000ea0089
:10622c004f05be004f04be000000e0000000060059
:10623c00889fbe008a9fbe000003be00ccff0700f3
:10624c008505780082815200020020006220e10066
:10625c0004003a00f307b100040035007718e100a0
:10626c00040035000600be00140037006000b800c2
:10627c000f003700f50f2000faff2f008502d10028
:10628c000a85d3008301e900fcff3b008184620096
:10629c0000046500890f7400f2ff32008582ea0069
:1062ac000a85ea00818462000004650072ff070021
:1062bc0007f0a70001f0a0000081eb000200e00055
:0c62cc004f05be004f04be00000006009d
:020000040000fa
:020000040005f5
:0457f400ffff0000b3
:020000040000fa
:020000040005f5
:0457f800ae130000ec
:020000040000fa
:020000040005f5
:0457fc007f360000f4
:020000040000fa
:10000800742c0000742c0000742c0000742c000068
:10001800742c0000742c0000742c0000742c000058
:10002800742c0000742c0000742c0000742c000048
:10003800742c0000742c0000742c0000deec00000e
:10004800742c0000742c0000742c0000742c000028
:10005800742c0000742c0000742c0000742c000018
:10006800742c0000742c0000742c0000742c000008
:10007800742c0000742c0000742c0000742c0000f8
:10008800742c0000742c0000742c0000742c0000e8
:10009800742c0000742c000040b8000002b8000066
:1000a800742c0000742c0000742c0000742c0000c8
:1000b800742c0000742c0000742c0000742c0000b8
:1000c800742c0000742c0000742c0000742c0000a8
:1000d800742c0000742c0000742c0000742c000098
:1000e800742c0000742c0000742c0000742c000088
:1000f800742c0000742c0000742c0000742c000078
:10010800742c0000742c0000742c0000742c000067
:10011800742c0000742c0000742c0000742c000057
:10012800742c0000742c0000742c0000742c000047
:10013800742c0000742c0000742c0000742c000037
:10014800742c0000742c0000742c0000742c000027
:10015800742c0000742c0000742c0000742c000017
:10016800742c0000742c000060ce00001cce00002f
:10017800742c0000742c0000742c0000742c0000f7
:10018800742c0000742c0000742c0000742c0000e7
:10019800742c0000742c0000742c0000742c0000d7
:1001a800742c0000742c0000742c0000742c0000c7
:1001b800742c0000742c0000742c0000742c0000b7
:1001c800742c0000742c0000742c0000742c0000a7
:1001d800742c0000742c0000742c0000742c000097
:1001e800742c0000742c0000742c0000742c000087
:0801f800742c0000742c0000bf
:020000040000fa
:10020800742c0000742c0000742c0000742c000066
:10021800742c0000742c0000742c0000742c000056
:10022800742c0000742c0000742c0000742c000046
:10023800742c0000742c0000742c0000deec00000c
:10024800742c0000742c0000742c0000742c000026
:10025800742c0000742c0000742c0000742c000016
:10026800742c0000742c0000742c0000742c000006
:10027800742c0000742c0000742c0000742c0000f6
:10028800742c0000742c0000742c0000742c0000e6
:10029800742c0000742c000040b8000002b8000064
:1002a800742c0000742c0000742c0000742c0000c6
:1002b800742c0000742c0000742c0000742c0000b6
:1002c800742c0000742c0000742c0000742c0000a6
:1002d800742c0000742c0000742c0000742c000096
:1002e800742c0000742c0000742c0000742c000086
:1002f800742c0000742c0000742c0000742c000076
:10030800742c0000742c0000742c0000742c000065
:10031800742c0000742c0000742c0000742c000055
:10032800742c0000742c0000742c0000742c000045
:10033800742c0000742c0000742c0000742c000035
:10034800742c0000742c0000742c0000742c000025
:10035800742c0000742c0000742c0000742c000015
:10036800742c0000742c000060ce00001cce00002d
:10037800742c0000742c0000742c0000742c0000f5
:10038800742c0000742c0000742c0000742c0000e5
:10039800742c0000742c0000742c0000742c0000d5
:1003a800742c0000742c0000742c0000742c0000c5
:1003b800742c0000742c0000742c0000742c0000b5
:1003c800742c0000742c0000742c0000742c0000a5
:1003d800742c0000742c0000742c0000742c000095
:1003e800742c0000742c0000742c0000742c000085
:0803f800742c0000742c0000bd
:020000040000fa
:0c583c00deec040000000000000006008c
:020000040000fa
:0c58f0001cce04000000000000000600b8
:020000040000fa
:0c58dc0060ce0400000000000000060088
:020000040000fa
:0c58b40002b80400000000000000060024
:020000040000fa
:0c58a00040b804000000000000000600fa
:020000040000fa
:08581000050200000300000086
:020000040000fa
:0458040000000000a0
:020000040000fa
:1062d80001020000040800001020000040800000b7
:1062e8000100000002000000040000000800000097
:1062f80010000000200000004000000080000000a6
:106308000001000000020000000400000008000076
:106318000010000000200000004000000080000085
:10632800fefd0000fbf70000efdf0000bf7f00006c
:106338000102000004080000102000004080000056
:10634800f00f00000100000002000000040000003f
:1063580008000000100000002000000040000000bd
:10636800800000000001000000020000000400009e
:10637800000800000010000000200000004000009d
:106388000080000001000000000000000a0000007a
:10639800000000006400000000000000e8030000a6
:1063a800000000001027000000000000a086000088
:1063b80001000000404200000f000000809600002d
:1063c8009800000000000000c1c0000081c100006a
:1063d8004001000001c30000c0030000800200006b
:1063e80041c2000001c60000c0060000800700008e
:1063f80041c7000000050000c1c5000081c40000bd
:106408004004000001cc0000c00c0000800d00001a
:1064180041cd0000000f0000c1cf000081ce000078
:10642800400e0000000a0000c1ca000081cb000035
:10643800400b000001c90000c009000080080000ee
:1064480041c8000001d80000c018000080190000f1
:1064580041d90000001b0000c1db000081da000008
:10646800401a0000001e0000c1de000081df0000ad
:10647800401f000001dd0000c01d0000801c00005e
:1064880041dc000000140000c1d4000081d50000e8
:106498004015000001d70000c0170000801600005a
:1064a80041d6000001d20000c01200008013000095
:1064b80041d3000000110000c1d1000081d00000cc
:1064c8004010000001f00000c030000080310000e2
:1064d80041f1000000330000c1f3000081f2000028
:1064e8004032000000360000c1f6000081f70000cd
:1064f8004037000001f50000c0350000803400007e
:1065080041f40000003c0000c1fc000081fd0000d7
:10651800403d000001ff0000c03f0000803e000039
:1065280041fe000001fa0000c03a0000803b000074
:1065380041fb000000390000c1f9000081f80000ab
:106548004038000000280000c1e8000081e9000090
:106558004029000001eb0000c02b0000802a000049
:1065680041ea000001ee0000c02e0000802f00006c
:1065780041ef0000002d0000c1ed000081ec00009b
:10658800402c000001e40000c02400008025000029
:1065980041e5000000270000c1e7000081e6000097
:1065a8004026000000220000c1e2000081e3000054
:1065b8004023000001e10000c0210000802000000d
:1065c80041e0000001a00000c06000008061000000
:1065d80041a1000000630000c1a3000081a20000e7
:1065e8004062000000660000c1a6000081a700000c
:1065f8004067000001a50000c0650000806400003d
:1066080041a40000006c0000c1ac000081ad000096
:10661800406d000001af0000c06f0000806e0000f8
:1066280041ae000001aa0000c06a0000806b0000b3
:1066380041ab000000690000c1a9000081a800006a
:106648004068000000780000c1b8000081b900006f
:106658004079000001bb0000c07b0000807a000088
:1066680041ba000001be0000c07e0000807f00002b
:1066780041bf0000007d0000c1bd000081bc0000da
:10668800407c000001b40000c07400008075000068
:1066980041b5000000770000c1b7000081b60000d6
:1066a8004076000000720000c1b2000081b3000013
:1066b8004073000001b10000c0710000807000004c
:1066c80041b0000000500000c1900000819100001e
:1066d8004051000001930000c053000080520000a8
:1066e8004192000001960000c0560000805700004b
:1066f8004197000000550000c195000081940000fa
:1067080040540000019c0000c05c0000805d000057
:10671800419d0000005f0000c19f0000819e0000b5
:10672800405e0000005a0000c19a0000819b0000f2
:10673800405b000001990000c0590000805800002b
:106748004198000001880000c0480000804900000e
:1067580041890000004b0000c18b0000818a0000c5
:10676800404a0000004e0000c18e0000818f0000ea
:10677800404f0000018d0000c04d0000804c00001b
:10678800418c000000440000c184000081850000a5
:106798004045000001870000c04700008046000017
:1067a8004186000001820000c042000080430000d2
:1067b8004183000000410000c18100008180000089
:1067c80040400000000000000000000060ae000033
:1067d800000000008051000001000000e0ff000000
:1067e80001000000a0a800000200000000570000ff
:1067f80003000000c0ff00000300000020ae0000fe
:1068080004000000805c0000050000004005000056
:1068180006000000a0b3000006000000605c000055
:1068280007000000000000000000000060ae00004b
:1068380000000000e04b00000100000040fa0000ea
:106848000100000000a300000200000060510000e9
:106858000300000020fa00000300000080a80000e8
:1068680004000000e056000005000000a0ff000042
:106878000500000000ae000006000000c056000041
:1068880007000000000000000005000001010000f2
:106898000a000000050500000505000005050000c8
:1068a80005050000050500000505000005050000b8
:1068b80005050000050500000505000005050000a8
:1068c8000505000005050000050500000505000098
:1068d8000505000005050000050500000505000088
:1068e8000505000005050000050500000505000078
:0468f8000505000092
:020000040000fa
:1068fc00e10f500006003a001000200001002000bb
:10690c006011b800e4102100009abe000292be0093
:10691c000000060072a0020000000000f2d3040088
:10692c000000000042e0210092417800e9cf5100c4
:10693c000d003a0090ea200090407800e1cf500022
:10694c001f003a002016210013c0b30090cf110095
:10695c001d003a00014978000040eb0010419800fe
:10696c00204198000000060041e0210011409000f9
:10697c000004e00002003a0010c0b300060037002b
:10698c00e14f500006003a0090ea200090cf5100f1
:10699c000d00320020c0b3009040980000000600ab
:1069ac00e24f500008003a0090ea2000904878002e
:1069bc000040eb0090409800a040980000000600ba
:1069cc00e6cf5000e8ff320000000600c66221004e
:1069dc004501de004211dd00ff0360000104e00010
:1069ec0020003a0086014100f6814100f60041008a
:1069fc00868040001181fb00114090004800dd00b2
:106a0c0002027000214090000080fb003141900098
:106a1c004811dd0000017100100020000100200071
:106a2c008703e90003003300000040008180480028
:106a3c00fbff37000080ea008180ea00040260005e
:106a4c000101610082007800844978004821de0051
:106a5c0092419800a14198004808de00b04198008e
:106a6c000000060086024100f682420076024100d8
:106a7c00060242009480fb00144090004800dd00a8
:106a8c0001017000a44090008180fb003440900014
:106a9c004800dd0081017000100020000100200082
:106aac008703e900030033000000400081804800a8
:106abc00fbff37000001710081817100824a780070
:106acc004810de0090429800a34298004818de005f
:106adc00b042980000000600c16221000040eb00ab
:106aec00e0589800f05898008060980090609800ea
:106afc00a0609800b0609800c0609800d0609800ca
:106b0c00000006004501de00c16221004211dd00db
:106b1c0001034100fe0343007e01410001014100dd
:106b2c009281fb0092409000c808dd000382700047
:106b3c00a24190008381fb00b2409000c808dd00a8
:106b4c00838270007f006000120020000300200090
:106b5c000000e90003003300020141008381490079
:106b6c00fbff37000202720083827200f00f2000dc
:106b7c00844b6000c820de009143980000806200c6
:106b8c00006398004828de0010639800000006009f
:106b9c0091ea20008048780000000600e0cb20003d
:106bac0040409000e14f400030003a006175800099
:106bbc000100e00005003a00cda2a90020dd200074
:106bcc000148780010dd20000f003700e18f5000e5
:106bdc0006003a00cda2a80020dd20000048eb0002
:106bec0010dd20000048eb0008003700e28f500059
:106bfc0002003a00a1c0b30002003700e38f50003e
:106c0c0002003a0020dd20000148780020dd200041
:106c1c00104178000204e0001100320011dd200068
:106c2c001140e80080487800824f50000c00390079
:106c3c008048eb000040eb0031dd20001104e00047
:106c4c0001003a0010c0b30080487800c500dd0098
:106c5c00cdc2bf000054a10001407000cde2b700ce
:106c6c0011c0b300e0cb20004140980000000600aa
:106c7c00889fbe00800478006b045000f002200056
:106c8c00800f540017003e0040e0210010407800b7
:106c9c00e54f500004003200e74f50000200320074
:106cac00e44f50000a003a0008407800d6d00200a9
:106cbc0000000000f34f50000a003e00401d210070
:106ccc00684078000004e00006003a000700370036
:106cdc0008407800d6d0020000000000f34f5000ae
:106cec000200360009007800010037000000eb00bc
:106cfc004f04be000000060000417800814178007e
:106d0c00f0c2b300804f510003003e008280fb00b4
:106d1c00401d210083707800000006008040780040
:106d2c000001eb00f0c2b30080cf500004003e0025
:106d3c000180fb00411d210060c078000081fb0038
:106d4c000200780000000600889fbe008a9fbe00eb
:106d5c008c1f780040e02100104078000080fb0080
:106d6c000100200061005000e0805800ea0f500044
:106d7c00e08f5800091c3e00006001000a0037003b
:106d8c003400370053003700670337005e083700c4
:106d9c00930e37002b103700d6043700b715370089
:106dac00fe1b37003d1737002016210011c0b30021
:106dbc0090cf100007003a00a00a2000a07f8800a6
:106dcc000000fe0050382000e8d90200000000004e
:106ddc00f21b37000000eb0060758800411d21009c
:106dec008058eb0040202100808f5000fcff3a00bf
:106dfc0040e02100104490000804e0000300320041
:106e0c00e14f5400e51b3a000e00370080ea2000e9
:106e1c00084878004c8802000000000011c0b30044
:106e2c00e0cb200001487800c062210028d89800ef
:106e3c0096d80200000000009cd802000000000060
:106e4c00d61b370021c0b30090ea2000014878001f
:106e5c00d21b370040e0210010449000e14f540059
:106e6c00ce1b3a00e0cb200000c1eb00904f11008c
:106e7c00ca1b3a0009dd200031c0b30090ea2000a3
:106e8c000148780096d30200000000000004e000e6
:106e9c0002003200884c780001003700804c7800ea
:106eac00801121000048eb001000200001002000a0
:106ebc00608e8800718e880000a62e0001002000d4
:106ecc00408e8800518e880010002000308e880083
:106edc00b21b3700290020006975880041e02100b1
:106eec0011409000e14f50001700320003003900b0
:106efc00e24f5000a91b3a000703370044d80200a8
:106f0c00000000000000cf000000ea004f00de008f
:106f1c00311d21008048780096d802000000000046
:106f2c00601621000048eb007afe0700c4d0020076
:106f3c0000000000e1cb200010c0b30080e09800fe
:106f4c0080709800951b3700e0cb200000709000fb
:106f5c00e14f4000911b3a0000dd200023c0b3003c
:106f6c0090cf110002003a0040c2b300a04098003c
:106f7c00b8d8020000000000000178000000e0001a
:106f8c003f003200101d21001004e00003003a0005
:106f9c0050052000a07f88000000fe0038dd210095
:106fac00184078000008a3000400320009007800a3
:106fbc00e8d9020000000000781b37000018a3007d
:106fcc000400320030002000e8d90200000000006c
:106fdc00721b37000048a300040032005000200050
:106fec00e8d90200000000006c1b37000058a30019
:106ffc000400320060002000e8d90200000000000c
:10700c00661b370010e60200000000000004e000e0
:10701c000700320018447800644064000400320019
:10702c0080002000e8d90200000000005b1b370044
:10703c0090c90200000000000004e00008003200cb
:10704c0030dd210010407800644060000400320004
:10705c0080002000e8d90200000000004f1b370020
:10706c0030dd210004c4b300104062004b1b320021
:10707c0090002000e8d9020000000000471b3700f8
:10708c00c1622100a0c6b300914f100009003a0064
:10709c00a3cb2000134090000004e0000500320058
:1070ac0071c0b30090ea200001487800924198002a
:1070bc003a1b3700e0cb200000e09000e14f40008d
:1070cc0004003a00900c2000e8d9020000000000f7
:1070dc00321b3700301d21001004e0000300320089
:1070ec008040eb00c062210021d8980040e02100d4
:1070fc00204190000280fb000100200025032000ad
:10710c00850f5000e08f580082023e0000600100a5
:10711c003200370061003700bd003700bc0037007b
:10712c00bb003700ba003700b9003700b800370091
:10713c00b7003700c2003700d4003700de0037003c
:10714c00ec003700fa0037000d013700170137004b
:10715c002501370033013700460137005001370055
:10716c005e0137006c0137007f0137008901370061
:10717c0097013700a5013700a4013700a3013700a0
:10718c00a2013700a1013700a00137009f01370091
:10719c009e013700a4013700c3013700cc01370032
:1071ac00e5013700260237002c0237004202370077
:1071bc0048023700470237004602370045023700c5
:1071cc0044023700430237004202370041023700c5
:1071dc00400237003f023700420237000041eb000b
:1071ec00a0f521002268980018c0b300701121008e
:1071fc000848780060f92100024878008000eb0014
:10720c00c1fa880040ea20000148780040f92100ca
:10721c0002487800c015210002487800d18a880005
:10722c00c062210011c8b30031e0990042e099001e
:10723c0052e0990062e0990072e0990061c0b300dd
:10724c0001e8990002689800388e020000000000e6
:10725c000004e000d11a320010e602000000000029
:10726c000004e00008003200e0cb20004840990008
:10727c00084078000ee302000000000081c0b3005b
:10728c0060ed21001140980041e021002140900068
:10729c000040e800a0409800c01a370010e6020039
:1072ac00000000000004e00054003200c0f6800032
:1072bc006020b2000e003200107580000000e0006b
:1072cc000b003a0030c1b3000ee3020000000000d6
:1072dc0021c0b30060ed21001140980011c0b30033
:1072ec00e0cb200041409900100020001075880070
:1072fc00c0f68000800078000108b2000d0032005a
:10730c0018758000e10f54000a003a00084078001c
:10731c000ee302000000000060ed21001840980010
:10732c00e0cb200048409900200020001075880018
:10733c009a1a37000088a3001000320010758000e4
:10734c00e10f50000d003a008040eb00e0cb200034
:10735c00414099000000eb001075880000382000b7
:10736c0048d802000000000041e0210021409000bc
:10737c0067404000a0409800881a3700e2cb2000fc
:10738c0042409100e14f40000f003a001075800020
:10739c00e10f50000c003a000040eb004041990016
:1073ac000000eb00107588000038200048d802005f
:1073bc000000000041e021002140900067404000a7
:1073cc00a0409800751a37000100e000731a3a00cb
:1073dc0010758000e20f5000701a3a00e0cb2000cc
:1073ec00414099001175880041e021002140900036
:1073fc0067404000a0409800681a370041e0210027
:10740c002140900067404000a0409800631a37006c
:10741c0060ed210060609000e14f500003003600e9
:10742c000038200048d802000000000041e0210094
:10743c00214090000040e800a0409800571a370007
:10744c0071c0b3000040eb00188d0200000000007a
:10745c000004e0000900320071c0b3000040eb00f2
:10746c00b09e02000000000041e02100214090008d
:10747c000040e800a0409800481a370071c0b300e3
:10748c00309e020000000000441a370071c0b300a7
:10749c000040eb00c09f0200000000000004e00070
:1074ac003e1a320041e02100214090000040e800eb
:1074bc00a0409800391a370071c0b3000040eb00af
:1074cc00a88c0200000000000004e000331a320017
:1074dc0071c0b3000040eb000ca0020000000000e3
:1074ec0041e02100214090000040e800a0409800bd
:1074fc002a1a370071c0b3000040eb00568d020011
:10750c00000000000004e000241a320071c0b30037
:10751c000040eb002e9f02000000000041e0210023
:10752c00214090000040e800a04098001b1a370052
:10753c00f1c0b30080c0b300188d02000000000041
:10754c000004e00009003200f1c0b30080c0b300b9
:10755c00b09e02000000000041e02100214090009c
:10756c000040e800a04098000c1a3700f1c0b300ae
:10757c0080c0b300309e020000000000071a3700e4
:10758c00f1c0b30080c0b300c09f02000000000037
:10759c000004e000011a320041e02100214090007b
:1075ac000040e800a0409800fc193700f1c0b3007f
:1075bc0080c0b300a88c0200000000000004e000b2
:1075cc00f6193200f1c0b30080c0b3000ca0020069
:1075dc000000000041e02100214090000040e80044
:1075ec00a0409800ed193700f1c0b30080c0b30083
:1075fc00568d0200000000000004e000e719320084
:10760c00f1c0b30080c0b3002e9f02000000000048
:10761c0041e02100214090000040e800a04098008b
:10762c00de19370071c1b30000c1b300188d020020
:10763c00000000000004e0000900320071c1b3003a
:10764c0000c1b300b09e02000000000041e0210028
:10765c00214090000040e800a0409800cf1937006e
:10766c0071c1b30000c1b300309e020000000000e5
:10767c00ca19370071c1b30000c1b300c09f02002a
:10768c00000000000004e000c419320041e02100b9
:10769c00214090000040e800a0409800bf1937003e
:1076ac0071c1b30000c1b300a88c0200000000003f
:1076bc000004e000b919320071c1b30000c1b3007d
:1076cc000ca002000000000041e0210021409000cd
:1076dc000040e800a0409800b019370071c1b30019
:1076ec0000c1b300568d0200000000000004e00051
:1076fc00aa19320071c1b30000c1b3002e9f020061
:10770c000000000041e02100214090000040e80012
:10771c00a0409800a1193700f1c1b30080c1b3009b
:10772c00188d0200000000000004e0000900320087
:10773c00f1c1b30080c1b300b09e02000000000094
:10774c0041e02100214090000040e800a04098005a
:10775c0092193700f1c1b30080c1b300309e020012
:10776c00000000008d193700f1c1b30080c1b300d7
:10777c00c09f0200000000000004e00087193200e6
:10778c0041e02100214090000040e800a04098001a
:10779c0082193700f1c1b30080c1b300a88c02007c
:1077ac00000000000004e0007c193200f1c1b300bd
:1077bc0080c1b3000ca002000000000041e02100d9
:1077cc00214090000040e800a04098007319370059
:1077dc00f1c1b30080c1b300568d0200000000005f
:1077ec000004e0006d193200f1c1b30080c1b30098
:1077fc002e9f02000000000041e02100214090007b
:10780c000040e800a04098006419370011c0b30094
:10781c0060162100014878008240e80040e0210019
:10782c00214098005d193700800220005eca0200da
:10783c00000000000000e00004003a0040e42100d9
:10784c0011c0b30090cf100012003a0040fd800030
:10785c000048a30004003200c062210020d8900030
:10786c000004e0000b003a0010c0b3006cdc020016
:10787c000000000001c8b30080f921007148980095
:10788c0041e02100214090000040e800a040980019
:10789c004219370041e02100214090006340400034
:1078ac00a04098003d19370040fd80000008a3005f
:1078bc003a193200e2de02000000000041e0210033
:1078cc00214090000040e800a04098003319370098
:1078dc005edf0200000000000000e00007003a003c
:1078ec0040fd8000010c2e000100600003003a00f6
:1078fc0050fd80006300600028193200f0dc20008d
:10790c000048eb00c062210020d8900049e0210023
:10791c00e14f500004003a00294090006f404000b5
:10792c00a04498001d193700294090000040e80041
:10793c00a0449800191937000000eb00c0fa880029
:10794c0002dd200092407800e1cf500006003a00a2
:10795c0020c0b3000049780080152000e8d902004f
:10796c00000000000d193700801121001004e00008
:10797c000a003a00e3cf500008003a00c062210030
:10798c0020d890000004e00004003a0061c2b3006b
:10799c0040e02100214098000019370096d30200e6
:1079ac00000000000004e0001b00320031c0b300f6
:1079bc0000dd200001487800801121000048eb0018
:1079cc00a0f52100305090000004e00003003a00c4
:1079dc00208e80000008a30003003a00208e800057
:1079ec000008a30008003a000040eb00fed00200a3
:1079fc000000000041e02100214090000040e80020
:107a0c00a0409800e518370090152000e8d9020036
:107a1c0000000000e11837006000b80080fb88000f
:107a2c0091fb8800a0fb8800b1fb880041e021009d
:107a3c00214090006e404000a0409800d7183700bd
:107a4c0000f921001004e000d4183a0021c3b3005f
:107a5c0040e0210021409800d018370049e0210077
:107a6c0096d30200000000000004e0000900320080
:107a7c00801121000048eb0020c0b300fed00200b2
:107a8c0000000000294090000040e800a04498004d
:107a9c00c21837006000b80080fb880091fb88009a
:107aac00a0fb8800b1fb8800294090006c4040008e
:107abc00a0449800b918370000f921001004e00028
:107acc00b6183a0081c2b30040e021002140980072
:107adc00b21837008240e80040e0210021409800b5
:107aec00ae18370010c0b30021e8210080c8980000
:107afc00aee902000000000071c0b3000004e00019
:107b0c0001003a0041c0b30090ea2000014878001f
:107b1c00a2183700ffff37008040eb00e0cb2000bd
:107b2c0001e098009d183700190020006975880045
:107b3c0040e02100104490000804e00003003200f3
:107b4c00e14f540095183a000d00370080ea2000f0
:107b5c0009487800b088020000000000e0cb20004b
:107b6c0049c8980010e60200000000000004e00084
:107b7c008a18320018e6020000000000871837004f
:107b8c0010e60200000000000004e00022003200b9
:107b9c0061ed2100c0f680000020b200020032002e
:107bac0088789800010037008078980068ed2100f3
:107bbc00c1f68000008020000080600004003200cc
:107bcc0010382000e8d902000000000073183700bc
:107bdc0001c8a30005003200107c9800203820005a
:107bec00e8d90200000000006c18370010e6020013
:107bfc00000000000004e0004300320030f8800078
:107c0c0041f8800002002800820f5000e08f5800dd
:107c1c003d0032002800370090c90200000000002f
:107c2c00804078000004e0003a00320062ed210050
:107c3c0031f4800000002800008060000200320057
:107c4c0008799800010037000079980021f4800031
:107c5c000040200000816000040032001038200039
:107c6c00e8d90200000000004c18370001b8a3004e
:107c7c000600320060ed21001278980020382000b8
:107c8c00e8d90200000000004418370090c9020037
:107c9c00000000000004e0001b00320068ed210031
:107cac0030f8800041f8800003002800830f50005a
:107cbc00e08f580014003200a200200003002000c6
:107ccc00362d0200000000000001be00286090006c
:107cdc000080fb0001002000800f5100818f5900b3
:107cec0009003600386090000080fb000100200085
:107cfc00800f5100818f590003003e0010c0b3006b
:107d0c00107c9800060037008040eb0060ed2100ed
:107d1c000200370060ed210001789800117898007e
:107d2c002e8c0200000000000004e0000300320072
:107d3c00701121001004e0000400320070112100c9
:107d4c0014c0b300904f120005003a0011c0b300ec
:107d5c007011210001487800149702000000000007
:107d6c0010002000010020006011b800e510210077
:107d7c00809abe008292be00a0cb200010409000e2
:107d8c000004e00005183200c06221009040780029
:107d9c00a0c6b30080cf50005000320007003e0058
:107dac006540500080cf50000b0032006340400013
:107dbc0080cf5000ac003a0009003700f0c6b30089
:107dcc0080cf50004b00320040ccb30080cf50002d
:107ddc00a5003a009e00370031c0b3003d003700cb
:107dec0010e60200000000000004e0001100320068
:107dfc0030f8800041f8800002002800820f50000b
:107e0c00e08f58000b003200a2002000030020007d
:107e1c00362d02000000000062ed2100226190006e
:107e2c000281fb0003002000820f5000838f58005a
:107e3c001500360090c90200000000000004e000ac
:107e4c001500320030f8800041f880000300280053
:107e5c00830f5000e08f58000f003200a20020006a
:107e6c0003002000362d02000000000062ed21000e
:107e7c00226190000281fb0003002000820f500061
:107e8c00838f580004003e003038200048d8020090
:107e9c00000000007400370096d3020000000000c0
:107eac000004e0000a003200a0f5210030509000e0
:107ebc000004e00003003200208e80000008a300c4
:107ecc0003003a00208e80000008a30066003a00f0
:107edc0051c0b30090ea20006200370070c0b300bc
:107eec0091ea200080487800e0dc20000048eb009c
:107efc005d00370096d30200000000000004e00093
:107f0c005900320032fb800043fb8000e10f41003e
:107f1c00e08f490003003a000000200001f8240023
:107f2c0034003700e00f5100e08f59000400350099
:107f3c000200be00562d0200000000000b003700ae
:107f4c0061006100010020008301d1000281d30097
:107f5c000200700083807000562d020000000000ab
:107f6c000001be00ae2d0200000000000200240043
:107f7c00c3612400682e0200000000000004be0053
:107f8c00c27a8000d37a8000e00f5100e08f590054
:107f9c00040035000200be00562d02000000000057
:107fac000c003700c07a80006100600001002000e6
:107fbc008301d1000281d300020070008380700025
:107fcc00562d0200000000000001be00ae2d020084
:107fdc00000000000001be000800be00ec2e0200f4
:107fec000000000002002400c3612400682e02007f
:107ffc0000000000542f02000000000001002000cf
:10800c0082fb800093fb8000800f5100818f590010
:10801c000a003d00a0f52100305090000004e00063
:10802c0003003200208e80000008a30003003a00f9
:10803c00208e80000008a3000b003a0081c0b30022
:10804c0090ea20000148780041c0b30004003700da
:10805c00b1c0b30090ea20000148780071c0b300b1
:10806c0050ea200001487800c062210010417800dd
:10807c00a4c6b30004404100f94f50000a003e0072
:10808c00a0cab300804f510003003a0011c0b300e6
:10809c00e0dc20000148780071c0b30090ea2000b9
:1080ac00014878003d17370040c9b300004041003b
:1080bc0081c5b300814f50000a003e00f0c6b300ea
:1080cc00804f5100070032006a404000804f510041
:1080dc000400320071c0b30090ea2000014878001f
:1080ec002e1737008040eb00a0cb200011409800e9
:1080fc002a173700180020006875880040e021001e
:10810c00104390000604e00003003200e14f5300de
:10811c0022173a002b00370080ea2000064878002e
:10812c00fcf90700e0cb200048709800428e8000dc
:10813c00538e8000f26e8800036f8800608e800082
:10814c00718e8000e00f5000e08f58000300320069
:10815c000080eb005076880004003700308e8000e1
:10816c00e10f500001003a005276880018c0b300ad
:10817c00e0cb2000087898006000b800106f8800f1
:10818c00216f880078a202000000000010e60200b7
:10819c00000000000004e0000200320018e60200bb
:1081ac000000000061ed2100c0f680000020b2004c
:1081bc000200320088789800f81637008078980012
:1081cc00f6163700e7cb200047709000e14f4000d7
:1081dc0002003a00a00c2000110037000778900034
:1081ec00e14f40001e003a00106f8000216f8000ac
:1081fc0061024000e0824800146f8800256f8800ff
:10820c000040eb00807b9800628e8000738e8000b3
:10821c00e00f5100e08f590004003a00b00c200030
:10822c0048d80200000000000d003700820f5200f9
:10823c00838f5a0009003900f06e8000016f8000b6
:10824c00e00f5000e08f5800f4ff320050768800a9
:10825c006000b800f06e8800016f8800867b980083
:10826c0049e02100a9409000e4cf50000203320005
:10827c0008003e00e1cf5000bc0132000d00390077
:10828c00e2cf500069023200e3cf5000c3163a002f
:10829c00ef023700e6cf500004033200fa02390037
:1082ac00e7cf500007033200e8cf5000bb163a006e
:1082bc000d03370096d30200000000000004e0001c
:1082cc00a6013200a1f52100216c90000804e00009
:1082dc008a013a0050ea200045c0b30090cf12004a
:1082ec0014013a0010c0b300f058980000f92100b6
:1082fc00204090000004e000a300320032fb80001c
:10830c0043fb8000e10f4100e08f490003003a007d
:10831c000a0020000bf8240035003700e00f510054
:10832c00e08f5900040035000200be00562d0200fb
:10833c00000000000b00370061006100010020000c
:10834c008301d1000281d300020070008380700091
:10835c00562d0200000000000001be00ae2d0200f0
:10836c000000000002002400c3612400682e0200fb
:10837c00000000000004be00c27a8000d37a8000a6
:10838c00e00f5100e08f5900040035000200be00e0
:10839c00562d0200000000000c003700c07a80004f
:1083ac0061006000010020008301d1000281d30034
:1083bc000200700083807000562d02000000000047
:1083cc000001be00ae2d0200000000000001be0046
:1083dc000800be00ec2e0200000000000200240089
:1083ec00c3612400682e0200000000000005be00de
:1083fc00bee90200000000000004e00011003200a1
:10840c000a00be00542f02000000000001002000f2
:10841c0082fb800093fb8000800f5100818f5900fc
:10842c0008003d0011c0b300e0cb200001409900d2
:10843c0041e021002140900065404000a0409800a0
:10844c005616370088fb800099fb80000a00be009e
:10845c00542f0200000000000001be0001002000ab
:10846c00800f5400818f5c001900340030fb8000b9
:10847c0041fb8000e10f4000e08f48000300320018
:10848c0011c0b300020078000a003700a0fb800086
:10849c00b1fb8000e00f5000e08f58000300340067
:1084ac004006b00011c0b3000200370011c0b30089
:1084bc00007122009ed302000000000041e0210068
:1084cc002140900063404000a040980033163700d4
:1084dc00800f5400818f5c0008003a0011c0b3007b
:1084ec00e0cb20000140990041e0210021409000a8
:1084fc0065404000a040980028163700d0fb800053
:10850c00e1fb8000e00f5000e08f58000d003a00b6
:10851c0030fb800041fb8000e10f4000e08f480001
:10852c000d003a00a0fb8000b1fb8000e00f500072
:10853c00e08f58000b0034004006b0008040eb0088
:10854c000a003700a2fb8000b3fb8000e00f510053
:10855c00e08f5900030034008040eb0002007800eb
:10856c00020037008040eb00007122009ed3020015
:10857c000000000041e021002140900063404000d9
:10858c00a04098000516370096d3020000000000aa
:10859c000004e0006300320032fb800043fb8000eb
:1085ac00e10f4100e08f490055003200e00f51000f
:1085bc00e08f5900040035000200be00562d020069
:1085cc00000000000b00370061006100010020007a
:1085dc008301d1000281d3000200700083807000ff
:1085ec00562d0200000000000001be00ae2d02005e
:1085fc000000000002002400c3612400682e020069
:10860c00000000000004be00c27a8000d37a800013
:10861c00e00f5100e08f5900040035000200be004d
:10862c00562d0200000000000c003700c07a8000bc
:10863c0061006000010020008301d1000281d300a1
:10864c000200700083807000562d020000000000b4
:10865c000001be00ae2d0200000000000001be00b3
:10866c000800be00ec2e02000000000002002400f6
:10867c00c3612400682e0200000000000004be004c
:10868c008afb80009bfb80008a2f02000000000008
:10869c00800f5500818f5d0006003d000800be0074
:1086ac00542f0200000000000001be008040eb00cf
:1086bc00110037000800be00542f0200000000001b
:1086cc000001be0001002000800f5500818f5d006d
:1086dc0008003a0011c0b300e0cb20000140990023
:1086ec0041e021002140900065404000a0409800ee
:1086fc00aa15370011c0b300020078000200370041
:10870c0088407800007122009ed302000000000017
:10871c0041e021002140900063404000a0409800bf
:10872c009e1537002940900064404000a0449800fa
:10873c009a153700f858980032fb800043fb8000f4
:10874c00e00f5100e08f5900040035000200be001c
:10875c00562d0200000000000b0037006100610084
:10876c00010020008301d1000281d30002007000bf
:10877c0083807000562d0200000000000001be0036
:10878c00ae2d02000000000002002400c361240092
:10879c00682e0200000000000004be00c27a8000b7
:1087ac00d37a8000e00f5100e08f590004003500af
:1087bc000200be00562d0200000000000c00370025
:1087cc00c07a800061006000010020008301d100ac
:1087dc000281d3000200700083807000562d0200cd
:1087ec00000000000001be00ae2d020000000000e1
:1087fc000001be000800be00ec2e020000000000cc
:10880c0002002400c3612400682e02000000000056
:10881c000004be00a0f52100005590000a04e00001
:10882c000a003a0080fb800091fb8000562d02006c
:10883c00000000000001be000800be00ae2d0200ca
:10884c00000000000004be000e00370080fb80001a
:10885c0091fb8000562d0200000000000801be00b4
:10886c00ac2d0200000000000004be006011b80036
:10887c00cc2f0200000000000000e00001003d00d1
:10888c006044b8000800be00542f02000000000035
:10889c000002be006101b80080fb800091fb8000eb
:1088ac00800f5100818f59000c00320011c0b300b1
:1088bc000a04e00001003a008a40780004007800c5
:1088cc009ed302000000000041e0210021409000f6
:1088dc0063404000a04098003015370011c0b30031
:1088ec00e0cb20000140990041e0210021409000a4
:1088fc0065404000a040980028153700d0c0b30058
:10890c006cdc02000000000041c0b30080f92100c3
:10891c00714898000001eb00e2fc8800c0122000b6
:10892c00f0fc880011c0b30060f921000148780008
:10893c00c2fa880040ea20000248780040f9210081
:10894c000248780050f92100024878002940900034
:10895c000040e800a0449800101537002940900012
:10896c0064404000a04498000c15370040fd800086
:10897c006c00600009153200a0f5210071589800b8
:10898c0060f921000048eb0032fb800043fb8000c3
:10899c00e10f4100e08f490003003a000a0020007b
:1089ac000bf8240035003700e00f5100e08f590020
:1089bc00040035000200be00562d0200000000002d
:1089cc000b00370061006100010020008301d10021
:1089dc000281d3000200700083807000562d0200cb
:1089ec00000000000001be00ae2d020000000000df
:1089fc0002002400c3612400682e02000000000065
:108a0c000004be00c27a8000d37a8000e00f5100cf
:108a1c00e08f5900040035000200be00562d020004
:108a2c00000000000c003700c07a8000610060007c
:108a3c00010020008301d1000281d30002007000ec
:108a4c0083807000562d0200000000000001be0063
:108a5c00ae2d0200000000000001be000800be00a8
:108a6c00ec2e02000000000002002400c361240070
:108a7c00682e0200000000000005be00bee90200e6
:108a8c00000000000004e0000e0032000a00be00ee
:108a9c00542f0200000000000100200082fb800027
:108aac0093fb8000800f5100818f590005003d0021
:108abc0041e02100214090000040e800a0409800d7
:108acc00b614370088fb800099fb80000a00be00ba
:108adc00542f0200000000000001be000100200025
:108aec00800f5400818f5c001e00340014002000a5
:108afc00c4fa880030fb800041fb8000e10f40008d
:108b0c00e08f4800030032008440780002007800b7
:108b1c000a003700a0fb8000b1fb8000e00f500082
:108b2c00e08f5800030034004006b0008440780009
:108b3c000200370084407800007122009ed30200ae
:108b4c000000000011c0b30050f92100014878006a
:108b5c0041e02100214090000040e800a040980036
:108b6c008e143700800f5400818f5c0005003a0092
:108b7c0041e02100214090000040e800a040980016
:108b8c0086143700d0fb8000e1fb8000e00f500022
:108b9c00e08f58000f003a0010002000c0fa880047
:108bac0030fb800041fb8000e10f4000e08f48006b
:108bbc000f003a00a0fb8000b1fb8000e00f5000da
:108bcc00e08f58000d0034004006b0008040eb00f0
:108bdc000c00370010002000c0fa8800a2fb8000b7
:108bec00b3fb8000e00f5100e08f5900030034000c
:108bfc008040eb0002007800020037008040eb0060
:108c0c00007122009ed302000000000011c0b300ce
:108c1c0050f921000148780041e0210021409000ea
:108c2c000040e800a04098005c143700c3622100ab
:108c3c009340780080c6b30080cf500023003a00e8
:108c4c00a2cb2000124090000004e0003e00320055
:108c5c0040f92100904078000104e00016003a0031
:108c6c001141980073d19000e14f510003003a007c
:108c7c00048f0200000000000b00370002c0e90066
:108c8c00e14f500002003e0040012000040037007c
:108c9c0064405100e14f500003003e0020032000cf
:108cac00da8602000000000011c0b30040f9210078
:108cbc000148780024003700e1cf500037003a001b
:108ccc000040eb00104198001f003700b0c6b30005
:108cdc0080cf50001c003a00a1cb20001140900026
:108cec000004e0001800320040f921001004e000fc
:108cfc0015003a0040fd80000038a300120032003d
:108d0c0000f921001004e0000f003a000040eb00d5
:108d1c0090409800d0c0b3006cdc02000000000052
:108d2c0081c0b30080f9210071489800a0e62000b2
:108d3c00e0fc8800c0122000f0fc88002940900064
:108d4c0064404000a044980040f9210011c0b300d9
:108d5c0090cf100011003a00ee8b020000000000d2
:108d6c000004e0000600320041ea20001104e0009b
:108d7c0003003a0010c0b3008048780004003700ac
:108d8c0040ea200012c0b300904f110003003a00db
:108d9c000040eb00289a02000000000000f92100be
:108dac00104178000204e00004003a008000eb005f
:108dbc00c1fa880050f921000148780040fd80007c
:108dcc000038a300f51332000204e000f3133a005c
:108ddc0040ea200013c0b30090cf1100ef133a000b
:108dec00c1622100b0c6b300914f100014003a00cc
:108dfc00a1cb2000114090000004e00010003200d4
:108e0c0092409800d0c0b3006cdc0200000000005f
:108e1c0081c0b30080f9210071489800a0e62000c1
:108e2c00e0fc8800c0122000f0fc880041e021002a
:108e3c002140900064404000a0409800d7133700b8
:108e4c0051c0b30090ea200001487800d3133700da
:108e5c0000f921001004e000d0133a000000eb00f0
:108e6c00c0fa880051f921008048780040c0b30056
:108e7c00a0449800c913370051ea200090ea200062
:108e8c0011487800c5133700e1cb20000140910058
:108e9c00e14f4000c1133a000040eb0080409900c4
:108eac0040c0b300a0449800bc13370040fd8000c4
:108ebc000048a300b913320070c0b300a04498005e
:108ecc00b613370040fd80000028a300b3133a000e
:108edc0072a0020000000000294090000040e80051
:108eec00a0449800ad133700388e0200000000003b
:108efc000004e000a913320051ea200090ea20009f
:108f0c0011487800a5133700110020006175880006
:108f1c0042e0210012409000e14f50005e00320010
:108f2c0003003900e24f50009c133a00280637002a
:108f3c0080ea20000048eb0011038900a0f5210015
:108f4c00206c90000804e0001d003a0071f6070048
:108f5c00c0622100f0d09000e1cf500003003a0035
:108f6c00048f0200000000000d00370001c0e90072
:108f7c00e14f500003003e00884078004001200083
:108f8c000500370064c05000e14f500004003e0063
:108f9c008840780020032000da86020000000000e0
:108fac0040ea20000048eb0060f921000048eb008b
:108fbc0050f921000048eb000000eb00d08a88003b
:108fcc0011c0b300e0cb200041709800428e8000ad
:108fdc00538e8000f26e8800036f8800608e8000d4
:108fec00718e8000e00f5000e08f580003003200bb
:108ffc0000a62e005076880004003700308e8000ca
:10900c00e10f500001003a005276880018c0b300fe
:10901c00e0cb2000087898006000b800106f880042
:10902c00216f880078a202000000000010e6020008
:10903c00000000000004e0000a00320018e6020004
:10904c000000000061ed2100c0f680000020b2009d
:10905c00020032008878980050133700807898000e
:10906c004e13370090c90200000000000004e0001d
:10907c004a13320062ed210031f480000000280018
:10908c00008060000200320008799800431337001a
:10909c000079980041133700c162210090c7b300da
:1090ac00914f100009003a00a1cb20001140900014
:1090bc000004e0000500320022409000f34f500005
:1090cc00020032000040eb0090409800e6cb2000fc
:1090dc0046709000e14f400004003a00a00c2000c4
:1090ec0048d80200000000002c13370006789000ce
:1090fc00e14f400027003a00106f8000216f800084
:10910c0061024000e0824800146f8800256f8800df
:10911c000040eb00007b9800628e8000738e800014
:10912c00e00f5100e08f590004003a00b00c200011
:10913c0048d802000000000018133700820f5200bc
:10914c00838f5a0010003900f06e8000016f800090
:10915c00e00f5000e08f580004003a00b00c2000e3
:10916c0048d80200000000000c133700507688002d
:10917c006000b800f06e8800016f880010c0b3006a
:10918c00007b98000513370010c0b300007b9800db
:10919c0002133700688e0200000000000004e0009b
:1091ac00fe12320040e02100204090000081fb00c4
:1091bc000300200094022000840f5100e08f59001e
:1091cc00f6123e000260010029003700f300370060
:1091dc001f01370037013700360137004a013700cd
:1091ec005e0137006f013700ac013700fe0137001c
:1091fc004d0237009502370098033700ec03370017
:10920c00fb0337004c043700550437005a04370071
:10921c006c0437007c043700d9043700150537007f
:10922c0051053700500537004f0537004e05370004
:10923c004d0537004c0537004b0537004a05370004
:10924c004905370048053700470537004605370004
:10925c004505370044053700430537004205370004
:10926c004105370040053700430537004f053700ef
:10927c0096d30200000000000004e00013003a0046
:10928c00bee90200000000000004e000c31232003e
:10929c00d0c0b3006cdc02000000000041c0b30081
:1092ac0080f92100714898000000eb00e0fc880078
:1092bc00c0122000f0fc880041e021002140900009
:1092cc0064404000a0409800b4123700aaf5210079
:1092dc0038fc80000800e00064003a002a68900026
:1092ec000004e00012003a00bee902000000000099
:1092fc000004e000a9123200d0c0b3006cdc020004
:10930c000000000041c0b30080f9210071489800b2
:10931c00e8fc8800c0122000f0fc880041e021002d
:10932c002140900064404000a04098009b12370000
:10933c0008407800289a020000000000c06221005a
:10934c009040780050c7b30080cf5000030032002b
:10935c006d40500080cf500025003a00a2cb200079
:10936c00124090000004e0002100320018419800e7
:10937c00286d9800bee90200000000000004e00027
:10938c000500320041e0210021409000684040007f
:10939c00a04098008112370049e02100f0dc200049
:1093ac001004e0000e003a00d0c0b3006cdc0200e8
:1093bc000000000081c0b30080f9210071489800c2
:1093cc00a0e62000e0fc8800c0122000f0fc880021
:1093dc00294090006c404000a04498006f12370068
:1093ec00294090006e404000a04498006b1237005a
:1093fc00b0c6b30080cf500068123a00a1cb200059
:10940c00114090000004e000641232000040eb00b8
:10941c009040980049e02100f0dc20001004e000ae
:10942c000e003a00d0c0b3006cdc0200000000005b
:10943c0081c0b30080f9210071489800a0e620009b
:10944c00e0fc8800c0122000f0fc8800294090004d
:10945c006c404000a0449800501237002940900006
:10946c006e404000a04498004c1237008004eb0082
:10947c00c9fa880000f9210018c0b30028409800f0
:10948c0038409800785d98000080eb008080eb00fd
:10949c0030fb880041fb880080fb800091fb800042
:1094ac00e20f4000e08f580025003c003a5090003d
:1094bc000004e00003003200208e80000008a300ae
:1094cc0003003a00208e80000008a30033123a00fb
:1094dc00ee8b0200000000000004e00006003200e9
:1094ec0011c0b30040ea2000014878000040eb00b6
:1094fc00289a020000000000d0c0b3006cdc02000f
:10950c000000000041c0b30080f9210071489800b0
:10951c000000eb00e0fc8800c0122000f0fc88008a
:10952c0011c0b30060f921000148780041e021002e
:10953c00214090000040e800a0409800171237002e
:10954c00ee8b0200000000000004e0000500320079
:10955c0040ea20000848780009407800289a020068
:10956c0000000000d0c0b3006cdc02000000000062
:10957c0041c0b30080f9210071489800e9fc8800d3
:10958c00c0122000f0fc880041e021002140900036
:10959c000040e800a04098000012370040fd800019
:1095ac000028a300fd11320060f921000048eb00f7
:1095bc0080fb800091fb8000e20f4000e08f5800a0
:1095cc0011003c0010002000c0fa8800a0fb8000b5
:1095dc00b1fb8000e00f5000e08f58000300340016
:1095ec004006b0008040eb00020037008040eb00ea
:1095fc00007122009ed302000000000011c0b300d5
:10960c0050f921000148780048ea200015c0b30049
:10961c0098cf120006003200ee8b02000000000012
:10962c000004e0000500320010c0b300004c7800cc
:10963c000040eb00289a02000000000041e02100ed
:10964c00214090000040e800a0409800d311370062
:10965c0048ea200010c0b300984f100006003200fa
:10966c00ee8b0200000000000004e0000500320058
:10967c0010c0b300004c78000040eb00289a0200a8
:10968c000000000000f921001004e000c3113a00b2
:10969c008000eb00c1fa880050f9210001487800e5
:1096ac0041e02100214090000040e800a0409800db
:1096bc00ba11370048ea200011c0b30098cf10004f
:1096cc0006003200ee8b0200000000000004e000f7
:1096dc000500320010c0b300004c78000040eb00d5
:1096ec00289a02000000000040fd80000038a30012
:1096fc00aa11320041e02100214090000040e80016
:10970c00a0409800a511370048ea200012c0b30011
:10971c00984f110006003200ee8b02000000000092
:10972c000004e0000500320010c0b300004c7800cb
:10973c000040eb00289a02000000000040fd800071
:10974c000028a30095113a0041e02100214090002f
:10975c000040e800a04098009011370048ea200033
:10976c0013c0b30098cf110004003a0071c0b300cd
:10977c0040e02100214098000a003700ee8b0200e7
:10978c00000000000004e0000600320010c0b3002e
:10979c00004c780041e02100214090000040e8009e
:1097ac00a04098000040eb00289a02000000000046
:1097bc00e28a0200000000000004e0007711320091
:1097cc00ee8b0200000000000004e0007311320078
:1097dc0000f92100304090000004e0001d00320030
:1097ec00a0f52100305090000004e00019003a0070
:1097fc00208e80000008a3001600320049e02100f2
:10980c00f0dc20001004e0000e003a00d0c0b300e1
:10981c006cdc02000000000081c0b30080f9210064
:10982c0071489800a0e62000e0fc8800c0122000df
:10983c00f0fc88002940900065404000a04498004e
:10984c00561137002940900067404000a044980012
:10985c005211370000f92100204090000004e00074
:10986c0009003200bee90200000000000004e00024
:10987c004a11320041e02100214090000040e800f4
:10988c00a04098004511370041e021002140900094
:10989c000040e800a0409800401137000040eb0069
:1098ac00289a020000000000e28a0200000000007a
:1098bc000004e0000b003200ee8b02000000000000
:1098cc000004e0000700320010002000d08a88005d
:1098dc0041e02100214090000040e800a0409800a9
:1098ec002e11370010038100e10f50002b113600b0
:1098fc00c062210030f091000004e00014003a0036
:10990c00bee90200000000000004e00010003a0074
:10991c0060ed2100e0609000e1cf500009003a00ba
:10992c00c015210001487800fea0020000000000d4
:10993c0041e02100214090001042b000a04098006e
:10994c0016113700f037200048d802000000000044
:10995c00b6e90200000000000004e0000d00320037
:10996c0060ed2100e0609000e1cf500009003a006a
:10997c00c015210001487800fea002000000000084
:10998c0041e02100214090001042b000a04098001e
:10999c0002113700c1622100b0c6b300914f100014
:1099ac00fe103a00a0cb2000104090000004e00014
:1099bc00fa10320060ed2100e0609000e1cf500021
:1099cc00f6103a00c015210001487800fea00200f4
:1099dc000000000041e02100214090001042b00046
:1099ec00a0409800ed103700e1cb200041709000b2
:1099fc00e24f500002003a000040eb00c0709800ab
:109a0c0010c0b300289a0200000000003689020042
:109a1c00000000000004e0000500320041e02100dd
:109a2c00214090000040e800a0409800db10370077
:109a3c00c062210030f091000004e00014003a00f4
:109a4c00bee90200000000000004e00010003a0033
:109a5c0060ed2100e0609000e1cf500009003a0079
:109a6c00c015210001487800fea002000000000093
:109a7c0041e02100214090000042b000a04098003d
:109a8c00c6103700f037200048d802000000000054
:109a9c00b6e90200000000000004e0000d003200f6
:109aac0060ed2100e0609000e1cf500009003a0029
:109abc00c015210001487800fea002000000000043
:109acc0041e02100214090000042b000a0409800ed
:109adc00b2103700c1622100b0c6b300914f100024
:109aec00ae103a00a0cb2000104090000004e00023
:109afc00aa10320060ed2100e0609000e1cf500030
:109b0c00a6103a00c015210001487800fea0020002
:109b1c000000000041e02100214090000042b00014
:109b2c00a04098009d103700ae8b02000000000092
:109b3c000004e0000700320072a0020000000000e8
:109b4c0041e02100214090000040e800a040980036
:109b5c0092103700c062210030f091000004e00048
:109b6c0014003a00bee90200000000000004e0000e
:109b7c0010003a0060ed2100e0609000e1cf500051
:109b8c0009003a00c015210001487800fea002002f
:109b9c000000000041e02100214090007f40400087
:109bac00a04098007d103700f037200048d8020004
:109bbc0000000000b6e90200000000000004e00014
:109bcc000d00320060ed2100e0609000e1cf50000c
:109bdc0009003a00c015210001487800fea00200df
:109bec000000000041e02100214090007f40400037
:109bfc00a040980069103700c1622100b0c6b300c4
:109c0c00914f100065103a00a0cb2000104090003e
:109c1c000004e0006110320060ed2100e060900073
:109c2c00e1cf50005d103a00c015210001487800ca
:109c3c00fea002000000000041e021002140900045
:109c4c007f404000a040980054103700ee8b02007b
:109c5c00000000000004e00004003a00c062210093
:109c6c0070d09000e14f500003003a00c015210065
:109c7c001004e00008003200ee8b0200000000002f
:109c8c000004e00045103200c015210014c0b300e0
:109c9c00904f120041103a000001eb00d28a88006c
:109cac00c015210015c0b30090cf120009003a0076
:109cbc007011210005487800e0cb200005409a0087
:109ccc0041e021002140900068404000a0409800f5
:109cdc0032103700c062210070d09000e14f50006c
:109cec0018003a00701121000248780049e0210068
:109cfc00f0dc20001004e0000e003a00d0c0b300ed
:109d0c006cdc02000000000081c0b30080f921006f
:109d1c0071489800a0e62000e0fc8800c0122000ea
:109d2c00f0fc8800294090000040e800a044980016
:109d3c001a1037002940900063404000a04498005e
:109d4c0016103700e34f500028003a0011c0b30042
:109d5c00701121000148780018038100e10f5400b4
:109d6c000c003a008840780000052000da860200da
:109d7c0000000000d88a8800200020001003890011
:109d8c0041e021002140900063405000a040980029
:109d9c000210370049e02100f0dc20001004e00044
:109dac000e003a00d0c0b3006cdc020000000000d2
:109dbc0081c0b30080f9210071489800a0e6200012
:109dcc00e0fc8800c0122000f0fc880029409000c4
:109ddc000040e800a0449800f00f370029409000a4
:109dec0063404000a0449800ec0f3700e24f500055
:109dfc0037003a0011c0b3007011210001487800ff
:109e0c0018038100e10f54000c003a0088407800e0
:109e1c0002007800da86020000000000d88a880070
:109e2c00200020001003890041e021002140900017
:109e3c0063405000a0409800d80f3700e20f540048
:109e4c000d003a008240780000052000da860200fe
:109e5c000000000010002000d08a88003000200094
:109e6c001003890041e02100214090006340500024
:109e7c00a0409800c90f370049e02100f0dc200019
:109e8c001004e0000e003a00d0c0b3006cdc0200fd
:109e9c000000000081c0b30080f9210071489800d7
:109eac00a0e62000e0fc8800c0122000f0fc880036
:109ebc00294090000040e800a0449800b70f3700fc
:109ecc002940900063404000a0449800b30f370035
:109edc00e44f500037003a0011c0b300701121005c
:109eec000148780018038100e10f54000c003a007f
:109efc008840780002007800da860200000000003a
:109f0c00d88a8800200020001003890041e021003d
:109f1c002140900063405000a04098009f0f3700f4
:109f2c00e20f54000d003a0082407800200320001c
:109f3c00da8602000000000010002000d08a8800a1
:109f4c00300020001003890041e0210021409000e6
:109f5c0063405000a0409800900f370049e021006a
:109f6c00f0dc20001004e0000e003a00d0c0b3007a
:109f7c006cdc02000000000081c0b30080f92100fd
:109f8c0071489800a0e62000e0fc8800c012200078
:109f9c00f0fc8800294090000040e800a0449800a4
:109fac007e0f37002940900063404000a044980089
:109fbc007a0f3700e54f5000780f3a0011c0b3000c
:109fcc00701121000148780018038100e10f540042
:109fdc000c003a008840780020032000da8602004a
:109fec0000000000d88a880020002000100389009f
:109ffc0041e021002140900063405000a0409800b7
:10a00c00660f370049e02100f0dc20001004e0006e
:10a01c000e003a00d0c0b3006cdc0200000000005f
:10a02c0081c0b30080f9210071489800a0e620009f
:10a03c00e0fc8800c0122000f0fc88002940900051
:10a04c000040e800a0449800540f370029409000cd
:10a05c0063404000a0449800500f370010c0b3007c
:10a06c0061f921008048780096d3020000000000be
:10a07c000004e0004600320030fc8000e10f50008c
:10a08c0043003a006000b80030fb880041fb8800b8
:10a09c00e27a8000f37a8000e00f5100e08f5900e3
:10a0ac00040035000200be00562d02000000000026
:10a0bc000b00370061006100010020008301d1001a
:10a0cc000281d3000200700083807000562d0200c4
:10a0dc00000000000001be00ae2d020000000000d8
:10a0ec0002002400c3612400682e0200000000005e
:10a0fc000004be00c27a8000d37a8000e00f5100c9
:10a10c00e08f5900040035000200be00562d0200fd
:10a11c00000000000c003700c07a80006100600075
:10a12c00010020008301d1000281d30002007000e5
:10a13c0083807000562d0200000000000001be005c
:10a14c00ae2d0200000000000001be000800be00a1
:10a15c00ec2e02000000000002002400c361240069
:10a16c00682e020000000000542f020000000000c6
:10a17c000001be0011c0b300020078009ed30200a3
:10a18c000000000011c0b30050f921000148780014
:10a19c0040fd80000048a300000f320041e0210088
:10a1ac00214090000040e800a0409800fb0e3700d2
:10a1bc0040fd80000028a300f80e3a0049e0210081
:10a1cc0096d30200000000000004e00004003200fe
:10a1dc002940900000c0e800a0449800ef0e370022
:10a1ec002940900063404000a0449800eb0e3700db
:10a1fc0096d30200000000000004e0004a00320088
:10a20c0030fc8000e10f500043003a006000b800c1
:10a21c0030fb880041fb8800e27a8000f37a8000f2
:10a22c00e00f5100e08f5900040035000200be0021
:10a23c00562d0200000000000b0037006100610089
:10a24c00010020008301d1000281d30002007000c4
:10a25c0083807000562d0200000000000001be003b
:10a26c00ae2d02000000000002002400c361240097
:10a27c00682e0200000000000004be00c27a8000bc
:10a28c00d37a8000e00f5100e08f590004003500b4
:10a29c000200be00562d0200000000000c0037002a
:10a2ac00c07a800061006000010020008301d100b1
:10a2bc000281d3000200700083807000562d0200d2
:10a2cc00000000000001be00ae2d020000000000e6
:10a2dc000001be000800be00ec2e020000000000d1
:10a2ec0002002400c3612400682e0200000000005c
:10a2fc00542f0200000000000001be0011c0b3008a
:10a30c00020078009ed302000000000011c0b300d0
:10a31c0050f921000148780041e0210021409000d3
:10a32c000040e8000300370041e02100214090008c
:10a33c0000c0e800a040980000f921001004e000e3
:10a34c00960e3a0050f921000048eb0041e0210044
:10a35c00214090000040e800a04098008f0e37008c
:10a36c0060f921000048eb0011c1b30040e021006e
:10a37c0021409800890e3700a0f52100206890003c
:10a38c00e14f50000b003a007011210011c0b300d6
:10a39c0090cf100002003a0072a0020000000000f2
:10a3ac0041e02100214090000040e800a0409800ce
:10a3bc007a0e370061c1b30040e0210021409800c3
:10a3cc00760e37007011210012c0b300904f1100af
:10a3dc0009003a00388e0200000000000004e00082
:10a3ec006e0e320041e0210021409000644040009c
:10a3fc00a0409800690e370061c1b30040e0210015
:10a40c0021409800650e3700e2cb200002409200fc
:10a41c00c3152100e14f40001c003a008040eb00c6
:10a42c0001419a00a0cb200011409800814978008e
:10a43c00c06221000168980049e02100f0dc200096
:10a44c001004e0000e003a00d0c0b3006cdc020037
:10a45c000000000081c0b30080f921007148980011
:10a46c00a0e62000e0fc8800c0122000f0fc880070
:10a47c002940900067405000a0449800470e3700d8
:10a48c00e0c0b300a0449800440e370015c0b300e0
:10a49c0093cf1200410e3a00c162210085689800ea
:10a4ac0090c7b300914f10003c0e3a00a2cb200095
:10a4bc00124090000004e000380e3200d01521004c
:10a4cc00104078000004e00018003a001041980099
:10a4dc00804978008068980049e02100f0dc200079
:10a4ec001004e0000e003a00d0c0b3006cdc020097
:10a4fc000000000081c0b30080f921007148980071
:10a50c00a0e62000e0fc8800c0122000f0fc8800cf
:10a51c002940900067405000a04498001f0e37005f
:10a52c00e0c0b300a04498001c0e3700e14f50006f
:10a53c001a0e3a000040eb008068980080497800c1
:10a54c001041980090e89900b0e89900c0e8990093
:10a55c00d0e89900e0e89900f0e8990080f09900c3
:10a56c0090f09900a0f0990010002000d08a88008b
:10a57c0041c1b30040e0210021409800070e370094
:10a58c00b49c0200000000003689020000000000ac
:10a59c000004e0000500320041e021002140900061
:10a5ac000040e800a0409800fc0d3700c06221007c
:10a5bc0030f091000004e0000e003a00bee9020009
:10a5cc00000000000004e0000a003a0011c0b300d3
:10a5dc00c015210001487800fea002000000000018
:10a5ec0041e021002140900075404000a0409800bf
:10a5fc00ea0d3700b6e90200000000000004e0009c
:10a60c000a00320011c0b300c015210001487800c7
:10a61c00fea002000000000041e02100214090005b
:10a62c0075404000a0409800dc0d3700c16221004d
:10a63c00b0c6b300914f1000d80d3a00a0cb20004b
:10a64c00104090000004e000d40d320011c0b300a3
:10a65c00c015210001487800fea002000000000097
:10a66c0041e021002140900075404000a04098003e
:10a67c00ca0d3700ae8b0200000000000004e000a1
:10a68c000700320072a002000000000041e021002f
:10a69c00214090006a405000a0409800bf0d370048
:10a6ac00c062210030f091000004e0000e003a007e
:10a6bc00bee90200000000000004e0000a003a00bd
:10a6cc0011c0b300c015210001487800fea00200a3
:10a6dc000000000041e02100214090007440400047
:10a6ec00a0409800ad0d3700b6e902000000000054
:10a6fc000004e0000a00320011c0b300c0152100b4
:10a70c0001487800fea002000000000041e021009a
:10a71c002140900074404000a04098009f0d3700ed
:10a72c00c1622100b0c6b300914f10009b0d3a00de
:10a73c00a0cb2000104090000004e000970d3200e8
:10a74c0011c0b300c015210001487800fea0020022
:10a75c000000000041e021002140900074404000c6
:10a76c00a04098008d0d37008040e80040e02100ab
:10a77c0021409800890d370091ea200050ea200012
:10a78c00b2c0b300904f110002003a0002407800b2
:10a79c000100370040c0b300804878008040eb00d7
:10a7ac00e0cb2000017898007c0d370026a2020037
:10a7bc0000000000e14f5000780d3a0041e021000c
:10a7cc00214090007e405000a0409800730d37004f
:10a7dc008040eb00e0cb2000017898006f0d370033
:10a7ec00300020006075880041e02100114090008d
:10a7fc000004e00003003200e14f5000670d3a0006
:10a80c00100037002e8c0200000000000004e00055
:10a81c0003003200701121001004e000040032002b
:10a82c007011210013c0b30090cf11005b0d3a00e2
:10a83c0011c0b300701121000148780035f00700f9
:10a84c00560d3700214090000081fb0003002000d2
:10a85c00ee0f5100e08f59004a013e0002600100ea
:10a86c000e003700340037008b0037008a003700a9
:10a87c008900370088003700870037008a003700ce
:10a88c00a7003700ab003700b7003700c500370012
:10a89c00d1003700dc003700e300370088112100bd
:10a8ac008040eb00a0f521002168980060f92100a0
:10a8bc00014878000000eb00c0fa8800c6d90200fd
:10a8cc00000000000000e0000100320010c0b300e6
:10a8dc00004c780040ea20000048eb0040f92100d1
:10a8ec000048eb0044d8020000000000210d2000bd
:10a8fc00810f500004003a0041e0210021409000fb
:10a90c006d4040000a003700388e02000000000045
:10a91c000004e0001c01320011c0b300e0cb2000a9
:10a92c0001e8980041e02100214090000040e8003f
:10a93c00a040980014013700e1cb200001e8900002
:10a94c00e14f400010013a000041eb0082e8980012
:10a95c0050ea2000b4c0b30021c0b300904f1200e5
:10a96c004e003a005016210010407800e14f500084
:10a97c001a003a000001eb00828b88006000b800de
:10a98c00b08b8800c18b8800d08b8800e18b88004d
:10a99c0002047800e9212200080078005eca020057
:10a9ac00000000000000e000060032008840780043
:10a9bc0010c0b300066f02000000000000c8b30016
:10a9cc00804c78000804e8002904b0000002200044
:10a9dc00800f540025003200efff3700e24f50008b
:10a9ec000c003a006000b800b08b8800c18b880066
:10a9fc00d08b8800e18b880010c0b3006cdc0200a7
:10aa0c000000000001c8b30080f9210071489800d3
:10aa1c0016003700e64f500009003a00801621005e
:10aa2c004248980010c0b3000ee302000000000082
:10aa3c0081c0b30060ed2100114098000b0037007d
:10aa4c00e84f500009003a00801621000258980087
:10aa5c006000b800b08b8800c18b8800d08b880058
:10aa6c00e18b8800f2d302000000000061c2b30049
:10aa7c0040dd200001487800b1c0b30090ea20000e
:10aa8c000148780096d8020000000000c4d00200f3
:10aa9c0000000000bc0037008040e80040e02100ce
:10aaac0021409800b8003700800220005eca0200e6
:10aabc00000000000000e00007003a0040e4210024
:10aacc001004e00004003a0041e021002140900015
:10aadc006640400096ff370040fd8000010c2e00c0
:10aaec00010060002b003a0050fd80006300600004
:10aafc0028003a00d0c0b3006cdc0200000000005b
:10ab0c0081c0b30080f9210071489800a0e62000b4
:10ab1c00e0fc8800c0122000f0fc880081ff3700a8
:10ab2c0040fd800091c0b3000048a300dbff3a0059
:10ab3c009500370041fd80000128a30002003a0077
:10ab4c00a1c0b300d5ff3700000c2e0000806000c0
:10ab5c0003003a0050fd8000630060008a00320060
:10ab6c00c1c0b300cdff370040fd8000010c2e00aa
:10ab7c000100600003003a0050fd8000630060009b
:10ab8c0004003200bee90200000000000004e000f6
:10ab9c0064ff3a0041e021002140900063404000f6
:10abac0063ff370040fd80000008a30007003a0057
:10abbc0010c0b3006cdc02000000000001c8b30040
:10abcc0080f92100714898006f003700e2de020026
:10abdc000000000053ff37005edf020000000000a1
:10abec000000e0004fff3a0040fd8000010c2e00f9
:10abfc00010060004bff3a0050fd800063006000d4
:10ac0c006100320047ff3700b088020000000000ee
:10ac1c00e1cb200010c0b300c0c898000040eb008e
:10ac2c00c0f098003fff37001497020000000000ae
:10ac3c0010e60200000000000004e0000e003200ec
:10ac4c0018e602000000000010e602000000000000
:10ac5c000004e0002c00320068ed210030f8800088
:10ac6c0041f8800005002800850f5000e08f580047
:10ac7c00250032001000370090c9020000000000cf
:10ac8c00804078000004e0002200320090c90200ed
:10ac9c00000000000004e0001b00320068ed210001
:10acac0030f8800041f8800002002800820f50002c
:10acbc00e08f580014003200a20020000300200096
:10accc00362d0200000000000001be00286090003c
:10acdc000080fb0001002000800f5100818f590083
:10acec0009003600386090000080fb000100200055
:10acfc00800f5100818f590003003e0010c0b3003b
:10ad0c00107c9800060037008040eb0060ed2100bd
:10ad1c000200370060ed210001789800117898004e
:10ad2c0080ea20001004e000170032001ad902005b
:10ad3c00000000000000e00013003200e1cb200016
:10ad4c0041f090000004e00003003a0010c0b30092
:10ad5c00c0f098000c003700e14f40000a003a00a8
:10ad6c000040eb00c0f0980011c0b300301d210072
:10ad7c000148780031c0b30090ea20000148780007
:10ad8c0001003700ffff370044d80200000000002c
:10ad9c0071382000810f500008003a00e1cb2000f0
:10adac0041489100e14f400004003a000040eb00a4
:10adbc00c04899000004040000000000a0cb200053
:10adcc00104090000004e000f40b3200c06221003f
:10addc001041780050c6b300804f5100040032007f
:10adec0065404000804f510012003a0009003700c6
:10adfc0031c0b30090ea20000148780050ea2000ee
:10ae0c00b3c0b30090cf11000a003a00024878009a
:10ae1c000800370071c0b30090ea200001487800a8
:10ae2c0050ea2000b4c0b300904f120001003a0069
:10ae3c00014878008040eb00a0cb20001140980026
:10ae4c00d60b3700100020006075880040e0210010
:10ae5c00104190000204e00003003200e14f510069
:10ae6c00ce0b3a001600370080ea2000024878002a
:10ae7c000000eb005075880076880200000000008e
:10ae8c002e8c0200000000000004e00003003200e1
:10ae9c00701121001004e000040032007011210038
:10aeac0015c0b30090cf1200bc0b3a0011c0b30018
:10aebc00701121000148780096ee0700b70b37009f
:10aecc00e3cb200003f090000004e0000e00320001
:10aedc00e14f40000d003a00507580000000e80082
:10aeec005075880071702000810f500006003600ec
