:020000040000fa
:085808007e2c040000000000ea
:020000040000fa
:1058fc00afe6220080ff23000001880000000000ba
:10590c000a00070011000700000020000000e00062
:10591c0002003200000002000000000024a6020079
:10592c00000000000040da000000fe004440a90026
:10593c00406220000000e000030032000000200064
:10594c00a00188004440a8000000060060952a00d1
:10595c00010020001600370062004000e080480083
:10596c00910188009001ba0062004000e08048007c
:10597c00910188009002ba0062004000e08048006b
:10598c000002eb006028e10005003a008301e90009
:10599c0007003300038009000059eb0004003700b6
:1059ac006128e100010032000082eb0005000700d5
:1059bc00910188001001ba000200e000e6ff3a00f5
:1059cc000000050091018800800278006200400010
:1059dc00e08048003559ba008301e9000800320024
:1059ec002559ba008301e900050032000400e000eb
:1059fc00f4ff320015d9ba008301e900f1ff3a0037
:105a0c0000000600a685040000000000aa86040021
:105a1c00000000007698040000000000f2990400d9
:105a2c000000000082340400000000000e39040065
:105a3c00000000008001eb0002003700817178004b
:105a4c008301e800828f5100fcff3a000000060041
:105a5c00889fbe008a9fbe00010578000100e0000f
:105a6c000400350008003c000000e000200032007b
:105a7c000500370060001000e080180002003b00b9
:105a8c0001f02c001a0037000004be006011b800b1
:105a9c006b0920000982cf00020039000882cf0078
:105aac000441b000694252000e00320008003b0075
:105abc0082817100610164008904d1000884d300e3
:105acc008b05e8000442e800f9ff3a0005003700b6
:105adc000804440089844c008b05e9000442e90069
:105aec00fbff3a00600107000af0a70001f0a000dc
:105afc004f05be004f04be000000060003f0a200dc
:105b0c00889fbe008a9fbe008c1f78007c01070016
:105b1c00830133006450e1004f0032006420e10047
:105b2c005200320003826c0007003b000905d000d4
:105b3c000306d000820f54000c065d0002003900f1
:105b4c000200320089017800030678008582550036
:105b5c0004003d000003fd008103fd008502ea0006
:105b6c008b854200840f720002003b006000100025
:105b7c00e08018006011b8000005eb007a28e10005
:105b8c000a00390006007800c75ddd00f707b20097
:105b9c00878075002d003700828171000a01780022
:105bac00610560008180d1000080d3008502e9008e
:105bbc00f9ff3b00060440008784480002003b00cc
:105bcc0060041400e0841c000988a3000700320064
:105bdc008a81710082817100610164008904d100a5
:105bec000884d3008b05e800170037000978a30060
:105bfc0013003a000b00e000130034008b05e900a1
:105c0c000804440089844c000a4474000978a300f9
:105c1c000d003a000b00e000070034008b05e90092
:105c2c000804440089844c0001003a000b00200059
:105c3c000978a300f7ff32000001eb0002003700e7
:105c4c00828171000a017800070107000cf0a7009f
:105c5c0001f0a0003b0137006420e10002003a0093
:105c6c00838f6c003b0133000801be000200be00b4
:105c7c0034013700889fbe008a9fbe008c1f7800bd
:105c8c001f0107002601330003866c006450e100fd
:105c9c002e0032006420e100330032006150e1003c
:105cac002f0032006120e100310032008585550063
:105cbc00eb07b000090020000804200005003700a5
:105ccc000804440089844c000a0031000603430098
:105cdc0087834b000001530081815b00f8ff330088
:105cec000203be000800a0000804440089844c0094
:105cfc00f6ff3900c639dd00830173000100320064
:105d0c00130020008904d1000884d3000998a30053
:105d1c00050032000800a7000300a0008904d10090
:105d2c000884d3008b05e8008904d1000884d300d3
:105d3c000001eb000281d200cb00070001f0a100b2
:105d4c000cf0a70001f0a000fe0037006420e10079
:105d5c00000132000801be000200be00f7ff370050
:105d6c006120e100fb0032006000b800f3ff370057
:105d7c000000200001f82700f0ff3700889fbe00cc
:105d8c008a9fbe008c1f7800dd000700e400330002
:105d9c0003866c006450e100240032006420e100b2
:105dac00270032006150e100220032006120e10046
:105dbc00210032008b854200eb07b1000134b800a2
:105dcc00003ab8000804420089844a00013ab8003d
:105ddc000030b8008880400009014a0004003300fc
:105dec000000400081804800020149008b05e90059
:105dfc00c909dd008301700001003200130020008e
:105e0c00c814de004814dd004709de001200b200a1
:105e1c00c808de00088470009300070001f0a100a0
:105e2c000cf0a70001f0a000c60037006120e100d3
:105e3c00c80032000801be000200be00f7ff3700a8
:105e4c006150e100fcff3a00c20037000001be00c7
:105e5c00c30007000470a70003f0a10003f8a3001f
:105e6c0013003a006509b10010003200090035003a
:105e7c006928e1000200350001002800000005003f
:105e8c0000004000818048008502e900fcff3a00d8
:105e9c0000000600f88f4200050035008100d1009b
:105eac000080d3008502e800fcff3a0000000600e9
:105ebc008000eb00000005000001be00a8000700f8
:105ecc000470a70003f0a1006509b10016003200b0
:105edc000d0035006828e10006003500f0ff2f00aa
:105eec00f1ff27000300e00013003b000100280035
:105efc000000050000004000818048008502e90098
:105f0c00fcff3a0008003700f88f420002003c000a
:105f1c008000eb00000005008100d1000080d30060
:105f2c008502e800fcff3a000300e00002003b00a1
:105f3c0060001000e0801800000006001400200033
:105f4c009c0037000001eb00b50007000400320094
:105f5c000200200003f8230001f0a700e7fe070071
:105f6c00000006000001eb00ad0007000400320049
:105f7c000200200003f8230001f0a600e0fe070059
:105f8c0000000600f4ff2f008a003700839f680092
:105f9c000100e00002003d0060001000e0801800ed
:105fac000300e00002003d0060011100e0811900d7
:105fbc00140007004f00e00002003b0060001000de
:105fcc00e080180000000600811f78000100e0004e
:105fdc0002003d0060001000e08018000300e000ab
:105fec0002003d0060011100e0811900150007005e
:105ffc004f00e00002003b0060001000e080180041
:10600c00000006006022b800060220000000d0004c
:10601c008180d2000482d2008582d2000000a000d0
:10602c000202520083825a00030031000202420035
:10603c0083824a000000a1000603e900f3ff3a0046
:10604c0000000600efff07000400be000000060081
:10605c00020ab900001bb9000200b800810042001e
:10606c008100430000000600810020006180550083
:10607c000b003d000b00200061fe2f000100e10031
:10608c001d00340082817100610164008904d1001b
:10609c000884d3000000e800faff3a0071002000e9
:1060ac00610064000300700002006000090032000f
:1060bc0061044400e0844c000988a500050032000e
:1060cc008b05e8006808e10002003a008904d10061
:1060dc000884d300f20f20000258e10005003d00b7
:1060ec00c75ddd00f907b2008980750008007800f3
:1060fc00000006000bf827008b007800000005005c
:10610c000004be00160007000003be000405be001c
:10611c000200be0012000700844f7500000006004c
:10612c000200be006450e100050036006420e1006e
:10613c00020036000968a30001003a000800be0006
:10614c000160a0004f0678004f05be004f04be0052
:10615c0000000600f0ff2f00f1ff2700f9ff3700c9
:10616c00c70ade00f107b200f50fb20008003200da
:10617c00e1cf4200020032000170a00024000500b3
:10618c00810f700001003200040805004400050076
:10619c00810f700002003a00140005008502e9002e
:1061ac000000400081c04800fcff3b000170a000d3
:1061bc0024000500889fbe008a9fbe00841f7800c3
:1061cc00cfff07004f00780011003300f0ff2f00c5
:1061dc00838f6c0006003b00040565000a00a700d5
:1061ec000800370009f0a600100020000800370056
:1061fc00820f5400838f5c000300390010002000d4
:10620c0001003e000000200009f0a7000000ea0099
:10621c004f05be004f04be000000e0000000060069
:10622c00889fbe008a9fbe000003be00ccff070003
:10623c008505780082815200020020006220e10076
:10624c0004003a00f307b100040035007718e100b0
:10625c00040035000600be00140037006000b800d2
:10626c000f003700f50f2000faff2f008502d10038
:10627c000a85d3008301e900fcff3b0081846200a6
:10628c0000046500890f7400f2ff32008582ea0079
:10629c000a85ea00818462000004650072ff070031
:1062ac0007f0a70001f0a0000081eb000200e00065
:0c62bc004f05be004f04be0000000600ad
:020000040000fa
:020000040005f5
:0457f400ffff0000b3
:020000040000fa
:020000040005f5
:0457f800ae130000ec
:020000040000fa
:020000040005f5
:0457fc007f360000f4
:020000040000fa
:0c583c0032a8040000000000000006007c
:020000040000fa
:0c58f000b28f0400000000000000060061
:020000040000fa
:0c58dc00f68f0400000000000000060031
:020000040000fa
:0c58b4009a8304000000000000000600c1
:020000040000fa
:0c58a000d8830400000000000000060097
:020000040000fa
:0458040000000000a0
:020000040000fa
:1062c80001020000040800001020000040800000c7
:1062d80001000000020000000400000008000000a7
:1062e80010000000200000004000000080000000b6
:1062f8000001000000020000000400000008000087
:106308000010000000200000004000000080000095
:10631800fefd0000fbf70000efdf0000bf7f00007c
:106328000102000004080000102000004080000066
:10633800f00f00000100000002000000040000004f
:1063480008000000100000002000000040000000cd
:1063580080000000000100000002000000040000ae
:1063680000080000001000000020000000400000ad
:106378000080000001000000000000000a0000008a
:10638800000000006400000000000000e8030000b6
:10639800000000001027000000000000a086000098
:1063a80001000000404200000f000000809600003d
:1063b8009800000000000000c1c0000081c100007a
:1063c8004001000001c30000c0030000800200007b
:1063d80041c2000001c60000c0060000800700009e
:1063e80041c7000000050000c1c5000081c40000cd
:1063f8004004000001cc0000c00c0000800d00002b
:1064080041cd0000000f0000c1cf000081ce000088
:10641800400e0000000a0000c1ca000081cb000045
:10642800400b000001c90000c009000080080000fe
:1064380041c8000001d80000c01800008019000001
:1064480041d90000001b0000c1db000081da000018
:10645800401a0000001e0000c1de000081df0000bd
:10646800401f000001dd0000c01d0000801c00006e
:1064780041dc000000140000c1d4000081d50000f8
:106488004015000001d70000c0170000801600006a
:1064980041d6000001d20000c012000080130000a5
:1064a80041d3000000110000c1d1000081d00000dc
:1064b8004010000001f00000c030000080310000f2
:1064c80041f1000000330000c1f3000081f2000038
:1064d8004032000000360000c1f6000081f70000dd
:1064e8004037000001f50000c0350000803400008e
:1064f80041f40000003c0000c1fc000081fd0000e8
:10650800403d000001ff0000c03f0000803e000049
:1065180041fe000001fa0000c03a0000803b000084
:1065280041fb000000390000c1f9000081f80000bb
:106538004038000000280000c1e8000081e90000a0
:106548004029000001eb0000c02b0000802a000059
:1065580041ea000001ee0000c02e0000802f00007c
:1065680041ef0000002d0000c1ed000081ec0000ab
:10657800402c000001e40000c02400008025000039
:1065880041e5000000270000c1e7000081e60000a7
:106598004026000000220000c1e2000081e3000064
:1065a8004023000001e10000c0210000802000001d
:1065b80041e0000001a00000c06000008061000010
:1065c80041a1000000630000c1a3000081a20000f7
:1065d8004062000000660000c1a6000081a700001c
:1065e8004067000001a50000c0650000806400004d
:1065f80041a40000006c0000c1ac000081ad0000a7
:10660800406d000001af0000c06f0000806e000008
:1066180041ae000001aa0000c06a0000806b0000c3
:1066280041ab000000690000c1a9000081a800007a
:106638004068000000780000c1b8000081b900007f
:106648004079000001bb0000c07b0000807a000098
:1066580041ba000001be0000c07e0000807f00003b
:1066680041bf0000007d0000c1bd000081bc0000ea
:10667800407c000001b40000c07400008075000078
:1066880041b5000000770000c1b7000081b60000e6
:106698004076000000720000c1b2000081b3000023
:1066a8004073000001b10000c0710000807000005c
:1066b80041b0000000500000c1900000819100002e
:1066c8004051000001930000c053000080520000b8
:1066d8004192000001960000c0560000805700005b
:1066e8004197000000550000c1950000819400000a
:1066f80040540000019c0000c05c0000805d000068
:10670800419d0000005f0000c19f0000819e0000c5
:10671800405e0000005a0000c19a0000819b000002
:10672800405b000001990000c0590000805800003b
:106738004198000001880000c0480000804900001e
:1067480041890000004b0000c18b0000818a0000d5
:10675800404a0000004e0000c18e0000818f0000fa
:10676800404f0000018d0000c04d0000804c00002b
:10677800418c000000440000c184000081850000b5
:106788004045000001870000c04700008046000027
:106798004186000001820000c042000080430000e2
:1067a8004183000000410000c18100008180000099
:1067b80040400000000000000000000060ae000043
:1067c800000000008051000001000000e0ff000010
:1067d80001000000a0a8000002000000005700000f
:1067e80003000000c0ff00000300000020ae00000e
:1067f80004000000805c0000050000004005000067
:1068080006000000a0b3000006000000605c000065
:1068180007000000000000000000000060ae00005b
:1068280000000000e04b00000100000040fa0000fa
:106838000100000000a300000200000060510000f9
:106848000300000020fa00000300000080a80000f8
:1068580004000000e056000005000000a0ff000052
:106868000500000000ae000006000000c056000051
:106878000700000000000000000500000101000002
:106888000a000000050500000505000005050000d8
:1068980005050000050500000505000005050000c8
:1068a80005050000050500000505000005050000b8
:1068b80005050000050500000505000005050000a8
:1068c8000505000005050000050500000505000098
:1068d8000505000005050000050500000505000088
:0468e80005050000a2
:020000040000fa
:1068ec000181fb00210420000191b900a1d52100f8
:1068fc0080707900000006000400fa00889fbe003a
:10690c008a9fbe008c9fbe0000057800014678006f
:10691c000181fb00200420000090b900a4d52100c7
:10692c00800442007e11b900e0692100820540001c
:10693c0020c0b300004d780011c2b30001404600e6
:10694c001045980030c0b30080f79f0019417800c3
:10695c00f08057000a007800f89102000000000057
:10696c0029799000f08057000a007800f891020015
:10697c000000000019407800e64f50000f01320073
:10698c000b003e00e34f50000c01320003003e00b0
:10699c00e24f5000e9013a000d003700e44f50007f
:1069ac00af013200e54f5000e4013a0031003700ee
:1069bc00e84f50002f003200a9013900e94f500078
:1069cc00a7013200ef4f5000dc013a002e003700d7
:1069dc004b4090000080fb005b4190004811dd00b3
:1069ec0000017100f08057000a007800f891020055
:1069fc00000000005b4190000281fb00f08057001a
:106a0c000a007800f8910200000000001b80fb00d7
:106a1c001b4190004811dd0000017100f08057000f
:106a2c000a007800f8910200000000001b41900061
:106a3c000281fb00f08057000a007800f8910200f8
:106a4c00000000004b5090000080fb005b51900058
:106a5c004811dd0000017100f08057000a00780039
:106a6c00f8910200000000005b5190000281fb00d5
:106a7c00ae01370011c0b3000c407800dc5c0200a2
:106a8c0000000000a801370011c0b3000c407800d2
:106a9c00dc5c02000000000029199000f080570017
:106aac000a007800f89102000000000029199000fb
:106abc004811de00f08057000a007800f8910200bf
:106acc000000000039199000f08057000a0078008f
:106adc00f891020000000000391990004811de0006
:106aec00f08057000a007800f891020000000000c6
:106afc0039099000f08057000a007800f8910200e4
:106b0c0000000000390990004811de00f0805700a9
:106b1c000a007800f891020000000000491990006a
:106b2c00f08057000a007800f89102000000000085
:106b3c004919900008f02f004811de00f080570032
:106b4c000a007800f891020000000000494990000a
:106b5c00f08057000a007800f89102000000000055
:106b6c006901900008016100030020004818dd0055
:106b7c004811de0002017000c819de00f0805700d9
:106b8c000a007800f89102000000000079019000e2
:106b9c000281fb0003002000f08057000a007800ff
:106bac00f8910200000000007901900008016100da
:106bbc0003002000c818dd004811de0002817000bf
:106bcc00c819de00f08057000a007800f891020026
:106bdc000000000029099000f08057000a0078009e
:106bec00f891020000000000290990004811de0015
:106bfc00f08057000a007800f891020000000000b5
:106c0c0039019000f08057000a007800f8910200da
:106c1c0000000000390190004811de00f0805700a0
:106c2c000a007800f8910200000000001941900061
:106c3c00f08057000a007800f89102000000000074
:106c4c0009619000f08057000a007800f89102006a
:106c5c000000000019119000f08057000a00780025
:106c6c00f891020000000000191190004811de009c
:106c7c00f08057000a007800f89102000000000034
:106c8c0029119000f08057000a007800f89102005a
:106c9c0000000000291190004811de00f080570020
:106cac000a007800f8910200000000006b40900090
:106cbc000080fb007b4190004811dd000001710059
:106ccc00f08057000a007800f891020000000000e4
:106cdc007b4190004811dd00080161004811de0085
:106cec00f08057000a007800f891020000000000c4
:106cfc0059019000f08057000a007800f8910200ca
:106d0c0000000000590190004811de00f08057008f
:106d1c000a007800f8910200000000003911900080
:106d2c00f08057000a007800f89102000000000083
:106d3c00391190004811de00f08057000a007800ed
:106d4c00f89102000000000059099000f0805700f3
:106d5c000a007800f8910200000000005909900028
:106d6c004811de00f08057000a007800f89102000c
:106d7c000000000069099000f08057000a007800bc
:106d8c00f891020000000000690990004811de0033
:106d9c00f08057000a007800f89102000000000013
:106dac000000eb00e34f56000100360050c0b3006a
:106dbc00905c980019599000d700370011c0b300af
:106dcc000c407800dc5c0200000000004949900097
:106ddc00f08057000a007800f891020000000000d3
:106dec0000f02f00010020006901900000047800e1
:106dfc008106780000016100030020004818dd00c6
:106e0c004811de0002017000c819de00f080570046
:106e1c000a007800f891020000000000790190004f
:106e2c000281fb0003002000f08057000a0078006c
:106e3c00f891020000000000790190000801610047
:106e4c0003002000c818dd004811de00028170002c
:106e5c00c819de00f08057000a007800f891020093
:106e6c000000000029099000f08057000a0078000b
:106e7c00f89102000000000029099000080161004f
:106e8c004811de00f08057000a007800f8910200eb
:106e9c000000000039019000f08057000a007800d3
:106eac00f891020000000000390190000801610017
:106ebc004811de00f08057000a007800f8910200bb
:106ecc000000000019419000f08057000a00780083
:106edc00f89102000000000009619000f08057005a
:106eec000a007800f89102000000000019119000cf
:106efc00f08057000a007800f891020000000000b2
:106f0c0019119000080161004811de00f080570053
:106f1c000a007800f891020000000000291190008e
:106f2c00f08057000a007800f89102000000000081
:106f3c0029119000080161004811de00f080570013
:106f4c000a007800f8910200000000006b409000ed
:106f5c000080fb007b4190004811dd0000017100b6
:106f6c00f08057000a007800f89102000000000041
:106f7c007b4190004811dd00080161004811de00e2
:106f8c00f08057000a007800f89102000000000021
:106f9c0059019000f08057000a007800f891020027
:106fac000000000059019000080161004811de004a
:106fbc00f08057000a007800f891020000000000f1
:106fcc0039119000f08057000a007800f891020007
:106fdc000000000039119000080161004811de002a
:106fec00f08057000a007800f891020000000000c1
:106ffc0059099000f08057000a007800f8910200bf
:10700c000000000059099000080161004811de00e1
:10701c00f08057000a007800f89102000000000090
:10702c0069099000f08057000a007800f89102007e
:10703c000000000069099000080161004811de00a1
:10704c00f08057000a007800f89102000000000060
:10705c00e34f560055ff3e009d5c980055ff3700ee
:10706c0011c0b3000c407800dc5c02000000000092
:10707c0049499000f08057000a007800f89102000e
:10708c00000000006901900008f02f000801610069
:10709c00030020004818dd004811de0002017000da
:1070ac00c819de00f08057000a007800f891020041
:1070bc000000000029099000f08057000a007800b9
:1070cc00f8910200000000002909900008016100fd
:1070dc004811de00f08057000a007800f891020099
:1070ec000000000039019000f08057000a00780081
:1070fc00f8910200000000003901900008016100c5
:10710c004811de00f08057000a007800f891020068
:10711c000000000009599000f08057000a00780028
:10712c00f8910200000000002b599000f0805700ed
:10713c000a007800f8910200000000000ff09700a0
:10714c005042b000204598008ff0970065c0400079
:10715c0040dd99008180fb000001eb000a00780003
:10716c001c950200000000008ff097008181fb004d
:10717c004801de00cc00de000142b00081717d00d0
:10718c008ff197008340e80081f79f008180fb001e
:10719c006f4161000242b00082707d008ff0970059
:1071ac000141e80082f79f000281fb00800078001b
:1071bc00010fb200c488de000142b00001717d00f5
:1071cc000ff197008240e80081f79f008180fb005f
:1071dc006f4060000042b00080707d008ff197001e
:1071ec000340e8000080fb0031c0b30001707d005b
:1071fc002ae091000010a00020e599004f06be0087
:10720c004f05be004f04be000080fa0000000600cf
:10721c000a00fa00881f780001447800404390006f
:10722c00ea825700e0409000814a7800704190005b
:10723c00f2f79f0080489000a14298008040eb003c
:10724c0091ff9f008883fb00423add00412821001a
:10725c00010242001501780095019000028abe00df
:10726c00e680570010499000824878002049900031
:10727c00b2ff9f0030499000c2ff9f004049900030
:10728c00d2ff9f002204200002b9b900a4d521002e
:10729c000202420011017800efb99700021a98001f
:1072ac00131a9800d0489000016a98006049900029
:1072bc00126a9800f0489000216a980000519000e2
:1072cc00c2f79f0010509000d0f79f002fb8970086
:1072dc0000229800a103200084804000f00f2000c1
:1072ec00910860000000eb00601a98007418900080
:1072fc0001f02f0001006000701a98000680fb005e
:10730c0001002000f30f5000e08f5800c5003e0034
:10731c0000600100130037001900370046003700e9
:10732c00450037001e003700380037003d0037009d
:10733c00290037002f00370052003700700037004b
:10734c00460037005a0037006300370076003700dc
:10735c007f0037008800370091003700a400370009
:10736c00990037002004200000b8b90042d9210050
:10737c00020040001090a0008040eb00a6003700f7
:10738c002004200000b8b90042d9210002004000be
:10739c00100178000280a0000290a00007003700c6
:1073ac002004200000b8b90042d92100020040009e
:1073bc00100178000290a00002a0a0000208780042
:1073cc008040eb0007007800465b020000000000e4
:1073dc008040eb001d0037002004200000b8b900ed
:1073ec0042d9210002004000020028001008710060
:1073fc00110037002004200000b8b90042d9210048
:10740c000200400010e0a0000b0037002004200018
:10741c0000b8b90042d921000200400010c0a00001
:10742c00050037002004200000b8b90042d9210023
:10743c000200400010b0a00011c0b300070078009b
:10744c00465b02000000000011c0b3000840780049
:10745c00dc5c0200000000007200370020042000f9
:10746c0000b8b900a2d5210000014100a003200002
:10747c00020040001090a000621890000000a000d4
:10748c00090037002004200000b8b900a2d5210063
:10749c0000014100a0032000020040001090a00059
:1074ac00621890000010a000601998005900370075
:1074bc002004200000b8b900a2d521000001410031
:1074cc00a0032000020040001090a0006218900061
:1074dc000020a000f4ff37002004200000b8b90001
:1074ec00a2d5210000014100a003200002004000b1
:1074fc001090a000621890000030a000eaff370046
:10750c002004200000b8b900a2d5210000014100e0
:10751c00a0032000020040001090a0006218900010
:10752c000040a000e0ff37002004200000b8b900a4
:10753c00a2d5210000014100a00320000200400060
:10754c001090a000621890000050a000d6ff3700e9
:10755c002004200000b8b900a2d521000001410090
:10756c00a0032000020040001090a00062189000c0
:10757c000060a000ccff37002004200000b8b90048
:10758c00a2d5210000014100a00320000200400010
:10759c001090a000621890000070a000c2ff37008d
:1075ac002004200000b8b900a2d521000001410040
:1075bc00a0032000020040001090a000c203b00005
:1075cc001280a000130037002004200000b8b9007e
:1075dc00a2d5210000014100a003200002004000c0
:1075ec001090a000c203b00012a0a0000900370048
:1075fc002004200000b8b900a2d5210000014100f0
:10760c00a0032000020040001090a000c203b000b4
:10761c001290a00011c0b30007007800465b020076
:10762c00000000004f0478000080fa000000060003
:10763c00889fbe008a9fbe008c1f78000003be008e
:10764c00024578008004eb0000c6eb0009047800ca
:10765c00854c2100884578006a8252000a04e000bb
:10766c0004003a0010c0b300954f100028003e00f3
:10767c0005003700e14f550025003a0015c0e90020
:10768c00e14f500022003e00a44090008180fb009e
:10769c00344090004800dd0001017000c4409000af
:1076ac008180fb00544090004800dd008101700097
:1076bc00820f5300838f5b0015003900e44090006b
:1076cc008180fb00744090004800dd0001017000d7
:1076dc00844890008180fb00144890004800dd0035
:1076ec0081017000820f5300838f5b000800310012
:1076fc009480fb00144090004800dd0001007000f5
:10770c00890f500002003600800478000b46780088
:10771c000804e8000506b000e50f5400cdff3a0060
:10772c000c80fb004f0678004f05be004f04be00d6
:10773c00000006000400fa00889fbe008a9fbe006d
:10774c008c9fbe000004be00a82f020000000000a9
:10775c000006be000800be00b82f020000000000aa
:10776c0080bf9f0091bf9f000c01be000800be00af
:10777c00842d0200000000000005be000801be00c0
:10778c000fb897009fb89700842d020000000000ee
:10779c000001be000a00be00a42f02000000000081
:1077ac000000e000020035000fbe97009fbe97005e
:1077bc000c00be004f06be004f05be004f04be00bd
:1077cc000080fa0000000600ef02b000889fbe00a7
:1077dc008a9fbe008c9fbe008e1f780090b79f00c2
:1077ec00a1b79f00e2e79f0003477800c4b79f0052
:1077fc000284fb002004200000c0b900a2d52100a7
:10780c0000004100f0af9f00e1cf510005003a00ad
:10781c006000b8007fa99700000998001109980032
:10782c00040037006000b8007faa9700600298003f
:10783c00710298000e4178001fb09700afb097000e
:10784c007bff070080e79f00e14f4000aa01320058
:10785c000080fb00020620000280b900e34b2100ef
:10786c00808141007e40b900e269210000004100a6
:10787c00e0af9f008002eb00708241006c81410000
:10788c008303b0009380fb00134090004800dd00a0
:10789c0001047000a34090008180fb0033409000f5
:1078ac004800dd00810470008502e800e48141009d
:1078bc0064014100640242009380fb00134090007d
:1078cc004800dd0001057000a34090008180fb00a2
:1078dc00334090004800dd00810570009280fb0071
:1078ec0053d097004800dd0001067000e3d09700ec
:1078fc008180fb0073d097004800dd00810670008a
:10790c009480fb0013d897004800dd0081007000c4
:10791c00c1af9f00a3d897008180fb0033d897009c
:10792c004800dd0081007000d1af9f001fb09700b0
:10793c00afb09700880f5000898f58006c01390048
:10794c008a0f50008b8f580069013100e00f5000f6
:10795c00e08f5800030035002e2d020000000000bf
:10796c00100037009fb0970061806000010020007c
:10797c001fb29700afb297008501d1000481d300ec
:10798c0002007000838070002e2d020000000000a9
:10799c000001be00a0af9f00b1af9f00862d02007a
:1079ac0000000000a0af9f00b1af9f00e00f54009b
:1079bc00e08f5c00040035000800be002e2d020094
:1079cc00000000000d003700610064000100200081
:1079dc008901d1000881d3000200700083807000ff
:1079ec002e2d0200000000000001be0080af9f00a1
:1079fc0091af9f00862d02000000000080af9f0019
:107a0c0091af9f00e00f5500e08f5d000400350042
:107a1c000a00be002e2d0200000000000b003700f3
:107a2c0061006500010020008b01d1000a81d300a8
:107a3c0002007000838070002e2d020000000000f8
:107a4c000001be00862d0200000000000005be00f3
:107a5c00e00f5600e08f5e00040035000c00be0005
:107a6c002e2d0200000000000d00370061006600a2
:107a7c00010020008d01d1000c81d30002007000a8
:107a8c00838070002e2d0200000000000001be005b
:107a9c00e0a79f00f1a79f00862d020000000000c8
:107aac00e0a79f00f1a79f004fa89700dfa89700c1
:107abc00e00f5000e08f5800030035002e2d02001f
:107acc000000000010003700cfa897006180600014
:107adc00010020004faa9700dfaa97008501d10072
:107aec000481d30002007000838070002e2d0200f0
:107afc00000000000001be00c0a79f00d1a79f009e
:107b0c00862d020000000000c0a79f00d1a79f0097
:107b1c00e14f5700cb003a000fa997009fa997009f
:107b2c000a00be00842d0200000000000004be000c
:107b3c006fa19700ffa197004fa09700dfa09700bf
:107b4c00842d0200000000000001be000800be00f1
:107b5c00402e020000000000d0b79f00e1b79f004c
:107b6c006fa19700ffa19700c42e02000000000037
:107b7c000001be000fa897009fa89700842d02005b
:107b8c0000000000f0b79f0081bf9f008042eb0017
:107b9c00e5c79f000007eb00efa897001180fb00e2
:107bac00114490004844dd00000474006140b900a9
:107bbc002e2d0200000000000006be000800e000b0
:107bcc0005003d000200200003782400862d0200f1
:107bdc00000000000006be006170b9002e2d0200ee
:107bec00000000000e00e00004003d000200200038
:107bfc0003782400862d0200000000000001be0066
:107c0c000c00be00c42e0200000000000001be00eb
:107c1c006fa09700ffa09700862d020000000000c7
:107c2c000004be000001be005fb09700efb09700eb
:107c3c00c42e0200000000007fb197008fb997009e
:107c4c00862d0200000000000005be002fa9970041
:107c5c00bfa99700c82f0200000000000000e00040
:107c6c002e0034000e00e00003003a006fa49700d1
:107c7c00ffa49700140037000e07e9006170b900eb
:107c8c002e2d0200000000000e00e00004003d005c
:107c9c000200200003782400862d02000000000062
:107cac000001be000c00be00c42e0200000000004b
:107cbc000001be006fa09700ffa09700862d020068
:107ccc00000000000004be000801be005fb0970079
:107cdc00efb09700c42e0200000000007fb19700a7
:107cec008fb99700862d0200000000000001be0035
:107cfc002fa89700bfa89700842d02000000000059
:107d0c002c2f0200000000004fb197000089be002c
:107d1c0014c0b300e4c79f000c0037002fa99700d4
:107d2c00bfa997000a00be00a42f020000000000ab
:107d3c000000e00005003a00cfb29700800aeb008b
:107d4c00b512780010c0b300e0c79f004fa1970098
:107d5c00dfa197000800be00c82f02000000000041
:107d6c000000e0002c0034005fb19700efb19700e9
:107d7c004fa09700dfa09700c42e02000000000067
:107d8c007fb197008fb99700862d0200000000008c
:107d9c000004be002fa99700bfa99700c82f0200ae
:107dac00000000000000e0000e0034002fa9970036
:107dbc00bfa997000800be00842d0200000000003f
:107dcc002c2f0200000000004fb197000089be006c
:107ddc004fa49700dfa4970014c0b300e4c79f0022
:107dec000d0037000801be002fa89700bfa8970010
:107dfc00842d0200000000002c2f02000000000067
:107e0c00cfb29700808abe004fa49700dfa49700e2
:107e1c0010c0b300e0c79f000e07e800efc097004a
:107e2c000104e0005cff32000800be002c2f0200b1
:107e3c00000000007fa99700000998001109980024
:107e4c002f0037002fa99700bfa997000a00be008a
:107e5c00842d0200000000000001be006fa09700fe
:107e6c00ffa09700c42e0200000000000004be001a
:107e7c000fa997009fa997002fa89700bfa897005c
:107e8c00842d0200000000000001be004fa09700ee
:107e9c00dfa09700c42e0200000000000001be000d
:107eac000800be00862d0200000000000004be0089
:107ebc000fa997009fa997000a00be00842d02000d
:107ecc00000000000001be000800be00402e0200b1
:107edc000000000017fe07002c2f0200000000001d
:107eec007faa970060029800710298000d0037007d
:107efc00e98f520063fe3a00e14f570009003a0047
:107f0c00ffaa97000508900095089000e00f50001c
:107f1c00e08f58000e003a00efe097000180fb0064
:107f2c00080037007fa9970062009000f2009000d3
:107f3c00e00f5000e08f580005003a006fe2970008
:107f4c000480fb00f015b000549f020000000000fc
:107f5c008fe297000580fb004f0778004f06be00ac
:107f6c004f05be004f04be00ef02b100000006003a
:107f7c00f6874700889fbe008a9fbe008c9fbe007c
:107f8c008e1f7800e0b79f00f1b79f0082f79f002b
:107f9c00034178008ff097000180fb002304200040
:107fac000380b900a3d52100008741006000b80010
:107fbc00000f9800110f98006fb09700ffb097005a
:107fcc009bfd0700a0ef9f00e14f4000eb0032004b
:107fdc000080fb00020620000280b900e24b210069
:107fec0080024100254a9000144798008003eb0062
:107ffc00423add00820320000401410005014100ea
:10800c009280fb00124090004800dd0001047000db
:10801c00a24090008180fb00324090004800dd00bf
:10802c00810470000703e800c231dd0082032000e8
:10803c0003014100050141009280fb0012409000b9
:10804c004800dd0001057000a24090008180fb001b
:10805c00324090004800dd00810570007002420043
:10806c00050242009480fb00144090004800dd00a3
:10807c0001067000a44090008180fb003440900009
:10808c004800dd0081067000f081410085814100cf
:10809c009380fb00134090004800dd0081007000cd
:1080ac00b1b79f00a34090008180fb00334090004b
:1080bc004800dd0081007000c1b79f006fb09700d1
:1080cc00ffb09700880f5000898f580008003a00c5
:1080dc00e00f5500e08f5d0002003200e8cf530046
:1080ec0008003a000c0f98001d0f9800a3003700f1
:1080fc006fb09700ffb09700880f5000898f580021
:10810c009a0039006fb09700ffb097008a0f5000ab
:10811c008b8f580095003100e00f5000e08f580015
:10812c00030035002e2d0200000000001000370067
:10813c00efb0970061806000010020006fb29700e3
:10814c00ffb297008501d1000481d30002007000ba
:10815c00838070002e2d0200000000000001be0084
:10816c0090b79f00a1b79f00862d02000000000071
:10817c0090b79f00a1b79f00e00f5400e08f5c0008
:10818c00040035000800be002e2d02000000000087
:10819c000d00370061006400010020008901d1004e
:1081ac000881d30002007000838070002e2d020025
:1081bc00000000000001be00f0af9f0081b79f00df
:1081cc00862d020000000000f0af9f0081b79f00d9
:1081dc00e00f5500e08f5d00040035000a00be0082
:1081ec002e2d0200000000000b003700610065001e
:1081fc00010020008b01d1000a81d3000200700025
:10820c00838070002e2d0200000000000001be00d3
:10821c00862d0200000000000005be00e00f560095
:10822c00e08f5e00050035000c00be002e2d020014
:10823c00000000000004be000c0037006100660066
:10824c00010020008d01d1000c81d30002007000d0
:10825c00838070002e2d0200000000000001be0083
:10826c00862d0200000000000004be001fb1970024
:10827c00afb197000a00be00842d02000000000080
:10828c000001be000800be00c42e02000000000069
:10829c000006be003fb09700cfb09700e00f500033
:1082ac00e08f5800040035002e2d02000000000065
:1082bc000004be000f003700bfb097006180600063
:1082cc00010020003fb29700cfb297008501d1008a
:1082dc000481d30002007000838070002e2d0200f8
:1082ec00000000000001be00862d0200000000000e
:1082fc000004be007fa997008fb197001fb09700b4
:10830c00afb09700842d0200000000000001be00f9
:10831c000800be00c42e0200000000000001be00d8
:10832c000c00be00862d0200000000000004be0000
:10833c007fa997008fb197000a00be00842d020020
:10834c00000000000001be000800be00402e02002c
:10835c0000000000f7fc07002c2f020000000000ba
:10836c00000f9800110f980004003700e90f53001c
:10837c0002003200860378001dff37000e089000c3
:10838c009e089000e00f5000e08f580005003a0066
:10839c008ff297000580fb00f015b000549f02008f
:1083ac0000000000afe897000180fb004f07780049
:1083bc004f06be004f05be004f04be006f01b1005a
:1083cc0000000600889fbe008a9fbe008c9fbe00e6
:1083dc008080fb00200420000089b900a0d521007a
:1083ec00820540000b0990009b0990005b089000ef
:1083fc006106b8006b089000a01d98001b4090000f
:10840c008000eb00e24f50003b003a002b1c900028
:10841c0008045600e0845e00080451008984590069
:10842c000c01be000800be00cc2f020000000000b2
:10843c000085e8000c01be000800be00ea2f020017
:10844c00000000000001be000a0078000000a2003d
:10845c0061006000004278000004e000030032007c
:10846c0002005600b01d980001003700b21d9800a4
:10847c003b1990006110b8004c06b1000d80b100a2
:10848c008c0f50008d8f580008003500eb089000c1
:10849c006b019000fb0190005b0890006106b80036
:1084ac000404e0000e003a000a0037007b0890003c
:1084bc00800f51004c003100eb0890006b019000d4
:1084cc00fb0190005b0890006106b8000404e0001a
:1084dc000300320040ed2f00008040000200370006
:1084ec00c012200001004000a01d9800c7ff3700fb
:1084fc00a01d9800110020002b1c900008045600b1
:10850c00e0845e0008045100898459000105e800ec
:10851c000c01be000800be00cc2f020000000000c1
:10852c000000400081804800000545000a85e800f5
:10853c000c01be000800be00ea2f02000000000083
:10854c000001be000a0078000000a200610060007b
:10855c00004278000004e0000300320002005600e4
:10856c00b01d980001003700b21d98003b19900017
:10857c006110b8004c06b1000d80b1008c0f50009a
:10858c008d8f580008003500eb0890006b019000af
:10859c00fb0190005b0890006106b8000404e00049
:1085ac000e003a000a0037007b089000800f510043
:1085bc000d003100eb0890006b019000fb01900066
:1085cc005b0890006106b8000404e0000300320070
:1085dc0040ed2f0000804000c5ff3700c012200086
:1085ec0001004000c2ff3700ca1d98004f06be00b4
:1085fc004f05be004f04be0000000600f687470082
:10860c00889fbe008a9fbe008c9fbe008e1f780084
:10861c000004be00b2b79f00c3b79f000405be00a4
:10862c00064778006000b800f0af9f0081b79f004c
:10863c008680fb00a1b79f00200420000088b900b1
:10864c00a2d521008006410006407800ac920200c1
:10865c00000000003fb09700cfb09700800f54008f
:10866c00818f5c0006003e0010002000c0069800c0
:10867c008041eb000e4178000800be00540037002a
:10868c00880f5500898f5d003b003e0011002000d3
:10869c00c1069800e4fd2f000f02420081417800d2
:1086ac000e4178000800be0047fc0700a0e79f00c1
:1086bc007fad97008fb59700e00f5500e08f5d0000
:1086cc00280032003fb09700cfb09700800f5500c4
:1086dc00818f5d0008003e0011002000b10698005b
:1086ec00e4fd2f000f0242008041eb000e417800a8
:1086fc000a00be00180037003fb19700cfb19700b9
:10870c000a00be00083002000000000000067800dd
:10871c003fb19700cfb197000800be00283002008f
:10872c0000000000e00f5000e08f58000100320004
:10873c000c06e800bc0698006161b8000a00be0097
:10874c000830020000000000e4fd2f000f02420080
:10875c008041eb000e4178001bfc070000437800c1
:10876c00030037000000eb00b00698002fe39700e1
:10877c0015c0b3001a0037003fb19700cfb1970076
:10878c000800be0008300200000000000005780060
:10879c003fb19700cfb197000800be00283002000f
:1087ac0000000000e00f5000e08f58000100320084
:1087bc000a05e800ca0698006151b8000800be001e
:1087cc0008300200000000008041eb000e417800f0
:1087dc00e7fd0700a0e79f0000c3eb008042eb0021
:1087ec002fe19700e14f410004003200e1cf52002d
:1087fc0007003a00e14f430005003a000e80fb00f1
:10880c00f015b000549f02000000000085003700f6
:10881c002fb097007e01b900e069210002004000f2
:10882c009048900081f79f0000499000e2ef9f0074
:10883c00b0409000c1ef9f0020419000a2ef9f003c
:10884c00904590001086fb00b05390002052900091
:10885c002fb09700c300dd00a0c5210000854000ab
:10886c00afe097000180fb00030620000380b900f5
:10887c00e24b2100000441000680fb000380b9009c
:10888c00800441000504e0002e003a008480fb00c7
:10889c004838dd0001007000b01698004858dd0023
:1088ac000c007000d00e98002fe997008280fb001e
:1088bc004fe997004810dd0001007000e00e9800b1
:1088cc006fe897008080fb000ff197004810dd00e7
:1088dc0001007000d006980028489000904698003f
:1088ec001880fb00184190004811dd000001710058
:1088fc00b20e9800b848900081669800c848900065
:10890c008180fb00584890004800dd000100700099
:10891c0090169800e84890008180fb007848900001
:10892c004800dd0001007000a01698000d089000b2
:10893c009d089000008dbe0022059800cd06900089
:10894c00370037008480fb004838dd0001007000e0
:10895c00b01698004858dd000c007000d00e98003e
:10896c002fe997008280fb004fe997004810dd004b
:10897c0001007000e00e98006fe897008080fb000b
:10898c000ff197004810dd0001007000d006980030
:10899c0028489000904698000e40780089fe070009
:1089ac001880fb00184290004822dd000002720083
:1089bc00b40e98009980fb00194090004800dd002f
:1089cc0001007000a00e9800b948900081669800d4
:1089dc00c94890008180fb00594890004800dd0098
:1089ec000100700090169800e94890008180fb000f
:1089fc00794890004800dd0001007000a016980036
:108a0c000d0990009d0990006d009000fd009000f4
:108a1c00001d41000195490024059800bd069000f9
:108a2c003d0598004f0778004f06be004f05be006d
:108a3c004f04be006f01b10000000600441021007d
:108a4c000001eb0043042100001aeb00001aeb00bc
:108a5c008000eb00400c2100013178008019eb0004
:108a6c008019eb0040002100013178000281e80000
:108a7c0000042000800f5100f3ff3a0080a7220071
:108a8c0041c8980001d8980041d898000000060011
:108a9c008000eb0043182100422021000019eb005c
:108aac000019eb008019eb008019eb00e48040000a
:108abc0000082000808f5000f8ff3a0000000600ec
:108acc000080fb004201dd004110210081004100cb
:108adc006022b8008488be00000040008001eb00da
:108aec00410c210003b07800410421000101410038
:108afc000489be00410021000100400003087800f9
:108b0c0000000600889fbe008a9fbe008c1f780064
:108b1c000005eb0068d621005c6b2100296b21005d
:108b2c00eb6921000a007800bc8c020000000000f8
:108b3c000000e0000f0032001b81fb0059e8970099
:108b4c004800dd000200700001002000008cbe0017
:108b5c001c407800404c98009980fb001940900014
:108b6c004800dd000100700040049800f070220005
:108b7c0004003700000ceb0038147800404c9800cf
:108b8c004004980050bc9f000a05e800fe85450093
:108b9c00fe8444002804b0007e064600000220003b
:108bac00800f5500dfff3a004f0678004f05be00de
:108bbc004f04be00000006000081fb00a1d521007f
:108bcc00200420000091b9000003200002004000a6
:108bdc0001004000c202b00081004100100078008a
:108bec0011005000000006000081fb00a1d52100ff
:108bfc00200420000091b9000100410000199000f0
:108c0c0090199000621098007310980000000600f4
:108c1c008000eb00c034210000e891000004e0006b
:108c2c0001003a001100200001007800000006004d
:108c3c00889fbe008a9fbe001bc0b3000005eb00de
:108c4c00150037000180fb002003b0006044790060
:108c5c008884fb0009007800bc8c02000000000036
:108c6c000000e0000b00320068405400f74f500049
:108c7c0008003e002004200000c8b90042d92100a1
:108c8c00620078004b00de006140600001003a0099
:108c9c00804578000a05e8008a407800c23421003b
:108cac0012709000804f5500e6ff39000b80fb00de
:108cbc004f05be004f04be0000000600889fbe009a
:108ccc008a9fbe001bc0b3000005eb0014003700e8
:108cdc000180fb002003b000604479008884fb0015
:108cec0009007800bc8c0200000000000000e000cd
:108cfc000a003200e74f540008003e002004200018
:108d0c0000c8b90042d92100620078004b00de0097
:108d1c006140600001003a00804578000a05e800d7
:108d2c008a407800c234210012709000804f5500a8
:108d3c00e7ff39000b80fb004f05be004f04be005f
:108d4c0000000600889fbe008a9fbe001bc0b300b7
:108d5c000005eb00140037000180fb002003b0007d
:108d6c00604479008884fb0009007800bc8c020008
:108d7c00000000000000e0000a003200e74f540041
:108d8c0008003e002004200000c8b90042d9210090
:108d9c00620078004b00de006140600001003a0088
:108dac00804578000a05e8008a407800c23421002a
:108dbc0012709000804f5500e7ff39000b80fb00cc
:108dcc004f05be004f04be0000000600889fbe0089
:108ddc008a9fbe001bc0b3000005eb0015003700d6
:108dec000180fb002003b000604479008884fb0004
:108dfc0009007800bc8c0200000000000000e000bc
:108e0c000b00320068405400f74f500008003e0041
:108e1c002004200000c8b90042d92100620078006b
:108e2c004e00de006140600001003a008045780091
:108e3c000a05e8008a407800c234210012709000c4
:108e4c00804f5500e6ff39000b80fb004f05be003c
:108e5c004f04be0000000600889fbe008a9fbe0023
:108e6c001bc0b3000005eb00140037000180fb00b1
:108e7c002003b000604479008884fb00090078006e
:108e8c00bc8c0200000000000000e0000a00320070
:108e9c00e74f540008003e002004200000c8b90031
:108eac0042d92100620078004e00de006140600073
:108ebc0001003a00804578000a05e8008a407800f5
:108ecc00c234210012709000804f5500e7ff39002a
:108edc000b80fb004f05be004f04be0000000600d7
:108eec00889fbe008a9fbe001bc0b3000005eb002c
:108efc00140037000180fb002003b00060447900af
:108f0c008884fb0009007800bc8c02000000000083
:108f1c000000e0000a003200e74f540008003e0059
:108f2c002004200000c8b90042d92100620078005a
:108f3c004a00de006140600001003a008045780084
:108f4c000a05e8008a407800c234210012709000b3
:108f5c00804f5500e7ff39000b80fb004f05be002a
:108f6c004f04be0000000600889fbe008a9fbe0012
:108f7c008c1f78001cc0b3008005eb002500370067
:108f8c000180fb002003b00060c47c000885fb005e
:108f9c000a007800bc8c0200000000000000e00019
:108fac001b003200e74f540019003e00e9e8910025
:108fbc008180fb0079e891004800dd00010270001f
:108fcc0009f091000080fb0019f191004811dd00bf
:108fdc000001710010002000010020000a05e900ca
:108fec00030033000000400081804800fbff370085
:108ffc000402600001016100040078008200780026
:10900c00e00f5000e08f580001003a000046eb00e2
:10901c008b05e8008b407800c93421001970900052
:10902c0080cf5500d6ff39000c80fb004f0678002e
:10903c004f05be004f04be0000000600889fbe0016
:10904c008a1f78001ac0b3008004eb0012003700ae
:10905c000180fb002003b000604079000084fb001d
:10906c0008007800bc8c0200000000000000e0004a
:10907c00080032002004200000c0b90042d92100b1
:10908c00620078004e00de006140600001003a0092
:10909c00004578008904e80089407800c23421003a
:1090ac001270900080cf5400e9ff39000a80fb0059
:1090bc004f0578004f04be0000000600889fbe00dc
:1090cc008a1f78001ac0b3008004eb00120037002e
:1090dc000180fb002003b000604079000084fb009d
:1090ec0008007800bc8c0200000000000000e000ca
:1090fc00080032002004200000c0b90042d9210031
:10910c00620078004a00de006140600001003a0015
:10911c00004578008904e80089407800c2342100b9
:10912c001270900080cf5400e9ff39000a80fb00d8
:10913c004f0578004f04be0000000600881f780021
:10914c000084fb0008007800bc8c020000000000ca
:10915c000000e0001a003200c2342100e2d8900076
:10916c008180fb0072d890004800dd000102700085
:10917c0002e090000080fb0012e190004811dd003d
:10918c000001710010002000010020000804e9001b
:10919c00030033000000400081804800fbff3700d3
:1091ac000402600001016100040078008200780074
:1091bc0012002000e00f5000e08f580001003a0030
:1091cc000001eb000280fb004f0478000000060059
:1091dc00889fbe008a9fbe000145780080447800bd
:1091ec001bc0b3002c0037000984fb00080078007a
:1091fc00bc8c0200000000000000e00025003200e2
:10920c00a3d521002004200000c0b9008000780004
:10921c00a003b00003014000120090000008a3005e
:10922c001c003a000018a3001a003a000028a30002
:10923c0018003a000038a30016003a000048a300ba
:10924c0014003a000058a30012003a000068a30072
:10925c0010003a000078a3000e003a00c003200072
:10926c0001004000608079000088a30009003a00ea
:10927c000098a30007003a0000a8a30005003a00dc
:10928c00120078004a00de006140600001003a00e4
:10929c00804578008944e8008acf5400d2ff36001c
:1092ac000b80fb004f05be004f04be000000060003
:1092bc00889fbe008a9fbe0001457800004478005c
:1092cc001bc0b300130037008884fb000900780032
:1092dc00bc8c0200000000000000e0000c0032001a
:1092ec00c034210010d890000004e00008003a00bf
:1092fc002004200000c8b90042d921006200780087
:10930c004800de006140600001003a0080457800b2
:10931c000844e8008a4f5400ebff36000b80fb003a
:10932c004f05be004f04be0000000600889fbe0023
:10933c008a9fbe0001457800804478001bc0b300b2
:10934c002f0037000984fb0008007800bc8c020059
:10935c00000000000000e00028003200a3d521002e
:10936c002004200000c0b90080007800a003b000e9
:10937c0003014000120090000008a3001f003a00f7
:10938c000018a3001d003a000028a3001b003a009f
:10939c000038a30019003a000048a30017003a0057
:1093ac000058a30015003a000068a30013003a000f
:1093bc000078a30011003a00c00320000100400017
:1093cc00608079000088a3000c003a000098a3008c
:1093dc000a003a0000a8a30008003a0080c0b300bd
:1093ec00924f100005003a00120078004f00de008a
:1093fc000004e00001003a00804578008944e80050
:10940c008acf5400cfff36000b80fb004f05be0007
:10941c004f04be0000000600889fbe008a1f780023
:10942c001ac0b3000004eb0049d9210008007800f1
:10943c00bc8c0200000000000000e00005003200bf
:10944c00190078004900de006140600001003a001c
:10945c00004578000804e8002904b0000002200050
:10946c00800f5400f1ff3a000a80fb004f05780092
:10947c004f04be0000000600889fbe008a1f7800c3
:10948c000005eb00110037000180fb002003b00049
:10949c00604079008084fb0009007800bc8c0200dd
:1094ac0000000000000478000a05e8000000e0005d
:1094bc0006003a00301c200009004000549f0200b6
:1094cc000000000008407800060037008a40780051
:1094dc00c234210012709000804f5500eaff390011
:1094ec0010c0b3000080fb004f0578004f04be0095
:1094fc0000000600889fbe008a9fbe008c9fbe00a5
:10950c000003eb00c5d52100e43a21009480fb0058
:10951c00144090004800dd0001017000a440900050
:10952c008180fb00344090004800dd008101700018
:10953c00828abe000603e800640242002504b000e3
:10954c0000022000800f5300f0ff3a008006eb0071
:10955c005a0037000180fb002003b00060437e00fe
:10956c00e36921008685fb0006407800e2c1b30068
:10957c000440bc00820378006e01410003014100ed
:10958c009280fb00124090004800dd000102700048
:10959c00a24090008180fb00324090004800dd002a
:1095ac00810270006a804300830340009780fb00b7
:1095bc00174090004800dd0001017000a7409000aa
:1095cc008180fb00374090004800dd008101700075
:1095dc00aad521002804200008dcb9000a004400a8
:1095ec00a00090001000900004fc07000a04440046
:1095fc0010c0b300004c7800207c980014002000b0
:10960c00050020008b05e900030033000402420032
:10961c0085824a00fbff37000482ea008582ea005b
:10962c00ec4890008180fb007c4890004800dd00f5
:10963c00010170008c5090008180fb001c50900048
:10964c004800dd0001007000040378000201630093
:10965c000500600080007800624e98004811de0022
:10966c00724e9800015698004808de00105698007b
:10967c00ac5090008180fb003c5090004800dd0015
:10968c0001017000cc5090008180fb005c50900078
:10969c004800dd000100700002036300050060005b
:1096ac0080007800265698004831de00325698002b
:1096bc00415698004808de00505698008d407800be
:1096cc008d06e800cc3421001c70900080cf500037
:1096dc00a0ff39000040eb0000ee990020ee99004d
:1096ec0030ee990040ee990050ee990060ee990032
:1096fc0070ee990000f6990010f699004f06be0026
:10970c004f05be004f04be0000000600889fbe003f
:10971c008004eb001c0037000180fb002003b0002c
:10972c00604079000084fb0008007800bc8c0200cb
:10973c00000000000000e00012003200a4d521005f
:10974c002004200000c0b9008401400062c0b300b6
:10975c008249780042c0b300a279980068014000a9
:10976c0062017a00b2019800030b9000930b9000f9
:10977c00e6019800f70198007600400060027a003c
:10978c00a40998008904e80089407800c2342100bb
:10979c001270900080cf5400dfff39004f04be00e0
:1097ac0000000600889fbe008a1f78000005eb00b1
:1097bc001f0037000180fb002003b00060447900db
:1097cc008884fb0009007800bc8c020000000000bb
:1097dc000000e0001500320068405400f74f5000c4
:1097ec0012003e00a4d521002004200000c8b900be
:1097fc008401400062c0b3008249780042c0b300cb
:10980c00a27998006801400062017a00b2019800c8
:10981c00030b9000930b9000e6019800f701980061
:10982c007600400060027a00a40998000a05e8005e
:10983c008a407800c234210012709000804f55008d
:10984c00dcff39004f0578004f04be000000060015
:10985c00889fbe008a9fbe008005eb004800370041
:10986c000180fb002003b00060447d008884fb0075
:10987c0009007800bc8c0200000000000000e00031
:10988c003e003200e74f54003c003e00a2d52100c0
:10989c002004200000c8b90080007800a003b000ac
:1098ac006000790000e8a3003400320082804000a0
:1098bc0010c0b30080487800a078980014002000f5
:1098cc00050020008904e900030033000402420073
:1098dc0085824a00fbff37000482ea008582ea0099
:1098ec00ea4890008180fb007a4890004800dd0037
:1098fc00010170008a5090008180fb001a5090008a
:10990c004800dd00010070000403780002016300d0
:10991c000500600080007800624d98004811de0060
:10992c00724d9800015598004808de0010559800bb
:10993c00aa5090008180fb003a5090004800dd0056
:10994c0001017000ca5090008180fb005a509000b9
:10995c004800dd0001007000020363000500600098
:10996c0080007800265598004831de00325598006a
:10997c00415598004808de00505598008b05e800ca
:10998c008b407800ca3421001a70900080cf5500ab
:10999c00b3ff39004f05be004f04be0000000600a7
:1099ac00889fbe008a1f7800ea3721001a4478008d
:1099bc008884fb0009007800bc8c020000000000c9
:1099cc000000e00014003200e74f540012003e008b
:1099dc00a4d521002004200000c8b9008401400057
:1099ec0062c0b3008249780042c0b300a2799800eb
:1099fc006801400062017a00b2019800030b9000ec
:109a0c00930b9000e6019800f70198007600400057
:109a1c0060027a00a40998000a05e80020382100a9
:109a2c00800f5500e1ff3a004f0578004f04be004f
:109a3c0000000600889fbe008a9fbe008c9fbe005f
:109a4c008005eb00aad521004cd921008c067800aa
:109a5c000b407800b9fd07000004e0006400320000
:109a6c00c7342100174090000004e00035003a0094
:109a7c0010c0b300004d7800004e78001400200098
:109a8c00050020000b0078000000e9000300330003
:109a9c000402420085824a00fbff37000482ea0080
:109aac008582ea00e74890008180fb0077489000af
:109abc004800dd0001017000875090008180fb00a0
:109acc00175090004800dd0001007000040378007e
:109adc00020163000500600080007800e24b9800f2
:109aec004811de00f24b9800815398004808de00c4
:109afc0090539800a75090008180fb003750900045
:109b0c004800dd0001017000c75090008180fb000f
:109b1c00575090004800dd00010070000203630004
:109b2c000500600080007800a65398004831de00e4
:109b3c00b2539800c15398004808de00d0539800e7
:109b4c002b0037001d00780000a8a300280032006d
:109b5c001a40900000c0e900e14f500018003e0090
:109b6c005a099000030020000a0890009a089000ff
:109b7c0028300200000000000004be00e00f50007e
:109b8c00e08f580005003200101920000b00400037
:109b9c00549f020000000000150037000b407800b5
:109bac0008fa07006805980079059800f0c0b30022
:109bbc00004d780040c0b300004e78000c00370018
:109bcc0060c0b300004d780040c0b300004e780078
:109bdc00ca009000310598000a0890009a0890007d
:109bec006005980071059800ba089000210d980046
:109bfc008b05e8002d04b0002a04b0002c04b00042
:109c0c0000022000808f550091ff3a004f06be00e5
:109c1c004f05be004f04be0000000600889fbe002a
:109c2c008a9fbe008c1f78008005eb00aad521000e
:109c3c004cd921000b40780040fd07000004e000e7
:109c4c0040003200c7342100174090000004e000af
:109c5c0035003a0010c0b300004d7800207d98000c
:109c6c0014002000050020000b0078000000e90023
:109c7c00030033000402420085824a00fbff3700d8
:109c8c000482ea008582ea00e74890008180fb00ac
:109c9c00774890004800dd0001017000875090006b
:109cac008180fb00175090004800dd00010070001f
:109cbc000403780002016300050060008000780056
:109ccc00e24b98004811de00f24b9800815398004b
:109cdc004808de0090539800a75090008180fb004c
:109cec00375090004800dd0001017000c750900013
:109cfc008180fb00575090004800dd00010070008f
:109d0c00020363000500600080007800a6539800f1
:109d1c004831de00b2539800c15398004808de0069
:109d2c00d0539800070037001c00780000a8a3004f
:109d3c0004003200e0c0b300004d780072404000d7
:109d4c00207d98008b05e8002c04b0002a04b0009c
:109d5c0000022000808f5500b6ff3a004f067800b5
:109d6c004f05be004f04be0000000600889fbe00d9
:109d7c008a9fbe008c1f78008005eb00aad52100bd
:109d8c004cd921001c0078002c04b00000e8a30082
:109d9c003500320010c0b300004d7800207d9800d3
:109dac0014002000050020000b0078000000e900e2
:109dbc00030033000402420085824a00fbff370097
:109dcc000482ea008582ea00c6342100e64890004d
:109ddc008180fb00764890004800dd000101700096
:109dec00865090008180fb00165090004800dd00ea
:109dfc00010070008403780002816300050060009c
:109e0c0080007800624b98004811de00724b98007d
:109e1c00015398004808de0010539800a65090009b
:109e2c008180fb00365090004800dd00010170007d
:109e3c00c65090008180fb00565090004800dd0019
:109e4c0001007000828363000500600080007800d0
:109e5c00275398004839de0032539800415398003c
:109e6c004808de00505398008b05e8002a04b00027
:109e7c0000022000808f5500c2ff3a004f06780088
:109e8c004f05be004f04be0000000600889fbe00b8
:109e9c008a9fbe008c1f78008005eb00aad521009c
:109eac004cd921001c0078002c04b0004f00de00bf
:109ebc000004e0003500320010c0b300004d780003
:109ecc00207d980014002000050020000b00780075
:109edc000000e900030033000402420085824a00be
:109eec00fbff37000482ea008582ea00c6342100b9
:109efc00e64890008180fb00764890004800dd0029
:109f0c0001017000865090008180fb00165090007b
:109f1c004800dd00010070008403780002816300ba
:109f2c000500600080007800624b98004811de004c
:109f3c00724b9800015398004808de0010539800ab
:109f4c00a65090008180fb00365090004800dd0048
:109f5c0001017000c65090008180fb0056509000ab
:109f6c004800dd0001007000828363000500600082
:109f7c0080007800275398004839de00325398004f
:109f8c00415398004808de00505398008b05e800b8
:109f9c002a04b00000022000808f5500c1ff3a0057
:109fac004f0678004f05be004f04be0000000600af
:109fbc00889fbe008a9fbe008c1f78008145780068
:109fcc008081fb00200420000098b900a2d521005c
:109fdc000006410090c0b300004e78002b7e980024
:109fec00e8cf55000900320003003e00e1cf5500d8
:109ffc00db003a008f003700f0cf55003000320004
:10a00c00f8cf5500d6003a005d003700160020004e
:10a01c00070020008301e90003003300060343001e
:10a02c0087834b00fbff3700c4342100e4499000c8
:10a03c008381fb00744990004811dd00030071001e
:10a04c00845190008381fb00145190004811dd0075
:10a05c00830071000600700087807000604a9800d1
:10a06c004801de00724a9800015298004808de0050
:10a07c0010529800a45090008180fb003450900046
:10a08c004800dd0001017000c45090008180fb008d
:10a09c00545090004800dd00010070000683ea0077
:10a0ac008783ea0002016300070060006103b800c7
:10a0bc00c030dd00000020006113b80054003700f0
:10a0cc0018002000090020008301e9000300330080
:10a0dc000804440089844c00fbff3700c63421007f
:10a0ec00e64890008180fb00764890004800dd0037
:10a0fc0001027000865090008180fb001650900089
:10a10c004800dd00010070000881ea008981ea0046
:10a11c00040261000300600080007800644b98002a
:10a12c004821de00724b9800015398004808de006d
:10a13c0010539800a65190008381fb00365190007b
:10a14c004811dd0003007100c65190008381fb00b3
:10a15c00565190004811dd0083007100080070001a
:10a16c0089807000205398004801de00325398001b
:10a17c00415398004808de0050539800780037008f
:10a18c0016002000070020008301e90003003300c3
:10a19c000603430087834b00fbff3700c4342100c8
:10a1ac00e44990008381fb00744990004811dd0064
:10a1bc0003007100845190008381fb0014519000c6
:10a1cc004811dd008300710006007000878070006c
:10a1dc00604a98004801de00724a980001529800cb
:10a1ec004808de0010529800a45190008381fb00b7
:10a1fc00345190004811dd0003007100c4519000ef
:10a20c008381fb00545190004811dd0083007100e4
:10a21c000600700087807000205298004801de0014
:10a22c0032529800415298004808de005052980073
:10a23c004b00370014002000050020008301e900ca
:10a24c00030033000402420085824a00fbff370002
:10a25c000482ea008582ea00c8342100e8489000b4
:10a26c008180fb00784890004800dd0001017000ff
:10a27c00885090008180fb00185090004800dd0051
:10a28c00010070008404780005057800020162006a
:10a29c00050060000202780080027800a85090004f
:10a2ac008180fb00385090004800dd0001017000f7
:10a2bc00c85090008180fb00585090004800dd0091
:10a2cc0001007000028164000a0060000203780043
:10a2dc00800378000b4e78008480fb004820de0061
:10a2ec004800dd00010170008580fb004828de007d
:10a2fc004800dd0001007000028164000a0060006b
:10a30c0080007800624c98004811de00724c980076
:10a31c00015498004808de00105498008680fb0019
:10a32c004830de004800dd00010170008780fb0032
:10a33c004838de004800dd000100700082846400b3
:10a34c000a00600080007800295498004849de001b
:10a35c0032549800415498004808de00505498003c
:10a36c004f0678004f05be004f04be0000000600eb
:10a37c00889fbe008a1f78000004eb00491821005a
:10a38c004a20210008007800bc8c0200000000006c
:10a39c000000e0001700320008007800ae9f0200b9
:10a3ac00000000000000e00012003a002200200033
:10a3bc0003002000ba0f1100aa8f190006003a0002
:10a3cc0081c0b300b90f1100a98f190007003a0022
:10a3dc0081c1b3000500370001c1b300b90f1100f2
:10a3ec00a98f19000100320011c0b3000840780099
:10a3fc00effe07000804e800e4844400640545000f
:10a40c0000022000800f5400deff3a004f05780058
:10a41c004f04be0000000600889fbe000004eb0045
:10a42c00491821000840780044fb07000004e000b4
:10a43c000a003200c0342100104090000004a20039
:10a44c000080fb000000e9004f00de00cf80de0042
:10a45c000000400081804800808cbe000804e800a9
:10a46c00e484440000022000800f5400edff3a0009
:10a47c00bfff07004f04be0000000600889fbe000f
:10a48c000004eb0049202100084078002bfb07005a
:10a49c000004e0000a003200c0342100104090009b
:10a4ac000004a2000080fb000000e9004f00de0069
:10a4bc00cf80de000000400081804800808cbe0010
:10a4cc000804e800e484440000022000800f5400db
:10a4dc00edff3a00a6ff07004f04be000000060087
:10a4ec00e8874700889fbe008a9fbe008c9fbe00f5
:10a4fc008e1f780081a7220041c890000004e00064
:10a50c0003003a0010c0b300c0c898001a0037000e
:10a51c00e14f400018003a000004eb004a0c210007
:10a52c004900210008007800bc8c020000000000eb
:10a53c000000e0000700320008007800ae9f020027
:10a54c00000000000000e00002003a001a0de800d4
:10a55c00990ce8000804e8000a85e8008984e80002
:10a56c0000022000800f5400eeff3a0011c0b3002f
:10a57c0080a7220041c898000007eb004c0c21007a
:10a58c004d102100406b2100e0b79f000e007800b9
:10a59c00bc8c0200000000000000e0006d003200e6
:10a5ac000e007800ae9f02000000000080017800d1
:10a5bc000000e00067003a001d00be00e20f5000f2
:10a5cc00e08f58000a003a00efb097001180fb00b2
:10a5dc00c20320000280b9009c0f10005d003900fe
:10a5ec00030e7800800eeb00bd1678005900370082
:10a5fc00e00f5000e08f58000b003a006fb197004d
:10a60c00624090000080fb00822520000280b9008f
:10a61c009c0f10004f003900030e78001000200032
:10a62c00010020004a003700e10f5000e08f580075
:10a63c0048003a0083047800030478004a10210093
:10a64c0008007800bc8c0200000000000000e00054
:10a65c000b00320008007800ae9f020000000000e2
:10a66c000000e00006003a0020002000010020005d
:10a67c00ba0f1000aa8f180001003a008904e800f4
:10a68c000804e8006405450000022000800f540017
:10a69c00ebff3a00e38f54002e003c008004eb00eb
:10a6ac00090478004b0c21004a10210008007800a6
:10a6bc00bc8c0200000000000000e0000e00320024
:10a6cc0008007800ae9f0200000000000000e000cf
:10a6dc0009003a001000200001002000ba0f100001
:10a6ec00aa8f180004003a001b007800890f500054
:10a6fc0001003600800478000804e8008b85e8002f
:10a70c006405450000022000800f5400e7ff3a006a
:10a71c009c8f54000f003e0081a7220001d89000ae
:10a72c000004e00003003a0010c0b30080d8980089
:10a73c0008003700e14f400006003a000040eb00f3
:10a74c0080d89800000eeb002000200001002000b3
:10a75c00808ebe000e07e8000c86e800e4864600fa
:10a76c006fb097007e004000e0b79f000002200011
:10a77c00800f570085ff3a000007eb004c002100ca
:10a78c004d042100b16b2100f1b79f00626b2100d9
:10a79c0082bf9f000e007800bc8c020000000000fd
:10a7ac000000e0006d0032000e007800ae9f020049
:10a7bc0000000000800178000000e00067003a0013
:10a7cc001d00be00e20f5000e08f58000b003a0055
:10a7dc000fb897009080fb00104090004800dd00ff
:10a7ec00010070009c0f10005c003900030e780013
:10a7fc00800eeb00bd16780058003700e00f5000bb
:10a80c00e08f58000a003a00ffb097001180fb005f
:10a81c00822520000280b9009c0f10004f003900e7
:10a82c00030e780010002000010020004a003700c1
:10a83c00e10f5000e08f580048003a008304780084
:10a84c00030478004a04210008007800bc8c020044
:10a85c00000000000000e0000b003200080078004f
:10a86c00ae9f0200000000000000e00006003a006d
:10a87c002000200001002000ba0f1000aa8f180041
:10a88c0001003a008904e8000804e800640545006a
:10a89c0000022000800f5400ebff3a00e38f5400bd
:10a8ac002e003c008004eb00090478004b002100d2
:10a8bc004a04210008007800bc8c02000000000053
:10a8cc000000e0000e00320008007800ae9f02008d
:10a8dc00000000000000e00009003a001000200019
:10a8ec0001002000ba0f1000aa8f180004003a00d3
:10a8fc001b007800890f500001003600800478009e
:10a90c000804e8008b85e80064054500000220007f
:10a91c00800f5400e7ff3a009c8f54000f003e005c
:10a92c0081a7220041d890000004e00003003a0007
:10a93c0010c0b300c0d8980008003700e14f4000a9
:10a94c0006003a000040eb00c0d89800000eeb0067
:10a95c002000200001002000808ebe000e07e800c1
:10a96c000fb997007e01410082bf9f000c86e80062
:10a97c00e48646007fb097007e004000f0b79f0051
:10a98c0000022000800f570082ff3a008004eb0089
:10a99c004a1021004804210022002000030020005e
:10a9ac00ba0f1100aa8f190006003a0081c0b3003b
:10a9bc00b80f1100a88f190007003a0081c1b3002d
:10a9cc000500370001c1b300b80f1100a88f1900a2
:10a9dc000100320011c0b3000940780074fd07007b
:10a9ec008904e8006405450064044400000220006a
:10a9fc00808f5400e8ff3a004f0778004f06be00e6
:10aa0c004f05be004f04be008f00b10000000600d1
:10aa1c00e56921000083fb00e2c1b3000440bc00e7
:10aa2c000202780002804200b05b90000704e00054
:10aa3c001c0032002004200000b0b900a2d5210077
:10aa4c000001410070c0b3000049780080c0b30021
:10aa5c0020799800050042009081fb001040900086
:10aa6c004800dd0003007000010020006001980028
:10aa7c0071019800780041000048eb00740042001e
:10aa8c00050040009080fb00104090004800dd0065
:10aa9c0001007000200998000780fb00300198002d
:10aaac0000000600c4342100e4e891008180fb0022
:10aabc0074e891004800dd000101700084f0910001
:10aacc008180fb0014f091004800dd0081017000d2
:10aadc0010002000010020000603e90003003300f1
:10aaec000000400081804800fbff3700000171002e
:10aafc008181710062ea99004810de0070ea9900c9
:10ab0c0003f299004818de0010f2990000000600cc
:10ab1c00ea874700889fbe008a9fbe008c9fbe00bc
:10ab2c008e1f7800c0ef9f000000eb00d0b79f0095
:10ab3c000f0137000180fb002003b000e0457d00d1
:10ab4c008b84fb00aed521002004200000c8b90086
:10ab5c0000047800a003b000e0007f0001a8a3006f
:10ab6c00810032001c0020000d00200089007800bc
:10ab7c008100e900030033000c0646008d864e0070
:10ab8c00fbff3700eae891008180fb007ae8910036
:10ab9c004800dd00010170008af091008180fb000b
:10abac001af091004800dd0001007000fcb79f0016
:10abbc008dbf9f00020166000d00600080007800d0
:10abcc0002007800e00f5000e08f58002a003a0095
:10abdc00e7cf550003003e000b4078008cff0700c8
:10abec00e00037008ae891001ae8910080cf50000d
:10abfc00dc0031000b40780085ff0700aae89100cb
:10ac0c008180fb003ae891004800dd0001037000f0
:10ac1c00cae891008180fb005ae891004800dd00f1
:10ac2c000100700080037800ffb09700068160007f
:10ac3c000fba9700040060008000780002007800d2
:10ac4c00e00f5000e08f5800c6003a000c00730073
:10ac5c008d80730020ed99004801de0032ed9900e3
:10ac6c0041ed99004808de0050ed99000ae891008a
:10ac7c000040e800ba003700cfea97000504e00076
:10ac8c00b8003200e36921007e4bb9006e0143002d
:10ac9c00030141009280fb00124090004800dd004f
:10acac0001027000a24090008180fb0032409000b5
:10acbc004800dd00810270006a0343000303430077
:10accc009680fb00164090004800dd0001017000ea
:10acdc00a64090008180fb00364090004800dd00cb
:10acec00810170000e0044000b437800a00090001e
:10acfc001000900041f607000e0144001240900035
:10ad0c0000c0e900a103200082804000e14f500008
:10ad1c0005003e00f0c0b3000049780040c0b3000d
:10ad2c00804878008f00370060c0b300004978007d
:10ad3c0040c0b300804878006800440060007f0089
:10ad4c00300198000e004400000a9000900a900018
:10ad5c0064019800750198007600440060077f003c
:10ad6c002e0998007f00370001c8a3001a0032009a
:10ad7c00eae891008180fb007ae891004800dd0050
:10ad8c00010170008af091008180fb001af09100a3
:10ad9c004800dd008101700010002000010020003f
:10adac008904e90003003300000040008180480062
:10adbc00fbff3700000171008181710062ed990089
:10adcc004810de0070ed990003f599004818de007c
:10addc0010f59900630037004f08de000004e00016
:10adec00350032008e00440010c0b300804878005b
:10adfc00a078980014002000050020008904e900c8
:10ae0c00030033000402420085824a00fbff370036
:10ae1c000482ea008582ea00ea4890008180fb0007
:10ae2c007a4890004800dd00010170008a509000c3
:10ae3c008180fb001a5090004800dd00010070007a
:10ae4c0004037800020163000500600080007800b4
:10ae5c00624d98004811de00724d98000155980023
:10ae6c004808de0010559800aa5090008180fb0025
:10ae7c003a5090004800dd0001017000ca5090006b
:10ae8c008180fb005a5090004800dd0001007000ea
:10ae9c0002036300050060008000780026559800ce
:10aeac004831de0032559800415598004808de00c4
:10aebc00505598002b00370001e8a3002900320000
:10aecc00aae891008180fb003ae891004800dd007f
:10aedc0001017000cae891008180fb005ae89100e2
:10aeec004800dd000104700016002000070020005f
:10aefc008904e900030033000603430087834b00f9
:10af0c00fbff370082017800060161000700640036
:10af1c008000780002007800e00f5000e08f5800ad
:10af2c00100032000680ea008780ea000081610090
:10af3c00010064008000780022ed99004811de00c9
:10af4c0032ed990041ed99004808de0050ed990072
:10af5c000ae891000004e000020032000040e90021
:10af6c0000ed9900dfb297008502e800d5b79f008d
:10af7c00afe89700ca3421001a70900080cf5000bf
:10af8c00ecfe39004f0778004f06be004f05be009f
:10af9c004f04be00af00b10000000600889fbe0049
:10afac008a1f78000145780000447800360037008d
:10afbc008884fb0009007800bc8c020000000000b3
:10afcc000000e0002f003200c034210010d89000a7
:10afdc000004e00023003200a3d52100200420004f
:10afec0000c8b90080007800a003b0000301400045
:10affc001200780000a8a3001a0032001200900082
:10b00c000008a30017003a000018a30015003a002e
:10b01c000028a30013003a000038a30011003a00e6
:10b02c000048a3000f003a000058a3000d003a009e
:10b03c000068a3000b003a000078a30009003a0056
:10b04c00c003200001004000608079000088a3004c
:10b05c0004003a000098a30002003a0000a8a300e4
:10b06c00080032002004200000c8b900a2d521003d
:10b07c000001410010c0b3000049780000c8b300c3
:10b08c00207998000844e8008a4f5400c8ff360025
:10b09c004f0578004f04be0000000600889fbe00dc
:10b0ac008a1f78000145780000447800350037008d
:10b0bc008884fb0009007800bc8c020000000000b2
:10b0cc000000e0002e003200c034210010d89000a7
:10b0dc000004e00023003200a3d52100200420004e
:10b0ec0000c8b90080007800a003b0000301400044
:10b0fc001200780000a8a3001a0032001200900081
:10b10c000008a30017003a000018a30015003a002d
:10b11c000028a30013003a000038a30011003a00e5
:10b12c000048a3000f003a000058a3000d003a009d
:10b13c000068a3000b003a000078a30009003a0055
:10b14c00c003200001004000608079000088a3004b
:10b15c0004003a000098a30002003a0000a8a300e3
:10b16c00070032002004200000c8b900a2d521003d
:10b17c000001410020c0b3000049780020799800fc
:10b18c000844e8008a4f5400c9ff36004f05780088
:10b19c004f04be0000000600889fbe008a9fbe00c0
:10b1ac0081457800004578003f0037000a84fb0099
:10b1bc0008007800bc8c0200000000000000e000d9
:10b1cc00380032002004200000c0b900a2d52100b4
:10b1dc000001410010c0b3000049780020799800ac
:10b1ec0014002000050020000804e90003003300cf
:10b1fc000402420085824a00fbff37000482ea0009
:10b20c008582ea00c6342100e64890008180fb006c
:10b21c00764890004800dd000101700086509000d7
:10b22c008180fb00165090004800dd00010070008a
:10b23c0084037800028163000500600080007800c0
:10b24c00624b98004811de00724b98000153980035
:10b25c004808de0010539800a65090008180fb0037
:10b26c00365090004800dd0001017000c65090007f
:10b27c008180fb00565090004800dd0001007000fa
:10b28c0082836300050060008000780027539800db
:10b29c004839de0032539800415398004808de00cc
:10b2ac00505398000a45e8008b4f5500bfff3600fd
:10b2bc004f05be004f04be0000000600889fbe0074
:10b2cc008a9fbe0001457800804478001bc0b30003
:10b2dc001a0037000984fb0008007800bc8c0200bf
:10b2ec00000000000000e00013003200a3d5210094
:10b2fc002004200000c0b90080007800a003b0003a
