:020000040000fa
:080000000004040000000000f0
:020000040000fa
:10080000efd1200080fe20000001880000000000e1
:100810000a00070011000700000020000000e000af
:100820000200320000000200000000001423020059
:10083000000000000040da000000fe004440a90073
:10084000007920000000e0000300320000002000da
:10085000a00188004440a80000000600a05122002a
:10086000010020001600370062004000e0804800d0
:10087000910188009001ba0062004000e0804800c9
:10088000910188009002ba0062004000e0804800b8
:100890000002eb006028e10005003a008301e90056
:1008a00007003300038009000059eb000400370003
:1008b0006128e100010032000082eb000500070022
:1008c000910188001001ba000200e000e6ff3a0042
:1008d000000005009101880080027800620040005d
:1008e000e08048003559ba008301e9000800320071
:1008f0002559ba008301e900050032000400e00038
:10090000f4ff320015d9ba008301e900f1ff3a0083
:1009100000000600d8160400000000003e1a040083
:10092000000000008001eb000200370081717800b8
:100930008301e800828f5100fcff3a0000000600ae
:020000040000fa
:020000040005f5
:0457f400ffff0000b3
:020000040000fa
:020000040005f5
:0457f800ae130000ec
:020000040000fa
:020000040005f5
:0457fc00771e000014
:020000040000fa
:100008004c2600004c2600004c2600004c26000020
:100018004c2600004c2600004c2600004c26000010
:100028004c2600004c2600004c2600004c26000000
:100038004c2600004c2600004c2600001e2c000018
:100048004c2600004c2600004c2600004c260000e0
:100058004c2600004c2600004c2600004c260000d0
:100068004c2600004c2600004c2600004c260000c0
:100078004c2600004c2600004c2600004c260000b0
:100088004c2600004c2600004c2600004c260000a0
:100098004c2600004c260000502c00005a2c000072
:1000a8004c2600004c2600004c2600004c26000080
:1000b8004c2600004c2600004c2600004c26000070
:1000c8004c2600004c2600004c2600004c26000060
:1000d8004c2600004c2600004c2600004c26000050
:1000e8004c2600004c2600004c2600004c26000040
:1000f8004c2600004c2600004c2600004c26000030
:100108004c2600004c2600004c2600004c2600001f
:100118004c2600004c2600004c2600004c2600000f
:100128004c2600004c2600004c2600004c260000ff
:100138004c2600004c2600004c2600004c260000ef
:100148004c2600004c2600004c2600004c260000df
:100158004c2600004c2600004c2600004c260000cf
:100168004c2600004c2600006e2c0000782c000065
:100178004c2600004c2600004c2600004c260000af
:100188004c2600004c2600004c2600004c2600009f
:100198004c2600004c2600004c2600004c2600008f
:1001a8004c2600004c2600004c2600004c2600007f
:1001b8004c2600004c2600004c2600004c2600006f
:1001c8004c2600004c2600004c2600004c2600005f
:1001d8004c2600004c2600004c2600004c2600004f
:1001e8004c2600004c2600004c2600004c2600003f
:0801f8004c2600004c2600001b
:020000040000fa
:100208004c2600004c2600004c2600004c2600001e
:100218004c2600004c2600004c2600004c2600000e
:100228004c2600004c2600004c2600004c260000fe
:100238004c2600004c2600004c2600004c260000ee
:100248004c2600004c2600004c2600004c260000de
:100258004c2600004c2600004c2600004c260000ce
:100268004c2600004c2600004c2600004c260000be
:100278004c2600004c2600004c2600004c260000ae
:100288004c2600004c2600004c2600004c2600009e
:10029800e22500004c2600004c2600004c260000f9
:1002a8004c2600004c2600004c2600004c2600007e
:1002b8004c2600004c2600004c2600004c2600006e
:1002c8004c2600004c2600004c2600004c2600005e
:1002d8004c2600004c2600004c2600004c2600004e
:1002e8004c2600004c2600004c2600004c2600003e
:1002f8004c2600004c2600004c2600004c2600002e
:100308004c2600004c2600004c2600004c2600001d
:100318004c2600004c2600004c2600004c2600000d
:100328004c2600004c2600004c2600004c260000fd
:100338004c2600004c2600004c2600004c260000ed
:100348004c2600004c2600004c2600004c260000dd
:100358004c2600004c2600004c2600004c260000cd
:100368004c2600004c260000161c0000dc1b000078
:100378004c2600004c2600004c2600004c260000ad
:100388004c2600004c2600004c2600004c2600009d
:100398004c2600004c2600004c2600004c2600008d
:1003a8004c2600004c2600004c2600004c2600007d
:1003b8004c2600004c2600004c2600004c2600006d
:1003c8004c2600004c2600004c2600004c2600005d
:1003d8004c2600004c2600004c2600004c2600004d
:1003e8004c2600004c2600004c2600004c2600003d
:0803f8004c2600004c26000019
:020000040000fa
:0457fc0000000000a9
:020000040000fa
:1009400000000000c1c0000081c1000040010000a3
:1009500001c30000c00300008002000041c200008b
:1009600001c60000c00600008007000041c700006b
:1009700000050000c1c5000081c400004004000063
:1009800001cc0000c00c0000800d000041cd000033
:10099000000f0000c1cf000081ce0000400e00001b
:1009a000000a0000c1ca000081cb0000400b00001b
:1009b00001c90000c00900008008000041c8000013
:1009c00001d80000c01800008019000041d90000c3
:1009d000001b0000c1db000081da0000401a0000ab
:1009e000001e0000c1de000081df0000401f00008b
:1009f00001dd0000c01d0000801c000041dc000083
:100a000000140000c1d4000081d500004015000092
:100a100001d70000c01700008016000041d600007a
:100a200001d20000c01200008013000041d300007a
:100a300000110000c1d1000081d000004010000072
:100a400001f00000c03000008031000041f10000e2
:100a500000330000c1f3000081f2000040320000ca
:100a600000360000c1f6000081f7000040370000aa
:100a700001f50000c03500008034000041f40000a2
:100a8000003c0000c1fc000081fd0000403d000072
:100a900001ff0000c03f0000803e000041fe00005a
:100aa00001fa0000c03a0000803b000041fb00005a
:100ab00000390000c1f9000081f800004038000052
:100ac00000280000c1e8000081e900004029000082
:100ad00001eb0000c02b0000802a000041ea00006a
:100ae00001ee0000c02e0000802f000041ef00004a
:100af000002d0000c1ed000081ec0000402c000042
:100b000001e40000c02400008025000041e5000051
:100b100000270000c1e7000081e600004026000039
:100b200000220000c1e2000081e300004023000039
:100b300001e10000c02100008020000041e0000031
:100b400001a00000c06000008061000041a1000021
:100b500000630000c1a3000081a200004062000009
:100b600000660000c1a6000081a7000040670000e9
:100b700001a50000c06500008064000041a40000e1
:100b8000006c0000c1ac000081ad0000406d0000b1
:100b900001af0000c06f0000806e000041ae000099
:100ba00001aa0000c06a0000806b000041ab000099
:100bb00000690000c1a9000081a800004068000091
:100bc00000780000c1b8000081b900004079000041
:100bd00001bb0000c07b0000807a000041ba000029
:100be00001be0000c07e0000807f000041bf000009
:100bf000007d0000c1bd000081bc0000407c000001
:100c000001b40000c07400008075000041b5000010
:100c100000770000c1b7000081b6000040760000f8
:100c200000720000c1b2000081b3000040730000f8
:100c300001b10000c07100008070000041b00000f0
:100c400000500000c1900000819100004051000060
:100c500001930000c0530000805200004192000048
:100c600001960000c0560000805700004197000028
:100c700000550000c1950000819400004054000020
:100c8000019c0000c05c0000805d0000419d0000f0
:100c9000005f0000c19f0000819e0000405e0000d8
:100ca000005a0000c19a0000819b0000405b0000d8
:100cb00001990000c05900008058000041980000d0
:100cc00001880000c0480000804900004189000000
:100cd000004b0000c18b0000818a0000404a0000e8
:100ce000004e0000c18e0000818f0000404f0000c8
:100cf000018d0000c04d0000804c0000418c0000c0
:100d000000440000c18400008185000040450000cf
:100d100001870000c04700008046000041860000b7
:100d200001820000c04200008043000041830000b7
:100d300000410000c18100008180000040400000af
:100d4000005e0000bce20000613f0000dd830000a7
:100d5000c29c00007e200000a3fd00001f41000097
:100d60009dc30000217f0000fca20000401e000087
:100d70005f010000e3bd00003e60000082dc000077
:100d8000237d00009fc10000421c0000fea0000067
:100d9000e1bf00005d03000080de00003c62000057
:100da000bee00000025c0000df810000633d000047
:100db0007c220000c09e00001d430000a1ff000037
:100dc00046180000faa40000277900009bc5000027
:100dd00084da000038660000e5bb00005907000017
:100de000db85000067390000bae400000658000007
:100df00019470000a5fb000078260000c49a0000f7
:100e0000653b0000d9870000045a0000b8e60000e6
:100e1000a7f900001b450000c69800007a240000d6
:100e2000f8a60000441a000099c70000257b0000c6
:100e30003a64000086d800005b050000e7b90000b6
:100e40008cd20000306e0000edb30000510f0000a6
:100e50004e100000f2ac00002f71000093cd000096
:100e6000114f0000adf30000702e0000cc92000086
:100e7000d38d00006f310000b2ec00000e50000076
:100e8000aff10000134d0000ce900000722c000066
:100e90006d330000d18f00000c520000b0ee000056
:100ea000326c00008ed00000530d0000efb1000046
:100eb000f0ae00004c12000091cf00002d73000036
:100ec000ca94000076280000abf500001749000026
:100ed00008560000b4ea000069370000d58b000016
:100ee00057090000ebb50000366800008ad4000006
:100ef00095cb000029770000f4aa000048160000f6
:100f0000e9b70000550b000088d60000346a0000e5
:100f10002b75000097c900004a140000f6a80000d5
:100f2000742a0000c8960000154b0000a9f70000c5
:100f3000b6e800000a540000d78900006b350000b5
:100f400020880000ec870000c6870000248800008d
:100f500006000000ff09000001a1000001190000c7
:100f6000012900004015000000260000ff000000dd
:100f70007508000095400000810200001901000082
:100f80002940000091020000c0000000260300007c
:100f90005500000053000000420000002000000047
:100fa000480000004900000044000000200000004c
:100fb000420000006f0000006f000000740000009d
:100fc0006c0000006f000000610000006400000081
:100fd0006500000072000000340300004d000000b6
:100fe0006900000063000000720000006f00000054
:100ff000630000006800000069000000700000004d
:1010000020000000540000006500000063000000a4
:10101000680000006e0000006f0000006c0000001f
:101020006f00000067000000790000002000000051
:10103000490000006e000000630000002e00000068
:101040000403000009040000090200002900000058
:101050000101000000c0000032090000040000008f
:101060000002000003000000000000000921000051
:101070001101000000010000221d00000007000017
:10108000058100000340000000010000070500008a
:1010900001030000400000000100000012010000f8
:1010a000100100000000000000080000d80400004b
:1010b0009be80000020000000102000000010000a7
:1010c000821400002a5d00006f9a000025010000d4
:020000040000fa
:1010d000800178000001eb00634079000186280060
:1010e000e2c07800814f500007003a00824078004b
:1010f0000201e800e80f5100f7ff3a0010c0b3000a
:10110000e7cf5000010032000040eb000080fb0000
:10111000000006000000eb00905f8800805f880000
:1011200012002000725f880091cab3008000fd00a9
:10113000d6e9b7008000fd000001fd0088e9b70096
:101140000001fd00d0e9b7008aa9ef008ca9ef00eb
:101150008ee9b700000006002ca3ef007215020014
:1011600000000000ebff37008009e20002003a00b7
:1011700000712200004c88008029ed0088c4bf0067
:101180000000060020c0b300d0e9b7001000200026
:10119000904188003428ef00b041880080418800e9
:1011a0000000060000000600000006000000060027
:1011b00000000600b8230400000000000000060044
:1011c000d1c1b30010c0b300ec1402000000000055
:1011d00003c4b300c29d20008040eb0010c0b300e8
:1011e0004415020000000000905f88000000060027
:1011f0009444a80080702000104c88008000eb0010
:101200008100e80080702000808f5000fcff3a00d1
:101210008229ef009444a90000000600881f78008e
:1012200020c0b30018edb700b8c0b3000600370007
:1012300008407800ec2402000000000002160200c2
:10124000000000000844e800d6c9bf000044e100e7
:10125000f7ff36008849e2000c003a008000eb00fe
:10126000910188000080eb008008bb000c00fc00ae
:1012700058052000383b8800a80a2000383b880029
:1012800061e7a800000000000000000061c7a9009d
:10129000d069ef004f0478000000060020c0b300c2
:1012a000d0e9b700f00f2000c0418800d04188008d
:1012b000e041880090c0b300bc1a040000000000a8
:1012c000e0c0b300bc1a02000000000010c0b30070
:1012d000e8ebb70015edb70020c0b300d0e9b700c8
:1012e0000000060070c0b3001ceab700d1a52000c2
:1012f000914078008180fb005ecabf004800dd009d
:1013000001017000f1a52000914078008180fb0070
:1013100060cabf004800dd0081017000f10f2000ad
:1013200081026100050078001deab7004812de0066
:10133000040078001eeab700818061000100780097
:101340001feab7004819de000200780020eab70063
:1013500061cabf0021eab700d9ecb70005007800e8
:10136000cdecb70004007800ceecb70001007800a7
:10137000cfecb70002007800d0ecb700d0c0b300cb
:10138000bc1a02000000000020c0b300d0e9b70082
:10139000000006008aa9ef008ca9ef0051cd2000c3
:1013a000914078008180fb00d6ccbf004800dd0072
:1013b000010070000000e800d5ecb7004800de0036
:1013c000d6ecb700d1a52000914078008180fb00c9
:1013d0005ecabf004800dd0001017000f1a52000d9
:1013e000914078008180fb0060cabf004800dd00aa
:1013f0008101700002007800cdecb7004810de00db
:10140000ceecb70003007800cfecb7004818de0040
:10141000d0ecb70013a620009341780003007800b9
:10142000d9ecb7008380fb0080032000010050004e
:1014300022002000110009000200d800800278007c
:101440000002eb000f0037000180fb0000014000ac
:10145000a1cd2000010141000080420000004000b9
:1014600041a62000010040009080fb001040900049
:101470004800dd0001007000004978004800de00ef
:1014800010419800844078000402e8000380fb00cb
:101490000000d10080cf5000ebff3900a0c0b300a6
:1014a000bc1a02000000000020c0b300d0e9b70061
:1014b00000000600889fbe00504c8000614c8000f8
:1014c000e10f4000e08f48000e003a00d1a5200057
:1014d000914078008180fb005ecabf004800dd00bb
:1014e00001017000f1a52000914078008180fb008f
:1014f00060cabf004800dd0081017000524c8800c6
:10150000634c8800564c8000674c8000d1a52000b9
:10151000914078008180fb005ecabf004800dd007a
:1015200001017000f1a52000914078008180fb004e
:1015300060cabf004800dd0081017000820f5300c7
:10154000838f5b0043003a0051cd2000914078002a
:101550008180fb00d6ccbf004800dd000100700098
:101560000000e800d5ecb7004800de00d6ecb7007c
:1015700006007800cdecb7004830de00ceecb700b6
:1015800007007800cfecb7004838de00d0ecb70099
:1015900013a620009341780003007800d9ecb7002f
:1015a0008380fb0080032000010050002200200007
:1015b000110009000200d80080047800e89820009b
:1015c000184478000602be00110037000180fb00bd
:1015d00000014000a1cd2000010141000080440035
:1015e0000000400041a62000010040009080fb0068
:1015f000104090004800dd000100700000497800b4
:101600004800de001041980061024200e0824a007a
:10161000864052000380fb000000d10080cf5000c4
:10162000eaff390006405400044040008ee9b7004c
:10163000544c8800654c880000c1b300bc1a0200fd
:101640000000000020c0b300d0e9b7008e69ef00b1
:1016500001003700d069ef004f04be000000060013
:101660000040eb00d5ecb700d6ecb700f0c0b300fb
:10167000bc1a02000000000020c0b300d0e9b7008f
:1016800000000600e4982000144278000481fb006a
:101690000482fb0005002000504c8000614c80005b
:1016a000040050008580580003992000b0240200f7
:1016b000000000000040eb008ee9b7008aa9ef00af
:1016c0008ca9ef00d0e9b70000000600881f780061
:1016d000504c8000614c8000e10f4000e08f4800da
:1016e0000e003a00d1a52000914078008180fb00d7
:1016f0005ecabf004800dd0001017000f1a52000b6
:10170000914078008180fb0060cabf004800dd0086
:1017100081017000524c8800634c8800d1a52000e4
:10172000914078008180fb005ecabf004800dd0068
:1017300001017000f1a52000914078008180fb003c
:1017400060cabf004800dd00810170000004eb00aa
:10175000504c8000614c8000820f5000838f5800f5
:10176000280032002d003700e49820001442780051
:101770008481fb00069920008381410080032000c2
:101780000100500022002000110009000200d800d2
:101790008580fb00010040000000400041a62000c1
:1017a000010040009080fb00104090004800dd00e8
:1017b0000100700080317b000442e80004007800e2
:1017c0008ee9b700504c8000614c80006101400000
:1017d000e0814800524c8800634c8800fc4f520066
:1017e00007003a007b005000e08058008601780036
:1017f000c2012000b0240200000000008e69ef004a
:101800000804e8008842780061cabf008080fb00bd
:101810000100d100804f5400d3ff3900d069ef00a0
:101820004f04780000000600881f7800805f800069
:101830000000e00003003200104090000004e000cf
:101840005300350070c0b3001ceab700d1a52000da
:10185000914078008180fb005ecabf004800dd0037
:1018600001017000f1a52000914078008180fb000b
:1018700060cabf004800dd008101700002007800ee
:101880001deab7004810de001eeab700030078002a
:101890001feab7004818de0020eab70061cabf009f
:1018a00021eab7000044eb002c003700d829ef00f4
:1018b000da29ef00d3a52000934178008381fb0053
:1018c000e2a52000124178004811dd0003007100fc
:1018d000f3a52000934178008381fb0002a620003d
:1018e000124178004811dd00830071000881fb007f
:1018f000030020000000410081804900962402007e
:1019000000000000c04e8800d14e88000881fb0016
:1019100061cabf000080fb000000d100000151003f
:1019200002014100c1a5200081004100c04e80009d
:10193000804878004800de0090409800db69ef00a6
:10194000e0a5200000014100d04e80000049780051
:101950004800de001041980008c4e80061cabf00da
:101960000080fb000000d100804f5400cfff390001
:1019700003c4b300c2a1200011c0b300014078002d
:101980004415020000000000805f8800d069ef006d
:101990004f0478000000060020c022000100200053
:1019a0009624020000000000f2ff2f00f30f200039
:1019b000820f5000838f5800070032009424ef00fc
:1019c0000080eb00000000000000e900fdff3a008d
:1019d000042302000000000000000600d069ef00b0
:1019e00020c0220001002000a6220200000000000a
:1019f00080407800e14f500004003a0050c0b3002e
:101a000040e8b70001007800dcebb70000000600fa
:101a1000019d2000914078000104e0001c003a0084
:101a2000905f80000000e000030032001040900052
:101a30000004e000510135008000eb00c29d200051
:101a4000c0a5200062f078008100e80000042000ba
:101a5000808f5000f9ff3a00814178008040eb0010
:101a600010c0b3004415020000000000905f880021
:101a700010c0b300d0e9b700c1a120008058eb002e
:101a8000c0a52000808f50003c013200fbff3700d2
:101a9000e1cf5000e2003a005ccabf00e34f5000c3
:101aa0008d00320003003e00e24f500095003a00e6
:101ab0000f003700e94f500003003200ea4f50009a
:101ac00090003a0002003700146def008d003700df
:101ad000d0a520007efd07000004e0008900320050
:101ae00065cabf0014edb7003ee8b70085003700b7
:101af000d0a5200076fd07000004e0008100320040
:101b000051a62000914078000100780014edb70044
:101b1000e1cf400008003a0000802a00904e880083
:101b200020002000a04e880001c02200214c880027
:101b30008629ef001d003700010078003ee8b7005d
:101b4000b0c2b30080cf500007003a00020022006c
:101b5000224c88008629ef0003f02a00934e88006b
:101b6000d429ef0011003700c0c2b30080cf50006d
:101b700008003a0000c02200204c88008629ef00af
:101b800001802a00914e880021002000a14e88008b
:101b90000600370002702100224c88008629ef00e1
:101ba00003802500934e8800d429ef0024c0b300a1
:101bb000040078001ceab70080c3b3001deab70038
:101bc000040078001eeab70015c0b30005007800d5
:101bd0001feab700224c8000334c800002007800de
:101be00020eab7004810de0021eab70003007800c1
:101bf00022eab7004818de0023eab700904e8000c2
:101c0000a14e8000020050008380580024eab700f3
:101c10004801de000200780025eab70001007800e4
:101c200026eab7004808de0027eab70028eaef00f6
:101c30008849e2001a003a000500780028eab70057
:101c4000296aef002a6aef002b6aef002c6aef0086
:101c50002d6aef0040c0b3002eeab7002f6aef00f4
:101c6000306aef0030c0b30031eab70080cfb30074
:101c700032eab700b0cab30033eab7000400780014
:101c800034eab700356aef0080c0b30036eab70027
:101c9000376aef00386aef00396aef003aeaef007e
:101ca000805f80000000e0000300320010409000e0
:101cb0000004e0001300350003c4b300c2a12000fb
:101cc00085407800054078004415020000000000bf
:101cd000805f88000a0037005d4ae20004003a0095
:101ce000a0cab300d6e9b7008869ef000400370046
:101cf00090cab300d6e9b7000100780088e9b700c0
:101d0000d069ef00c1a520009140780040d12000ab
:101d100000c1eb00904f110013003a00e6cf5000d5
:101d20000e00320005003e00e4cf500009003200f2
:101d3000e5cf500091003a0007003700e8cf50008f
:101d40000800320006003900eacf50008b003a004c
:101d50000cfd370031fd37005cfe370049fe3700cf
:101d6000b1fe37000cff3700e7cf50002a003200e9
:101d700006003e00e5cf50002500320025003e0061
:101d8000e4cf50007d003a0008003700e9cf500052
:101d90000400320021003900eacf500077003a00f9
:101da000010037000dff37003cfd3700e1832000c4
:101db00091407800b0c2b30080cf500003003a00d9
:101dc000c96cef006b40500009003700c0c2b3007f
:101dd00080cf500004003a00c96cef000100780089
:101de000caecb70003003700c96cef0070c1b30044
:101df000caecb700cb6cef00cc6cef0000c1b300b5
:101e0000d1ecb70077404000d2ecb70014fe3700a9
:101e1000a8fd37005ffd370032fd370028fd370091
:101e2000c8ccbf00f14f500003003a00b14be200b4
:101e30001b00320017003700f44f500018003a0022
:101e4000b14be20016003200c041800024eab70026
:101e50004800de0025eab700d041800026eab7003e
:101e60004800de0027eab700e041800028eab7001a
:101e70004800de0029eab70033c0b300c2a1200049
:101e800011c0b300014078004415020000000000ba
:101e9000805f8800d069ef00b16bef00350037003c
:101ea00084418000e10f520012003a003028ef0018
:101eb0009041800024eab7004800de0025eab70020
:101ec000a041800026eab7004800de0027eab700fc
:101ed000b041800028eab7004800de0029eab700d8
:101ee00033c0b300c2a120008440780004407800d1
:101ef000e5ff3700f34f500013003a00b14be2000a
:101f0000110032000002eb00a3cd200042a220000d
:101f10009380fb00134090004800dd00010070003a
:101f2000004978004800de00104198000402e800f3
:101f30000281e8008381e800fc0f5200f4ff3a00c0
:101f400003c4b300cdff370060d1200013c0b3003d
:101f500090cf110007003a009424ef000000eb003e
:101f6000000000000000e800e10f4000fcff3a0024
:101f70000000fe0002160200000000000000060043
:101f800071c320009140780000c2b30080cf5000a0
:101f900005003a0020c0b30040e8b70010c0b3000d
:101fa00041e8b7000500370010c0b30040e8b700b3
:101fb0004168ef00ffcf50000600360088c4bf0024
:101fc0000018a30003003a0091fe07000216020069
:101fd0000000000000000600881f78004048ed0067
:101fe000e14f500008003e00a801800000002000e2
:101ff000a001880002160200000000000884fb0017
:10200000a8018800deff07004f04780000000600ea
:020000040000fa
:102010008180fb00120020000111dd0002487800e1
:102020000000060000618000904178000381fb0001
:10203000d1c22000914078008180fb002eccbf00ef
:102040004800dd0001007000800f510002003600e2
:102050008041780004003700020050002decb700ea
:102060004800de002eecb7000002eb000d00370048
:10207000a1c22000914078008180fb002bccbf00e2
:102080004800dd00010070000281fb0081cb2000d0
:1020900062d878002aecb7004800de002becb700cd
:1020a0000402e80004417800834f5200f0ff390039
:1020b000f2608000d1c22000914078008180fb0056
:1020c0002eccbf004800dd00010070000e00320081
:1020d00080c0b30000497800f160800080cb200010
:1020e0009000980000618000104090000068a300fc
:1020f00002003a0080ccb3000100370080c8b30072
:10210000904098000000060000cc200010019800cc
:10211000f1c22000914078008180fb0030ccbf00ec
:102120004800dd00010070000100320000000100e5
:102130002ceca9000000060080c1200021c0b300e3
:1021400090cf10001a003a0094c4bf000058a300ba
:10215000170032000061800081c0b30090cf1000f2
:1021600013003a0010409000c043b20041c3b300d6
:10217000814f50000e003a00f16080001140900045
:102180000004e0000a00350000cc20009000980018
:102190000001eb0081cb200000cc200061707900b1
:1021a0000201e800e80f510010003200f9ff37008b
:1021b0000041eb000200780018ecb70081c0b300ca
:1021c000f060800001487800f160800000cc2000c1
:1021d00090009800c0c8b300904098003061800023
:1021e0001240980030618000124098002c4ce200b0
:1021f00009003d00f1c22000914078008180fb0081
:1022000030ccbf004800dd0001007000010032004a
:10221000000001002ceca9000000060080c1200095
:1022200021c0b30090cf100001003a007dff3700bd
:10223000c1ff370041c32000914078008180fb003e
:1022400035ccbf004800dd00010070008500200093
:10225000e70f500009003e008002780019ccbf0053
:1022600002003a0010c0b30003003700e14f5000f5
:1022700002003a0020c0b30019ecb70032618000c0
:1022800012409000c828de00014070001041980004
:10229000306180000548780041c3200091407800fb
:1022a0008180fb0035ccbf004800dd0001007000dc
:1022b0000500500034ecb7004800de0035ecb700f4
:1022c00080cb2000b06088000002eb008001eb00b2
:1022d000330cab000e0032001d003700b2608000ee
:1022e00011c32000914078008180fb0032ccbf00f8
:1022f0004800dd000100700030597800b2608800ad
:1023000031ecb7004800de0032ecb7008301e80092
:10231000858f5100f1ff3a0000000600b260800096
:1023200011c32000914078008180fb0032ccbf00b7
:102330004800dd000100700030597800b26088006c
:1023400031ecb7004800de0032ecb7000402e800d0
:10235000850f5200f1ff3a0000000600881f780048
:1023600094a4a900c1c220009140780008c8b3001d
:1023700033ccbf000841600011003a000104e000c6
:1023800005003d0020c0b30018ecb70030618000ac
:10239000024878004000370081c0b300f060800040
:1023a00001487800f160800000cc20009000980087
:1023b000c0c8b3009040980041c8b3002f00370058
:1023c0000104e0003e003500c0ccbf008840600042
:1023d0002d003200c6ccbf000080fb0072cc200074
:1023e000124178004811dd000001710041c3200056
:1023f000914078008180fb0035ccbf004800dd00b3
:1024000001007000800f51000900310061cc2000f4
:10241000914078008180fb00c7ccbf004800dd0000
:102420000100700034ecb7004800de0035ecb70066
:1024300080ff070010c0b30018ecb70082c0b300e3
:10244000f060800002487800f060800001cc20003d
:102450001100980018409800006180000248780040
:1024600000618000110098001840980081cb200086
:10247000306180001100980081ccb3003061800091
:10248000114098000e00370020c0b30018ecb700d0
:10249000306180000148780082ccb3003061800058
:1024a0001240980081c0b300f060800001487800bd
:1024b000f160800080cb200090009800924098004e
:1024c0004f04780000000600881f7800306180000b
:1024d000104090004600de006104600070c32000e0
:1024e00081c0b30090cf100008003a00c2ccbf00fa
:1024f0000080fb00b024880000c1b3009604e20015
:1025000001003a0040c0b30037ecb70080c12000a2
:1025100011c0b30090cf100013003a0080cb200010
:10252000316180009000980042ff070090c12000b8
:1025300021c0b30090cf100004003a0041c8b3009e
:102540003061800011409800080037003161800040
:1025500080ccb3000804e0000100320080c8b30062
:102560009040980001003700f3fe07004f04780008
:102570000000060001cc20009140780000c8b300a4
:1025800080cf500031003a0000ccb30033ecb700ec
:10259000c3ccbf00e24f50000a003200e34f5000ae
:1025a0001b003200e14f500027003a00e084280071
:1025b00031ecb7004800de0032ecb70020c1b300b8
:1025c0001e003700c2ccbf000080fb0000004000ae
:1025d000617a2800010040009080fb008000fd002f
:1025e00031ecb7008000fd00100078004800de00ec
:1025f00032ecb7004800dd008100700021409000ff
:1026000034ecb7003140900035ecb7000000060014
:10261000c2ccbf000080fb0000004000017a28000f
:102620006080780031ecb700c800de008000fd005b
:1026300032ecb7008000fd001080fb0034ecb700e6
:10264000356cef0000000600336cef000000060060
:10265000b86cef00b96cef00c0ccbf007f00600029
:10266000e10f50000b003200e20f50000b0032006f
:102670000000e0001b003a0033eca800b80ca800f2
:1026800020618000e10f500016003a00b82ca8002d
:102690001400370033eca8001200370033eca80018
:1026a000c44ce20005003500c4ccbf006f006000e0
:1026b00000004000a1c1200004003700c4ccbf00ce
:1026c0006f0060000000400061c220006080780060
:1026d000104090000028a3000200320010c0b30098
:1026e000b8ecb700334ce20007003d0080cb20007f
:1026f00031ecb7004800de0032ecb700330ca80024
:1027000020c0b30034ecb70000000600c2ccbf000c
:10271000e14f50000b003a00c0ccbf007f4060008a
:1027200008003a0033eca800c1ccbf00e34f5000d2
:1027300003003a00100020002061880001003700eb
:10274000242cef00c24ce20026003a00c0ccbf00af
:102750007f406000e24f500022003a00c4ccbf002e
:102760006f4060001f00320033eca800c44ce20050
:1027700005003500c4ccbf006f00600000004000c1
:10278000a1c1200004003700c4ccbf006f0060006e
:102790000000400061c2200060817800c1ccbf0011
:1027a000e34f500002003a0040c8b3000900370070
:1027b000c4ccbf006f00600000004000a14a2000b0
:1027c000010040001010a100c44ce20003003d00d5
:1027d00000c4b300104198000000060080ccb30094
:1027e000104198000000060033eca800226cef00b6
:1027f000c2ccbf0036ecb700c24ce20003003a0086
:1028000000c1b30037ecb7000000060000c2b300ff
:1028100037ecb700e008040000000000c0ccbf00a7
:102820000046b20033003a00c1ccbf000080fb007c
:1028300001002000eb0f5000e08f58002d003e00fb
:102840000060010013003700130037002900370033
:102850001100370027003700060037000900370055
:102860002200370009003700070037000b0037004f
:102870001600370033eca80080c0b30037ecb70077
:10288000000006003bff3700d7ff370060c3200081
:10289000060037006eff37009cff3700c4ccbf0036
:1028a0000080fb0021c220000100400031ecb70095
:1028b0004800de0032ecb700330ca80010c0b300b3
:1028c00034ecb70033eca8000000060033eca8009d
:1028d000c4ccbf000080fb0021c2200022cc20001d
:1028e0001241780002f0780000000600de080200c5
:1028f00000000000000006003161800011409000df
:102900000004e00002003d000040eb009040980011
:10291000196cef00186cef00346cef00356cef00b1
:10292000336cef00bdff0700da0802000000000072
:102930008afe370014ccbf008080fb0001007800c5
:102940000020a1000000e0000c003a00c10fb2001e
:1029500000c020000080400000618800f060880016
:1029600010409000c043b20041c3b300814f5000fb
:1029700001003a00e0ff370028fe3700e80f500062
:1029800001003a00d0fe0700000006000080fb00b6
:10299000800140000180fb00008041004200dd001a
:1029a00002c0200002014000124090000070a1000f
:1029b00010419800a0c120000104e0000100320095
:1029c00060c2200082317800124090000060a000b8
:1029d0001041980000000600889fbe0080447800e7
:1029e0000184fb000080fb0000004000a14a2000a1
:1029f00008b078000838a300030032008040eb00e4
:102a000009407800e1ff07000828a3000300320016
:102a100011c0b30009407800dcff07004f04be007e
:102a2000000006000004e0000b003a0081c0b30083
:102a3000f060800001487800f160800000cc200048
:102a400090009800c0c8b3009040980041c8b300ff
:102a5000306180000a0037000080fb000000400069
:102a60008180fb00010040004200dd0001c0200029
:102a7000010040009040900042c8b30082c0700046
:102a800011409800000006000080fb000104e000f7
:102a9000030032008000400060c2200002003700c6
:102aa00080004000a0c12000610278001440900026
:102ab0000064a2001042980012029800034a7800b5
:102ac000144090000044b20010429800144090005e
:102ad00081c8b300014070001042980004007800e3
:102ae00000000600f00f20007024880050248800a9
:102af000f009200080248800b00f200060248800a6
:102b00008804a80001c020004808de00c024880016
:102b10009424a8009424a9009624ef000000eb0060
:102b20008018eb008018eb000000e800e40f500074
:102b3000fbff3a00d000200050258800020037003b
:102b400080c0b3008ae4b7008ac4bf00e8406000d8
:102b5000fbff3a008000fd0033ecb7002cecb7001f
:102b60002decb7002eecb7008000fd0094a4a90066
:102b700040c02000306188008000fd0036ecb700c6
:102b800037ecb7008000fd0000000600aac4bf00bb
:102b90000018a3000d0032000261800092409000f6
:102ba00000c8b30080cf500007003a0030618000b9
:102bb0009040900040c8b30080cf500002003a001f
:102bc0006840400010419800aa24a90000c8b30042
:102bd0008ae4b700000006008284a80000c1b300a8
:102be0008ae4b700d208040000000000d408020004
:102bf000000000008284a90000c1b30080e4b70097
:102c000000000600881f7800374ce2000c003a00f4
:102c10009424ef008c24ef00010037009404a800f6
:102c200094c4bf000008a300fcff320010c0b30032
:102c300037ecb700a624ef000001200040258800f3
:102c400070c3200011c0b30090cf100007003a00fd
:102c5000f00f2000502488008c24ef008c04a80082
:102c60008c84a80020c0b30037ecb70080c4bf003c
:102c70000048a3000400320082c4bf000048a30043
:102c800001003200d9ff070088c4bf000018a3006c
:102c900045003a008ac4bf000008a3000e003200bd
:102ca0008cc4bf000008a3000b0032008dff07009a
:102cb00040c0b30037ecb70000cc200010608800a3
:102cc00080c0b30000ecb70030c0b300016cb600a8
:102cd000c0c8b300016cb7008ac4bf000048a3009d
:102ce000060032008cc4bf000048a300030032007d
:102cf000b9ff070000c1b3008ae4b7008ac4bf006f
:102d00000028a300070032008cc4bf000028a300e5
:102d100004003200d60802000000000040c0b300ea
:102d20008ae4b7008a44e20003003d008c44e200dc
:102d300001003d0095ff07008ac4bf000018a300f2
:102d4000070032008cc4bf000018a300040032004a
:102d5000d808020000000000f00f20007024880056
:102d600070c3200031c0b30090cf10000e003600b9
:102d70008cc4bf000038a3000b00320048c0b30071
:102d80008ac4bf000038a3000700320090248000ee
:102d900014ecb70080c0b3008ae4b700e5fe07007a
:102da0000844e900f6ff3a004f04780000000600ee
:020000040000fa
:102db0000400fa00889fbe008a1f78008004780013
:102dc00020c0b300804c780002c2b30002c04000b3
:102dd0009044980030c0b300e0f79f008140e900c4
:102de000e3cf400001003e000000000082cc200044
:102df00012417800ea80570009007800361e020070
:102e000000000000c8ccbf00ed4f50002801320088
:102e100003003e00ea4f500067013a00b600370059
:102e2000ef4f500003003200f04f500062013a00b3
:102e30004a00370091cc200091407800a4cc2000bb
:102e400014427800c0c2b3003e48e3001d003a00bf
:102e50008180fb004820dd0001017000ea805700fe
:102e600009007800361e02000000000091cc20000e
:102e7000914078008180fb00caccbf004800dd0093
:102e80000102700002f02f00040161000300200025
:102e90004818dd004811de0002017000c819de008c
:102ea000ea80570009007800361e0200000000008a
:102eb000b2cc2000124178000281fb000300200008
:102ec000140037008180fb004820dd000101700004
:102ed000ea80570009007800361e0200000000005a
:102ee00091cc2000914078008180fb00caccbf00cb
:102ef0004800dd000102700002f02f0004016100b3
:102f000003002000c818dd004811de0002817000b7
:102f1000c819de00ea80570009007800361e02005a
:102f200000000000d1ccbf000080fb0022cd2000bb
:102f3000124178004811dd0000017100ea8057005d
:102f400009007800361e02000000000022cd20009b
:102f5000124178000281fb0013013700d5ccbf007d
:102f60000080fb0062cd2000124178004811dd0096
:102f700000017100ea80570009007800361e020047
:102f80000000000008f02f0062cd20001241780000
:102f90000281fb00ea80570009007800361e02001b
:102fa00000000000d1cc200091407800e4cc20004b
:102fb00014427800c0c2b3003e48e3001c003a004f
:102fc0008180fb004820dd0001017000ea8057008d
:102fd00009007800361e020000000000d1cc20005d
:102fe000914078008180fb00ceccbf004800dd001e
:102ff0000101700002016400030020004818dd0098
:103000004811de0002017000c819de00ea80570096
:1030100009007800361e020000000000f2cc2000fb
:10302000124178000281fb000300200013003700ea
:103030008180fb004820dd0001017000ea8057001c
:1030400009007800361e020000000000d1cc2000ec
:10305000914078008180fb00ceccbf004800dd00ad
:10306000010170000201640003002000c818dd00a7
:103070004811de0002817000c819de00ea805700a6
:1030800009007800361e02000000000092cd2000ea
:1030900012417800ea80570009007800361e0200cd
:1030a000000000000005eb00a8cd20001880fb0008
:1030b000184190004811dd0000017100ea805700be
:1030c00009007800361e0200000000001841900040
:1030d0000281fb00ea80570009007800361e0200da
:1030e000000000000a05e8000884e800fc0f550015
:1030f000b1003200edff3700d5ccbf000080fb00ef
:1031000062cd2000124178004811dd0000017100fd
:10311000ea80570009007800361e02000000000017
:1031200008f02f0062cd2000124178000281fb00e0
:10313000ea80570009007800361e020000000000f7
:10314000d1cc200091407800e4cc200014427800db
:10315000c0c2b3003e48e3001c003a008180fb007f
:103160004820dd0001017000ea8057000900780066
:10317000361e020000000000d1cc200091407800f3
:103180008180fb00ceccbf004800dd000101700053
:1031900002016400030020004818dd004811de0031
:1031a00002017000c819de00ea80570009007800ab
:1031b000361e020000000000f2cc20001241780010
:1031c0000281fb0003002000130037008180fb0018
:1031d0004820dd0001017000ea80570009007800f6
:1031e000361e020000000000d1cc20009140780083
:1031f0008180fb00ceccbf004800dd0001017000e3
:103200000201640003002000c818dd004811de0040
:1032100002817000c819de00ea80570009007800ba
:10322000361e02000000000092cd200012417800fe
:10323000ea80570009007800361e020000000000f6
:103240000005eb00120037000184fb000804440075
:10325000a0cd2000000444001880fb00184190001d
:103260004811dd0000017100ea8057000900780074
:10327000361e020000000000184190000281fb0091
:10328000ea80570009007800361e020000000000a6
:103290008a4078000a05e800d9ccbf000080fb0016
:1032a0000000d10080cf5000e7ff39004200370016
:1032b00092cd200012417800ea8057000900780082
:1032c000361e020000000000d1cc200091407800a2
:1032d000e4cc200014427800c0c2b3003e48e300b2
:1032e0001d003a008180fb004820dd0001017000d4
:1032f000ea80570009007800361e02000000000036
:10330000d1cc2000914078008180fb00ceccbf0062
:103310004800dd000102700002f02f00040161008e
:10332000030020004818dd004811de000201700093
:10333000c819de00ea80570009007800361e020036
:1033400000000000f2cc2000124178000281fb0056
:1033500003002000140037008180fb004820dd00be
:1033600001017000ea80570009007800361e020053
:1033700000000000d1cc2000914078008180fb004b
:10338000ceccbf004800dd000102700002f02f002b
:103390000401610003002000c818dd004811de00b0
:1033a00002817000c819de00ea8057000900780029
:1033b000361e0200000000006ff097005042b0007f
:1033c000a04498006ff1970065404100a044990027
:1033d0008280fb000001eb00090078004e22020011
:1033e00000000000eff097008181fb004801de0043
:1033f000cc00de000142b00081f17c00eff19700cb
:103400008340e800e1f79f008180fb006f4161008d
:103410000242b00082f07c00eff097000141e8002a
:10342000e2f79f000281fb0080007800010fb200ec
:10343000c488de000142b00001f17c006ff197000a
:103440008240e800e1f79f008180fb006f40600050
:103450000042b00080f07c00eff197000340e800ec
:103460000080fb0031c0b30001f07c004f05780004
:103470004f04be000080fa00000006000200fa00bf
:103480008000780030409000c8ecb700f24f500048
:103490001a00320003003e00f14f500032003a00a3
:1034a0000e003700f34f50001f003200f44f500061
:1034b0002d003a00414090000080fb00c041880090
:1034c000514090000080fb00d04188006140900096
:1034d0000080fb00e041880023003700414090005d
:1034e000e0ff9f00d1409000f1ff9f00d3ecb700b8
:1034f00001007800d4ecb7001b003700c1419000f8
:10350000e3ff9f0051409000f0ff9f000300780010
:10351000d3ecb7007ff89700d4ecb700614090007f
:1035200012edb70010003700648040000001eb008e
:10353000a1cd200090417800e3ff9f0090419000d2
:10354000f3ff9f00eff9970083487800fff9970099
:10355000934098000201e8008180e8000080e800c4
:10356000fc0f5100f3ff3a0010c0b300b1ebb700fd
:103570000080fa0000000600c8ecb700220ba8008b
:043580000000060041
:020000040000fa
:10358400881f780000047800220820008000eb00e7
:1035940092040200000000000040eb006044990027
:1035a40040449900304499002044990050449900c3
:1035b4004f04780000000600dd62a800d962a9006b
:1035c400dd42a900d942a900d5c2a900d1c2a900ef
:1035d40010022000c01288008000200080128800a1
:1035e4005222ef0051e2a80053e2a90053a2a8001e
:1035f4005342a8008e40a9008e60a9009e40a800f6
:1036040040b22000deff0700c0a92000dcff070055
:10361400806d2100605d8800e0a32100705d88005a
:1036240000000600aa6bab000f003200e0cbbf0025
:1036340003003a0010c0b300e0ebb7000a00370003
:10364400e14f400008003a00e183200091407800f7
:1036540040b22000725d80000200010040b22000f0
:10366400c7ff0700e06bef000084200021c0b30017
:1036740090cf10000f003a0040be200090cf100001
:103684000c00320030d12000e1c1b30090cf100013
:1036940007003e00b0c0b300bc1a020000000000e6
:1036a400136dec0010c0b300e4ebb7000100370069
:1036b400e46bef0080cc2000e1c0b30090cf100099
:1036c40012003a0080be200080c0eb0090cf1000b2
:1036d4000e003a0050d1200051c0b30090cf10002a
:1036e40007003e00e0c0b300bc1a02000000000066
:1036f40010c0b300e8ebb700156dec000300370011
:10370400e86bef0010c0b30016edb70022cbbf008a
:103714001042b200e14f500009003a00220ba90008
:10372400c0a9200096ff0700e183200091407800a3
:10373400c0a92000625d800002000100222ba800c5
:1037440022cbbf000018a300190032000058a300c8
:1037540017003a0020c8b3001e4be30014003e00db
:10376400d5c2a8008e60a9009e60a80022aba80064
:1037740053c2bf000008a3000b003200f1b12000c7
:10378400914078000181fb00c0a9200062407800cc
:103794000080fb00a01288008140e800010078004e
:1037a4001febb7000000060051e2a90082ff0700ea
:1037b40000000600809fbe00821f78009ec0bf00ec
:1037c4000038a300150032008ec0bf000038a300eb
:1037d400120032008e60a900f2b12000124178007c
:1037e4001ecbbf000014e10005003a00d5c2a900b9
:1037f4009e60a90022aba900222ba9000700370074
:103804008280fb00c0a92000614078000080fb009a
:10381400a01288000240e8001febb7004f017800b7
:103824004f00be00004006003600f800809fbe0036
:10383400829fbe00849fbe00869fbe00889fbe00fc
:103844008a1f78009ec0bf000028a300fe0032003b
:103854008ec0bf000028a300fb0032008e40a900e8
:1038640052c2bf000018a300020032005222a90075
:10387400aa8ba80052c2bf000028a3000200320095
:10388400b0128000aa8ba800b31280008344780091
:10389400aa8bab00ea003a00a8cbbf00e24f50006d
:1038a4003b00320005003e000004e0000900320045
:1038b400e14f5000df003a0016003700e44f50009b
:1038c4006c00320048003900e54f5000d9003a003e
:1038d4007e003700e2cf5100d7003a0071ba2000d1
:1038e400914078000181fb0040b220000371780010
:1038f4008140e80001007800a7ebb70010c8b300ce
:1039040080cf500001003600aa8ba80010c0b3007d
:103914001d00370071ba2000914078000181fb003e
:1039240040b22000037178008140e8000100780073
:10393400a7ebb70010c8b30080cf500001003600d9
:10394400aa8ba80000ceb30080c044000100780018
:10395400b2ebb7000140e900e2c3b300824f50006c
:1039640008003600b0c9b30000c04000824f5000c8
:1039740004003600aa8ba80000000000000000002c
:10398400ad00370020c0b300a8ebb700aa00370091
:1039940071ba2000914078000181fb0040b2200000
:1039a400037178008140e80001007800a7ebb700bc
:1039b40010c8b30080cf500001003600aa8ba800c5
:1039c40070cdb30000c0440091c7b300814f5000d4
:1039d40098003e00b0cdb30000c04400a6ebb70091
:1039e40030c0b300e8ff3700a94be2000c003200fe
:1039f40000c3b30080cf51000700320000c0e800cc
:103a040080cf5100040032000040e80080cf510014
:103a140001003200aa8ba800a96bef000400370054
:103a2400fbcf510002003a0010c0b300a9ebb7006d
:103a340071ba2000914078000181fb0040b220005f
:103a4400097178008140e80001007800a7ebb70015
:103a540010c8b30080cf500001003600aa8ba80024
:103a6400a6cbbf00a74be30073003a0040c0b300ed
:103a7400c5ff370071ba2000914078000181fb0036
:103a840040b22000037178008140e8000100780012
:103a9400a7ebb70010c8b30080cf50000100360078
:103aa400aa8ba80071ba2000914078008180fb00a5
:103ab400a6cbbf000080fb0064004000808f500054
:103ac4005d003a0050c0b300afff3700e3cf5100b0
:103ad40058003a0071ba2000914078008180fb00c0
:103ae400648050004ab2200060447d0002fe2f0032
:103af4004c44dd006380500060407d0000004100c4
:103b04004800dd00000474000180e90060407d008d
:103b14000080fb00020040004400dd00000474004b
:103b24008100e90061407d000080fb00020040004c
:103b34000004740061ba2000914078008180fb0089
:103b44000001eb000a0078004e2202000000000091
:103b5400800f540037003a00a7cbbf008080fb00e1
:103b640089707d000040e800a7ebb70011c8b300de
:103b7400814f500001003600aa8ba800d0cfb300bb
:103b8400a66bb4008042eb008003eb001600370004
:103b94000580fb0074b2200060417a008541e80092
:103ba400fb4f51000c003a000183fb000380fb0033
:103bb400e0407a0000cdb30000c0400085c1e800b9
:103bc4000004e00002003a0002737a0004003700a7
:103bd40000737a00020037000180fb0002707a0053
:103be4008703e800834278008740780062ba2000a7
:103bf4001241780082cf5200e5ff390007c052001d
:103c040000405100a6ebb70021bb20009140780092
:103c14008180fb003ec8bf000080fb004006b0006e
:103c2400808f500001003a00aa6ba800aa6bab0079
:103c340001003a00aa8ba800aa8bab000200320054
:103c440040b220004efe07004f0578004f04be002e
:103c54004f03be004f02be004f01be004f00be0026
:103c64003600f90000400600000278008101780067
:103c740002c0e900e14f500009003e009180fb00c2
:103c8400b0c1b30080707a001340e8008049780026
:103c94000080fb0005c3b3008540410008003700e5
:103ca4001180fb00fb4f510007003a0002707a00bc
:103cb4001140e800804878000080fb0001c3b30095
:103cc40001707a000100370002707a009349e8001d
:043cd40000000600e6
:020000040000fa
:103cd800e4a2a800e0a2a900f0c2a900f102a9008c
:103ce800f0e2a80000000600e4a2a900600020009d
:103cf8002026020000000000382602000000000014
:103d080041138000e4a2a8000080fb000000060028
:103d1800881f780000047800e4a2a9005000200061
:103d280020260200000000003826020000000000e3
:103d3800401380000000eb00202602000000000075
:103d4800382602000000000040138000e4a2a8000a
:103d5800004c7800080078004f0478000000060046
:103d68000200fa00889fbe008004780001047800f1
:103d780066805700e6ff0700aff8970061c0600053
:103d8800fbff3a00d8ff0700e4a2a90020002000aa
:103d98002026020000000000382602000000000073
:103da800401380004840de0020260200000000008a
:103db8003826020000000000401380000880fb0045
:103dc8002026020000000000382602000000000043
:103dd800401380000900780020260200000000003f
:103de800382602000000000040138000e4a2a8006a
:103df80065805700c6ff07003ff897000008a3003a
:103e0800fbff3a004f04be000080fa0000000600e5
:103e1800889fbe008004780001047800b2ff070084
:103e2800e4a2a900200020002026020000000000d3
:103e38003826020000000000401380004840de00e1
:103e480020260200000000003826020000000000c2
:103e5800401380000880fb002026020000000000bc
:103e68003826020000000000401380000900780096
:103e78002026020000000000382602000000000092
:103e880040138000e4a2a8004f04be000000060012
:103e9800881f780000047800e4a2a9003000200000
:103ea8002026020000000000382602000000000062
:103eb800401380004840de00202602000000000079
:103ec8003826020000000000401380000884fb0030
:103ed80008007800202602000000000038260200b2
:103ee80000000000401380000000eb0020260200c4
:103ef8000000000038260200000000004013800087
:103f0800e4a2a8004f04780000000600881f78008b
:103f180000447800e4a2a900100020002026020036
:103f28000000000038260200000000004013800056
:103f38000884fb000800780020260200000000002a
:103f4800382602000000000040138000e4a2a80008
:103f58004f04780000000600889fbe008a9fbe00bc
:103f68008105780002057800000478008004eb00e1
:103f7800070037000060fe006ac07c000080fb007c
:103f88008800780076ff07000804e8008904e80044
:103f98008b8f5400f7ff39004f05be004f04be0059
:103fa800000006000200fa00889fbe008a1f780001
:103fb8000004780001457800820478006880570082
:103fc80053ff07008ff8970061c0600011002000c0
:103fd80025003a0044ff0700e4a2a90020002000c1
:103fe8002026020000000000382602000000000021
:103ff800401380004840de00202602000000000038
:104008003826020000000000401380000880fb00f2
:1040180020260200000000003826020000000000f0
:1040280080407800401380000004eb00090037004e
:1040380069407c000080fb00202602000000000090
:1040480038260200000000008040780040138000fd
:104058000804e8000a80fb00800f5400f4ff3900d0
:10406800e4a2a8008180fb00010078004f057800d9
:104078004f04be000080fa0000000600889fbe00c2
:104088008a9fbe0081057800020578000004780048
:104098008004eb00060037000060fe00080078008e
:1040a8007bff070000f57c000804e8008904e800ad
:1040b8008b8f5400f8ff39004f05be004f04be0037
:0440c80000000600ee
:020000040000fa
:1040cc000003780081427800a00180000042780053
:1040dc0000002000a00188008001eb0008003700e0
:1040ec000080fb0060407b00004069000080fb000a
:1040fc00016a280060c178000060fe008301e800be
:10410c000340780085cf5100f5ff39000480fb0097
:10411c00a00188000280fb0000000600bc6bef00d1
:10412c0010c0b300b6ebb700b56bef000042eb006c
:10413c008041780084427800dc62a900d862a90032
:10414c007000200001003700000000000000e900b2
:10415c00fdff3a00d862a800f102200001003700f0
:10416c00000000008100e900fdff3a00dac2bf0048
:10417c000038a300010032000342720003c1410069
:10418c00824178008542e800800d20000200370053
:10419c00000000008100e8000000e900fcff3a008c
:1041ac00e7cf5200e4ff3600815e880004007800ff
:1041bc00b5ebb70002007800b6ebb700050078004d
:1041cc00bcebb7000480fb0000000600889fbe001b
:1041dc008a1f7800ce2bef000045eb00be2bef00c2
:1041ec00d862a80000642000d05d88008000eb003d
:1041fc008100e80010642000808f5000fcff3a0022
:10420c00dc62a900d862a9000000e900d05d88003a
:10421c008000eb008100e80010642000808f5000cb
:10422c00fcff3a000000e900d862a800d05d8800cd
:10423c00000178008000eb0004003700dac2bf00f8
:10424c008100e8000038a300610032000201e9009f
:10425c0000642000808f5000f8ff3a00d25d880087
:10426c0081bc2000be0be2006f00320000c82000b1
:10427c00d05d88008000eb008100e80010c82000b1
:10428c00808f5000fcff3a00baabef00bc6bef0024
:10429c0010c0b300b6ebb700804178000042eb00d1
:1042ac0031c3b30001c0610015c0b300a2012000ee
:1042bc0002003a0080427800020e2000dc62a90065
:1042cc00d862a9000000eb000200370000000000db
:1042dc000000e800820f5000fcff3900d862a800f3
:1042ec0000102000020050008000eb00020037009c
:1042fc00000000008100e800808f5000fcff3900b6
:10430c0083c04100814178000442e800e74f52002d
:10431c00e3ff3600c25d88008002fd00b7ebb700fa
:10432c008002fd008000fd00b6ebb7008000fd00b0
:10433c000002fd00bcebb7000002fd00d05d880060
:10434c00d02bef008000eb00000000008100e800a3
:10435c00f00f2000808f5000fbff3600815e88003c
:10436c000004eb00e9bc20006cff070080407800e3
:10437c00bdebb70000bc2000017478000840e900d8
:10438c00e54f500001003e00814c78000804e80025
:10439c008904e900e80f5400f3ff3a0001bc200047
:1043ac0091407800e1cf50000d00320010c8b300ee
:1043bc0080cf50000a00320081bc200080d8eb0076
:1043cc00e0bc2000808f5000fcff3a001400370046
:1043dc00d25d880010002000f05d8800a0ff37003f
:1043ec00b46bef000041eb0071c0b30000bc2000c7
:1043fc0033ff0700b4ebb70071bc2000914078008c
:10440c000104e1000c00320081bc2000e0ceb300be
:10441c0080587800e0bc2000808f5000fbff3a00f1
:10442c00be2bef00040037008058eb00e0bc2000ee
:10443c00808f5000fcff3a00f05d8000705e8800b9
:10444c000a45e8000000e00002003a00e34f550086
:10445c0062ff3a004f0578004f04be0000000600d2
:10446c005aff3700000178008000eb0080bc200070
:10447c0060f178008100e800e68f5000fbff3a0005
:04448c000000060026
:020000040000fa
:1044900030c0b30018edb70000000600881f780098
:1044a000000478008103780082017800a001800078
:1044b0000043780000002000a00188006022b800be
:1044c0000b0037004819de000400440010c06900ea
:1044d0000080fb0000004000014a28006080780056
:1044e000800169000060fe0061024200e0824a0033
:1044f0006138b800800f5200818f5a00f1ff3900f7
:104500000680fb00a0018800030078004f047800bb
:10451000000006000200fa00881f780002047800fc
:104520000001eb00ddff0700e0bf9f006481570042
:104530002100200008007800b01f020000000000e9
:104540004f0478000080fa00000006009624020064
:10455000000000000001be00f0ff2f00f10f20005e
:104560000000690081806900010070000000cf0038
:104570000000ea004f00de006200100000000600ac
:10458000881f780040c8bf00e14f500011003a007a
:10459000136def003e68ef00c8bd200000c0eb00c7
:1045a000984f100016003a00184de20004003a003f
:1045b00020c0220001002000e4ff070018edb70032
:1045c00080c0eb0098cf10000d003a00dc6bef00cc
:1045d0000b003700e54f500009003a00136def0063
:1045e0003e68ef00c0bd200080c0eb0090cf1000ff
:1045f00003003a00dc6bef0010c0b30018edb70009
:104600004f047800000006002021ef001ca1ef00fd
:104610008780a9009780a90083e0a900042c0400ea
:10462000000000000000060083e0a800103a8000af
:10463000f00bb200630420007205200021742000fa
:10464000834878008248780080487800a6c6bf007a
:1046500001ccb30001406000a040b300a6e6b70063
:10466000a3c6bf00014060003040b300a3e6b7001e
:10467000acc6bf0001406000a041b300ace6b7008b
:10468000d1c6bf00014060005040b300d1e6b70082
:10469000ccc6bf0001406000c041b300cce6b7000b
:1046a000d5c6bf0001406000b040b300d5e6b700fa
:1046b000d3c6bf0001406000a040b300d3e6b700fe
:1046c000103a80000060a000217420008348780028
:1046d0008248780080487800ce2502000000000063
:1046e000ac08020000000000de1a0200000000001a
:1046f00004260200000000006c1e02000000000002
:104700004668ef0010c0b30040e8b700d8ebb70030
:10471000186def00ec02a800e802a900dcebb7007e
:1047200010002000807f8800907f88003028ef00f4
:104730000060fe0092ff0700ec0f02000000000086
:10474000141b0200000000009a2502000000000077
:1047500080d1200011c0b30090cf1000f4ff3a00c8
:08476000a9ff0700000005009d
:020000040000fa
:104768000000060000000600c0ccbf007f406000cb
:10477800e14f500059003a0042cc20001241780025
:104788000204e00055003a00c1ccbf00e64f5000db
:1047980025003a0031cc2000914078007c40400050
:1047a80080cf5000100032000040e80080cf500059
:1047b8001b00320000c0e90080cf50001a003a0008
:1047c80060c3200011c0b30090cf100016003a005b
:1047d8006083280031ecb7004800de0032ecb700f7
:1047e80090c0b3000900370060c3200011c0b300b7
:1047f80090cf10000c003a00807a280031ecb70006
:104808004800de0032ecb700d0c1b30034ecb7008a
:104818000200780035ecb70000ccb3000100370087
:1048280000c8b30033ecb700c0ccbf000046b200ec
:1048380001c2b300814f500028003a00c1ccbf002c
:10484800e34f50001700320003003e00e24f5000d3
:1048580022003a0005003700ea4f50000c003200f1
:10486800eb4f50001d003a001800370090bf2000a1
:1048780031ecb7004800de0032ecb70010c0b300de
:1048880034ecb700356cef0010ccb3000d003700e6
:1048980000c8b30033ecb700c3ccbf00f9ebb700d6
:1048a8000000060080bf200031ecb7004800de00a1
:1048b80032ecb70010c0b30034ecb700356cef0031
:1048c80010c8b30033ecb7000000060000c8b300fe
:1048d80033ecb700c2ccbf00f8ebb700000006000d
:020000040000fa
:1048e80034002400043b8800910188000208bb00c2
:1048f8000388bb001000fc0050052000303b8800f6
:10490800a00a2000303b880061e7a80000000000f2
:10491800000000006147e200feff350061c7a90002
:10492800000006000400fa00e0bf9f00f1bf9f00ee
:10493800910180007fb89700900188006fb89700b8
:104948009081ba001001ba00910188000200be00ef
:104958000080fa0000000600881f78000003be00ef
:104968008202780030002400003b88000002eb003f
:104978001200370004004300e0804b0091018800da
:104988001308bb00130190000288bb000482e800f2
:104998001000fc0058052000383b8800a80a2000b9
:1049a800383b880061e7a800000000000000000014
:1049b8006147e200feff3500e4814100850f5200a7
:1049c800ecff390061c7a9004f0478000000060019
:1049d8000080fb00010020004a09dd00c601de005e
:1049e800830171004a01dd0020042400003b880097
:1049f8000380fb00900188000080eb000009bb00e9
:104a08001000fc0050052000303b8800a00a200060
:104a1800303b880061e7a8000000000000000000ab
:0c4a28006147e200feff350000000600c0
:020000040000fa
:104a3400c80c00005000000000000000ee0b000055
:104a44000600000002000000010000000000000059
:104a5400800900001c01000000000000fc0b0000a5
:104a64000200000002000000ec0f0000fe0b00003a
:104a74000200000000000000f40b0000040000002d
:104a840002000000fe2b0000000000001a0d0000d0
:104a94000400000000000000180d000002000000e7
:104aa4000200000001000000000800008001000076
:104ab40000000000f00f00000400000002000000ed
:104ac40000000000000000009c0a00001801000023
:104ad40000000000b40b00001e00000000000000f5
:104ae400f40f00000c00000002000000640002004b
:104af40000c8000002000a0000000000d20b000001
:104b04001c00000000000000100c0000b8000000b1
:104b140000000000000c0000100000000000000075
:104b2400f80b00000400000000000000000000007a
:020000040000fa
:104b34009780a900925e8000625f88009780a80039
:104b440041bd200043ff200020c0b300914f10005e
:104b540005003a001100900000005100930f50002e
:104b64000100390080c8eb0010c0b300914f100061
:104b740003003a009200980020c0b30080487800f7
:104b8400e48040008381e800c0be2000808f500094
:104b9400edff3a0000000600000120000009880033
:104ba40000e22400e008880087c0a9009780a800dc
:104bb400000028002021b700d22bef0000000600df
:104bc40000a0fe003400f800881f780008c0b3007d
:104bd400a80188004f04780097c0bf000048a300d4
:104be4000500320087c0bf000048a3000200320065
:104bf4008780a900d22bec003400f9000080fe006d
:044c04000040060066
:020000040000fa
:104c08008000eb0001138800d001200010138800f9
:104c180062a2a800211388006342a9006302a900c8
:104c280062c2a8006322a8009820a9008820a900d1
:104c380061e2a80000000600000178008040eb0057
:104c480060c2bf000018a30002003a0042138800a7
:104c5800000005008140e80000c8b30080cf500084
:104c6800f7ff3a00100005008040eb0060c2bf006b
:104c78000008a30001003200000005008140e800a0
:104c880000c8b30080cf5000f8ff3a0020000500ac
:020000040000fa
:044c98000000fe001a
:00000001FF
