:020000040000fa
:080000000004040000000000f0
:020000040000fa
:100800000fe12000c0fe2000000188000000000071
:100810000a00070011000700000020000000e000af
:10082000020032000000020000000000ce2402009e
:10083000000000000040da000000fe004440a90073
:10084000007920000000e0000300320000002000da
:10085000a00188004440a80000000600c06e2200ed
:10086000010020001600370062004000e0804800d0
:10087000910188009001ba0062004000e0804800c9
:10088000910188009002ba0062004000e0804800b8
:100890000002eb006028e10005003a008301e90056
:1008a00007003300038009000059eb000400370003
:1008b0006128e100010032000082eb000500070022
:1008c000910188001001ba000200e000e6ff3a0042
:1008d000000005009101880080027800620040005d
:1008e000e08048003559ba008301e9000800320071
:1008f0002559ba008301e900050032000400e00038
:10090000f4ff320015d9ba008301e900f1ff3a0083
:1009100000000600da1b0400000000005e1f040057
:10092000000000008001eb000200370081717800b8
:100930008301e800828f5100fcff3a0000000600ae
:020000040000fa
:020000040005f5
:0457f400ffff0000b3
:020000040000fa
:020000040005f5
:0457f800ae130000ec
:020000040000fa
:020000040005f5
:0457fc00771e000014
:020000040000fa
:1000080016280000162800001628000016280000f0
:1000180016280000162800001628000016280000e0
:1000280016280000162800001628000016280000d0
:100038001628000016280000162800001e2c0000b4
:1000480016280000162800001628000016280000b0
:1000580016280000162800001628000016280000a0
:100068001628000016280000162800001628000090
:100078001628000016280000162800001628000080
:100088001628000016280000162800001628000070
:100098001628000016280000502c00005a2c0000da
:1000a8001628000016280000162800001628000050
:1000b8001628000016280000162800001628000040
:1000c8001628000016280000162800001628000030
:1000d8001628000016280000162800001628000020
:1000e8001628000016280000162800001628000010
:1000f8001628000016280000162800001628000000
:1001080016280000162800001628000016280000ef
:1001180016280000162800001628000016280000df
:1001280016280000162800001628000016280000cf
:1001380016280000162800001628000016280000bf
:1001480016280000162800001628000016280000af
:10015800162800001628000016280000162800009f
:1001680016280000162800006e2c0000782c0000cd
:10017800162800001628000016280000162800007f
:10018800162800001628000016280000162800006f
:10019800162800001628000016280000162800005f
:1001a800162800001628000016280000162800004f
:1001b800162800001628000016280000162800003f
:1001c800162800001628000016280000162800002f
:1001d800162800001628000016280000162800001f
:1001e800162800001628000016280000162800000f
:0801f800162800001628000083
:020000040000fa
:1002080016280000162800001628000016280000ee
:1002180016280000162800001628000016280000de
:1002280016280000162800001628000016280000ce
:1002380016280000162800001628000016280000be
:1002480016280000162800001628000016280000ae
:10025800162800001628000016280000162800009e
:10026800162800001628000016280000162800008e
:10027800162800001628000016280000162800007e
:10028800162800001628000016280000162800006e
:10029800ac270000162800001628000016280000c9
:1002a800162800001628000016280000162800004e
:1002b800162800001628000016280000162800003e
:1002c800162800001628000016280000162800002e
:1002d800162800001628000016280000162800001e
:1002e800162800001628000016280000162800000e
:1002f80016280000162800001628000016280000fe
:1003080016280000162800001628000016280000ed
:1003180016280000162800001628000016280000dd
:1003280016280000162800001628000016280000cd
:1003380016280000162800001628000016280000bd
:1003480016280000162800001628000016280000ad
:10035800162800001628000016280000162800009d
:100368001628000016280000841900003a19000019
:10037800162800001628000016280000162800007d
:10038800162800001628000016280000162800006d
:10039800162800001628000016280000162800005d
:1003a800162800001628000016280000162800004d
:1003b800162800001628000016280000162800003d
:1003c800162800001628000016280000162800002d
:1003d800162800001628000016280000162800001d
:1003e800162800001628000016280000162800000d
:0803f800162800001628000081
:020000040000fa
:0857f8000200000001000000a6
:020000040000fa
:1009400000000000c1c0000081c1000040010000a3
:1009500001c30000c00300008002000041c200008b
:1009600001c60000c00600008007000041c700006b
:1009700000050000c1c5000081c400004004000063
:1009800001cc0000c00c0000800d000041cd000033
:10099000000f0000c1cf000081ce0000400e00001b
:1009a000000a0000c1ca000081cb0000400b00001b
:1009b00001c90000c00900008008000041c8000013
:1009c00001d80000c01800008019000041d90000c3
:1009d000001b0000c1db000081da0000401a0000ab
:1009e000001e0000c1de000081df0000401f00008b
:1009f00001dd0000c01d0000801c000041dc000083
:100a000000140000c1d4000081d500004015000092
:100a100001d70000c01700008016000041d600007a
:100a200001d20000c01200008013000041d300007a
:100a300000110000c1d1000081d000004010000072
:100a400001f00000c03000008031000041f10000e2
:100a500000330000c1f3000081f2000040320000ca
:100a600000360000c1f6000081f7000040370000aa
:100a700001f50000c03500008034000041f40000a2
:100a8000003c0000c1fc000081fd0000403d000072
:100a900001ff0000c03f0000803e000041fe00005a
:100aa00001fa0000c03a0000803b000041fb00005a
:100ab00000390000c1f9000081f800004038000052
:100ac00000280000c1e8000081e900004029000082
:100ad00001eb0000c02b0000802a000041ea00006a
:100ae00001ee0000c02e0000802f000041ef00004a
:100af000002d0000c1ed000081ec0000402c000042
:100b000001e40000c02400008025000041e5000051
:100b100000270000c1e7000081e600004026000039
:100b200000220000c1e2000081e300004023000039
:100b300001e10000c02100008020000041e0000031
:100b400001a00000c06000008061000041a1000021
:100b500000630000c1a3000081a200004062000009
:100b600000660000c1a6000081a7000040670000e9
:100b700001a50000c06500008064000041a40000e1
:100b8000006c0000c1ac000081ad0000406d0000b1
:100b900001af0000c06f0000806e000041ae000099
:100ba00001aa0000c06a0000806b000041ab000099
:100bb00000690000c1a9000081a800004068000091
:100bc00000780000c1b8000081b900004079000041
:100bd00001bb0000c07b0000807a000041ba000029
:100be00001be0000c07e0000807f000041bf000009
:100bf000007d0000c1bd000081bc0000407c000001
:100c000001b40000c07400008075000041b5000010
:100c100000770000c1b7000081b6000040760000f8
:100c200000720000c1b2000081b3000040730000f8
:100c300001b10000c07100008070000041b00000f0
:100c400000500000c1900000819100004051000060
:100c500001930000c0530000805200004192000048
:100c600001960000c0560000805700004197000028
:100c700000550000c1950000819400004054000020
:100c8000019c0000c05c0000805d0000419d0000f0
:100c9000005f0000c19f0000819e0000405e0000d8
:100ca000005a0000c19a0000819b0000405b0000d8
:100cb00001990000c05900008058000041980000d0
:100cc00001880000c0480000804900004189000000
:100cd000004b0000c18b0000818a0000404a0000e8
:100ce000004e0000c18e0000818f0000404f0000c8
:100cf000018d0000c04d0000804c0000418c0000c0
:100d000000440000c18400008185000040450000cf
:100d100001870000c04700008046000041860000b7
:100d200001820000c04200008043000041830000b7
:100d300000410000c18100008180000040400000af
:100d4000005e0000bce20000613f0000dd830000a7
:100d5000c29c00007e200000a3fd00001f41000097
:100d60009dc30000217f0000fca20000401e000087
:100d70005f010000e3bd00003e60000082dc000077
:100d8000237d00009fc10000421c0000fea0000067
:100d9000e1bf00005d03000080de00003c62000057
:100da000bee00000025c0000df810000633d000047
:100db0007c220000c09e00001d430000a1ff000037
:100dc00046180000faa40000277900009bc5000027
:100dd00084da000038660000e5bb00005907000017
:100de000db85000067390000bae400000658000007
:100df00019470000a5fb000078260000c49a0000f7
:100e0000653b0000d9870000045a0000b8e60000e6
:100e1000a7f900001b450000c69800007a240000d6
:100e2000f8a60000441a000099c70000257b0000c6
:100e30003a64000086d800005b050000e7b90000b6
:100e40008cd20000306e0000edb30000510f0000a6
:100e50004e100000f2ac00002f71000093cd000096
:100e6000114f0000adf30000702e0000cc92000086
:100e7000d38d00006f310000b2ec00000e50000076
:100e8000aff10000134d0000ce900000722c000066
:100e90006d330000d18f00000c520000b0ee000056
:100ea000326c00008ed00000530d0000efb1000046
:100eb000f0ae00004c12000091cf00002d73000036
:100ec000ca94000076280000abf500001749000026
:100ed00008560000b4ea000069370000d58b000016
:100ee00057090000ebb50000366800008ad4000006
:100ef00095cb000029770000f4aa000048160000f6
:100f0000e9b70000550b000088d60000346a0000e5
:100f10002b75000097c900004a140000f6a80000d5
:100f2000742a0000c8960000154b0000a9f70000c5
:100f3000b6e800000a540000d78900006b350000b5
:100f400020880000ec870000c6870000248800008d
:100f500006000000ff09000001a1000001190000c7
:100f6000012900004015000000260000ff000000dd
:100f70007508000095400000810200001901000082
:100f80002940000091020000c0000000260300007c
:100f90005500000053000000420000002000000047
:100fa000480000004900000044000000200000004c
:100fb000420000006f0000006f000000740000009d
:100fc0006c0000006f000000610000006400000081
:100fd0006500000072000000340300004d000000b6
:100fe0006900000063000000720000006f00000054
:100ff000630000006800000069000000700000004d
:1010000020000000540000006500000063000000a4
:10101000680000006e0000006f0000006c0000001f
:101020006f00000067000000790000002000000051
:10103000490000006e000000630000002e00000068
:101040000403000009040000090200002900000058
:101050000101000000c0000032090000040000008f
:101060000002000003000000000000000921000051
:101070001101000000010000221d00000007000017
:10108000058100000340000000010000070500008a
:1010900001030000400000000100000012010000f8
:1010a000100100000000000000080000d80400004b
:1010b0009be80000020000000102000000010000a7
:1010c000821400002a5d00006f9a000025010000d4
:020000040000fa
:1010d0000000eb00106c8800006c880012002000fb
:1010e000f26b880091cab3008000fd004ceab700a3
:1010f0008000fd000001fd0000eab7000001fd00d6
:1011000029e8b70002aaef0004aaef0006eab70038
:10111000000006002ca3ef003c16020000000000b7
:10112000ebff3700f809e20002003a0000712200ec
:10113000c04f8800f829ed0088c4bf0000000600f9
:1011400020c0b30029e8b700100020003045880017
:101150000000060000000600000006000000060077
:10116000000006008a2504000000000000000600c0
:10117000d1c1b30010c0b300b615020000000000da
:1011800003c4b30022a520008040eb0010c0b300d0
:101190000e16020000000000106c8800000006001f
:1011a0009444a80080702000d04f88008000eb009d
:1011b0008100e80080702000808f5000fcff3a0022
:1011c000fa29ef009444a90000000600881f780067
:1011d00020c0b30084edb700b8c0b30006003700ec
:1011e00008407800be26020000000000cc16020075
:1011f000000000000844e8004ccabf000044e100c1
:10120000f7ff3600004ae2000c003a008000eb00d5
:10121000910188000080eb008008bb000c00fc00fe
:1012200058052000383b8800a80a2000383b880079
:1012300061e7a800000000000000000061c7a900ed
:101240002968ef004f0478000000060020c0b300ba
:1012500029e8b70060c0b300b8e8b7000040eb0071
:101260002dedb700b6e8b7009c28ef0050c1b300e1
:10127000dc1f04000000000020c0b30029e8b70014
:10128000f00f20008045880090458800a045880028
:1012900010002000404588004cedb70090c0b3001e
:1012a000dc1f040000000000e0c0b300dc1f0200ef
:1012b0000000000010c0b30048edb7002fedb700ec
:1012c00020c0b30029e8b7000000060070c0b300da
:1012d00092eab70031ad2000914078008180fb0098
:1012e000d4cabf004800dd000101700051ad2000ec
:1012f000914078008180fb00d6cabf004800dd0025
:1013000081017000f10f200081026100050078006a
:1013100093eab7004812de000400780094eab700b0
:10132000818061000100780095eab7004819de006d
:101330000200780096eab700d7cabf0097eab70064
:10134000f3ecb70005007800e7ecb7000400780084
:10135000e8ecb70001007800e9ecb7000200780083
:10136000eaecb700d0c0b300dc1f020000000000b0
:1013700020c0b30029e8b7000000060002aaef0071
:1013800004aaef00f1ce2000914078008180fb009c
:10139000f0ccbf004800dd00010070000000e80054
:1013a000efecb7004800de00f0ecb70031ad2000f4
:1013b000914078008180fb00d4cabf004800dd0066
:1013c0000101700051ad2000914078008180fb0048
:1013d000d6cabf004800dd0081017000020078001d
:1013e000e7ecb7004810de00e8ecb7000300780037
:1013f000e9ecb7004818de00eaecb70073ad200056
:101400009341780003007800f3ecb7008380fb0081
:10141000800320000100500022002000110009007c
:101420000200d800800278000002eb000f003700b5
:101430000180fb000001400041cf2000010141007c
:101440000080420000004000a1ad200001004000eb
:101450009080fb00104090004800dd00010070000b
:10146000004978004800de00104198008440780070
:101470000402e8000380fb000000d10080cf500090
:10148000ebff3900a0c0b300dc1f02000000000029
:1014900020c0b30029e8b70000000600889fbe0006
:1014a0001050800021508000e10f4000e08f480084
:1014b0000e003a0031ad2000914078008180fb00a1
:1014c000d4cabf004800dd000101700051ad20000a
:1014d000914078008180fb00d6cabf004800dd0043
:1014e000810170001250880023508800165080003f
:1014f0002750800031ad2000914078008180fb00b2
:10150000d4cabf004800dd000101700051ad2000c9
:10151000914078008180fb00d6cabf004800dd0002
:1015200081017000820f5300838f5b0043003a00fb
:10153000f1ce2000914078008180fb00f0ccbf000c
:101540004800dd00010070000000e800efecb7008b
:101550004800de00f0ecb70006007800e7ecb700ca
:101560004830de00e8ecb70007007800e9ecb7008f
:101570004838de00eaecb70073ad200093417800f4
:1015800003007800f3ecb7008380fb0080032000a9
:101590000100500022002000110009000200d800c4
:1015a0008004780068a02000184478000602be007d
:1015b000110037000180fb000001400041cf2000f6
:1015c000010141000080440000004000a1ad200066
:1015d000010040009080fb00104090004800dd00ba
:1015e00001007000004978004800de0010419800ba
:1015f00061024200e0824a00864052000380fb0004
:101600000000d10080cf5000eaff390006405400ae
:101610000440400006eab7001450880025508800b6
:1016200000c1b300dc1f02000000000020c0b300b6
:1016300029e8b700066aef00010037002968ef00cb
:101640004f04be00000006000040eb00efecb700c6
:10165000f0ecb700f0c0b300dc1f02000000000097
:1016600020c0b30029e8b7000000060064a02000f5
:10167000144278000481fb000482fb000500200076
:1016800010508000215080000400500085805800d8
:1016900083a0200082260200000000000040eb0032
:1016a00006eab70002aaef0004aaef0029e8b70093
:1016b00000000600881f7800105080002150800034
:1016c000e10f4000e08f48000e003a0031ad2000ed
:1016d000914078008180fb00d4cabf004800dd0043
:1016e0000101700051ad2000914078008180fb0025
:1016f000d6cabf004800dd0081017000125088008a
:101700002350880031ad2000914078008180fb009b
:10171000d4cabf004800dd000101700051ad2000b7
:10172000914078008180fb00d6cabf004800dd00f0
:10173000810170000004eb001050800021508000f7
:10174000820f5000838f5800280032002d00370090
:1017500064a02000144278008481fb0086a0200051
:1017600083814100800320000100500022002000fe
:10177000110009000200d8008580fb000100400034
:1017800000004000a1ad2000010040009080fb005f
:10179000104090004800dd000100700080317b00a7
:1017a0000442e8000400780006eab7001050800008
:1017b0002150800061014000e08148001250880003
:1017c00023508800fc4f520007003a007b00500075
:1017d000e080580086017800c201200082260200c5
:1017e00000000000066aef000804e8008842780064
:1017f000d7cabf008080fb000100d100804f540099
:10180000d3ff39002968ef004f047800000006007c
:10181000881f7800006c80000000e00003003200a8
:10182000104090000004e0005300350070c0b30089
:1018300092eab70031ad2000914078008180fb0032
:10184000d4cabf004800dd000101700051ad200086
:10185000914078008180fb00d6cabf004800dd00bf
:10186000810170000200780093eab7004810de00a2
:1018700094eab7000300780095eab7004818de0044
:1018800096eab700d7cabf0097eab7000044eb005a
:101890002c0037004e2aef00502aef0033ad200015
:1018a000934178008381fb0042ad20001241780013
:1018b0004811dd000300710053ad20009341780012
:1018c0008381fb0062ad2000124178004811dd00e9
:1018d000830071000881fb0003002000000041002c
:1018e00081804900682602000000000070528800d4
:1018f000815288000881fb00d7cabf000080fb002e
:101900000000d100000151000201410021ad200082
:101910008100410070528000804878004800de005d
:1019200090409800516aef0040ad20000001410056
:1019300080528000004978004800de001041980085
:1019400008c4e800d7cabf000080fb000000d10037
:10195000804f5400cfff390003c4b30022a92000f8
:1019600011c0b300014078000e1602000000000014
:10197000006c88002968ef004f0478000000060022
:1019800040c0220001002000682602000000000084
:10199000f2ff2f00f30f2000820f5000838f5800ba
:1019a000070032009424ef000080eb0000000000ec
:1019b0000000e900fdff3a00bc2402000000000026
:1019c000000006002968ef0040c02200010020004e
:1019d000022402000000000080407800e14f500027
:1019e00004003a0050c0b300b8e8b7000100780026
:1019f0003cedb70000000600918220009140780085
:101a00000104e0001c003a00106c80000000e000bf
:101a100003003200104090000004e000bc013500db
:101a20008000eb0022a5200020ad200062f07800ad
:101a30008100e80000042000808f5000f9ff3a0088
:101a4000814178008040eb0010c0b3000e16020008
:101a500000000000106c880010c0b30029e8b70037
:101a600021a920008058eb0020ad2000808f50007d
:101a7000a7013200fbff3700e1cf50001a013a0006
:101a80002848e200a2013a00d2cabf00e94f500044
:101a90000c00320005003e00e24f50001000320002
:101aa000e34f5000c1003a00b5003700ea4f500044
:101ab00006003200eb4f5000bc003a00e3fd070087
:101ac000ba0037002e6def00b8003700dbcabf0048
:101ad0002eedb700b6e8b7002a68ef00b300370074
:101ae0000001eb0030ad2000e240780000862800c5
:101af0006240780080cf500007003a000240780032
:101b00000201e800e80f5100f6ff3a0011c0b300ef
:101b1000e74f5000010032008040eb000104e0007c
:101b2000a2003200b4ad2000144278000400780016
:101b30002eedb700e14f420008003a0000802a0075
:101b400040528800200020005052880001c022002e
:101b5000e14f8800fe29ef002200370004007800e2
:101b6000b6e8b7000404e00003003a0010c0b30078
:101b70002be8b7001b003700b0c2b300804f520003
:101b800007003a0002002200e24f8800fe29ef0021
:101b900003f02a00435288004a2aef001100370060
:101ba000c0c2b300804f520008003a0000c02200bb
:101bb000e04f8800fe29ef0001802a004152880092
:101bc00021002000515288000600370002702100d9
:101bd000e24f8800fe29ef00038025004352880071
:101be0004a2aef0021c0b3000100780092eab70052
:101bf00080c3b30093eab7000100780094eab7000d
:101c000015c0b3000500780095eab700e24f8000e8
:101c1000f34f80000200780096eab7004810de001b
:101c200097eab7000300780098eab7004818de008a
:101c300099eab700405280005152800002005000e3
:101c4000838058009aeab7004801de00020078005d
:101c50009beab700010078009ceab7004808de0064
:101c60009deab7009eeaef00e14f420009003a000a
:101c7000050078009feab700aec8bf00a0eab70031
:101c8000aac8bf00a2eab700acc8bf00a1eab7006b
:101c9000080037000404e0000600320010002000b5
:101ca000204188002628ef00050078002ae8b700c8
:101cb0003e003700004ae20023003a0011c0b300a2
:101cc000010078009eeab700a36aef00a46aef0063
:101cd000a56aef00a66aef00a76aef0040c0b30054
:101ce000a8eab700a96aef00aa6aef0030c0b30003
:101cf000abeab70080cfb300aceab700b0cab3001c
:101d0000adeab70020c0b300aeeab700af6aef009b
:101d100080c0b300b0eab700b16aef00b26aef006a
:101d2000b36aef00b4eaef00010078009feab70061
:101d3000aac8bf00a2eab700acc8bf00a1eab700ba
:101d4000aec8bf00a0eab700006c80000000e00051
:101d500003003200104090000004e0001300350042
:101d600003c4b30022a9200011c0b30001407800d1
:101d70000e16020000000000006c88000a00370008
:101d8000d34ae20004003a00a0cab3004ceab7000c
:101d9000006aef000400370090cab3004ceab700b5
:101da0000100780000eab7002968ef00e1d22000c6
:101db00091407800d2cabf00e1cf400017003a003e
:101dc000e64f50001200320005003e00e44f500084
:101dd0000d003200e54f5000cd003a000b003700f7
:101de000e84f50000c0032000a003900ea4f500062
:101df000c7003a0020c0b30029e8b7001000200057
:101e00003045880000000600f0fc370029fe37004e
:101e100016fe37007efe3700d9fe3700e64f500031
:101e20002e00320006003e00e44f50001100320048
:101e300029003e00e24f5000b5003a00080037008c
:101e4000e84f50002700320025003900e94f5000cc
:101e500006003200ea4f5000ad003a00040037009f
:101e60000104e000aa00320001003700d5fe37006f
:101e700001fd3700618b200091407800b0c2b300b3
:101e800080cf500003003a00e36cef006b4050003d
:101e900009003700c0c2b30080cf500004003a00f0
:101ea000e36cef0001007800e4ecb70003003700ba
:101eb000e36cef0070c1b300e4ecb700e56cef0039
:101ec000e66cef0000c1b300ebecb70077404000d8
:101ed000ececb700dcfd370070fd370027fd370064
:101ee000fafc3700f0fc37002848e20088003a008e
:101ef00021ce200091407800f1cf500003003a003d
:101f0000274ce2000e0032007d003700f4cf500075
:101f10000b003a002a48e20009003a00274ce20090
:101f200007003200b0c8bf0094eab700b2c8bf00d3
:101f300093eab700b4c8bf0092eab700690037005f
:101f400030458000e10f500011003a00a628ef0054
:101f5000801f7800aec8bf0092eab7004f0078003b
:101f6000801f7800aac8bf0093eab7004f0078002e
:101f7000801f7800acc8bf0094eab7004f0078001b
:101f800003c4b30022a92000804078005900370024
:101f9000f3cf500012003a00274ce200100032004c
:101fa0000002eb0043cf2000a2a920009380fb0099
:101fb000134090004800dd000100700000497800e7
:101fc0004800de00104198000402e8000281e800a9
:101fd0008381e800fc0f5200f4ff3a004100370013
:101fe00000d3200012c0b300904f110006003a0049
:101ff0009424ef000080eb00000000000000e900e6
:10200000fdff3a000a00370020ad2000b3c0b30046
:1020100090cf110008003a00e0448000e10f50002a
:1020200005003a00b8e8b7002968ef009c28ef00e7
:102030000000fe0034003700f4cf500032003a00b8
:10204000a082200011c0b30090cf10002e003a00f3
:10205000274ce2002c003200864580009545800028
:10206000a44580004829dd00020143006120b8003a
:10207000c000dd000000200002014000e0814800b7
:102080001245880023458800e00f5100e08f590079
:102090000d003200f0ff2f00f10f2000800f5100e3
:1020a000818f590008003200f04480000145800013
:1020b000800f5100818f59000300360010c0b3001b
:1020c0009feab700010037009f6aef000600780022
:1020d000a2eab70005007800a1eab7000400780082
:1020e000a0eab70003c4b30022a9200011c0b300c6
:1020f000014078000e16020000000000006c88000d
:102100002968ef00276cef00cc16020000000000e9
:102110000000060011c520009140780000c2b30005
:1021200080cf500005003a0020c0b300b8e8b700e7
:1021300010c0b300b9e8b7000500370010c0b30005
:10214000b8e8b700b968ef00ffcf500006003600ce
:1021500088c4bf000018a30003003a0026fe070051
:10216000cc1602000000000000000600881f780066
:10217000b848ed00e14f500008003e00a801800083
:1021800000002000a0018800cc1602000000000022
:102190000884fb00a8018800deff07004f047800d8
:0421a0000000060035
:020000040000fa
:1021a4008180fb00120020000111dd00024878004c
:1021b40000000600d0618000904178000381fb009c
:1021c40071c42000914078008180fb0048ccbf009e
:1021d4004800dd0001007000800f5100020036004d
:1021e40080417800040037000200500047ecb7003b
:1021f4004800de0048ecb7000002eb000d00370099
:1022040041c42000914078008180fb0045ccbf0090
:102214004800dd00010070000281fb0021cd200098
:1022240062d8780044ecb7004800de0045ecb70003
:102234000402e80004417800834f5200f0ff3900a3
:10224400c261800071c42000914078008180fb004d
:1022540048ccbf004800dd00010070000e003200d1
:1022640080c0b30000497800c161800020cd200007
:1022740090009800d0618000104090000068a30096
:1022840002003a0080ccb3000100370080c8b300dc
:102294009040980000000600a0cd20001001980096
:1022a40091c42000914078008180fb004accbf009b
:1022b4004800dd0001007000010032000000010050
:1022c40046eca9000000060020c3200021c0b30092
:1022d40090cf10001a003a0094c4bf000058a30025
:1022e40017003200d061800081c0b30090cf10008d
:1022f40013003a0010409000c043b20041c3b30041
:10230400814f50000e003a00c161800011409000de
:102314000004e0000a003500a0cd200090009800e1
:102324000001eb0021cd2000a0cd200061707900d8
:102334000201e800e80f510010003200f9ff3700f5
:102344000041eb000200780032ecb70081c0b3001a
:10235400c061800001487800c1618000a0cd2000e8
:1023640090009800c0c8b3009040980000628000bc
:10237400124098000062800012409800464ce2002f
:1023840009003d0091c42000914078008180fb0049
:102394004accbf004800dd0001007000010032009b
:1023a4000000010046eca9000000060020c3200044
:1023b40021c0b30090cf100001003a007dff370028
:1023c400c1ff3700e1c42000914078008180fb0008
:1023d4004fccbf004800dd000100700085002000e4
:1023e400e70f500009003e008002780033ccbf00a4
:1023f40002003a0010c0b30003003700e14f500060
:1024040002003a0020c0b30033ecb700026280003f
:1024140012409000c828de0001407000104198006e
:102424000062800005487800e1c4200091407800f3
:102434008180fb004fccbf004800dd00010070002c
:10244400050050004eecb7004800de004fecb7002a
:1024540020cd2000806188000002eb008001eb00a9
:102464004d0cab000e0032001d003700826180006d
:10247400b1c42000914078008180fb004cccbf00a7
:102484004800dd0001007000305978008261880046
:102494004becb7004800de004cecb7008301e800c9
:1024a400858f5100f1ff3a00000006008261800030
:1024b400b1c42000914078008180fb004cccbf0067
:1024c4004800dd0001007000305978008261880006
:1024d4004becb7004800de004cecb7000402e80007
:1024e400850f5200f1ff3a0000000600881f7800b3
:1024f40094a4a90061c420009140780008c8b300e6
:102504004dccbf000841600011003a000104e00016
:1025140005003d0020c0b30032ecb700006280002b
:10252400024878004000370081c0b300c0618000d9
:1025340001487800c1618000a0cd2000900098007f
:10254400c0c8b3009040980041c8b3002f003700c2
:102554000104e0003e003500daccbf008840600092
:102564002d003200e0ccbf000080fb0012ce200022
:10257400124178004811dd0000017100e1c420001f
:10258400914078008180fb004fccbf004800dd0003
:1025940001007000800f51000900310001ce2000bd
:1025a400914078008180fb00e1ccbf004800dd0051
:1025b400010070004eecb7004800de004fecb7009d
:1025c40080ff070010c0b30032ecb70082c0b30034
:1025d400c061800002487800c0618000a1cd200065
:1025e4001100980018409800d061800002487800db
:1025f400d0618000110098001840980021cd20007f
:10260400006280001100980081ccb3000062800059
:10261400114098000e00370020c0b30032ecb70020
:10262400006280000148780082ccb3000062800020
:102634001240980081c0b300c06180000148780056
:10264400c161800020cd2000900098009240980045
:102654004f04780000000600881f780000628000a4
:10266400104090004600de006104600010c52000a8
:1026740081c0b30090cf100008003a00dcccbf004a
:102684000080fb00b024880000c1b3009604e2007f
:1026940001003a0040c0b30051ecb70020c3200051
:1026a40011c0b30090cf100013003a0020cd2000d9
:1026b400016280009000980042ff070030c32000b0
:1026c40021c0b30090cf100004003a0041c8b30009
:1026d4000062800011409800080037000162800009
:1026e40080ccb3000804e0000100320080c8b300cd
:1026f4009040980001003700f3fe07004f04780073
:1027040000000600a1cd20009140780000c8b3006d
:1027140080cf500031003a0000ccb3004decb7003c
:10272400ddccbf00e24f50000a003200e34f5000fe
:102734001b003200e14f500027003a00e0842800db
:102744004becb7004800de004cecb70020c1b300ee
:102754001e003700dcccbf000080fb0000004000fe
:10276400617a2800010040009080fb008000fd0099
:102774004becb7008000fd00100078004800de003c
:102784004cecb7004800dd0081007000214090004f
:102794004eecb700314090004fecb700000006004b
:1027a400dcccbf000080fb0000004000017a280060
:1027b400608078004becb700c800de008000fd00ac
:1027c4004cecb7008000fd001080fb004eecb7001d
:1027d4004f6cef00000006004d6cef000000060097
:1027e400d26cef00d36cef00daccbf007f00600046
:1027f400e10f50000b003200e20f50000b003200da
:102804000000e0001b003a004deca800d20ca80028
:10281400f0618000e10f500016003a00d22ca800ad
:10282400140037004deca800120037004deca8004e
:10283400de4ce20005003500deccbf006f00600016
:102844000000400041c3200004003700deccbf007c
:102854006f0060000000400001c420006080780028
:10286400104090000028a3000200320010c0b30002
:10287400d2ecb7004d4ce20007003d0020cd200013
:102884004becb7004800de004cecb7004d0ca80040
:1028940020c0b3004eecb70000000600dcccbf0043
:1028a400e14f50000b003a00daccbf007f406000db
:1028b40008003a004deca800dbccbf00e34f500009
:1028c40003003a0010002000f06188000100370086
:1028d4003e2cef00dc4ce20026003a00daccbf00cc
:1028e4007f406000e24f500022003a00deccbf007f
:1028f4006f4060001f0032004deca800de4ce20087
:1029040005003500deccbf006f0060000000400011
:1029140041c3200004003700deccbf006f0060001c
:102924000000400001c4200060817800dbccbf00bf
:10293400e34f500002003a0040c8b30009003700da
:10294400deccbf006f00600000004000a14a200000
:10295400010040001010a100de4ce20003003d0025
:1029640000c4b300104198000000060080ccb300fe
:1029740010419800000006004deca8003c6cef00ec
:10298400dcccbf0050ecb700dc4ce20003003a00a2
:1029940000c1b30051ecb7000000060000c2b30050
:1029a40051ecb700b808040000000000daccbf0006
:1029b4000046b20033003a00dbccbf000080fb00cd
:1029c40001002000eb0f5000e08f58002d003e0066
:1029d400006001001300370013003700290037009e
:1029e40011003700270037000600370009003700c0
:1029f4002200370009003700070037000b003700ba
:102a0400160037004deca80080c0b30051ecb700ad
:102a1400000006003bff3700d7ff370000c5200049
:102a2400060037006eff37009cff3700deccbf0086
:102a34000080fb00c1c32000010040004becb70044
:102a44004800de004cecb7004d0ca80010c0b300e9
:102a54004eecb7004deca800000006004deca800b9
:102a6400deccbf000080fb00c1c32000c2cd20002b
:102a74001241780002f0780000000600b608020057
:102a84000000000000000600016280001140900078
:102a94000004e00002003d000040eb00904098007c
:102aa400336cef00326cef004e6cef004f6cef00b4
:102ab4004d6cef00bdff0700b208020000000000eb
:102ac4008afe37002eccbf008080fb000100780016
:102ad4000020a1000000e0000c003a00c10fb20089
:102ae40000e0200000804000d0618800c0618800c0
:102af40010409000c043b20041c3b300814f500066
:102b040001003a00e0ff370028fe3700e80f5000cc
:102b140001003a00d0fe0700000006000080fb0020
:102b2400800140000180fb00008041004200dd0084
:102b340002e0200002014000124090000070a10059
:102b44001041980040c320000104e000010032005d
:102b540000c4200082317800124090000060a00080
:102b64001041980000000600889fbe008044780051
:102b74000184fb000080fb0000004000a14a20000b
:102b840008b078000838a300030032008040eb004e
:102b940009407800e1ff07000828a3000300320081
:102ba40011c0b30009407800dcff07004f04be00e9
:102bb400000006000004e0000b003a0081c0b300ee
:102bc400c061800001487800c1618000a0cd200070
:102bd40090009800c0c8b3009040980041c8b3006a
:102be400006280000a0037000080fb000000400003
:102bf4008180fb00010040004200dd0001e0200074
:102c0400010040009040900042c8b30082c07000b0
:102c140011409800000006000080fb000104e00061
:102c2400030032008000400000c42000020037008e
:102c34008000400040c320006102780014409000ee
:102c44000064a2001042980012029800034a78001f
:102c5400144090000044b2001042980014409000c8
:102c640081c8b3000140700010429800040078004d
:102c740000000600f00f2000702488005024880013
:102c8400f009200080248800b00f20006024880010
:102c94008804a80001e020004808de00c024880061
:102ca4009424a8009424a9009624ef000000eb00cb
:102cb4008018eb008018eb000000e800e40f5000df
:102cc400fbff3a00d00020005025880002003700a6
:102cd40080c0b3008ae4b7008ac4bf00e840600043
:102ce400fbff3a008000fd004decb70046ecb70056
:102cf40047ecb70048ecb7008000fd0094a4a9009d
:102d040040e02000006288008000fd0050ecb70025
:102d140051ecb7008000fd0000000600aac4bf000b
:102d24000018a3000d003200d26180009240900090
:102d340000c8b30080cf500007003a000062800052
:102d44009040900040c8b30080cf500002003a0089
:102d54006840400010419800aa24a90000c8b300ac
:102d64008ae4b700000006008284a80000c1b30012
:102d74008ae4b700aa08040000000000ac080200be
:102d8400000000008284a90000c1b30080e4b70001
:102d940000000600881f7800514ce2000c003a0045
:102da4009424ef008c24ef00010037009404a80061
:102db40094c4bf000008a300fcff320010c0b3009d
:102dc40051ecb700a624ef00000120004025880044
:102dd40010c5200011c0b30090cf100007003a00c6
:102de400f00f2000502488008c24ef008c04a800ed
:102df4008c84a80020c0b30051ecb70080c4bf008d
:102e04000048a3000400320082c4bf000048a300ad
:102e140001003200d9ff070088c4bf000018a300d6
:102e240045003a008ac4bf000008a3000e00320027
:102e34008cc4bf000008a3000b0032008dff070004
:102e440040c0b30051ecb700a0cd20001070880042
:102e540080c0b30000eeb70030c0b300016eb6000e
:102e6400c0c8b300016eb7008ac4bf000048a30005
:102e7400060032008cc4bf000048a30003003200e7
:102e8400b9ff070000c1b3008ae4b7008ac4bf00d9
:102e94000028a300070032008cc4bf000028a30050
:102ea40004003200ae0802000000000040c0b3007d
:102eb4008ae4b7008a44e20003003d008c44e20047
:102ec40001003d0095ff07008ac4bf000018a3005d
:102ed400070032008cc4bf000018a30004003200b5
:102ee400b008020000000000f00f200070248800e9
:102ef40010c5200031c0b30090cf10000e00360082
:102f04008cc4bf000038a3000b00320048c0b300db
:102f14008ac4bf000038a300070032009024800058
:102f24002eecb70080c0b3008ae4b700e5fe0700ca
:102f34000844e900f6ff3a004f0478000000060058
:020000040000fa
:102f4400881f780000047800220820008000eb002d
:102f540092040200000000000040eb00604499006d
:102f64004044990030449900204499005044990009
:102f74004f04780000000600881f7800dd62a80076
:102f8400d962a900dd42a900d942a900d5c2a9008d
:102f9400d1c2a90010022000c012880080002000c5
:102fa400801288000004eb009812880051e2a80007
:102fb40053e2a90053a2a8005342a8008e40a900de
:102fc4008e60a9009e40a800a0b92000dcff070085
:102fd40020b12000daff0700a0bd210010618800a5
:102fe400e0f5210020618800080078004cedb7006e
:102ff4004f04780000000600881f780020ccbf0032
:10300400e8406000150032004c6def0040cdbf0079
:1030140003003a0010c0b30040edb70020003700b1
:10302400e14f40001e003a00618b2000914078007f
:10303400a0b920002261800002000100a0b9200094
:10304400bfff0700406def0040458000e10f5000d6
:1030540013003a00a828ef000f003700c0d4200066
:1030640000c1eb00904f11000d003a008000fd00fc
:103074004cedb70040edb7008000fd00a0b9200082
:10308400afff070040458000e10f500004003a0004
:10309400a828ef0027ecb70040c1b300e2ecb7006a
:1030a400b8c8bf00e24f500018003a0040d42000d6
:1030b40021c0b30090cf10002c0032009082200079
:1030c40090cf100029003200b082200012c0b3005b
:1030d400904f110004003200a17f8000a00a20005c
:1030e400808f500021003a00d0d22000e1c1b3000b
:1030f40090cf10001c003e0018c0b30008007800f8
:1031040028e8b700b0c0b30011003700e54f500005
:1031140016003a0040d4200022c0b300904f1100a2
:103124001200320090822000904f11000f003200f4
:10313400d0d22000e1c1b30090cf10000a003e00bd
:1031440018c0b3000800780028e8b700c0c0b30076
:10315400dc1f0200000000002d6dec000800780068
:1031640044edb70001003700446def0020ce20008d
:10317400e2c0b300904f110012003a0080d4200046
:1031840080c0eb0090cf10000e003a00f0d2200077
:1031940052c0b300904f110007003e00e0c0b300de
:1031a400dc1f02000000000010c0b30048edb700af
:1031b4002f6dec0003003700486def0010c0b30022
:1031c40030edb70098cbbf001042b200e14f500081
:1031d40009003a00980ba90020b1200058ff07000d
:1031e400618b20009140780020b1200012618000a2
:1031f40002000100982ba80098cbbf000018a30080
:10320400190032000058a30017003a0020c8b30088
:10321400944be30014003e00d5c2a8008e60a900c0
:103224009e60a80098aba80053c2bf000008a3008a
:103234000b00320051b92000914078000181fb005d
:1032440020b12000624078000080fb00a0128800ba
:103254008140e8000100780095ebb70002003700d8
:1032640051e2a90044ff07004f0478000000060063
:10327400809fbe00821f78009ec0bf000038a3005c
:103284001d0032008ec0bf000038a3001a003200b7
:103294008e60a90052b920001241780094cbbf007f
:1032a4000014e1000d003a00d5c2a9009e60a900f7
:1032b40098aba900982ba900808b200061c0b300b3
:1032c40090cf10000c003a0010c0b300b8e8b7006b
:1032d40010002000e0448800070037008280fb00d3
:1032e40020b12000614078000080fb00a01288001b
:1032f4000240e80095ebb7004f0178004f00be0094
:10330400004006003600f800809fbe00829fbe0089
:10331400849fbe00869fbe00889fbe008a1f7800df
:103324009ec0bf000028a300fe0032008ec0bf0074
:103334000028a300fb0032008e40a90052c2bf0047
:103344000018a300020032005222a900208ca80019
:1033540052c2bf000028a30002003200b012800055
:10336400208ca800b312800083447800208cab002a
:10337400ea003a001eccbf00e24f50003b0032008e
:1033840005003e000004e00009003200e14f500057
:10339400df003a0016003700e44f50006c003200a2
:1033a40048003900e54f5000d9003a007e0037004c
:1033b400e2cf5100d7003a00d1c1200091407800fb
:1033c4000181fb00a0b92000037178008140e8006e
:1033d400010078001decb70010c8b30080cf500086
:1033e40001003600208ca80010c0b3001d00370077
:1033f400d1c12000914078000181fb00a0b92000d8
:10340400037178008140e800010078001decb700ea
:1034140010c8b30080cf500001003600208ca800f3
:1034240000ceb30080c044000100780028ecb7004f
:103434000140e900e2c3b300824f500008003600a7
:10344400b0c9b30000c04000824f500004003600f1
:10345400208ca8000000000000000000ad00370030
:1034640020c0b3001eecb700aa003700d1c1200071
:10347400914078000181fb00a0b92000037178001d
:103484008140e800010078001decb70010c8b300cb
:1034940080cf500001003600208ca80070cdb3000e
:1034a40000c0440091c7b300814f500098003e0013
:1034b400b0cdb30000c044001cecb70030c0b30072
:1034c400e8ff37001f4ce2000c00320000c3b300d9
:1034d40080cf51000700320000c0e80080cf5100c7
:1034e400040032000040e80080cf510001003200a7
:1034f400208ca8001f6cef0004003700fbcf5100a4
:1035040002003a0010c0b3001fecb700d1c1200084
:10351400914078000181fb00a0b920000971780076
:103524008140e800010078001decb70010c8b3002a
:1035340080cf500001003600208ca8001cccbf00b6
:103544001d4ce30073003a0040c0b300c5ff3700d0
:10355400d1c12000914078000181fb00a0b9200076
:10356400037178008140e800010078001decb70089
:1035740010c8b30080cf500001003600208ca80092
:10358400d1c12000914078008180fb001cccbf0099
:103594000080fb0064004000808f50005d003a0012
:1035a40050c0b300afff3700e3cf510058003a00da
:1035b400d1c12000914078008180fb0064805000dc
:1035c400aab9200060447d0002fe2f004c44dd00b7
:1035d4006380500060407d00000041004800dd0031
:1035e400000474000180e90060407d000080fb005d
:1035f400020040004400dd00000474008100e90082
:1036040061407d000080fb00020040000004740063
:10361400c1c12000914078008180fb000001eb00d3
:103624000a007800c623020000000000800f540046
:1036340037003a001dccbf008080fb0089707d00fc
:103644000040e8001decb70011c8b300814f5000e2
:1036540001003600208ca800d0cfb3001c6cb4004d
:103664008042eb008003eb00160037000580fb006e
:10367400d4b9200060417a008541e800fb4f510035
:103684000c003a000183fb000380fb00e0407a0059
:1036940000cdb30000c0400085c1e8000004e00094
:1036a40002003a0002737a000400370000737a00c3
:1036b400020037000180fb0002707a008703e800f3
:1036c4008342780087407800c2c12000124178000c
:1036d40082cf5200e5ff390007c05200004051007c
:1036e4001cecb70081c22000914078008180fb006f
:1036f400b6c8bf000080fb004006b000808f5000b9
:1037040001003a00206ca800206cab0001003a00d4
:10371400208ca800208cab0002003200a0b920004d
:1037240007fe07004f0578004f04be004f03be009c
:103734004f02be004f01be004f00be003600f9002c
:1037440000400600000278008101780002c0e90010
:10375400e14f500009003e009180fb00b0c1b3006e
:1037640080707a001340e800804978000080fb00f4
:1037740005c3b30085404100080037001180fb00f9
:10378400fb4f510007003a0002707a001140e80034
:10379400804878000080fb0001c3b30001707a0008
:1037a4000100370002707a009349e8000000060027
:020000040000fa
:1037b4000400fa00889fbe008a1f78008004780005
:1037c40020c0b300804c780002c2b30002c04000a5
:1037d4009044980030c0b300e0f79f008140e900b6
:1037e400e3cf400001003e000000000022ce200094
:1037f40012417800ea80570009007800a41b0200f7
:1038040000000000e2ccbf00ec4f50000d0032007d
:1038140005003e00ea4f5000c6003200eb4f500056
:1038240074013a000c003700ef4f500010003200d2
:10383400f04f500058003200ed4f50006d013a0037
:103844002a013700d0d22000e3c1b30090cf110089
:103854006801360004003700d0d22000e1c1b30073
:1038640090cf1000630136002868ef006101370033
:1038740031ce20009140780044ce200014427800dc
:10388400c0c2b300b648e3001d003a008180fb00cb
:103894004820dd0001017000ea805700090078002b
:1038a400a41b02000000000031ce200091407800eb
:1038b4008180fb00e4ccbf004800dd000102700001
:1038c40002f02f0004016100030020004818dd000d
:1038d4004811de0002017000c819de00ea805700ba
:1038e40009007800a41b02000000000052ce200052
:1038f400124178000281fb0003002000140037000d
:103904008180fb004820dd0001017000ea8057003f
:1039140009007800a41b02000000000031ce200042
:10392400914078008180fb00e4ccbf004800dd00ba
:103934000102700002f02f00040161000300200066
:10394400c818dd004811de0002817000c819de00cd
:10395400ea80570009007800a41b02000000000060
:10396400ebccbf000080fb00c2ce200012417800e7
:103974004811dd0000017100ea8057000900780059
:10398400a41b020000000000c2ce200012417800f7
:103994000281fb0013013700efccbf000080fb0065
:1039a40002cf2000124178004811dd0000017100af
:1039b400ea80570009007800a41b02000000000000
:1039c40008f02f0002cf2000124178000281fb0092
:1039d400ea80570009007800a41b020000000000e0
:1039e40071ce20009140780084ce200014427800eb
:1039f400c0c2b300b648e3001c003a008180fb005b
:103a04004820dd0001017000ea80570009007800b9
:103a1400a41b02000000000071ce20009140780039
:103a24008180fb00e8ccbf004800dd00010170008c
:103a340002016400030020004818dd004811de0084
:103a440002017000c819de00ea80570009007800fe
:103a5400a41b02000000000092ce20001241780056
:103a64000281fb0003002000130037008180fb006b
:103a74004820dd0001017000ea8057000900780049
:103a8400a41b02000000000071ce200091407800c9
:103a94008180fb00e8ccbf004800dd00010170001c
:103aa4000201640003002000c818dd004811de0094
:103ab40002817000c819de00ea805700090078000e
:103ac400a41b02000000000032cf20001241780045
:103ad400ea80570009007800a41b020000000000df
:103ae4000005eb0048cf20001880fb00184190002f
:103af4004811dd0000017100ea80570009007800d8
:103b0400a41b020000000000184190000281fb0089
:103b1400ea80570009007800a41b0200000000009e
:103b24000a05e8000884e800fc0f5500b1003200e3
:103b3400edff3700efccbf000080fb0002cf200078
:103b4400124178004811dd0000017100ea8057003d
:103b540009007800a41b02000000000008f02f00f8
:103b640002cf2000124178000281fb00ea80570056
:103b740009007800a41b02000000000071ce2000a0
:103b84009140780084ce200014427800c0c2b30073
:103b9400b648e3001c003a008180fb004820dd00a9
:103ba40001017000ea80570009007800a41b02009c
:103bb4000000000071ce2000914078008180fb005d
:103bc400e8ccbf004800dd00010170000201640080
:103bd400030020004818dd004811de0002017000d7
:103be400c819de00ea80570009007800a41b02000f
:103bf4000000000092ce2000124178000281fb00f8
:103c040003002000130037008180fb004820dd0002
:103c140001017000ea80570009007800a41b02002b
:103c24000000000071ce2000914078008180fb00ec
:103c3400e8ccbf004800dd0001017000020164000f
:103c440003002000c818dd004811de000281700066
:103c5400c819de00ea80570009007800a41b02009e
:103c64000000000032cf200012417800ea805700a3
:103c740009007800a41b0200000000000005eb000e
:103c8400120037000184fb000804440040cf2000e8
:103c9400000444001880fb00184190004811dd0026
:103ca40000017100ea80570009007800a41b02009b
:103cb40000000000184190000281fb00ea805700d8
:103cc40009007800a41b0200000000008a4078006c
:103cd4000a05e800f3ccbf000080fb000000d1001f
:103ce40080cf5000e7ff39004200370032cf200078
:103cf40012417800ea80570009007800a41b0200f2
:103d04000000000071ce20009140780084ce200095
:103d140014427800c0c2b300b648e3001d003a0064
:103d24008180fb004820dd0001017000ea8057001b
:103d340009007800a41b02000000000071ce2000de
:103d4400914078008180fb00e8ccbf004800dd0092
:103d54000102700002f02f00040161000300200042
:103d64004818dd004811de0002017000c819de00a9
:103d7400ea80570009007800a41b0200000000003c
:103d840092ce2000124178000281fb000300200043
:103d9400140037008180fb004820dd000101700021
:103da400ea80570009007800a41b0200000000000c
:103db40071ce2000914078008180fb00e8ccbf00e8
:103dc4004800dd000102700002f02f0004016100d0
:103dd40003002000c818dd004811de0002817000d5
:103de400c819de00ea80570009007800a41b02000d
:103df400000000006ff097005042b000a04498000b
:103e04006ff1970065404100a04499008280fb0057
:103e14000001eb0009007800c62302000000000046
:103e2400eff097008181fb004801de00cc00de004a
:103e34000142b00081f17c00eff197008340e8007b
:103e4400e1f79f008180fb006f4161000242b000f6
:103e540082f07c00eff097000141e800e2f79f0058
:103e64000281fb0080007800010fb200c488de00ec
:103e74000142b00001f17c006ff197008240e8003c
:103e8400e1f79f008180fb006f4060000042b000ba
:103e940080f07c00eff197000340e8000080fb0015
:103ea40031c0b30001f07c004f0578004f04be0020
:103eb4000080fa00000006000200fa00800078008a
:103ec40030409000e2ecb700f24f50001a0032008c
:103ed40003003e00f14f500032003a000e0037005c
:103ee400f34f50001f003200f44f50002d003a00f1
:103ef400414090000080fb008045880051409000c4
:103f04000080fb0090458800614090000080fb0029
:103f1400a04588002300370041409000e0ff9f0047
:103f2400d1409000f1ff9f00edecb7000100780054
:103f3400eeecb7001b003700c1419000e3ff9f0087
:103f440051409000f0ff9f0003007800edecb700b3
:103f54007ff89700eeecb700614090002cedb700bd
:103f640010003700648040000001eb0041cf2000c6
:103f740090417800e3ff9f0090419000f3ff9f0081
:103f8400eff9970083487800fff997009340980071
:103f94000201e8008180e8000080e800fc0f510085
:103fa400f3ff3a0010c0b30027ecb7000080fa001a
:103fb40000000600e2ecb700980ba8000000060021
:020000040000fa
:103fc400e4a2a800e0a2a900f0c2a900f102a9009d
:103fd400f0e2a80000000600e4a2a90060002000ae
:103fe400ea2702000000000002280200000000008e
:103ff40041138000e4a2a8000080fb00000006003a
:10400400881f780000047800e4a2a9005000200072
:10401400ea2702000000000002280200000000005d
:10402400401380000000eb00ea27020000000000bb
:10403400022802000000000040138000e4a2a8004f
:10404400004c7800080078004f0478000000060057
:104054000200fa00889fbe00800478000104780002
:1040640066805700e6ff0700aff8970061c0600064
:10407400fbff3a00d8ff0700e4a2a90020002000bb
:10408400ea270200000000000228020000000000ed
:10409400401380004840de00ea27020000000000d0
:1040a4000228020000000000401380000880fb008a
:1040b400ea270200000000000228020000000000bd
:1040c4004013800009007800ea2702000000000085
:1040d400022802000000000040138000e4a2a800af
:1040e40065805700c6ff07003ff897000008a3004b
:1040f400fbff3a004f04be000080fa0000000600f7
:10410400889fbe008004780001047800b2ff070095
:10411400e4a2a90020002000ea2702000000000019
:104124000228020000000000401380004840de0026
:10413400ea2702000000000002280200000000003c
:10414400401380000880fb00ea2702000000000002
:1041540002280200000000004013800009007800db
:10416400ea2702000000000002280200000000000c
:1041740040138000e4a2a8004f04be000000060023
:10418400881f780000047800e4a2a9003000200011
:10419400ea270200000000000228020000000000dc
:1041a400401380004840de00ea27020000000000bf
:1041b4000228020000000000401380000884fb0075
:1041c40008007800ea27020000000000022802002c
:1041d40000000000401380000000eb00ea2702000a
:1041e40000000000022802000000000040138000cc
:1041f400e4a2a8004f04780000000600881f78009d
:1042040000447800e4a2a90010002000ea2702007c
:10421400000000000228020000000000401380009b
:104224000884fb0008007800ea2702000000000070
:10423400022802000000000040138000e4a2a8004d
:104244004f04780000000600889fbe008a9fbe00cd
:104254008105780002057800000478008004eb00f2
:10426400070037000060fe006ac07c000080fb008d
:104274008800780076ff07000804e8008904e80055
:104284008b8f5400f7ff39004f05be004f04be006a
:10429400000006000200fa00889fbe008a1f780012
:1042a4000004780001457800820478006880570093
:1042b40053ff07008ff8970061c0600011002000d1
:1042c40025003a0044ff0700e4a2a90020002000d2
:1042d400ea2702000000000002280200000000009b
:1042e400401380004840de00ea270200000000007e
:1042f4000228020000000000401380000880fb0038
:10430400ea2702000000000002280200000000006a
:1043140080407800401380000004eb00090037005f
:1043240069407c000080fb00ea27020000000000d6
:104334000228020000000000804078004013800042
:104344000804e8000a80fb00800f5400f4ff3900e1
:10435400e4a2a8008180fb00010078004f057800ea
:104364004f04be000080fa0000000600889fbe00d3
:104374008a9fbe0081057800020578000004780059
:104384008004eb00060037000060fe00080078009f
:104394007bff070000f57c000804e8008904e800be
:1043a4008b8f5400f8ff39004f05be004f04be0048
:0443b40000000600ff
:020000040000fa
:1043b8000003780081427800a00180000042780064
:1043c80000002000a00188008001eb0008003700f1
:1043d8000080fb0060407b00004069000080fb001b
:1043e800016a280060c178000060fe008301e800cf
:1043f8000340780085cf5100f5ff39000480fb00a9
:10440800a00188000280fb00000006005a6def0042
:1044180010c0b30054edb700536def000042eb003d
:104428008041780084427800dc62a900d862a90043
:104438007000200001003700000000000000e900c3
:10444800fdff3a00d862a800f10220000100370001
:10445800000000008100e900fdff3a00dac2bf0059
:104468000038a300010032000342720003c141007a
:10447800824178008542e800800d20000200370064
:10448800000000008100e8000000e900fcff3a009d
:10449800e7cf5200e4ff3600716b88000400780013
:1044a80053edb7000200780054edb700050078001e
:1044b8005aedb7000480fb0000000600889fbe008c
:1044c8008a1f78006c2def000045eb005c2def0093
:1044d800d862a80000642000c06a88008000eb0051
:1044e8008100e80010642000808f5000fcff3a0033
:1044f800dc62a900d862a9000000e900c06a88004f
:104508008000eb008100e80010642000808f5000dc
:10451800fcff3a000000e900d862a800c06a8800e1
:10452800000178008000eb0004003700dac2bf0009
:104538008100e8000038a300610032000201e900b0
:1045480000642000808f5000f8ff3a00c26a88009b
:1045580061d620005c0de2006f00320000c8200028
:10456800c06a88008000eb008100e80010c82000c5
:10457800808f5000fcff3a0058adef005a6def00f5
:1045880010c0b30054edb700804178000042eb0042
:1045980031c3b30001c0610015c0b300a2012000ff
:1045a80002003a0080427800020e2000dc62a90076
:1045b800d862a9000000eb000200370000000000ec
:1045c8000000e800820f5000fcff3900d862a80004
:1045d80000102000020050008000eb0002003700ad
:1045e800000000008100e800808f5000fcff3900c7
:1045f80083c04100814178000442e800e74f52003f
:10460800e3ff3600b26a88008002fd0055edb7006e
:104618008002fd008000fd0054edb7008000fd0021
:104628000002fd005aedb7000002fd00c06a8800d4
:104638006e2def008000eb00000000008100e80014
:10464800f00f2000808f5000fbff3600716b880050
:104658000004eb00c9d620006cff070080407800fa
:104668005bedb700e0d52000017478000840e90050
:10467800e54f500001003e00814c78000804e80036
:104688008904e900e80f5400f3ff3a00e1d520005f
:1046980091407800e1cf50000d00320010c8b300ff
:1046a80080cf50000a00320061d6200080d8eb008d
:1046b800c0d62000808f5000fcff3a00140037005d
:1046c800c26a880010002000e06a8800a0ff370056
:1046d800526def000041eb0071c0b300e0d520003f
:1046e80033ff070052edb70051d620009140780003
:1046f8000104e1000c00320061d62000e0ceb300d6
:1047080080587800c0d62000808f5000fbff3a0008
:104718005c2def00040037008058eb00c0d6200065
:10472800808f5000fcff3a00e06a8000606b8800d0
:104738000a45e8000000e00002003a00e34f550097
:1047480062ff3a004f0578004f04be0000000600e3
:104758005aff3700000178008000eb0060d6200087
:1047680060f178008100e800e68f5000fbff3a0016
:044778000000060037
:020000040000fa
:10477c00a00020000000e900feff3a000000060047
:10478c00881f78000004780081037800820178008b
:10479c00a00180000043780000002000a0018800e8
:1047ac006022b8000b0037004819de0004004400fa
:1047bc0010c069000080fb0000004000014a280086
:1047cc0060807800800169000060fe006102420098
:1047dc00e0824a006138b800800f5200818f5a0085
:1047ec00f1ff39000680fb00a0018800030078006f
:1047fc004f0478000000060068260200000000004c
:10480c000001be00f0ff2f00f10f20000000690036
:10481c0081806900010070000000cf000000ea00f8
:10482c004f00de006200100000000600881f7800b8
:10483c00b8c8bf00e14f500022003a009208e200d5
:10484c0014003a00a17f8000a00a2000808f500045
:10485c00100032002d6def00b668ef00c8d32000b9
:10486c0000c0eb00984f10000a003a00844de200a3
:10487c0004003a0040c0220001002000deff0700c7
:10488c0084edb70080c0eb0098cf100001003a0017
:10489c003c6def00b8c8bf00e14f500009003a0072
:1048ac0090448000e10f500028003a009c08e20080
:1048bc0026003a009228ef00e20c020000000000f3
:1048cc0022003700e24f500015003a00a17f800013
:1048dc00a00a2000808f50001c0032002b48e20000
:1048ec001a003a00c8d3200000c0eb00984f10000b
:1048fc0016003a00844de20004003a0040c0220049
:10490c0001002000bcff070084edb70080c0eb0065
:10491c0098cf10000d003a003c6def000b003700f3
:10492c00e54f500009003a002d6def00b668ef001e
:10493c00c0d3200080c0eb0090cf100003003a00e1
:10494c003c6def0010c0b30084edb700808b2000ed
:10495c0021c0b30090cf100002003a0010002000dc
:10496c00904488004f047800000006009404a900cd
:10497c002021ef001ca1ef008780a9009780a900df
:10498c0083e0a900042c04000000000000000600d5
:10499c0083e0a800103a8000f00bb2006304200002
:1049ac00720520002174200083487800824878002a
:1049bc0080487800a6c6bf0001ccb300014060005f
:1049cc00a040b300a6e6b700a3c6bf00014060003c
:1049dc003040b300a3e6b700acc6bf000140600096
:1049ec00a041b300ace6b700d1c6bf0001406000e7
:1049fc005040b300d1e6b700ccc6bf000140600008
:104a0c00c041b300cce6b700d5c6bf000140600082
:104a1c00b040b300d5e6b700d3c6bf00014060007c
:104a2c00a040b300d3e6b700103a80000060a000ad
:104a3c0021742000834878008248780080487800f0
:104a4c0098270200000000008a0802000000000005
:104a5c00be17020000000000ce270200000000007c
:104a6c00e21f020000000000be68ef0010c0b3009f
:104a7c00b8e8b70038edb700846def00a828ef0058
:104a8c002b68ef009228ef00ec02a800e802a900c6
:104a9c003cedb7002868ef0020002000c07f8800a4
:104aac0010002000d07f8800200020005045880096
:104abc00ac28ef001000200070458800a628ef00fd
:104acc000060fe00914480000180880057ff0700c1
:104adc00b610020000000000fe17020000000000eb
:104aec00642702000000000040d8200011c0b30071
:104afc0090cf1000f2ff3a009cff07000000050069
:020000040000fa
:104b0c000000060000000600daccbf007f40600009
:104b1c00e14f500059003a00e2cd200012417800dc
:104b2c000204e00055003a00dbccbf00e64f500019
:104b3c0025003a00d1cd2000914078007c40400007
:104b4c0080cf5000100032000040e80080cf5000b1
:104b5c001b00320000c0e90080cf50001a003a0060
:104b6c0000c5200011c0b30090cf100016003a0011
:104b7c00608328004becb7004800de004cecb7001b
:104b8c0090c0b3000900370000c5200011c0b3006d
:104b9c0090cf10000c003a00807a28004becb70044
:104bac004800de004cecb700d0c1b3004eecb700af
:104bbc00020078004fecb70000ccb30001003700c6
:104bcc0000c8b3004decb700daccbf000046b20011
:104bdc0001c2b300814f500028003a00dbccbf006b
:104bec00e34f50001700320003003e00e24f50002c
:104bfc0022003a0005003700ea4f50000c0032004a
:104c0c00eb4f50001d003a0018003700d0ff200079
:104c1c004becb7004800de004cecb70010c0b30002
:104c2c004eecb7004f6cef0010ccb3000d0037000a
:104c3c0000c8b3004decb700ddccbf00fdefb700f2
:104c4c0000000600c0ff20004becb7004800de005f
:104c5c004cecb70010c0b3004eecb7004f6cef003b
:104c6c0010c8b3004decb7000000060000c8b3003c
:104c7c004decb700dcccbf00fcefb7000000060029
:020000040000fa
:104c8c0034002400043b8800910188000208bb001a
:104c9c000388bb001000fc0050052000303b88004e
:104cac00a00a2000303b880061e7a800000000004b
:104cbc00000000006147e200feff350061c7a9005b
:104ccc00000006000400fa00e0bf9f00f1bf9f0047
:104cdc00910180007fb89700900188006fb8970011
:104cec009081ba001001ba00910188000200be0048
:104cfc000080fa0000000600881f78000003be0048
:104d0c008202780030002400003b88000002eb0097
:104d1c001200370004004300e0804b009101880032
:104d2c001308bb00130190000288bb000482e8004a
:104d3c001000fc0058052000383b8800a80a200011
:104d4c00383b880061e7a80000000000000000006c
:104d5c006147e200feff3500e4814100850f5200ff
:104d6c00ecff390061c7a9004f0478000000060071
:104d7c000080fb00010020004a09dd00c601de00b6
:104d8c00830171004a01dd0020042400003b8800ef
:104d9c000380fb00900188000080eb000009bb0041
:104dac001000fc0050052000303b8800a00a2000b9
:104dbc00303b880061e7a800000000000000000004
:0c4dcc006147e200feff35000000060019
:020000040000fa
:104dd800e20c000050000000000000007e0d000002
:104de80006000000020000000100000000000000b2
:104df800f80900001a01000000000000f60f00008a
:104e08000200000000000000860d00000400000001
:104e180000000000840d00000200000002000000f5
:104e28000100000000080000f80100000000000078
:104e38000010000002000000020000000000000056
:104e4800f80f00000400000002000000000000004d
:104e580000000000120b0000180100000000000014
:104e6800520d00001e00000000000000700d000040
:104e78000e000000020000006400020000c80000ec
:104e880002000a00000a000032000000320d000093
:104e980020000000000000002a0c0000b8000000fc
:104ea80000000000000e00001000000000000000dc
:104eb800fc0f0000040000000000000000000000db
:020000040000fa
:104ec8009780a90092698000826a88009780a8006c
:104ed80041d3200003d7200020c0b300914f100019
:104ee80005003a001100900000005100930f500097
:104ef8000100390080c8eb0010c0b300914f1000ca
:104f080003003a009200980020c0b300804878005f
:104f1800e48040008381e80000d52000808f5000a5
:104f2800edff3a000000060000012000000988009b
:104f380000e22400e008880087c0a9009780a80044
:104f4800000028002021b700322def0000000600e5
:104f580000a0fe003400f800881f780008c0b300e5
:104f6800a80188004f04780097c0bf000048a3003c
:104f78000500320087c0bf000048a30002003200cd
:104f88008780a900322dec003400f9000080fe0073
:044f980000400600cf
:020000040000fa
:104f9c008000eb0001138800d00120001013880062
:104fac0062a2a800211388006342a9006302a90031
:104fbc0062c2a8006322a8009820a9008820a9003a
:104fcc0061e2a80000000600000178008040eb00c0
:104fdc0060c2bf000018a30002003a004213880010
:104fec00000005008140e80000c8b30080cf5000ed
:104ffc00f7ff3a00100005008040eb0060c2bf00d4
:10500c000008a30001003200000005008140e80008
:10501c0000c8b30080cf5000f8ff3a002000050014
:020000040000fa
:04502c000000fe0082
:00000001FF
