:020000040000fa
:080000000004040000000000f0
:020000040000fa
:100800000fe12000c0fe2000000188000000000071
:100810000a00070011000700000020000000e000af
:10082000020032000000020000000000d02502009b
:10083000000000000040da000000fe004440a90073
:10084000007920000000e0000300320000002000da
:10085000a00188004440a80000000600007f22009c
:10086000010020001600370062004000e0804800d0
:10087000910188009001ba0062004000e0804800c9
:10088000910188009002ba0062004000e0804800b8
:100890000002eb006028e10005003a008301e90056
:1008a00007003300038009000059eb000400370003
:1008b0006128e100010032000082eb000500070022
:1008c000910188001001ba000200e000e6ff3a0042
:1008d000000005009101880080027800620040005d
:1008e000e08048003559ba008301e9000800320071
:1008f0002559ba008301e900050032000400e00038
:10090000f4ff320015d9ba008301e900f1ff3a0083
:1009100000000600d61c0400000000005a2004005d
:10092000000000008001eb000200370081717800b8
:100930008301e800828f5100fcff3a0000000600ae
:020000040000fa
:020000040005f5
:0457f400ffff0000b3
:020000040000fa
:020000040005f5
:0457f800ae130000ec
:020000040000fa
:020000040005f5
:0457fc00771e000014
:020000040000fa
:100008001a2900001a2900001a2900001a290000dc
:100018001a2900001a2900001a2900001a290000cc
:100028001a2900001a2900001a2900001a290000bc
:100038001a2900001a2900001a2900001e2c0000a5
:100048001a2900001a2900001a2900001a2900009c
:100058001a2900001a2900001a2900001a2900008c
:100068001a2900001a2900001a2900001a2900007c
:100078001a2900001a2900001a2900001a2900006c
:100088001a2900001a2900001a2900001a2900005c
:100098001a2900001a290000502c00005a2c0000d0
:1000a8001a2900001a2900001a2900001a2900003c
:1000b8001a2900001a2900001a2900001a2900002c
:1000c8001a2900001a2900001a2900001a2900001c
:1000d8001a2900001a2900001a2900001a2900000c
:1000e8001a2900001a2900001a2900001a290000fc
:1000f8001a2900001a2900001a2900001a290000ec
:100108001a2900001a2900001a2900001a290000db
:100118001a2900001a2900001a2900001a290000cb
:100128001a2900001a2900001a2900001a290000bb
:100138001a2900001a2900001a2900001a290000ab
:100148001a2900001a2900001a2900001a2900009b
:100158001a2900001a2900001a2900001a2900008b
:100168001a2900001a2900006e2c0000782c0000c3
:100178001a2900001a2900001a2900001a2900006b
:100188001a2900001a2900001a2900001a2900005b
:100198001a2900001a2900001a2900001a2900004b
:1001a8001a2900001a2900001a2900001a2900003b
:1001b8001a2900001a2900001a2900001a2900002b
:1001c8001a2900001a2900001a2900001a2900001b
:1001d8001a2900001a2900001a2900001a2900000b
:1001e8001a2900001a2900001a2900001a290000fb
:0801f8001a2900001a29000079
:020000040000fa
:100208001a2900001a2900001a2900001a290000da
:100218001a2900001a2900001a2900001a290000ca
:100228001a2900001a2900001a2900001a290000ba
:100238001a2900001a2900001a2900001a290000aa
:100248001a2900001a2900001a2900001a2900009a
:100258001a2900001a2900001a2900001a2900008a
:100268001a2900001a2900001a2900001a2900007a
:100278001a2900001a2900001a2900001a2900006a
:100288001a2900001a2900001a2900001a2900005a
:10029800b02800001a2900001a2900001a290000b5
:1002a8001a2900001a2900001a2900001a2900003a
:1002b8001a2900001a2900001a2900001a2900002a
:1002c8001a2900001a2900001a2900001a2900001a
:1002d8001a2900001a2900001a2900001a2900000a
:1002e8001a2900001a2900001a2900001a290000fa
:1002f8001a2900001a2900001a2900001a290000ea
:100308001a2900001a2900001a2900001a290000d9
:100318001a2900001a2900001a2900001a290000c9
:100328001a2900001a2900001a2900001a290000b9
:100338001a2900001a2900001a2900001a290000a9
:100348001a2900001a2900001a2900001a29000099
:100358001a2900001a2900001a2900001a29000089
:100368001a2900001a290000801a0000361a000015
:100378001a2900001a2900001a2900001a29000069
:100388001a2900001a2900001a2900001a29000059
:100398001a2900001a2900001a2900001a29000049
:1003a8001a2900001a2900001a2900001a29000039
:1003b8001a2900001a2900001a2900001a29000029
:1003c8001a2900001a2900001a2900001a29000019
:1003d8001a2900001a2900001a2900001a29000009
:1003e8001a2900001a2900001a2900001a290000f9
:0803f8001a2900001a29000077
:020000040000fa
:0857f8000200000001000000a6
:020000040000fa
:1009400000000000c1c0000081c1000040010000a3
:1009500001c30000c00300008002000041c200008b
:1009600001c60000c00600008007000041c700006b
:1009700000050000c1c5000081c400004004000063
:1009800001cc0000c00c0000800d000041cd000033
:10099000000f0000c1cf000081ce0000400e00001b
:1009a000000a0000c1ca000081cb0000400b00001b
:1009b00001c90000c00900008008000041c8000013
:1009c00001d80000c01800008019000041d90000c3
:1009d000001b0000c1db000081da0000401a0000ab
:1009e000001e0000c1de000081df0000401f00008b
:1009f00001dd0000c01d0000801c000041dc000083
:100a000000140000c1d4000081d500004015000092
:100a100001d70000c01700008016000041d600007a
:100a200001d20000c01200008013000041d300007a
:100a300000110000c1d1000081d000004010000072
:100a400001f00000c03000008031000041f10000e2
:100a500000330000c1f3000081f2000040320000ca
:100a600000360000c1f6000081f7000040370000aa
:100a700001f50000c03500008034000041f40000a2
:100a8000003c0000c1fc000081fd0000403d000072
:100a900001ff0000c03f0000803e000041fe00005a
:100aa00001fa0000c03a0000803b000041fb00005a
:100ab00000390000c1f9000081f800004038000052
:100ac00000280000c1e8000081e900004029000082
:100ad00001eb0000c02b0000802a000041ea00006a
:100ae00001ee0000c02e0000802f000041ef00004a
:100af000002d0000c1ed000081ec0000402c000042
:100b000001e40000c02400008025000041e5000051
:100b100000270000c1e7000081e600004026000039
:100b200000220000c1e2000081e300004023000039
:100b300001e10000c02100008020000041e0000031
:100b400001a00000c06000008061000041a1000021
:100b500000630000c1a3000081a200004062000009
:100b600000660000c1a6000081a7000040670000e9
:100b700001a50000c06500008064000041a40000e1
:100b8000006c0000c1ac000081ad0000406d0000b1
:100b900001af0000c06f0000806e000041ae000099
:100ba00001aa0000c06a0000806b000041ab000099
:100bb00000690000c1a9000081a800004068000091
:100bc00000780000c1b8000081b900004079000041
:100bd00001bb0000c07b0000807a000041ba000029
:100be00001be0000c07e0000807f000041bf000009
:100bf000007d0000c1bd000081bc0000407c000001
:100c000001b40000c07400008075000041b5000010
:100c100000770000c1b7000081b6000040760000f8
:100c200000720000c1b2000081b3000040730000f8
:100c300001b10000c07100008070000041b00000f0
:100c400000500000c1900000819100004051000060
:100c500001930000c0530000805200004192000048
:100c600001960000c0560000805700004197000028
:100c700000550000c1950000819400004054000020
:100c8000019c0000c05c0000805d0000419d0000f0
:100c9000005f0000c19f0000819e0000405e0000d8
:100ca000005a0000c19a0000819b0000405b0000d8
:100cb00001990000c05900008058000041980000d0
:100cc00001880000c0480000804900004189000000
:100cd000004b0000c18b0000818a0000404a0000e8
:100ce000004e0000c18e0000818f0000404f0000c8
:100cf000018d0000c04d0000804c0000418c0000c0
:100d000000440000c18400008185000040450000cf
:100d100001870000c04700008046000041860000b7
:100d200001820000c04200008043000041830000b7
:100d300000410000c18100008180000040400000af
:100d4000005e0000bce20000613f0000dd830000a7
:100d5000c29c00007e200000a3fd00001f41000097
:100d60009dc30000217f0000fca20000401e000087
:100d70005f010000e3bd00003e60000082dc000077
:100d8000237d00009fc10000421c0000fea0000067
:100d9000e1bf00005d03000080de00003c62000057
:100da000bee00000025c0000df810000633d000047
:100db0007c220000c09e00001d430000a1ff000037
:100dc00046180000faa40000277900009bc5000027
:100dd00084da000038660000e5bb00005907000017
:100de000db85000067390000bae400000658000007
:100df00019470000a5fb000078260000c49a0000f7
:100e0000653b0000d9870000045a0000b8e60000e6
:100e1000a7f900001b450000c69800007a240000d6
:100e2000f8a60000441a000099c70000257b0000c6
:100e30003a64000086d800005b050000e7b90000b6
:100e40008cd20000306e0000edb30000510f0000a6
:100e50004e100000f2ac00002f71000093cd000096
:100e6000114f0000adf30000702e0000cc92000086
:100e7000d38d00006f310000b2ec00000e50000076
:100e8000aff10000134d0000ce900000722c000066
:100e90006d330000d18f00000c520000b0ee000056
:100ea000326c00008ed00000530d0000efb1000046
:100eb000f0ae00004c12000091cf00002d73000036
:100ec000ca94000076280000abf500001749000026
:100ed00008560000b4ea000069370000d58b000016
:100ee00057090000ebb50000366800008ad4000006
:100ef00095cb000029770000f4aa000048160000f6
:100f0000e9b70000550b000088d60000346a0000e5
:100f10002b75000097c900004a140000f6a80000d5
:100f2000742a0000c8960000154b0000a9f70000c5
:100f3000b6e800000a540000d78900006b350000b5
:100f400020880000ec870000c6870000248800008d
:100f500006000000ff09000001a1000001190000c7
:100f6000012900004015000000260000ff000000dd
:100f70007508000095400000810200001901000082
:100f80002940000091020000c0000000260300007c
:100f90005500000053000000420000002000000047
:100fa000480000004900000044000000200000004c
:100fb000420000006f0000006f000000740000009d
:100fc0006c0000006f000000610000006400000081
:100fd0006500000072000000340300004d000000b6
:100fe0006900000063000000720000006f00000054
:100ff000630000006800000069000000700000004d
:1010000020000000540000006500000063000000a4
:10101000680000006e0000006f0000006c0000001f
:101020006f00000067000000790000002000000051
:10103000490000006e000000630000002e00000068
:101040000403000009040000090200002900000058
:101050000101000000c0000032090000040000008f
:101060000002000003000000000000000921000051
:101070001101000000010000221d00000007000017
:10108000058100000340000000010000070500008a
:1010900001030000400000000100000012010000f8
:1010a000100100000000000000080000d80400004b
:1010b0009be80000020000000102000000010000a7
:1010c000821400002a5d00006f9a000025010000d4
:020000040000fa
:1010d0000000eb00206c8800106c880012002000db
:1010e000026c880091cab3008000fd004eeab70090
:1010f0008000fd000001fd0002eab7000001fd00d4
:101100002be8b70004aaef0006aaef0008eab70030
:10111000000006002ca3ef001617020000000000dc
:10112000ebff3700fa09e20002003a0000712200ea
:10113000d04f8800fa29ed0088c4bf0000000600e7
:1011400020c0b3002be8b700100020004045880005
:10115000000006002b68ef0040c0220001002000c4
:10116000fe2402000000000080407800e14f5000a3
:1011700004003a0050c0b300bae8b700010078009c
:101180003eedb7000000060000000600000006006b
:1011900000000600000006008e260400000000008b
:1011a00000000600d1c1b30010c0b30090160200c9
:1011b0000000000003c4b30042a520008040eb0003
:1011c00010c0b300e816020000000000206c880088
:1011d000000006009444a80080702000e04f8800c2
:1011e0008000eb008100e80080702000808f5000bc
:1011f000fcff3a00fc29ef009444a900000006001f
:10120000881f780020c0b30086edb700b8c0b300d7
:101210000600370008407800c227020000000000e6
:10122000a6170200000000000844e8004ecabf00f4
:101230000044e100f7ff3600024ae2000c003a00e9
:101240008000eb00910188000080eb008008bb006b
:101250000c00fc0058052000383b8800a80a20003c
:10126000383b880061e7a800000000000000000093
:1012700061c7a9002b68ef004f047800000006004a
:1012800020c0b3002be8b70060c0b300bae8b700d5
:101290000040eb002fedb700b8e8b7000000eb000e
:1012a000f044880029e8b70050c1b300d8200400fa
:1012b0000000000020c0b3002be8b700f00f2000b2
:1012c00090458800a0458800b045880010002000a7
:1012d0005045880028e8b7004eedb70090c0b30035
:1012e000d820040000000000e0c0b300d8200200b5
:1012f0000000000011c0b3008000fd004aedb700ff
:1013000031edb7008000fd0020c0b3002be8b7002e
:10131000010078004eedb7000000060070c0b30079
:1013200094eab70051ad2000914078008180fb0025
:10133000d6cabf004800dd000101700071ad200079
:10134000914078008180fb00d8cabf004800dd00d2
:1013500081017000f10f200081026100050078001a
:1013600095eab7004812de000400780096eab7005c
:10137000818061000100780097eab7004819de001b
:101380000200780098eab700d9cabf0099eab7000e
:10139000f5ecb70005007800e9ecb7000400780030
:1013a000eaecb70001007800ebecb700020078002f
:1013b000ececb700d0c0b300d82002000000000061
:1013c00020c0b3002be8b70010c0b3004eedb7004b
:1013d0000000060004aaef0006aaef0011cf2000cb
:1013e000914078008180fb00f2ccbf004800dd0016
:1013f000010070000000e800f1ecb7004800de00da
:10140000f2ecb70051ad2000914078008180fb00e4
:10141000d6cabf004800dd000101700071ad200098
:10142000914078008180fb00d8cabf004800dd00f1
:101430008101700002007800e9ecb7004810de007e
:10144000eaecb70003007800ebecb7004818de00c8
:10145000ececb70093ad20009341780003007800d6
:10146000f5ecb7008380fb008003200001005000f2
:1014700022002000110009000200d800800278003c
:101480000002eb000f0037000180fb00000140006c
:1014900061cf2000010141000080420000004000b7
:1014a000c1ad2000010040009080fb001040900082
:1014b0004800dd0001007000004978004800de00af
:1014c00010419800844078000402e8000380fb008b
:1014d0000000d10080cf5000ebff3900a0c0b30066
:1014e000d82002000000000020c0b3002be8b700a5
:1014f00010c0b3004eedb70000000600889fbe008c
:101500002050800031508000e10f4000e08f480003
:101510000e003a0051ad2000914078008180fb0020
:10152000d6cabf004800dd000101700071ad200087
:10153000914078008180fb00d8cabf004800dd00e0
:1015400081017000225088003350880026508000ae
:101550003750800051ad2000914078008180fb0021
:10156000d6cabf004800dd000101700071ad200047
:10157000914078008180fb00d8cabf004800dd00a0
:1015800081017000820f5300838f5b0045003a0099
:1015900011cf2000914078008180fb00f2ccbf0089
:1015a0004800dd00010070000000e800f1ecb70029
:1015b0004800de00f2ecb70006007800e9ecb70066
:1015c0004830de00eaecb70007007800ebecb7002b
:1015d0004838de00ececb70093ad20009341780072
:1015e00003007800f5ecb7008380fb008003200047
:1015f0000100500022002000110009000200d80064
:101600008004780088a02000184478000602be00fc
:10161000110037000180fb000001400061cf200075
:10162000010141000080440000004000c1ad2000e5
:10163000010040009080fb00104090004800dd0059
:1016400001007000004978004800de001041980059
:1016500061024200e0824a00864052000380fb00a3
:101660000000d10080cf5000eaff3900064054004e
:101670000440400008eab700245088003550880034
:1016800000c1b300d82002000000000020c0b30059
:101690002be8b700086aef0010c0b3004eedb700aa
:1016a000010037002b68ef004f04be000000060069
:1016b0000040eb00f1ecb700f2ecb700f0c0b30073
:1016c000d82002000000000020c0b3002be8b700c3
:1016d00010c0b3004eedb7000000060084a020004b
:1016e000144278000481fb000482fb000500200006
:1016f0002050800031508000040050008580580048
:10170000a3a0200086270200000000000040eb009c
:1017100008eab70004aaef0006aaef002be8b7001a
:1017200000000600881f78002050800031508000a3
:10173000e10f4000e08f48000e003a0051ad20005c
:10174000914078008180fb00d6cabf004800dd00d0
:101750000101700071ad2000914078008180fb0094
:10176000d8cabf004800dd00810170002250880007
:101770003350880051ad2000914078008180fb00fb
:10178000d6cabf004800dd000101700071ad200025
:10179000914078008180fb00d8cabf004800dd007e
:1017a000810170000004eb00205080003150800067
:1017b000820f5000838f5800280032002d00370020
:1017c00084a02000144278008481fb00a6a02000a1
:1017d000838141008003200001005000220020008e
:1017e000110009000200d8008580fb0001004000c4
:1017f00000004000c1ad2000010040009080fb00cf
:10180000104090004800dd000100700080317b0036
:101810000442e8000400780008eab7002050800085
:101820003150800061014000e08148002250880072
:1018300033508800fc4f520007003a007b005000f4
:10184000e080580086017800c2012000862702004f
:1018500000000000086aef000804e80088427800f1
:10186000d9cabf008080fb000100d100804f540026
:10187000d3ff39002b68ef004f047800000006000a
:10188000881f7800106c80000000e0000300320028
:10189000104090000004e0005300350070c0b30019
:1018a00094eab70051ad2000914078008180fb00a0
:1018b000d6cabf004800dd000101700071ad2000f4
:1018c000914078008180fb00d8cabf004800dd004d
:1018d000810170000200780095eab7004810de0030
:1018e00096eab7000300780097eab7004818de00d0
:1018f00098eab700d9cabf0099eab7000044eb00e4
:101900002c003700502aef00522aef0053ad200080
:10191000934178008381fb0062ad20001241780082
:101920004811dd000300710073ad20009341780081
:101930008381fb0082ad2000124178004811dd0058
:10194000830071000881fb000300200000004100bb
:10195000818049006c27020000000000805288004e
:10196000915288000881fb00d9cabf000080fb00ab
:101970000000d100000151000201410041ad2000f2
:101980008100410080528000804878004800de00dd
:1019900090409800536aef0060ad200000014100c4
:1019a00090528000004978004800de001041980005
:1019b00008c4e800d9cabf000080fb000000d100c5
:1019c000804f5400cfff390003c4b30042a9200068
:1019d00011c0b30001407800e816020000000000ca
:1019e000106c88002b68ef004f04780000000600a0
:1019f00040c02200010020006c270200000000000f
:101a0000f2ff2f00f30f2000820f5000838f580049
:101a1000070032009424ef000080eb00000000007b
:101a20000000e900fdff3a00be25020000000000b2
:101a300000000600881f7800b182200091407800e5
:101a40000104e0001c003a00206c80000000e0006f
:101a500003003200104090000004e000180235003e
:101a60008000eb0042a5200040ad200062f078002d
:101a70008100e80000042000808f5000f9ff3a0048
:101a8000814178008040eb0010c0b300e8160200ee
:101a900000000000206c880010c0b3002be8b700e5
:101aa00041a920008058eb0040ad2000808f5000fd
:101ab00003023200fbff3700e1cf500053013a0030
:101ac0002a48e200fe013a00d4cabf00e94f5000a4
:101ad0000c00320005003e00e24f500010003200c2
:101ae000e34f5000d4003a00c8003700ea4f5000de
:101af00006003200eb4f5000cf003a00e0fd070037
:101b0000cd003700306def00cb003700ddcabf00dd
:101b100030edb700b8e8b7002c68ef00c60037001a
:101b20000001eb0050ad2000e24078000086280064
:101b30006240780080cf500007003a0002407800f1
:101b40000201e800e80f5100f6ff3a0011c0b300af
:101b5000e74f5000010032008040eb000104e0003c
:101b6000b5003200d4ad20001442780004007800a3
:101b700030edb700e14f420008003a0000802a0033
:101b800050528800200020006052880001c02200ce
:101b9000f14f8800002aef0024003700040078008d
:101ba000b8e8b7000404e00005003a00040078003b
:101bb00029e8b70010c0b3002de8b7001b003700bc
:101bc000b0c2b300804f520007003a00020022006a
:101bd000f24f8800002aef0003f02a0053528800d9
:101be0004c2aef0011003700c0c2b300804f5200f2
:101bf00008003a0000c02200f04f8800002aef00e1
:101c000001802a0051528800210020006152880082
:101c10000600370002702100f24f8800002aef0012
:101c200003802500535288004c2aef0021c0b300e6
:101c30000100780094eab70080c3b30095eab700ca
:101c40000100780096eab70018c0b30008007800d9
:101c500097eab700f24f800003508000020078003e
:101c600098eab7004810de0099eab7000300780050
:101c70009aeab7004818de009beab700505280008d
:101c80006152800002005000838058009ceab70037
:101c90004801de00020078009deab70001007800ec
:101ca0009eeab7004808de009feab700a0eaef000e
:101cb000e14f420016003a0008007800a1eab700a0
:101cc000b0c8bf00a2eab700acc8bf00a4eab70022
:101cd000aec8bf00a3eab70029c8bf00a5eab70095
:101ce0002968ef0040c0220001002000fe2402000d
:101cf00000000000e24f500002003a00a66aef0028
:101d00000b00370008007800a6eab700080037008b
:101d10000404e0000600320010002000204188008a
:101d20002628ef00080078002ce8b70042003700b2
:101d3000024ae20027003a0011c0b3000100780017
:101d4000a0eab700a76aef00a86aef00a96aef004f
:101d5000aa6aef00ab6aef0040c0b300aceab7007c
:101d6000ad6aef00ae6aef0030c0b300afeab70073
:101d700080cfb300b0eab700b0cab300b1eab70091
:101d800020c0b300b2eab700b36aef0080c0b3006e
:101d9000b4eab700b56aef00b66aef00b76aef00c1
:101da000b8eaef0001007800a1eab700acc8bf00b4
:101db000a4eab700aec8bf00a3eab700b0c8bf002e
:101dc000a2eab70029c8bf00a5eab7002968ef005a
:101dd000a66aef00106c80000000e00003003200f3
:101de000104090000004e0001300350003c4b3006d
:101df00042a9200011c0b30001407800e81602009b
:101e000000000000106c88000a003700d54ae2008c
:101e100004003a00a0cab3004eeab700026aef001d
:101e20000400370090cab3004eeab7000100780002
:101e300002eab7002b68ef0001d320009140780040
:101e4000d4cabf00e1cf40001c003a00e64f50006a
:101e50001400320005003e00e44f50000d00320037
:101e6000e54f500016013a000c003700e84f5000d3
:101e7000100032000d003900ea4f500010013a0006
:101e800020c0b3002be8b7001000200040458800b8
:101e90000b013700dafc07000901370021fe0700bb
:101ea000070137000dfe07000501370074fe07002b
:101eb00003013700cefe070001013700e64f500056
:101ec0003a00320006003e00e44f5000130032009a
:101ed00030003e00e24f5000f9003a0008003700a1
:101ee000e84f50004700320039003900e94f5000f8
:101ef00006003200ea4f5000f1003a0005003700ba
:101f00000104e000ee0032000200370091fc0700ff
:101f1000eb003700e7fc0700e90037008082200073
:101f200011c0b30090cf100026003a00818b200032
:101f300091407800b0c2b30080cf500003003a0057
:101f4000e56cef006b40500009003700c0c2b300e1
:101f500080cf500004003a00e56cef0001007800eb
:101f6000e6ecb70003003700e56cef0070c1b3008a
:101f7000e6ecb700e76cef00e86cef0000c1b300df
:101f8000edecb70077404000eeecb700c8fd07006d
:101f9000cb0037008082200012c0b300904f1100a8
:101fa00008003a0055fd0700c50037008082200078
:101fb00013c0b30090cf110002003a0005fd0700e6
:101fc000bf0037002b68ef00296cef00bc00370022
:101fd0008082200011c0b30090cf100002003a00b0
:101fe000cefc0700b600370020c0b3002be8b700d6
:101ff00030c1b300e4ecb70010c0b30029ecb70067
:10200000af003700b8fc0700ad0037002a48e200f7
:10201000ab003a0041ce200091407800f1cf500053
:1020200003003a00294ce2000e003200a000370005
:10203000f4cf50000b003a002c48e20009003a00af
:10204000294ce20007003200b2c8bf0096eab70090
:10205000b4c8bf0095eab700b6c8bf0094eab7009d
:102060008c00370040458000e10f500011003a001d
:10207000a828ef00801f7800b0c8bf0094eab7001e
:102080004f007800801f7800acc8bf0095eab70009
:102090004f007800801f7800aec8bf0096eab700f6
:1020a0004f00780003c4b30042a9200080407800ac
:1020b0007c003700f3cf500029003a00294ce200a1
:1020c000270032008082200012c0b300904f110020
:1020d00011003a000002eb0063cf2000c2a92000eb
:1020e0009380fb00134090004800dd000100700069
:1020f000004978004800de00104198000402e80022
:102100000281e8008381e800fc0f5200f4ff3a00ee
:10211000296cef00090037000001eb00c1a9200085
:1021200080c8eb000040eb00904098000201e800fe
:102130008180e800fc0f5100f9ff3a0003c4b300ae
:1021400042a9200011c0b30001407800e816020047
:1021500000000000106c88002b68ef00560037006c
:1021600020d3200013c0b30090cf110006003a0026
:102170009424ef000080eb00000000000000e90064
:10218000fdff3a000a00370040ad2000b2c0b300a6
:10219000904f110008003a00f0448000e10f500019
:1021a00005003a00bae8b7002b68ef009e28ef0060
:1021b0000000fe0040003700f4cf50003e003a001f
:1021c000c082200013c0b30090cf11003a003a0043
:1021d000294ce2003800320094458000a54580007b
:1021e000b64580004829dd00020142006130b80098
:1021f000c000dd000000200002014000e081480036
:102200002245880033458800e00f5100e08f5900d7
:102210000d003200f0ff2f00f10f2000800f510061
:10222000818f590008003200004580001145800070
:10223000800f5100818f59000300360010c0b30099
:10224000a1eab70001003700a16aef00040078009e
:10225000a4eab70005007800a3eab70006007800fa
:10226000a2eab700f00f2000800f520005003a00ec
:10227000848f520003003a00850f530001003a009a
:102280002868ef0029c8bf00a5eab7002968ef0059
:10229000a66aef0003c4b30042a9200011c0b30036
:1022a00001407800e816020000000000106c880071
:1022b0002b68ef00296cef00a61702000000000059
:1022c0004f0478000000060031c5200091407800de
:1022d00000c2b30080cf500005003a0020c0b30018
:1022e000bae8b70010c0b300bbe8b700050037007c
:1022f00010c0b300bae8b700bb68ef00ffcf5000d2
:102300000600360088c4bf000018a30003003a008e
:10231000c8fd0700a617020000000000000006002c
:10232000881f7800ba48ed00e14f500008003e00d9
:10233000a801800000002000a0018800a61702006c
:10234000000000000884fb00a8018800deff0700f1
:082350004f04780000000600b4
:020000040000fa
:102358008180fb00120020000111dd000248780096
:1023680000000600e0618000904178000381fb00d6
:1023780091c42000914078008180fb004accbf00c6
:102388004800dd0001007000800f51000200360097
:1023980080417800040037000200500049ecb70083
:1023a8004800de004aecb7000002eb000d003700e1
:1023b80061c42000914078008180fb0047ccbf00b9
:1023c8004800dd00010070000281fb0041cd2000c3
:1023d80062d8780046ecb7004800de0047ecb7004a
:1023e8000402e80004417800834f5200f0ff3900ee
:1023f800d261800091c42000914078008180fb0068
:102408004accbf004800dd00010070000e00320019
:1024180080c0b30000497800d161800040cd200021
:1024280090009800e0618000104090000068a300d0
:1024380002003a0080ccb3000100370080c8b30026
:102448009040980000000600c0cd200010019800c0
:10245800b1c42000914078008180fb004cccbf00c3
:102468004800dd000100700001003200000001009a
:1024780048eca9000000060040c3200021c0b300ba
:1024880090cf10001a003a0094c4bf000058a3006f
:1024980017003200e061800081c0b30090cf1000c7
:1024a80013003a0010409000c043b20041c3b3008b
:1024b800814f50000e003a00d16180001140900019
:1024c8000004e0000a003500c0cd2000900098000c
:1024d8000001eb0041cd2000c0cd200061707900e3
:1024e8000201e800e80f510010003200f9ff370040
:1024f8000041eb000200780034ecb70081c0b30063
:10250800d061800001487800d1618000c0cd2000f2
:1025180090009800c0c8b3009040980010628000f6
:10252800124098001062800012409800484ce20067
:1025380009003d00b1c42000914078008180fb0073
:102548004cccbf004800dd000100700001003200e3
:102558000000010048eca9000000060040c320006c
:1025680021c0b30090cf100001003a007dff370072
:10257800c1ff370001c52000914078008180fb0031
:1025880051ccbf004800dd0001007000850020002c
:10259800e70f500009003e008002780035ccbf00ec
:1025a80002003a0010c0b30003003700e14f5000aa
:1025b80002003a0020c0b30035ecb7001262800078
:1025c80012409000c828de000140700010419800b9
:1025d800106280000548780001c52000914078000d
:1025e8008180fb0051ccbf004800dd000100700075
:1025f8000500500050ecb7004800de0051ecb70071
:1026080040cd2000906188000002eb008001eb00c3
:102618004f0cab000e0032001d00370092618000a5
:10262800d1c42000914078008180fb004eccbf00cf
:102638004800dd0001007000305978009261880080
:102648004decb7004800de004eecb7008301e8000f
:10265800858f5100f1ff3a0000000600926180006a
:10266800d1c42000914078008180fb004eccbf008f
:102678004800dd0001007000305978009261880040
:102688004decb7004800de004eecb7000402e8004d
:10269800850f5200f1ff3a0000000600881f7800fd
:1026a80094a4a90081c420009140780008c8b30010
:1026b8004fccbf000841600011003a000104e0005f
:1026c80005003d0020c0b30034ecb7001062800064
:1026d800024878004000370081c0b300d061800014
:1026e80001487800d1618000c0cd2000900098009a
:1026f800c0c8b3009040980041c8b3002f0037000d
:102708000104e0003e003500dcccbf0088406000da
:102718002d003200e2ccbf000080fb0032ce20004a
:10272800124178004811dd000001710001c5200048
:10273800914078008180fb0051ccbf004800dd004b
:1027480001007000800f51000900310021ce2000e7
:10275800914078008180fb00e3ccbf004800dd0099
:102768000100700050ecb7004800de0051ecb700e3
:1027780080ff070010c0b30034ecb70082c0b3007c
:10278800d061800002487800d0618000c1cd20006f
:102798001100980018409800e06180000248780015
:1027a800e0618000110098001840980041cd200099
:1027b800106280001100980081ccb3001062800084
:1027c800114098000e00370020c0b30034ecb70069
:1027d800106280000148780082ccb300106280004b
:1027e8001240980081c0b300d06180000148780091
:1027f800d161800040cd2000900098009240980060
:102808004f04780000000600881f780010628000de
:10281800104090004600de006104600030c52000d2
:1028280081c0b30090cf100008003a00deccbf0092
:102838000080fb00b024880000c1b3009604e200c9
:1028480001003a0040c0b30053ecb70040c3200079
:1028580011c0b30090cf100013003a0040cd200003
:10286800116280009000980042ff070050c32000ca
:1028780021c0b30090cf100004003a0041c8b30053
:102888001062800011409800080037001162800033
:1028980080ccb3000804e0000100320080c8b30017
:1028a8009040980001003700f3fe07004f047800bd
:1028b80000000600c1cd20009140780000c8b30098
:1028c80080cf500031003a0000ccb3004fecb70085
:1028d800dfccbf00e24f50000a003200e34f500047
:1028e8001b003200e14f500027003a00e084280026
:1028f8004decb7004800de004eecb70020c1b30035
:102908001e003700deccbf000080fb000000400046
:10291800617a2800010040009080fb008000fd00e3
:102928004decb7008000fd00100078004800de0084
:102938004eecb7004800dd00810070002140900097
:1029480050ecb7003140900051ecb7000000060091
:10295800deccbf000080fb0000004000017a2800a8
:10296800608078004decb700c800de008000fd00f4
:102978004eecb7008000fd001080fb0050ecb70063
:10298800516cef00000006004f6cef0000000600dd
:10299800d46cef00d56cef00dcccbf007f0060008a
:1029a800e10f50000b003200e20f50000b00320024
:1029b8000000e0001b003a004feca800d40ca8006f
:1029c80000628000e10f500016003a00d42ca800e5
:1029d800140037004feca800120037004feca80095
:1029e800e04ce20005003500e0ccbf006f0060005d
:1029f8000000400061c3200004003700e0ccbf00a5
:102a08006f0060000000400021c420006080780052
:102a1800104090000028a3000200320010c0b3004c
:102a2800d4ecb7004f4ce20007003d0040cd200039
:102a38004decb7004800de004eecb7004f0ca80084
:102a480020c0b30050ecb70000000600deccbf0089
:102a5800e14f50000b003a00dcccbf007f40600023
:102a680008003a004feca800ddccbf00e34f50004f
:102a780003003a00100020000062880001003700bf
:102a8800402cef00de4ce20026003a00dcccbf0010
:102a98007f406000e24f500022003a00e0ccbf00c7
:102aa8006f4060001f0032004feca800e04ce200cd
:102ab80005003500e0ccbf006f006000000040005a
:102ac80061c3200004003700e0ccbf006f00600045
:102ad8000000400021c4200060817800ddccbf00e8
:102ae800e34f500002003a0040c8b3000900370025
:102af800e0ccbf006f00600000004000a14a200049
:102b0800010040001010a100e04ce20003003d006d
:102b180000c4b300104198000000060080ccb30048
:102b280010419800000006004feca8003e6cef0032
:102b3800deccbf0052ecb700de4ce20003003a00e6
:102b480000c1b30053ecb7000000060000c2b30098
:102b580053ecb700d208040000000000dcccbf0032
:102b68000046b20033003a00ddccbf000080fb0015
:102b780001002000eb0f5000e08f58002d003e00b0
:102b880000600100130037001300370029003700e8
:102b9800110037002700370006003700090037000a
:102ba8002200370009003700070037000b00370004
:102bb800160037004feca80080c0b30053ecb700f4
:102bc800000006003bff3700d7ff370020c5200074
:102bd800060037006eff37009cff3700e0ccbf00cf
:102be8000080fb00e1c32000010040004decb7006d
:102bf8004800de004eecb7004f0ca80010c0b30030
:102c080050ecb7004feca800000006004feca800fd
:102c1800e0ccbf000080fb00e1c32000e2cd200033
:102c28001241780002f0780000000600d008020087
:102c380000000000000006001162800011409000b2
:102c48000004e00002003d000040eb0090409800c6
:102c5800356cef00346cef00506cef00516cef00f6
:102c68004f6cef00bdff0700cc0802000000000019
:102c78008afe370030ccbf008080fb00010078005e
:102c88000020a1000000e0000c003a00c10fb200d3
:102c980000e0200000804000e0618800d0618800ea
:102ca80010409000c043b20041c3b300814f5000b0
:102cb80001003a00e0ff370028fe3700e80f500017
:102cc80001003a00d0fe0700000006000080fb006b
:102cd800800140000180fb00008041004200dd00cf
:102ce80002e0200002014000124090000070a100a4
:102cf8001041980060c320000104e0000100320088
:102d080020c4200082317800124090000060a000aa
:102d18001041980000000600889fbe00804478009b
:102d28000184fb000080fb0000004000a14a200055
:102d380008b078000838a300030032008040eb0098
:102d480009407800e1ff07000828a30003003200cb
:102d580011c0b30009407800dcff07004f04be0033
:102d6800000006000004e0000b003a0081c0b30038
:102d7800d061800001487800d1618000c0cd20007a
:102d880090009800c0c8b3009040980041c8b300b4
:102d9800106280000a0037000080fb00000040003d
:102da8008180fb00010040004200dd0001e02000be
:102db800010040009040900042c8b30082c07000fb
:102dc80011409800000006000080fb000104e000ac
:102dd800030032008000400020c4200002003700b9
:102de8008000400060c32000610278001440900019
:102df8000064a2001042980012029800034a78006a
:102e0800144090000044b200104298001440900012
:102e180081c8b30001407000104298000400780097
:102e280000000600f00f200070248800502488005d
:102e3800f009200080248800b00f2000602488005a
:102e48008804a80001e020004808de00c0248800ab
:102e58009424a8009424a9009624ef000000eb0015
:102e68008018eb008018eb000000e800e40f500029
:102e7800fbff3a00d00020005025880002003700f0
:102e880080c0b3008ae4b7008ac4bf00e84060008d
:102e9800fbff3a008000fd004fecb70048ecb7009c
:102ea80049ecb7004aecb7008000fd0094a4a900e3
:102eb80040e02000106288008000fd0052ecb7005e
:102ec80053ecb7008000fd0000000600aac4bf0054
:102ed8000018a3000d003200e261800092409000cb
:102ee80000c8b30080cf500007003a00106280008d
:102ef8009040900040c8b30080cf500002003a00d4
:102f08006840400010419800aa24a90000c8b300f6
:102f18008ae4b700000006008284a80000c1b3005c
:102f28008ae4b700c408040000000000c6080200d4
:102f3800000000008284a90000c1b30080e4b7004b
:102f480000000600881f7800534ce2000c003a008d
:102f58009424ef008c24ef00010037009404a800ab
:102f680094c4bf000008a300fcff320010c0b300e7
:102f780053ecb700a624ef0000012000402588008c
:102f880030c5200011c0b30090cf100007003a00f0
:102f9800f00f2000502488008c24ef008c04a80037
:102fa8008c84a80020c0b30053ecb70080c4bf00d5
:102fb8000048a3000400320082c4bf000048a300f8
:102fc80001003200d9ff070088c4bf000018a30021
:102fd80045003a008ac4bf000008a3000e00320072
:102fe8008cc4bf000008a3000b0032008dff07004f
:102ff80040c0b30053ecb700c0cd2000107088006b
:1030080080c0b30000eeb70030c0b300016eb60058
:10301800c0c8b300016eb7008ac4bf000048a3004f
:10302800060032008cc4bf000048a3000300320031
:10303800b9ff070000c1b3008ae4b7008ac4bf0023
:103048000028a300070032008cc4bf000028a3009a
:1030580004003200c80802000000000040c0b300ad
:103068008ae4b7008a44e20003003d008c44e20091
:1030780001003d0095ff07008ac4bf000018a300a7
:10308800070032008cc4bf000018a30004003200ff
:10309800ca08020000000000f00f20007024880019
:1030a80030c5200031c0b30090cf10000e003600ac
:1030b8008cc4bf000038a3000b00320048c0b30026
:1030c8008ac4bf000038a3000700320090248000a3
:1030d80030ecb70080c0b3008ae4b700e5fe070013
:1030e8000844e900f6ff3a004f04780000000600a3
:020000040000fa
:1030f800881f780000047800220820008000eb0078
:1031080092040200000000000040eb0060449900b7
:103118004044990030449900204499005044990053
:103128004f04780000000600881f7800dd62a800c0
:10313800d962a900dd42a900d942a900d5c2a900d7
:10314800d1c2a90010022000c0128800800020000f
:10315800801288000004eb009812880051e2a80051
:1031680053e2a90053a2a8005342a8008e40a90028
:103178008e60a9009e40a800c0b92000dcff0700af
:1031880040b12000daff070060cd210020618800ef
:10319800a005220030618800080078004eedb700d5
:1031a8004f04780000000600881f780022ccbf007a
:1031b80068446000150032004e6def0042cdbf003c
:1031c80003003a0010c0b30042edb70029003700f1
:1031d800e14f400027003a00818b200091407800a1
:1031e800c0b920003261800002000100c0b920008f
:1031f800bfff0700426def0050458000e10f50000f
:103208001c003a00aa28ef0013003700e0d4200081
:1032180080c0eb0090cf100016003a000004fd00bb
:103228004eedb70042edb7000004fd00c0b9200024
:10323800afff070010c0b30029e8b7005045800071
:10324800e10f500007003a00aa28ef0029ecb70068
:103258000800780028e8b70040c1b300e4ecb700e4
:10326800040037000004fd002be8b70029ecb70084
:103278000004fd00a08b200021c0b30090cf1000f7
:103288001d003a0060d4200090cf10001a003200d0
:10329800b082200090cf100017003200d0822000aa
:1032a80011c0b30090cf10000a003200a17f800047
:1032b800a00a2000808f50000600320040c0220083
:1032c80001002000fe24020000000000e20f500070
:1032d80009003a00f0d22000e1c1b30090cf1000fd
:1032e8001e003e0018c0b300080078002ae8b700a6
:1032f800b0c0b30013003700a08b200051c0b3004a
:1033080090cf100016003a0060d4200021c0b3000e
:1033180090cf100012003200b082200090cf100031
:103328000f003200f0d22000e1c1b30090cf1000ae
:103338000a003e0018c0b300080078002ae8b70069
:10334800c0c0b300d8200200000000002f6dec00c0
:103358000800780046edb70001003700466def0021
:1033680040ce2000e1c0b30090cf100012003a0018
:10337800a0d4200080c0eb0090cf10000e003a00cf
:1033880010d3200051c0b30090cf100007003e00ba
:10339800e0c0b300d82002000000000010c0b30055
:1033a8004aedb700316dec00030037004a6def00bd
:1033b80010c0b30032edb7009acbbf001042b20084
:1033c800e14f500009003a009a0ba90040b12000d3
:1033d80047ff0700818b20009140780040b1200012
:1033e80022618000020001009a2ba8009acbbf003e
:1033f8000018a300190032000058a30017003a0073
:1034080020c8b300964be30014003e00d5c2a800c4
:103418008e60a9009e60a8009aaba80053c2bf00a6
:103428000008a3000b00320071b920009140780019
:103438000181fb0040b12000624078000080fb0061
:10344800a01288008140e8000100780097ebb700df
:103458000200370051e2a90033ff07004f0478004b
:1034680000000600809fbe00821f78009ec0bf003b
:103478000038a3001d0032008ec0bf000038a30032
:103488001a0032008e60a90072b92000124178003b
:1034980096cbbf000014e1000d003a00d5c2a90088
:1034a8009e60a9009aaba9009a2ba900a08b2000c6
:1034b80061c0b30090cf10000c003a0010c0b300f8
:1034c800bae8b70010002000f04488000700370071
:1034d8008280fb0040b12000614078000080fb0042
:1034e800a01288000240e80097ebb7004f0178006f
:1034f8004f00be00004006003600f800809fbe0066
:10350800829fbe00849fbe00869fbe00889fbe002b
:103518008a1f78009ec0bf000028a300fe0032006a
:103528008ec0bf000028a300fb0032008e40a90017
:1035380052c2bf000018a300020032005222a900a4
:10354800228ca80052c2bf000028a300020032004b
:10355800b0128000228ca800b31280008344780047
:10356800228cab00ea003a0020ccbf00e24f5000aa
:103578003b00320005003e000004e0000900320074
:10358800e14f5000df003a0016003700e44f5000ca
:103598006c00320048003900e54f5000d9003a006d
:1035a8007e003700e2cf5100d7003a00f1c1200079
:1035b800914078000181fb00c0b9200003717800b8
:1035c8008140e800010078001fecb70010c8b30084
:1035d80080cf500001003600228ca80010c0b30034
:1035e8001d003700f1c12000914078000181fb00e7
:1035f800c0b92000037178008140e800010078001c
:103608001fecb70010c8b30080cf5000010036008f
:10361800228ca80000ceb30080c0440001007800ce
:103628002aecb7000140e900e2c3b300824f500022
:1036380008003600b0c9b30000c04000824f5000f7
:1036480004003600228ca8000000000000000000e2
:10365800ad00370020c0b30020ecb700aa00370047
:10366800f1c12000914078000181fb00c0b9200021
:10367800037178008140e800010078001fecb70072
:1036880010c8b30080cf500001003600228ca8007b
:1036980070cdb30000c0440091c7b300814f500003
:1036a80098003e00b0cdb30000c044001eecb70047
:1036b80030c0b300e8ff3700214ce2000c003200b4
:1036c80000c3b30080cf51000700320000c0e800fb
:1036d80080cf5100040032000040e80080cf510044
:1036e80001003200228ca800216cef000400370092
:1036f800fbcf510002003a0010c0b30021ecb70024
:10370800f1c12000914078000181fb00c0b9200080
:10371800097178008140e800010078001fecb700cb
:1037280010c8b30080cf500001003600228ca800da
:103738001eccbf001f4ce30073003a0040c0b3002a
:10374800c5ff3700f1c12000914078000181fb00de
:10375800c0b92000037178008140e80001007800ba
:103768001fecb70010c8b30080cf5000010036002e
:10377800228ca800f1c12000914078008180fb00d4
:103788001eccbf000080fb0064004000808f50000a
:103798005d003a0050c0b300afff3700e3cf5100df
:1037a80058003a00f1c12000914078008180fb0068
:1037b80064805000cab9200060447d0002fe2f00da
:1037c8004c44dd006380500060407d0000004100f3
:1037d8004800dd00000474000180e90060407d00bd
:1037e8000080fb00020040004400dd00000474007b
:1037f8008100e90061407d000080fb00020040007c
:1038080000047400e1c12000914078008180fb0031
:103818000001eb000a007800c2240200000000004a
:10382800800f540037003a001fccbf008080fb0097
:1038380089707d000040e8001fecb70011c8b30094
:10384800814f500001003600228ca800d0cfb30071
:103858001e6cb4008042eb008003eb0016003700ba
:103868000580fb00f4b9200060417a008541e8003a
:10387800fb4f51000c003a000183fb000380fb0062
:10388800e0407a0000cdb30000c0400085c1e800e8
:103898000004e00002003a0002737a0004003700d6
:1038a80000737a00020037000180fb0002707a0082
:1038b8008703e8008342780087407800e2c120004f
:1038c8001241780082cf5200e5ff390007c052004c
:1038d800004051001eecb700a1c2200091407800c2
:1038e8008180fb00b8c8bf000080fb004006b00024
:1038f800808f500001003a00226ca800226cab00b7
:1039080001003a00228ca800228cab000200320091
:10391800c0b92000f6fd07004f0578004f04be002f
:103928004f03be004f02be004f01be004f00be0055
:103938003600f90000400600000278008101780096
:1039480002c0e900e14f500009003e009180fb00f1
:10395800b0c1b30080707a001340e8008049780055
:103968000080fb0005c3b300854041000800370014
:103978001180fb00fb4f510007003a0002707a00eb
:103988001140e800804878000080fb0001c3b300c4
:1039980001707a000100370002707a009349e8004c
:0439a8000000060015
:020000040000fa
:1039ac000400fa00889fbe008a1f7800800478000b
:1039bc0020c0b300804c780002c2b30002c04000ab
:1039cc009044980030c0b300e0f79f008140e900bc
:1039dc00e3cf400001003e000000000042ce20007a
:1039ec0012417800ea80570009007800a01c020000
:1039fc0000000000e4ccbf00ec4f50000d00320082
:103a0c0005003e00ea4f5000c6003200eb4f50005c
:103a1c0074013a000c003700ef4f500010003200d8
:103a2c00f04f500058003200ed4f50006d013a003d
:103a3c002a013700f0d22000e3c1b30090cf11006f
:103a4c006801360004003700f0d22000e1c1b30059
:103a5c0090cf1000630136002a68ef006101370037
:103a6c0051ce20009140780064ce200014427800a2
:103a7c00c0c2b300b848e3001d003a008180fb00cf
:103a8c004820dd0001017000ea8057000900780031
:103a9c00a01c02000000000051ce200091407800d4
:103aac008180fb00e6ccbf004800dd000102700005
:103abc0002f02f0004016100030020004818dd0013
:103acc004811de0002017000c819de00ea805700c0
:103adc0009007800a01c02000000000072ce20003b
:103aec00124178000281fb00030020001400370013
:103afc008180fb004820dd0001017000ea80570046
:103b0c0009007800a01c02000000000051ce20002b
:103b1c00914078008180fb00e6ccbf004800dd00be
:103b2c000102700002f02f0004016100030020006c
:103b3c00c818dd004811de0002817000c819de00d3
:103b4c00ea80570009007800a01c02000000000069
:103b5c00edccbf000080fb00e2ce200012417800cb
:103b6c004811dd0000017100ea805700090078005f
:103b7c00a01c020000000000e2ce200012417800e0
:103b8c000281fb0013013700f1ccbf000080fb0069
:103b9c0022cf2000124178004811dd000001710095
:103bac00ea80570009007800a01c02000000000009
:103bbc0008f02f0022cf2000124178000281fb0078
:103bcc00ea80570009007800a01c020000000000e9
:103bdc0091ce200091407800a4ce200014427800b1
:103bec00c0c2b300b848e3001c003a008180fb005f
:103bfc004820dd0001017000ea80570009007800c0
:103c0c00a01c02000000000091ce20009140780022
:103c1c008180fb00eaccbf004800dd000101700090
:103c2c0002016400030020004818dd004811de008a
:103c3c0002017000c819de00ea8057000900780004
:103c4c00a01c020000000000b2ce2000124178003f
:103c5c000281fb0003002000130037008180fb0071
:103c6c004820dd0001017000ea805700090078004f
:103c7c00a01c02000000000091ce200091407800b2
:103c8c008180fb00eaccbf004800dd000101700020
:103c9c000201640003002000c818dd004811de009a
:103cac0002817000c819de00ea8057000900780014
:103cbc00a01c02000000000052cf2000124178002e
:103ccc00ea80570009007800a01c020000000000e8
:103cdc000005eb0068cf20001880fb001841900015
:103cec004811dd0000017100ea80570009007800de
:103cfc00a01c020000000000184190000281fb0093
:103d0c00ea80570009007800a01c020000000000a7
:103d1c000a05e8000884e800fc0f5500b1003200e9
:103d2c00edff3700f1ccbf000080fb0022cf20005c
:103d3c00124178004811dd0000017100ea80570043
:103d4c0009007800a01c02000000000008f02f0001
:103d5c0022cf2000124178000281fb00ea8057003c
:103d6c0009007800a01c02000000000091ce200089
:103d7c0091407800a4ce200014427800c0c2b30059
:103d8c00b848e3001c003a008180fb004820dd00ad
:103d9c0001017000ea80570009007800a01c0200a5
:103dac000000000091ce2000914078008180fb0043
:103dbc00eaccbf004800dd00010170000201640084
:103dcc00030020004818dd004811de0002017000dd
:103ddc00c819de00ea80570009007800a01c020018
:103dec0000000000b2ce2000124178000281fb00de
:103dfc0003002000130037008180fb004820dd0009
:103e0c0001017000ea80570009007800a01c020034
:103e1c000000000091ce2000914078008180fb00d2
:103e2c00eaccbf004800dd00010170000201640013
:103e3c0003002000c818dd004811de00028170006c
:103e4c00c819de00ea80570009007800a01c0200a7
:103e5c000000000052cf200012417800ea80570089
:103e6c0009007800a01c0200000000000005eb0017
:103e7c00120037000184fb000804440060cf2000ce
:103e8c00000444001880fb00184190004811dd002c
:103e9c0000017100ea80570009007800a01c0200a4
:103eac0000000000184190000281fb00ea805700de
:103ebc0009007800a01c0200000000008a40780075
:103ecc000a05e800f5ccbf000080fb000000d10023
:103edc0080cf5000e7ff39004200370052cf20005e
:103eec0012417800ea80570009007800a01c0200fb
:103efc000000000091ce200091407800a4ce20005c
:103f0c0014427800c0c2b300b848e3001d003a0068
:103f1c008180fb004820dd0001017000ea80570021
:103f2c0009007800a01c02000000000091ce2000c7
:103f3c00914078008180fb00eaccbf004800dd0096
:103f4c000102700002f02f00040161000300200048
:103f5c004818dd004811de0002017000c819de00af
:103f6c00ea80570009007800a01c02000000000045
:103f7c00b2ce2000124178000281fb000300200029
:103f8c00140037008180fb004820dd000101700027
:103f9c00ea80570009007800a01c02000000000015
:103fac0091ce2000914078008180fb00eaccbf00cc
:103fbc004800dd000102700002f02f0004016100d6
:103fcc0003002000c818dd004811de0002817000db
:103fdc00c819de00ea80570009007800a01c020016
:103fec00000000006ff097005042b000a044980011
:103ffc006ff1970065404100a04499008280fb005e
:10400c000001eb0009007800c2240200000000004f
:10401c00eff097008181fb004801de00cc00de0050
:10402c000142b00081f17c00eff197008340e80081
:10403c00e1f79f008180fb006f4161000242b000fc
:10404c0082f07c00eff097000141e800e2f79f005e
:10405c000281fb0080007800010fb200c488de00f2
:10406c000142b00001f17c006ff197008240e80042
:10407c00e1f79f008180fb006f4060000042b000c0
:10408c0080f07c00eff197000340e8000080fb001b
:10409c0031c0b30001f07c004f0578004f04be0026
:1040ac000080fa00000006000200fa008000780090
:1040bc0030409000e4ecb700f24f50001a00320090
:1040cc0003003e00f14f500032003a000e00370062
:1040dc00f34f50001f003200f44f50002d003a00f7
:1040ec00414090000080fb009045880051409000ba
:1040fc000080fb00a0458800614090000080fb0020
:10410c00b04588002300370041409000e0ff9f003d
:10411c00d1409000f1ff9f00efecb7000100780058
:10412c00f0ecb7001b003700c1419000e3ff9f008b
:10413c0051409000f0ff9f0003007800efecb700b7
:10414c007ff89700f0ecb700614090002eedb700bf
:10415c0010003700648040000001eb0061cf2000ac
:10416c0090417800e3ff9f0090419000f3ff9f0087
:10417c00eff9970083487800fff997009340980077
:10418c000201e8008180e8000080e800fc0f51008b
:10419c00f3ff3a0010c0b30029ecb7000080fa001e
:1041ac0000000600e4ecb7009a0ba8000000060023
:020000040000fa
:1041bc00e4a2a800e0a2a900f0c2a900f102a900a3
:1041cc00f0e2a80000000600e4a2a90060002000b4
:1041dc00ee2802000000000006290200000000008a
:1041ec0041138000e4a2a8000080fb000000060040
:1041fc00881f780000047800e4a2a9005000200079
:10420c00ee28020000000000062902000000000059
:10421c00401380000000eb00ee28020000000000bc
:10422c00062902000000000040138000e4a2a80050
:10423c00004c7800080078004f047800000006005d
:10424c000200fa00889fbe00800478000104780008
:10425c0066805700e6ff0700aff8970061c060006a
:10426c00fbff3a00d8ff0700e4a2a90020002000c1
:10427c00ee280200000000000629020000000000e9
:10428c00401380004840de00ee28020000000000d1
:10429c000629020000000000401380000880fb008b
:1042ac00ee280200000000000629020000000000b9
:1042bc004013800009007800ee2802000000000086
:1042cc00062902000000000040138000e4a2a800b0
:1042dc0065805700c6ff07003ff897000008a30051
:1042ec00fbff3a004f04be000080fa0000000600fd
:1042fc00889fbe008004780001047800b2ff07009c
:10430c00e4a2a90020002000ee280200000000001a
:10431c000629020000000000401380004840de0027
:10432c00ee28020000000000062902000000000038
:10433c00401380000880fb00ee2802000000000003
:10434c0006290200000000004013800009007800dc
:10435c00ee28020000000000062902000000000008
:10436c0040138000e4a2a8004f04be000000060029
:10437c00881f780000047800e4a2a9003000200017
:10438c00ee280200000000000629020000000000d8
:10439c00401380004840de00ee28020000000000c0
:1043ac000629020000000000401380000884fb0076
:1043bc0008007800ee280200000000000629020028
:1043cc0000000000401380000000eb00ee2802000b
:1043dc0000000000062902000000000040138000cd
:1043ec00e4a2a8004f04780000000600881f7800a3
:1043fc0000447800e4a2a90010002000ee2802007e
:10440c00000000000629020000000000401380009c
:10441c000884fb0008007800ee2802000000000071
:10442c00062902000000000040138000e4a2a8004e
:10443c004f04780000000600889fbe008a9fbe00d3
:10444c008105780002057800000478008004eb00f8
:10445c00070037000060fe006ac07c000080fb0093
:10446c008800780076ff07000804e8008904e8005b
:10447c008b8f5400f7ff39004f05be004f04be0070
:10448c00000006000200fa00889fbe008a1f780018
:10449c000004780001457800820478006880570099
:1044ac0053ff07008ff8970061c0600011002000d7
:1044bc0025003a0044ff0700e4a2a90020002000d8
:1044cc00ee28020000000000062902000000000097
:1044dc00401380004840de00ee280200000000007f
:1044ec000629020000000000401380000880fb0039
:1044fc00ee28020000000000062902000000000067
:10450c0080407800401380000004eb000900370065
:10451c0069407c000080fb00ee28020000000000d7
:10452c000629020000000000804078004013800043
:10453c000804e8000a80fb00800f5400f4ff3900e7
:10454c00e4a2a8008180fb00010078004f057800f0
:10455c004f04be000080fa0000000600889fbe00d9
:10456c008a9fbe008105780002057800000478005f
:10457c008004eb00060037000060fe0008007800a5
:10458c007bff070000f57c000804e8008904e800c4
:10459c008b8f5400f8ff39004f05be004f04be004e
:0445ac000000060005
:020000040000fa
:1045b0000003780081427800a0018000004278006a
:1045c00000002000a00188008001eb0008003700f7
:1045d0000080fb0060407b00004069000080fb0021
:1045e000016a280060c178000060fe008301e800d5
:1045f0000340780085cf5100f5ff39000480fb00af
:10460000a00188000280fb00000006005c6def0046
:1046100010c0b30056edb700556def000042eb003f
:104620008041780084427800dc62a900d862a90049
:104630007000200001003700000000000000e900c9
:10464000fdff3a00d862a800f10220000100370007
:10465000000000008100e900fdff3a00dac2bf005f
:104660000038a300010032000342720003c1410080
:10467000824178008542e800800d2000020037006a
:10468000000000008100e8000000e900fcff3a00a3
:10469000e7cf5200e4ff3600816b88000400780009
:1046a00055edb7000200780056edb7000500780020
:1046b0005cedb7000480fb0000000600889fbe0090
:1046c0008a1f78006e2def000045eb005e2def0095
:1046d000d862a80000642000d06a88008000eb0047
:1046e0008100e80010642000808f5000fcff3a0039
:1046f000dc62a900d862a9000000e900d06a880045
:104700008000eb008100e80010642000808f5000e2
:10471000fcff3a000000e900d862a800d06a8800d7
:10472000000178008000eb0004003700dac2bf000f
:104730008100e8000038a300610032000201e900b6
:1047400000642000808f5000f8ff3a00d26a880091
:1047500081d620005e0de2006f00320000c820000c
:10476000d06a88008000eb008100e80010c82000bb
:10477000808f5000fcff3a005aadef005c6def00f7
:1047800010c0b30056edb700804178000042eb0046
:1047900031c3b30001c0610015c0b300a201200005
:1047a00002003a0080427800020e2000dc62a9007c
:1047b000d862a9000000eb000200370000000000f2
:1047c0000000e800820f5000fcff3900d862a8000a
:1047d00000102000020050008000eb0002003700b3
:1047e000000000008100e800808f5000fcff3900cd
:1047f00083c04100814178000442e800e74f520045
:10480000e3ff3600c26a88008002fd0057edb70062
:104810008002fd008000fd0056edb7008000fd0025
:104820000002fd005cedb7000002fd00d06a8800c8
:10483000702def008000eb00000000008100e80018
:10484000f00f2000808f5000fbff3600816b880046
:104850000004eb00e9d620006cff070080407800e0
:104860005dedb70000d62000017478000840e90033
:10487000e54f500001003e00814c78000804e8003c
:104880008904e900e80f5400f3ff3a0001d6200044
:1048900091407800e1cf50000d00320010c8b30005
:1048a00080cf50000a00320081d6200080d8eb0073
:1048b000e0d62000808f5000fcff3a001400370043
:1048c000d26a880010002000f06a8800a0ff37003c
:1048d000546def000041eb0071c0b30000d6200022
:1048e00033ff070054edb70071d6200091407800e7
:1048f0000104e1000c00320081d62000e0ceb300bc
:1049000080587800e0d62000808f5000fbff3a00ee
:104910005e2def00040037008058eb00e0d6200049
:10492000808f5000fcff3a00f06a8000706b8800b6
:104930000a45e8000000e00002003a00e34f55009d
:1049400062ff3a004f0578004f04be0000000600e9
:104950005aff3700000178008000eb0080d620006d
:1049600060f178008100e800e68f5000fbff3a001c
:04497000000006003d
:020000040000fa
:10497400a00020000000e900feff3a00000006004d
:10498400881f780000047800810378008201780091
:10499400a00180000043780000002000a0018800ee
:1049a4006022b8000b0037004819de000400440000
:1049b40010c069000080fb0000004000014a28008c
:1049c40060807800800169000060fe00610242009e
:1049d400e0824a006138b800800f5200818f5a008b
:1049e400f1ff39000680fb00a00188000300780075
:1049f4004f047800000006006c270200000000004d
:104a04000001be00f0ff2f00f10f2000000069003c
:104a140081806900010070000000cf000000ea00fe
:104a24004f00de006200100000000600881f7800be
:104a3400bac8bf00e14f500022003a009408e200d7
:104a440014003a00a17f8000a00a2000808f50004b
:104a5400100032002f6def00b868ef00e8d320009b
:104a640000c0eb00984f10000a003a00864de200a7
:104a740004003a0040c0220001002000deff0700cd
:104a840086edb70080c0eb0098cf100001003a001b
:104a94003e6def00bac8bf00e14f500009003a0074
:104aa400a0448000e10f50002b003a009e08e20071
:104ab40029003a009428ef00aa0802000000000030
:104ac40025003700e24f500018003a00a17f800013
:104ad400a00a2000808f5000020032002d48e2001e
:104ae4000300320050052000808f50001a003a0065
:104af400e8d3200000c0eb00984f100016003a00e5
:104b0400864de20004003a0040c02200010020006b
:104b1400b9ff070086edb70080c0eb0098cf100006
:104b24000d003a003e6def000b003700e54f5000da
:104b340009003a002f6def00b868ef00e0d32000c1
:104b440080c0eb0090cf100003003a003e6def00f0
:104b540010c0b30086edb700a08b200021c0b300c5
:104b640090cf100002003a0010002000a0448800fa
:104b74004f047800000006009404a9002021ef00ef
:104b84001ca1ef008780a9009780a90083e0a900f9
:104b9400042c0400000000000000060083e0a800cc
:104ba400103a8000f00bb20063042000720520006c
:104bb4002174200083487800824878008048780077
:104bc400a6c6bf0001ccb30001406000a040b30002
:104bd400a6e6b700a3c6bf00014060003040b300a2
:104be400a3e6b700acc6bf0001406000a041b3001b
:104bf400ace6b700d1c6bf00014060005040b3002e
:104c0400d1e6b700ccc6bf0001406000c041b3008c
:104c1400cce6b700d5c6bf0001406000b040b30089
:104c2400d5e6b700d3c6bf0001406000a040b30082
:104c3400d3e6b700103a80000060a0002174200081
:104c44008348780082487800804878009c280200d5
:104c5400000000008a08020000000000981802000a
:104c640000000000d228020000000000de20020044
:104c740000000000c068ef0010c0b300bae8b7003d
:104c84003aedb700866def00aa28ef002d68ef001b
:104c94009428ef00ec02a800e802a9003eedb7005a
:104ca4002a68ef002968ef0020002000c07f8800f8
:104cb40010002000d07f880020002000604588007c
:104cc400ae28ef001000200080458800a828ef00df
:104cd4000060fe00a14480000180880053ff0700ab
:104ce4009011020000000000d8180200000000002b
:104cf400682802000000000060d8200011c0b30042
:104d040090cf1000f2ff3a009bff0700000005005f
:020000040000fa
:104d14000000060000000600dcccbf007f406000fd
:104d2400e14f500059003a0002ce200012417800b1
:104d34000204e00055003a00ddccbf00e64f50000d
:104d440025003a00f1cd2000914078007c404000dd
:104d540080cf5000100032000040e80080cf5000a7
:104d64001b00320000c0e90080cf50001a003a0056
:104d740020c5200011c0b30090cf100016003a00e7
:104d8400608328004decb7004800de004eecb7000d
:104d940090c0b3000900370020c5200011c0b30043
:104da40090cf10000c003a00807a28004decb70038
:104db4004800de004eecb700d0c1b30050ecb700a1
:104dc4000200780051ecb70000ccb30001003700ba
:104dd40000c8b3004fecb700dcccbf000046b20003
:104de40001c2b300814f500028003a00ddccbf005f
:104df400e34f50001700320003003e00e24f500022
:104e040022003a0005003700ea4f50000c0032003f
:104e1400eb4f50001d003a0018003700d0ff20006f
:104e24004decb7004800de004eecb70010c0b300f4
:104e340050ecb700516cef0010ccb3000d003700fc
:104e440000c8b3004fecb700dfccbf00fdefb700e4
:104e540000000600c0ff20004decb7004800de0053
:104e64004eecb70010c0b30050ecb700516cef002b
:104e740010c8b3004fecb7000000060000c8b30030
:104e84004fecb700deccbf00fcefb700000006001b
:020000040000fa
:104e940034002400043b8800910188000208bb0010
:104ea4000388bb001000fc0050052000303b880044
:104eb400a00a2000303b880061e7a8000000000041
:104ec400000000006147e200feff350061c7a90051
:104ed400000006000400fa00e0bf9f00f1bf9f003d
:104ee400910180007fb89700900188006fb8970007
:104ef4009081ba001001ba00910188000200be003e
:104f04000080fa0000000600881f78000003be003d
:104f14008202780030002400003b88000002eb008d
:104f24001200370004004300e0804b009101880028
:104f34001308bb00130190000288bb000482e80040
:104f44001000fc0058052000383b8800a80a200007
:104f5400383b880061e7a800000000000000000062
:104f64006147e200feff3500e4814100850f5200f5
:104f7400ecff390061c7a9004f0478000000060067
:104f84000080fb00010020004a09dd00c601de00ac
:104f9400830171004a01dd0020042400003b8800e5
:104fa4000380fb00900188000080eb000009bb0037
:104fb4001000fc0050052000303b8800a00a2000af
:104fc400303b880061e7a8000000000000000000fa
:0c4fd4006147e200feff3500000006000f
:020000040000fa
:104fe000e40c00005000000000000000800d0000f4
:104ff00006000000020000000100000000000000a8
:10500000fa0900001a01000000000000f60f00007d
:105010000200000000000000880d000004000000f5
:1050200000000000860d00000200000002000000e9
:105030000100000000080000fa010000000000006c
:10504000001000000200000002000000000000004c
:10505000f80f000004000000020000000000000043
:1050600000000000140b0000180100000000000008
:10507000540d00001e00000000000000720d000032
:105080000e000000020000006400020000c80000e2
:1050900002000a00000a000064000000340d000055
:1050a00020000000000000002c0c0000b8000000f0
:1050b00000000000000e00001000000000000000d2
:1050c000fc0f0000040000000000000000000000d1
:020000040000fa
:1050d0009780a900a2698000926a88009780a80042
:1050e00061d3200023d7200020c0b300914f1000cf
:1050f00005003a001100900000005100930f50008d
:105100000100390080c8eb0010c0b300914f1000bf
:1051100003003a009200980020c0b3008048780055
:10512000e48040008381e80020d52000808f50007b
:10513000edff3a0000000600000120000009880091
:1051400000e22400e008880087c0a9009780a8003a
:10515000000028002021b700342def0000000600d9
:1051600000a0fe003400f800881f780008c0b300db
:10517000a80188004f04780097c0bf000048a30032
:105180000500320087c0bf000048a30002003200c3
:105190008780a900342dec003400f9000080fe0067
:0451a00000400600c5
:020000040000fa
:1051a4008000eb0001138800d00120001013880058
:1051b40062a2a800211388006342a9006302a90027
:1051c40062c2a8006322a8009820a9008820a90030
:1051d40061e2a80000000600000178008040eb00b6
:1051e40060c2bf000018a30002003a004213880006
:1051f400000005008140e80000c8b30080cf5000e3
:10520400f7ff3a00100005008040eb0060c2bf00c9
:105214000008a30001003200000005008140e800fe
:1052240000c8b30080cf5000f8ff3a00200005000a
:020000040000fa
:045234000000fe0078
:00000001FF
