:020000040000fa
:082e0800ae17040000000000f9
:020000040000fa
:102f5c000fd1200080ff200000018800000000003d
:102f6c000a00070011000700000020000000e0002c
:102f7c00020032000000020000000000384a02008b
:102f8c00000000000040da000000fe004440a900f0
:102f9c00008120000000e00003003200000020004f
:102fac00a00188004440a80000000600e09924001d
:102fbc00010020001600370062004000e08048004d
:102fcc00910188009001ba0062004000e080480046
:102fdc00910188009002ba0062004000e080480035
:102fec000002eb006028e10005003a008301e900d3
:102ffc0007003300038009000059eb000400370080
:10300c006128e100010032000082eb00050007009e
:10301c00910188001001ba000200e000e6ff3a00be
:10302c0000000500910188008002780062004000d9
:10303c00e08048003559ba008301e90008003200ed
:10304c002559ba008301e900050032000400e000b4
:10305c00f4ff320015d9ba008301e900f1ff3a0000
:10306c00000006000000000000000000000000004e
:10307c00000000008001eb00020037008171780035
:10308c008301e800828f5100fcff3a00000006002b
:10309c00839f68000100e00002003d00600010000a
:1030ac00e08018000300e00002003d006001110008
:1030bc00e08119005a0107004f00e00002003b00bc
:1030cc0060001000e080180000000600020ab90041
:1030dc00001bb9000200b8008100420081004300cf
:1030ec0000000600889fbe008a9fbe000105780084
:1030fc000100e0000400350008003c000000e00086
:10310c00200032000500370060001000e08018003d
:10311c0002003b0001f02c001a0037000004be0036
:10312c006011b8006b0920000982cf000200390041
:10313c000882cf000441b000694252000e003200f8
:10314c0008003b0082817100610164008904d10098
:10315c000884d3008b05e8000442e800f9ff3a002c
:10316c00050037000804440089844c008b05e900f5
:10317c000442e900fbff3a00390107000af0a700fe
:10318c0001f0a0004f05be004f04be000000060079
:10319c00889fbe008a9fbe008c1f780056010700d6
:1031ac005d01330003866c006450e10024003200a2
:1031bc006420e100270032006150e100220032005f
:1031cc006120e100210032008b854200eb07b10049
:1031dc000134b800003ab8000804420089844a005f
:1031ec00013ab8000030b8008880400009014a005c
:1031fc0004003300000040008180480002014900b7
:10320c008b05e900c909dd00830170000100320063
:10321c0013002000c814de004814dd004709de004e
:10322c001200b200c808de00088470000c01070010
:10323c0001f0a1000cf0a70001f0a0003f01370045
:10324c006120e100410132000801be000200be0015
:10325c00f7ff37006150e100fcff3a003b013700fb
:10326c00889fbe008a9fbe008c1f78002201070039
:10327c002901330003866c006450e1002e003200fb
:10328c006420e100330032006150e1002f00320075
:10329c006120e1003100320085855500eb07b0005c
:1032ac000900200008042000050037000804440031
:1032bc0089844c000a0031000603430087834b00cd
:1032cc000001530081815b00f8ff33000203be0054
:1032dc000800a0000804440089844c00f6ff390063
:1032ec00c639dd0083017300010032001300200099
:1032fc008904d1000884d3000998a300050032008a
:10330c000800a7000300a0008904d1000884d300a2
:10331c008b05e8008904d1000884d3000001eb0080
:10332c000281d200ce00070001f0a1000cf0a70032
:10333c0001f0a000010137006420e100030132001c
:10334c000801be000200be00f7ff37006120e1005b
:10335c00fe0032006000b800f3ff370000002000d0
:10336c0001f82700f0ff37000001be00fa0007004b
:10337c000470a70003f0a10003f8a30013003a00a7
:10338c006509b10010003200090035006928e10020
:10339c00020035000100280000000500000040007c
:1033ac00818048008502e900fcff3a00000006001d
:1033bc00f88f4200050035008100d1000080d30059
:1033cc008502e800fcff3a00000006008000eb00dc
:1033dc000000050003f0a200889fbe008a9fbe007b
:1033ec008c1f7800c4000700cb0033006450e10050
:1033fc004f0032006420e1005200320003826c0066
:10340c0007003b000905d0000306d000820f5400d2
:10341c000c065d00020039000200320089017800c0
:10342c00030678008582550004003d000003fd0072
:10343c008103fd008502ea008b854200840f720037
:10344c0002003b0060001000e08018006011b80022
:10345c000005eb007a28e1000a003900060078002c
:10346c00c75ddd00f707b200878075002d003700bf
:10347c00828171000a017800610560008180d100b1
:10348c000080d3008502e900f9ff3b0006044000f0
:10349c008784480002003b0060041400e0841c0098
:1034ac000988a300070032008a81710082817100b3
:1034bc00610164008904d1000884d3008b05e80005
:1034cc00170037000978a30013003a000b00e00046
:1034dc00130034008b05e9000804440089844c0077
:1034ec000a4474000978a3000d003a000b00e000b8
:1034fc00070034008b05e9000804440089844c0063
:10350c0001003a000b0020000978a300f7ff3200fd
:10351c000001eb0002003700828171000a01780083
:10352c004f0007000cf0a70001f0a000830037004b
:10353c006420e10002003a00838f6c0083003300aa
:10354c000801be000200be007c003700889fbe0050
:10355c008a9fbe008c1f78000004be007e0007000e
:10356c000478a30026003a006120e1002500320017
:10357c0009f8a30025003a006420e1002100320084
:10358c00f507b1000508a30002003200000040005e
:10359c00818048006044b800031020000200200025
:1035ac0000004000818048000805440089854c00db
:1035bc000a0541008b8549000a0550008b8558008f
:1035cc00030033000a00be000204740083847400fc
:1035dc008301d1000281d300830f7100f0ff3a0008
:1035ec008904d1000884d30060014900820178006d
:1035fc00c1adde00fb07b000190007004f0037001b
:10360c000960a0000800be004c0037001202200028
:10361c00124f8800f0ff2f00f1ff27004700370002
:10362c006022b800060220000000d0008180d20089
:10363c000482d2008582d2000000a0000202520057
:10364c0083825a00030031000202420083824a0046
:10365c000000a1000603e900f3ff3a000000060099
:10366c0081002000618055000b003d000b00200004
:10367c0061fe2f000100e1001d0034008281710009
:10368c00610164008904d1000884d3000000e800c3
:10369c00faff3a0071002000610064000300700022
:1036ac00020060000900320061044400e0844c0018
:1036bc000988a500050032008b05e8006808e100c8
:1036cc0002003a008904d1000884d300f20f2000d4
:1036dc000258e10005003d00c75ddd00f907b200ae
:1036ec008980750008007800000006000bf82700a0
:1036fc008b007800000005000004be0016000700d7
:10370c000003be000405be000200be00120007004c
:10371c00844f7500000006000200be006450e100fa
:10372c00050036006420e100020036000968a300a1
:10373c0001003a000800be000160a0004f067800ae
:10374c004f05be004f04be0000000600f0ff2f0026
:10375c00f1ff2700f9ff3700c70ade00f107b200be
:10376c00f50fb20008003200e1cf42000200320037
:10377c000170a00024000500810f700001003200d0
:10378c000408050044000500810f700002003a0097
:10379c00140005008502e9000000400081c04800cb
:0c37ac00fcff3b000170a00024000500a1
:020000040000fa
:0200000401f009
:04000000ffff0000fe
:020000040000fa
:0200000401f009
:04000800fdff0000f8
:020000040000fa
:0200000401f009
:04000c0078ff000079
:020000040000fa
:0200000401f009
:040010005dff000090
:020000040000fa
:0200000401f009
:0400140064ff000085
:020000040000fa
:0200000401f009
:04001800ffff0000e6
:020000040000fa
:0200000401f009
:04001c00ddff000004
:020000040000fa
:0c2e3400d83b0400000000000000060075
:020000040000fa
:0c2e48001a3c040000000000000006001e
:020000040000fa
:0c2e7800ec3d040000000000000006001b
:020000040000fa
:0c2f2400983d04000000000000000600c2
:020000040000fa
:0c2f5000c23d040000000000000006006c
:020000040000fa
:0c2e6000624104000000000000000600b9
:020000040000fa
:0c2e5400e4410400000000000000060043
:020000040000fa
:042e040000000000ca
:020000040000fa
:1037b800ff7f0000fd7f0000f97f0000f57f00001b
:1037c800f07f0000e97f0000e17f0000d87f000063
:1037d800cd7f0000c17f0000b47f0000a67f0000fd
:1037e800977f0000867f0000747f0000617f0000e3
:1037f8004d7f0000377f0000217f0000097f000017
:10380800ef7e0000d57e0000b97e00009c7e00009f
:103818007e7e00005f7e00003e7e00001d7e000070
:10382800fa7d0000d57d0000b07d0000897d000094
:10383800627d0000397d00000e7d0000e37c000001
:10384800b67c0000887c0000597c0000297c0000c0
:10385800f87b0000c57b0000917b00005c7b0000ca
:10386800267b0000ee7a0000b67a00007c7a000021
:10387800417a0000057a0000c879000089790000c3
:103888004a79000009790000c778000084780000b0
:103898003f780000fa770000b37700006b770000ec
:1038a80022770000d87600008d760000417600006f
:1038b800f3750000a575000055750000047500003b
:1038c800b27400005f7400000a740000b573000051
:1038d8005e73000007730000ae72000054720000af
:1038e800f97100009d71000040710000e270000055
:1038f8008370000022700000c16f00005e6f00003e
:10390800fb6e0000966e0000306e0000c96d00006e
:10391800616d0000f86c00008e6c0000236c0000e4
:10392800b76b00004a6b0000dc6a00006d6a00009b
:10393800fd6900008b69000019690000a668000095
:1039480032680000bc67000046670000cf660000d0
:1039580056660000dd65000063650000e86400004d
:103968006c640000ee63000070630000f162000008
:1039780071620000f06100006e610000eb60000001
:1039880068600000e35f00005d5f0000d75e000034
:103998004f5e0000c75d00003e5d0000b35c0000a4
:1039a800285c00009c5b00000f5b0000825a00004e
:1039b800f359000064590000d35800004258000031
:1039c800b05700001d5700008a560000f55500004a
:1039d80060550000c9540000325400009b53000099
:1039e8000253000068520000ce510000335100001d
:1039f80097500000fb4f00005d4f0000bf4e0000d5
:103a0800204e0000814d0000e04c00003f4c0000bb
:103a18009d4b0000fb4a0000584a0000b4490000d2
:103a28000f49000069480000c34700001c47000018
:103a380075460000cd450000244500007a4400008a
:103a4800d0430000254300007a420000ce41000028
:103a58002141000073400000c53f0000173f0000ef
:103a6800683e0000b83d0000073d0000563c0000dd
:103a7800a53b0000f23a0000403a00008c390000f3
:103a8800d9380000243800006f370000ba3600002b
:103a9800043600004d35000096340000df33000086
:103aa800263300006e320000b5310000fb30000004
:103ab80041300000872f0000cc2e0000112e00009e
:103ac800552d0000992c0000dc2b00001f2b000056
:103ad800612a0000a3290000e5280000262800002c
:103ae80067270000a8260000e82500002825000018
:103af80067240000a6230000e5220000232200001e
:103b0800612100009f200000dd1f00001a1f000037
:103b1800571e0000931d0000cf1c00000b1c000066
:103b2800471b0000821a0000be190000f9180000a7
:103b3800331800006e170000a8160000e2150000f8
:103b48001c150000551400008f130000c812000057
:103b5800011200003a11000072100000ab0f0000c3
:103b6800e30e00001c0e0000540d00008c0c000039
:103b7800c40b0000fb0a0000330a00006a090000b9
:103b8800a2080000d907000011070000480600003d
:103b98007f050000b6040000ed03000024030000c8
:103ba8005b02000092010000c90000000000000054
:103bb80000000000c1c0000081c1000040010000f9
:103bc80001c30000c00300008002000041c20000e1
:103bd80001c60000c00600008007000041c70000c1
:103be80000050000c1c5000081c4000040040000b9
:103bf80001cc0000c00c0000800d000041cd000089
:103c0800000f0000c1cf000081ce0000400e000070
:103c1800000a0000c1ca000081cb0000400b000070
:103c280001c90000c00900008008000041c8000068
:103c380001d80000c01800008019000041d9000018
:103c4800001b0000c1db000081da0000401a000000
:103c5800001e0000c1de000081df0000401f0000e0
:103c680001dd0000c01d0000801c000041dc0000d8
:103c780000140000c1d4000081d5000040150000e8
:103c880001d70000c01700008016000041d60000d0
:103c980001d20000c01200008013000041d30000d0
:103ca80000110000c1d1000081d0000040100000c8
:103cb80001f00000c03000008031000041f1000038
:103cc80000330000c1f3000081f200004032000020
:103cd80000360000c1f6000081f700004037000000
:103ce80001f50000c03500008034000041f40000f8
:103cf800003c0000c1fc000081fd0000403d0000c8
:103d080001ff0000c03f0000803e000041fe0000af
:103d180001fa0000c03a0000803b000041fb0000af
:103d280000390000c1f9000081f8000040380000a7
:103d380000280000c1e8000081e9000040290000d7
:103d480001eb0000c02b0000802a000041ea0000bf
:103d580001ee0000c02e0000802f000041ef00009f
:103d6800002d0000c1ed000081ec0000402c000097
:103d780001e40000c02400008025000041e50000a7
:103d880000270000c1e7000081e60000402600008f
:103d980000220000c1e2000081e30000402300008f
:103da80001e10000c02100008020000041e0000087
:103db80001a00000c06000008061000041a1000077
:103dc80000630000c1a3000081a20000406200005f
:103dd80000660000c1a6000081a70000406700003f
:103de80001a50000c06500008064000041a4000037
:103df800006c0000c1ac000081ad0000406d000007
:103e080001af0000c06f0000806e000041ae0000ee
:103e180001aa0000c06a0000806b000041ab0000ee
:103e280000690000c1a9000081a8000040680000e6
:103e380000780000c1b8000081b900004079000096
:103e480001bb0000c07b0000807a000041ba00007e
:103e580001be0000c07e0000807f000041bf00005e
:103e6800007d0000c1bd000081bc0000407c000056
:103e780001b40000c07400008075000041b5000066
:103e880000770000c1b7000081b60000407600004e
:103e980000720000c1b2000081b30000407300004e
:103ea80001b10000c07100008070000041b0000046
:103eb80000500000c19000008191000040510000b6
:103ec80001930000c053000080520000419200009e
:103ed80001960000c056000080570000419700007e
:103ee80000550000c1950000819400004054000076
:103ef800019c0000c05c0000805d0000419d000046
:103f0800005f0000c19f0000819e0000405e00002d
:103f1800005a0000c19a0000819b0000405b00002d
:103f280001990000c0590000805800004198000025
:103f380001880000c0480000804900004189000055
:103f4800004b0000c18b0000818a0000404a00003d
:103f5800004e0000c18e0000818f0000404f00001d
:103f6800018d0000c04d0000804c0000418c000015
:103f780000440000c1840000818500004045000025
:103f880001870000c047000080460000418600000d
:103f980001820000c042000080430000418300000d
:103fa80000410000c1810000818000004040000005
:103fb80001020000040800001020000040800000fa
:020000040000fa
:103fc800e6874700889fbe008a9fbe008c9fbe0080
:103fd8008e1f78000004780020c0b300004c7800e1
:103fe80040c8b30080c04000114498003bc0b300f3
:103ff800ebef9f002ab120000a499000f280570099
:1040080008007800fe43020000000000e9b020002c
:1040180019417800f280570008007800fe4302003a
:104028000000000039419000f28057000800780035
:10403800fe4302000000000042c0b300f2805700b7
:1040480008007800fe430200000000000041eb0079
:10405800f280570008007800fe43020000000000cc
:104068000b417800f280570008007800fe430200f8
:10407800000000004a419000f280570008007800d4
:10408800fe430200000000000cf02f000d0020008d
:10409800b25880000c016100030020004818dd00c0
:1040a8004811de0002017000c819de00f2805700d6
:1040b80008007800fe43020000000000fe0f200008
:1040c800c25880000e01610003002000f2805700f2
:1040d80008007800fe43020000000000c25880007b
:1040e8000c01610003002000c818dd004811de0043
:1040f80002817000c819de00f280570008007800bd
:10410800fe4302000000000019cf2000994178000a
:1041180061c16100f280570008007800fe43020088
:1041280000000000a0ac200010417800f280570089
:1041380008007800fe430200000000001981fb001f
:104148000201d10061416100f28057000800780047
:10415800fe43020000000000c0ac200010417800bf
:10416800f280570008007800fe43020000000000bb
:10417800625680000c01610003002000481add002f
:104188004811de0002017200c899de00f280570073
:1041980008007800fe430200000000006fe8970066
:1041a8005042b00020449800efe8970065c04000f6
:1041b800407c98008180fb000d01780008007800a1
:1041c800aa41020000000000c801de00efe89700e5
:1041d8000182fb00020f200083006100c488de001a
:1041e8000142b00001727c006fea97008440e80049
:1041f800e1ef9f008180fb00efc161000342b00046
:1042080083707c00efe997008340e800e1ef9f00ae
:104218000e4060008180fb00000161004491de00d7
:104228000242b00082707c006fea97008440e80088
:10423800e1ef9f008180fb006f4060000042b0000a
:1042480080707c00efe897000140e8000080fb00e8
:104258000b707c004f0778004f06be004f05be006c
:104268004f04be006f00b100000006000600fa000f
:104278000002780020b12000b44090000148980066
:10428800c440900001689800004890000080fb003e
:104298000100200062005000e0805800ff0f50002d
:1042a800e08f580032013e00006001003200370004
:1042b800be0037001501370042003700bb00370049
:1042c800120137003f00370010013700280137007e
:1042d8002701370026013700250137002401370060
:1042e8003c00370022013700210137002001370048
:1042f8001f0137001e0137001d0137001c01370060
:104308001b0137001a01370019013700180137005f
:10431800170137001601370015013700140137005f
:1043280013013700010037000600370040c1b30011
:10433800e1b02000804878000000eb00805588003c
:104348000b0137005168800000f02f001100600059
:1043580005003a0011007800000fb20051c1b30007
:10436800f00f50000100320061c1b300e0b020003e
:1043780001487800fe00370054409000a0ff9f00dd
:10438800e4409000b1ff9f005fb89700e0588800b4
:10439800f4409000a1ff9f0004489000b0ff9f00e8
:1043a800dfb89700f158880014489000a0ff9f00dc
:1043b800244a9000b4ff9f00dfb89700b1598800e5
:1043c800eb00370020b12000544290002458980098
:1043d800e700370054409000a0ff9f00e4409000a1
:1043e800b1ff9f005fb89700cf80de00406588006e
:1043f8005165880074409000a0ff9f008448900099
:10440800b1ff9f005fb89700cf80de00206588006d
:104418003165880014489000a0ff9f00a4489000d0
:10442800b1ff9f005fb8970030648800b4489000df
:10443800a1ff9f0044489000b0ff9f00668157008d
:1044480032007800cf80de00406488005164880024
:10445800d44890000149780064489000d0ff9f003c
:10446800f44890002141980004509000f0ff9f000c
:1044780023b1200012007800920090009059880023
:10448800a159880094509000a1ff9f0024509000eb
:10449800b0ff9f00dfb89700b159880034509000f2
:1044a800a0ff9f00c4509000b1ff9f005fb8970025
:1044b80080598800d4509000815998006450900029
:1044c80090599800f4509000a1ff9f000458900064
:1044d800b0ff9f00dfb8970011598800145890006a
:1044e800a0ff9f00a4589000b1ff9f005fb89700fd
:1044f80030598800b4589000a1ff9f00445890009c
:10450800b0ff9f00dfb897002159880054589000e9
:10451800a0ff9f00e4589000b1ff9f005fb897008c
:1045280070598800f4589000a1ff9f000460900023
:10453800b0ff9f00dfb897004159880014609000d1
:10454800a0ff9f00a4609000b1ff9f005fb8970094
:10455800f0588800b4609000a1ff9f00446090006c
:10456800b0ff9f00dfb897000159880054609000a1
:10457800f061980064629000a45998001358900064
:104588000004e0007a003200105980000000e000ca
:1045980003003200305980000000e00074003a0047
:1045a8000040eb0090599800710037006480570074
:1045b800d440900001487800e4409000d1ff9f006b
:1045c800f44090002140980084489000f1ff9f003b
:1045d80021b12000100178009001900092598800c4
:1045e800a359880014489000a0ff9f002448900019
:1045f800b0ff9f005fb89700b0598800344890001a
:10460800a0ff9f0044489000b0ff9f005fb897004c
:104618008059880054489000805898006448900059
:104628009058980074489000a0ff9f000450900094
:10463800b0ff9f005fb89700105988001450900091
:10464800a0ff9f0024509000b0ff9f005fb8970024
:104658003059880034509000a0ff9f0044509000cb
:10466800b0ff9f005fb89700205988005450900011
:10467800a0ff9f0064509000b0ff9f005fb89700b4
:104688007059880074509000a0ff9f000458900053
:10469800b0ff9f005fb897004059880014589000f9
:1046a800a0ff9f0024589000b0ff9f005fb89700bc
:1046b800f058880034589000a0ff9f00445890009c
:1046c800b0ff9f005fb897000059880054589000c9
:1046d800f0609800645a9000a4589800115890000f
:1046e8000004e00022003200105980000000e000c1
:1046f80003003200305980000000e0001c003a003e
:104708000040eb009058980019003700d440900002
:10471800a1ff9f0064409000b0ff9f0022b12000dd
:104728005fb89700cf80de0090598800a1598800b3
:10473800f4409000a1ff9f0004489000b0ff9f0044
:10474800dfb89700b159880014489000a0ff9f0077
:10475800a4489000b1ff9f005fb897008059880077
:10476800b448900061619800444a90002459980028
:104778000080fa00000006000040eb00e1b02000d5
:1047880080487800a1b0200080487800000006002a
:1047980080407800e44f5000010034008040eb0076
:1047a8009460a900e0aa2000014878009460a8005d
:1047b80000000600881f7800c0c820001044780058
:1047c8000804e00003003200e14f540046003a00bc
:1047d8002000370000ac20001000e000420032004a
:1047e800105680000000e0003f0032002056800094
:1047f8000000e0003c0032000e3b02000000000018
:10480800e00f5000e08f5800040034000e3b020017
:104818000000000008417800050037000e3b020048
:10482800000000000841780060001000e0801800d7
:1048380003192000830f5000e08f58000100340056
:1048480022c0b30011c0b300c0c8200001487800de
:104858002600370000ac20001000e00022003a00db
:10486800105680000000e0001f003a002856800023
:104878000800e0001c003a000e3b020000000000a7
:10488800e00f5000e08f5800070034000e3b020094
:104898000000000002322000820f5000e08f580014
:1048a8000b003400080037000e3b02000000000037
:1048b80060001000e080180003322000830f5000d1
:1048c800e08f58000200340012c0b3000300370024
:1048d800cc3b02000000000008417800c0c820005e
:1048e8000048eb00010037000041eb000280fb00ac
:1048f8004f0478000000060083e0a80004020400ca
:104908000000000000000600889fbe008a1f780093
:10491800e0b0200010407800f44f500007003a0043
:1049280080558000e10f500093043a0083e0a8000e
:1049380004020400000000008f0437000080fb0020
:1049480001002000f30f5000e08f58008a043e0059
:1049580000600100130037001e00370027003700f1
:10496800ba003700c500370037013700d6013700d5
:10497800640437006d0437007a043700790437007f
:104988007804370077043700760437007504370059
:104998007404370073043700720437007104370059
:1049a80070043700100020003053880000c0eb006e
:1049b80077ff0700d402a900c0bc2000406890001f
:1049c800e14f40006c043a00e0b020001048e800d5
:1049d80069043700d05980000018a300660432002b
:1049e80021c0b300e0b020000148780011c0b30036
:1049f800c0bc2000415098005f043700e9b0200097
:104a080029409000e44f50005600320008003e0054
:104a1800e14f5000250032000e003900e24f5000ef
:104a28002c003200e34f50007d003a00310037007f
:104a3800e64f50005b00320055003900e74f500048
:104a48006d00320011c0b300e84f5000750032000d
:104a580073003700b05980000000e0000600320003
:104a6800f05880000000e00003003200e0588000a9
:104a78000000e00004003a00a1c0b300e0b020004c
:104a8800014878006600370000c0eb0040ff0700cf
:104a98000004eb00086488002e3a020000000000c1
:104aa800cc3b0200000000004e003700006480008c
:104ab8000000e80000648800e50f500002003c0098
:104ac80020c0b30055003700c0c0b300804c780048
:104ad8005300370002648000802520000091b9004f
:104ae800cf91de00e00120003c3a02000000000007
:104af80048003700d83a0200000000000004e00037
:104b0800470032000040eb00f63a020000000000c7
:104b180000ac20001000e0000900320010568000b0
:104b28000000e00006003200205680000000e0008f
:104b3800030032002940900000c0e9003700370028
:104b480011c0b300e0012000aa38020000000000f4
:104b5800e1b02000214090000040e800a04098000b
:104b68002f00370000ac20001000e0002c003200bd
:104b7800105680000000e000290032002056800016
:104b88000000e0002600320050c0b30023003700c8
:104b98008040eb00e0012000aa380200000000007d
:104ba8001c00370000ac20001000e0001c003a0098
:104bb800105680000000e00019003a0028568000d6
:104bc8000800e00016003a00cc3b0200000000009c
:104bd800e258800003002000e00120003c3a020077
:104be80000000000294090000040e800a044980020
:104bf800884078000b003700d83a02000000000017
:104c08000004e000060032000040eb00f63a020023
:104c180000000000294090000040e800a0449800ef
:104c28008040eb000104e00012003a00c0bc200004
:104c380040509000e14f4000cf033a00c1c0b3009c
:104c4800e0b0200001487800cb03370000c0eb003b
:104c5800cffe0700d402a900d83a020000000000e5
:104c68000004e000c40332000040eb00f63a020002
:104c78000000000041c0b300f1ff37002e3a0200e7
:104c8800000000001156800000ac20001000e00079
:104c9800070032000100e0000c00320020568000be
:104ca80011c0b3000000e00006003a00070037001a
:104cb8000100e00005003a00215680000100e000f4
:104cc80002003a00c0c820000148780000c0eb008c
:104cd800affe0700d402a900d15980007880600097
:104ce8000200320051c0b300d5ff37000128a300ed
:104cf800a103320020b12000005890000004e00019
:104d080015003a00f2588000030020000265880070
:104d1800136588001059800000005100e080590098
:104d2800e0648800f164880090598000a1598000ef
:104d3800000151008181590042658800536588004f
:104d48002059800001002000800f5100818f5900f8
:104d58003b0035001f043700e14f500022003a00a5
:104d6800f05880006103b800066588001765880060
:104d78006000b800a0648800b16488001059800001
:104d8800010020000001530081815b00e26488007b
:104d9800f3648800806488009164880094598000d6
:104da800a55980000401530085815b004265880095
:104db80053658800c4648800d56488002059800041
:104dc80001002000800f5100818f59001c00350020
:104dd8000000530081805b00800f5200818f5a00d1
:104de80017003c00fb033700e24f5000020032007e
:104df800e34f500010003a00f25880006110b800ec
:104e0800006588001165880040648000706488002f
:104e18002264880010598000000051000100200021
:104e2800e0648800f1648800905980000001510016
:104e380012648800e703370000000000feff370017
:104e4800d1c0b3007eff3700d05980000048a300ce
:104e580002003200d402a80001003700d402a900e1
:104e680054fe0700e14f50009a003200e24f500014
:104e78009c003200d0598000e100600090003a00a8
:104e88000038a3003c033200e4b020002440900026
:104e98000081fb0003002000e90f5100e08f59005a
:104ea8007d003e0004057800026001000b00370019
:104eb8000f0037006c00370010003700290037005a
:104ec80031003700510037005c00370066003700ba
:104ed8000000370010c0b300740037008000eb00fa
:104ee800f163880010c0b300204298006c003700be
:104ef800b05980006011b8001d00370000ac2000d8
:104f08001000e00006003200105680000000e000ab
:104f180003003200205680000000e00002003a0042
:104f280001c1b30029003700eab02000f163800016
:104f380080598000808f50000200310040c0b300cb
:104f48000f003700e258800003002000b0598000ad
:104f58003c3a0200000000002a40900065404000f2
:104f680007003700b059800092598000a35980008b
:104f78003c3a0200000000002a4090000040e8008f
:104f88002045980048003700d83a02000000000089
:104f98000004e000440032000040eb00f63a020052
:104fa8000000000000ac20001000e0000a00320001
:104fb800105680000000e0000700320020568000f4
:104fc8000000e0000400320011c1b300e0b020008e
:104fd800014878003400370020b12000606090005c
:104fe8000080fb0001002000421f20000300200079
:104ff8006c180200000000002062880011c0b30095
:10500800c0bc2000014898001e003700c0bc20002a
:1050180000489000e14f400023003a00b05980005a
:105028006011b8003c3a020000000000f063800004
:105038000000e800f063880012003700d83a020048
:10504800000000000004e000170032000040eb0000
:10505800f63a020000000000e1b020002140900074
:10506800644050000a003700d83a020000000000ef
:105078000004e0000c0032000040eb00f63a0200a9
:1050880000000000e1b02000214090000040e8004e
:10509800a040980004003700a0c0b300004a780080
:1050a80001407800010037000040eb000004e000f8
:1050b800b1023200d05980000048a300ae023a0085
:1050c80071c0b300defe3700bafd0700e14f5000a3
:1050d80002003a00b1c0b300d9fe3700e24f5000d9
:1050e80002003a00f1c0b300d5fe3700d059800065
:1050f800610460007d023a000028a3009e0232008d
:1051080020b12000005890000004e000d8003a00c8
:10511800e2b02000224090000080fb000100200047
:10512800ee0f5000e08f5800cc003e0002057800da
:10513800c9bc20000060010010003700bb00370028
:1051480016003700220037003100370042003700d0
:10515800b600370066003700b4003700810037001a
:10516800960037009c003700a5003700af003700d5
:105178000000370010c0b300460237000004eb00ff
:10518800e863880000c0eb0081fd0700c8ec9800c8
:10519800405980006011b8006a00370000ac200058
:1051a8001000e00006003200105680000000e00009
:1051b80003003200205680000000e000a2003a0000
:1051c80001c1b300e0b02000014878009e0037001c
:1051d800eab02000e163800080598000808f500091
:1051e8000200310040c0b30007003700e2588000d9
:1051f80003002000405980003c3a020000000000f3
:105208002a4090006b4040002045980096003700e7
:1052180000ac20001000e00009003a0010568000a1
:105228000000e00006003a00205680000000e00080
:1052380003003a0001c1b300e0b020000148780043
:10524800b059800002658000136580003c3a020076
:10525800000000007c0037000e3b02000000000048
:105268004265800053658000820f5000838f58008c
:105278007d003500c9bc200049ec90000804e0001e
:1052880006003a0010c0b300c0ec980040c0b3005c
:105298003ffd070008407800fe013700d83a0200b9
:1052a800000000000004e000070032000040eb00ae
:1052b800f63a020000000000e1b020002140900012
:1052c80000c0e800a040980049e89000e14f400085
:1052d80065003a00e1b02000214090000040e8005d
:1052e800a040980040c0b30029fd07005e003700c9
:1052f80000ac20001000e00006003a0010568000c4
:105308000000e00003003a00285680000800e00092
:105318000400320011c1b300e0b020000148780059
:1053280051003700eab0200020b12000105890004a
:105338000004e0000800320030598000e264800078
:10534800f36480003c3a0200000000002a4090000c
:105358000040e8000100370090c0b30020459800e5
:10536800ccff3700eab0200000c0eb0008fd0700c2
:105378000041eb00c2ec9800715980000100e00088
:10538800090032000100d1003062880010c0b3006b
:10539800c04c98002a4090000040e8002045980042
:1053a80002407800bb0137002a40900000c0e800a6
:1053b8002045980001407800b60137004948900020
:1053c800e14f400028003a00b1c0b300e0b020002f
:1053d8002140980024003700405980006011b8002f
:1053e8003c3a020000000000e06380000000e80092
:1053f800e06388002a4090000040e80020459800bb
:10540800d83a0200000000000004e0001600320054
:105418000040eb00f63a020000000000e1b0200076
:1054280021409000694050000a003700d83a020035
:10543800000000000004e0000b0032000040eb0018
:10544800f63a020000000000e1b020002140900080
:105458000040e800a040980003003700a0c0b30057
:10546800004978008bff37000040eb0089013700c6
:10547800e14f50008901320000c0e900e14f5000bf
:1054880086013e00e2b02000224090000080fb0030
:1054980001002000fa0f5000e08f580079013e000b
:1054a80002057800c9bc2000006001001c0037001c
:1054b800b500370067013700210037003200370098
:1054c80036003700460037004b00370088003700a9
:1054d8008b003700ac003700ae003700c300370040
:1054e800d20037005b013700dc003700ea003700e4
:1054f800fb003700570137000e0137005501370010
:1055080025013700360137003c01370046013700d6
:105518005001370000003700100020005d013700ff
:1055280070648000d06388000004eb00c8638800c2
:1055380000c0eb0096fc0700c8ec9800c4003700d8
:1055480000ac20001000e000a200320010568000dd
:105558000000e0009f003200205680000000e000bc
:105568009c003200eab02000d1638000a0c0b300e4
:105578000100e000170132000100e900d063880053
:1055880040c0b30026013700306480008040eb0043
:10559800aa380200000000001f01370000ac2000fc
:1055a8001000e0003a013a00105680000000e000c8
:1055b80037013a00285680000800e00034013a001c
:1055c800cc3b020000000000e1b020002140900028
:1055d8000040e800a0409800080078002d0137003e
:1055e8003064800002658000136580003c3a020048
:1055f80000000000080137000e3b02000000000018
:105608000001be00c06380000000e00012003a0004
:105618004065800051658000800f5100818f5900de
:105628000d003500c1bc200041e890000004e000f6
:1056380003003a0010c0b300c0e898000400370027
:10564800e14f40000e003a0010002000c0638800bf
:1056580040c0b30009003700d06380000000e000bc
:1056680007003a002065800031658000800f5100f6
:10567800818f59000200350000c0eb0044fc070090
:10568800d83a0200000000000004e00000013200e7
:105698000040eb00f63a02000000000000ac2000d9
:1056a8001000e00006003a00105680000000e000fc
:1056b80003003a00205680000000e000030032009a
:1056c80011c1b300e0b0200001487800eab0200022
:1056d800d16380000100e000020032000100e9000f
:1056e800cc0037002a40900063404000b9003700e2
:1056f80030648000e2ff2f00f3ff2f00bbff37006c
:105708000e3b0200000000000001be00d8638000cc
:105718000800e00009003a0020658000316580003b
:10572800800f5100818f590004003c0000c0eb003d
:1057380017fc0700c0bc200048e89800d83a0200cf
:10574800000000000004e000d1003200eab02000b0
:105758000040eb00f63a020000000000d163800030
:105768000100e000050032000100e900d063880074
:105778002a40900063405000a90037002a4090005a
:105788000040e80093003700405980006011b800dd
:1057980096ff3700d83a0200000000000004e0003d
:1057a800bb0032000040eb00f63a020000000000a7
:1057b80000ac20001000e000060032001056800007
:1057c8000000e00003003200205680000000e000e6
:1057d80002003a0001c1b30060003700e2588000bf
:1057e80003002000405980003a003700d83a0200f0
:1057f800000000000004e000a5003200eab020002c
:105808000040eb00f63a02000000000090598000ca
:10581800a1598000e00f5000e08f58007e003a0048
:105828002a4090006e4040007d0037000004eb00e5
:10583800d863880000c0eb00d5fb0700c8ec9800cf
:10584800405980006011b8003c3a02000000000096
:105858002a4090000040e8004d003700eab02000e0
:10586800d163800080598000808f50000200310091
:1058780000c1b3006a003700e2588000030020002e
:10588800405980003c3a0200000000002a40900085
:105898006b4040006200370000ac20001000e000c0
:1058a80009003a00105680000000e00006003a00a7
:1058b800205680000000e00003003a0001c1b30058
:1058c800e0b0200001487800226480000300200036
:1058d800b05980003c3a0200000000006400370024
:1058e8000e3b02000000000012648000030020004c
:1058f800820f5000838f580065003500c1bc20001e
:1059080041e890000004e00005003a0010c0b30030
:10591800c0e8980040c0b3009dfb07005c0037005a
:10592800e14f40005a003a0040c0b30098fb07001e
:105938004f00370000ac20001000e00006003a00dd
:10594800105680000000e00003003a00285680004e
:105958000800e0000400320011c1b300e0b02000ec
:10596800014878004a003700eab0200020b1200042
:10597800105890000004e000040032003059800004
:10598800e2648000f3648000afff370050c1b300c9
:105998002045980010ff3700eab0200000c0eb0057
:1059a8007bfb07000040eb00c0ec980071598000b9
:1059b8000100e000050032000100d10030628800db
:1059c80010c0b300c04c9800130037002a40900064
:1059d80000c0e80020459800010078002d0037003d
:1059e80049489000e14f400029003a0071c1b300d6
:1059f800e0b0200021409800250037004059800081
:105a08006011b8003c3a020000000000d06380003a
:105a18000000e800d06388002a4090000040e800b9
:105a2800204598001a003700d83a0200000000000c
:105a38000004e000160032000040eb00f63a0200d5
:105a480000000000e1b020002140900069405000b3
:105a58000a003700d83a0200000000000004e00005
:105a68000b0032000040eb00f63a02000000000094
:105a7800e1b02000214090000040e800a0409800dc
:105a880003003700a0c0b30000497800d2fe3700f9
:105a98000000eb000084fb00010037002800200014
:105aa800e14f540013003a0020b12000f06090004c
:105ab8000104e0000d003200c9bc200049c090007c
:105ac8000004e00009003a00d402a8000180fb00ad
:105ad80001002000421f2000030020006c18020073
:105ae8000000000010638800c8c4980081c0b3009b
:105af80053fc3700a1c0b300e24f540050fc320001
:105b08001d003700d05980000008a3001a00320099
:105b1800e258800003002000e00120003c3a020027
:105b28000000000031c0b30045fc3700d0598000a8
:105b38000008a30010003200e25880000300200093
:105b4800e00120003c3a02000000000031c0b30030
:105b5800e0b020000148780000c0eb000cfb070013
:105b6800050037002e3a02000000000000c0eb00dc
:105b780007fb0700d402a900c8bc200048c0900059
:105b8800e14f400003003a000040eb0040c4980099
:105b9800d402a900a0ab20001004e0001f003200ce
:105ba8002e3a02000000000008e890000004e0001f
:105bb80003003a0010c0b30000ec9800170037004b
:105bc800e14f400015003a000436020000000000d2
:105bd80094508000c0a12000104078007040600000
:105be8000600320062508000735080000400780084
:105bf8003c3a0200000000000500370000a1200028
:105c08009040780004007800aa38020000000000e4
:105c18008040eb00c0bc200001e8980010cf2000b5
:105c2800104078006840600007003a00c0bc2000bf
:105c380000609000e14f400003003a0021c1b3002a
:105c4800e0b020000148780023ab200093407800a2
:105c5800e1cf50001200320003003900e2cf5000bb
:105c680043003a001f003700c1bc20000040eb0091
:105c780080509800c0709800d2c2bf000018a300de
:105c88003b003a00d2c2bf000008a30038003a0027
:105c980010c0b30080509800804978003400370065
:105ca800d2c2bf000018a30003003a00d2c2bf004e
:105cb8000008a300020032008049eb002c003700e6
:105cc800c2bc200002509000e14f400028003a007a
:105cd80020c0b3008049780041e19800c4e2a900df
:105ce80023003700c1bc200041e09000e14f400094
:105cf80004003a0041709000e24f50000100320069
:105d0800c4e2a800d2c2bf000018a30003003a00f2
:105d1800d2c2bf00e14060000300320020ab200087
:105d28000048eb000f003700c9bc2000d3c2bf00f9
:105d38000008a3000d003a00497090000004e0003c
:105d480003003a0010c0b300c07498000800370080
:105d5800e14f400006003a0031c0b30020ab2000fc
:105d680001487800c4e2a80001003700c174980017
:105d780022ab200030c0b300924f100003003a005d
:105d880031c1b300e0b0200001487800e1b0200044
:105d98001104e00006003200d05980000078a3000a
:105da8000300320010c0b300804878000049eb00bf
:105db800e2b0200012407800a1b02000914f5000be
:105dc80006003200804878000040eb00204198002f
:105dd8000200370061c0b30099fb37004f05780017
:085de8004f04be00000006009c
:020000040000fa
:105df000889fbe000000e00001003d000000ea00b6
:105e0000cf80de0052002000030020004e18020068
:105e1000000000000004be00820c200003002000ef
:105e20006c180200000000001057880021578800fd
:105e300002552f00030020000800be006c1802006d
:105e4000000000008100d1000080d300b05788001e
:105e5000c157880078180200000000002295240035
:105e6000d3b12300ce18020000000000020024007d
:105e7000c3612400ce18020000000000024022008e
:105e8000439724003619020000000000ba190200ee
:105e9000000000000001be0090578800a157880054
:105ea000500b200001002000c0568800d156880009
:105eb00098ff27000900200078578800895788003c
:105ec0000200be006c18020000000000505788005d
:105ed000615788000001440081814c0004003300b8
:105ee0000200be0078180200000000000b0037001e
:105ef00061006100010020008301d1000281d30014
:105f0000020070008380700078180200000000001a
:105f10000001be00f219020000000000ac1a0200ed
:105f200000000000ba190200000000000001be00dd
:105f30003057880041578800e00f5000e08f58002c
:105f40000300350078180200000000000b00370045
:105f500061006000010020008301d1000281d300b4
:105f600002007000838070007818020000000000ba
:105f70000001be00f2190200000000000200200033
:105f800003092400ce1802000000000002002000d7
:105f9000832c2400ce18020000000000ba19020071
:105fa00000000000d0578800e157880002712200ed
:105fb000030020006c1802000000000002302500e1
:105fc00073002000161b020000000000f05788003c
:105fd00001588800983e2000090020000801be00fa
:105fe0006c18020000000000027122000300200073
:105ff000161b020000000000f056880001578800c0
:10600000923e2000820f5000e08f580002003600c0
:10601000f856880009578800f05680004f04be00eb
:106020000000060084cd2000e25480006611b90013
:10603000e0a520001080fb000200400000004000ae
:10604000e0017a004298de0040508800f054800061
:106050006600b900f2a520001281fb00000141009a
:1060600002014100c419dd0062007a008081410014
:106070005350880000000600889fbe008a9fbe0023
:10608000f9548000b9508800eb548000ab50880070
:10609000b7548000a5548000985480008a54800032
:1060a00041558000f01f2000808f500069003c00a7
:1060b0004155800014558000f00f2000808f500063
:1060c0003b003c004255800090528000020141009c
:1060d000c3bd2900628179000280b900cf89de004a
:1060e000410bdd004f01de00020173000203780066
:1060f0000000eb00b05088000400e0000500320012
:10610000305580000000e00002003c00820378006f
:106110006a003700c4bd2900f0a8200011c0b300f8
:1061200090cf100010003a0041558000925280003c
:10613000f00f2000010050000000400060007a00d5
:106140000091b9004118dd004f11de00020170001e
:10615000cf99de00020278000000eb00a05088001a
:1061600086037800b00037004155800092528000cd
:10617000f00f2000010050000000400060007a0095
:106180000091b900c118dd004f11de0002817000de
:10619000cf99de000202ea00953e20008482420090
:1061a00010002000a0508800860378009f00370070
:1061b0000400e00005003200305580000000e000df
:1061c00002003c00080378001100370041558000b0
:1061d00092528000f01f200001005000000040009b
:1061e000c1bd2900608078000091b900411bdd002d
:1061f0004f11de0002017300cf99de000203ea00b6
:10620000973e20008683430010002000b050880095
:10621000c4bd2900f0a8200011c0b30090cf100029
:1062200006003a0040558000925280000000400075
:1062300004004000000096007300370042558000c3
:1062400090528000020141000401410002019600c9
:106250005c0037004155800014558000f02f20006d
:10626000808f500035003c004255800090528000e5
:1062700002014100c3bd2900030141000201940055
:106280000280b900410bdd004f00de00000073000a
:10629000cf88de000003ea00973e2000868343009b
:1062a00010002000b05088000400e000050032001b
:1062b000305580000000e00002003c000a02780037
:1062c0005a003700c4bd2900f0a8200011c0b30057
:1062d00090cf10000d003a0041558000925280008e
:1062e000f02f2000010050000000400060007a0004
:1062f0000091b9004118dd004f11de00020170006d
:10630000cf99de000202ea003400370041558000d8
:1063100092528000f02f2000010050000000400049
:1063200060007a000091b900c118dd004f11de0055
:1063300002817000cf99de00380037000400e000d1
:1063400005003200305580000000e00002003c00f3
:1063500008037800100037004155800092528000f9
:10636000f03f20000100500000004000c1bd2900a6
:10637000608078000091b900411bdd004f11de0004
:1063800002017300cf99de00020378000000eb00e9
:10639000b050880082037800c4bd2900f0a8200016
:1063a00011c0b30090cf100011003a004255800098
:1063b000905280000201410003a02f000301410020
:1063c00062017a000280b9004109dd004f00de0061
:1063d00000007100cf88de000002ea00953e200038
:1063e0008482420010002000a05088000f00370077
:1063f00040558000925280000000400001a02f0014
:106400000100400060007a000091b9004118dd00f1
:106410004f11de0002017000cf99de000202780009
:106420000000eb00a050880082027800c1a120008b
:1064300002c4b300114061004c003a009140780062
:1064400062c060004900320009814400610111000e
:1064500002c1b900b050800000004000610010008f
:1064600000b0b90000015100cf91de00e00f5100f3
:10647000e08f590013003400a85280000804e9009e
:10648000030033008381d1000281d300fbff37007a
:10649000c25288000200e0000f0034000600e00055
:1064a00002003a00f0ff2700c0528800d05280005e
:1064b000f1a52000804878001000200010538800cb
:1064c000050037000000eb00c0528800e152800058
:1064d000f0a52000014878000b8145006101110002
:1064e00002d1b900a05080000000400061001000ff
:1064f00000a0b90000015100cf91de00e00f510073
:10650000e08f590013003400a85280000804e9000d
:10651000030033008381d1000281d300fbff3700e9
:10652000b25288000200e000150034000400e000d0
:1065300002003a00f0ff2700b0528800d0528000dd
:10654000e1a520008048780010002000005388005a
:106550000b0037000000eb00b0528800e1528000d1
:10656000e0a520000148780005003700e0528000d7
:10657000f1a5200080487800e1a52000804878003f
:1065800095a0a900b7548800a554880096548800a7
:1065900084548800c0a1200001c4b30010c0600072
:1065a00005003a00b2508000f2548800a6508000e6
:1065b000e65488009bfe070095a0a8004f05be008a
:1065c0004f04be0000000600889fbe008a9fbe00e8
:1065d000c1a1200002c4b3001140610011003a00c3
:1065e0009140780061c0600003003a00a053800031
:1065f0004580de0009003700b053800001712200a1
:10660000810f500003003c00018f2d00810f5000ce
:1066100002003d0011508800320037001050880001
:10662000300037009140780061c0600003003a00fc
:10663000a45380001450880002003700b05380003b
:10664000105088001050800001e22400810f50009b
:1066500003003c00011e2b00810f500001003d0093
:10666000115088000254800013548000355580007a
:10667000020078000200e00001003d000200ea0094
:10668000c280de00f4ff270005a0de00808f5000ee
:10669000140034008580e900105080000000e00004
:1066a0000700340001a0de0010508800cf80de001b
:1066b000800f5100818f59000a0034000700370015
:1066c00001a0de000000ea0010508800cf80de004c
:1066d000800f5100818f590002003d000054880056
:1066e00011548800c2a120009280fb00c508de0082
:1066f000e1c060001280fb004400de0061406000e9
:1067000080cf5000070032001280fb00e150800073
:106710000000d100700060000140a1008080700086
:10672000e15088001241780070406100380032006a
:106730009500a90070528000815280003252800082
:10674000435280000004510081845900185288008f
:10675000295288009500a800225580006110b900d8
:10676000800f5400818f5c0015003d000200ea009c
:10677000cf80de00800f5400818f5c001000340059
:1067800061a0200070b020001004e000030032007f
:1067900010c0b30080487800010037008048eb004b
:1067a0006000b800205488003154880000548800ec
:1067b0001154880010002000305388005700370023
:1067c00060a020000048eb00105080000000e000b6
:1067d00002003d000000ea001050880000548000d4
:1067e0000000e00001003d000000ea006105b90082
:1067f000d2052000030020000a00be006c18020031
:1068000000000000800f5400818f5c000200340003
:10681000105080000700370060001000e080180072
:10682000800f5400818f5c0004003d0010508000f8
:106830000000ea00cf80de00360037008053800081
:10684000cf80de0002002800330020006c18020018
:10685000000000000a01be004e1802000000000007
:106860000001be00e00f5000e08f580002003a0027
:1068700012002000030020000800be006c18020077
:1068800000000000cf89de00410add004f01de007c
:106890000201720022548800335488001050800096
:1068a0006102b900840f5100858f59000300340044
:1068b0002454880035548800180037000000ea008e
:1068c000cf80de00800f5100818f5900110035000c
:1068d00061005100e080590004032000840f500043
:1068e000e08f580003003e0020032000010020003c
:1068f000080037001203b0000380b000000320003e
:10690000800f5100e08f590004003e00e0fc2f0092
:10691000f1ff2f00205488003154880098538000e4
:1069200026548000375480000454800015548000a1
:106930000401530085815b00e00f5200e08f5a0094
:10694000100034006140b900800f5100818f590060
:1069500016003c00885380000800ea00cf80de006b
:10696000800f5100818f590013003d006140b90034
:106970000000520081805a000054880011548800a1
:106980000f0037000800ea00cf80de00800f5100c2
:10699000818f5900f5ff350080538000cf80de00e5
:1069a000800f5100818f5900030034000400400023
:1069b00085804800f0ff370006548800175488008f
:1069c000325580000200e0001e003a0001548000b1
:1069d0000100e00001003d008100ea001150880044
:1069e000e0a1200002487800c0a1200010407800fb
:1069f0007040600003003200820c2000403820000c
:106a00000800370010558000e10f500003003a00e5
:106a1000c2122000e02e200002003700c21c20001d
:106a200080252000808f500008003d00828f50009c
:106a30000600340011c0b300e0a120000148780036
:106a400002003700e0a120000048eb000254800063
:106a500013548000c0122000010020000051880063
:106a6000115188009500a90010032000800f5100eb
:106a7000e08f59000d00340000402800717d210096
:106a80004e180200000000000004be0011e1a80042
:106a900011c0b300f0a8200001487800c0a1200078
:106aa00001c4b30010c0600010003700caa120006c
:106ab000f0fc2f00f1ff2f00800f5100818f590053
:106ac0000f003d0000402800717d21004e1802009b
:106ad000000000000004be0011e1a800f0a82000a2
:106ae00000c8eb0002c4b3001a4061000004e000db
:106af0001500320000732500905288001200370004
:106b000011e1a9000621ef000a21ef00e05080000a
:106b10000080a100e0508800e05080000090a100bb
:106b2000e050880004c4b3001a40620018fc28003a
:106b3000c90720000004e00003003a001001200013
:106b4000905288004cfd0700c0a1200001c4b30092
:106b500010c060000f003a000254800013548000ff
:106b6000e0538000f1538000800f5100818f590065
:106b700008003200e2538800f353880002007800d6
:106b80009bfc07001058880011c0b30060b02000c3
:106b900001487800f0a82000104078000000fb00b9
:106ba000cf80de000801be006c180200000000006b
:106bb00022558000cf91de006c180200000000001a
:106bc0004609dd004a00de0000007100ca88de00d0
:106bd000c0538800d1538800241f2000840f500028
:106be000e08f580004003c00301f2000010020000e
:106bf000c0538800d15388009500a8004f05be00ff
:106c00004f04be00000006008000eb00c155880064
:106c1000a155880060ab20000148780030ab20000f
:106c200001487800a0ab2000014878000000060071
:106c3000881f78009500a900705280008152800062
:106c400050528800615288009500a8004853800087
:106c5000e20f540072003a00d1a1200011417800e7
:106c600061406100100032009140780062c0600015
:106c700006003a001141e20004003d00a0ab2000f4
:106c800013c0b30090cf110007003a000000eb00e2
:106c9000b05388006000b800005488001154880088
:106ca00010002000305388000255800030558000cd
:106cb000800f51000e003200e60f51000b003e0025
:106cc0000054800011548000f3ae2000830f500068
:106cd000e08f580006003c0032558800001020006c
:106ce0000280de0020558800010037000055880032
:106cf000c2a120009280fb00c608de00e1c0600057
:106d00001280fb004700de0080cf50002c003200d4
:106d10009500a90095a0a900d425ef00d421ef008b
:106d2000c1e1a900c1e5a900c221ef00c225ef0021
:106d300011e1a9000621ef000a21ef0001c4b30010
:106d400012c060000900320010012000905288003b
:106d5000c9fc0700e05080000060a100e0508800fe
:106d6000e05080000070a1000a0037000073250089
:106d7000905288002045020000000000befc070081
:106d8000e05080000060a000e0508800e0508000eb
:106d90000070a000e0508800a00020009002880051
:106da000c221ef0010002000102e8800c1e1a800d1
:106db000c1e5a8009500a80095a0a80011e1a800d1
:106dc0004153800030538000808f50000c0032000f
:106dd000100020004053880030538800c1bc2000c0
:106de00080e09800c1e1a900c1e5a900d425ef0029
:106df000d421ef00e05080000030a000e050880077
:106e0000c0a1200010407800684060002e003200d1
:106e1000edfd0700e05080000030a10018003700b1
:106e2000e10f540018003a0030538000e10f500089
:106e300025003200405388008040eb00c0bc200099
:106e400001e098008cfc070076fc0700204502005a
:106e5000000000008000eb00c1558800a1558800ab
:106e6000a000200090028800110e8800182e8800d3
:106e7000c1e1a800c1e5a800e05080000030a000fa
:106e8000e0508800100037000800e0000e003a00d3
:106e900064440200000000009a4402000000000068
:106ea00034440200000000003a45020000000000e7
:106eb0002045020000000000100020004053880020
:106ec0003053880050ff07004f0478000000060090
:106ed00040508000a02e880050508000a00e8800f6
:106ee00070538000b00e8800c00e88006053800090
:106ef000d00e8800b02e880000000600889fbe00db
:106f00008a9fbe008c9fbe006101b9006108b90074
:106f100000065100818659008c4f88009d4f8800e3
:106f20008a5180009b51800002d02700030020007e
:106f30000c00be006c180200000000000004be003f
:106f40008291270003002000b0518000c1518000d1
:106f50006c180200000000000004540081845c00f2
:106f60004348dd004d44de0008047000cdccde0057
:106f70000a0444008b844c00a0518000cf80de00c6
:106f80000005550081855d0002518000135180008d
:106f90000a00be006c180200000000004309dd007a
:106fa0004d00de0000007100cd88de0000015400bd
:106fb00081815c0082518800935188005453800085
:106fc0006120b900800f5100818f590005003c00fd
:106fd0000402ea006120b900800f5100818f59003e
:106fe00002003d00a451880001003700a251880032
:106ff000e0a1200011c0b30090cf100003003a00c0
:10700000a05180004280de00a0518800bc51880061
:10701000cd518800a05180004f06be004f05be0034
:107020004f04be0000000600889fbe008a9fbe007d
:107030008c9fbe006101b9006108b90000065100d3
:10704000818659006c4f88007d4f88002a5180004e
:107050003b51800002d02700030020000c00be003e
:107060006c180200000000000004be00829127009e
:107070000300200050518000615180006c18020014
:10708000000000000004540081845c004348dd00df
:107090004d44de0008047000cdccde000a0444003c
:1070a0008b844c0040518000cf80de0000055500ed
:1070b00081855d0002518000135180000a00be00ee
:1070c0006c180200000000004309dd004d00de00e6
:1070d00000007100cd88de000001540081815c0059
:1070e0002251880033518800545380006120b90038
:1070f000800f5100818f590005003c000402ea0016
:107100006120b900800f5100818f590002003d00bd
:10711000445188000100370042518800e0a120005e
:1071200011c0b30090cf100003003a00405180001e
:107130004280de00405188005c5188006d5188001b
:10714000405180004f06be004f05be004f04be00f8
:1071500000000600881f78000001780001447800d4
:107160009050880000a1200001487800401f2000b6
:107170000010b800c2032000030020004e180200d7
:107180000000000080007800f2a82000e14f5400c9
:1071900003003a008000ea0000c9eb00020037005b
:1071a00010c0b30000497800b153880020002000cf
:1071b00030538800e05080000050a100e05088006b
:1071c0004f047800000006000000eb00d04f88005c
:1071d00011c0b300c09f200001487800c0bc20004f
:1071e0004178980000000600881f78008001780030
:1071f00001447800c0bc200040789000e14f40007e
:107200000f003a00c19f200010c0b300914f100042
:1072100008003a00d04f800000004100d04f8800a5
:10722000830f500003003900d34f880030c0b300f3
:107230008048780011c0b300c0bc2000417898009d
:10724000d04f8000421f20000200b800c20320007f
:10725000030020004e18020000000000e14f54001f
:1072600001003a000000ea00b0538800200020002e
:1072700030538800e05080000050a100e0508800aa
:107280004f04780000000600889fbe00800278004e
:107290000204be00e00f5100e08f590002003a00e6
:1072a00008e72f00f9ff2f00c69f20001641780045
:1072b000e24f51003d003200e34f51001100320017
:1072c000e14f510048003a00c3bc200043789000d1
:1072d000e14f400044003a00d04f80000080400061
:1072e000d04f8800850f500004003900d54f88002a
:1072f00030c0b300004b78003b003700c2799800e3
:1073000039003700d54f88009500a90070528000e1
:1073100081528000f04f8800015088009500a8003d
:10732000e00f5000e08f580002003d00f007b00071
:107330000180b000c789de00490add004701de0098
:1073400002017200f24f880003508800809f2000e5
:10735000104078000004e00006003a00a04f8000d2
:10736000b14f8000800f5100818f590008003d000f
:107370001d003700e14f50001b003a00a04f800075
:10738000b14f8000800f5100818f590016003d00e1
:1073900021c0b300c09f20000148780011c0b30095
:1073a000c0bc2000417898000f003700c1bc20000d
:1073b00041789000e14f40000b003a00d04f800030
:1073c000840f50000400390004005000d04f8800a2
:1073d00010c0b300030037000000eb00d04f88005e
:1073e000004b7800c0789800d04f8000421f2000ea
:1073f0000200b800c2032000030020004e18020063
:10740000000000004749dd00c941de008301710032
:107410004741dd003252880043528800220020009c
:1074200032538800b053880012032000800f5100af
:107430000200350020032000b0538800e050800097
:107440000050a000e050880011c0b30070b02000d0
:10745000014878004f04be00000006003053800051
:10746000e20f500003003a00e05080000080a000ce
:10747000e050880000000600889fbe0000027800ef
:107480000204be009050880062508800735088004b
:10749000401f20000020b800c2032000030020008d
:1074a0004e180200000000000001be00000278003b
:1074b000e00f5400e08f5c0002003a0008e72f0064
:1074c000f9ff2f004748dd00c940de008100700051
:1074d0004740dd00305288004152880020002000e3
:1074e00030538800b253880010032000800f5200f0
:1074f00002003c000000e800b0538800e05080002b
:107500000050a000e050880011c0b30070b020000f
:10751000014878004f04be0000000600889fbe00ae
:10752000800178008144780002047800401f200028
:107530000018b800c2032000030020004e1802000b
:1075400000000000000178006140b800305288005f
:1075500041528800e1cf540005003a000201ea00e0
:1075600060001000e080180030528800415288000e
:10757000b25388006011b800025488001354880088
:10758000e05080000050a000e050880011c0b3001f
:1075900070b02000014878009500a9007252880060
:1075a000835288009500a8004f04be00000006002a
:1075b000c0a1200010407800704060000800320038
:1075c00060a020001004e00005003200c0bc2000d4
:1075d00000e0900011c0b300e14f40000100320014
:1075e0008040eb000180fb000000060061a020004d
:1075f0008048780071b020008048780000000600c4
:107600009500a900c0508000d15080000000060005
:107610003052800041528000000006009500a90011
:107620007052800081528000f04f88000150880025
:107630009500a800e00f5000e08f580002003d00c8
:10764000f007b0000180b0004909dd004700de000e
:1076500000007100c788de00f04f880001508800ec
:1076600000000600889fbe000004be00ebff07007c
:107670000001eb00880f5000898f58000100350091
:1076800012002000020078004f04be000000060037
:10769000e4874700889fbe008a9fbe008c9fbe0083
:1076a0008e1f78000007780081bf9f008205780058
:1076b0000404be000400be00eaff07008046780014
:1076c000809f20000d487800e00f5400e08f5c00a0
:1076d00002003a0008e72f00f9ff2f000b00e0003e
:1076e00002003a000b0678000c0037000e05780007
:1076f0000006eb00070037000b0555006150b8008d
:10770000e2012000030020004e18020000000000eb
:10771000000646008b0f5500f7ff31000c004600b5
:10772000010020000d04e00003003a0000005400b6
:1077300081805c000200370008004000898048001a
:10774000a04f8800b14f8800c29f20000fb897005b
:107750000000e000070032000000eb00d04f88007e
:1077600011c0b30001497800c0bc200041789800e6
:1077700003003700de4f880030c0b30000497800b6
:107780004f0778004f06be004f05be004f04be00f5
:107790004f00b100000006009500a9006000b8008d
:1077a00070528800815288009500a80000000600f1
:020000040000fa
:1077b000809fbe003400f80000c0b300a001880024
:1077c0008460a900d1aa20001140e8008048780018
:1077d000e14f500007003400e05080000030a0006e
:1077e000e0508800e06180000000e800e06188006f
:1077f0008048eb00c1aa20001140e80080487800d2
:10780000e34f5000010034008048eb00e0aa200064
:107810009140780090cf500002003c00d422a80094
:1078200001003700d422a9003400f9004f00be0047
:10783000004006003600f800809fbe00829fbe0018
:10784000849fbe00869fbe003400f80000c0b300d5
:10785000a00188008500a900d262a800c053800062
:10786000d1538000600888007108880095a0a900a5
:107870007108800050088000808f500006003e0094
:107880006108800030088000808f500002003e00b8
:107890000621ef000a21ef0095a0a800d0a120004a
:1078a00010407800614060000600320040558000c2
:1078b0000004e00003003a00e05080000090a000c7
:1078c000e0508800f0a8200010437800e2a82000d3
:1078d00012407800804f5300070032000004e0009f
:1078e0000400320041558000f03f200001005000ac
:1078f0004055880006497800d2a1200092407800c7
:1079000062c0600004003a004055800021558000ac
:107910000100400040558800415880006000270069
:10792000808f500006003e001241780062406100e6
:107930000b003a002055800000804000070037000f
:10794000b0588000c158800061004000e0804800cd
:10795000b0588800c15888000000eb0040588800eb
:10796000d0a12000104078006240600008003a007a
:1079700020558000cf80de00c2508000d3508000b0
:107980000000410081804900c0508800d15088002b
:1079900041558000f03f2000808f50003f003400b0
:1079a0004055800001c02f00010040004240a90066
:1079b0000b003400745280008552800042558000d4
:1079c0000600fb00010141000280b900cf80de000b
:1079d0000402400085824800745288008552880065
:1079e0000000eb0040558800c1a1200002c4b30094
:1079f0001140610029003a009140780064c06000a5
:107a00001e00320041548000f0722500808f50002b
:107a10000f003c00005480001154800002712200cd
:107a2000820f5000e08f580003003c00905280000d
:107a30000000e8009052880090528000913e2000a3
:107a4000810f50000a00340091528800080037006e
:107a5000905280000000e90090528800905280000f
:107a6000f00f500002003c001001200090528800ee
:107a70000000eb004054880008003700905280005e
:107a8000f10f500003003400905280006a00500053
:107a9000010037001001200090528800c0a1200092
:107aa00001c4b30010c0600006003a0061b02000bd
:107ab0001104e00003003200804878001258800072
:107ac000925288003c3002000000000040538000c9
:107ad000e20f50000f003a00d0a1200010407800c3
:107ae000624060000b003a007252800083528000b6
:107af000f0a820001000fb00245580000480b9008d
:107b0000cf80de000201400083814800725288006d
:107b1000835288003400f9004f03be004f02be00bc
:107b20004f01be004f00be003600f90000400600c5
:107b3000809fbe003400f80000c0b300a0018800a0
:107b4000c0a1200001c4b30010c0600003003a00cf
:107b5000100120009052880005003700100020001e
:107b60007053880060538800a1ab200080487800e3
:107b70008be0a9008d40a9003400f9004f00be0041
:107b800000400600809fbe003400f80000c0b30033
:107b9000a0018800c0a1200001c4b30010c0600093
:107ba00003003a00100120009052880005003700c1
:107bb000100020007053880060538800a1ab2000a3
:107bc000804878008be0a9008d40a9003400f900be
:107bd0004f00be00004006003600f800809fbe0047
:107be000829fbe00849fbe00869fbe003400f800c6
:107bf00000c0b300a001880085a0a9004053800008
:107c0000e20f500026013a00c2548000311c2000cf
:107c10009140780000c8b30000c26000b2003a0092
:107c20000200e00002003a00201880005054880052
:107c3000d05480000000e00002003a0011188000db
:107c40006154880063548000005327000080410085
:107c5000c255800001a62e00810f50000d00360095
:107c60000200e800c055880061ab2000844878001d
:107c700001142000810f5000100036001000200079
:107c80007053880060538800a1ab200080487800c2
:107c90000a0037000200e0000800320060ab20005c
:107ca0009040e8000148780080c2b30080cf5000c7
:107cb000020036000000eb00c0558800a0ab200099
:107cc0001004e00082003a00e027240050538800ae
:107cd00002188000a2538800c0a1200001c4b30094
:107ce00010c160004b003a00104078006440600012
:107cf0001600320040548000808f51000100340093
:107d0000435488005154800040548000808f5000bc
:107d1000010034004154880061ad2000114078001a
:107d2000f24f500002003e008048e800010037009a
:107d30008248780060ad20001080fb000000400009
:107d4000c1ca20004254800002b07800c0a12000c7
:107d50001040780062406000220032001153800021
:107d60000100e0000e003400c0528000808f5000ff
:107d700003003c000100e8001053880008003700b1
:107d80000001eb00c2528800e1528000f0a5200003
:107d900001487800125388001230020000000000f1
:107da000015380000100e0000e003400b05280005a
:107db000808f500003003c000100e8000053880061
:107dc000080037000001eb00b2528800e152800049
:107dd000e0a520000148780002538800123002001c
:107de00000000000b054800070538800a25480004e
:107df00062538800913e2000810f50000100340042
:107e000071538800810f51002b00340061538800aa
:107e10002900370090548000830078007e370200ec
:107e20000000000080007800607820000088b90021
:107e30004109dd004f00de0000007100cf88de0048
:107e400070538800323a2000800f510001003d003d
:107e500072538800d1c52f0070538000810f5000ed
:107e600001003d0071538800715380000100e00063
:107e7000080035000000eb00f0548800500420009a
:107e8000808f50000a003c000000e800705388001a
:107e900007003700913eb0007153880010002000a9
:107ea000f0548800828f5000010034007253880023
:107eb0001230020000000000f05480000000e000da
:107ec00001003a00d0548800e0548000c05488007b
:107ed0006837020000000000501d2000300e8800ae
:107ee000c7e1a8006e003700e10f510002003a0020
:107ef0000403ee0050548800d0548000e10f50007d
:107f000002003a000203ee006054880053548000df
:107f10000053270000804100a255800001a62e00da
:107f2000810f50000d0036000200e800a0558800c7
:107f300031ab20008048eb0001142000810f50007d
:107f40001000360010002000705388006053880035
:107f5000a1ab2000804878000a0037000200e00052
:107f60000800320030ab20009040e8000148780063
:107f700080c2b30080cf5000020036000000eb004a
:107f8000a0558800a0ab20001004e0003f003a009c
:107f9000c0a1200001c4b30010c060000c003a0072
:107fa000b054800070538800a2548000625388004f
:107fb000913e2000810f5000010034007153880071
:107fc000810f51002b0034006153880029003700d5
:107fd0008054800083007800143802000000000004
:107fe00080007800607820000088b9004109dd0039
:107ff0004f00de0000007100cf88de006053880073
:10800000323a2000800f510001003d006253880089
:10801000d1c52f0060538000810f500001003d004a
:1080200061538800615380000100e00008003500c2
:108030000000eb00e054880050042000808f5000c6
:108040000a003c000000e800605388000700370089
:10805000913eb0006153880010002000e054880079
:10806000828f5000010034006253880012300200f9
:1080700000000000e0548000e10f500001003a00d1
:10808000c0548800f0548000d05488006837020043
:1080900000000000e0012000300e8800c7e1a900c8
:1080a0003400f9004f03be004f02be004f01be0076
:0c80b0004f00be003600f9000040060042
:020000040000fa
:1080bc008040eb0001c098006178980051789800de
:1080cc00417898007178980000000600881f7800ad
:1080dc0000047800c20320008000eb00401802006e
:1080ec00000000000040eb0000c49800607c980089
:1080fc00507c9800407c9800707c98004f0478006d
:10810c00000006005005200040118800800020006f
:10811c00001188002222ef0021e2a80023e2a9002e
:10812c0023a2a8002342a8008560a9008580a9008d
:10813c009560a800c502a900c102a900a0b8200042
:10814c00e2ff070080b42000e0ff070040fe2100a2
:10815c00105a8800a0132200205a88000000060044
:10816c00889fbe00a8b8200008c090000038a3006b
:10817c0014003200c9bc2000095890000004e00033
:10818c0002003a0010c0b3000d003700e14f400070
:10819c000c003a00e0d020009040780008007800f5
:1081ac00225a80000200010008007800c7ff070077
:1081bc0008c090000020a00000c498000040eb0014
:1081cc00805c9800a2b8200082c090000128a30017
:1081dc001700320088b4200008c0900003c2b3001e
:1081ec008344600017003a00010078000020a100d1
:1081fc0000c1980008007800b4ff0700e0d0200010
:10820c009040780008007800125a800002000100ab
:10821c0008c090000010a00000c49800c1bc200051
:10822c0010c0b300804878008978980005003700aa
:10823c00c1bc20001104e00002003a0010c0b300e1
:10824c008048780083b4200003c190000218a3007a
:10825c00170032000258a30015003a00c3789000b2
:10826c00c0c3b30080cf500011003e00c502a8006f
:10827c008580a9009580a800020078000050a0001d
:10828c0080c1980023c2bf000008a300fdff32008c
:10829c0082b42000d27890000180fb00604079000d
:1082ac000080fb00201188008140e8005179980083
:1082bc004f04be0000000600809fbe00821f7800a5
:1082cc0095c0bf000048a3001c00320085c0bf0051
:1082dc000048a300190032008580a90082b4200058
:1082ec00d27890004278900080cf50000d00390079
:1082fc00c502a9009580a90002c090000050a10001
:10830c000010a10000c19800e0b0200041c1b300f2
:10831c0090cf100009003a00100020008055880012
:10832c00060037000180fb00604079000080fb00f4
:10833c00201188000140e800507998004f01780026
:10834c004f00be0000400600881f78000004780033
:10835c0081037800820178004603200016437800e0
:10836c000000200034e0b7006022b8000a0037009b
:10837c004819de000400440010c069000080fb00b6
:10838c0000004000c1dd2900608078008001690098
:10839c0061024200e0824a006138b800800f52004e
:1083ac00818f5a00f2ff39000600780034e0b700e4
:1083bc00030078004f047800000006003600f80037
:1083cc00809fbe00829fbe00849fbe00869fbe0021
:1083dc00889fbe008a1f780095c0bf000038a3009c
:1083ec00fb00320085c0bf000038a300f80032004b
:1083fc008560a90022c2bf000018a3000300320050
:10840c002222a900a0b8200029ff070022c2bf0029
:10841c000028a3000300320030118000a0b8200017
:10842c0023ff07003211800002457800a9b8200014
:10843c0009c090000048a300e5003a00697890005c
:10844c00e24f50003400320005003e000004e00012
:10845c0009003200e14f5000db003a0014003700f5
:10846c00e44f50006b00320042003900e54f5000e1
:10847c00d5003a007a003700e24f5100d4003a00a0
:10848c00597890008080fb0082f07c000040e8006e
:10849c00d07c9800b1c3b300814f5000020036006d
:1084ac000900780002ff070010c0b3002f0037004e
:1084bc00597890008080fb0082f07c000040e8003e
:1084cc00d07c9800b1c3b300814f5000020036003d
:1084dc00a0b82000f6fe070000ceb3008040450097
:1084ec0000b42000014878000140e90002c3b30049
:1084fc00824f500004003600b0c9b30000c04000e9
:10850c00824f5000b0003e0021c0b300a0b8200044
:10851c0061789800ae003700597890008080fb009d
:10852c0082f07c000040e800d07c9800b1c3b3001e
:10853c00814f50000200360009007800dcfe070075
:10854c0070cdb3000040450031c3b300814f5000e3
:10855c0002003600090078009c003700b0cdb30053
:10856c0000404500c07c980030c0b300e07c98000f
:10857c0097003700797890000004e0000f0032007b
:10858c0000c3b300804f51000800320000c0e80067
:10859c00804f5100050032000040e800804f510030
:1085ac000200320009007800c1fe07008040eb0099
:1085bc00a0b820007178980004003700fb4f5100e0
:1085cc0002003a0010c0b300f07c9800a8b820005c
:1085dc00587890008080fb008a707c000040e80096
:1085ec00507c9800b1c3b300814f5000020036009c
:1085fc0008007800aefe0700d8789000487890000c
:10860c0080cf500072003a0040c0b300607c9800ec
:10861c006f003700597890008080fb0082f07c005e
:10862c000040e800d07c9800b1c3b300814f5000eb
:10863c0002003600090078009dfe0700d9789000f2
:10864c008180fb00497890000080fb0064004000b2
:10865c00808f50005e003a0050c0b300c3ff37005b
:10866c00e34f510058003a00d97890008180fb000c
:10867c006480500060c47c0002fe2f004c44dd007e
:10868c006380500060c07c00000041004800dd00a9
:10869c00000474000180e90060c07c000080fb00d5
:1086ac00020040004400dd00000474008100e90079
:1086bc0061c07c000080fb000200400000047400dc
:1086cc00c97890008180fb000001eb00a0b820006d
:1086dc001dff0700800f54003b003a0059789000b2
:1086ec008080fb008af07c000040e800d07c980081
:1086fc00b1c3b300814f500002003600a0b8200077
:10870c006bfe07004978900063405000c07c9800d5
:10871c008042eb000003eb00160037000580fb00e5
:10872c00d4b82000e0417a008540e800fbcf51002e
:10873c000c003a000281fb000180fb00e0407a0053
:10874c0000cdb30000c0400085c0e8000004e0008c
:10875c0002003a0003717a000400370000717a00bd
:10876c00020037000280fb0003707a000603e80069
:10877c008142780006417800a3b82000c3789000ad
:10878c0081cf5200e5ff390006c0520000c05000f6
:10879c00c079980001b42000e0d02000914078000e
:1087ac0090cf500003003a0003c090000030a000ae
:1087bc0080c1980003c090000038a30004003a0068
:1087cc000300780001003700a0b8200038fe070035
:1087dc004f0578004f04be004f03be004f02be0091
:1087ec004f01be004f00be003600f90000400600ed
:1087fc00000278008101780002c0e900e14f5000ce
:10880c0009003e009180fb00b0c1b30080707a007b
:10881c001340e800804978000080fb0005c3b300da
:10882c0085404100080037001180fb00fb4f5100d0
:10883c0007003a0002707a001140e8008048780086
:10884c000080fb0001c3b30001707a000100370007
:0c885c0002707a009349e800000006005a
:020000040000fa
:10886800001f200060198800c002a800c022a800cc
:10887800c802a800c0362200001988008000eb005a
:1088880031198800300020004019880081198800bb
:1088980010002000201988000030200010198800de
:1088a800aac0bf000044a1000046b300aae0b70078
:1088b80085a0a90095a0a80021e3a8000000060053
:1088c800e05080000060a000e0508800e050800088
:1088d8000020a000e0508800e05080000010a100b7
